:0400000050EF02F0CB
:100008004F82E1CF30F0E2CF31F0D9CF32F0DACF02
:1000180033F0F3CF34F0F4CF35F0F0B0F0A60FD2D0
:10002800600E3D1801E007D2280E36EC3AF02C6E2F
:10003800D8902C300101D66FD6C1D5F1899A2BEC16
:100048003CF00001706F898A716B7151470D000E89
:10005800F324D96E030EF420DA6EDFA005D0000178
:10006800712B010E7165F1D7020E0001701903E1C1
:10007800010E6B6F01D06B6B400E706107D0705131
:1000880005E0010E716512D06B5110E11A0E36ECC5
:100098003AF007D0899A2BEC3CF0898A1A0E36EC94
:1000A8003AF00001636F63B3F5D7C7D16E6B70C0C8
:1000B80061F0626BBCD16107D8A062076B5108E0A0
:1000C800899A6E51640FD96EDA6A2BEC3CF016D01F
:1000D800899A7151470D000E2C6E030E2D6E2C2A35
:1000E800000E2D22F3502C26F4502D226E512C2474
:1000F800D96E000E2D20DA6E2BEC3CF0DF6E00017D
:100108006E2B898A70516E5D01E291D16B5123E0AB
:100118006451030B020A07E14150651901E08DD1D2
:10012800010E426E8AD1010E716501D0AFD77151AF
:10013800470D010EF324D96E030EF420DA6E64C065
:10014800DFFF7151470D020EF324D96E030EF42020
:10015800DA6E65C0DFFF7151470D410EF324D96E89
:10016800030EF420DA6E70C0DFFF6F696A6B71519D
:10017800470D010EF324D96E030EF420DA6EDFACBE
:100188008FD0680E0001606F726B7151470D000EC1
:100198002C6E030E2D6E030E2C26000E2D22F3500E
:1001A8002C26F4502D2272512C24D96E000E2D20AD
:1001B800DA6E60517225E16EE26ADFCFE7FF722BDB
:1001C800010E7265E2D7682902E169290AE04D50FB
:1001D800681903E14E50691904E04D2855E14E288D
:1001E80053E1010E6A6F726B20D072513724D96EB9
:1001F800000E3820DA6E7151470D000E2D6E030E79
:100208002E6E050E2D26000E2E22F3502D26F450AC
:100218002E2272512D24E16E000E2E20E26EDE5049
:10022800E61802E06A6B09D0722B3630E832E83201
:100238000F0B2C6E2C50725DD8E36A5125E1010E2C
:100248006A6F726B19D07151470D000E2C6E030E38
:100258002D6E050E2C26000E2D22F3502C26F45060
:100268002D2272512C24D96E000E2D20DA6EDE2834
:1002780002E06A6B09D0722B3630E832E8320F0B95
:100288002C6E2C50725DDFE36A510AE17151470D03
:10029800410EF324D96E030EF420DA6EDF6AF6D627
:1002A80000017151470D010EF324D96E030EF4209D
:1002B800DA6EDFAA37D0726B8E0E7225D96EDA6AC3
:1002C800030EDA227251640FE16EE26ADFCFE7FFB4
:1002D800722B010E7265F0D7060E03018E6F0001B6
:1002E8007151470D020EF324D96E030EF420DA6E15
:1002F800DF5003018F6FF090156A020ECFEC24F0E7
:100308000001726B7251640FD96EDA6A8E0E722513
:10031800E16EE26A030EE222DFCFE7FF722B010EE5
:100328007265F0D70001726B7251060D000EF3244E
:10033800D96E020EF420DA6EDF5027E07151470DB6
:10034800020EF324D96E030EF420DA6E7251060DF4
:10035800010EF324E16E020EF420E26EDE50E61880
:1003680014E18EEC39F000017251060D020EF324EF
:10037800D96E020EF420DA6E0DC0DEFF0EC0DEFF6D
:100388000FC0DEFF10C0DEFF12D06F290CE17251E2
:10039800060D000EF324D96E020EF420DA6EDF503B
:1003A80002E172C06FF0722B040E7265BDD7040EA5
:1003B800726543D0050E6F612FD06F51060D000E88
:1003C800F324D96E020EF420DA6E010EDF6E71513D
:1003D800470D020EF324D96E030EF420DA6E6F5126
:1003E800060D010EF324E16E020EF420E26EDFCF5B
:1003F800E7FF8EEC39F000016F51060D020EF32471
:10040800D96E020EF420DA6E0DC0DEFF0EC0DEFFDC
:100418000FC0DEFF10C0DEFF7151470D000EF32440
:10042800D96E030EF420DA6E0301DF8006D0615125
:10043800621103E040D6010E3B6EF09000F0F2B47A
:10044800F2AA18D0D6CF6CF0D7CF6DF00101C22B2D
:10045800000EC323C423C52300018F0E6C27E80EAA
:100468006D236CC0D6FF6DC0D7FF6CC0D6FFF29469
:10047800010E446EF2B2F2A801D0F29235C0F4FF38
:1004880034C0F3FF33C0DAFF32C0D9FF31C0E2FF16
:1004980030C0E1FF4F92110019EF2BF08AC19AF199
:1004A8008BC19BF18AC1A0F18BC1A1F1E6EC3BF0B5
:1004B80073C091F174C092F10101946B956B966BC6
:1004C800976B94C173F095C174F096C175F097C19C
:1004D80076F08A290001776F000E01018B21000157
:1004E800786F8CC179F08DC17AF05EEC2EF073C014
:1004F80094F174C095F175C096F176C097F194C1E6
:10050800ABF095C1ACF096C1ADF097C1AEF067EC19
:1005180012F0000902E01AEF3BF001018F055FE1DC
:1005280020EE02F09A51D9269B51DA22220EDE18CB
:1005380056E1980E0001756F010E766F860E776F83
:10054800010E786F7A6B020E796F5DEC36F001015F
:1005580020EE06F09A51D9269B51DA22DECFE3F03D
:10056800DDCFE4F0970E0001E56F340EE66F010170
:10057800981D0001E76F0101991D0001E86FE55121
:10058800E727E651E823E351E71BE451E81B0101A3
:1005980020EE06F09A51D9269B51DA22E7C0DEFFF9
:1005A800E8C0DDFF860E00019F6F010EA06F8AC1B3
:1005B800A1F08BC1A2F08CC1A3F08EC1A4F06DECA8
:1005C80025F0860E9D6F010E9E6F8AC19FF08BC12C
:1005D800A0F08CC1A1F030EC24F045EF3CF03FECEA
:1005E8003CF0000919E120EE06F0A051D926A151EE
:1005F800DA22DECF8FF0DDCF90F020EE03F0A051AD
:10060800D926A151DA22DF50070B0001916F8AEC3D
:100618001CF0E80601E080D201018F0512E120EE0E
:1006280002F09A51D9269B51DA22270EDE1809E1E9
:100638004FEC3CF0E80601E06FD2C7EC31F045EF33
:100648003CF08F051AE120EE02F09A51D9269B5111
:10065800DA22280EDE1811E1882903E1892901E14F
:100668005BD288C173F089C174F08EC175F0000146
:10067800766BB9EC1BF045EF3CF020EE02F0A05190
:10068800D926A151DA22230EDE1825E020EE02F049
:10069800A051D926A151DA22240EDE181CE020EE42
:1006A80002F0A051D926A151DA22250EDE1813E056
:1006B80020EE02F0A051D926A151DA22260EDE182A
:1006C8000AE020EE02F0A051D926A151DA22290E23
:1006D800DE1801E021D2DAEC3BF091C1D9FF92C1DA
:1006E800DAFFDECF7DF0DDCF7EF0010120EE04F0F1
:1006F800A051D926A151DA22DECF7FF0DDCF80F0DC
:10070800B1EC3AF0000928E1010120EE04F0A05113
:10071800D926A151DA22DECF7BF0DDCF7CF0EAECDE
:1007280037F0000919E13FEC3CF000097FE1C4EC27
:100738003AF07BC07DF07CC07EF0010120EE04F031
:10074800A051D926A151DA22DECF7FF0DDCF80F08B
:10075800B1EC3AF000096AE0A0C1D9FFA1C1DAFF03
:10076800DF5029E0010120EE04F0A051D926A15163
:10077800DA22DECF7BF0DDCF7CF0EAEC37F000093F
:1007880007E101018F0517E13FEC3CF0000913E197
:10079800A0C1D9FFA1C1DAFFDF068AC19FF08BC1D2
:1007A800A0F08CC1A1F08DC1A2F090C1A3F000010E
:1007B800A46B52EC1DF001018F5119E120EE06F0F7
:1007C800A051D926A151DA22DECF9CF1DDCF9DF1CF
:1007D80086C19EF187C19FF19C0E00018F6F010EAB
:1007E800906F9E0E916F010E926F9EEC13F00101B7
:1007F80020EE04F0A051D926A151DA22DECF7BF0F9
:10080800DDCF7CF0EAEC37F00101936F8AC1DCF0B0
:100818008BC1DDF08CC1DEF08DC1DFF093C1E0F05B
:1008280090C1E1F004EC16F045EF3CF001018F05B2
:100838001CE1A0C1D9FFA1C1DAFFDF5001E16CD1F1
:10084800A0C1D9FFA1C1DAFFDF068AC19FF08BC121
:10085800A0F08CC1A1F08DC1A2F090C1A3F000015D
:10086800A46B52EC1DF045EF3CF020EE04F0A051D3
:10087800D926A151DA22DECF7DF0DDCF7EF0C4EC9F
:100888003AF07BC07FF07CC080F0B1EC3AF0E8062B
:100898002BE1010120EE06F0A051D926A151DA2260
:1008A800DECF9CF1DDCF9DF186C19EF187C19FF11E
:1008B8009C0E00018F6F010E906F9E0E916F010EBE
:1008C800926F9EEC13F08AC18AF08BC18BF08CC1B9
:1008D8008CF08DC18DF0010E00018E6F90C18FF0EC
:1008E800A4EC21F045EF3CF0010120EE02F0A0510C
:1008F800D926A151DA22260EDE1825E120EE06F0CF
:10090800A051D926A151DA22DECF9CF1DDCF9DF18D
:1009180086C19EF187C19FF19C0E00018F6F010E69
:10092800906F9E0E916F010E926F9EEC13F03FEC4C
:100938003CF0000908E120EE02F0A051D926A151AF
:10094800DA22230EDF6E20EE04F0A051D926A15141
:10095800DA22DECF9CF1DDCF9DF19CC181F09DC1F3
:1009680082F0B6EC32F0020A14E19CC17FF09DC11E
:1009780080F08AC181F08BC182F08CC183F08DC177
:1009880084F090C185F0010E866F0DEC3CF045EFC8
:100998003CF09CC1ABF09DC1ACF04CEC20F0ABC07E
:1009A8009EF1ACC09FF19EC17BF09FC17CF0EAEC48
:1009B80037F0E8067CE1010120EE02F0A051D926CB
:1009C800A151DA22260EDE1801E0A0D020EE04F0B4
:1009D800A051D926A151DA22DECF8BF0DDCF8CF0E1
:1009E8002BEC35F08BC09EF18CC09FF19EC17BF043
:1009F8009FC17CF0EAEC37F0000945E13FEC3CF0A0
:100A080000090FE09EC17DF09FC17EF026EC3CF00E
:100A180073C07FF074C080F0B1EC3AF0000901E0D7
:100A280052D79EC1BCF09FC1BDF017EC3CF073C01B
:100A3800BEF074C0BFF08AC1C0F08BC1C1F08CC1D8
:100A4800C2F090C1C3F0DCEC36F0000965E19EC14C
:100A580097F09FC198F037EC34F0010120EE04F0D4
:100A6800A051D926A151DA22DECF7DF0DDCF7EF06C
:100A78009EC17FF09FC180F0B1EC3AF0E8064CE1EE
:100A88003FEC3CF002D03FEC3CF0000901E01BD702
:100A9800A0C1D9FFA1C1DAFF140EDF6E20EE02F06B
:100AA800A051D926A151DA22230EDF6ECED63FEC13
:100AB8003CF000090FE09EC17DF09FC17EF026EC5E
:100AC8003CF073C07FF074C080F0B1EC3AF00009DC
:100AD80001E0F9D69EC1BCF09FC1BDF017EC3CF017
:100AE80073C0BEF074C0BFF08AC1C0F08BC1C1F042
:100AF8008CC1C2F090C1C3F0DCEC36F000090CE107
:100B08009CC181F09DC182F0E4EC2FF0A0C1D9FF17
:100B1800A1C1DAFF140EC9D745EF3CF051D0010E40
:100B280005D021EC39F0E80651E1020E3F6E4ED0B7
:100B380021EC39F000094AE10101426B436B4C0E8C
:100B48004203F3CFC5F0F4CFC6F04303F3500001DE
:100B5800C6274B0EC525D96E060EC621DA6EDF50A4
:100B680026E04C0E01014203F3CFC5F0F4CFC6F0E6
:100B78004303F3500001C6274B0EC525D96E060E58
:100B8800C621DA6E010EDF6E4C0E01014203F3CF6F
:100B9800C5F0F4CFC6F04303F3500001C627490E51
:100BA800C525D96E060EC621DA6E000EDF6E01016C
:100BB800424B432B4351B3E1020E425DB0E2BFD733
:100BC8003F50ADE0010AADE0030AB2E0020E3F1863
:100BD800D8A412000101426B436B95D14C0E010160
:100BE8004203F3CFC5F0F4CFC6F04303F35000013E
:100BF800C627400EC525D96E060EC621DA6EDF500F
:100C080001E199D14C0E01014203F3CFC5F0F4CFB5
:100C1800C6F04303F3500001C6274A0EC525D96E16
:100C2800060EC621DA6E0601DFB038D0C4EC3AF001
:100C38007BC07FF07CC080F0000E816F010E826F58
:100C4800230E836F4C0E01014203F3CFC5F0F4CF9E
:100C5800C6F04303F3500001C627000EC525846F74
:100C6800060EC621856F4C0E01014203F3CFC7F073
:100C7800F4CFC8F04303F3500001C827400EC7253E
:100C8800D96E060EC821DA6EDF50866F876B3EEC90
:100C98002AF07FC040F180C041F141D0000E000130
:100CA800756F010E766F4C0E01014203F3CFC5F04C
:100CB800F4CFC6F04303F3500001C627000EC52544
:100CC800776F060EC621786F4C0E01014203F3CFF1
:100CD800C7F0F4CFC8F04303F3500001C827400E13
:100CE800C725D96E060EC821DA6EDF50796F7A6B88
:100CF8005DEC36F04C0E01014203F3CFC5F0F4CFA2
:100D0800C6F04303F3500001C627400EC525D96E2F
:100D1800060EC621DA6EDF500101406F416B26ECEA
:100D28003CF073C0BCF074C0BDF017EC3CF073C06D
:100D3800BEF074C0BFF0000E0001C06F010EC16F9D
:100D480040C1C2F04C0E01014203F3CFC5F0F4CF0D
:100D5800C6F04303F3500001C6274A0EC525D96ED5
:100D6800060EC621DA6E000EDFB2010EC36FDCEC90
:100D780036F0E80613E14C0E01014203F3CFC5F04B
:100D8800F4CFC6F04303F3500001C6274B0EC52528
:100D9800D96E060EC621DA6E000EB3D058EC39F0C3
:100DA8004C0E01014203F3CFC5F0F4CFC6F0430364
:100DB800F3500001C627410EC525D96E060EC6217F
:100DC800DA6E070EEBCFDBFFE806FCE24C0E010102
:100DD8004203F3CFC5F0F4CFC6F04303F35000014C
:100DE800C627490EC525D96E060EC621DA6EDF2A3A
:100DF8004C0E01014203F3CFC5F0F4CFC6F0430314
:100E0800F3500001C627490EC525D96E060EC62126
:100E1800DA6E030EDF6013D04C0E01014203F3CFEC
:100E2800C5F0F4CFC6F04303F3500001C6274B0EBC
:100E3800C525D96E060EC621DA6E020E62D04C0E9A
:100E480001014203F3CFC5F0F4CFC6F04303F350DA
:100E58000001C6274B0EC525D96E060EC621DA6ECF
:100E6800020EDF6E26EC3CF073C08FF074C090F079
:100E7800B1EC2EF060D04C0E01014203F3CFC5F067
:100E8800F4CFC6F04303F3500001C627410EC52531
:100E9800D96E060EC621DA6E00EE8FF0070EDBCF94
:100EA800EBFFE806FCE248EC31F09251911105E1C4
:100EB800A10E8F5D0F0E90593EE34C0E01014203C7
:100EC800F3CFC5F0F4CFC6F04303F3500001C627B3
:100ED800490EC525D96E060EC621DA6EDF2A4C0EDC
:100EE80001014203F3CFC5F0F4CFC6F04303F3503A
:100EF8000001C6274B0EC525D96E060EC621DA6E2F
:100F0800010EDF6E18D04C0E4203F3CFC5F0F4CFBC
:100F1800C6F04303F3500001C6274B0EC525D96E12
:100F2800060EC621DA6EDF5006E0010A01E156D648
:100F3800030AA1E020D70101424B432B435103E1AF
:100F4800020E425DE0E312000001B86B73EC39F069
:100F58007FC0ACF080C0ADF081C0AEF082C0AFF011
:100F6800B851060D000EF324D96E020EF420DA6E85
:100F7800DF503EE0B851060D020EF324D96E020E82
:100F8800F420DA6EAC51DE5CAD51DE58AE51DE585D
:100F9800AF51DE582DE2B851060D020EF324D96E7A
:100FA800020EF420DA6EDECFA4F0DECFA5F0DECF9D
:100FB800A6F0DECFA7F0A451AC5DA86FA551AD593E
:100FC800A96FA651AE59AA6FA751AF59AB6FAB51D4
:100FD800AA1105E1E90EA85D030EA95909E3B85164
:100FE800060D000EF324D96E020EF420DA6EDF6AC5
:100FF800B82B040EB865AAD73E2801E0000CB86BE0
:10100800B851470D000EF324D96E030EF420DA6EA2
:10101800DFA05DD10001B851470D010EF324D96E50
:10102800030EF420DA6EDF5002016E6F0001B85132
:10103800470D410EF324D96E030EF420DA6EDF500B
:101048000201736F020E0001B76F02016EAD1AD074
:10105800780E0001756F020E766FB851470D030EBA
:10106800F324776F030EF420786F7A6B020E796F92
:101078005DEC36F0020EB7273630E832E8320F0B57
:10108800B72702D07869796902016EAF3CD0760E35
:101098000001756F020E766FB851470D000EA46FF0
:1010A800030EA56FA42B000EA523F350A427F4501C
:1010B800A523B751A425776F000EA521786F7A6B09
:1010C800020E796F5DEC36F0020EB727B851470D66
:1010D800000EA46F030EA56FA42B000EA523F350DA
:1010E800A427F450A523B751A42502016F6F00016E
:1010F800000EA5210201706F3630E832E8320F0B7E
:101108000001B72706D06F6B706B4DC076F24EC0EA
:1011180077F202016EA7BBD00001B851470D000E4F
:10112800A46F030EA56F050EA427000EA523F35088
:10113800A427F450A523B751A425D96E000EA521E4
:10114800DA6EDF500AE0B851470D000EF324D96E6D
:10115800030EF420DA6EDF6A000C02016EAF71D064
:101168000001B66BB00E756F766B6FC277F070C208
:1011780078F07A6B020E796F5DEC36F0B6510B0D94
:10118800820EF324D96E040EF420DA6EDFAE15D089
:101198000001B6510B0D800EF324D96E040EF42015
:1011A800DA6EDECF7DF0DDCF7EF0B0C07FF0B1C06B
:1011B80080F0B1EC3AF0000905E10001B62B040E0D
:1011C800B665D0D7050EB6613CD0B20E756F766B9A
:1011D800B851470D000EA46F030EA56FA42B000E87
:1011E800A523F350A427F450A523B751A425776F5E
:1011F800000EA521786F7A6B040E796F5DEC36F0DE
:10120800B6510B0D780EF324D96E040EF420DA6E65
:10121800DE50B25DDE50B359DE50B459DE50B559D8
:1012280092E3B6510B0D780EF324D96E040EF42018
:10123800DA6EB2C0DEFFB3C0DEFFB4C0DEFFB5C0F9
:10124800DEFF050E0001B727B851470D010EF32444
:10125800976F030EF420986FB7C099F0B851470DF7
:10126800410EF324D96E030EF420DA6EDF50A46F1A
:10127800B751A45D9A6F8C0E9B6F020E9C6F83EC26
:101288002BF0000901E15FD7B751020F02D000012E
:10129800B7510201735F0001B851470D000EA46FEA
:1012A800030EA56FA42B000EA523F350A427F4501A
:1012B800A523B751A4250201716F0001000EA521D5
:1012C8000201726FD5C174F2B8C03EF0010C000182
:1012D800B82B010EB86594D6000C0201B46BB56B3F
:1012E800BA6BBB6BBC6BBD6B020EC26F58EC2DF0BA
:1012F8009EEC3BF07CEC37F07FC0EAF180C0EBF16C
:10130800EA0E836F010E846F550E866F330E856F5C
:1013180055EC37F0B0EC35F08B94899C899ECE0E55
:1013280000017A6F030E7B6FD60E7C6FFF0E7D6F08
:10133800EAC17EF0EBC17FF014EC11F0A1EC2CF0C7
:101348000101A66BA76BA86B1E0EA96F0E0EEDEC24
:1013580022F0FF0AF5E0000E00019A6B01EC2FF075
:10136800CFEC33F030EC0BF0FAD073EC39F07FC0EF
:10137800B6F280C0B7F281C0B8F282C0B9F20201F9
:10138800BA6BBB6B010EE8D04DEC3CF0E8060DE102
:10139800020E0101DA6F73EC39F07FC0B6F280C03B
:1013A800B7F281C0B8F282C0B9F24FEC29F0E80672
:1013B80001E0E1D030EC3CF0DED073EC39F0020112
:1013C800B65100017F5D0101B26F0201B751000102
:1013D80080590101B36F0201B8510001815901011F
:1013E800B46F0201B951000182590101B56FB551BD
:1013F800B4113DE12C0EB25D010EB35938E24FEC49
:1014080029F0E8063AE1DF0E00017A6F030E7B6FE0
:10141800B30E7C6FFF0E7D6F7DC2D9FF7EC2DAFFEF
:10142800DECF7EF0DDCF7FF0020120EE01F07F51AC
:10143800D9268051DA22DF500001806F816B14ECCD
:1014480011F0A1EC2CF0040E736F000EAAEC38F02A
:1014580030EC3CF073EC39F07FC0B6F280C0B7F2E4
:1014680081C0B8F282C0B9F24BEC3CF006D0000E55
:10147800B4EC3BF0030E0101DA6F4DEC3CF00009CF
:1014880081E079D00201BA0552E1010EB4EC3BF0DB
:1014980053C2C0F254C2C1F2C00E0001736F020EF3
:1014A800746F766B756B786B020E776F4CEC3AF055
:1014B8000101D86B880ED825D96EDA6A070EDA22B0
:1014C8000A0EDF6ED82B880ED825D96EDA6A070E79
:1014D800DA22BCC2DFFFD82BC00E476F020E486F5E
:1014E800496B4A6B4B6B04EC39F0E80611E1DF0EEF
:1014F8007A6F030E7B6FA10E7C6FFF0E7D6FBCC2EF
:101508007EF07F6B14EC11F00201BC2BA1EC2CF0E7
:1015180073EC39F07FC0B6F280C0B7F281C0B8F280
:1015280082C0B9F20201BA6B020E0101DA6F020140
:10153800BB0521E1010EB4EC3BF04BEC3CF073EC45
:1015480039F07FC0B6F280C0B7F281C0B8F282C06D
:10155800B9F20201BB6B020E0101DA6F0CD0010176
:10156800DA5101E102D7010A01E10ED7030A01E1CC
:1015780024D7010A87E0000E0AEC3AF0E80607E1F2
:101588000201B45106E1010EB46FBA6F02D0020134
:10159800B46B010E0AEC3AF0E80607E10201B55116
:1015A80006E1010EB56FBB6F02D00201B56B4DECC1
:1015B8003CF0E80636E1CDEC3BF075C0B2F276C0FF
:1015C800B3F20201BD5112E0BE0E0001736F020EAC
:1015D800746FB20E756F020E766F786B020E776FAE
:1015E80007EC36F07351741101E1BAD6010E02010D
:1015F800BD6FCDEC3BF075C0BEF276C0BFF2D50E24
:1016080000017A6F030E7B6FEB0E7C6FFF0E7D6F10
:10161800BEC27EF0BFC27FF014EC11F0A1EC2CF03A
:101628009FD60201BD0501E09BD6BD6BCDEC3BF01A
:1016380075C0BEF276C0BFF2D50E00017A6F030EF8
:101648007B6FF20E7C6FFF0E7D6FDF0E7E6FFF0EDD
:101658007F6F14EC11F0E2D70001916B926B94D17B
:101668009151921102E18B9406D09105921102E1F9
:10167800899C01D0899EC90E9125D96E010E9221AF
:10168800DA6E010E6CD0C60E9125D96E010E92212C
:10169800DA6E020EDE180AE151D0898EC90E912544
:1016A800D96E010E9221DA6E050E19D1C60E91255A
:1016B800D96E010E9221DA6E030EDE1836E173EC54
:1016C80039F01E0E876F020E886FD8909135D96E4B
:1016D8009235DA6ED890D936DA368751D9268851BC
:1016E800DA227FC0DEFF80C0DEFF81C0DEFF82C05D
:1016F800DEFFC90E9125D96E010E9221DA6E030E16
:10170800DF6E4E0E9125D96E020E9221DA6E010E11
:10171800DF6E9151921102E18B841AD091059211DA
:1017280002E1898C15D0898E13D0C60E9125D96E09
:10173800010E9221DA6E040EDE180AE1915192111F
:1017480002E18B84ABD791059211A7E1898CA6D7CA
:10175800C60E9125D96E010E9221DA6E000EDF6E4B
:1017680027D11E0E876F020E886FD8909135D96EDB
:101778009235DA6ED890D936DA368751D92688511B
:10178800DA22DECF89F0DECF8AF0DECF8BF0DECF33
:101798008CF073EC39F089517F5D8D6F8A518059D7
:1017A8008E6F8B5181598F6F8C518259906F9051E8
:1017B8008F118E1104E1150E8D5D01E2F9D0C90E6D
:1017C8009125D96E010E9221DA6E040EDF6E73EC4C
:1017D80039F01E0E876F020E886FD8909135D96E3A
:1017E8009235DA6ED890D936DA368751D9268851AB
:1017F800DA227FC0DEFF80C0DEFF81C0DEFF82C04C
:10180800DEFF4E0E9125D96E020E9221DA6EDE04AD
:101818000CE19151921102E18B94CAD09105921179
:1018280002E1899CC5D0899EC3D09151921102E1F1
:101838008B84BED09105921102E1898CB9D0898E32
:10184800B7D01E0E876F020E886FD8909135D96E6B
:101858009235DA6ED890D936DA368751D92688513A
:10186800DA22DECF89F0DECF8AF0DECF8BF0DECF52
:101878008CF073EC39F089517F5D8D6F8A518059F6
:101888008E6F8B5181598F6F8C518259906F905107
:101898008F118E1104E1150E8D5D01E289D04E0E77
:1018A8009125D96E020E9221DA6EC90E9125E16E4C
:1018B800010E9221E26EDFCFE7FF7AD0C60E9125A6
:1018C800D96E010E9221DA6EDE040BE153D0899EA7
:1018D800C90E9125D96E010E9221DA6E010EDF6EC6
:1018E80037D7C60E9125D96E010E9221DA6E030EF6
:1018F800DE1836E173EC39F01E0E876F020E886F22
:10190800D8909135D96E9235DA6ED890D936DA36C4
:101918008751D9268851DA227FC0DEFF80C0DEFFDA
:1019280081C0DEFF82C0DEFFC90E9125D96E010E8F
:101938009221DA6E030EDF6E4E0E9125D96E020EDD
:101948009221DA6E050EDF6E9151921102E18B94AD
:10195800FFD69105921102E1899CFAD6899EF8D6A4
:10196800C60E9125D96E010E9221DA6E040EDE188C
:1019780001E0EED69151921102E18B94A9D791051D
:101988009211A5E1899CA4D7C90E9125D96E010EA3
:101998009221DA6EDF5001E163D6010A01E173D6C4
:1019A800020A01E1DED6070A01E14BD7010A86E007
:1019B800914B922B925103E1030E915DE5E31200E6
:1019C800E0EC3BF073C0A3F074C0A4F03FEC3CF033
:1019D8000009D8B4120000019D6B9E6B9F69A06935
:1019E8009B699C69976B986BB5D0090E9703F3CFE9
:1019F80093F0F4CF94F09803F3509427980E93251E
:101A0800A16F060E9421A26F20EE02F0A151D926F3
:101A1800A251DA22DECF86F0DDCF87F0ECEC3BF086
:101A2800000901E095D020EE02F0A151D926A2517B
:101A3800DA22DECF7DF0DDCF7EF0E6EC3BF073C03E
:101A4800D9FF74C0DAFFDECF7FF0DDCF80F0B1ECD4
:101A58003AF000097DE1A1C0D9FFA2C0DAFFDECFCC
:101A680085F0DDCF86F0886B876B29EC33F085C075
:101A780095F086C096F0A1C0D9FFA2C0DAFFDECFEC
:101A880085F0DDCF86F0000120EE04F0A151D926C3
:101A9800A251DA22DECF87F0DDCF88F029EC33F0CF
:101AA80085C099F086C09AF0A1C0D9FFA2C0DAFF1C
:101AB800DECF7DF0DDCF7EF0A3C0D9FFA4C0DAFF72
:101AC800DECF7FF0DDCF80F0B1EC3AF0000923E003
:101AD80099C09BF09AC09CF020EE04F0A151D92641
:101AE800A251DA2210EE02F0A351E126A451E2221B
:101AF800DECFE6FFDDCFE5FF20EE07F0A151D926C6
:101B0800A251DA2210EE05F0A351E126A451E222F7
:101B1800DFCFE7FF1DD020EE07F0A151D926A25153
:101B2800DA22DF5015E195C073F096C074F0C6EC68
:101B38003BF000090DE09F51995DA0519A5908E2C8
:101B480099C09FF09AC0A0F0A1C09DF0A2C09EF0DD
:101B5800974B982BEB51975DEC51985901E245D77B
:101B68009F2903E1A02901E17FD09B2902E19C295B
:101B780026E020EE05F0A351D926A451DA22DE048E
:101B880013E120EE02F0A351D926A451DA22DECFC8
:101B980093F0DDCF94F00A0E9327000E942393510F
:101BA8009F5D9451A0590BE30F0E9F25936F000E74
:101BB800A021946F9B51935D9C51945955E2A3C009
:101BC800D9FFA4C0DAFFDECF85F0DDCF86F0C8EC00
:101BD80038F09DC0D9FF9EC0DAFFDECF85F0DDCF9B
:101BE80086F0E6EC38F09DC0D9FF9EC0DAFFDECF64
:101BF80085F0DDCF86F0B2EC36F09DC0D9FF9EC0EF
:101C0800DAFFA3C0E1FFA4C0E2FFDECFE6FFDDCF2D
:101C1800E5FF20EE04F09D51D9269E51DA2210EE00
:101C280002F0A351E126A451E222DECFE6FFDDCF88
:101C3800E5FF20EE07F09D51D9269E51DA2210EEDD
:101C480005F0A351E126A451E222DFCFE7FF9F511F
:101C58009B5D936FA0519C59946F945103E1150EAD
:101C6800935D02E347EC3CF043500FE0A3C0D9FF7B
:101C7800A4C0DAFFDECF86F0DDCF87F0ECEC3BF0D6
:101C8800000903E05BEC3CF00DD043500BE1000190
:101C98009B2908E19C2906E19F2902E1A02902E08D
:101CA8005AEC3CF0436A1200CAEC29F0C6EC37F053
:101CB8003AEC18F092EC05F047D13FEC3CF0000903
:101CC80003E1040EDD6F040C010E0101DD6F010C50
:101CD8003FEC3CF00009D8B412003FEC3CF000099E
:101CE8000AE026EC3CF073C086F074C087F0ECEC98
:101CF8003BF00009E9E102019A51D8A4120094ECE2
:101D08001FF07351D36F030E7415D46FD56BD66B58
:101D1800E80ED3250201466F030E0001D42102010B
:101D2800476F000E0001D5210201486F000E000127
:101D3800D6210201496F58EC39F022EE2AF0070E3D
:101D4800EBCFDBFFE806FCE2050E0101DD6F050CB9
:101D580012EC3CF0000173517411D8B4120058EC25
:101D680039F022EE2AF0070EEBCFDBFFE806FCE2A3
:101D7800020E0101DD6F020C22EE2AF000EE8FF058
:101D8800070EDBCFEBFFE806FCE248EC31F092519E
:101D9800911107E1D10E8F5D070E905902E212EF03
:101DA8003CF0E4EC0CF0030E0101DD6F030C26ECB3
:101DB8003CF073C086F074C087F0ECEC3BF000098F
:101DC80026E158EC39F022EE2AF0070EEBCFDBFFC4
:101DD800E806FCE294EC1FF07351D36F030E741500
:101DE800D46FD56BD66BE80ED3250201466F030E70
:101DF8000001D4210201476F000E0001D521020124
:101E0800486F000E0001D6210201496F9DD712ECE0
:101E18003CF000017351741101E156D7120026EC11
:101E28003CF073C086F074C087F0ECEC3BF0E80639
:101E3800BAE022EE2AF000EE8FF0070EDBCFEBFFC0
:101E4800E806FCE248EC31F08F510201465D0001E2
:101E5800905102014759000191510201485900016E
:101E6800925102014959D8B012005CEC3CF00009CB
:101E7800D8A412000101DF07C4EC3AF07BC07FF060
:101E88007CC080F0440E816F010E826F240E836F38
:101E9800846B856B876B866B3EEC2AF07FC057F1AD
:101EA80080C058F1440E01015725D96E010E582102
:101EB800DA6E3FEC3CF0DF6E574B582B26EC3CF0CB
:101EC80073C0BCF074C0BDF017EC3CF073C0BEF03A
:101ED80074C0BFF0440E0001C06F010EC16F57C13E
:101EE800C2F03CEC3CF00001C36FDCEC36F00009BA
:101EF80008E126EC3CF073C08FF074C090F0B1ECB0
:101F08002EF0060E0101DD6F58EC39F022EE2AF0B2
:101F1800070EEBCFDBFFE806FCE2120022EE2AF008
:101F280000EE8FF0070EDBCFEBFFE806FCE248EC93
:101F380031F09251911107E1E90E8F5D030E90592E
:101F480001E3DDD61200DBD60101DD5101E1B5D692
:101F5800010A01E1FDD6030A01E10ED7010A01E1F8
:101F680026D7070A01E1B4D6010A01E158D7030AC6
:101F7800D5E01200966B96510B0D000EF324976F67
:101F8800050EF420986F97C0D9FF98C0DAFFDECF0E
:101F98007DF0DDCF7EF088C07FF089C080F0B1ECA5
:101FA8003AF0000901E137D120EE05F09751D92622
:101FB8009851DA22DFA02FD120EE04F09751D926CC
:101FC8009851DA22DF508A6F20EE03F09751D92614
:101FD8009851DA22DF508A25936F20EE05F0975149
:101FE800D9269851DA22DFB273D020EE03F0975148
:101FF800D9269851DA22DF508A6F8AC08BF08C6B11
:102008008D6B8E6BFA0E8B03F3CF8FF0F4CF90F0BD
:10201800916B926B8C03F3509027F4509123000E30
:1020280092238B03F3509027F4509123000E9223B0
:10203800FA0E8D03F3509127F4509223000E8C036F
:10204800F3509127F4509223000E8B03F3509127FD
:10205800F4509223FA0E8E03F3509227000E8D034C
:10206800F3509227000E8C03F3509227000E8B0337
:10207800F35092278FC073F090C074F091C075F040
:1020880092C076F09351776F786B796B7A6B7BECB3
:1020980032F073C094F074C095F020EE06F09751BA
:1020A800D9269851DA2294C0DFFF20EE06F0975126
:1020B800D9269851DA22DF504EEC38F020EE07F09E
:1020C8009751D9269851DA227BC0DEFF7CC0DDFF0C
:1020D80020EE05F09751D9269851DA22000EDB82BE
:1020E80020EE03F09751D9269851DA22DF508A6FF3
:1020F8008AC08BF08C6B8D6B8E6BFA0E8B03F3CFD3
:102108008FF0F4CF90F0916B926B8C03F350902783
:10211800F4509123000E92238B03F3509027F45030
:102128009123000E9223FA0E8D03F3509127F45059
:102138009223000E8C03F3509127F4509223000E43
:102148008B03F3509127F4509223FA0E8E03F35029
:102158009227000E8D03F3509227000E8C03F35044
:102168009227000E8B03F35092278FC073F090C014
:1021780074F091C075F092C076F09351776F786BD8
:10218800796B7A6B7BEC32F073C094F074C095F085
:1021980020EE06F09751D9269851DA2294C08AF099
:1021A80095C08BF0D8908A378B3710EE06F0975190
:1021B800E1269851E222E750080D8A51F324736F03
:1021C8008B51F420746F766B0A0E756FA1EC37F0A3
:1021D8007351DF6E20EE03F09751D9269851DA2219
:1021E800DF6A20EE04F09751D9269851DA22DF6A87
:1021F80097C080F098C081F020EE06F09751D9265C
:102208009851DA22DF504EEC38F07BC082F07CC067
:1022180083F0CCEC34F0962B130E9665ACD6130CE9
:102228007E0E8B6F3ED1250E921909E07AC0D9FF38
:102238007BC0DAFF92C0DFFF7A4B7B2B32D1906BE9
:10224800916B876B03D087857C4B7D2B7CC0F6FF19
:102258007DC0F7FF0800F550300AF5E07CC0F6FFB6
:102268007DC0F7FF0800F5500BEC3BF001E285D08C
:10227800906B916B90C073F091C074F0766B0A0EFE
:10228800756F8BEC3AF073C090F074C091F0D00E7B
:10229800826F83697CC0F6FF7DC0F7FF0800F550A8
:1022A800846F856B825184278351852384519027BD
:1022B800855191237C4B7D2B7CC0F6FF7DC0F7FFB9
:1022C8000800F5500BEC3BF058E3D4D78B51D96E8E
:1022D800DA6ADECF8CF0DDCF8DF0020E8B278C51C1
:1022E8008D1104E1E40E8C6FFF0E8D6F8E6B8F6B7A
:1022F80002D08E4B8F2B8E518C25826F8F518D2162
:10230800836F82C0F6FF83C0F7FF0800F550F1E144
:1023180090518E5D91518F5905E28E51905F8F518A
:10232800915B0BD0906B916B08D07AC0D9FF7BC0C2
:10233800DAFF200EDF6E7A4B7B2B9007D8A091072F
:102348009029F3E1912910E0F0D78CC0F6FF8DC0F9
:10235800F7FF7AC0D9FF7BC0DAFF0800F5CFDFFFAF
:102368008C4B8D2B7A4B7B2B8E07D8A08F078E2911
:10237800ECE18F2901E195D0E8D77CC0F6FF7DC05C
:10238800F7FF7C4B7D2B0800F5CF92F0925101E1CD
:1023980094D0580A05E02B0A99E00B0A01E081D095
:1023A8008B51D96EDA6ADECF88F0DDCF89F0020E64
:1023B8008B27010E926F9251020D890EF324F66E4F
:1023C800FF0EF420F76E0900F550885D0900F550FE
:1023D800895904E3922B040E9219EDE1800E92BF05
:1023E8007F0E826F9051925D9151800A825907E267
:1023F8009251905F000E92BFFF0E915B02D0906BDE
:10240800916B87A50FD0905191111DE07AC0D9FF2B
:102418007BC0DAFF300EDF6E7A4B7B2B9007D8A09B
:102428009107F1D7905191110EE07AC0D9FF7BC086
:10243800DAFF200EDF6E7A4B7B2B9007D8A091072E
:1024480090519111F2E192C08AF028D088C073F0BF
:1024580089C074F08A51020D890EF324F66EFF0EBE
:10246800F420F76E0900F5CF75F00A00F5CF76F085
:10247800A1EC37F073510F0B866FC50E8625F66EEB
:10248800F76AFF0EF7220800F5CF92F07AC0D9FF5D
:102498007BC0DAFF92C0DFFF7A4B7B2B8A078A2941
:1024A800D5E17CC0F6FF7DC0F7FF7C4B7D2B080093
:1024B800F5CF92F0925101E0B6D67AC0D9FF7BC031
:1024C800DAFFDF6A000CC269C369C669C769010E11
:1024D800C16FC80E736F746B766B7569786B080E75
:1024E800776F4CEC3AF0B50E736F746B766B756B57
:1024F800786B0C0E776F4CEC3AF0D06BD16B0C0EFE
:10250800D003F3CFAFF0F4CFB0F0D103F350B0273E
:10251800A00EAF25D96E0A0EB021DA6ECC51DE5C62
:10252800CD51DE58CE51DE58CF51DE5833E30C0E74
:10253800D003F3CFAFF0F4CFB0F0D103F350B0270E
:10254800A00EAF25D96E0A0EB021DA6EDE50CC1976
:102558003BE1DE50CD1938E1DE50CE1935E1DE50D1
:10256800CF1932E10C0ED003F3CFAFF0F4CFB0F0B7
:10257800D103F350B0279C0EAF25D96E0A0EB021B7
:10258800DA6EDE50C85DDE50C959DE50CA59DE50D9
:10259800CB591AE30C0ED003F3CFAFF0F4CFB0F061
:1025A800D103F350B0279C0EAF25D96E0A0EB02187
:1025B800DA6E10EEC8F0070EDBCFE3FFE806FCE2A8
:1025C800D0C0C2F0D1C0C3F0C62920E1C7291EE19E
:1025D8000C0ED003F3CFAFF0F4CFB0F0D103F3502B
:1025E800B027980EAF25736F0A0EB021746FB50E21
:1025F800756F766B786B0C0E776F07EC36F073514E
:10260800741104E1D0C0C6F0D1C0C7F00C0ED003DD
:10261800F3CFAFF0F4CFB0F0D103F350B027980E5A
:10262800AF25D96E0A0EB021DA6EAB51DE1838E14B
:10263800AC51DE1835E1AD51DE1832E1AE51DE188D
:102648002FE10C0ED003F3CFAFF0F4CFB0F0D103ED
:10265800F350B0279C0EAF25D96E0A0EB021DA6E62
:1026680000EE8FF0070EDBCFEBFFE806FCE248EC4C
:1026780031F0925191110FE1D00E8F5D070E9059F4
:102688000AE2D0C0C6F0D1C0C7F0D0C0C2F0D1C0F5
:10269800C3F0C16B0DD0C669C769C269C36908D0E8
:1026A800D04BD12BD15104E11E0ED05D01E227D7CA
:1026B800C62902E1C72905E0C6C0C4F0C7C0C5F0F5
:1026C80004D0C2C0C4F0C3C0C5F0C42902E1C52902
:1026D8002DE00C0EC403F3CFAFF0F4CFB0F0C50378
:1026E800F350B027980EAF25D96E0A0EB021DA6ED6
:1026F800ABC0DEFFACC0DEFFADC0DEFFAEC0DEFFAC
:1027080058EC39F00C0EC403F3CFAFF0F4CFB0F0AF
:10271800C503F350B0279C0EAF25D96E0A0EB02121
:10272800DA6E070EEBCFDBFFE806FCE2C151D8B446
:10273800010C000C99699A699B699C699F0E736FDB
:10274800746B766B7569786B080E776F4CEC3AF0A2
:10275800A76BA86B0C0EA703F3CF93F0F4CF94F0FC
:10276800A803F3509427040E9325D96E040E9421E0
:10277800DA6EA351DE5CA451DE58A551DE58A6518D
:10278800DE5833E30C0EA703F3CF93F0F4CF94F0A5
:10279800A803F3509427040E9325D96E040E9421B0
:1027A800DA6EDE50A3193CE1DE50A41939E1DE509F
:1027B800A51936E1DE50A61933E10C0EA703F3CFB5
:1027C80093F0F4CF94F0A803F3509427000E9325C8
:1027D800D96E040E9421DA6EDE509F5DDE50A0594A
:1027E800DE50A159DE50A2591BE39F0E756F766B20
:1027F8000C0EA703F3CF93F0F4CF94F0A803F35093
:102808009427000E9325776F040E9421786F7A6BC6
:10281800080E796F5DEC36F0A7C099F0A8C09AF061
:102828009B292EE19C292CE10C0EA703F3CF93F0F2
:10283800F4CF94F0A803F3509427040E9325D96E8F
:10284800040E9421DA6EDE50DE10DE10DE1018E180
:102858000C0EA703F3CF93F0F4CF94F0A803F35032
:102868009427000E9325D96E040E9421DA6EDE505B
:10287800DE10DE10DE1004E1A7C09BF0A8C09CF0BB
:102888008FC0D9FF90C0DAFFDECF7DF0DDCF7EF0BC
:102898000C0EA703F3CF93F0F4CF94F0A803F350F2
:1028A8009427080E9325D96E040E9421DA6EDECF94
:1028B8007FF0DDCF80F0B1EC3AF0E80609E1A7C07F
:1028C8009BF0A8C09CF0A7C099F0A8C09AF008D0C7
:1028D800A74BA82BA85104E10A0EA75D01E23AD73D
:1028E8009B2902E19C2905E09BC09DF09CC09EF0BD
:1028F80004D099C09DF09AC09EF09D2903E19E29BD
:10290800D8B412000C0E9D03F3CF93F0F4CF94F0DB
:102918009E03F3509427080E9325756F040E942197
:10292800766F8FC077F090C078F042EC3CF00001F1
:10293800796F7A6B5DEC36F00C0E9D03F3CF93F054
:10294800F4CF94F09E03F35094270A0E9325756FE5
:10295800040E9421766F91C077F092C078F042EC23
:102968003CF00001796F7A6B5DEC36F058EC39F089
:102978000C0E9D03F3CF93F0F4CF94F09E03F35025
:102988009427000E9325D96E040E9421DA6E070E53
:10299800EBCFDBFFE806FCE21200010ECF6FE6EC9E
:1029A8003BF073C0CDF074C0CEF0C7C0D0F0C8C043
:1029B800D1F0C5C0ABF0C6C0ACF04CEC20F0ABC059
:1029C800D2F0ACC0D3F0D2C07BF0D3C07CF0EAEC3C
:1029D80037F0E80601E0ABD03FEC3CF0000915E128
:1029E800D0C0D9FFD1C0DAFF140EDF6EC7C09FF088
:1029F800C8C0A0F0C9C0A1F0CAC0A2F0CBC0A3F063
:102A08000001A46B52EC1DF0F9D0C5C08BF0C6C014
:102A18008CF02BEC35F08BC0D2F08CC0D3F0D2C048
:102A28007BF0D3C07CF0EAEC37F0000960E1D2C05B
:102A38007DF0D3C07EF026EC3CF073C07FF074C00C
:102A480080F0B1EC3AF0000914E03FEC3CF00009EA
:102A580010E0C7C08AF0C8C08BF0C9C08CF0CAC0EB
:102A68008DF0010E00018E6FCBC08FF0A4EC21F029
:102A780093D0D2C0BCF0D3C0BDF017EC3CF073C00B
:102A8800BEF074C0BFF0C7C0C0F0C8C0C1F0C9C0B4
:102A9800C2F0CBC0C3F0DCEC36F0CF6FCF5101E011
:102AA800ADD0D2C097F0D3C098F037EC34F020EE18
:102AB80002F0D051D926D151DA22230EDE1808E1CE
:102AC80020EE02F0D051D926D151DA22260EDF6E3F
:102AD800C7C08AF0C8C08BF0C9C08CF0CAC08DF0DE
:102AE800010E8E6FCBC08FF0A4EC21F055D020EEF4
:102AF80002F0D051D926D151DA22230EDE1808E18E
:102B080020EE02F0D051D926D151DA22260EDF6EFE
:102B1800C7C08AF0C8C08BF0C9C08CF0CAC08DF09D
:102B2800010E8E6FCBC08FF0A4EC21F067D0D2C01D
:102B38007DF0D3C07EF0CDC0D9FFCEC0DAFFDECFA6
:102B48007FF0DDCF80F0B1EC3AF0000904E0C5C0B9
:102B5800D2F0C6C0D3F0D2C07DF0D3C07EF026EC50
:102B68003CF073C07FF074C080F0B1EC3AF000091B
:102B780015E03FEC3CF0000911E0C7C08AF0C8C07E
:102B88008BF0C9C08CF0CAC08DF0010E00018E6FA9
:102B9800CBC08FF0A4EC21F0CF6F30D0D2C0BCF006
:102BA800D3C0BDF017EC3CF073C0BEF074C0BFF0EA
:102BB800C7C0C0F0C8C0C1F0C9C0C2F0CBC0C3F024
:102BC800DCEC36F0CF6FCF5119E1C5C081F0C6C03B
:102BD80082F0E4EC2FF0D0C0D9FFD1C0DAFF140E98
:102BE800DF6EC7C09FF0C8C0A0F0C9C0A1F0CAC0BE
:102BF800A2F0CBC0A3F0A46B52EC1DF0CF51120091
:102C0800DCC084F1DDC085F13FEC3CF0000901E057
:102C1800B3D020EE06F08451D9268551DA22DECFD2
:102C28008FF0DDCF90F020EE03F08451D926855146
:102C3800DA22DF50070B0001916F8AEC1CF0E806DE
:102C480001E187D0120020EE06F08451D926855183
:102C5800DA22DECF81F0DDCF82F0400E0001836FF3
:102C6800010E846F830E856F010E866F800E876F4D
:102C7800010E886FD4EC3BF081C081F182C082F1F3
:102C8800010181518211D8B41200800517E120EEAC
:102C980006F08451D9268551DA22DECFC5F0DDCF82
:102CA800C6F0400E0001C76F010EC86F81C1C9F0A0
:102CB80082C1CAF083C1CBF0D1EF14F020EE06F048
:102CC8008451D9268551DA22DECFD4F0DDCFD5F074
:102CD800230E0001D66F400ED76F010ED86F81C149
:102CE800D9F082C1DAF083C1DBF005EF37F020EECE
:102CF80006F08451D9268551DA22DECFD4F0DDCF13
:102D0800D5F0250E0001D66FD76BD86BDA6BD96B6F
:102D1800E1C0DBF005EF37F0E151D8A41200000163
:102D2800DF5104E10B0EDE5DD8A01200C80E756FEE
:102D3800070E766F0A0EDC25776F000EDD21786F9F
:102D4800F60EDE25796FFF0EDF217A6F5DEC36F027
:102D580056D0010120EE02F08451D9268551DA229D
:102D6800DF50230AD9E0070AC2E0010AD8B41200EA
:102D78000C0A01E168D7120020EE02F08451D9262E
:102D88008551DA22250EDE181EE102019A510DE165
:102D980094C286F095C287F0ECEC3BF0000905E19F
:102DA80047EC3CF0010E02019A6F010120EE06F09B
:102DB8008451D9268551DA22DECFE8F1DDCFE9F159
:102DC800040EDD6F040CE151D8A412000001DF519C
:102DD80004E10B0EDE5DD8A01200C80E756F070E59
:102DE800766F0A0EDC25776F000EDD21786FF60E00
:102DF800DE25796FFF0EDF217A6F5DEC36F0010E6C
:102E08000101E16F20EE06F08451D9268551DA22BE
:102E1800DECF7BF0DDCF7CF0C80E00017D6F070EA2
:102E28007E6FF60EDE257F6FFF0EDF21806FE0C01C
:102E380081F088EF36F0E0EC3BF073C0CFF074C05F
:102E4800D0F0000E736F070E746F766B756B786B2E
:102E5800480E776F4CEC3AF0000ED16F070ED26F28
:102E680020EE02F0D151D926D251DA22220EDF6E9D
:102E78003FEC3CF00001C36F20EE03F0D151D9269E
:102E8800D251DA22DF50C319F80BC319DF6E21ECD7
:102E980039F0C36F20EE03F0D151D926D251DA228E
:102EA800C347C347C347DF50C319F70BC319DF6EC6
:102EB80020EE05F0CF51D926D051DA22DF50C36F6A
:102EC80020EE03F0D151D926D251DA22C33BDF508C
:102ED800C319EF0BC319DF6E20EE01F0D151D926CB
:102EE800D251DA22DEC1DFFF0101DE2B040E000120
:102EF800D125756F000ED221766FCFC077F0D0C084
:102F080078F042EC3CF00001796F7A6B5DEC36F0BA
:102F18003FEC3CF0000912E1000120EE02F0CF5135
:102F2800D926D051DA2210EE06F0D151E126D2513D
:102F3800E222DECFE6FFDDCFE5FF3BD0CFC0D9FFF1
:102F4800D0C0DAFFDECF86F0DDCF87F0ECEC3BF0C7
:102F5800000910E020EE06F0D151D926D251DA222C
:102F6800DE68DD6820EE03F0D151D926D251DA228D
:102F7800DF8A1FD0CFC0D9FFD0C0DAFFDECF85F0FF
:102F8800DDCF86F020EE02F0CF51D926D051DA22DB
:102F9800DECF87F0DDCF88F029EC33F0000120EE9A
:102FA80006F0D151D926D251DA2285C0DEFF86C07B
:102FB800DDFFE6EC3BF073C0CBF074C0CCF0CD0E77
:102FC800756F766BCBC077F0CCC078F07A6B020E59
:102FD800796F5DEC36F020EE06F0D151D926D2514A
:102FE800DA22DECFC3F0DDCFC4F0970EC56F340E02
:102FF800C66FCD1DC76FCE1DC86FC551C727C65137
:10300800C823C351C71BC451C81B20EE06F0D151B9
:10301800D926D251DA22C7C0DEFFC8C0DDFF080EAC
:10302800D125846F000ED221856FD1512808866F73
:10303800D251D8A0E82A0708876F17EC1EF084C081
:10304800C9F085C0CAF0000EBC6F070EBD6FD15124
:10305800C95DBE6F17EC3CF073C0BFF074C0C0F020
:103068003CEC3CF00001C16FFCEF34F0CF6BD06B4F
:103078004A0ECF03F3CFC3F0F4CFC4F0D003F3501C
:10308800C427E00EC325D96E080EC421DA6EDE50BF
:10309800DE10DE10DE1015E14A0ECF03F3CFC3F0C9
:1030A800F4CFC4F0D003F350C427DC0EC325D96E87
:1030B800080EC421DA6EDE50DE10DE10DE1001E1EB
:1030C800C4D058EC39F0040EE926000EEA224A0E64
:1030D800CF03F3CFC7F0F4CFC8F0D003F350C8271D
:1030E800E00EC725D96E080EC821DA6EEE50DE5CF8
:1030F800EE50DE58EE50DE58EE50DE583CE358EC09
:1031080039F0040EE926000EEA224A0ECF03F3CF67
:10311800C7F0F4CFC8F0D003F350C827E00EC72596
:10312800D96E080EC821DA6EDE50EE1809E1DE50BD
:10313800EE1806E1DE50EE1803E1DE50EE18D8A4D2
:1031480084D058EC39F04A0ECF03F3CFC7F0F4CF50
:10315800C8F0D003F350C827DC0EC725D96E080E77
:10316800C821DA6EDE50EE5CDE50EE58DE50EE58C6
:10317800DE50EE586AE34A0ECF03F3CFC3F0F4CF24
:10318800C4F0D003F350C427250EC325D96E090E09
:10319800C421DA6EDFA203D0CD69CE6906D017EC60
:1031A8003CF073C0CDF074C0CEF04A0E0001CF03DE
:1031B800F3CFC3F0F4CFC4F0D003F350C427E40E28
:1031C800C325BC6F080EC421BD6F4A0ECF03F3CFD1
:1031D800C5F0F4CFC6F0D003F350C627240EC5259A
:1031E800D96E090EC621DA6EDF50BE6FCDC0BFF0B2
:1031F800CEC0C0F04A0ECF03F3CFC7F0F4CFC8F06B
:10320800D003F350C827250EC725D96E090EC8214B
:10321800DA6E010EDFA0000EC16FFCEC34F04A0E2E
:10322800CF03F3CFC3F0F4CFC4F0D003F350C427D7
:10323800DC0EC325736F080EC421746F766B756B33
:10324800786B080E776F4CEC3AF0CF4BD02BD051FF
:1032580004E1060ECF5D01E20BD7120089698A6985
:103268008B6B8C6B0B0E8B03F3CF85F0F4CF86F052
:103278008C03F3508627800E8525D96E040E86218F
:10328800DA6EDECF7DF0DDCF7EF081C07FF082C0C8
:1032980080F0B1EC3AF0E80626E10B0E8B03F3CF91
:1032A80085F0F4CF86F08C03F35086277C0E8525B5
:1032B800D96E040E8621DA6E8351DE1814E184512A
:1032C800DE1811E10B0E8B03F3CF85F0F4CF86F0F7
:1032D8008C03F3508627820E8525D96E040E86212D
:1032E800DA6EDFBE22D00B0E00018B03F3CF85F020
:1032F800F4CF86F08C03F3508627820E8525D96E8D
:10330800040E8621DA6EDFBE08D0892906E18A29F3
:1033180004E18BC089F08CC08AF000018B4B8C2BA8
:103328008C5103E1050E8B5D9DE300018C5104E196
:10333800050E8B5DD8A0120089C08BF08AC08CF076
:103348008B2903E18C29D8B412000B0E8B03F3CF21
:1033580085F0F4CF86F08C03F3508627780E852508
:10336800736F040E8621746F766B756B786B0B0E1A
:10337800776F4CEC3AF00B0E8B03F3CF85F0F4CF5C
:1033880086F08C03F3508627800E8525756F040E12
:103398008621766F810E776F786B7A6B020E796F64
:1033A8005DEC36F00B0E8B03F3CF85F0F4CF86F08F
:1033B8008C03F35086277C0E8525D96E040E862152
:1033C800DA6E83C0DEFF84C0DDFF0B0E8B03F3CF04
:1033D80085F0F4CF86F08C03F3508627820E85257E
:1033E800D96E040E8621DA6EDF8E0B0E00018B0378
:1033F800F3CF85F0F4CF86F08C03F3508627780E50
:103408008525D96E040E8621DA6EDE6ADE6ADE6AEA
:10341800DD6A12008A6B89698B6B8C6B8D6B0B0E66
:103428008C03F3CF86F0F4CF87F08D03F350872712
:10343800050E8625D96E050E8721DA6EDFA041D0EC
:103448000B0E00018C03F3CF86F0F4CF87F08D03C9
:10345800F3508727000E8625D96E050E8721DA6E70
:10346800DECF7DF0DDCF7EF026EC3CF073C07FF040
:1034780074C080F0B1EC3AF0000923E10B0E8C0324
:10348800F3CF86F0F4CF87F08D03F3508727050E2E
:103498008625D96E050E8721DA6EDFB612D00B0E9F
:1034A80000018C03F3CF86F0F4CF87F08D03F3503F
:1034B8008727050E8625D96E050E8721DA6EDFA2CD
:1034C8008B2B00018C4B8D2B8D5103E1140E8C5DE1
:1034D800A6E38B5170E094EC1FF073C07FF074C0CA
:1034E80080F08BC081F0826B6DEC38F07F51886F73
:1034F8008C6B8D6B0B0E8C03F3CF86F0F4CF87F0BB
:103508008D03F3508727050E8625D96E050E872172
:10351800DA6EDFA048D00B0E00018C03F3CF86F0E3
:10352800F4CF87F08D03F3508727050E8625D96ED3
:10353800050E8721DA6EDFA636D00B0E8C03F3CF8B
:1035480086F0F4CF87F08D03F3508727050E862584
:10355800D96E050E8721DA6EDFA225D00B0E8C03FB
:10356800F3CF86F0F4CF87F08D03F3508727000E52
:103578008625D96E050E8721DA6EDECF7DF0DDCF88
:103588007EF026EC3CF073C07FF074C080F0B1ECA4
:103598003AF0000908E18807882905E18CC089F01C
:1035A8008DC08AF008D000018C4B8D2B8D5103E122
:1035B800140E8C5D9FE389C084F08AC085F01200E8
:1035C800360EA96501D0000CA251030BE80601E1F3
:1035D800A28FAD6BA2C08EF3AD2B8E0EAD25D96E2A
:1035E800DA6A030EDA223CC0DFFF3C2AAD2BA2AD1B
:1035F8002AD08E0EAD25756F766B030E7623A50E39
:10360800776F786B7A6B020E796F5DEC36F0020E8D
:10361800AD27AC6B10D0AC51A325D96E000EA421F8
:10362800DA6E8E0EAD25E16EE26A030EE222DFCF7E
:10363800E7FFAD2BAC2B3630E832E8320F0BAA6F20
:10364800AA51AC5DE8E3A2AF2AD08E0EAD25756F06
:10365800766B030E76234D0E776F786B7A6B020EBE
:10366800796F5DEC36F0020EAD27AC6B10D0AC5123
:103678003724D96E000E3820DA6E8E0EAD25E16E35
:10368800E26A030EE222DFCFE7FFAD2BAC2B363028
:10369800E832E8320F0BAA6FAA51AC5DE8E3A2A7A3
:1036A80048D08E0EAD25756F766B030E76239B0E74
:1036B800776F020E786F7A6B040E796F5DEC36F0D7
:1036C800040EAD2702019B2B000E9C239D239E23F5
:1036D8008E0E0001AD25D96EDA6A030EDA22DF6A92
:1036E800AD2BADC0ABF0AC6B10D0AC51A725D96EEB
:1036F800000EA821DA6E8E0EAD25E16EE26A030E89
:10370800E222DFCFE7FFAD2BAC2BA951AC5DEDE397
:103718008E0E976F030E986FABC099F0A9C09AF000
:103728008C0E9B6F020E9C6F45EC2CF0020EAD27A1
:1037380015D0AC6B10D0AC51A725D96E000EA821BE
:10374800DA6E8E0EAD25E16EE26A030EE222DFCF5D
:10375800E7FFAD2BAC2BA951AC5DEDE3000E36B203
:10376800010E876FAD5149EF22F07B697C69020138
:10377800514B522B00017D6B7E6B050E7D03F3CF01
:1037880077F0F4CF78F07E03F3507827560E77253C
:10379800D96E020E7821DA6E7351DE1840E1745149
:1037A800DE183DE1050E7D03F3CF77F0F4CF78F016
:1037B8007E03F3507827550E7725D96E020E7821AF
:1037C800DA6E0101D251DE182AE1050E00017D03EF
:1037D800F3CF77F0F4CF78F07E03F3507827580EC4
:1037E8007725D96E020E7821DA6EDF50796F7A6B01
:1037F8007551795D76517A5933E2050E7D03F3CF21
:1038080077F0F4CF78F07E03F3507827580E7725B9
:10381800D96E020E7821DA6E75C0DFFF21D0050E51
:1038280000017D03F3CF77F0F4CF78F07E03F350F7
:103838007827590E7725D96E020E7821DA6EDF5077
:1038480008E17B2906E17C2904E17DC07BF07EC08C
:103858007CF07D4B7E2B7E5103E1050E7D5D8DE373
:103868007E5104E1050E7D5DD8A012007B2903E19D
:103878007C29D8B412007BC07DF07CC07EF0050E98
:103888007D03F3CF77F0F4CF78F07E03F3507827F9
:10389800590E7725D96E020E7821DA6E010EDF6E89
:1038A800050E7D03F3CF77F0F4CF78F07E03F35065
:1038B8007827560E7725D96E020E7821DA6E73C0F6
:1038C800DEFF74C0DDFF050E7D03F3CF77F0F4CF84
:1038D80078F07E03F3507827580E7725D96E020EBC
:1038E8007821DA6E75C0DFFF050E7D03F3CF77F020
:1038F800F4CF78F07E03F3507827550E7725D96EEC
:10390800020E7821DA6ED2C1DFFF12009D699E692E
:103918009C6B940E736F746B766B756B786B080E7B
:10392800776F4CEC3AF09F6BA06B8FC07DF090C026
:103938007EF00B0E9F03F3CF92F0F4CF93F0A00329
:10394800F3509327000E9225D96E080E9321DA6E54
:10395800DECF7FF0DDCF80F0B1EC3AF0E8062AE167
:1039680058EC39F00B0E9F03F3CF92F0F4CF93F09D
:10397800A003F3509327020E9225D96E080E9321C7
:10398800DA6E070EEBCFDBFFE806FCE20B0E9F03B7
:10399800F3CF92F0F4CF93F0A003F35093270A0EDD
:1039A8009225D96E080E9321DA6E91C0DFFF010EC1
:1039B8009C6F26D00B0E9F03F3CF92F0F4CF93F0B9
:1039C800A003F3509327000E9225D96E080E932179
:1039D800DA6EDECF86F0DDCF87F0ECEC3BF0000945
:1039E80008E09D2906E19E2904E19FC09DF0A0C042
:1039F8009EF09F4BA02BA05103E1140E9F5D95E311
:103A0800A05103E1140E9F5D47E39E5145E1140E5A
:103A18009D5D42E20B0E9D03F3CF92F0F4CF93F03D
:103A28009E03F3509327000E9225756F080E93217D
:103A3800766F8F0E776F786B42EC3CF00001796FF0
:103A48007A6B5DEC36F058EC39F00B0E9D03F3CF32
:103A580092F0F4CF93F09E03F3509327020E922531
:103A6800D96E080E9321DA6E070EEBCFDBFFE8065E
:103A7800FCE20B0E9D03F3CF92F0F4CF93F09E037C
:103A8800F35093270A0E9225D96E080E9321DA6E09
:103A980091C0DFFF010E9C6F9C511200AB6BAC6BA9
:103AA800AD6B4A0EAC03F3CFA5F0F4CFA6F0AD038F
:103AB800F350A627E00EA525D96E080EA621DA6ECA
:103AC800DE50DE10DE10DE1001E0A3D04A0EAC039B
:103AD800F3CFA5F0F4CFA6F0AD03F350A627DC0E84
:103AE800A525D96E080EA621DA6EDE50DE10DE108E
:103AF800DE1001E08ED04A0EAC03F3CFA5F0F4CF70
:103B0800A6F0AD03F350A627E40EA525756F080EA1
:103B1800A621766F9FC077F0A0C078F0A1C079F099
:103B2800A2C07AF05DEC36F04A0EAC03F3CFA5F0F4
:103B3800F4CFA6F0AD03F350A627240EA525D96E21
:103B4800090EA621DA6EA1C0DFFF58EC39F0E9CFE3
:103B5800D9FFEACFDAFF00EE8FF0070EDBCFEBFFDD
:103B6800E806FCE294EC1FF03F0E7315976F986B14
:103B7800996B9A6B03EC31F04A0EAC03F3CFA5F0C6
:103B8800F4CFA6F0AD03F350A627DC0EA525D96E19
:103B9800080EA621DA6E070EEBCFDBFFE806FCE283
:103BA8004A0EAC03F3CFA5F0F4CFA6F0AD03F35063
:103BB800A627250EA525D96E090EA621DA6EDF6A7D
:103BC800A30511E14A0EAC03F3CFA5F0F4CFA6F09C
:103BD800AD03F350A627250EA525D96E090EA621FB
:103BE800DA6E000EDB80A40511E14A0EAC03F3CFB8
:103BF800A5F0F4CFA6F0AD03F350A627250EA52512
:103C0800D96E090EA621DA6E000EDB82010EAB6FAB
:103C180008D0AC4BAD2BAD5104E1060EAC5D01E212
:103C280040D7AB51120086C073F087C074F0766B32
:103C3800030E756FA1EC37F073C08EF074C08FF06F
:103C48008C6B8D6B8F5103E1060E8E5D03E38F6BDA
:103C5800050E8E6F936B020E926F8A6B8B6B906B57
:103C6800916B8A4B8B2B90510101CE250001886FF7
:103C780091510101CF210001896F88297F6F000EC2
:103C88008921806F826B140E816F6DEC38F07FC0D4
:103C980094F080C095F00B0E9403F3CF88F0F4CF26
:103CA80089F09503F3508927050E8825D96E050EEE
:103CB8008921DA6EDFA056D00B0E00019403F3CFF2
:103CC80088F0F4CF89F09503F3508927050E8825ED
:103CD800D96E050E8921DA6EDFA244D08A518E5D35
:103CE8008B518F593FE392518425756F93518521EC
:103CF800766F0B0E9403F3CF88F0F4CF89F0950319
:103D0800F3508927000E8825776F050E8921786F73
:103D180042EC3CF00001796F7A6B5DEC36F042ECD6
:103D28003CF000019227000E93230B0E9403F3CF6F
:103D380088F0F4CF89F09503F3508927060E88257B
:103D4800D96E050E8921DA6E92518425E16E935160
:103D58008521E26EDFCFE7FF924B932B94C08CF066
:103D680095C08DF00001904B912B915104E1140EF8
:103D7800905D01E276D78CC0CEF18DC0CFF184C0C2
:103D8800D9FF85C0DAFFCCC1DFFF0101CC4BCD2BB9
:103D9800000120EE01F08451D9268551DA2294C021
:103DA800DFFF92518425846F93518521856F12001E
:103DB80073C0D9FF74C0DAFFDECF84F0DDCF85F0A1
:103DC80020EE02F07351D9267451DA22DECF86F044
:103DD800DDCF87F0886B896B9E0E826F370E816FFF
:103DE800836B030E8815776F786BD89077377837A1
:103DF80077517525D96E78517621DA6EDECF79F054
:103E0800DDCF7AF08851792789517A2386C07BF0F3
:103E180087C07CF0050E7D6FD8907C337B337D2F77
:103E2800FBD786C07EF087C07FF07E3B7F3BF00EDD
:103E38007F177E510F0B7F13F00E7E177B517E1B71
:103E48007C517F1B86517E2787517F2379517E1BAA
:103E58007A517F1B7E5184277F5185238151882782
:103E68008251892388C077F089C078F00B0E796F6A
:103E7800D89078337733792FFBD7030E7717786B81
:103E8800D8907737783777517525D96E785176215C
:103E9800DA6EDECF7AF0DDCF7BF088517A27895150
:103EA8007B2384C07CF085C07DF0050E7E6FD890A2
:103EB8007D337C337E2FFBD784C07FF085C080F0B4
:103EC8007F3B803BF00E80177F510F0B8013F00E65
:103ED8007F177C517F1B7D51801B84517F27855123
:103EE80080237A517F1B7B51801B7F51862780510D
:103EF8008723832B1F0E836574D773C0D9FF74C0C3
:103F0800DAFF84C0DEFF85C0DDFF20EE02F07351CA
:103F1800D9267451DA2286C0DEFF87C0DDFF120081
:103F280049C077F04AC078F04BC079F04CC07AF0BD
:103F3800050ED89000017737783779377A37E82E29
:103F4800F8D77751491A78514A1A79514B1A7A5148
:103F58004C1A49C077F04AC078F04BC079F04CC091
:103F68007AF0080E05D0D8907A33793378337733DE
:103F7800E82EF9D77751491A78514A1A79514B1ACC
:103F88007A514C1A49C077F04AC078F04BC079F0A2
:103F98004CC07AF0160ED8907737783779377A3759
:103FA800E82EF9D77751491A78514A1A79514B1A9C
:103FB8007A514C1A45500101F2250001776F46509D
:103FC8000101F3210001786F47500101F42100013C
:103FD800796F48500101F52100017A6F02014A51B9
:103FE800000177257B6F02014B51000178217C6F1E
:103FF80002014C51000179217D6F02014D510001F0
:104008007A217E6F45C0F2F146C0F3F147C0F4F162
:1040180048C0F5F1010E7EAF000E02014A6F4B6BEE
:104028004C6B4D6B3A0E00017B15456E370E7C15B7
:10403800466EDE0E7D15476E540E7E15486EE40EF4
:104048000101EE27350EEF23370EF0236D0EF12315
:104058004950EE250001776F4A500101EF21000118
:10406800786F4B500101F0210001796F4C5001012C
:10407800F12100017A6F45507725736F46507821FA
:10408800746F47507921756F48507A21766F120006
:10409800BD0E736F746B766B7569786B020E776FF4
:1040A8004CEC3AF0BB0E756F766BAB0E776F786B96
:1040B80042EC3CF00001796F7A6B5DEC36F0BF6B37
:1040C800C06BBBC07DF0BCC07EF00C0EBF03F3CF4D
:1040D800ADF0F4CFAEF0C003F350AE27080EAD2517
:1040E800D96E040EAE21DA6EDECF7FF0DDCF80F020
:1040F800B1EC3AF0E8066CE10C0EBF03F3CFADF07B
:10410800F4CFAEF0C003F350AE27040EAD25D96E40
:10411800040EAE21DA6EDE50DE10DE10DE1014E181
:104128000C0EBF03F3CFADF0F4CFAEF0C003F350E5
:10413800AE27000EAD25D96E040EAE21DA6EDE5024
:10414800DE10DE10DE1044E00C0EBF03F3CFADF03E
:10415800F4CFAEF0C003F350AE27000EAD25D96EF4
:10416800040EAE21DA6E10EEB3F0070EDBCFE3FFDC
:10417800E806FCE220EEB3F000EE8FF0070EDBCF8E
:10418800EBFFE806FCE248EC31F0925121E1600EC9
:104198008F5D5B0E9059030E91591AE2BD0E756F33
:1041A800766B0C0EBF03F3CFADF0F4CFAEF0C003C7
:1041B800F350AE270A0EAD25776F040EAE21786F47
:1041C80042EC3CF00001796F7A6B5DEC36F008D078
:1041D800BF4BC02BC05104E10A0EBF5D01E271D78D
:1041E800BDC0ABF0BEC0ACF012009E6F00019E5186
:1041F8000B0D050EF324D96E050EF420DA6EDFA43C
:104208000AD09E510B0D050EF324D96E050EF4202D
:10421800DA6EFB0EDF169AC09BF000019B3BF00E96
:104228009B179E510B0D050EF324D96E050EF42035
:10423800DA6E9B51DF129E510B0D020EF324D96EDC
:10424800050EF420DA6EDF509B6F9B51995D9D6FD0
:104258009E510B0D020EF324D96E050EF420DA6E72
:1042680099C0DFFF9E510B0D030EF324D96E050E86
:10427800F420DA6EDF2A9D510DE09DC09BF09B076C
:104288009E510B0D040EF324D96E050EF420DA6E40
:104298009B51DF260A0E9D6524D09E510B0D000E02
:1042A800F324D96E050EF420DA6EDECF73F0DDCF7D
:1042B80074F09E5188EC31F09E510B0D020EF324E0
:1042C800D96E050EF420DA6E99C0DFFF9E510B0DF2
:1042D800030EF324D96E050EF420DA6E010EDF6E9C
:1042E800010C9E510B0D030EF324D96E050EF4201C
:1042F800DA6EDF509B6F9C6B9E510B0D040EF324FE
:10430800D96E050EF420DA6EDF509B27000E9C2331
:104318009CBF05D09C5106E1030E9B5D03E2020E93
:104328009D65020C9E510B0D000EF324D96E050EEF
:10433800F420DA6EDECF88F0DDCF89F0BEEF0FF023
:10434800926B8D5103E1400E8C5D03E38D6B3F0E44
:104358008C6F936B946B4C0E9303F3CF90F0F4CF68
:1043680091F09403F35091274B0E9025D96E060EC9
:104378009121DA6EDF5007E0934B942B945103E1BF
:10438800020E935DE8E394517EE1020E935D7BE2B9
:1043980021EC39F0E80677E14C0E9303F3CF90F067
:1043A800F4CF91F09403F3509127000E9025756F88
:1043B800060E9121766F8AC077F08BC078F08CC09A
:1043C80079F08DC07AF05DEC36F04C0E9303F3CFA4
:1043D80090F0F4CF91F09403F3509127400E90257C
:1043E800D96E060E9121DA6E8CC0DFFF4C0E930356
:1043F800F3CF90F0F4CF91F09403F3509127490E46
:104408009025D96E060E9121DA6EDF6A4C0E930361
:10441800F3CF90F0F4CF91F09403F35091274B0E23
:104428009025D96E060E9121DA6E010EDF6E4C0EC4
:104438009303F3CF90F0F4CF91F09403F3509127C6
:104448004A0E9025D96E060E9121DA6E8EB102D0F1
:10445800DF9001D0DF804C0E00019303F3CF90F082
:10446800F4CF91F09403F35091274A0E9025D96E1A
:10447800060E9121DA6E8FB102D0DF9201D0DF8271
:10448800010E0001926F925112009C6F030E000101
:10449800966F98D0976B426AF096200E99EC33F09D
:1044A8001A0E0001766FC90E756F61EC3AF00001C3
:1044B8009C519EEC3AF000019D6B0BD08E0E9D2511
:1044C800D96EDA6A030EDA22DF509EEC3AF0000168
:1044D8009D2B9C519D5DF2E387512CE09D6B280E2E
:1044E800C2EC39F09A6FD8909A33410E9A6522D06F
:1044F80094EC1FF01F0E7317746B080E7325946FDE
:10450800000E7421956F986B996B0BD00400010E07
:1045180000017B6F7C6B7D6B7E6B4EEC2FF0984BB4
:10452800992B9451985D95519959F0E39D2B030E61
:104538009D65D5D7800E99EC33F0F0863B5002E1AB
:10454800F0A0FCD73B6A200E99EC33F0600E99EC92
:1045580033F003018EAB0ED08FC341F073EC39F00A
:104568007FC08CF080C08DF081C08EF082C08FF04B
:10457800425004E0010E00019B6F29D073EC39F022
:104588007FC090F080C091F081C092F082C093F01B
:104598008C51905D886F8D519159896F8E519259C8
:1045A8008A6F8F5193598B6F8B518A11891103E14F
:1045B800330E885DDDE3972B9705886F040E8861BD
:1045C80001D069D79607962901E064D79B6B9B5168
:1045D80012000201A96FB069020EAC6FAD6BAE6B31
:1045E800AF6BA9510101AA6FAB6B050ED890AA3722
:1045F800AB37E82EFBD7AAC1AAF2ABC1ABF2550E76
:104608000001736F020E746F766B756B786B190E01
:10461800776F4CEC3AF0010E0201B16F0101A6511F
:104628000201AC150101AA6FA7510201AD150101E4
:10463800AB6FA8510201AE150101AC6FA95102017F
:10464800AF150101AD6FAA51AB11AC11AD1145E029
:10465800B1C2D2F1D251F8EC3BF0F0EC32F073EC8D
:1046680039F07FC0A5F280C0A6F281C0A7F282C04F
:10467800A8F24FEC29F0000902E030EC3CF004000D
:104688000201AA510101AA6F0201AB510101AB6FEE
:10469800AC6BAD6B73EC39F00201A55100017F5D85
:1046A8000101AE6F0201A651000180590101AF6FEF
:1046B8000201A751000181590101B06F0201A851FF
:1046C800000182590101B16FAA51AE5DAB51AF59DA
:1046D800AC51B059AD51B159CCE30201D890AC37C7
:1046E800AD37AE37AF37B12B1F0EB16597D7B16B6A
:1046F800B151050D590EF324D96E020EF420DA6E6D
:10470800DF5004E0B12B040EB165F2D7B15102E0DD
:10471800B1C2B0F2B051120049C005F04AC006F06B
:104728004BC007F04CC008F0050ED8900536063689
:1047380007360836E82EF9D70550491A06504A1A9E
:1047480007504B1A08504C1A49C005F04AC006F0E9
:104758004BC007F04CC008F0080E05D0D8900832BE
:10476800073206320532E82EF9D70550491A0650A5
:104778004A1A07504B1A08504C1A49C005F04AC04B
:1047880006F04BC007F04CC008F0160ED89005365E
:10479800063607360836E82EF9D70550491A065066
:1047A8004A1A07504B1A08504C1A45500101F22575
:1047B800056E4650F321066E4750F421076E4850A7
:1047C800F521086E02014A510524096E4B51062055
:1047D8000A6E4C5107200B6E4D5108200C6E45C0D7
:1047E800F2F146C0F3F147C0F4F148C0F5F1010E0B
:1047F8000CAE000E4A6F4B6B4C6B4D6B3A0E0914A6
:10480800456E370E0A14466EDE0E0B14476E540EB4
:104818000C14486EE40E0101EE27350EEF23370E17
:10482800F0236D0EF1234950EE25056E4A50EF2115
:10483800066E4B50F021076E4C50F121086E455022
:104848000524016E46500620026E47500720036E6D
:1048580048500820046E12009FC0A8F0A0C0A9F01C
:10486800090EA165090C20EE02F0A851D926A9511C
:10487800DA22220EDE18D8A41200A60E756F766B07
:104888009DC077F09EC078F042EC3CF00001796F53
:104898007A6B5DEC36F09FC0A8F0A0C0A9F020EEBE
:1048A80003F0A851D926A951DA22000EDFB8010E6B
:1048B800A56F20EE04F0A851D926A951DA22DECF3F
:1048C80086F0DDCF87F0ECEC3BF0000953E120EEF9
:1048D80003F0A851D926A951DA22DF50070B020AA2
:1048E80049E020EE03F0A851D926A951DA22DFA623
:1048F80041D020EE06F0A851D926A951DA22DE507F
:10490800DE1015E1A6C097F0A7C098F020EE03F0DE
:10491800A851D926A951DA22DF50070B996FBCECB0
:1049280030F0A6C085F0A7C086F0E6EC38F0A6C047
:104938008FF0A7C090F020EE04F0A851D926A95115
:10494800DA22DECF91F0DDCF92F020EE06F0A8510A
:10495800D926A951DA22DECF93F0DDCF94F0C8EC46
:1049680027F0A6C073F0A7C074F0A5C075F059EC85
:104978003CF006D0A6C08FF0A7C090F0B1EC2EF0A6
:10498800000120EE03F0A851D926A951DA22DFBA96
:1049980047EC3CF012001A6E030E266E94D0276A7C
:1049A800426AF096200E03EC34F01A0E046EC90E1B
:1049B800036ED7EC3AF01A50EAEC3AF02B6A0AD0B8
:1049C8008E0E2B24D96EDA6A030EDA22DF50EAEC57
:1049D8003AF02B2A1A502B5CF3E315502DE02B6A82
:1049E800030E2B6401D028D0280E36EC3AF02A6E3C
:1049F800D8902A32410E2A641FD090EC23F01F0E63
:104A08000116026A080E0124246E000E0220256E8B
:104A1800286A296A0AD00400010E096E0A6A0B6A1C
:104A28000C6A99EC2FF0284A292A2450285C255032
:104A38002958F1E32B2AD4D7800E03EC34F0F08602
:104A48003B5002E1F0A0FCD73B6A200E03EC34F0A7
:104A5800600E03EC34F003018EAB0ED08FC341F02F
:104A68008EEC39F00DC01CF00EC01DF00FC01EF00A
:104A780010C01FF0425003E0010E1B6E010C8EECBB
:104A880039F00DC020F00EC021F00FC022F010C088
:104A980023F01C50205C166E1D502158176E1E50B6
:104AA8002258186E1F502358196E195018101710D5
:104AB80003E1330E165CDEE3272A2704166E040E84
:104AC800166001D06DD72606262801E068D71B6A34
:104AD8001200A1C0A9F0A2C0AAF0090EA365090C92
:104AE80020EE02F0A951D926AA51DA22220EDE18A8
:104AF800D8A41200080EA925A76F000EAA21A86F36
:104B0800AB0E756F766B9FC077F0A0C078F042EC63
:104B18003CF00001796F7A6B5DEC36F0ABC081F048
:104B2800ACC082F084EC35F0AD6FAD2901E01CD04B
:104B38002DEC37F000017351AD6FAD2927E0ABC004
:104B480073F0ACC074F0AD5188EC31F0A7C0D9FF58
:104B5800A8C0DAFFAD510B0D020EF324E16E050E6D
:104B6800F420E26EDFCFE7FFA7C0D9FFA8C0DAFFC5
:104B7800DF50996F20EE03F0A951D926AA51DA2205
:104B8800DF50070B9A6FAD51F9EF20F0410EA0EC02
:104B980026F08151AD6FAD290FE0AD510B0D000E20
:104BA800F324D96E050EF420DA6EDECF8FF0DDCF58
:104BB80090F0B1EC2EF021D0180EA465180CA9C005
:104BC80088F0AAC089F0AEEC2AF0E806D8A4120052
:104BD8000EEC1AF08451AD6FAD29D8B41200AD5166
:104BE8000B0D000EF324D96E050EF420DA6EDECF1D
:104BF8008FF0DDCF90F0B1EC2EF0ABC073F0ACC00D
:104C080074F00001AD5188EF31F00001DE6BE6EC85
:104C18003BF073C0DCF074C0DDF03FEC3CF0000901
:104C28004CE140C17DF041C17EF0DCC0D9FFDDC060
:104C3800DAFFDECF7FF0DDCF80F0B1EC3AF000098B
:104C480079E140C17DF041C17EF0C4EC3AF07BC00F
:104C58007FF07CC080F0B1EC3AF000096BE140C114
:104C680081F041C182F0B6EC32F0020A13E140C192
:104C78007FF041C180F042C181F043C182F044C15C
:104C880083F045C184F046C185F0866B0DEC3CF09D
:104C980000014FD040C1D4F041C1D5F0230ED66FEA
:104CA80042C1D7F043C1D8F044C1D9F045C1DAF0C8
:104CB80046C1DBF005EC37F03CD040C17DF041C186
:104CC8007EF008EC3CF073C07FF074C080F0B1EC6B
:104CD8003AF0E8060EE040C17DF041C17EF0C4EC38
:104CE8003AF07BC07FF07CC080F0B1EC3AF0E80687
:104CF8000EE142C18AF043C18BF044C18CF045C13A
:104D08008DF08E6B46C18FF0A4EC21F012D040C11B
:104D1800D4F041C1D5F0260ED66F42C1D7F043C1B9
:104D2800D8F044C1D9F045C1DAF046C1DBF005EC52
:104D380037F0DE6FDE511200856F0001876B8669E0
:104D48008C6B8D6B8E6B8F6B0B0E8E03F3CF83F09A
:104D5800F4CF84F08F03F3508427050E8325D96E92
:104D6800050E8421DA6EDFA060D00B0E00018E03E1
:104D7800F3CF83F0F4CF84F08F03F3508427050E2C
:104D88008325D96E050E8421DA6EDFA24ED00B0E74
:104D98008E03F3CF83F0F4CF84F08F03F35084278E
:104DA800050E8325D96E050E8421DA6EDFB63DD057
:104DB8000B0E8E03F3CF83F0F4CF84F08F03F35000
:104DC8008427000E8325D96E050E8421DA6EDECF86
:104DD8007DF0DDCF7EF026EC3CF073C07FF074C030
:104DE80080F0B1EC3AF0000920E10B0E8E03F3CF0E
:104DF80083F0F4CF84F08F03F3508427070E8325C4
:104E0800D96E050E8421DA6EDECF8AF0DDCF8BF005
:104E18008C518A5D8D518B5908E38EC086F08FC006
:104E280087F08AC08CF08BC08DF000018E4B8F2BE1
:104E38008F5103E1140E8E5D87E38551836F846B78
:104E480083518C5D84518D5905E386C088F087C0F5
:104E580089F003D0000E896B886988C081F089C009
:104E680082F012008D928C8E8C968D909692959EE3
:104E7800959696908D90020E00017B6F7C6B7D6BF2
:104E88007E6B4EEC2FF08D80020E7B6F7C6B7D6B02
:104E98007E6B4EEC2FF0300E93EC3BF0020E0001CF
:104EA8007B6F7C6B7D6B7E6B4EEC2FF0300E93EC42
:104EB8003BF0020E00017B6F7C6B7D6B7E6B4EECD2
:104EC8002FF0300E93EC3BF0020E00017B6F7C6BF1
:104ED8007D6B7E6B4EEC2FF0390E93EC3BF0020E9F
:104EE80000017B6F7C6B7D6B7E6B4EEC2FF0140E9C
:104EF80093EC3BF0020E00017B6F7C6B7D6B7E6B4D
:104F08004EEC2FF0560E93EC3BF0020E00017B6F37
:104F18007C6B7D6B7E6B4EEC2FF06D0E93EC3BF053
:104F2800020E00017B6F7C6B7D6B7E6B4EEC2FF06D
:104F3800700E93EC3BF0020E00017B6F7C6B7D6B77
:104F48007E6B4EEC2FF00E0E93EC3BF0020E000140
:104F58007B6F7C6B7D6B7E6B4EEC2FF0060E93ECBB
:104F68003BF0020E00017B6F7C6B7D6B7E6B4EEC21
:104F78002FF0010E93EC3BF00A0E00017B6F7C6B67
:104F88007D6B7E6B4EEF2FF08FC085F090C086F062
:104F9800886B876B29EC33F085C095F086C096F056
:104FA8008FC088F090C089F06AEC34F0976F0A0ED1
:104FB800971901E112009751EB19EC1143E195C0E3
:104FC80073F096C074F0C6EC3BF00009D8B4120038
:104FD8009751090D980EF324D96E060EF420DA6E57
:104FE8008FC0DEFF90C0DDFF9751090D9A0EF324A4
:104FF800D96E060EF420DA6E91C0DEFF92C0DDFF96
:105008009751090D9C0EF324D96E060EF420DA6E22
:1050180093C0DEFF94C0DDFF9751090D9E0EF32467
:10502800D96E060EF420DA6E010EDF6E9751090D67
:105038009F0EF324D96E060EF420DA6EDF6AEB4B6E
:10504800EC2B000C9751090D980EF324D96E060E1F
:10505800F420DA6E8FC0DEFF90C0DDFF9751090D96
:105068009A0EF324D96E060EF420DA6E91C0DEFF94
:1050780092C0DDFF9751090D9C0EF324D96E060EE0
:10508800F420DA6E93C0DEFF94C0DDFF9751090D5E
:105098009E0EF324D96E060EF420DA6E010EDF6E32
:1050A800010C87C036F088C037F089C038F0140E7C
:1050B8007B6F7C6B7D6B7E6B4EEC2FF08C82898ACC
:1050C8003E688D6B8D51470D000EF324D96E030E8B
:1050D800F420DA6EDF6A8D2B010E8D65F3D702019D
:1050E8009B6F9C6B9D6B9E6B8C0E0001756F020E07
:1050F800766F990E776FFF0E786F7A6B080E796F5F
:105108005DEC36F08D6B8D51020D090EF324F66EB1
:10511800FF0EF420F76E0900F5CF75F00A00F5CF01
:1051280076F061EC3AF000018D2B1F0E8D65EBD700
:10513800200E99EC33F00001766B4E0E756F61EC22
:105148003AF0400E99EC33F01C0E0001766F0F0E0A
:10515800756F61EC3AF0600E99EC33F0F090F086E0
:1051680000018B6B8C6B8D6BD8908B378C37280E2E
:10517800C2EC39F08A6FD8908A31010B8B138D2BD2
:105188000F0E8D65F1D78BC073F08CC074F0FDECF9
:105198002CF094EC1FF073513C6E010C97C0F8F1A1
:1051A800940E0001736F020E746F766B756B786BDB
:1051B800070E776F4CEC3AF00201996BFA0E00017A
:1051C800756F010E766F930E776F786B42EC3CF03B
:1051D8000001796F7A6B5DEC36F097511CE1FAC1EA
:1051E800E8F1FBC1E9F1940E756F020E766F930E2C
:1051F800776F786B42EC3CF00001796F7A6B5DEC6D
:1052080036F00201966B976B010E9A6F95C098F075
:1052180096C099F01FD0E80E736F010E746F766B0D
:10522800756942EC3CF00001776F786B4CEC3AF012
:10523800940E736F020E746F766B756942EC3CF0D6
:105248000001776F786B4CEC3AF002019669976928
:105258009A6BDCD793C07FF094C080F098C081F03F
:1052680099C082F032EC36F036EC3BF0F2EC3BF0D1
:10527800FBEC3AF0DBEC39F04EEC3BF07DEC3BF02C
:1052880042EC3BF072EC3BF094EC1FF073510101DF
:10529800D46FDD6B120073EC39F00201425100014A
:1052A8007F5D0101A26F0201435100018059010194
:1052B800A36F02014451000181590101A46F020149
:1052C8004551000182590101A56FA251A311A411F2
:1052D800A5110CE073EC39F07FC042F280C043F2B4
:1052E80081C044F282C045F2A9EC39F058EC0EF0C6
:1052F800A8EC07F0E8062DE1E90E0001756F766B62
:105308006FC277F070C278F07A6B020E796F5DEC3D
:1053180036F0E9C086F1EAC087F176C288F177C233
:1053280089F171C28AF172C28BF173C28CF10101E9
:105338008D6B74C28EF10201000E6EB5010E010173
:105348008F6F0201000E6EB7010E0101906F52ECD3
:1053580002F00101D90517E1E90E0001756F766BBE
:105368007DC277F07EC278F07A6B020E796F5DECC1
:1053780036F0E9C081F0EAC082F07BC283F07CC2DB
:1053880084F032EC19F00101D951120068D0010EF5
:10539800D36F010C22EE32F000EE8FF0070EDBCF58
:1053A800EBFFE806FCE248EC31F08F510101BE5DED
:1053B800000190510101BF59000191510101C059EB
:1053C800000192510101C159D8B012001FEC17F029
:1053D8000101BE51B65DBE6FBF51B759BF6FC05115
:1053E800B859C06FC151B959C16F58EC39F022EEA4
:1053F80032F0070EEBCFDBFFE806FCE2030E0101FB
:10540800D36F030C22EE32F000EE8FF0070EDBCFE5
:10541800EBFFE806FCE248EC31F08F510101BE5D7C
:10542800000190510101BF59000191510101C0597A
:10543800000192510101C159D8B012001FEC17F0B8
:105448003DEC39F058EC39F022EE32F0070EEBCF94
:10545800DBFFE806FCE2020E0101D36F020C01013A
:10546800D35195E0010AD8B41200030A93E0010A67
:10547800C9E0120081C088F082C089F088C0D9FFD5
:1054880089C0DAFFDF6A20EE03F08851D9268951F6
:10549800DA223FEC3CF0070BDF6E060E0001882590
:1054A800756F000E8921766FE6EC3BF073C077F0DC
:1054B80074C078F042EC3CF00001796F7A6B5DECD7
:1054C80036F020EE04F08851D9268951DA227FC0BF
:1054D800DEFF80C0DDFF20EE01F08851D92689511A
:1054E800DA2238EC3CF0DF6E000120EE02F0885141
:1054F800D9268951DA2283C0DFFF26EC3CF000016F
:1055080020EE08F08851D9268951DA2273C0DEFFCF
:1055180074C0DDFF8451851114E08651871111E0B4
:105528000A0E8125756F000E8221766F84C077F090
:1055380085C078F086C079F087C07AF05DEC36F0E7
:1055480002D0866B876B0A0E86257F6F000E872137
:10555800806F1200946B88C095F089C096F020EE99
:1055680004F09551D9269651DA22DECF86F0DDCFA8
:1055780087F0ECEC3BF0000956E120EE06F095517F
:10558800D9269651DA22DE50DE1003E1010E946F1F
:105598004AD020EE06F09551D9269651DA22DECF70
:1055A8008CF0DDCF8DF0926B936B35D0090E9203A2
:1055B800F3CF8AF0F4CF8BF09303F3508B27980E38
:1055C8008A25906F060E8B21916F90C0D9FF91C0EC
:1055D800DAFFDECF7DF0DDCF7EF026EC3CF073C045
:1055E8007FF074C080F0B1EC3AF0000912E120EECF
:1055F80004F09051D9269151DA22DECF8EF0DDCF1A
:105608008FF08E518C5D8F518D59010ED8B0000EE0
:105618009413924B932BEB51925DEC51935903E207
:10562800945101E1C3D7945112007C0EF66E770EA7
:10563800F76E000EF86E01EEEEF010EE10F00900B5
:10564800F5CFEEFFE550E150FAE1FC0EF66E770E6D
:10565800F76E000EF86E00EE45F010EE0AF0090045
:10566800F5CFEEFFE550E150FAE108EEDCF013EE7D
:1056780024F0EE6AE550E150FCE1E250FAE108EE70
:1056880000F0DC0EEE6AE806FDE107EE00F0FE0E23
:10569800EE6AE806FDE106EE00F0F20EEE6AE806B4
:1056A800FDE105EE00F0DC0EEE6AE806FDE104EE31
:1056B80000F0AF0EEE6AE806FDE103EE00F0EF0E33
:1056C800EE6AE806FDE102EE00F0A50EEE6AE806D5
:1056D800FDE101EEB6F0380EEE6AE806FDE10001E4
:1056E800EC6BEB6B00EE36F00F0EEE6AE806FDE1B0
:1056F8004F904F92000EF86E000171EF09F0A36B06
:105708009951A35D02E3A16B08D0A3519725D96EE7
:10571800000E9821DA6EDF50A16FA26BE20EA3256E
:10572800D96EDA6A010EDA22A1C0DFFFA32B020EBE
:10573800A365E6D7995197258A6F000E98218B6F3C
:105748009AC08CF09BC08DF09CC08EF0E20E8F6FDB
:10575800010E906FE6EC2BF097C08AF098C08BF0A2
:1057680099519A25FE0F8C6F9BC08DF09CC08EF0CE
:10577800E20E8F6F010E906F08EC2EF0A36B99511B
:1057880097259D6F000E98219E6F9A519D27000EB8
:105798009E23A3519D27000E9E23FE0E9D25D96EA4
:1057A800FF0E9E21DA6EE20EA325E16EE26A010E7B
:1057B800E222DE50E61801E0000CA32B010EA365DF
:1057C800DED7010C8CC091F0D8909133D8909133EA
:1057D8009129946F956B51D0966B96518F25D96E00
:1057E800000E9021DA6EE20E9625E16EE26A010E55
:1057F800E222DFCFE7FF962B020E9665EED795C023
:10580800E5F1E20E736F010E746F8DC075F08EC0F6
:1058180076F0DCEC1EF0966B8C51916F926B955183
:10582800040D9651F326000EF4229151F35CF450C6
:10583800800A936F9251800A93591EE2E20E9625D0
:10584800D96EDA6A010EDA22DF50916F9551040D94
:105858008AC092F08BC093F0F3509227F4509323B0
:1058680096519225D96E000E9321DA6E9151DF1A66
:10587800962B030E9665D0D7952B9451955DACE386
:10588800120097C08AF098C08BF099519A258C6FB6
:105898009BC08DF09CC08EF0E20E8F6F010E906F52
:1058A80008EC2EF0A16BE20EA125D96EDA6A010E82
:1058B800DA22995197259D6F000E98219E6F9A5173
:1058C8009D27000E9E23A1519D25E16E000E9E216D
:1058D800E26EDFCFE7FFA12B030EA165E4D7A16B32
:1058E8009951A15D02E39F6B08D0A1519725D96E0C
:1058F800000E9821DA6EDF509F6FA06BE20EA12593
:10590800D96EDA6A010EDA229FC0DFFFA12B020EE0
:10591800A165E6D7995197258A6F000E98218B6F5C
:105928009A51040F8C6F9BC08DF09CC08EF0E20ED4
:105938008F6F010E906FE6EF2BF00101DC5104E14F
:10594800010EDC6F36EC27F0800E93EC3BF0000183
:10595800876B0A0E736F746B756B766B20EC3AF07D
:10596800CE0E8725D96EDA6A030EDA22DF5004E1FB
:10597800200E88EC3BF009D0CE0E8725D96EDA6A66
:10598800030EDA22DF5088EC3BF00001872B0F0E64
:105998008765DFD70A0E736F746B756B766B20ECB7
:1059A8003AF0C00E93EC3BF0100E0001876F0A0E20
:1059B800736F746B756B766B20EC3AF0CE0E87259F
:1059C800D96EDA6A030EDA22DF5004E1200E88EC81
:1059D8003BF009D0CE0E8725D96EDA6A030EDA229B
:1059E800DF5088EC3BF00001872B1F0E8765DFD75F
:1059F8001F0C7351756F7451766F776B786B755197
:105A08000101EE13000176510101EF1300017751F6
:105A18000101F013000178510101F11300017351E4
:105A2800756F7451766F776B786B76C078F075C048
:105A380077F0766B756B7551491276514A1277512A
:105A48004B1278514C127351756F7451766F776B96
:105A5800786B75C078F0776B766B756B7551010153
:105A6800F213000176510101F3130001775101018E
:105A7800F413000178510101F51300017351756F9A
:105A88007451766F776B786B75514516765146165B
:105A9800775147167851481673C04AF274C04BF2D2
:105AA80002014C6B4D6B1200780ED36E9B8CC0902C
:105AB800550EA76EAA0EA76E0E01FF91110EE76F85
:105AC800170EFB6F0A0EDB6F090ED96F550EA76E06
:105AD800AA0EA76EFF81FC0E0F01486F1F0E496FBB
