:04000000C8EF00F055
:100008004A82D9CF0DF0DACF0EF0F3CF0FF0F4CF4C
:1000180010F0F0B6F0A0A4D0F090620E79EC9BF04E
:10002800126E12A00FD0359035BC359C0001D96BEB
:10003800DA6B35A207D0480E79EC9BF0116E11B03F
:100048003584359212A685D01468156A15504E0D60
:10005800000EF324D96E020EF420DA6EDF5003E1AD
:1000680015C014F004D0152A010E1564EFD7020E3E
:10007800146068D0040E026E730EA2EC9BF014504C
:100088004E0D000EF324D96E020EF420DA6E030E24
:10009800036E026AACEC98F0020FDF6E14504E0D3E
:1000A800000EF324D96E020EF420DA6E4D0EDF60D6
:1000B8003FD0358A010E156E1AD014504E0D000E21
:1000C800086E020E096EF3500826F45009221550E6
:1000D8000824D96E000E0920DA6E000E1524026E6F
:1000E800036A030E0322ACEC98F0DF6E152A155054
:1000F800086E096A14504E0D000EF324D96E020ED4
:10010800F420DA6EDF500A6E0B6A020E0A26000E21
:100118000B2208500A5C0B50800A0C6E0950800AAA
:100128000C58CBE2010E026E1B0EA2EC9BF005D020
:10013800010E026E1B0EA2EC9BF0026A730EA2EC7B
:100148009BF007D0010E026E1B0EA2EC9BF03596B9
:10015800359812A805D0800E026E590EA2EC9BF0BD
:100168009EB09DA005D09E90372A375001E1382ACD
:10017800DEEC9CF010C0F4FF0FC0F3FF0EC0DAFFF6
:0C0188000DC0D9FF4A92110063EF95F002
:10FACA000020B2202020B22020B220B22020202004
:10FADA0020B220B20D0AB220B220B220B2202020D9
:10FAEA00B22020B22020B220200D0AB22020B2205B
:10FAFA0020B220B220B22020B22020B220B20D0AB9
:10FB0A00B22020B22020B220B22020B220B220B2ED
:10FB1A002020B20D0AB22020B22020B220B220202A
:10FB2A0020B220B2202020B20D0A2020202020203E
:10FB3A00202020202020202020202020200D0AB252
:10FB4A00B2B22020B2B2B2B20D0AB22020B220B2B2
:10FB5A002020200D0AB22020B220B2B2B2B20D0A81
:10FB6A00B22020B220B22020200D0AB2B2B2202048
:10FB7A00B2B2B2B20D0A2020202020202020200D6F
:10FB8A000A000102030405060708090A0B0C0D0EF8
:10FB9A000F01000800400000020010008001000A66
:10FBAA00006400E803102701001000000100100D96
:10FBBA000A20202020202020202020202020202051
:10FBCA002020202020203220746F20756E69636106
:10FBDA00737420656E63727970746564206D6573E1
:10FBEA00736167652E204C454420322077696C6C1E
:10FBFA00000D0A2020202020202020202020202044
:10FC0A002020202020202020427574746F6E20311D
:10FC1A0020746F2062726F616463617374206D6512
:10FC2A0073736167652E205075736820427574740A
:10FC3A006F6E000D0A202020202020202020202066
:10FC4A0020202020202020202020506F776572203D
:10FC5A006F6E2074686520626F61726420756E74BD
:10FC6A00696C204C45442031206C696768747320A4
:10FC7A007570000D0A20202020202020202020201E
:10FC8A0020202020202020202020746F20696E64EC
:10FC9A00696361746520636F6E6E656374696E670C
:10FCAA00207769746820706565722E2050757368B4
:10FCBA00000D0A2020202020202020202020202083
:10FCCA002020202020202020626520746F67676C26
:10FCDA0065642075706F6E20726563656976696EFA
:10FCEA0067206D657373616765732E20000D0A5373
:10FCFA0074617274696E67204E6F64652031206F7B
:10FD0A00662053696D706C652044656D6F20666F5F
:10FD1A0072204D69576928544D292050325020537A
:10FD2A007461636B202E2E2E000D0A0D0A436F6E2E
:10FD3A006E656374696F6E2020202020506565729D
:10FD4A004C6F6E67416464726573732020202020B3
:10FD5A0050656572496E666F0D0A00206973206EE0
:10FD6A006F7420737570706F7274656420696E2089
:10FD7A0063757272656E7420636F6E6669677572F9
:10FD8A006174696F6E2E0D0A00436F6E6E6563743F
:10FD9A00696E67205065657220206F6E2043686126
:10FDAA006E6E656C20256420000D0A20202020201C
:10FDBA005246205472616E736365697665723A20A1
:10FDCA004D524632344A34300053696D706C6520A6
:10FDDA005032502044656D6F204D524632344A34B9
:10FDEA0030204E6F6465200020436F6E6E65637429
:10FDFA006564205065657220206F6E204368616ECD
:10FE0A006E656C202564000D0A436F6E6E6563741F
:10FE1A00696E672050656572206F6E204368616E57
:10FE2A006E656C20005242303A2042726F61646300
:10FE3A0061737420205242323A20556E69636173AD
:10FE4A0074000D0A436F6E6E6563746564205065B5
:10FE5A006572206F6E204368616E6E656C20004289
:10FE6A00726F616463617374205061636B6574209F
:10FE7A007769746820525353492000556E6963614B
:10FE8A007374205061636B657420776974682052BB
:10FE9A0053534920000D0A53656C656374696F6E8C
:10FEAA00206F66206368616E6E656C200050414E5B
:10FEBA0049443A25303278253032782043683A2549
:10FECA00303264000D0A20202044656D6F20496E8F
:10FEDA00737472756374696F6E3A00416464726513
:10FEEA0073733A20253032782530327825303278CB
:10FEFA00005242303A253032642D2530327825308E
:10FF0A0032782530327800526573746F72696E6781
:10FF1A00204E6574776F726B202121000D0A556E91
:10FF2A006963617374204661696C65640D0A000D2A
:10FF3A000A0D0A4D7920416464726573733A203060
:10FF4A007800303132333435363738394142434418
:10FF5A0045460030313233343536373839616263D9
:10FF6A00646566005258204D657373616765733A1C
:10FF7A0020253364005458204D6573736167657397
:10FF8A003A20253364005242323A2043686E67654C
:10FF9A00206E6F64650020556E6963617374204634
:10FFAA0061696C6564002020202020202020202008
:10FFBA002020200020204368616E6E656C3A200084
:10FFCA00202050414E49443A20307800204368614D
:10FFDA006E6E656C3A005365637572656420000D38
:10FFEA000A50414E49443A002066726F6D20000D56
:05FFFA000A0D0A0000E1
:020000040001F9
:10000000260E00016A6FA7D3250E701909E022C0E1
:10001000D9FF23C0DAFF70C0DFFF224A232A9BD317
:100020006E6B6F6B716B726B09D0718705D07181CC
:1000300003D0728701D07185244A252A24C0F6FF97
:1000400025C0F7FF000EF86E0800F550200AEFE01B
:10005000030AEFE00E0AE9E01D0AEDE071B77195C1
:1000600024C0F6FF25C0F7FF000EF86E0800F5501B
:1000700062EC9CF034E300016E6B6F6B6EC016F0A7
:100080006FC017F0196A0A0E186EDCEC9BF016C0F0
:100090006EF017C06FF0D00E2E6E2F6824C0F6FFE2
:1000A00025C0F7FF000EF86E0800F550306E316A7B
:1000B0002E5030262F503122305000016E27315003
:1000C0006F23244A252A24C0F6FF25C0F7FF000E1F
:1000D000F86E0800F55062EC9CF017E3CFD724C00F
:1000E000F6FF25C0F7FF000EF86E0800F5502A0A4B
:1000F0000CE100016A51D96EDA6ADECF6EF0DDCF15
:100100006FF0020E6A27244A252A24C0F6FF25C074
:10011000F7FF000EF86E0800F5502E0A38E10001D6
:10012000728D244A252A24C0F6FF25C0F7FF000E51
:10013000F86E0800F5502A0A0AE16A51D96EDA6AA7
:10014000DF506D6F020E6A27244A252A90D06D6B0E
:1001500012D024C0F6FF25C0F7FF000EF86E08008D
:10016000F5CF2EF000016D510A0DF3502E24D00F63
:100170006D6F244A252A24C0F6FF25C0F7FF000E24
:10018000F86E0800F55062EC9CF071E3E2D70001D4
:100190006D6B6DD0718D8BD0718B718F88D06D51DF
:1001A0000FE06DC02EF02F6A2EBE2F0668512E5C18
:1001B00069512F5805E26D51686F696B68BF690717
:1001C0006E51685D6F51695905E268516E5F695102
:1001D0006F5B02D06E6B6F6B71B71DD008D022C001
:1001E000D9FF23C0DAFF200EDF6E224A232A6E07D2
:1001F000D8A06F076E29F3E16F290DE0F0D76751A2
:10020000D96EDA6A22C0E1FF23C0E2FFDFCFE7FF49
:10021000672B224A232A6807D8A069076829EFE1DB
:100220006929EDE171A797D208D022C0D9FF23C078
:10023000DAFF200EDF6E224A232A6E07D8A06F074E
:100240006E29F3E16F2901E186D2EFD76A51D96EA9
:10025000DA6ADF50706F020E6A27700E676F000E49
:10026000696F010E686F9BD7C00E711320D024C038
:10027000F6FF25C0F7FF244A252A000EF86E080075
:10028000F5CF70F00001705101E173D2580A84E09B
:100290003B0ADCE0070A0BE00D0A09E0060A01E16F
:1002A00079D71A0AE1E00D0A01E177D7D6D771C0F4
:1002B0002EF0C00E2E1612E16A51D96EDA6ADECF28
:1002C0006BF0DDCF6CF0020E6A276CAF10D0030E1E
:1002D00071136B6D6C1FD8B06C2B09D06A51D96E3D
:1002E000DA6ADECF6BF0DDCF6CF0020E6A276D515B
:1002F00050E16B516C114DE16D2B4BD0010E706FC5
:10030000050E70194FE07051020DA70EF324F66E22
:10031000FB0EF420F76EF86A000EF8220900F55083
:100320006B5D0900F5506C593DE3702BE9D7010E68
:10033000706F040E701936E07051020DB10EF32487
:10034000F66EFB0EF420F76EF86A000EF822090034
:10035000F5506B5D0900F5506C5924E3702BE9D71B
:10036000010E706F060E70191DE07051020D9B0E8C
:10037000F324F66EFB0EF420F76EF86A000EF822F6
:100380000900F5506B5D0900F5506C590BE3702BBB
:10039000E9D77151C00BB2E0400AE2E0C00AC7E001
:1003A000400AACE07051800A2E6E6D51800A2E5CBE
:1003B00003E26DC070F009D06D51800A2E6E70514D
:1003C000800A2E5C02E270C06DF06E516F1108E081
:1003D00071C02EF0030E2E1603E06E07D8A06F0733
:1003E00072AD13D0800E6DBF7F0E2E6E6E516D5D9F
:1003F0006F51800A2E5807E26D516E5F000E6DBF7F
:10040000FF0E6F5B02D06E6B6F6BC40E2E6E080E0C
:100410002F6E71C030F072C031F02E5030162F5058
:100420003116400E30180AE1080E311807E16E51FE
:100430006F1124E06E07D8A06F0720D0C00E2E6E7B
:10044000080E2F6E71C030F072C031F02E50301691
:100450002F503116800E301811E1080E31180EE1C0
:100460006FBF0AD06F5103E1030E6E5D05E3FE0E10
:100470006E27FF0E6F2302D06E6B6F6B800E70BF06
:100480007F0E2E6E6E51705D6F51800A2E5807E2FE
:1004900070516E5F000E70BFFF0E6F5B02D06E6B0F
:1004A0006F6B71A54FD071C02EF0030E2E1609E0B0
:1004B00022C0D9FF23C0DAFF2D0EDF6E224A232A85
:1004C00031D071A106D022C0D9FF23C0DAFF200E9F
:1004D000F4D7C00E2E6E080E2F6E71C030F072C0B1
:1004E00031F02E5030162F503116800E30181AE190
:1004F000080E311817E122C0D9FF23C0DAFF300EF1
:10050000DF6E224A232A71BB03D0626B780E02D0C1
:10051000626B580E616F22C0D9FF23C0DAFF61C041
:10052000DFFFCCD76E516F1101E1FDD022C0D9FFA2
:1005300023C0DAFF300EDF6E224A232A6E07D8A0CE
:100540006F07F0D76E516F1110E071B70ED022C057
:10055000D9FF23C0DAFF200EDF6E224A232A6E075E
:10056000D8A06F076E516F11F2E171C02EF0030E2B
:100570002E1609E022C0D9FF23C0DAFF2D0EDF6E50
:10058000224A232A08D071A106D022C0D9FF23C055
:10059000DAFF200EF4D7C00E2E6E080E2F6E71C03B
:1005A00030F072C031F02E5030162F503116400E00
:1005B00030180CE1080E311809E122C0D9FF23C020
:1005C000DAFF300EDF6E224A232AADD0C00E2E6E27
:1005D000080E2F6E71C030F072C031F02E50301600
:1005E0002F503116800E30181BE1080E311801E033
:1005F0009AD022C0D9FF23C0DAFF300EDF6E224A24
:10060000232A71BB03D0646B780E02D0646B580E42
:10061000636F22C0D9FF23C0DAFF63C0DFFFD3D7E7
:1006200082D06D51020DA70EF324F66EFB0EF4205E
:10063000F76EF86A000EF8220900F5CF18F00A00EC
:10064000F5CF19F06BC016F06CC017F020EC99F0E4
:1006500016C01DF017C01EF0206A0A0E1F6EA3EC14
:1006600099F01D504DD06BC016F06CC017F06D5155
:10067000020DB10EF324F66EFB0EF420F76EF86A4D
:10068000000EF8220900F5CF18F00A00F5CF19F096
:1006900020EC99F016500F0B606F71BB04D05D0E0B
:1006A000656FFF0E03D04C0E656FFF0E666F6051D5
:1006B00065252E6E000E66212F6E2EC0F6FF2FC010
:1006C000F7FF000EF86E0800F5CF70F025D06BC074
:1006D00016F06CC017F06D51020D9B0EF324F66EF0
:1006E000FB0EF420F76EF86A000EF8220900F5CF31
:1006F00018F00A00F5CF19F020EC99F01650070B0E
:10070000300F706F09D07151C00B8BE0400ADFE0F1
:10071000C00AA9E0400A85E022C0D9FF23C0DAFF61
:1007200070C0DFFF50D76D076D29EDE171B76FBF66
:1007300012D06F5102E16E050EE322C0D9FF23C033
:10074000DAFF200EDF6E224A232A6E07D8A06F0739
:100750006E516F11F2E124C0F6FF25C0F7FF244A65
:10076000252A000EF86E0800F5CF70F0705101E0F8
:100770004BD422C0D9FF23C0DAFFDF6A000C81A26C
:10078000F08035A00BD0DA5103E1400ED95D04E3CF
:10079000D96BDA6B359002D0D94BDA2B4968856B6F
:1007A00085514E0D000EF324D96E020EF420DA6E40
:1007B000DF5003E085C049F004D0852B010E85652C
:1007C000EFD7020E4960000C010E806F49504E0DAC
:1007D000010EF324D96E020EF420DA6EDFBC02D0D3
:1007E0000001806B396A416A49504E0D020EF324B4
:1007F000D96E020EF420DA6EDF50CC0B00017F6F51
:10080000DBD149504E0D060EF324D96E020EF420B2
:10081000DA6EDE280BE149504E0D070EF324D96E37
:10082000020EF420DA6EDE2801E13984398E80511F
:100830002EE049504E0D040EF324D96E020EF42022
:10084000DA6EDF50426E49504E0D050EF324D96E1C
:10085000020EF420DA6EDF50436E49504E0D080E42
:10086000F3243A6E020EF4203B6E49504E0D000EFA
:10087000F324D96E020EF420DA6EDF50ED0F3E6ED7
:1008800049504E0D100EF3243C6E020E34D14950E7
:100890004E0D080EF324D96E020EF420DA6EDF50EE
:1008A000426E49504E0D090EF324D96E020EF4200B
:1008B000DA6EDF50436E49504E0D0A0EF3243A6E45
:1008C000020EF4203B6E49504E0D000EF324D96EFB
:1008D000020EF420DA6EDF50EB0F3E6E49504E0DE3
:1008E000120EF3243C6E020E06D1398E80512EE09A
:1008F00049504E0D040EF324D96E020EF420DA6E28
:10090000DF50426E49504E0D050EF324D96E020E93
:10091000F420DA6EDF50436E49504E0D0E0EF32474
:100920003A6E020EF4203B6E49504E0D000EF32439
:10093000D96E020EF420DA6EDF50E70F3E6E49509A
:100940004E0D160EF3243C6E020ED5D049504E0DBE
:100950000E0EF324D96E020EF420DA6EDF50426ED2
:1009600049504E0D0F0EF324D96E020EF420DA6EAC
:10097000DF50436E49504E0D100EF3243A6E020EB6
:10098000F4203B6E49504E0D000EF324D96E020E3A
:10099000F420DA6EDF50E50F3E6E49504E0D180E12
:1009A000F3243C6E020EA7D03984398E010E416EBD
:1009B00049504E0D040EF324D96E020EF420DA6E67
:1009C000DF50426E49504E0D050EF324D96E020ED3
:1009D000F420DA6EDF50436E49504E0D060EF324BC
:1009E0003A6E020EF4203B6E49504E0D000EF32479
:1009F000D96E020EF420DA6EDF50F50F3E6E4950CC
:100A00004E0D080EF3243C6E020E75D049504E0D6B
:100A1000060EF324D96E020EF420DA6EDE280BE106
:100A200049504E0D070EF324D96E020EF420DA6EF3
:100A3000DE2801E13984398E010E416E80512EE1AC
:100A400049504E0D080EF324D96E020EF420DA6ED2
:100A5000DF50426E49504E0D090EF324D96E020E3E
:100A6000F420DA6EDF50436E49504E0D0A0EF32427
:100A70003A6E020EF4203B6E49504E0D000EF324E8
:100A8000D96E020EF420DA6EDF50F10F3E6E49503F
:100A90004E0D0C0EF3243C6E020E2DD049504E0D1F
:100AA000040EF324D96E020EF420DA6EDF50426E8B
:100AB00049504E0D050EF324D96E020EF420DA6E65
:100AC000DF50436E49504E0D080EF3243A6E020E6D
:100AD000F4203B6E49504E0D000EF324D96E020EE9
:100AE000F420DA6EDF50F30F3E6E49504E0D0A0EC1
:100AF000F3243C6E020EF4203D6E70D0398E010E50
:100B0000416E80511BE049504E0D040EF324D96E06
:100B1000020EF420DA6EDF50426E49504E0D050E83
:100B2000F324D96E020EF420DA6EDF50436E495082
:100B30004E0D0D0EF3243A6E020E95D649504E0D11
:100B40000D0EF324D96E020EF420DA6EDF50426EE1
:100B500049504E0D0E0EF324D96E020EF420DA6EBB
:100B6000DF50436E49504E0D0F0EF3243A6E020EC5
:100B7000A8D649504E0D060EF324D96E020EF4206D
:100B8000DA6EDE280BE149504E0D070EF324D96EC4
:100B9000020EF420DA6EDE2801E1398449504E0D50
:100BA000000EF324D96E020EF420DA6EDF50F60F39
:100BB00025D770EC9CF0000C7F51080ADAE0880A17
:100BC00001E1F2D6080A01E121D7040A97E0440ABC
:100BD00001E117D6040A01E188D6EBD749504E0D42
:100BE000010EF324D96E020EF420DA6EDFA69ED039
:100BF000C00E00017F6101D0DCD73CC0D9FF3DC0F1
:100C0000DAFFDF50816F20EE01F03C50D9263D50D5
:100C1000DA22DF50826F20EE02F03C50D9263D50A0
:100C2000DA22DF50836F20EE03F03C50D9263D508E
:100C3000DA22DF50846F856B85510A0D200EF32474
:100C4000D96E010EF420DA6EDFAE11D000018551AD
:100C50000A0D180EF324166E010EF420176E3AC01A
:100C600018F03BC019F039EC9BF0000905E10001D8
:100C7000852B040E8565E0D7050E0001856121D026
:100C80008551040D000EF324D96E010EF420DA6EA6
:100C9000DE50815DDE508259DE508359DE5084592A
:100CA00088E38551040D000EF324D96E010EF42063
:100CB000DA6E81C0DEFF82C0DEFF83C0DEFF84C04B
:100CC000DEFF050E3E5E3C24606F000E3D20616F2E
:100CD0003E0E626F3AC063F03BC064F081C065F0C5
:100CE00082C066F083C067F084C068F049504E0D42
:100CF000010EF324D96E020EF420DA6EDF50696F14
:100D000044EC8BF0000901E154D7050E3C26000E9F
:100D10003D2239860BD0FC0E39161FD03950FC0B02
:100D20000109396E1AD0030E391217D049504E0DF1
:100D3000010EF324D96E020EF420DA6EDF50070B99
:100D400000017A6F7B6B7B5101E033D77A51EBE086
:100D5000010AE1E0020AE2E02CD749504E0D000EF4
:100D6000F324D96E020EF420DA6EDF507A6F495008
:100D70004E0D7B697C69000E7D6F020E7E6F7B518C
:100D80007D277C517E23F3507D27F4507E237A51BA
:100D90007D25D96E000E7E21DA6EDF50406E4950FF
:100DA0004E0D000EF324D96E020EF420DA6EDF50E1
:100DB0007A6F49504E0D000E7B6F020E7C6FF35020
:100DC0007B27F4507C237A517B25D96E000E7C2141
:100DD000DA6EDF503F6E010C0001E1A32ED0FAEC79
:100DE00098F016C0A5F017C0A6F018C0A7F019C05B
:100DF000A8F00001D251A55DA16FD351A659A26FF1
:100E0000D451A759A36FD551A859A46FA45107E194
:100E1000B50EA15DC40EA259040EA3590EE3E193D1
:100E2000180E176E010E186E44C019F045C01AF066
:100E30001C6A320E1B6E1CEC95F00001E1B712002B
:100E4000BFEC83F00009D8B412000001C86B39A4CC
:100E500003D0A16BA12B02D00001A16BC851A11935
:100E6000FC0BA119C86F39A602D0C88702D00001B7
:100E7000C8973950030BE80603E1A16BA12B02D000
:100E80000001A16BA13BA147C851A119DF0BA1191A
:100E9000C86F39AE02D0C88D02D00001C89D39AEEE
:100EA00004D03AC0CBF03BC0CCF042C0C9F043C044
:100EB000CAF03EC0CFF03CC0CDF03DC0CEF040C047
:100EC000D1F03FC0D0F0C8ABE5D1D0D120EE01F0D9
:100ED000CD51D926CE51DA22FA51DE1803E070EC5A
:100EE0009CF0D9D1030EFD19FAE0C92902E1CA2903
:100EF0000BE0F051C91903E1F151CA1905E0020EE6
:100F0000CF6502D0F20E03D04DEC92F00001AB6F32
:100F1000FD0507E1AB0505E0020EAB1902E0F30E9B
:100F2000AB6FE36B4A0EE325D96EDA6A010EDA2263
:100F3000910EDF6EE32B4A0EE325D96EDA6A010EBD
:100F4000DA22ABC0DFFFE32B4A0EE325D96EDA6A63
:100F5000010EDA22DFC0DFFFE32BAB5102E0AB056D
:100F60001AE14A0EE325D96EDA6A010EDA22E0C0F0
:100F7000DFFFE32BAC6BAC51FB0FD96EDA6A4A0E84
:100F8000E325E16EE26A010EE222DFCFE7FFE32B09
:100F9000AC2BAC51F0E070EC9CF0C9C092F0CAC030
:100FA00093F0CBC094F0CCC095F0010E0001966F89
:100FB000000EC8B7010E976F000E6BEC94F0AB51AA
:100FC0008EE1DE510A0D180EF324176E010EF42087
:100FD000186EDE510A0D4450F324196E4550F4206A
:100FE0001A6E1C6A0A0E1B6E1CEC95F054D1020E90
:100FF000FD6501D074D720EE01F0CD51D926CE5138
:10100000DA22FA51DE1801E06AD7E36B4A0EE325D3
:10101000D96EDA6A010EDA22970EDF6EE32B4A0EE2
:10102000E325D96EDA6A010EDA22E0C0DFFFE32B96
:10103000AC6BAC51FB0FD96EDA6A4A0EE325E16E58
:10104000E26A010EE222DFCFE7FFE32BAC2BAC51CB
:10105000F0E070EC9CF0C9C092F0CAC093F0CBC035
:1010600094F0CCC095F0010E0001966F000EC8B749
:10107000010E976F000E6BEC94F00DD1E36B4A0EEE
:10108000E325D96EDA6A010EDA22920EDF6EE32BC7
:10109000AC6BAC510A0D200EF324D96E010EF42076
:1010A000DA6EDFAE3AD0CBC016F0CCC017F000013C
:1010B000AC510A0D180EF324186E010EF420196EAF
:1010C00039EC9BF0000929E00001AC510A0D200E1B
:1010D000F324D96E010EF420DA6EDF6AAC510A0DEA
:1010E000180EF324176E010EF420186EAC510A0D81
:1010F0004450F324196E4550F4201A6E1C6A0A0EEF
:101100001B6E1CEC95F04A0E0001E325D96EDA6ADD
:10111000010EDA22DF6AE32B05D00001AC2B040EAE
:10112000AC65B7D770EC9CF0050E0001AC1909E175
:101130004A0EE325D96EDA6A010EDA22F00EDF6E6E
:10114000E32BC9C092F0CAC093F0CBC094F0CCC0DE
:1011500095F0010E966F000EC8B7010E976F000E46
:101160006BEC94F098D0F02919E1F12917E1C9C08E
:10117000F0F0CAC0F1F0A969AA69F00E1A6EA90EC2
:1011800007EC98F0F00E176E186A46C019F047C0C9
:101190001AF01C6A020E1B6E1CEC95F04DEC92F0DE
:1011A0000001E183FAEC98F016C0D2F017C0D3F03A
:1011B00018C0D4F019C0D5F092D620EE01F0CD5170
:1011C000D926CE51DA22DF50CEE0010ACCE087D614
:1011D000E1BBE19B84D620EE01F0CD51D926CE5162
:1011E000DA22DF5001E07BD6AC6BAC510A0D200E49
:1011F000F324D96E010EF420DA6EDFAE31D0CBC00D
:1012000016F0CCC017F00001AC510A0D180EF324F3
:10121000186E010EF420196E39EC9BF0000920E0E5
:101220000001AC510A0D200EF324D96E010EF420FA
:10123000DA6EDF6AAC510A0D180EF324176E010E38
:10124000F420186EAC510A0D4450F324196E455029
:10125000F4201A6E1C6A0A0E1B6E1CEC95F03FD629
:101260000001AC2B040EAC65C0D739D6CDC0D9FF78
:10127000CEC0DAFFDF50810A01E128D6030A01E17E
:10128000FDD6050A01E1B3D6160A97E0030AA3E0EA
:10129000050A9EE0E1870001CF5102E0E1AB1200B8
:1012A000E19770EF9CF0916B77A502D0010E7A6FF9
:1012B00077B77B6B7751030BE80602E1030E04D08E
:1012C0007751030B02E1010E8E6FEC517C190DE199
:1012D000ED517D190AE1EC2902E1ED2906E0050E48
:1012E0008F6F8E8D010E8D6F03D0070E8F6F8D6BFC
:1012F0007A51020ED8B4080E8F277B51020ED8B453
:10130000080E8F2777BB77B501D08E8B7751030BF3
:10131000030A07E18E6B070E8F6F8D6B010E7B6FDB
:10132000779B77A713D08E877EC060F07FC061F077
:10133000800E626FE8C063F0E9C064F0EAC065F057
:10134000EBC066F08EC067F0DFEC8CF0186A176AAD
:101350008FC019F084EC98F00001912B77A70CD086
:1013600091C017F0186A8F518025050F196E84EC13
:1013700098F00001912B09D091C017F0186A8F5195
:101380008025196E84EC98F0F4D791C017F0186A94
:101390008EC019F084EC98F00001912B7751030B6B
:1013A000030A13E191C017F0186A800E196E84ECDD
:1013B00098F00001912B91C017F0186ADDC019F068
:1013C00084EC98F00001DD2B5BD07A510CE07B516E
:1013D0000AE091C017F0186A880E196E84EC98F034
:1013E0000001912B20D07A510AE07B5108E191C095
:1013F00017F0186AC80E196E84EC98F0F1D77A517C
:101400000AE17B0508E191C017F0186A8C0E196E8D
:1014100084EC98F0E5D791C017F0186ACC0E196EDD
:1014200084EC98F0DDD791C017F0186ADDC019F090
:1014300084EC98F00001DD2B912B91C017F0186A15
:101440007CC019F084EC98F00001912B91C017F04A
:10145000186A7DC019F084EC98F00001912B77A5F3
:1014600011D091C017F0186A196884EC98F0000147
:10147000912B91C017F0186A196884EC98F01ED06F
:10148000912B32D07A511CE091C017F0186A78C0C5
:10149000D9FF79C0DAFFDF50196E84EC98F00001B3
:1014A000912B91C017F0186A20EE01F07851D926DF
:1014B0007951DA22DF50196E84EC98F00001E0D700
:1014C000906B91C017F0186A90517825D96E000E74
:1014D0007921DA6EDF50196E84EC98F00001912BBF
:1014E000902B070E9065EDD78D5112E191C017F04A
:1014F000186AECC019F084EC98F00001912B91C0AF
:1015000017F0186AEDC019F084EC98F00001912BE7
:101510007B5113E091C017F0186AEEC019F084EC0B
:1015200098F00001912B91C017F0186AEFC019F0E4
:1015300084EC98F00001912B14D0906B91C017F0BF
:10154000186A9051D725D96E000ED821DA6EDF5077
:10155000196E84EC98F00001912B902B070E90658A
:10156000EDD777A732D0906B91C017F0186A9051E1
:10157000E80FD96EDA6ADF50196E84EC98F000013A
:10158000912B902B030E9065EFD7E82B000EE923EB
:10159000EA23EB23E85111E1E9C081F0030E811742
:1015A0000CE1E80E176E186AF8C019F0F9C01AF0CD
:1015B0001C6A040E1B6E1CEC95F091C017F0186AA3
:1015C000196A84EC98F00001912B906B10D091C0B7
:1015D00017F0186A90517E25D96E000E7F21DA6EC1
:1015E000DF50196E84EC98F00001912B902B805104
:1015F000905DEDE3358077BB77B504D0050E906F35
:10160000358203D0010E906F359290C017F0370EDF
:101610008EEC9BF0FAEC98F016C085F017C086F0BF
:1016200018C087F019C088F081A2F08035B004D0CE
:1016300035A4010C3594000CFAEC98F016C089F032
:1016400017C08AF018C08BF019C08CF000018551CA
:10165000895D816F86518A59826F87518B59836F5B
:1016600088518C59846F8451831105E1D50E815DB9
:10167000300E8259D9E35BEC91F0EC0E1A6EEE0E4F
:1016800007EC98F03590000C010E176E1B0E8EECD7
:101690009BF0040E176E730E8EEC9BF0186A176A9F
:1016A0000D0E196E84EC98F0186A010E176E000189
:1016B0006251D96EDA6ADF500F0F196E84EC98F020
:1016C0000001786B020E776F186A176E69C019F007
:1016D00084EC98F00001774B782B77C017F078C036
:1016E00018F065C019F084EC98F00001774B782B66
:1016F00077C017F078C018F066C019F084EC98F045
:101700000001774B782B77C017F078C018F067C0CE
:1017100019F084EC98F00001774B782B77C017F024
:1017200078C018F068C019F084EC98F00001774B8D
:10173000782B796B77C017F078C018F07951632552
:10174000D96E000E6421DA6EDF50196E84EC98F0C9
:101750000001774B782B792B070E7965EBD7796BE6
:1017600012D077C017F078C018F079516025D96E83
:10177000000E6121DA6EDF50196E84EC98F00001E2
:10178000774B782B792B6251D96EDA6ADE50795D0E
:10179000E8E3020E786F4C0E776F796B77C017F025
:1017A00078C018F079516325D96E000E6421DA6E85
:1017B000DF50196E84EC98F000017707D8A0780705
:1017C000792B070E7965EAD7796B77C017F078C067
:1017D00018F07951650FD96EDA6ADF50196E84EC12
:1017E00098F000017707D8A07807792B030E796568
:1017F000ECD777C017F078C018F0040E196E84EC9F
:1018000098F000017707D8A07807020E786F800E55
:10181000776F796B77C017F078C018F08B0E792549
:10182000F66EF76AFB0EF722F86A000EF82208003F
:10183000F5CF19F084EC98F00001774B782B792BD9
:101840000F0E7965E7D7800E176E6F0E8EEC9BF04A
:10185000040E176E590E8EEC9BF0358C3580030EFE
:10186000176E370E8EEC9BF0FAEC98F016C06EF007
:1018700017C06FF018C070F019C071F02ED081A29F
:10188000F080FAEC98F016C072F017C073F018C030
:1018900074F019C075F000016E51725D6A6F6F517E
:1018A00073596B6F705174596C6F715175596D6FBD
:1018B0006D5107E1B50E6A5DC40E6B59040E6C598B
:1018C0000CE35BEC91F01D6A345084EC99F0EC0E63
:1018D0001A6EEE0E07EC98F0000C35BCD0D7600EF7
:1018E0004FEC9BF00001766F76AD0FD0400E176E77
:1018F000610E8EEC9BF0176A730E8EEC9BF0010E5E
:10190000176E1B0E8EEC9BF0000C6251D96EDA6ADA
:10191000186A010E176E5CEC98F0F30FDF6E19D0A9
:1019200000016251D96EDA6A120E11D000016251C3
:10193000D96EDA6A0A0E0BD000016251D96EDA6AEA
:10194000060E05D000016251D96EDA6A020EDF5E22
:101950000FD0040E010AF6E0030AE2E0010AE6E015
:10196000070AEAE0010ADCE0030AE0E0010AE4E039
:101970000001786B0F0E776F796B11D0795160256C
:10198000D96E000E6121DA6E77C017F078C018F0BA
:101990005CEC98F0DF6E0001774B782B792B62516D
:1019A000D96EDA6ADE50795DE9E3176A730E8EEC60
:1019B0009BF0010E176E1B0E8EEC9BF0010C010EBE
:1019C000176E1B0E8EEC9BF0040E176E730E8EECD2
:1019D0009BF0186A176A0D0E196E84EC98F0186A5D
:1019E000010E176E00016251D96EDA6ADF500D0FD9
:1019F000196E84EC98F00001756B020E746F186A12
:101A0000176E67C019F084EC98F00001744B752BC9
:101A100074C017F075C018F063C019F084EC98F02A
:101A20000001744B752B74C017F075C018F064C0BA
:101A300019F084EC98F00001744B752B74C017F00A
:101A400075C018F065C019F084EC98F00001744B73
:101A5000752B74C017F075C018F066C019F084ECCF
:101A600098F00001744B752B766B74C017F075C03D
:101A700018F07651D725D96E000ED821DA6EDF50D6
:101A8000196E84EC98F00001744B752B762B070EC1
:101A90007665EBD7766B12D074C017F075C018F06E
:101AA00076516025D96E000E6121DA6EDF50196E15
:101AB00084EC98F00001744B752B762B6251D96E33
:101AC000DA6ADE50765DE8E3020E756F4C0E746FD5
:101AD000766B74C017F075C018F07651D725D96EA3
:101AE000000ED821DA6EDF50196E84EC98F00001F8
:101AF0007407D8A07507762B070E7665EAD7766B44
:101B000074C017F075C018F07651630FD96EDA6A99
:101B1000DF50196E84EC98F000017407D8A07507A7
:101B2000762B030E7665ECD774C017F075C018F0ED
:101B3000040E196E84EC98F000017407D8A07507A4
:101B4000020E756F800E746F766B74C017F075C0DF
:101B500018F08B0E7625F66EF76AFB0EF722F86A00
:101B6000000EF8220800F5CF19F084EC98F000017F
:101B7000744B752B762B0F0E7665E7D7400E176EDC
:101B80006F0E8EEC9BF0040E176E590E8EEC9BF0D0
:101B9000358C030E176E370E8EEC9BF0FAEC98F036
:101BA00016C06CF017C06DF018C06EF019C06FF061
:101BB00029D081A2F080FAEC98F016C070F017C01E
:101BC00071F018C072F019C073F000016C51705DB3
:101BD000686F6D517159696F6E5172596A6F6F51AB
:101BE00073596B6F6B5107E1B50E685DC40E69598F
:101BF000040E6A5907E35BEC91F0EC0E1A6EEE0EE0
:101C000007EF98F035BCD5D700016251D96EDA6A7A
:101C1000186A010E176E5CEC98F0F30FDF6E00018E
:101C2000756B0F0E746F766B11D076516025D96E7F
:101C3000000E6121DA6E74C017F075C018F05CEC0C
:101C400098F0DF6E0001744B752B762B6251D96EC4
:101C5000DA6ADE50765DE9E3176A730E8EEC9BF06C
:101C6000010E176E1B0E8EEF9BF0ECEC95F081ECE5
:101C70009AF0000901E012002FEC96F00101AB6F21
:101C800003D10001E36BE76B060E166EE551C9EC5C
:101C90009BF0150DCB0E0001C06FFA0EC16FF35013
:101CA000C027F450C123E751C027000EC123C0C094
:101CB000F6FFC1C0F7FF000EF86E4A0EE325D96E9D
:101CC000DA6A010EDA220800F5CFDFFFE32BE72BFB
:101CD000140EE765D9D7E52B010E54EC9CF0E2C059
:101CE00073F0E42BE451B2EC9CF0030E176EE80E97
:101CF000166E9EEF93F0010E0001FC6F0101AE6BBA
:101D0000010EAC6FBCD0EFEC9BF0EFEC9BF0720ED1
:101D1000226E010E236EFB0E246EFE0E256EAEC1EA
:101D200026F0276A0101AE510A0D180EF324D96E70
:101D3000010EF420DA6EDF50286E296AAE510A0DCA
:101D4000190EF324D96E010EF420DA6EDF502A6EDC
:101D50002B6AAE510A0D1A0EF324D96E010EF4202F
:101D6000DA6EDF502C6E2D6A00EC80F0820E226E4F
:101D7000010E236E900E246EFF0E256E00EC80F097
:101D8000F1EC96F0F1EC96F0010E0001FC6F74D0CE
:101D90002FEC96F00101AD6F81EC9AF00101AD05D9
:101DA0004AE1AC6B0001FC6BE62BE36BE76B060EC4
:101DB000166EE651C9EC9BF00B0D490E0001C06F89
:101DC000FB0EC16FF350C027F450C123E751C02769
:101DD000000EC123C0C0F6FFC1C0F7FF000EF86EB1
:101DE0004A0EE325D96EDA6A010EDA220800F5CF31
:101DF000DFFFE32BE72B0A0EE765D9D7E62B010EB1
:101E0000A56F0101AE51DFEC99F0000903E126EC6A
:101E10009CF002D00001E42BE2C073F00001E45119
:101E2000B2EC9CF0030E176EE80E166E9EEC93F06B
:101E3000DDEC9CF024D0020EAD191EE1AE51000184
:101E4000C06FC16BFE0EC26FC3694850C46FC56BD3
:101E5000C251C427C351C523C051C45DC551800AB6
:101E6000C66FC151800AC65903E20101AE6B02D0B0
:101E70000101AE2B0001FC6B0001FC5189E1010165
:101E8000AC0501E140D71200AB51010A01E1F9D6DE
:101E9000030A01E130D71200236E050E23642ED011
:101EA000390E176EFF0E186E14EC9CF0256A255043
:101EB000AA08D96E000ED8A0E82A0108DA6EDF5011
:101EC00033EC9AF0252A070E2564F1D7CA0E176E57
:101ED000FF0E186E14EC9CF00001F15133EC9AF0F7
:101EE0000001F05133EC9AF0BE0E176EFF0E186E23
:101EF00014EC9CF00001FA512DEC97F0050E2360D4
:101F000068D0350E176EFD0E186E14EC9CF0235041
:101F10000A0D200EF324D96E010EF420DA6E0101B1
:101F2000DFAE1200235033EC9AF0B00E176EFF0EA6
:101F3000186E14EC9CF0256A080E256019D0235009
:101F40000A0D180E216E010E226E070E2126000EBC
:101F50002222F3502126F45022222550215CD96EF2
:101F60002250D8A02204DA6EDF5033EC9AF006D06B
:101F7000BB0E176EFF0E186E14EC9CF0252A070E90
:101F80002564DAD7B90E176EFF0E186E14EC9CF0AC
:101F9000256A23500A0D180E216E010E226E090EBD
:101FA0002126000E2222F3502126F4502222255011
:101FB0002124D96E000E2220DA6EDF5033EC9AF025
:101FC000252A2550E6E0FB0E176EFF0E186E14EF63
:101FD0009CF0330E176EFD0E186E14EC9CF0256A03
:101FE00025500A0D200EF324D96E010EF420DA6E6E
:101FF0000101DFAE57D0255033EC9AF0B00E176ECA
:10200000FF0E186E14EC9CF0246A080E246019D0A0
:1020100025500A0D180E216E010E226E070E212684
:10202000000E2222F3502126F45022222450215C5B
:10203000D96E2250D8A02204DA6EDF5033EC9AF029
:1020400006D0BB0E176EFF0E186E14EC9CF0242AFF
:10205000070E2464DAD7B90E176EFF0E186E14EC53
:102060009CF0246A25500A0D180E216E010E226E76
:10207000090E2126000E2222F3502126F45022229E
:1020800024502124D96E000E2220DA6EDF5033EC6A
:102090009AF0242A2450E6E0FB0E176EFF0E186E0D
:1020A00014EC9CF0252A040E25649AD7040C656F65
:1020B000A0EC97F0E16B655129E1696B69510A0D5C
:1020C000200EF324D96E010EF420DA6EDF6A695116
:1020D0000A0D180EF324D96E010EF420DA6EDF6AB1
:1020E00069510A0D190EF324D96E010EF420DA6E2F
:1020F000DF6A69510A0D1A0EF324D96E010EF4201D
:10210000DA6EDF6A692B040E6965D8D7AAEC9CF0F9
:102110000001E36B696B6951040D000EF324D96E65
:10212000010EF420DA6EDE6ADE6ADE6ADD6A692B91
:10213000040E6965F0D765515BE0FA0E176E186AF8
:10214000F4C019F0F5C01AF01C6A010E1B6ED4EC35
:1021500098F01F0E0001FA6501D01F0CF00E176EEB
:10216000186A46C019F047C01AF01C6A020E1B6EAE
:10217000D4EC98F0FD0E176E186AF2C019F0F3C097
:102180001AF01C6A010E1B6ED4EC98F0180E176E34
:10219000010E186E44C019F045C01AF01C6A320EC8
:1021A0001B6ED4EC98F0480E176E186AF6C019F042
:1021B000F7C01AF01C6A010E1B6ED4EC98F0E90E01
:1021C000176EFF0E186E14EC9CF00001F15133EC09
:1021D0009AF00001F05133EC9AF0D60E176EFF0E14
:1021E000186E14EC9CF00001FA5133EC9AF035D0E3
:1021F000120EF16F340EF06FF00E176E186A46C0B3
:1022000019F047C01AF01C6A020E1B6E1CEC95F008
:10221000FA0E176E186AF4C019F0F5C01AF01C6AAD
:10222000010E1B6E1CEC95F0FD0E176E186AF2C0C5
:1022300019F0F3C01AF01C6A010E1B6E1CEC95F02D
:10224000180E176E010E186E44C019F045C01AF032
:102250001C6A320E1B6E1CEC95F0A30E0001676F1A
:10226000010E686F66836651870B4009666F65B122
:1022700002D0669502D000016685669166C060F066
:1022800067C061F068C062F0C8EC94F00001636957
:102290006469F00E1A6E630E07EC98F00001FA51B3
:1022A000C8EC9AF00001E06BE081E087FD39F00BAB
:1022B000E013F08612008A9A030E286E296A2A6AB1
:1022C0002B6A18D0820E206E060E216E226A236AB7
:1022D0002006000E215A225A235A2028F9E12128EB
:1022E000F7E12228F5E12328F3E12806000E295A18
:1022F0002A5A2B5A285029102A102B10E3E18A8AD7
:102300000A0E2C6E2D6A2E6A2F6A18D0820E246E49
:10231000060E256E266A276A2406000E255A265ABE
:10232000275A2428F9E12528F7E12628F5E127286E
:10233000F3E12C06000E2D5A2E5A2F5A2C502D1038
:102340002E102F10E3E1070E176E550E8EEC9BF04A
:10235000540E4FEC9BF0326E32C01FF0070E1F166A
:10236000F7E1306A316A304A312AE80E305C030EF8
:102370003158F9E3010E176E1B0E8EEC9BF01768B7
:10238000070E8EEC9BF01768090E8EEC9BF0176819
:10239000030E8EEC9BF01768050E8EEC9BF0326AF4
:1023A00032500001D725D96E000ED821DA6EDF50E9
:1023B000176E3250020DF3500B0F8EEC9BF0322A49
:1023C000070E3264EDD7020E186E176E800E196E6E
:1023D00084EC98F0020E186E030E176E196A84ECE6
:1023E00098F0020E186E060E176E900E196E84ECA1
:1023F00098F0020E186E070E176E800E196E84ECA0
:1024000098F0020E186E080E176E100E196E84ECFE
:1024100098F0020E186E200E176E210E196E84ECC5
:1024200098F0800E176E750E8EEC9BF0400E176EB6
:102430007D0E8EEC9BF0600E176E7F0E8EEC9BF087
:10244000980E176E310E8EEC9BF0950E176E5D0E8A
:102450008EEC9BF0020E186E0F0E176E5CEC98F06F
:10246000326E3250A00BA00AF5E1E60E176E650E33
:102470008EEC9BF0020E186E176A030E196E84EC38
:1024800098F0020E186E010E176E020E196E84EC93
:1024900098F01D6A345084EF99F0246A2568266A02
:1024A00026500A0D200EF324D96E010EF420DA6EA8
:1024B0000101DFAE15D0CBC016F0CCC017F026500E
:1024C0000A0D180EF324186E010EF420196E39EC63
:1024D0009BF0000909E026C025F0010E246E08D00B
:1024E000252802E126C025F0262A040E2664D8D726
:1024F000252801E1F10C0001FD5102E024501200F9
:1025000025C0DFF0266A2650CB25D96E000ECC21DF
:10251000DA6E25500A0D180E206E010E216EF35052
:102520002026F450212226502024E16E000E212086
:10253000E26EDFCFE7FF262A070E2664E4D7255098
:102540000A0D200EF324D96E010EF420DA6EDF8E10
:10255000000120EE02F0CD51D926CE51DA22DF5013
:10256000206E010E201625500A0D200EF324D96E80
:10257000010EF420DA6EDF502018FE0B2018DF6EFB
:10258000266A26500001CD25206E000ECE21216E38
:10259000030E2024D96E000E2120DA6E25500A0D7C
:1025A000180E226E010E236E090E2226000E232223
:1025B000F3502226F450232226502224E16E000EEE
:1025C0002320E26EDFCFE7FF262A2650DAE02550EF
:1025D000040D000EF324D96E010EF420DA6EDE6ACB
:1025E000DE6ADE6ADD6A25C0DEF0E199B6EC9BF0BA
:1025F000486E480E176E186AF6C019F0F7C01AF048
:102600001C6A010E1B6E1CEC95F078D7FDC0B2F071
:10261000030EB36FB46BFAEC98F00001AD0501E165
:10262000FF0CFAEC98F016C0B5F017C0B6F018C061
:10263000B7F019C0B8F0B40E0001B55FC40EB65BB8
:10264000040EB75B000EB85BFD6BE18970D0FAEC4D
:1026500098F016C0B9F017C0BAF018C0BBF019C096
:10266000BCF00001B551B95DAE6FB651BA59AF6F4C
:10267000B751BB59B06FB851BC59B16FB15107E1F7
:10268000B50EAE5DC40EAF59040EB0594AE3B9C0E1
:10269000B5F0BAC0B6F0BBC0B7F0BCC0B8F0B40774
:1026A000B42945E1010EB46FB307B32902E1E19902
:1026B000FF0CE36B4A0EE325D96EDA6A010EDA22CB
:1026C000810EDF6EE32B4A0EE325D96EDA6A010E26
:1026D000DA22FAC0DFFFE32B4A0EE325D96EDA6A6D
:1026E000010EDA22E0C0DFFFE32BBD6BBD51FB0F13
:1026F000D96EDA6A4A0EE325E16EE26A010EE22241
:10270000DFCFE7FFE32BBD2BBD51F0E0F0C092F02F
:10271000F1C093F0946B956B010E966F976B6BEC19
:1027200094F0B9EC9CF0000902E0D3EC9CF00001BD
:10273000E1B98DD7B2C0FDF0DE5112001650186E0F
:102740001750196E1A6A1B6AC40E1802F3CF1CF0D8
:10275000F4CF1DF01E6A1F6A1902F3501D26F450B3
:102760001E22000E1F22090E1802F3501D26F450DF
:102770001E22000E1F22C40E1A02F3501E26F45011
:102780001F22090E1902F3501E26F4501F22000EBC
:102790001802F3501E26F4501F22C40E1B02F350E1
:1027A0001F26090E1A02F3501F26000E1902F350BD
:1027B0001F26000E1802F3501F261CC020F01DC05B
:1027C00021F01EC022F01FC023F0560E2026FF0E5F
:1027D00021222222232223BEFF0C2350221021106B
:1027E0000BE1C40E205C08E2120000F0D90E202696
:1027F000FF0E21222222232223BE12002350221068
:102800002110F3E12004F1E21200C8A706D0E00E87
:10281000176EFF0E186E14EC9CF00001C851030BEC
:1028200007E0690E176EFE0E186E14EC9CF006D0D1
:10283000850E176EFE0E186E14EC9CF00001D05140
:1028400033EC9AF00001C8AD2FD0F20E176EFF0ED8
:10285000186E14EC9CF00001C8AF11D020EE01F00E
:10286000CB51D926CC51DA22DF5033EC9AF0CBC0D1
:10287000D9FFCCC0DAFFDF5033EC9AF015D01C6AD8
:102880001C500001CB5D1A6E000ECC591B6E070E5A
:102890001A24D96E000E1B20DA6EDF5033EC9AF04A
:1028A0001C2A070E1C64ECD7C70E176EFF0E186E9D
:1028B00014EC9CF01C6A0AD01C50CD25D96E000E79
:1028C000CE21DA6EDF50BFEC9CF01C2A0001CF5104
:1028D0001C5CF2E31200996F00019A6B965103E0C1
:1028E000336A332A01D0336A00019A513318FC0B42
:1028F00033189A6F995103E1336A332A01D0336A4E
:10290000333A334600019A513318DF0B33189A6F6C
:1029100099B102D09A9502D000019A8597B102D060
:102920009A9702D000019A879E6B9951010ED8B4F4
:10293000000E9D6F995103E1336A332A01D0336A47
:10294000333A3346334600019A513318BF0B3318DC
:102950009A6F9A8F94C09BF095C09CF092C09FF0A4
:1029600093C0A0F020EE9AF000EE77F0060EDBCFD9
:10297000EBFFE806FCE24A0E7E6F010E7F6FE3C0BC
:1029800080F053EC89F00001986FE36B98511200CE
:1029900060C0D6F061C0D7F062C0D8F0D6CFDDF00D
:1029A0000B0E346E5BEC91F0356A336A33504E0D8A
:1029B000000EF324D96E020EF420DA6EDF6A332A99
:1029C000010E3364F3D7000160A51FD0E80E176E27
:1029D000186AF8C019F0F9C01AF01C6A040E1B6ED0
:1029E000D4EC98F00001D890040EE927000EEA23F9
:1029F000EB23E80E176E186AF8C019F0F9C01AF048
:102A00001C6A040E1B6E1CEF95F0E86BE96BEA6B19
:102A1000EB6BE80E176E186AF8C019F0F9C01AF0DF
:102A20001C6A040E1B6E1CEC95F0010E0001E86F91
:102A3000E96BEA6BEB6B000C000EF0B6010E1E6E3C
:102A4000F0968996050E89EC9CF0C5EC9CF01F6E03
:102A50008986D9EC9CF01FB0F4D78996060E89ECD4
:102A60009CF08986D9EC9CF08996020E89EC9CF04A
:102A70001A5089EC9CF0195089EC9CF01F6A19D00F
:102A800017C0D9FF18C0DAFFDF5089EC9CF0174A55
:102A9000182A1B06D8A01C061F2A1F5019241D6EB9
:102AA0003F0E1D1606E189861F501926000E1A22B8
:102AB000C8D71B501C10E4E189861EB002D0F096E6
:102AC00001D0F086120002EE00F09C0EEE6AE806DD
:102AD000FDE101EE00F0930EEE6AE806FDE100EE86
:102AE000C8F0330EEE6AE806FDE100EE34F0150E94
:102AF000EE6AE806FDE1FA0EF66E380EF76E010E8C
:102B0000F86E01EE93F010EE18F00900F5CFEEFF2D
:102B1000E550E150FAE1B60EF66E390EF76E010E91
:102B2000F86E0900F5CFFBF00900F5CFFCF00900C5
:102B3000F5CFFDF0BE0EF66E390EF76E010EF86E93
:102B40000900F5CF49F04A904A92000102EF9CF04B
:102B5000FAEC98F016C07BF017C07CF018C07DF03E
:102B600019C07EF0FAEC98F016C07FF017C080F024
:102B700018C081F019C082F000017B517F5D776F32
:102B80007C518059786F7D518159796F7E5182597E
:102B90007A6F7A5120E1D10E775D120E7859130EBB
:102BA000795901E312002FEC96F00001836F020EB9
:102BB000831910E1110E736FFF0E746F000E756FA5
:102BC000766F45EC99F0030E176EE80E166E9EECCC
:102BD00093F0010C000E120081A080BA12000001D7
:102BE000BE6BEFEC9BF0720E226E010E236EB70EE1
:102BF000246EFE0E256EF1C026F0276AF0C028F084
:102C0000296A000E2B6E190E2A6E00EC80F0820EDF
:102C1000226E010E236EE50E246EFE0E256EA3C1FC
:102C200026F0276AA4C128F0296AA5C12AF02B6AD8
:102C300000EC80F0F1EC96F00ED0AD6B06EC93F06A
:102C40002FEC96F00001BF6FBF0503E0020EBF1925
:102C500002E1010EBE6F0001BE51EFE0120081B033
:102C60000FD036503CE1010E366EFAEC98F016C0EB
:102C700014F117C015F118C016F119C017F1010CA5
:102C800080BA0FD036502BE1010E366EFAEC98F078
:102C900016C014F117C015F118C016F119C017F1BC
:102CA000020CFAEC98F016C024F017C025F018C0FA
:102CB00026F019C027F001011451245C206E155133
:102CC0002558216E16512658226E17512758236E0B
:102CD0002350221003E1400E215C01E3366A000C10
:102CE000D30E0001736FFD0E746F000E756F010E31
:102CF000766F45EC99F0F70E176EFC0E186E14EC1B
:102D00009CF0B30E176EFD0E186E14EC9CF0CE0EF8
:102D1000176EFE0E186E14EC9CF03D0E176EFC0E36
:102D2000186E14EC9CF07D0E176EFC0E186E14ECF1
:102D30009CF0FB0E176EFB0E186E14EC9CF0B90E97
:102D4000176EFB0E186E14EC9CF0BB0E176EFC0E8B
:102D5000186E14EC9CF0F90E176EFF0E186E14EF3F
:102D60009CF0BE6F0001BE510BE0010E57EC90F0DD
:102D70002F0E736FFE0E746F756B766B45EF99F0C7
:102D80008C9E8C9C000E57EC90F0190EC8EC9AF0BB
:102D9000000903E1190E36EC9CF0000EC2EC99F02C
:102DA000000E0001776F190ED6EC97F00001AD6BA5
:102DB00006EC93F0BF6FBF2906E0010E776F190E86
:102DC000D6EC97F009D00A0E206E000E216A226A16
:102DD000236A246A99EC9AF0FF0E4CEC8FF08C8EEB
:102DE0001200800EFBEC99F0256A720E2524D96E34
:102DF000DA6A010EDA22DF5004E1200E17EC9AF0B5
:102E000009D0720E2524D96EDA6A010EDA22DF505B
:102E100017EC9AF0252A0F0E2564E7D7C00EFBECBD
:102E200099F0100E256E720E2524D96EDA6A010E05
:102E3000DA22DF5004E1200E17EC9AF009D0720E6E
:102E40002524D96EDA6A010EDA22DF5017EC9AF0E7
:102E5000252A1F0E2564E7D71F0C206E630E206401
:102E600010D0640E1A6E20504EEC9AF01E6E1F6A3F
:102E7000930E1E24D96E010E1F20DA6EDF50BFECB8
:102E80009CF0090E206414D00A0E1A6E640E166EA1
:102E90002050C9EC9BF04EEC9AF01E6E1F6A930E08
:102EA0001E24D96E010E1F20DA6EDF50BFEC9CF09D
:102EB0000A0E166E2050C9EC9BF01E6E1F6A930E10
:102EC0001E24D96E010E1F20DA6EDF50BFEF9CF07A
:102ED00092948984176A0A0E166E9EEC93F0979C62
:102EE0008E9C176A0A0E166E9EEC93F08E8CCFECB9
:102EF0009CF023EC9BF00DEC9BF0000EF6EC9AF0AE
:102F0000176A0A0E166E9EEC93F03C0E68EC9AF06F
:102F1000176A0A0E166E9EEC93F00C0E68EC9AF08F
:102F2000176A0A0E166E9EEC93F0010E68EC9AF08A
:102F3000176A0A0E166E9EEC93F00C0E68EF9AF06C
:102F4000010E1B6E0001DB6BDC6B176A020E166E46
:102F5000460E186EB1EC9AF01B16176A010E166E2B
:102F6000F40E186EB1EC9AF01B16176A010E166E6D
:102F7000F20E186EB1EC9AF01B16176A320E166E2E
:102F8000440E186EB1EC9AF01B16176A040E166EFA
:102F9000F80E186EB1EC9AF01B16176A010E166E39
:102FA000F60E186EB1EC9AF01B161200336E00018B
:102FB000775114E1930E736FFD0E746F33C075F08B
:102FC000010E766F45EC99F0110E176EFE0E186E1D
:102FD00014EC9CF033502DEC97F013D0F20E736F7D
:102FE000FD0E746F33C075F0010E766F45EC99F0ED
:102FF0004C0E176EFE0E186E14EC9CF033502DEC38
:1030000097F0FB0E176EFF0E186E14EF9CF01B6E00
:103010001B50D96EDA6ADF500001EE6F1B50D96E7B
:10302000DA6AD92ADF50EF6F1A50D96EDA6ADF50A8
:10303000EC6F1A50D96EDA6AD92ADF50ED6FEEC004
:1030400017F0070E8EEC9BF0EFC017F0090E8EEC18
:103050009BF0ECC017F0030E8EEC9BF0EDC017F068
:10306000050E8EEF9BF0700ED36EC088DF0EC16E22
:10307000C268C098926893689468956A896A8A6AF7
:103080008B6A8C6A9380928A959E959C93968A8689
:10309000939A8A8A93829488949A9496C00EC76E63
:1030A000210EC66E93988A88F19A92968986F28E3E
:1030B000F090F08668EF97F0000EF0B6010E1C6EEF
:1030C000F0968A9617C019F018C01AF0D8901A32E4
:1030D0001932D8901A321932D8901A32193219503E
:1030E0007F0B800989EC9CF01738E846E00B89ECEF
:1030F0009CF0C5EC9CF01B6E8A861CB002D0F0964A
:1031000001D0F0861B501200000EF0B6010E1C6EAE
:10311000F0968A9617C01AF018C01BF0D8901B3290
:103120001A32D8901B321A32D8901B321A321A50E7
:103130007F0B800989EC9CF01738E846E00B1009FA
:1031400089EC9CF0195089EC9CF08A861CB002D066
:10315000F09601D0F0861200000EF0B6010E076E58
:10316000F0968A9602C004F003C005F0D8900532AC
:103170000432D89005320432D8900532043204501B
:103180007F0B800995EC9CF00238E846E00B95EC4B
:103190009CF0CAEC9CF0066E8A8607B002D0F096CE
:1031A00001D0F08606501200000EF0B6010E1D6E22
:1031B000F0968996030E89EC9CF01A5089EC9CF0ED
:1031C000195089EC9CF00CD0C5EC9CF017C0D9FFCD
:1031D00018C0DAFFDF6E174A182A1B06D8A01C0693
:1031E0001B501C10F1E189861DB002D0F09601D071
:1031F000F08612009D901E6A1F6A1B6ACECF1CF0DB
:10320000CFCF1DF01C2808E11D2806E11B2A1B0456
:103210001A6E020E1A64F2D79EA004D01E2A372816
:1032200001E11F2A37501E2638501F269D801CC0E2
:1032300016F01DC017F01EC018F01FC019F01200C4
:103240001B6A1C6A185019101BE0010E1A6E04D07C
:10325000D890183619361A2A19AEFAD7D8901B36D4
:103260001C361850165C1950175805E31850165E96
:103270001950175A1B80D890193218321A2EEED7CF
:103280001BC016F01CC017F01200EFEC9BF0720E82
:10329000226E010E236E73C024F074C025F075C039
:1032A00026F0276A00EC80F0F1EC96F000017651F0
:1032B000D8B41200326A176AFA0E166E9EEC93F0BA
:1032C000322A070E3264F7D7070C336EEFEC9BF00F
:1032D000720E226E010E236E7F0E246EFF0E256E7F
:1032E00033C026F0276A00EC80F0820E226E010EB9
:1032F000236E6E0E246EFF0E256E32C026F0276AF6
:1033000000EC80F0F1EF96F01E6E0A0E1E64000CC9
:103310001A0E1E6401D0000C1EC034F0020E186E8E
:10332000176A1E50100DF350500F0309196E84ECEC
:1033300098F0040E176E6D0E8EEC9BF0176A6D0EF2
:103340008EEC9BF0010C1F50201017E0010E216E37
:1033500004D0D8901F362036212A20AEFAD71F502D
:103360001D5C20501E5804E31F501D5E20501E5A45
:10337000D89020321F32212EF2D71DC01DF01EC062
:103380001EF01200216E030E216401D0030C21C037
:10339000FDF0FDC020F0203AF00E20160001E051B3
:1033A0000F0B2010E06FFD0E176E186AF2C019F0B7
:1033B000F3C01AF01C6A010E1B6E1CEF95F00001A1
:1033C000A66FA6510A0D200EF324D96E010EF4202B
:1033D000DA6E0101DFAE000C0001A6510A0D180ED5
:1033E000F324A16F010EF420A26F010EA36FA5C0FC
:1033F000A4F046EF9CF0246E000EF6EC9AF0176AEB
:10340000010E166E9EEC93F02450DFEC9AF000F063
:1034100000F000F000F0400EF6EC9AF000F000F042
:1034200000F000F000F000F0000EF6EF9AF0246ECD
:10343000176A010E166E9EEC93F0800EF6EC9AF071
:103440002450DFEC9AF000F000F000F000F0C00E25
:10345000F6EC9AF000F000F000F000F000F000F060
:10346000000EF6EF9AF0186E18C017F018380F0B10
:10347000186E930E1824D96EDA6A010EDA22DF5024
:10348000BFEC9CF017500F0B186E930E1824D96EDA
:10349000DA6A010EDA22DF50BFEF9CF01B6E1D6A64
:1034A0001A5014E0010E1C6E03D0D8901A361C2A54
:1034B0001AAEFBD7D8901D361A501B5C03E31A5086
:1034C0001B5E1D80D8901A321C2EF4D71D5012009E
:1034D000196E000EF6EC9AF01950DFEC9AF000F03D
:1034E00000F000F0400EF6EC9AF000F000F000F072
:1034F00000F000F000F000F000F000F0000EF6EF39
:103500009AF0B9EC9CF00009D8B4120005EC94F0E4
:10351000E22BE2C073F0E451B2EC9CF08C7C070E1D
:10352000176ED00E166E9EEC93F0DDEC9CF0D3EF90
:103530009CF0256E10D0120E0001F16F340EF06F6A
:1035400026682768F00E1A6E260E07EC98F0FAEC43
:1035500098F0FAEF98F02550EEE0010AD8A4030A9B
:1035600012001650DB25196E1750DC211A6E190453
:10357000800E1A5801E3000C1850D96EDA6ADBC0CD
:10358000DEFFDCC0DDFF1650DB271750DC23010C0B
:10359000206E1D6A205084EC99F000090FE020C0D5
:1035A000FAF0FA0E176E186AF4C019F0F5C01AF0A6
:1035B0001C6A010E1B6E1CEC95F0010C000C176EC2
:1035C000000EF0B6010E186EF0968994400E89EC4C
:1035D0009CF0130E89EC9CF0175089EC9CF08984C8
:1035E00018B002D0F09601D0F0861200176E000ECF
:1035F000F0B6010E186EF0968994400E89EC9CF09E
:10360000120E89EC9CF0175089EC9CF0898418B05C
:1036100002D0F09601D0F0861200000EF0B6010E36
:10362000176EF0968994400E89EC9CF0010E89EC9F
:103630009CF0000E89EC9CF0898417B002D0F096C3
:1036400001D0F0861200000EF0B6010E176EF09653
:103650008994400E89EC9CF0000E89EC9CF0000EE1
:1036600089EC9CF0898417B002D0F09601D0F086E6
:1036700012001C6A1C501824D96E000E1920DA6E34
:103680001C501624E16E000E1720E26EDE50E61884
:1036900001E0000C1C2A070E1C64ECD7010C176E0D
:1036A000000EF0B6010E196EF0968A96175089EC4E
:1036B0009CF0C5EC9CF0186E8A8619B002D0F0968A
:1036C00001D0F0861850120016C01CF017C01DF073
:1036D00008D01CC0D9FF1DC0DAFF18C0DFFF1C4A8C
:1036E0001D2A1A06D8A01B061A28F3E11B28F1E1AF
:1036F0001200026E000EF0B6010E046EF0968A966D
:10370000025095EC9CF0CAEC9CF0036E8A8604B0E3
:1037100002D0F09601D0F08603501200186E000E11
:10372000F0B6010E196EF0968A96185089EC9CF04E
:10373000175089EC9CF08A8619B002D0F09601D01F
:10374000F0861200036E000EF0B6010E046EF096C5
:103750008A96035095EC9CF0025095EC9CF08A867A
:1037600004B002D0F09601D0F0861200166A176AF3
:1037700017500A0D200EF324D96E010EF420DA6ED4
:103780000101DFBE162A172A040E1764F1D716505E
:103790001200176E080E186E196AD8901734193473
:1037A000196ED89017361650195C02E31650195E40
:1037B000182EF3D71950120016501802F3CF1AF032
:1037C000F4CF1BF016501902F3501B2617501802A5
:1037D000F3501B261AC016F01BC017F01200010E82
:1037E00068EC9AF0176A020E166E9EEC93F0720E59
:1037F000166E010E176E196A200E186E1B6A1A6E6D
:1038000064EF9BF033EC98F0A1EC9CF0AAEC9CF0F8
:1038100070EC96F0A8EC95F00001C76FC751B1ECC1
:1038200096F0D7EC9CF0FDD703D01950BFEC9CF07C
:1038300017C0F6FF18C0F7FF174A182A000EF86ED7
:103840000800F5CF19F01950F0E11200260E176E9E
:10385000FF0E186E14EC9CF0A00E0001736FFF0EAB
:10386000746F756B010E766F45EF99F0216E9F0EA8
:10387000176EFE0E186E14EC9CF021502DEC97F094
:10388000650E176EFD0E186E14EF9CF0F0C092F0EE
:10389000F1C093F0A1C094F0A2C095F0000E966B19
:1038A000A4C097F06BEF94F0A16FF0C092F0F1C05C
:1038B00093F00001946B956B966BA1C097F0010E8D
:1038C0006BEF94F0186E176A3A0E186005D02F0E41
:1038D000186402D0010E176E17C016F016301200D1
:1038E000020E4960020C49504E0D000EF324D96EB1
:1038F000020EF420DA6EDF6A000C303132333435D8
:1039000036373839414243444546FF112233445546
:103910006611166E9E96C950C69E16C0C9FFC6BED9
:10392000FBD79EA6FED79E961200016E9E96C950AA
:10393000C69E01C0C9FFC6BEFBD79EA6FED79E96F7
:103940001200948E949C240EAD6E900EAC6E1F0EE1
:10395000B06E1F0C380ECD6E9E909D80CD80376A64
:10396000386A1200746F73C032F00001745165EF51
:1039700099F0ECEC86F00001E1B7010C000C166E3A
:10398000ADA2FED716C0AEFF1200000E89EC9CF06F
:10399000C9501200000E95EC9CF0C9501200949A88
:1039A00094969E9612000001E19770EF9CF035EF1F
:0939B0008EF000F0120001010389
:0539BA0012001200FFE5
:06FFF800A0F4C5F7F8FFBC
:00000001FF
