:020000040000fa
:080000000002040000000000f2
:020000040000fa
:100008009a0200009a0200009a0200009a02000078
:100018009a0200009a0200009a0200009a02000068
:100028009a0200009a0200009a0200009a02000058
:100038009a0200009a0200009a0200009a02000048
:100048009a0200009a0200009a0200009a02000038
:100058009a0200009a0200009a0200009a02000028
:100068009a0200009a0200009a0200009a02000018
:10007800aa3b00009a0200009a0200009a020000bf
:100088009a0200009a0200009a0200009a020000f8
:100098009a0200009a0200009a0200009a020000e8
:1000a8009a0200009a0200009a0200009a020000d8
:1000b8009a0200009a0200009a0200009a020000c8
:1000c8009a0200009a0200009a0200009a020000b8
:1000d8009a0200009a0200009a0200009a020000a8
:1000e8009a0200009a0200009a0200009a02000098
:1000f8009a0200009a0200009a0200009a02000088
:100108009a0200009a0200009a0200009a02000077
:100118009a0200009a0200009a0200009a02000067
:100128009a0200009a0200009a0200009a02000057
:100138009a0200009a0200009a0200009a02000047
:100148009a0200009a0200009a0200009a02000037
:100158009a0200009a0200009a0200009a02000027
:100168009a0200009a0200009a0200009a02000017
:100178009a0200009a0200009a0200009a02000007
:100188009a0200009a0200009a0200009a020000f7
:100198009a0200009a0200009a0200009a020000e7
:1001a8009a0200009a0200009a0200009a020000d7
:1001b8009a0200009a0200009a0200009a020000c7
:1001c8009a0200009a0200009a0200009a020000b7
:1001d8009a0200009a0200009a0200009a020000a7
:1001e8009a0200009a0200009a0200009a02000097
:0801f8009a0200009a020000c7
:020000040000fa
:100208009a0200009a0200009a0200009a02000076
:100218009a0200009a0200009a0200009a02000066
:100228009a0200009a0200009a0200009a02000056
:100238009a0200009a0200009a0200009a02000046
:100248009a0200009a0200009a0200009a02000036
:100258009a0200009a0200009a0200009a02000026
:100268009a0200009a0200009a0200009a02000016
:10027800aa3b00009a0200009a0200009a020000bd
:100288009a0200009a0200009a0200009a020000f6
:100298009a0200009a0200009a0200009a020000e6
:1002a8009a0200009a0200009a0200009a020000d6
:1002b8009a0200009a0200009a0200009a020000c6
:1002c8009a0200009a0200009a0200009a020000b6
:1002d8009a0200009a0200009a0200009a020000a6
:1002e8009a0200009a0200009a0200009a02000096
:1002f8009a0200009a0200009a0200009a02000086
:100308009a0200009a0200009a0200009a02000075
:100318009a0200009a0200009a0200009a02000065
:100328009a0200009a0200009a0200009a02000055
:100338009a0200009a0200009a0200009a02000045
:100348009a0200009a0200009a0200009a02000035
:100358009a0200009a0200009a0200009a02000025
:100368009a0200009a0200009a0200009a02000015
:100378009a0200009a0200009a0200009a02000005
:100388009a0200009a0200009a0200009a020000f5
:100398009a0200009a0200009a0200009a020000e5
:1003a8009a0200009a0200009a0200009a020000d5
:1003b8009a0200009a0200009a0200009a020000c5
:1003c8009a0200009a0200009a0200009a020000b5
:1003d8009a0200009a0200009a0200009a020000a5
:1003e8009a0200009a0200009a0200009a02000095
:0803f8009a0200009a020000c5
:020000040000fa
:100400006fca20000e7f22000e018800000000004d
:10041000000020000000e000020032000001200087
:10042000200288000c00070020d1240001002000d9
:1004300011000700000020000000e0000200320070
:1004400000000200000000005658020000000000fa
:100450000040da000000fe004440a900e05c2000fb
:100460000000e0000300320000002000a00188002e
:100470004440a80000000600910188008000780038
:100480000000eb0015003700e280400032a0b4000d
:100490009101ba00e280400032a0b4009102ba009b
:1004a000e280400032a0b4000002eb00472bde00e7
:1004b000f507b200602ce10004003a000059eb009f
:1004c0008301e900fdff3e00040037006128e100e0
:1004d000010032000082eb00040007001101ba00a5
:1004e0000200e000e8ff3a00000006003159ba00bf
:1004f0008301e9000c0032002159ba008301e900b0
:10050000080032000400e00003003a00e2804000ee
:1005100032a0b400f5ff370011d9ba008301e90019
:10052000faff3a008100e800e180400032a0b40008
:10053000000006000040da000000fe000a00fa0099
:10054000e20f500020003e0020658000e10f5000c7
:1005500006003200802320004523200023232000b2
:10056000042320000000e00004003a008022200064
:10057000452220002322200004222000060028001b
:100580001403630003003a00060878000000280006
:10059000140a700013a8a30001003a0013a0a000e1
:1005a00002007800050037001388a300feff320028
:1005b0003102fb00840a78000000e9000000e0003e
:1005c000f9ff3a000800370033002000b3bf9f0056
:1005d000c0bf9f00d1bf9f00e2bf9f006a8057004d
:1005e000940e07006fb99700020078000080fa00af
:1005f000000006008001780002003700b159780041
:100600000201e9000200e000fcff3a0000000600e1
:100610008001780002003700815978000201e9006a
:100620000200e000fcff3a00000006000c00fa00a7
:10063000889fbe0000047800f0ff2700d0bf9f0015
:100640008004eb0099bf9f0088bf9f00a8bf9f0058
:10065000200c2000b0bf9f0078815700cfb09700da
:1006600070805700480407000fb8970009487800c9
:100670008fb89700088050004f04be000080fa0039
:10068000000006000c00fa00889fbe0000047800fd
:10069000f0ff2700d0bf9f008004eb0099bf9f00b0
:1006a00088bf9f00a8bf9f00200c2000b0bf9f0004
:1006b00078815700cfb09700708057001000070076
:1006c0000fb89700094878008fb89700088050004d
:1006d0004f04be000080fa0000000600d001900028
:1006e000028151004240a90003003400100178004b
:1006f000014978000208e8000100780000000600c7
:100700002f02b000889fbe008a9fbe008c9fbe0053
:100710008e1f780080067800d1af9f0092b79f00af
:100720000007eb0044033700dfa897008100e800d2
:10073000d1af9f0051c2b300814f500003003a0077
:100740005fa897000006eb0011003700bd00900085
:100750000000fb000168a300070032000e017800d2
:10076000800078000d007800dcff07000000e0004a
:1007700005003a00300337008d007800ab0d07000c
:10078000e10f40002c0332000e07e8002a03370077
:100790008000780030417800d3c2b300834f51000d
:1007a0000c00320007003c00edc15100834f5100a6
:1007b0000a003200ebc14100834f51000d003a00a6
:1007c0000800370003c3b300834f510009003a000b
:1007d000060037000c30a000edff37000c00a00031
:1007e000ebff37000c10a000e9ff37000c20a00041
:1007f000e7ff37000c18a300010032000c00a10035
:100800000c38a300010032000c20a1000200fb0004
:100810000003b100e90f50000c003e000101780018
:100820000000eb006a00b900b201fb000303b10055
:1008300000804100820078009201fb000303b100b8
:10084000e98f5100f7ff3600080037000000eb0089
:10085000a3c2b300834f510004003a001fb19700b8
:100860004200780092b79f008100e8008001eb0011
:10087000a3b79f00e2c2b300914f11000c003a00f1
:100880000ce0a00064415100d14f11000300320080
:100890000101780003027800090037001fb29700b9
:1008a000c402780094b79f00a5b79f008100e800bc
:1008b00001017800090037006a22b9000482410072
:1008c00082007800b201fb000303b100e98f510000
:1008d000f9ff3600a4b79f00f5ff3700b24078005b
:1008e000d2af9f00c3c6b30083cf500025003200b3
:1008f0000f003c0032c6b30082cf5000a00032008f
:1009000004003c000104e000d00232006b415100c1
:100910000f00370042c6b30082cf500017003200ec
:100920006541410082cf5000b3003a001300370008
:1009300032c7b30082cf50001f00320007003c00d6
:100940006441510082cf5000140032000241e8009f
:1009500082cf5000a8003a001300370052c7b300fe
:1009600082cf5000ab0032006341410082cf500083
:10097000a1003a00a1d79f000d003700a1d79f002a
:10098000a6003700010120000c48a300010032003e
:10099000010028000c867000d0ff3700a1d79f000f
:1009a0000c60a0009d003700a1d79f000c50a00054
:1009b0000c70a00099003700a1d79f009fb397004b
:1009c000c700780097b79f00b1b79f000100e00013
:1009d00002003a00099d2000b9b79f003fb197007f
:1009e0008000eb00010037008100e800e2c17800e0
:1009f0000304e000fcff3a00c1b79f002fb5970049
:100a00000a00e00005003200cfb597008b0f5500bb
:100a1000020031008a007800c1b79f00cfb0970074
:100a20000004eb00810f500001003600010450006b
:100a3000680666002b003a00110037003d00900068
:100a40000068a300070032000e01780001022000b8
:100a50000d00780021ff07000000e00006003a00ca
:100a6000060037008d00780000022000ef0c070020
:100a7000e10f4000010032000e07e8000804e90021
:100a80000800e000edff3a000084eb00150037009d
:100a90003d0090000068a3000900320008007800c3
:100aa000b000fb00000478000e0178000d00780013
:100ab0000aff07000000e00008003a000f003700be
:100ac000880078003100fb00010478008d00780078
:100ad000d60c0700e10f4000080032000e07e800c6
:100ae00006003700acb79f00080678003fb49700b7
:100af000cfb497005fb59700efb597000900780075
:100b00008004e9000000e000e1ff3a00b8b79f0070
:100b1000c9b79f00dab79f00ebb79f000c047800bd
:100b20002fb697000c00e00043023200110037009e
:100b30003d0090000068a300070032000e0178001d
:100b4000010220000d007800e4fe07000000e00034
:100b500006003a00060037008d00780000022000f1
:100b6000b20c0700e10f4000010032000e07e80060
:100b70000804e9000800e000edff3a002e0237000b
:100b80009fb297004504780095b79f00cfc4de0060
:100b9000614db9000802be000a03be004822de0013
:100ba000c828dd0004827000a4d79f000c48a30071
:100bb000090032000404e00007003200e14f420067
:100bc00005003200b4d79f00c8d79f002200200044
:100bd000c2b79f0003003700b8d79f001300200062
:100be000c3b79f0024fd2f000f0242000402e8005b
:100bf000b4b79f0081ff3700a1d79f0025fd2f00cc
:100c000085824700b5b79f0016002000c6b79f0039
:100c10007aff3700a1d79f000c0cb3008c0078003e
:100c2000010cb20032003a000c00e00005003d006b
:100c30009fb097004105be004104be0091b79f00e0
:100c4000080037000c48a3000b0032001fb29700c9
:100c50004401be0094b79f000204be004fcdde00e9
:100c60008a057800b8b79f00c9b79f00dab79f0020
:100c7000ebb79f00090037009fb49700c9007800c8
:100c800099b79f00610ab900612bb900b4b79f0002
:100c9000c5b79f00d6b79f00e7b79f003fb4970046
:100ca000cfb497005fb59700efb59700e00f540001
:100cb000e08f5c00e00f5d00e08f5d0022003d00f2
:100cc0003c00b3006022b8006033b8000804520052
:100cd00089845a000a055b008b855b00b8b79f00ca
:100ce000c9b79f00dab79f00ebb79f001600370027
:100cf0000c00e00004003d001fb497004803be0054
:100d00004802be00050037000c48a3000500320071
:100d10001fb497004802be006033b80098b79f0028
:100d2000050037009fb49700c900780099b79f006d
:100d3000610ab8006033b800b4b79f00c5b79f0020
:100d4000d6b79f00e7b79f00afb297000500e0005d
:100d50000d003a0016002000a6b79f003fb4970090
:100d6000cfb497005fb59700efb59700e00f540040
:100d7000e08f5c00e00f5d00e08f5d00020032005c
:100d80008004eb00a9b79f000c0578000a0cb200a4
:100d90008ab79f0001042000810f55003400320003
:100da00003003c000a00e000080032004800370061
:100db000010820008fb59700818f55001400320084
:100dc000010c2000818f550041003a00029e200056
:100dd00011c0b3003202be003203be003fb4970020
:100de000cfb497005fb59700efb597000440e100de
:100df00005c8e10006d0e10007d8e1003300390062
:100e00008140e800f4cf5000f2ff3a002f00370095
:100e100011c0b30004012000050020006033b800b9
:100e20003fb49700cfb497005fb59700efb5970038
:100e30000440e10005c8e10006d0e10007d8e10068
:100e400022003900490020000402d0008582d2002f
:100e50000683d2008783d2008904e900faff3a00b2
:100e60008140e800f0cf5000edff3a001700370056
:100e700011c0b30084002000050020006033b800da
:100e80003fb49700cfb497005fb59700efb59700d8
:100e90000440e10005c8e10006d0e10007d8e10008
:100ea0000a003900390020000402d0008582d200f7
:100eb0000683d2008783d2008904e900faff3a0052
:100ec0008140e800f5cf5000edff3a00a1d79f0028
:100ed0002fd597008a00fb00afb597008b8f50008d
:100ee00002003d00abd79f00040037002fb19700f0
:100ef000810f510001003d00a1b79f000000e000fc
:100f000003003200e3006600010032000000e90047
:100f10000ce8a30006003200afb19700830f500029
:100f20000200340003005000010037000000eb0015
:100f30002fd297008400fb008002eb00f5af9f00ea
:100f4000810f50000200340081005000f1af9f007b
:100f50000c28a3003c003200610166000c18a300bd
:100f60000f0032003d0090000068a3000600320030
:100f7000b10220000200e000010032008180e800a0
:100f80000e0178000d003700b00220000200e000e2
:100f9000010032000080e8008d0078000e0037006c
:100fa0000200e000100032003d0090000068a30045
:100fb000070032000e017800010220000d007800c9
:100fc000c6fd07000000e00006003a0006003700fa
:100fd0008d00780000022000940b0700e10f400014
:100fe000010032000e07e8007fab97000600e0002a
:100ff00052003200060478003d0090000068a30013
:10100000070032000e017800010320000d00780077
:10101000b2fd07000000e00006003a0006003700bd
:101020008d00780000032000800b0700e10f4000d6
:10103000010032000e07e8000804e900eeff3a0064
:10104000f8af9f003d003700ffab97000700e000be
:10105000160032000c38a30014003a000704780090
:101060003d0090000068a300070032000e017800e8
:10107000010220000d00780098fd07000000e0004c
:1010800006003a00060037008d00780000022000bc
:10109000660b0700e10f4000010032000e07e80078
:1010a0000804e900eeff3a00f8af9f006101660016
:1010b0000c18a3000f0032003d0090000068a30050
:1010c00006003200b10220000200e0000100320000
:1010d0008180e8000e0178000d003700b00220008a
:1010e0000200e000010032000080e8008d0078007e
:1010f0000e0037000200e000100032003d009000ba
:101100000068a300070032000e01780001022000f1
:101110000d00780071fd07000000e00006003a00b5
:10112000060037008d007800000220003f0b07000a
:10113000e10f4000010032000e07e8002fb49700d5
:101140000800e900c204dd00c9af9f006301b900d7
:1011500002057800baaf9f004300dd00819d2000aa
:1011600081004000e1af9f0098003700afb59700c5
:101170008b05e900abb79f00000420008fb09700fb
:10118000808f50006800320003003c000100e00046
:101190000800320073003700000820000fb19700ec
:1011a000800f51004c003200000c2000800f5100d5
:1011b0006c003a000c00e0001e003d00efa9970013
:1011c0003304be002305be000802be000a03be00b1
:1011d0003fb09700cfb097005fb19700efb1970095
:1011e000bc0e0700a0d79f000000fb00cf80de00f0
:1011f0006109b9000802be000a03be001e0f070005
:101200003fb29700cfb297005fb39700efb397005c
:101210000002520081825a0002035b0083835b005c
:10122000b4b79f00c5b79f00d6b79f00e7b79f0030
:10123000250037000c48a3001a0032003fb2970087
:10124000cfb297006fab97003604be002605be00f4
:101250000801be000400be00f4b79f0085bf9f00d8
:10126000ed0d0700a0d79f000000fb00cf80de003f
:101270000801be00f80d07007fb297008fba9700f3
:101280000002520081825a000404be006055b8007a
:10129000b8b79f00c9b79f00dab79f00ebb79f00b0
:1012a00009003700efac9700190178003fb59700af
:1012b000110009000285d800a200200011000900d9
:1012c0000280d800a1d79f00afd597000b43b00094
:1012d000abd79f0023003700f09b20000c58a300e1
:1012e00001003200e09a20003fb29700cfb2970091
:1012f0005fb39700efb39700cfa897008100e90094
:10130000050033008703d1000683d3008582d30014
:101310000482d300f9ff37006f02620060427a0056
:10132000a4d79f000f0037003fb09700cfb09700c1
:101330005fb19700efb197003faa97000402e90060
:10134000050033008301d1000281d3008180d300e6
:101350000080d300f9ff3700674060000043b00011
:10136000a0d79f00bd009000afd297000500fb0002
:101370000168a300070032000e01780080007800a9
:101380000d007800d5fc07000000e00005003a00e1
:10139000050037008d007800a40a0700e10f400027
:1013a000010032000e07e8004fab970064035300c2
:1013b000c6af9f00bfab9700e3835300b7af9f005a
:1013c0006fac970068045400e8af9f00afb497007b
:1013d0000900e00065ff3a000c38a3001600320057
:1013e0007fad97000a00e000130034000a04780083
:1013f0003d0090000068a300070032000e01780055
:10140000010220000d007800b4fc07000000e0009d
:1014100006003a00060037008d0078000002200028
:10142000820a0700e10f4000010032000e07e800c9
:101430000804e900eeff3a00dfad97001b4078009a
:10144000a0d79f000004e000b7fc3a000e0078002f
:101450004f0778004f06be004f05be004f04be0088
:101460002f02b100000006000800fa00889fbe00ad
:101470008a9fbe000084fb00d1c6b300814f50009c
:10148000340036004b062000110009000b84d80000
:1014900081057800720040004300dd00e98f2000e4
:1014a000008044006022b8000600200007fe2300f0
:1014b0005001be004000be00e00c07000002be006c
:1014c0000203be0084bf9f0095bf9f00a6bf9f0080
:1014d000b7bf9f00aa002000110009008a85d8002c
:1014e00080057800e9854500c35ddd008b854400fb
:1014f0003b02be002b03be000fb897009fb89700b9
:101500002fb99700bfb99700cc0c07000002be00ae
:101510000203be0084bf9f0095bf9f00a6bf9f002f
:10152000b7bf9f00110009000a84d80001047800a9
:101530004344dd00888444003902be002903be0014
:101540000fb897009fb897002fb99700bfb99700c1
:101550001d003700ea4f500013003600aa0020009b
:10156000110009000a84d8000105780069044000d0
:101570004344dd00e98f2000088444006022b80065
:101580000600200007fe23003800be002801be0030
:10159000aa0c07004355dd008a8444003902be00ce
:1015a0002903be00080037004344dd00e08f20001f
:1015b000080440006022b8000600200007fe230057
:1015c0003800be002801be009c0c07004f05be007d
:1015d0004f04be000080fa00000006000800fa0078
:1015e000889fbe008a9fbe00d1c6b3000004e00001
:1015f00023003d000040ea000004fb00814f500042
:101600000a00340042062000110009000204d8003c
:10161000a9002000110009008900d800e90040005d
:10162000c308dd00ea8f200021003700ea4f500098
:1016300010003400a2002000110009000204d800ac
:1016400001017800690040004300dd00e18f2000c7
:10165000008040004311dd00828040003102be0066
:101660002103be005001be004000be00730c070005
:10167000380037004344dd00e08f2000320037009f
:101680000004fb00814f500023003400420620007c
:10169000110009000204d800a9002000110009006f
:1016a0008900d800e9004000c308dd00ea8420007a
:1016b000810045003102be002103be008b092000dd
:1016c0008a8545003b00be002b01be005b0c070075
:1016d0000002be000203be0084bf9f0095bf9f00b2
:1016e000a6bf9f00b7bf9f00110009000904d800e2
:1016f000010478004344dd00080545003a02be00bd
:101700002a03be000fb897009fb897002fb9970023
:10171000bfb99700d5ff3700ea4f500008003400ea
:10172000a2002000110009000204d8000101780085
:10173000690040004300dd00e1842000c4ff370061
:101740004344dd00e0842000080440003800be006f
:101750002801be004f05be004f04be000080fa0005
:1017600000000600d0019000028151004240a90013
:101770000300340010017800014978000208e800f5
:101780000100780000000600cf03b000889fbe0073
:101790008a9fbe008c9fbe008e1f780000067800d6
:1017a00091a79f00a2af9f006000b8006011b80031
:1017b000a0a79f00b1a79f00c2a79f00d3a79f002b
:1017c0008006eb008d0937009fa097008100e8009c
:1017d00091a79f0051c2b300814f500003003a000f
:1017e0001fa197000007eb0011003700bc0090001c
:1017f0000000fb000168a300070032000d01780023
:10180000800078000c007800d6ff07000000e000a0
:1018100005003a00790937008c0078008309070039
:10182000e10f4000750932008d06e80073093700aa
:1018300002007800b2407800b3c2b30083cf5000fa
:101840001300320007003c00ebc1510083cf500071
:101850000d003200e3c1410083cf500012003a0076
:101860000d003700d3c2b30083cf50000400320014
:10187000e3c1410083cf50000b003a00080037005d
:101880000e30a000eaff37000e00a000e8ff37008e
:101890000e10a000e6ff37000eb0a000e4ff3700f6
:1018a0000e20a000e2ff37000e18a3000100320056
:1018b0000e00a1000e38a300010032000e20a1008e
:1018c0000101fb000203b100e90f51000e003e00d0
:1018d000800078000001eb0082b79f006a11b90018
:1018e0003100fb000003b10002014000010078005c
:1018f0009101fb000303b100e98f5100f7ff3600af
:1019000082b79f000a0037008001eb0083b79f0079
:10191000a2c2b30082cf500005003a002faa970060
:10192000c4027800a4af9f0085b79f000000e800c4
:10193000e1c2b30090cf100017003a000ee0a00003
:10194000e4c05000d0cf10000300320080007800c7
:101950008001eb0009003700afab97004704780027
:10196000a7af9f00f8af9f000000e800800078005c
:101970000d0037006a1ab9008401410001007800a7
:101980003101fb000203b100e90f5100f9ff3600fd
:10199000f3af9f00f5ff37000ec0a0008004eb00fe
:1019a000f9af9f00f1ff37003140780091a79f0009
:1019b00072c6b300824f50003200320017003c0064
:1019c00031c6b300814f5000c20032000e003c000f
:1019d000fcc05000814f50003d00320006003c002a
:1019e0000004e0000a09320081c0e900814f500084
:1019f000d6003a003200370081c5b300814f500055
:101a0000d2003a003900370051c6b300814f500070
:101a10001e00320027003c001e00370002c7b30042
:101a2000824f5000310032000a003c0064415100f6
:101a3000824f500019003200f1c6b300814f5000b0
:101a400027003200e6c05000814f5000bf003a002e
:101a50001000370051c7b300814f5000c200320060
:101a6000e3c04000814f500004003200e5c0500048
:101a7000814f5000b5003a0020003700807f9f0062
:101a80001c003700807f9f0013003700807f9f007d
:101a90000d003700807f9f00b50037000001200057
:101aa0000e48a30001003200000028000e0770005d
:101ab000bdff3700807f9f000ea0a000ac00370064
:101ac000807f9f000e50a0000e80a000a80037006d
:101ad000807f9f000e50a0000e90a000a400370051
:101ae000807f9f000e60a000a1003700807f9f00d4
:101af0000e50a0000e70a0009d003700807f9f0058
:101b0000afad97004b007800abaf9f0090b79f0040
:101b10000000e00002003a00a2a9200092b79f0056
:101b20009fb097000000eb00010037000000e800c4
:101b3000614178000204e000fcff3a00a0b79f007a
:101b4000ffa997000300e000050032002fb29700c4
:101b5000848f51000200310083027800a5b79f00f6
:101b60002fb097000004eb000fb39700800f5300d5
:101b70000100360000045300680767002d003a009a
:101b8000110037003c0090000068a30007003200fd
:101b90000d017800010220000c007800f1fe070022
:101ba0000000e00006003a00060037008c007800d4
:101bb000000220009d080700e10f400001003200f4
:101bc0008d06e8000804e9000800e000edff3a0097
:101bd0000084eb008e037800f7af9f0017003700fa
:101be0003c0090000068a300090032000800780063
:101bf000b000fb00000478000d0178000c007800b4
:101c0000d8fe07000000e00008003a00100037008e
:101c1000880078003100fb00010478008c00780017
:101c200082080700e10f4000090032008d06e8003d
:101c3000070037008e047800f9af9f00080778008e
:101c40001fb49700afb497003fb59700cfb597008a
:101c5000090078008004e9000000e000e0ff3a009d
:101c600098b79f00a9b79f00bab79f00cbb79f0056
:101c70000e0478007faf97000e00e0005f0832008e
:101c8000110037003c0090000068a30007003200fc
:101c90000d017800010220000c007800b1fe070061
:101ca0000000e00006003a00060037008c007800d3
:101cb000000220005d080700e10f40000100320033
:101cc0008d06e8000804e9000800e000edff3a0096
:101cd0004a083700afa8970041047800a1af9f00e1
:101ce000cfc4de00614db9000802be000a03be0089
:101cf0004822de004829dd0004027100847f9f0035
:101d00000e48a300090032000404e000070032007e
:101d1000e14f420005003200947f9f00a87f9f00a2
:101d200023002000a3b79f0003003700987f9f0087
:101d300014002000a4b79f0085fb2f008f82420073
:101d40008502e80095b79f007dff3700807f9f00e8
:101d500086fb2f000683470096b79f0017002000e0
:101d6000a7b79f0076ff3700807f9f000e0cb3005f
:101d70000070200000006700990532000ec8a30023
:101d80000200320068002000f8af9f000e48a30058
:101d9000050032002fa897004005be004004be0099
:101da000a0af9f00060037002fa997004200be0099
:101db000a2af9f00cc0907000004be000205be00d0
:101dc0006022b8006033b8000800be000a01be00ff
:101dd000170907000000e00002003d000bf0a20020
:101de0003e00b3000000eb00e09f9f006022b800bf
:101df0006033b8000800be000a01be007009070089
:101e00000000e00033003200c4fb2f000f0242004c
:101e10000800be000a01be00560a07006f9897002e
:101e20000000e9006302b900a200200011000900cf
:101e30000202d800e09f9f000000e00002003d0089
:101e40000000e900e09f9f006f99970092b79f0004
:101e50000240ea00e1fd07000802be000a03be00de
:101e6000760a07000002be000203be00a4a79f007e
:101e7000b5a79f00c6a79f00d7a79f006022b80004
:101e80000600200007ff2300e90807000000e0002b
:101e900003003d009fb297000500e9000c003700e9
:101ea0006022b80006002000470224002fa09700ff
:101eb000bfa097004fa19700dfa19700e10807009e
:101ec0000000e000030035001fb397000600e800a3
:101ed000e09f9f00ef9b970097b79f000e88a3009d
:101ee00008003a000e98a30018033200070078009b
:101ef000e40f400003003500ffa89700810f500059
:101f00009d0235007fa997000200e0000400320026
:101f10000e98a300020032000201e900f2af9f0018
:101f2000ffa99700f28f51000300360020c1b300d3
:101f3000807f9f00020037006fda9700847f9f0048
:101f40006022b8006033b8000800be000a01be007d
:101f50001b0907000000e000660032008f7a97003e
:101f6000e5d79f002fe39700054053009bfd070036
:101f70000002be000203be000800be000a01be004f
:101f8000b50807000004be000205be00a609070050
:101f9000f60907000002be000203be000800be00f2
:101fa0000a01be009a0a07006022b800060020005d
:101fb00007fe2300a30807000000e000080035002a
:101fc0006022b8000600200007fe23000800be00c3
:101fd0000a01be00190807000004be000205be0089
:101fe0000800be000a01be008f0907000002be0003
:101ff0006033b800e4a79f00f5a79f0086af9f005d
:1020000097af9f00efd297008502fb0085a79f0046
:102010000500e8004300dd0026aa2000000243007e
:102020003400be002401be00b0af9f00c1af9f00ce
:10203000d2af9f00e3af9f006fa29700ffa297006f
:102040000fab97009fab97000020e10001a8e100d3
:1020500002b0e10003b8e1000c00390004002000e8
:1020600005002a009699290097fb23000800be006e
:102070000a01be00f10907000004be000205be000f
:102080009fb297000500e800190037000fa39700e2
:102090004332dd0027aa2000048243003400be0042
:1020a0002401be006fa29700ffa297000fab97001c
:1020b0009fab97000020e10001a8e10002b0e10021
:1020c00003b8e1000b0031006022b80006002000d8
:1020d000470224000800be000a01be00d70907001d
:1020e0000004be000205be009fb297000500e90093
:1020f000e09f9f0001a020008100670000202000d9
:10210000808f50003d003a007fab9700f40f5300e2
:102110000200340047012000f7af9f000800be0016
:102120000a01be00400907006011b8000802be00a5
:102130000a03be0094b79f00a5b79f00b6b79f00e3
:10214000c7b79f0009003700ffaa97008502e90082
:10215000f5af9f00a4002000050020006033b80008
:102160000800be000a01be00da0a07000205be0030
:102170000004be00e00f5000e08f5800e00f59004f
:10218000e08f590009003200a40020000500200063
:102190006033b800d60a0700e00f5000e08f580007
:1021a000e00f5900e08f5900e7ff32001fb497009d
:1021b000afb497003fb59700cfb597000f78970061
:1021c0008000fb007fab9700810f53000b003d00a8
:1021d0000640500001fd07000002be000203be00e1
:1021e0000800be000a01be001b0807000004be0074
:1021f0000205be00efdb9700877f9f008fb097003e
:10220000658050007fa997000200500080b79f00b2
:102210000200e00002003a000eb8a3000300320002
:102220008fb197008301e90083b79f0063006700c7
:10223000030032000fb297000402e90084b79f0048
:102240000e28a3004f0032003c009000610167009f
:102250000e18a3000e0032000068a3000600320032
:10226000b10220000200e000010032008180e8009d
:102270000d0178000c003700b00220000200e000e1
:10228000010032000080e8008c0078000d0037006b
:102290000200e000320032000068a30007003200b4
:1022a0000d017800010220000c0078002dfd0700d0
:1022b0000000e00006003a00290037008c0078009a
:1022c00000022000d9060700e10f40002400320080
:1022d0008d06e800220037003c0090000068a30053
:1022e0000f0032000d017800010320000c0078007f
:1022f000f4b79f0085bf9f00d6b79f00e7b79f0048
:1023000018fd07007fb297008fba97005fb3970060
:10231000efb397000000e0000e003a000e00370017
:102320008c00780000032000f4b79f0085bf9f0059
:10233000d6b79f00e7b79f00bc0607007fb29700a3
:102340008fba97005fb39700efb39700e10f40009b
:10235000010032008d06e8008904e900030037001f
:102360000802be000a03be008fb497000900e00017
:10237000d9ff3c0089b79f000404be000605be00db
:10238000450037000e38a30020003a000800be00c8
:102390000a01be0090b79f00a1b79f00b2b79f008f
:1023a000c3b79f008fb49700110037003c00900026
:1023b0000068a300070032000d0178000102200030
:1023c0000c007800e7fc07000000e00006003a007f
:1023d000060037008c0078000002200093060700fa
:1023e000e10f4000010032008d06e8008904e90099
:1023f0000900e000edff3c0089b79f001fb4970083
:10240000afb497003fb59700cfb597003c00900060
:10241000610167000e18a3000e0032000068a300df
:1024200006003200b10220000200e000010032008c
:102430008180e8000d0178000c003700b002200018
:102440000200e000010032000080e8008c0078000b
:102450000d0037000200e0000f0032000068a3000a
:10246000070032000d017800010220000c00780006
:10247000bcfc07000000e00006003a000600370040
:102480008c0078000002200068060700e10f400081
:10249000010032008d06e8000800be000a01be00ff
:1024a000610807000002be006033b80094b79f00c7
:1024b000a5b79f00b6b79f00c7b79f003c0190002b
:1024c00020aa20008f7a97008500fb000268a300f5
:1024d00011003200c308dd00810040003102be005f
:1024e0002103be001fb09700afb097003fb1970027
:1024f000cfb19700f70907000003b0000d01780085
:10250000800078000c00780096fc07000000e000d6
:102510000f003a000f003700c308dd0081004000c3
:102520003102be002103be001fb09700afb097007c
:102530003fb19700cfb19700e60907000003b00054
:102540008c00780039060700e10f400001003200de
:102550008d06e8000f7b97000600fb004300dd00be
:1025600021aa2000008040003002be002003be00ef
:102570001fb09700afb097003fb19700cfb1970061
:10258000db09070090b79f00a1b79f00b2b79f007b
:10259000c3b79f00ffac97000900e00002003a00bb
:1025a0000eb8a300740032003c0090000068a30045
:1025b000070032000d017800e10220000c007800d5
:1025c00068fc07000000e00006003a000600370043
:1025d0008c007800e002200014060700e10f4000a4
:1025e000010032008d06e8000f7c9700e8d79f00bd
:1025f0001fb49700afb497003fb59700cfb59700d1
:102600003c0037000e98a3000d003200e00f54008c
:10261000e08f5c00e00f5d00e08f5d0008003a0095
:1026200098b79f00a9b79f00bab79f00cbb79f008c
:102630008040eb00817f9f000004eb004c003700de
:102640003c01900021aa20000000fb000268a300ca
:102650000f0032004300dd00008040003002be0069
:102660002003be000800be000a01be009909070051
:102670000003b0000d017800800078000c007800a5
:1026800038fc07000000e0000d003a000d003700a4
:102690004300dd00008040003002be002003be0089
:1026a0000800be000a01be008a0907000003b0004e
:1026b0008c007800dd050700e10f400001003200ca
:1026c0008d06e8000f7997000200fb004300dd0053
:1026d00021aa2000008040003002be002003be007e
:1026e0000800be000a01be00810907000205be0005
:1026f0000004be008f7897000140e900807f9f00b2
:102700000104e000bfff3a0098b79f00a9b79f00ff
:10271000bab79f00cbb79f006fd497000804fb00a7
:10272000ffaa970008845200110037003c00900077
:102730000068a300070032000d01780001032000ab
:102740000c00780007fc07000000e00006003a00db
:10275000060037008c00780000032000b305070056
:10276000e10f4000010032008d06e8000804e90096
:102770000800e000edff3a003c0090000e58a30076
:10278000080032000068a300030032000d01780049
:1027900051042000070037008c007800500420000e
:1027a0000b0037000068a300070032000d0178001d
:1027b000510620000c007800eafb07000000e00052
:1027c00006003a00060037008c0078005006200012
:1027d00096050700e10f4000010032008d06e80079
:1027e000ef9897003c0090000100e0000a003d00d7
:1027f0008100ea00e19f9f000068a300030032000f
:102800000d017800d1022000070037008c0078000d
:10281000d00220000b0037000068a3000700320040
:102820000d017800b10220000c007800cdfb0700fc
:102830000000e00006003a00060037008c00780037
:10284000b002200079050700e10f400001003200ce
:102850008d06e800bc0090006f9897000168a30007
:102860000b003200a2002000110009000200d80075
:1028700001032000808040000d0178000c007800ea
:10288000b8fb07000000e00009003a00090037002b
:10289000a2002000110009000200d8000003b000cf
:1028a0008c00780061050700e10f40000100320054
:1028b0008d06e800bc0090006f9897000168a300a7
:1028c0000a003200a2002000110009000200d80016
:1028d0000103b0000d0178000c007800a1fb070097
:1028e0000000e0000a003a000a003700a2002000c1
:1028f000110009000200d800000320000100400080
:102900008c00780049050700e10f4000010032000b
:102910008d06e8000e38a300380532000fb397008b
:102920000600e00035053400060478003c00900005
:102930000068a300070032000d01780001022000aa
:102940000c00780087fb07000000e00006003a005a
:10295000060037008c0078000002200033050700d5
:10296000e10f4000010032008d06e8000804e90094
:10297000eeff3a00210537009fb397000700e00003
:1029800004003d000780ea00ffa897008080400017
:10299000f1af9f000800be000a01be00f10607006b
:1029a00090b79f00a1b79f00b2b79f00c3b79f0029
:1029b00025aa20000042eb000800be000a01be006c
:1029c000b0af9f00c1af9f00d2af9f00e3af9f00a9
:1029d0000c0037003500be003501be001fb4970063
:1029e000afb497003fb59700cfb597000040e10026
:1029f00001c8e10002d0e10003d8e1000300390082
:102a00000442e800f44f5200f2ff3a003fac970056
:102a1000cfac97005fad9700efad97000400fb00cf
:102a2000ffa8970080805000f1af9f00f88f500002
:102a300009003c00014078008bfa07000002be004c
:102a40000203be000800be000a01be007b050700ad
:102a50000004be000205be006fd89700dffa070031
:102a60000002be000203be00b4af9f00c5af9f00ce
:102a7000d6af9f00e7af9f001fb09700afb09700a1
:102a80003fb19700cfb197000d0707000002be00cd
:102a90000203be000800be000a01be00dc070700fa
:102aa0000002be000203be003fa89700cfa8970017
:102ab0005fa99700efa9970060070700a906070024
:102ac0000802be000a03be0094b79f00a5b79f008e
:102ad000b6b79f00c7b79f000205be000004be0046
:102ae0000b003700a4002000050020006033b80070
:102af0000800be000a01be00760807000205be00fd
:102b00000004be00ffaa97008502e900f5af9f0010
:102b10007fab97000600e00019003200a4002000ff
:102b2000050020006033b8000800be000a01be00a6
:102b30006f080700e00f5000e08f5800e00f5900c9
:102b4000e08f5900e7ff32000d003700ffab970020
:102b5000f88f53000e003c000740780042fa07004f
:102b60000002be000203be000800be000a01be0053
:102b7000320507000004be000205be000400370055
:102b80001fb49700afb497003fb59700cfb597003b
:102b90006f98970090b79f00e90f500012003c001b
:102ba0006022b8006033b8000800be000a01be0011
:102bb000030607000000e0002f0032000800be00fe
:102bc0000a01be0067060700e00f5000e08f5800c2
:102bd000e00f5900e08f590027003a009fb097009e
:102be000e18f5000240034000400200005002e0076
:102bf000b6e02200170124002fa09700bfa0970085
:102c00004fa19700dfa19700890507000000e000b1
:102c100003003d001fb19700730051000200370010
:102c20009fb1970072805100e09f9f004f789700fe
:102c30006afa07000002be000203be00a4a79f00bc
:102c4000b5a79f00c6a79f00d7a79f000800be009a
:102c50000a01be00800507004206070090b79f00ea
:102c6000a1b79f00b2b79f00c3b79f006044b800f0
:102c70006055b800110037000800be000a01be0010
:102c80003806070090b79f00a1b79f00b2b79f001a
:102c9000c3b79f008a0607000002be000203be0001
:102ca0000800be000a01be00590707000004be006c
:102cb0000205be000000eb00e09f9f00a5aa2000d7
:102cc00014c0b3000800be000a01be00e0a79f00c8
:102cd000f1a79f0082af9f0093af9f0010003700c5
:102ce0003504be003505be00b8af9f00c9af9f00d8
:102cf000daaf9f00ebaf9f001fb09700afb0970017
:102d00003fb19700cfb197000800e1000988e100ca
:102d10000a90e1000b98e100030039000442e8004a
:102d2000f44f5200eeff3a006fa49700ffa4970003
:102d30000fad97009fad9700847f9f006f9897001d
:102d40008fb09700008050007fa99700820050004c
:102d50000400fb000080500080b79f00008020002e
:102d600000006700e0a79f0002003a000200e000b8
:102d7000030032008fb197008301e90083b79f0001
:102d800063006700030032000fb297000402e900fd
:102d900084b79f000e28a300500032006101670035
:102da0000e18a3000f0032003c0090000068a30042
:102db00006003200b10220000200e00001003200f3
:102dc0008180e8000d0178000d003700b00220007e
:102dd0000200e000010032000080e8008c00780072
:102de0000e0037000200e000330032003c0090008b
:102df0000068a300070032000d01780001022000e6
:102e00000c00780057fa07000000e00006003a00c6
:102e1000290037008c00780000022000030407001e
:102e2000e10f4000240032008d06e8002200370048
:102e30003c0090000068a3000f0032000d017800f4
:102e4000010320000c007800f4b79f0085bf9f00ad
:102e5000d6b79f00e7b79f0042fa07007fb29700fe
:102e60008fba97005fb39700efb397000000e000c0
:102e70000e003a000e0037008c007800000320009e
:102e8000f4b79f0085bf9f00d6b79f00e7b79f00ac
:102e9000e60307007fb297008fba97005fb39700f1
:102ea000efb39700e10f4000010032008d06e8000b
:102eb0008904e900030037000802be000a03be00cf
:102ec0008fb497000900e000d9ff3c0089b79f004c
:102ed0000404be000605be007a0037000e38a300c9
:102ee00020003a000802be000a03be00b4af9f00f3
:102ef000c5af9f00d6af9f00e7af9f008fb497008c
:102f0000110037003c0090000068a3000700320069
:102f10000d017800010220000c00780011fa070072
:102f20000000e00006003a00060037008c00780040
:102f300000022000bd030700e10f40000100320045
:102f40008d06e8008904e9000900e000edff3c007f
:102f500089b79f003fac9700cfac97005fad97005b
:102f6000efad9700610167000e18a3000f0032005b
:102f70003c0090000068a30006003200b10220006f
:102f80000200e000010032008180e8000d017800bd
:102f90000d003700b00220000200e0000100320006
:102fa0000080e8008c0078000e0037000200e0008e
:102fb0003d0032003c0090000068a3000700320092
:102fc0000d017800010220000c007800e5f90700ef
:102fd0000000e00006003a003a0037008c0078005c
:102fe0000002200091030700e10f4000350032008d
:102ff0008d06e8002c0037003c01900020aa20003c
:103000008100fb000268a30013003200c308dd004a
:10301000010040003002be002003be000800be00d8
:103020000a01be002b070700a400200005002000b5
:103030006033b8002e0707000103200080804000a5
:103040000d0178000c007800c6f907000000e000d0
:1030500013003a0025003700c308dd0001004000de
:103060003002be002003be000800be000a01be0000
:1030700018070700a4002000050020006033b800f6
:103080001b07070002032000000141008c007800ac
:103090000200780065030700e10f400013003200d2
:1030a0008d06e800110037000802be000a03be00ca
:1030b000b4af9f00c5af9f00d6af9f00e7af9f00a2
:1030c000060037000800be000a01be00b0af9f0036
:1030d000c1af9f00d2af9f00e3af9f001fb4970026
:1030e000afb497003fb59700cfb597000f78970022
:1030f0008040e900817f9f000004e000beff3a00ad
:103100003fac9700cfac97005fad9700efad970055
:10311000130037003c0090000068a3000700320055
:103120000d017800010320000c0078008df90700e4
:103130000000e00006003a00060037008c0078002e
:103140000003200039030700e10f400001003200b6
:103150008d06e8006f9897000000e900e09f9f004f
:103160006f9897000000e000eaff3c00ffa897007e
:10317000f28f50000300340020c1b300807f9f0015
:10318000020037006fd99700827f9f000f78970069
:103190008000fb00ffa9970081805100f1af9f00e4
:1031a0000004e00003003a006fa297000400e00072
:1031b000100032003c0090000068a30007003200bd
:1031c0000d017800e10220000c00780065f907008d
:1031d0000000e00006003a00060037008c0078008e
:1031e000e002200011030700e10f4000010032005f
:1031f0008d06e8000f789700f8f807000002be007f
:103200000203be000800be000a01be008b050700d5
:10321000d40407000205be000004be0090b79f0062
:10322000a1b79f00b2b79f00c3b79f00350037001a
:103230003c01900021aa20000000fb000268a300ce
:10324000130032004300dd00008040003002be0069
:103250002003be000800be000a01be009d06070054
:10326000a4002000050020006033b800a00607007d
:103270000003b0000d017800800078000c00780099
:1032800038f907000000e00011003a001100370093
:103290004300dd00008040003002be002003be007d
:1032a0000800be000a01be008a060700a400200034
:1032b000050020006033b8008d0607000003b00051
:1032c0008c007800d9020700e10f400001003200b5
:1032d0008d06e8008f7897000100fb004300dd00b9
:1032e00021aa2000008040003002be002003be0062
:1032f0000800be000a01be007d0607000205be00f0
:103300000004be008f7897000140e900807f9f0095
:103310000104e000c6ff3a0098b79f00a9b79f00dc
:10332000bab79f00cbb79f007fac97001100370062
:103330003c0090000068a300070032000d017800f7
:10334000010320000c00780006f907000000e000ef
:1033500006003a00060037008c00780000032000c9
:10336000b2020700e10f4000010032008d06e800c4
:103370000804e9000800e000edff3a000e38a30061
:103380009e0232008fb297000500e0009b023400dd
:10339000050478003c0090000068a300070032009c
:1033a0000d017800010220000c007800edf8070004
:1033b0000000e00006003a00060037008c007800ac
:1033c0000002200099020700e10f400001003200d6
:1033d0008d06e8000804e900eeff3a008702370096
:1033e0000e007800000cb20032003a000e00e0003f
:1033f00005003d002fa897004005be004004be0018
:10340000a0af9f00120037000e48a3000b0032004f
:103410002fa997004200be00a2af9f000002be008d
:103420004fabde008603780094b79f00a5b79f00de
:10343000b6b79f00c7b79f0009003700afaa970033
:1034400045007800a5af9f006104b900614db90047
:1034500098b79f00a9b79f00bab79f00cbb79f004e
:103460001fb09700afb097003fb19700cfb1970062
:10347000e00f5000e08f5800e00f5900e08f590036
:1034800027003d003e00b3006000b8006011b800a6
:103490001fb29700afb297003fb39700cfb397002a
:1034a00004025000858258000603590087835900a2
:1034b000170037000e00e00009003d002fa897001c
:1034c0004005be004004be00a0af9f0098b79f001b
:1034d000a9b79f00bab79f00cbb79f001000370075
:1034e0000e48a300050032002fac97004802be0032
:1034f0006033b800a8af9f0005003700afac97005d
:1035000049007800a9af9f006102b8006033b8009d
:1035100094b79f00a5b79f00b6b79f00c7b79f009d
:10352000ffaa97000500e0000d003a0016002000f9
:10353000f6af9f001fb49700afb497003fb5970058
:10354000cfb59700e00f5400e08f5c00e00f5d0006
:10355000e08f5d00020032008004eb00f9af9f00b5
:103560000e0578000a0cb200baaf9f0000042000dc
:10357000800f55003400320003003c000a00e000d8
:10358000080032004800370000082000bfad970057
:10359000808f550014003200000c2000808f5500f1
:1035a00041003a00a5aa200014c0b3003500be00b7
:1035b0003501be001fb49700afb497003fb5970028
:1035c000cfb597000040e10001c8e10002d0e10062
:1035d00003d8e100330039000442e800f44f520000
:1035e000f2ff3a002f00370014c0b30000012000a2
:1035f000010020006011b8001fb49700afb497001d
:103600003fb59700cfb597000040e10001c8e10049
:1036100002d0e10003d8e100220039004900200077
:103620000000d0008180d2000281d2008381d200cc
:103630008904e900faff3a000442e800f04f520022
:10364000edff3a001700370014c0b30080002000df
:10365000010020006011b8001fb49700afb49700bc
:103660003fb59700cfb597000040e10001c8e100e9
:1036700002d0e10003d8e1000a003900390020003f
:103680000000d0008180d2000281d2008381d2006c
:103690008904e900faff3a000442e800f54f5200bd
:1036a000edff3a00847f9f000f7d97000a00fb002a
:1036b000ffad97008b0f500002003d008b7f9f00f5
:1036c00004003700ffa89700808f500001003d00e4
:1036d000f0af9f000fb197000200e000040032003d
:1036e00063006700020032000201e90082b79f0018
:1036f0000ee8a300090032008fb197007faa97005f
:10370000848f5100030034008481510083b79f00ef
:10371000020037008002eb0085b79f00418c20003b
:103720008100670000842000808f500006003a006e
:103730000fb397000600e000100032000603e90016
:1037400086b79f000d003700018c200081006700c4
:1037500000882000808f500008003a008fb3970047
:10376000e28f5300030034008783e90087b79f008e
:10377000020037000004eb0088b79f008f7c9700a1
:103780000900fb000005eb00eaa79f008fb597003a
:10379000808f55000200340000805500e0a79f0094
:1037a0000e28a30060003200610167000e18a3001c
:1037b0000d0032003c0090000068a30005003200bc
:1037c000b10220000200e000300032008180e800f9
:1037d0002e003700b00220000200e0003500320069
:1037e0000080e800330037000200e00009003200ea
:1037f0003c0090000068a300030032000d01780037
:1038000001022000220037008c0078000002200016
:1038100029003700018c200081006700008820000b
:10382000808f500028003a003c0090000068a30000
:10383000070032000d017800010320000c00780021
:10384000c8f707000000e00006003a000600370055
:103850008c0078000003200074010700e10f400095
:10386000010032008d06e8003c0090000e01780057
:103870000202b2000068a3000a00320081072000a3
:103880000200e00001003200810520000d017800f7
:103890000c007800b3f707000000e00009003a00d0
:1038a00009003700800720000200e000010032001c
:1038b000800520008c0078005c010700e10f4000cb
:1038c000010032008d06e8006fa097000000e000c4
:1038d0008b003200000478003c0090000068a300d8
:1038e000070032000d017800010320000c00780071
:1038f0009cf707000000e00006003a0006003700d1
:103900008c0078000003200048010700e10f400010
:10391000010032008d06e8000804e900eeff3a00dd
:10392000e8a79f0076003700efa097000100e000b5
:10393000160032000e38a30014003a00010478008b
:103940003c0090000068a300070032000d017800e1
:10395000010220000c00780082f707000000e00060
:1039600006003a00060037008c00780000022000b4
:103970002e010700e10f4000010032008d06e80033
:103980000804e900eeff3a00e8a79f006101670024
:103990000e18a3000f0032003c0090000068a30046
:1039a00006003200b10220000200e00001003200f7
:1039b0008180e8000d0178000d003700b002200082
:1039c0000200e000010032000080e8008c00780076
:1039d0000e0037000200e000100032003c009000b2
:1039e0000068a300070032000d01780001022000ea
:1039f0000c0078005bf707000000e00006003a00ca
:103a0000060037008c007800000220000701070044
:103a1000e10f4000010032008d06e800008c20001c
:103a20000000670001842000810f500009003a0067
:103a30003c0090000068a300030032000d017800f4
:103a400001032000200037008c00780000032000d4
:103a50002700370001882000810f500028003a001d
:103a60003c0090000068a300070032000d017800c0
:103a7000010320000c0078003af707000000e00086
:103a800006003a00060037008c0078000003200092
:103a9000e6000700e10f4000010032008d06e8005b
:103aa0003c0090000e0178000202b2000068a30002
:103ab0000a003200810720000200e000010032000d
:103ac000810520000d0178000c00780025f7070023
:103ad0000000e00009003a000900370080072000dc
:103ae0000200e00001003200800520008c00780018
:103af000ce000700e10f4000010032008d06e80013
:103b00007fa997000200e900c201dd0083a79f00a2
:103b10006301b90002027800f49f9f004300dd00ba
:103b200021aa20008100400081b79f009800370043
:103b3000ffaa97008502e900f5af9f00000420006e
:103b40003fab9700800f53006800320003003c0039
:103b50000600e00008003200730037000008200073
:103b6000bfab9700808f53004c003200000c200048
:103b7000808f53006c003a000e00e0001e003d00f4
:103b80000fb097003004be002005be000802be0042
:103b90000a03be001fb09700afb097003fb1970077
:103ba000cfb197004b040700807f9f000000fb000f
:103bb000cf80de006109b9000802be000a03be0022
:103bc000ad0407001fb29700afb297003fb3970054
:103bd000cfb397000002520081825a0002035b00bb
:103be00083835b0094b79f00a5b79f00b6b79f0083
:103bf000c7b79f00250037000e48a3001a00320007
:103c00001fb29700afb297000fb397003604be0003
:103c10002605be000801be000400be00f4b79f00e8
:103c200085bf9f007c030700807f9f000000fb0092
:103c3000cf80de000801be00870307007fb2970037
:103c40008fba97000000520081805a000004be0025
:103c50006055b80098b79f00a9b79f00bab79f00fa
:103c6000cbb79f00090037008fb497001901780087
:103c70001fb59700110009000285d800a20020009e
:103c8000110009000280d800817f9f008f7d97007e
:103c90000b43b0008b7f9f002300370090a82000cb
:103ca0000e58a3000100320080a720001fb2970029
:103cb000afb297003fb39700cfb397008fa09700a4
:103cc0008100e900050033008703d1000683d3009b
:103cd0008582d3000482d300f9ff37006f026200af
:103ce00060427a00847f9f000f0037001fb097006a
:103cf000afb097003fb19700cfb197007f9a970080
:103d00000402e900050033008301d1000281d300e1
:103d10008180d3000080d300f9ff37006740600046
:103d20000043b000807f9f00bc0090008f7a970016
:103d30000500fb000168a300070032000d017800b8
:103d4000800078000c00780086f607000000e00094
:103d500005003a00050037008c00780033000700aa
:103d6000e10f4000010032008d06e8000fa397002c
:103d70006403530086a79f00ff9b9700e3835300d3
:103d8000f79f9f000fb497006804540088b79f0006
:103d9000ffac97000900e00065ff3a000e38a30071
:103da000160032006fa597000a00e00013003400ef
:103db0000a0478003c0090000068a300070032006d
:103dc0000d017800010220000c00780065f6070064
:103dd0000000e00006003a00060037008c00780082
:103de0000002200011000700e10f40000100320036
:103df0008d06e8000804e900eeff3a009fa5970051
:103e00001b407800807f9f000004e0006ef63a00bf
:103e10000d0078004f0778004f06be004f05be002a
:103e20004f04be00cf03b10000000600889fbe0013
:103e300001047800b80090008084eb000118a30012
:103e40003a003200180190000198a30002003a00e5
:103e50000200e00035003a000190a0003104980013
:103e600080047800f90fb2000200e00002003a007e
:103e700028009000000c7800ea8f540005003a00fa
:103e80000178a30003003a0088007800d0002000e9
:103e9000e6ff070018009000d8009000810f500046
:103ea0000b0032000000e8001004980018007800b1
:103eb00009487800000ce80011c0b300e0c92000f8
:103ec00001487800ea8f540018003a0005003700d6
:103ed0008800780009407800170007008004780007
:103ee00012003700380090000088a3000f00320055
:103ef00018019000a8009000480090008ff1070082
:103f000098009000810f50000400320038009000ab
:103f10000003b300300498008084eb000000eb0045
:103f20001004980028009000000c78000900780028
:103f30004f04be00000006000200fa00889fbe0089
:103f4000a0ff9f0001047800380090000068a300e3
:103f500033003a00e200600005003a000003b300bd
:103f600030049800110498000080eb002e00370008
:103f7000d80490000900e00006003a00120020007a
:103f8000e6805700480090006cf107001904980083
:103f900023003700a80090000100e00008003a006c
:103fa00011ca200021049800010c78002100200093
:103fb00051049800110498000030a00030049800cb
:103fc00018019000a8009000480090005bf10700e5
:103fd000280090008080eb0011049800aff8970053
:103fe00001487800000ce8002ff89700ea4f5000d5
:103ff0000b003a00380090000088a300080032004f
:1040000018019000a8009000480090004bf10700b4
:104010000000eb0010049800a8009000010c78004c
:10402000aff897000100fb004f04be000080fa00cb
:104030000000060000c0da00000006002800fa00b8
:10404000889fbe008a9fbe008c9fbe000706780036
:10405000878669000c003b00030478008704780021
:1040600008f0a10009f0a100840f5000858f5800ce
:10407000860f5900890f5c00030033000cf0a2008a
:1040800001003a000cf0a100fe0007006400e1000e
:104090005f003200780147006408e10061003200ef
:1040a0006c014700748557003200be001201be004b
:1040b0003a04be001a05be001e039000be0a90001e
:1040c0008503530006003d000004fd008104fd004f
:1040d0000205fd008305fd008703ea000503780063
:1040e0000df8a3000400320060041400e0841c00fa
:1040f00060051d00e0851d006022b8007d032000e2
:104100000d38e1008006eb000b0039004433dd0080
:10411000f300b2008301730039003700848272001b
:104120000d027800e10664008b85d1000a85d3007a
:104130008984d3000884d3008703e900f7ff3b009c
:1041400008004000898048000a0149008b8149002d
:1041500004003b0060001000e080180060011900be
:10416000e08119000358a300090032008d8272001b
:1041700084827200610260008301d1000281d30059
:104180008180d3000080d3000603e8001b003700c5
:104190000348a30017003a000600e00017003400af
:1041a0000603e9000d00a3000000480081804800dc
:1041b00002014900838149000348a3000f003a002f
:1041c0000600e000090034000603e900000040009a
:1041d00081804800020149008381490001003a00c2
:1041e0000003eb000348a300f5ff32006022b80093
:1041f0000200370084827200618266007500070049
:1042000003f0a1000cf0a70003f0a000b1003700fc
:10421000640147006408e10002003a000df8a300c1
:10422000a9003a003200be001201be00a90037000a
:104230008f1fd100390307008f87e9000000e000dd
:1042400000000600809feb00340307008f87e90021
:104250000000e000000006002800fa00889fbe0071
:104260008a9fbe008c9fbe0003866b0085000700fe
:104270006400e100440032006408e1004a003200ba
:104280006100e100460032006108e10049003200af
:10429000ec0647006000b8003d02be003d03be00d2
:1042a000f48657006011b8003d04be003d05be0015
:1042b0007d0320000b0037000000a0008d06e90000
:1042c000130032000402420085824a0006034b00bc
:1042d00087834b00000040008180480002014900b4
:1042e000838149000802520089825a000a035b0058
:1042f0008b835b00f0ff3b000802420089824a008a
:104300000a034b008b834b008d06e900edff3a005a
:104310008482720086827200f707b2008782720080
:1043200001003200150020001e0490003e0b90009a
:1043300006035400e63fb0000368a3000700320004
:104340000000a7000500a0008301d1000281d30076
:104350008180d3000080d3000603e8008301d100f0
:104360000281d3008180d3000080d3000002eb00e3
:104370000482d2001700070003f0a1000cf0a70090
:1043800003f0a00053003700640247006408e10016
:104390004d0032003400be003401be00f6ff37008d
:1043a0006108e100480032006011b8006000b80008
:1043b000f1ff370003ff270002002000fbff37005a
:1043c000801feb00d50207008f87e9000000e000a6
:1043d00000000600180020005700200008045300c9
:1043e0000d003d000600200097fc2f000740e10073
:1043f0001e00340084827200610260008301d100db
:104400000281d3008180d3000080d3000804e8003b
:10441000f8ff3a00470020006104600005047400c2
:10442000040464000d00320061004000e080480098
:1044300060014900e081490003b8a500070032008f
:104440000603e8006538e10004003a008301d1006a
:104450000281d3008180d3000080d300f87f200048
:104460000830e10003003500080378006000b80060
:104470006011b8004433dd00f300b2008301730023
:1044800000000600680447000294be000094be00cd
:10449000fc0447008694be008494be0009007800a6
:1044a000e702070008007800e5020700990078009d
:1044b000814f70000b003b000800be00c0020700e7
:1044c0004f00b10003003700f3ff2700f2ff2f0079
:1044d0006110b9004f06be004f05be004f04be007c
:1044e0000080fa000000060081037800be0007008b
:1044f0000001be006000b8000478a30013003a0079
:104500006220e10015003e000d0039008301d1005a
:104510000281d3008180d3008301d1000281d300c6
:104520008180d3008301d1000281d3008180d30038
:104530000538b000c42add00f300b20083817200a8
:1045400007f0a70003f0a00000000600f3ff27001b
:10455000f2ff2f006110b900fbff370003ff2700b7
:10456000f7ff37001400fa00889fbe008a9fbe0044
:104570008c9fbe000004be000205be00680047001c
:104580000a90be000890be00ad0207000070a700b0
:104590000bf0a1000bf8a30020003a009e09900048
:1045a0000e099000fe0090006e0090009e029000a8
:1045b0003443200084825200c6ff32000a003c00cf
:1045c000b4fc2f000428e100140034008301d10062
:1045d0000281d3008180d3000080d3008502e800ef
:1045e000faff3a00bbff3700b40020000428e100c6
:1045f00007003c00000040008180480002014900a3
:10460000838149008502e900faff3a00b1ff3700d3
:104610000300280002002000010037006011b800ec
:104620006000b800abff37001400fa00889fbe009e
:104630008a9fbe008c9fbe000004be000205be0023
:10464000680047000a90be000890be007c02070088
:104650000070a7000bf0a1000bf8a30016003a00b1
:104660009e0290003043200080825200b0fe2f0056
:104670000028e1000d003c00b0fc2f000028e10004
:104680000d0034001e0990008e0890007e009000fe
:104690000501b0000201d1008180d3000080d30069
:1046a0008502e800fbff3a008aff3700010028007e
:1046b0000000200087ff37006000b80085ff37004a
:1046c000889fbe00008270000402710004827100a5
:1046d0002400320036432000c50020008383cf0031
:1046e0000a0039000541b1008283cf00070039007c
:1046f0000541b1008183cf00040039000541b100bc
:104700008083cf00010039000541b10085c353000b
:104710006022b800120032000a003b00848272005e
:10472000610260008301d1000281d3008180d30047
:104730000080d3000603e8008743e800f7ff3a0053
:104740000700370000004000818048000201490056
:10475000838149000603e9008743e900f9ff3a0035
:104760001cff07004f04be00000006006011b800e7
:10477000d3ff37001400fa00889fbe008a9fbe0056
:104780008c9fbe00040678000004be000205be0037
:10479000680047000a90be000890be00280207008b
:1047a0006200e1000800be000a01be000400200013
:1047b0000b003a001e029000e43fb1006e00900032
:1047c000fe0090000e0990009e099000f300b200d8
:1047d00005fe2300858171000bf0a70003f0a00007
:1047e000040e78003bff3700c70ade00f107b20075
:1047f000f50fb20008003200e1cf420002003200a3
:104800000170a00024000500810f7000010032003b
:104810000408050044000500810f700002003a0002
:10482000140005008502e9000000400081c0480036
:10483000fcff3b000170a000240005002800fa00e6
:10484000889fbe008a9fbe008c9fbe0003866b00bf
:104850000cff07000028a30064003a000128a30011
:1048600067003a000008a30062003a000108a300b4
:1048700065003a001e009000be08900081064000ce
:10488000ed3fb100f4805700ee019000111ab8001e
:104890008e099000311bb8009e099000311cb800b1
:1048a000511db800f485570046000700fe01900036
:1048b0003a0007008b85e8003e0007008e09900053
:1048c00040000700ee019000340007008b85e800ef
:1048d000380007008e099000400007009e099000f4
:1048e0001b18b800890440000a854800fe019000aa
:1048f000340007008b85e80038000700ee019000c7
:10490000300007008e0990001b18b8008904400091
:104910000a8548000a98a30008003a0004024200f1
:1049200085824a0006034b0087834b0008044c0035
:1049300089844c000a054d008d06e90084827200ce
:10494000850273004c3add008502720001003200de
:1049500015002000443ade001400b2004538de00a5
:10496000cb45dd000b007000c540de00cb4ddd0007
:104970008b8070004549de00cb55dd000b017100d6
:10498000c551de000d03780092fe070003f0a10080
:104990000cf0a70003f0a000cefe37001b18b800f3
:1049a0008502400006834800e0834b0060044c0011
:1049b000070037001b18b800060340008783480033
:1049c000faff37001b18b80087034000088448002e
:1049d000e0844c0060054d00000006001b18b80084
:1049e0000804400089844800faff37000108a3004a
:1049f000b5fe3a005800be005801be00e3ff370084
:104a00000008a300b0fe3a0009047800f9ff37005f
:104a100007f0a20089fd37006022b80006022000de
:104a20000000d0008180d2000482d2008582d200b2
:104a30000000a0000202520083825a0003003100ed
:104a40000202420083824a000000a1000603e9003e
:104a5000f3ff3a0000000600020ab900001bb9008b
:104a60000200b800810042008100430000000600ff
:104a7000889fbe008a9fbe0030044200b0844a0076
:104a800030054b0090854b006000b1000898be00d7
:104a90000a90be000440e10005c8e10006d0e10034
:104aa00007d8e10002003100680040001008e8006b
:104ab0004f05be004f04be0000000600889fbe00e8
:104ac0008a9fbe003004be002005be0004185400ba
:104ad00005985c0006185d0007985d001100200035
:104ae0000440e10005c8e10006d0e10007d8e1007c
:104af000010039008000eb00108810004f05be0057
:104b00004f04be00000006001200fa00889fbe009d
:104b10008a9fbe008c9fbe00e0b79f00f1b79f0048
:104b200082bf9f0093bf9f000605be000404be0025
:104b30000000eb00d0b79f00c0b79f00b0b79f0048
:104b4000a0b79f0090b79f000006eb005fb19700f1
:104b5000cfb09700820141003fb097000200e00013
:104b600004003d00370007007e805700c0ff0700ab
:104b700003003700330007007e805700cfff070097
:104b8000dfb697000d00e0000c0035006fb2970013
:104b9000ffb297000fbb97009fbb9700100020004b
:104ba000010020006011b8000002720081827200d2
:104bb00002037300838373001b0007000c06e800e8
:104bc00001042000810f5600e0ff3a000d00e000d4
:104bd00004003d000802be000a03be007e805700ac
:104be000a3ff07005fa897000000e00005003a005f
:104bf0001fb29700afb297003fb39700cfb39700b3
:104c0000090007006fb09700ffb097000fb9970039
:104c10009fb997004f06be004f05be004f04be006f
:104c20000080fa00000006000100070000000600f6
:104c3000a4b79f00b5b79f00c6b79f00d7b79f0026
:104c4000000006004f09de0082817100b3b79f00ab
:104c50004f01de008180400082807000a1b79f007c
:104c60008fb097004f09de00000040000200700086
:104c700090b79f007fa897004f01de008180400021
:104c80008280700081b79f000d0007004f3ade0060
:104c90000000400004007000f0af9f000800070013
:104ca0000402420085824a0006034b0087834b00c2
:104cb000dfff07000802be000a03be000000060076
:104cc0002fb29700bfb297004fb39700dfb39700a2
:104cd00000000600881f780018002000881f780058
:104ce00089ff07008f87e9004f0478000000060065
:104cf000801feb0084ff07008f87e900000006009b
:104d0000889fbe008a9fbe00e00f5000e08f5800d1
:104d1000e00f5900e08f59000c003d006044b800de
:104d20006055b8000000540081805c0002015d0005
:104d300083815d00180020001500070008003d0079
:104d4000180007000004eb00050037000004eb002a
:104d50000f00070002003d001200070018002000ad
:104d6000dcff07000800e000060032006022b80007
:104d70006033b8000000520081805a0002015b00dd
:104d800083815b004f05be004f04be00000006009b
:104d9000e00f5200e08f5a00e00f5b00e08f5b00f5
:104da000000006006044b8006055b80004025400da
:104db00085825c0006035d0087835d0000000600bd
:104dc000889fbe008a9fbe008c1f7800e00f5000b5
:104dd000e08f5800e00f5900e08f59000d003d00b2
:104de0006044b8006055b8000000540081805c0049
:104df00002015d0083815d001c0020000820e100ad
:104e000009a8e1000ab0e1000bb8e1000d003d0087
:104e1000080037000006eb00e00f5200e08f5a0058
:104e2000e00f5b00e08f5b0006003d006044b800cf
:104e30006055b8000402540085825c0006035d00e2
:104e400087835d00aaff07000c00e0000600320027
:104e50006022b8006033b8000000520081805a0020
:104e600002015b0083815b004f0678004f05be00a6
:104e70004f04be0000000600889fbe008a9fbe004f
:104e80008c1f78000006eb00e00f5000e08f580008
:104e9000e00f5900e08f590007003d006044b80062
:104ea0006055b8000000540081805c0002015d0084
:104eb00083815d001c002000e00f5200e08f5a004b
:104ec000e00f5b00e08f5b0007003d006044b8002e
:104ed0006055b8000402540085825c0006035d0042
:104ee00087835d000c00a2007c0007000c00e0003e
:104ef000060032006022b8006033b80000005200a3
:104f000081805a0002015b0083815b004f067800bc
:104f10004f05be004f04be0000000600889fbe0083
:104f20008a9fbe008c9fbe000404be000605be0022
:104f3000809fbe00829fbe002f00070004067800fd
:104f40000800be000a01be002b000700840678009e
:104f50004f03be004f02be008d4f76007fb097001a
:104f600013003300f0ff2f008b8f6b0006003b0017
:104f70000d0666000c00a7000a00370007f0a60027
:104f8000100020000a003700880f5200898f5a0055
:104f90008a0f5b008b8f5b0003003900100020003c
:104fa00001003e000000200007f0a7000000ea001a
:104fb0004f06be004f05be004f04be0000000600b5
:104fc000e48240001078a300070032006402400031
:104fd0001178a3003400be001401be0004003200aa
:104fe0000330a700000006003500be001501be001a
:104ff0000330a0000000060005ff270005826100c5
:10500000070032000428e1000100320024000500fe
:105010000600070001003a004400050004080500ee
:1050200002000700f9ff3a00140005006f826100da
:105030008102700085027100850272000000060086
:10504000800078005002be005003be004439de00ec
:10505000f700b200f37f2000030161000900320075
:105060000218e10016003a00850172008301730006
:10507000838173000008200015003a0040002000e2
:105080001300370085017200830173008381730070
:1050900005003a0004a8be0006a8be0010002000cb
:1050a0000b0037000201e9000402420085824a0039
:1050b00006034b0087834b000748a300f9ff32002b
:1050c0000740a00004a8be0006a8be0020002000e3
:1050d000800098009200980000000600889fbe00a3
:1050e0008a9fbe008c9fbe000404b8000506b8006d
:1050f0008904460060854e000606b8000a05460091
:10510000e0854e000706b8008b054600040eb80087
:10511000890446000a854e00e0854d00050eb80062
:105120000a0546008b854e00060eb8008b0546002a
:105130000416b8000a0546008b854e000516b80017
:105140008b054600041eb8008b0546000800be0013
:105150000a01be004f06be004f05be004f04be0050
:045160000000060045
:020000040000fa
:1051640020b200002020000020b200002020000017
:10517400b2200000b2200000202000002020000007
:10518400b2200000b20d00000ab2000020b20000fc
:1051940020b2000020b200002020000020b2000055
:1051a40020200000b220000020b2000020200000d7
:1051b4000d0a0000b220000020b2000020200000f0
:1051c400b2200000b2200000b220000020b2000093
:1051d40020200000b2200000b20d00000ab200003e
:1051e40020200000b220000020b2000020b2000005
:1051f40020200000b2200000b2200000b2200000f5
:1052040020b200000d0a0000b220000020b200000d
:1052140020200000b2200000b22000002020000066
:10522400b2200000b220000020200000b20d0000d7
:105234000a20000020200000202000002020000080
:10524400202000002020000020200000202000005a
:1052540020200000202000000d0a0000b2b200004f
:10526400b220000020b20000b2b20000b20d000073
:105274000ab2000020200000b2200000b22000008a
:10528400202000000d0a0000b220000020b200001f
:1052940020b20000b2b20000b20d00000ab2000059
:1052a40020200000b2200000b220000020200000d6
:1052b4000d0a0000b2b20000b220000020b20000cb
:1052c400b2b20000b20d00000a200000202000004d
:1052d4002020000020200000202000000d0a0000f3
:1052e400536900006d7000006c65000020500000e0
:1052f4003250000020440000656d00006f20000063
:105304004d52000046320000344a000034300000a0
:10531400204e00006f64000065200000000d0000b6
:105324000a5300007461000072740000696e00008a
:10533400672000004e6f000064650000203100000b
:10534400206f000066200000536900006d700000ab
:105354006c65000020440000656d00006f200000b3
:10536400666f0000722000004d690000576900005c
:10537400285400004d290000205000003250000045
:105384002053000074610000636b0000202e0000b5
:105394002e2e0000000d00000a4900006e7000006f
:1053a40075740000204300006f6e00006669000001
:1053b4006775000072610000746900006f6e000080
:1053c4003a0000000d0a0000202000002020000008
:1053d40020200000202000002020000020420000a7
:1053e40075740000746f00006e200000313a0000f4
:1053f4002052000044360000000d00000a20000086
:105404002020000020200000202000002020000098
:105414002020000042750000747400006f6e0000cc
:10542400203200003a2000005244000037000000ff
:105434000d0a00004f7500007470000075740000c0
:10544400204300006f6e000066690000677500006d
:1054540072610000746900006f6e00003a00000081
:105464000d0a000020200000202000002020000061
:105474002020000020200000202000002020000028
:1054840020200000202000002020000020520000e6
:105494005332000033320000207000006f720000ad
:1054a400740000000d0a00002020000020200000ed
:1054b40020200000202000002020000020200000e8
:1054c400202000004c45000044200000313a000038
:1054d4002044000031300000000d00000a200000cc
:1054e40020200000202000002020000020200000b8
:1054f4002020000020200000204c00004544000033
:10550400203200003a20000044390000000d000061
:105514000a20000020200000202000005246000045
:1055240020540000726100006e7300006365000087
:1055340069760000657200003a2000004d520000b8
:1055440046320000344a000034300000000d0000f0
:105554000a20000020200000446500006d6f000058
:10556400204900006e73000074720000756300002f
:10557400746900006f6e00003a0000000d0a00001c
:105584002020000020200000202000002020000017
:105594002020000020200000202000002020000007
:1055a4002020000020200000205000006f77000021
:1055b40065720000206f00006e2000007468000017
:1055c40065200000626f000061720000642000002a
:1055d400756e0000746900006c2000004c450000ea
:1055e40044200000312000006c690000676800005e
:1055f4007473000020750000700000000d0a0000a4
:105604002020000020200000202000002020000096
:105614002020000020200000202000002020000086
:105624002020000020200000207400006f200000d3
:10563400696e000064690000636100007465000025
:10564400206300006f6e00006e650000637400004c
:10565400696e00006720000077690000746800002c
:105664002070000065650000722e000020500000cc
:1056740075730000680000000d0a0000202000007f
:105684002020000020200000202000002020000016
:105694002020000020200000202000002020000006
:1056a400202000002042000075740000746f000088
:1056b4006e20000031200000746f000020620000a2
:1056c400726f000061640000636100007374000085
:1056d400206d0000657300007361000067650000c1
:1056e4002e20000050750000736800002042000066
:1056f40075740000746f00006e0000000d0a000055
:105704002020000020200000202000002020000095
:105714002020000020200000202000002020000085
:10572400202000002020000020320000207400000f
:105734006f200000756e0000696300006173000053
:1057440074200000656e0000637200007970000030
:1057540074650000642000006d6500007373000030
:1057640061670000652e0000204c000045440000e5
:105774002032000020770000696c00006c000000fb
:105784000d0a00002020000020200000202000003e
:105794002020000020200000202000002020000005
:1057a40020200000202000002020000020620000b3
:1057b40065200000746f0000676700006c650000de
:1057c40064200000757000006f6e000020720000fd
:1057d4006563000065690000766900006e6700007b
:1057e400206d0000657300007361000067650000b0
:1057f400732e0000200000000d0a00000d0a0000b6
:1058040000520000443600003a4e00006577000064
:10581400204e000065740000776f0000726b00007a
:1058240020520000443700003a4600007265000030
:10583400657a000065720000004300006f6e00008e
:105844006e65000063740000696e0000672000004c
:105854005065000065720000202000006f6e00009b
:1058640020430000686100006e6e0000656c00005b
:105874002025000064200000000d00000a43000001
:105884006f6e00006e65000063740000696e0000b6
:10589400672000005065000065720000206f000062
:1058a4006e20000043680000616e00006e65000019
:1058b4006c200000000d00000a000000436f00008f
:1058c4006e6e0000656300007465000064200000d3
:1058d4005065000065720000202000006f6e00001b
:1058e40020430000686100006e6e0000656c0000db
:1058f40020250000640000000d0a0000436f000032
:105904006e6e000065630000746500006420000092
:105914005065000065720000206f00006e200000da
:1059240043680000616e00006e6500006c2000009a
:1059340000520000443600003a2000004272000089
:105944006f61000064630000617300007420000054
:1059540020520000443700003a200000556e000039
:105964006963000061730000740000005365000067
:1059740063750000726500006420000000420000ae
:10598400726f0000616400006361000073740000c2
:1059940020500000616300006b650000742000006b
:1059a400776900007468000020520000535300001f
:1059b40049200000005500006e690000636100008a
:1059c4007374000020500000616300006b650000e8
:1059d4007420000077690000746800002052000001
:1059e40053530000492000000020000066720000ac
:1059f4006f6d0000200000003a200000000d000040
:105a04000a530000656c00006563000074690000bf
:105a14006f6e0000206f00006620000063680000c5
:105a2400616e00006e6500006c2000000020000024
:105a340069730000206e00006f7400002073000082
:105a440075700000706f00007274000065640000df
:105a5400206900006e20000063750000727200006f
:105a6400656e000074200000636f00006e66000025
:105a7400696700007572000061740000696f0000be
:105a84006e2e00000d0a0000000d00000a550000f3
:105a94006e6900006361000073740000204600001a
:105aa400616900006c650000640d00000a000000dc
:105ab400205500006e6900006361000073740000eb
