:020000040000fa
:080000000002040000000000f2
:020000040000fa
:04000800ac02000046
:020000040000fa
:04000c00ac02000042
:020000040000fa
:04001000ac0200003e
:020000040000fa
:04001400ac0200003a
:020000040000fa
:04001800ac02000036
:020000040000fa
:04001c00ac02000032
:020000040000fa
:04002000ac0200002e
:020000040000fa
:04002400ac0200002a
:020000040000fa
:04002800ac02000026
:020000040000fa
:04002c00ac02000022
:020000040000fa
:04003000ac0200001e
:020000040000fa
:04003400ac0200001a
:020000040000fa
:04003800ac02000016
:020000040000fa
:04003c00ac02000012
:020000040000fa
:04004000ac0200000e
:020000040000fa
:04004400366f000013
:020000040000fa
:04004800ac02000006
:020000040000fa
:04004c00ac02000002
:020000040000fa
:04005000ac020000fe
:020000040000fa
:04005400ac020000fa
:020000040000fa
:04005800ac020000f6
:020000040000fa
:04005c00ac020000f2
:020000040000fa
:04006000ac020000ee
:020000040000fa
:04006400ac020000ea
:020000040000fa
:04006800ac020000e6
:020000040000fa
:04006c00ac020000e2
:020000040000fa
:04007000ac020000de
:020000040000fa
:04007400ac020000da
:020000040000fa
:04007800a81f0000bd
:020000040000fa
:04007c00ac020000d2
:020000040000fa
:04008000ac020000ce
:020000040000fa
:04008400ac020000ca
:020000040000fa
:04008800ac020000c6
:020000040000fa
:04008c00ac020000c2
:020000040000fa
:04009000ac020000be
:020000040000fa
:04009400ac020000ba
:020000040000fa
:04009800ac020000b6
:020000040000fa
:04009c00ac020000b2
:020000040000fa
:0400a000ac020000ae
:020000040000fa
:0400a400ac020000aa
:020000040000fa
:0400a800ac020000a6
:020000040000fa
:0400ac00ac020000a2
:020000040000fa
:0400b000ac0200009e
:020000040000fa
:0400b400ac0200009a
:020000040000fa
:0400b800ac02000096
:020000040000fa
:0400bc00ac02000092
:020000040000fa
:0400c000ac0200008e
:020000040000fa
:0400c400ac0200008a
:020000040000fa
:0400c800ac02000086
:020000040000fa
:0400cc00ac02000082
:020000040000fa
:0400d000ac0200007e
:020000040000fa
:0400d400ac0200007a
:020000040000fa
:0400d800ac02000076
:020000040000fa
:0400dc00ac02000072
:020000040000fa
:0400e000ac0200006e
:020000040000fa
:0400e400ac0200006a
:020000040000fa
:0400e800ac02000066
:020000040000fa
:0400ec00ac02000062
:020000040000fa
:0400f000ac0200005e
:020000040000fa
:0400f400ac0200005a
:020000040000fa
:0400f800ac02000056
:020000040000fa
:0400fc00ac02000052
:020000040000fa
:04010000ac0200004d
:020000040000fa
:04010400ac02000049
:020000040000fa
:04010800ac02000045
:020000040000fa
:04010c00ac02000041
:020000040000fa
:04011000ac0200003d
:020000040000fa
:04011400ac02000039
:020000040000fa
:04011800ac02000035
:020000040000fa
:04011c00ac02000031
:020000040000fa
:04012000ac0200002d
:020000040000fa
:04012400ac02000029
:020000040000fa
:04012800ac02000025
:020000040000fa
:04012c00ac02000021
:020000040000fa
:04013000ac0200001d
:020000040000fa
:04013400ac02000019
:020000040000fa
:04020800ac02000044
:020000040000fa
:04020c00ac02000040
:020000040000fa
:04021000ac0200003c
:020000040000fa
:04021400ac02000038
:020000040000fa
:04021800ac02000034
:020000040000fa
:04021c00ac02000030
:020000040000fa
:04022000ac0200002c
:020000040000fa
:04022400ac02000028
:020000040000fa
:04022800ac02000024
:020000040000fa
:04022c00ac02000020
:020000040000fa
:04023000ac0200001c
:020000040000fa
:04023400ac02000018
:020000040000fa
:04023800ac02000014
:020000040000fa
:04023c00ac02000010
:020000040000fa
:04024000ac0200000c
:020000040000fa
:04024400ac02000008
:020000040000fa
:04024800ac02000004
:020000040000fa
:04024c00ac02000000
:020000040000fa
:04025000ac020000fc
:020000040000fa
:04025400ac020000f8
:020000040000fa
:04025800ac020000f4
:020000040000fa
:04025c00ac020000f0
:020000040000fa
:04026000ac020000ec
:020000040000fa
:04026400ac020000e8
:020000040000fa
:04026800ac020000e4
:020000040000fa
:04026c00ac020000e0
:020000040000fa
:04027000ac020000dc
:020000040000fa
:04027400ac020000d8
:020000040000fa
:04027800ac020000d4
:020000040000fa
:04027c00ac020000d0
:020000040000fa
:04028000ac020000cc
:020000040000fa
:04028400ac020000c8
:020000040000fa
:04028800ac020000c4
:020000040000fa
:04028c00ac020000c0
:020000040000fa
:04029000ac020000bc
:020000040000fa
:04029400ac020000b8
:020000040000fa
:04029800ac020000b4
:020000040000fa
:04029c00ac020000b0
:020000040000fa
:0402a000ac020000ac
:020000040000fa
:0402a400ac020000a8
:020000040000fa
:0402a800ac020000a4
:020000040000fa
:0402ac00ac020000a0
:020000040000fa
:0402b000ac0200009c
:020000040000fa
:0402b400ac02000098
:020000040000fa
:0402b800ac02000094
:020000040000fa
:0402bc00ac02000090
:020000040000fa
:0402c000ac0200008c
:020000040000fa
:0402c400ac02000088
:020000040000fa
:0402c800ac02000084
:020000040000fa
:0402cc00ac02000080
:020000040000fa
:0402d000ac0200007c
:020000040000fa
:0402d400ac02000078
:020000040000fa
:0402d800ac02000074
:020000040000fa
:0402dc00ac02000070
:020000040000fa
:0402e000ac0200006c
:020000040000fa
:0402e400ac02000068
:020000040000fa
:0402e800ac02000064
:020000040000fa
:0402ec00ac02000060
:020000040000fa
:0402f000ac0200005c
:020000040000fa
:0402f400ac02000058
:020000040000fa
:0402f800ac02000054
:020000040000fa
:0402fc00ac02000050
:020000040000fa
:04030000ac0200004b
:020000040000fa
:04030400ac02000047
:020000040000fa
:04030800ac02000043
:020000040000fa
:04030c00ac0200003f
:020000040000fa
:04031000ac0200003b
:020000040000fa
:04031400ac02000037
:020000040000fa
:04031800ac02000033
:020000040000fa
:04031c00ac0200002f
:020000040000fa
:04032000ac0200002b
:020000040000fa
:04032400ac02000027
:020000040000fa
:04032800ac02000023
:020000040000fa
:04032c00ac0200001f
:020000040000fa
:04033000ac0200001b
:020000040000fa
:04033400ac02000017
:020000040000fa
:100400004f4621000e7f22000e01880000000000f0
:10041000000020000000e000020032000001200087
:10042000200288000c00070020c0260001002000e8
:1004300011000700000020000000e0000200320070
:100440000000020000000000e45c02000000000068
:100450000040da000000fe004440a900e045200012
:100460000000e0000300320000002000a00188002e
:100470004440a80000000600910188008000780038
:100480000000eb0015003700e280400032a0b4000d
:100490009101ba00e280400032a0b4009102ba009b
:1004a000e280400032a0b4000002eb00472bde00e7
:1004b000f507b200602ce10004003a000059eb009f
:1004c0008301e900fdff3e00040037006128e100e0
:1004d000010032000082eb000b00070011c3ba00dc
:1004e0001101ba000604e00003003a000200e00037
:1004f000e5ff3a0000000600f607b200960188000a
:1005000082007800f5ff37003159ba008301e90015
:100510000c0032002159ba008301e90008003200c2
:100520000400e00003003a00e280400032a0b40082
:10053000f5ff370011d9ba008301e900faff3a004c
:100540008100e800e180400032a0b4000000060015
:10055000a2050400000000000040da000000fe00d8
:100560006022b800060220000000d0008180d20086
:100570000482d2008582d2000000a0000202520054
:1005800083825a00030031000202420083824a0043
:100590000000a1000603e900f3ff3a000000060096
:1005a000889fbe008a9fbe0030044200b0844a008b
:1005b00030054b0090854b006000b1000898be00ec
:1005c0000a90be000440e10005c8e10006d0e10049
:1005d00007d8e10002003100680040001008e80080
:1005e0004f05be004f04be0000000600889fbe00fd
:1005f0008a9fbe003004be002005be0004185400cf
:1006000005985c0006185d0007985d001100200049
:100610000440e10005c8e10006d0e10007d8e10090
:10062000010039008000eb00108810004f05be006b
:100630004f04be00000006001200fa00889fbe00b2
:100640008a9fbe008c9fbe00e0b79f00f1b79f005d
:1006500082bf9f0093bf9f000605be000404be003a
:100660000000eb00d0b79f00c0b79f00b0b79f005d
:10067000a0b79f0090b79f000006eb005fb1970006
:10068000cfb09700820141003fb097000200e00028
:1006900004003d00370007007e805700c0ff0700c0
:1006a00003003700330007007e805700cfff0700ac
:1006b000dfb697000d00e0000c0035006fb2970028
:1006c000ffb297000fbb97009fbb97001000200060
:1006d000010020006011b8000002720081827200e7
:1006e00002037300838373001b0007000c06e800fd
:1006f00001042000810f5600e0ff3a000d00e000e9
:1007000004003d000802be000a03be007e805700c0
:10071000a3ff07005fa897000000e00005003a0073
:100720001fb29700afb297003fb39700cfb39700c7
:10073000090007006fb09700ffb097000fb997004e
:100740009fb997004f06be004f05be004f04be0084
:100750000080fa000000060001000700000006000b
:10076000a4b79f00b5b79f00c6b79f00d7b79f003b
:10077000000006004f09de0082817100b3b79f00c0
:100780004f01de008180400082807000a1b79f0091
:100790008fb097004f09de0000004000020070009b
:1007a00090b79f007fa897004f01de008180400036
:1007b0008280700081b79f000d0007004f3ade0075
:1007c0000000400004007000f0af9f000800070028
:1007d0000402420085824a0006034b0087834b00d7
:1007e000dfff07000802be000a03be00000006008b
:1007f0002fb29700bfb297004fb39700dfb39700b7
:1008000000000600881f780018002000881f78006c
:1008100089ff07008f87e9004f0478000000060079
:10082000801feb0084ff07008f87e90000000600af
:10083000889fbe008a9fbe00e00f5000e08f5800e6
:10084000e00f5900e08f59000c003d006044b800f3
:100850006055b8000000540081805c0002015d001a
:1008600083815d00180020001500070008003d008e
:10087000180007000004eb00050037000004eb003f
:100880000f00070002003d001200070018002000c2
:10089000dcff07000800e000060032006022b8001c
:1008a0006033b8000000520081805a0002015b00f2
:1008b00083815b004f05be004f04be0000000600b0
:1008c000e00f5200e08f5a00e00f5b00e08f5b000a
:1008d000000006006044b8006055b80004025400ef
:1008e00085825c0006035d0087835d0000000600d2
:1008f000889fbe008a9fbe008c1f7800e00f5000ca
:10090000e08f5800e00f5900e08f59000d003d00c6
:100910006044b8006055b8000000540081805c005d
:1009200002015d0083815d001c0020000820e100c1
:1009300009a8e1000ab0e1000bb8e1000d003d009c
:10094000080037000006eb00e00f5200e08f5a006d
:10095000e00f5b00e08f5b0006003d006044b800e4
:100960006055b8000402540085825c0006035d00f7
:1009700087835d00aaff07000c00e000060032003c
:100980006022b8006033b8000000520081805a0035
:1009900002015b0083815b004f0678004f05be00bb
:1009a0004f04be0000000600889fbe008a9fbe0064
:1009b0008c1f78000006eb00e00f5000e08f58001d
:1009c000e00f5900e08f590007003d006044b80077
:1009d0006055b8000000540081805c0002015d0099
:1009e00083815d001c002000e00f5200e08f5a0060
:1009f000e00f5b00e08f5b0007003d006044b80043
:100a00006055b8000402540085825c0006035d0056
:100a100087835d000c00a2000c0007000c00e000c2
:100a2000060032006022b8006033b80000005200b7
:100a300081805a0002015b0083815b004f067800d1
:100a40004f05be004f04be0000000600889fbe0098
:100a50008a9fbe008c9fbe000404b8000506b80043
:100a60008904460060854e000606b8000a05460067
:100a7000e0854e000706b8008b054600040eb8005e
:100a8000890446000a854e00e0854d00050eb80039
:100a90000a0546008b854e00060eb8008b05460001
:100aa0000416b8000a0546008b854e000516b800ee
:100ab0008b054600041eb8008b0546000800be00ea
:100ac0000a01be004f06be004f05be004f04be0027
:100ad000000006000900370030427800b14178007c
:100ae000834f520004003200100020000600310045
:100af0000080eb00000006000201e9000200e000b7
:100b0000f5ff3a000000eb000000060080017800cd
:100b100002003700b15978000201e9000200e0004c
:100b2000fcff3a0000000600800178000200370058
:100b3000815978000201e9000200e000fcff3a0060
:100b400000000600881f7800020478000801780081
:100b5000eeff0700080040004f0478000000060088
:100b60000000fa00881f780000047800ea8157002e
:100b70003fb9970088007800205a2000070007003e
:100b80000000e000020035008040eb0001747800b6
:100b90004f0478000080fa00000006006200fa00ae
:100ba000889fbe008a1f78000005780081047800c5
:100bb000020478008300780080f92f000f004000c5
:100bc000da0307009a979f00a9979f000000eb00a7
:100bd000b09f9f001885fb008a04fb000a05ea000d
:100be0004f55de0050022000808f54000d0032006f
:100bf000e10f55000b003a000a01780088007800e8
:100c00002f9097009f91970003000100a0979f00ed
:100c10000000e0008e0032003f9897000000e800de
:100c2000b09f9f000a04440050022000808f5400af
:100c3000040032000900e000e6ff3a003f98970008
:100c4000840037000000eb00909f9f00809f9f0072
:100c5000f0979f00e0979f00d0979f00c0979f005c
:100c600007003700614521000100500000004000ee
:100c7000a144210061007800df9897000100700016
:100c8000d09f9f00880478000904780038457800d8
:100c90008a00fb0060452100a70107000000e0007a
:100ca000f0ff3a00a1c2b300814f55000e003a0098
:100cb000cf8897000180e900c08f9f001000780066
:100cc000c09f9f000000e00005003d000000ea001a
:100cd000c09f9f005f9897000020a000d09f9f00ba
:100ce0000904e8000f003700c09f9f000000eb00e0
:100cf00005003700f2ff2700820f5000020032008b
:100d00006a01b90002804000090478008804780074
:100d1000b900fb000103b100e98f5000f5ff360078
:100d2000c09f9f00e0c2b300984f10000200320045
:100d30000080eb0019003700a0c2b300d84f1000ac
:100d400007003a00cf8897000180e900c08f9f001c
:100d500010007800a09f9f000804e80010003700f2
:100d60000000eb00a09f9f0088007800050037007e
:100d7000f3ff2700830f5000020032006a02b9001f
:100d80000400410001047800880078003101fb0074
:100d90000203b100e90f5100f5ff3600a09f9f004c
:100da000984478008900fb0020442100620107007c
:100db0000000e000020032000804e80001003700f3
:100dc0008044eb00c97f9f0080c6b30080cf5400f1
:100dd00004003a0098cf14000a003a006640500020
:100de00006003700c0c6b30080cf540005003a00ab
:100df00098cf140003003a0065404000c07f9f0078
:100e00000804e8001801fb00e3fb2f008f8141007c
:100e100081f92f008f804000a0f92f000f004000c3
:100e2000100007000000e00009003a00e1fb2f007d
:100e30008f804000a0f92f000f0040007f020700c4
:100e40000000e000020035000804e80061ff370000
:100e50000080eb004f0578004f04be000080fa00d0
:100e600000000600889fbe008a1f780000047800fa
:100e7000e0c6b300804f5100c100320015003c00b5
:100e80006b405000804f5100240032000a003c00ab
:100e900070405000804f5100fa0032006540400021
:100ea000804f51006800320050c2b300804f5100a3
:100eb0000b013a000701370040c6b300804f5100d4
:100ec0001b00320065404000804f510004013a0091
:100ed0001700370030c7b300804f5100e9003200df
:100ee00007003c0064405000804f51005600320023
:100ef0000040e800804f5100f9003a00d30037006d
:100f000050c7b300804f51004f0032006340400093
:100f1000804f5100f2003a004b0037001181e90088
:100f2000820878007800900012417800ea003700cb
:100f300028609000c4c6b300844f500007003a00f8
:100f40001102780064005200800878001002be0090
:100f50004fabde00860378001100370014c7b300e2
:100f6000844f500003003200a4c6b300844f5000e9
:100f700006003a00110278006800520080087800ec
:100f80003002be002003be00050037001180e900da
:100f90008008780010027800cfa2de00612bb90033
:100fa000049cbe000694be002860900081c6b30079
:100fb000814f50000d00320021c6b300814f500018
:100fc00004003a000402fb00cfa2de00612bb9004e
:100fd0000800370041c7b300814f500003003200c2
:100fe000e6c04000814f500004003a00cfa2de006e
:100ff000612bb900049cbe000694be003802be00fe
:101000002803be0078009000d1c2b300e00f520068
:10101000e08f5a00e00f5b00e08f5b0008003500b6
:10102000881090000118a30002003200b1c2b30082
:10103000030037000108a3004c00320001c2b300d6
:10104000817178004700370028609000c4c6b30063
:10105000844f500006003a001102780064005200ec
:10106000800878001002be006033b800110037001d
:1010700014c7b300844f500003003200a4c6b3006d
:10108000844f500006003a001102780068005200b8
:10109000800878003002be002003be000500370043
:1010a0001180e90080087800100278008002eb00cf
:1010b0006033b800049cbe000694be002860900017
:1010c00081c6b300814f50000d00320021c6b3002d
:1010d000814f500004003a000482fb008002eb00c4
:1010e0006033b8000800370041c7b300814f50009b
:1010f00003003200e6c04000814f500004003a0077
:101100008002eb006033b800049cbe000694be0071
:10111000081090000038a300140032003802be000e
:101120002803be00e00f5200e08f5a00e00f5b0082
:10113000e08f5b000d00320080c7b300804f51008c
:101140000300320080c5b300804f510007003a0011
:101150007800900001c3b300817178000000e800be
:10116000827178000000e800700498007800900018
:101170008081410063049800824078003e0037007f
:1011800028619000c3c6b3001180e900834f51006d
:10119000220032000a003c00e4c15100834f51009c
:1011a0002500320083c1e800834f51001300320054
:1011b000e8c15100834f51001e003a000a00370079
:1011c00043c7b300834f51001b003200e6c141000a
:1011d000834f510018003200e9c15100834f510084
:1011e00014003a00050037008008780010007800ed
:1011f000485c90000848780041003700800878007b
:1012000010007800680a9000cfa2de00612bb900c0
:101210000498be000690be003900370080087800b0
:101220001000780068099000cf91de000288be00af
:10123000330037001180e900800878001000780042
:10124000680c9000080878002d0037001180e90034
:101250008008780010027800cfa2de00612bb90070
:10126000049cbe000694be0078009000808141007e
:101270006304980081c7b3000800780040000700ad
:101280001f0037001180e900800878001005780001
:101290006a049800d80c90000900e00004003d00aa
:1012a0000a0078003000070080047800070037004b
:1012b000090178008000eb000a00780014000700a4
:1012c0000000e000010032008a045000190c980070
:1012d0000b0037007800900082717800060037001c
:1012e00078009000808141000204e00001003a0093
:1012f00052c2b300824978000000e80070049800f0
:101300000000eb004f0578004f04be00000006000f
:1013100003003700b0cf1000050032000201e900e1
:10132000800178000200e000faff3a0000000500aa
:101330000300780000000600020037000304e0000c
:10134000060032000001780002007800b041780009
:1013500081cf5100f9ff3a00010037000001eb0096
:10136000020078000000060080007800010178008b
:101370003104e000fdff3a000000510000000600cb
:10138000fc874700889fbe008a9fbe008c9fbe00de
:101390008e1f78000006780080c5b30080cf500013
:1013a0000a0032007740400080cf50000a0032002f
:1013b0006940400080cf50000b00320030412100d6
:1013c00080bf9f00ae0020000a00370022402100ad
:1013d00082bf9f00060037003341210083bf9f007a
:1013e0008e002000030037003441210084bf9f009d
:1013f0000e0120003c02be002c03be000605be000c
:101400000404be0040c6b30080cf50000300320089
:101410006540400080cf50000b003a00e00f5200c2
:10142000e08f5a00e00f5b00e08f5b0006003d009c
:101430006000b8006011b8000404500085845800b2
:101440000605590087855900e80f5700040032004f
:1014500040002000f00f570038003a00010037002c
:1014600030002000e00f5400e08f5c00e00f5d00d2
:10147000e08f5d0004003a00dc0890008d01200040
:101480000100e000060032008e00e9008880600064
:101490008fba9700e5c07800f1ef9f007d01200032
:1014a000800078008100e900050033008b05d10041
:1014b0000a85d3008984d3000884d300f9ff37005c
:1014c000089ebe000a96be00120037008d06e90095
:1014d0008e00e900848060000fb99700e2c17800b7
:1014e00082fd2f000f01410003f17e008000780093
:1014f0008100e900050033008783d1000683d30013
:101500008582d3000482d300f9ff3700049ebe0019
:101510000696be003c02be002c03be00e00f520047
:10152000e08f5a00e00f5b00e08f5b008b0034001f
:101530000d00e000e5ff3c00880037002c609000c3
:1015400081c6b300814f50000b00320006003c0002
:101550000004e00008003200e6c05000814f500057
:101560004e003a0004003700c1c6b300814f50005e
:101570004a003a00210037000800e00004003a0069
:101580005c0890008d0120000000e00006003200a1
:10159000110009000e84d8000fb99700e2c078004e
:1015a000f1ef9f007d012000110009000e84d8009a
:1015b0000a003700110009000e04d8008d06e9006a
:1015c0000e81b900020454008fb8970061417c007d
:1015d00081fd2f008f80400082f07e0000047800a3
:1015e0000800e000020032000d00e000f1ff3c00c6
:1015f000cfc4de00614db90025003700e00f540074
:10160000e08f5c0004003a005c0890008d0120002f
:101610000000e000070032006171b9000800be0060
:10162000530107008fb99700e3417800f3ef9f0063
:101630007d0120006171b9000800be00c8fb0700f1
:101640000b0037006171b9000800be0039010700c6
:101650008d06e90000f1b900020454000fba9700aa
:10166000e4427c0084fd2f000f02420005f27e0060
:101670000004be00e00f5000e08f5800020032006e
:101680000d00e000efff3c004fcdde008a05780042
:10169000089ebe000a96be0030003700e00f5400de
:1016a000e08f5c00e00f5d00e08f5d0004003a0019
:1016b0005c0890008d0120000000e000090032006d
:1016c0006172b900612bb9000800be000a01be00ba
:1016d00053fc07000fba970064427800f4ef9f00b4
:1016e0007d0120006172b900612bb9000800be00c5
:1016f0000a01be0043fc07000d0037006172b9000b
:10170000612bb9000800be000a01be0048fc0700ba
:101710008d06e90000f2b900040454008fba970066
:1017200065427c0085fd2f008f82420084f27e009e
:10173000009ebe000296be003c04be002c05be000a
:10174000e00f5400e08f5c00e00f5d00e08f5d0073
:10175000020034000d00e000e8ff3c00e80f5700f5
:1017600010003a000c1090000038a3000d00320069
:10177000f78f560006003e0085fd2f008f82420045
:10178000e5c07e0000c3b30080cf500005003200ea
:101790008d06e90002c3b30081fd2f008f80400059
:1017a00082f07e0078811600120e98006c00900086
:1017b00083fd2f008f8141008d804100d3fc070005
:1017c0001c089000dc089000810f500006003d00ce
:1017d00000805000000e98000c1090000040a10006
:1017e000001698000f0037000100e0000d003d00da
:1017f0008c109000f4806000f08f500009003a00d7
:101800007c099000fc009000810051000c099000c0
:1018100082805000008050004240a9000100340046
:10182000000e98004f0778004f06be004f05be001f
:101830004f04be00cf01b100000006000400fa0012
:10184000889fbe008a9fbe008c1f7800000478002d
:1018500001067800f80d9000780090008085550012
:101860000808900080855500180890008085550074
:101870002808900080855500380890008085550024
:1018800048089000808555000002220090bf9f000c
:1018900000032300a0bf9f00081090000028a300b1
:1018a00015003a000b00e000130034000b0578002f
:1018b0008a047800e20f550001003600290020005c
:1018c000c801900009017800ee8057005800900090
:1018d00003000100500498000000e0008c0032007a
:1018e0006808900009004000600c98000905550048
:1018f0004240a900eeff3c00780190000200e000a9
:101900000c003400c80190008c0078005800900052
:1019100003000100500498008080eb000000e0000c
:101920007c003200e80890007800900000804000c1
:10193000600c9800880c90000900e0001100340051
:1019400009057800e28f5400010036002a002000cb
:10195000c80190000a017800ec8057005800900000
:1019600003000100500498000000e000680032000d
:10197000680890000a004000600c98008a845400b7
:10198000edff3700180990000200e0000c00340061
:10199000c8019000e800900058009000030001008a
:1019a000500498008080eb000000e00059003200f5
:1019b000e80890001808900000804000600c980033
:1019c000a80c90000900e00011003400090578001f
:1019d000e28f5400010036002a002000c801900068
:1019e0000a017800ec8057005800900003000100c5
:1019f000500498000000e0004500320068089000a4
:101a00000a004000600c98008a845400edff370003
:101a1000380990000200e0000e003400e800900059
:101a20001808900080804000c80190005800900085
:101a300003000100500498008080eb000000e000eb
:101a400034003200e8089000380890000080400020
:101a5000600c9800c80c90000900e00011003400f0
:101a600009057800e28f5400010036002a002000aa
:101a7000c80190000a017800ec80570058009000df
:101a800003000100500498000000e0002000320034
:101a9000680890000a004000600c98008a84540096
:101aa000edff3700081090008000eb000028a30035
:101ab000180032000b00e000160034008b047800a0
:101ac00009057800e28f5400010036002a0020004a
:101ad000c80190000a017800ee805700580090007d
:101ae00003000100500498000000e00008003200ec
:101af000680890000a004000600c98008a84540036
:101b00004240a900eeff3c008000eb0001003700de
:101b10008080eb00010078004f0678004f05be0082
:101b20004f04be000080fa000000060001087800a3
:101b300000000600839f68000100e00002003d00f5
:101b400060001000e08018000300e00002003d008b
:101b500060011100e081190081fa07004f00e000e8
:101b600002003b0060001000e0801800000006004a
:0c1b70007bfa07000400be000000060025
:020000040000fa
:101b7c000000000000000000963000000777000015
:101b8c002c6100000eee0000ba5100000999000013
:101b9c0019c400006d0700008ff400006a7000008b
:101bac0035a5000063e90000a3950000649e0000c9
:101bbc0032880000db0e0000a4b80000dc790000c5
:101bcc001ee90000d5e0000088d90000d297000083
:101bdc002b4c0000b6090000bd7c0000b17e00005b
:101bec00072d0000b8e70000911d0000bf90000019
:101bfc0064100000b71d0000f2200000b06a000065
:101c0c0048710000b9f30000de410000be84000002
:101c1c007dd40000da1a0000ebe40000dd6d00005a
:101c2c0051b50000d4f40000c7850000d383000038
:101c3c00569800006c130000c0a800006b640000f4
:101c4c007af9000062fd0000ecc90000658a000012
:101c5c004f5c000001140000d96c0000066300000a
:101c6c00633d00000ffa0000f50d0000088d000028
:101c7c00c82000006e3b00005e100000694c0000a4
:101c8c00e441000060d500007271000067a2000002
:101c9c00d1e40000033c000047d40000044b0000da
:101cac00fd8500000dd200006bb500000aa50000f8
:101cbc00faa80000b53500006c980000b242000094
:101ccc00d6c90000bbdb000040f90000bcac000032
:101cdc00e36c0000d8320000755c0000df450000aa
:101cec00cf0d0000d6dc0000593d0000d1ab000048
:101cfc00ac300000d92600003a000000de51000094
:101d0c0080510000d7c8000016610000d0bf000051
:101d1c00b5f40000b421000023c40000b356000049
:101d2c0099950000bacf00000fa50000bdb80000c7
:101d3c009eb800000228000008880000055f000023
:101d4c00b2d900000cc6000024e900000bb1000061
:101d5c00877c00006f2f0000114c000068580000b9
:101d6c00ab1d000061c100003d2d000066b60000f7
:101d7c0090410000dc76000006710000db010000e1
:101d8c00bc200000d29800002a100000d5ef000003
:101d9c0089850000b17100001fb50000b606000077
:101dac00a5e40000bf9f000033d40000b8e8000099
:101dbc00a2c900000778000034f90000000f0000f1
:101dcc008ea8000009960000189800000ee1000093
:101ddc00bb0d00006a7f00002d3d00006d08000067
:101dec00976c000064910000015c000063e6000049
:101dfc00f45100006b6b0000626100006c1c000071
:101e0c00d8300000658500004e00000062f2000032
:101e1c00ed950000066c00007ba50000011b000086
:101e2c00c1f400000882000057c400000ff5000048
:101e3c00c6d90000b065000050e90000b7120000e0
:101e4c00eab80000be8b00007c880000b9fc0000e2
:101e5c00df1d0000dd620000492d0000da150000d6
:101e6c00f37c0000d38c0000654c0000d4fb000018
:101e7c0058610000b24d0000ce510000b53a000090
:101e8c0074000000bca30000e2300000bbd40000d2
:101e9c0041a50000df4a0000d7950000d83d0000a6
:101eac006dc40000d1a40000fbf40000d6d30000e8
:101ebc006ae9000069430000fcd900006e340000a0
:101ecc004688000067ad0000d0b8000060da000062
:101edc00732d000004440000e51d000003330000d6
:101eec005f4c00000aaa0000c97c00000ddd000058
:101efc003c71000005500000aa41000002270000c0
:101f0c00101000000bbe0000862000000cc9000061
:101f1c0025b5000068570000b38500006f20000055
:101f2c0009d4000066b900009fe4000061ce0000f7
:101f3c000ef90000de5e000098c90000d9290000ef
:101f4c0022980000d0b00000b4a80000d7c7000051
:101f5c00173d0000b3590000810d0000b42e0000a5
:101f6c003b5c0000bdb70000ad6c0000bac00000c7
:101f7c0020830000b8ed0000b6b30000bf9a00004b
:101f8c000ce20000b60300009ad20000b17400000d
:101f9c0039470000d5ea0000af770000d29d000061
:101fac0015260000db04000083160000dc73000023
:101fbc00120b000063e30000843b000064940000fb
:101fcc003e6a00006d0d0000a85a00006a7a0000fd
:101fdc000bcf00000ee400009dff000009930000f1
:101fec0027ae0000000a0000b19e0000077d000033
:101ffc00449300000ff00000d2a3000008870000fb
:10200c0068f20000011e0000fec20000066900001c
:10201c005d57000062f70000cb6700006580000090
:10202c00713600006c190000e70600006b6e0000b2
:10203c00761b0000d4fe0000e02b0000d3890000ca
:10204c005a7a0000da100000cc4a0000dd6700006c
:10205c006fdf0000b9f90000f9ef0000be8e000040
:10206c0043be0000b7170000d58e0000b060000022
:10207c00e8a30000d6d600007e930000d1a100009a
:10208c00c4c20000d838000052f20000df4f00003c
:10209c00f1670000bbd1000067570000bca6000030
:1020ac00dd060000b53f00004b360000b2480000d2
:1020bc00da2b00000dd800004c1b00000aaf00000a
:1020cc00f64a000003360000607a0000044100006c
:1020dc00c3ef000060df000055df000067a80000c0
:1020ec00ef8e00006e31000079be000069460000e2
:1020fc008cb3000061cb00001a83000066bc0000aa
:10210c00a0d200006f25000036e2000068520000eb
:10211c00957700000ccc0000034700000bbb0000bf
:10212c00b9160000022200002f2600000555000001
:10213c00be3b0000bac50000280b0000bdb2000079
:10214c00925a0000b42b0000046a0000b35c00003b
:10215c00a7ff0000d7c2000031cf0000d0b50000af
:10216c008b9e0000d92c00001dae0000de5b000031
:10217c00b0c20000649b000026f2000063ec00007b
:10218c009ca300006a7500000a9300006d02000019
:10219c00a9060000099c00003f3600000eeb000071
:1021ac00856700000772000013570000000500004f
:1021bc00824a0000bf950000147a0000b8e20000cb
:1021cc00ae2b0000b17b0000381b0000b60c0000e9
:1021dc009b8e0000d29200000dbe0000d5e50000e1
:1021ec00b7ef0000dc7c000021df0000db0b0000ff
:1021fc00d4d20000d386000042e20000d4f10000eb
:10220c00f8b30000dd6800006e830000da1f0000e8
:10221c00cd160000be8100005b260000b9f6000060
:10222c00e1770000b06f000077470000b71800009e
:10223c00e65a000008880000706a00000fff0000da
:10224c00ca3b0000066600005c0b00000111000098
:10225c00ff9e0000658f000069ae000062f8000070
:10226c00d3ff00006b61000045cf00006c1600002e
:10227c0078e200000aa00000eed200000dd70000aa
:10228c0054830000044e0000c2b300000339000068
:10229c006126000067a70000f716000060d0000060
:1022ac004d47000069490000db7700006e3e0000de
:1022bc004a6a0000d1ae0000dc5a0000d6d90000fa
:1022cc00660b0000df400000f03b0000d837000038
:1022dc0053ae0000bca90000c59e0000bbde000090
:1022ec007fcf0000b2470000e9ff0000b5300000ce
:1022fc001cf20000bdbd00008ac20000baca00007a
:10230c0030930000b3530000a6a30000b4240000d7
:10231c0005360000d0ba000093060000d7cd0000af
:10232c0029570000de540000bf670000d9230000cd
:10233c002e7a000066b30000b84a000061c40000a9
:10234c00021b0000685d0000942b00006f2a000047
:10235c0037be00000bb40000a18e00000cc30000bf
:10236c001bdf0000055a00008def0000022d00005d
:10237c00613a000025300000345800002070000045
:10238c003a4600004646000046000000693a00004c
:10239c0025300000345800003d250000303200008c
:1023ac0078200000202000002020000020000000e9
:1023bc006f3a000025300000325800002020000049
:1023cc002020000020200000202000002020000001
:1023dc0020000000703a0000253000003458000046
:1023ec00004600004646000046000000703a00001f
:1023fc002573000000000000000100000203000033
:10240c000405000006070000080900000a0b000084
:10241c000c0d00000e0f000004000000ffff000078
:0c242c00ffff0000ffff0000ffff0000aa
:020000040000fa
:102438000600fa001007980041479800b004800091
:102448004400de0061406000004f78009680a900db
:10245800ca42a9001e0090004300de0080407800b8
:1024680000c8b30000c07000e12e07001e009000f5
:1024780080407800500020000008dd000044a000e3
:10248800db2e07004e409000d92e0700ca42a80054
:102498001e407800614060000080fb006100600021
:1024a8004400dd00b2048000f1fe2f0081006100cd
:1024b80001007000b00488000080fa0000000600e7
:1024c8000400fa002047980031479800b0048000c3
:1024d8004400de0061406000004f78009680a9004b
:1024e800ca42a9002e409000c12e07003e4090002d
:1024f800bf2e0700ca42a8001e4078006140600055
:102508000080fb00610060004400dd00b204800030
:10251800f1fe2f008100610001007000b004880006
:102528000080fa00000006000400fa002047980026
:10253800b00480004400de0061406000104798004d
:102548009680a900ca42a9002e409000a82e070034
:10255800b82e0700004f7800ca42a8001e4090001d
:10256800614060000080fb00610060004400dd0005
:10257800b2048000f1fe2f008100610001007000ac
:10258800b00488001e4078000080fa0000000600b1
:102598000400fa0010079800b00480004400de0030
:1025a80061406000104798009680a900ca42a900bf
:1025b8001e0090004300de008040780000c8b30091
:1025c80000c070008a2e07001e009000804078002e
:1025d800500020000008dd00852e0700952e07001a
:1025e800004f7800ca42a8001e4090006140600079
:1025f8000080fb00610060004400dd00b204800040
:10260800f1fe2f008100610001007000b004880015
:102618001e4078000080fa00000006000400fa005e
:10262800e842a9000000eb001007980003003700fb
:102638001e0090000000e800100798009e0090001f
:10264800b0122000808f5000f9ff3600e842a80041
:102658000000eb0010079800030037001e009000f0
:102668000000e800100798009e009000b0122000bb
:10267800808f5000f9ff360071c0b30050c5b30019
:102688008fff070040c5b300a7ff0700004f780081
:102698001e80fb00670060000000e000f9ff3a00c0
:1026a8000000eb0010079800030037001e009000a0
:1026b8000000e800100798009e009000703e20007f
:1026c800808f5000f9ff360011c0b300b0c1b300cd
:1026d8007bff070080c0eb0070c0b30078ff0700e5
:1026e80080c0eb0090c0b30075ff070080c0eb000e
:1026f80030c0b30072ff070080c0eb0050c0b300c9
:102708006fff07000040eb00004f7800090037001a
:10271800714280001e80fb000080400090407800dd
:102728001e407800004040006b40400064ff0700f6
:102738001e4fe8001e407800e74f5000f4ff3600b7
:1027480001c8b3002020200039ff07008040eb00bb
:102758003020200036ff070001c9b30060202000a8
:1027680033ff070001c8b3007020200030ff0700c6
:1027780001c1b300802020002dff070011c2b30063
:10278800002220002aff070001c8b30050c7b30089
:102798004bff070001c4b300d0c7b30048ff0700d0
:1027a80001c6b300f0c7b30045ff070081c9b300f5
:1027b80010c3b30042ff070051c9b300d0c5b3002e
:1027c8003fff0700f020200071ff0700004f78004e
:1027d8009e80fb00000a200080806000000a200024
:1027e800808f5000f7ff3a0061ceb30050c6b300a7
:1027f80033ff070031c0b300002020000cff0700a2
:1028080021c0b3001020200009ff070064c8bf00e2
:102818008040eb000f0507000080fa00000006006a
:102828000400fa00d116800000102000008060002b
:102838000000e00001003a008680a8006ac8bf00d6
:10284800614060000004e0000a003200114380008b
:10285800f0072000808f5000030036006228ef0048
:102868006a08a90003003700104380000000e80050
:102878001043880000c0eb0008e9b7000040eb00f7
:10288800004f78000b0037001e80fb004700dd007a
:1028980021ef2000614078000004e00004003200cd
:1028a8001e4178008190200082487800040037009b
:1028b8001e4fe8001e407800e14f5000f2ff36003e
:1028c80008c9bf00e14f500044023e0010c0b300e9
:1028d8001047980008c9bf000080fb004700dd00d2
:1028e80031ef2000614078008080fb000004200068
:1028f800008060000000e00002003a000040eb00a9
:1029080010479800800521008040eb0001487800be
:10291800100621008040eb000148780008c9bf007c
:102928000080fb004700dd000000e80031ef2000d8
:10293800e1407800c0ccb30000c060002047980098
:102948002e4090000080fb00c1082000810f50003d
:1029580052013200c1082000810f500007003c00de
:1029680001082000810f5000ba00320081082000c1
:10297800810f5000e400320099013700810c2000db
:10298800810f500004003200c10c2000810f50005c
:10299800620032009201370008c9bf000080fb00c6
:1029a8004700dd006500400031ef200061407800fd
:1029b800e14f40000b003a0008c9bf000080fb004f
:1029c8004700dd006600400031ef200061407800dc
:1029d800e14f400003003a00c08280000020a000c0
:1029e800c0828800c08280000070a000c082880079
:1029f8001e4090000004e0002400320008c9bf0017
:102a08000080fb00c700dd0020ef200000804000b0
:102a18000000e800630040002200200080007800e9
:102a28002006210037f8070008c9bf000080fb0016
:102a38004700dd00e700400020ef20000080400054
:102a48000000e800d082880008c9bf000080fb00b1
:102a58004700dd0021ef200061407800f34050007e
:102a6800e00521000148780008c9bf000080fb008c
:102a78004700dd00ef00400020ef2000008040000c
:102a88000000e800e08288005801370008c9bf004c
:102a98000080fb00c700dd0020ef20000080400020
:102aa8000000e80067004000220020008000780055
:102ab8002006210013f8070008c9bf000080fb00aa
:102ac8004700dd00e900400020ef200000804000c2
:102ad8000000e800d082880008c9bf000080fb0021
:102ae8004700dd0021ef200061407800f5405000ec
:102af800e00521000148780008c9bf000080fb00fc
:102b08004700dd00f100400020ef20000080400079
:102b18000000e800e082880034013700c0828000ad
:102b28000070a000c08288001e4090000004e000f1
:102b38002400320008c9bf000080fb00c700dd0088
:102b480020ef2000008040000000e8006300400003
:102b5800220020008000780020062100e9f7070005
:102b680008c9bf000080fb004700dd00ed00400001
:102b780020ef2000008040000000e800d08288009c
:102b880008c9bf000080fb004700dd0021ef2000de
:102b980061407800f9405000e005210001487800c4
:102ba80008c9bf000080fb004700dd00f5004000b9
:102bb80020ef2000008040000000e800e08288004c
:102bc8000a01370008c9bf000080fb00c700dd000c
:102bd80020ef2000008040000000e8006d00400069
:102be800220020008000780020062100c5f7070099
:102bf80008c9bf000080fb004700dd00ef0040006f
:102c080020ef2000008040000000e800d08288000b
:102c180008c9bf000080fb004700dd0021ef20004d
:102c280061407800fb405000e00521000148780031
:102c380008c9bf000080fb004700dd00f700400026
:102c480020ef2000008040000000e800e0828800bb
:102c5800e6003700c08280000020a000c082880003
:102c6800c08280000070a000c08288001006210089
:102c780011c0b3000148780008c9bf000080fb00fc
:102c8800c700dd0020ef2000008040000000e800c1
:102c98006300400022002000800078002006210008
:102ca80098f7070008c9bf000080fb004700dd0057
:102cb800e500400020ef2000008040000000e80010
:102cc800d082880008c9bf000080fb004700dd00f3
:102cd80021ef200061407800eb405000e005210022
:102ce8000148780008c9bf000080fb004700dd00ec
:102cf800e700400020ef2000008040000000e800ce
:102d0800e0828800b900370008c9bf000080fb00d6
:102d18004700dd006500400031ef20006140780089
:102d2800e14f40000b003a0008c9bf000080fb00db
:102d38004700dd006600400031ef20006140780068
:102d4800e14f400003003a00c08280000020a0004c
:102d5800c0828800c08280000070a000c082880005
:102d68001006210011c0b300014878001e409000f1
:102d78000004a2000004e0002400320008c9bf00db
:102d88000080fb00c700dd0020ef2000008040002d
:102d98000000e80067004000220020008000780062
:102da8002006210057f7070008c9bf000080fb0074
:102db8004700dd00e900400020ef200000804000cf
:102dc8000000e800d082880008c9bf000080fb002e
:102dd8004700dd0021ef200061407800ef405000ff
:102de800e00521000148780008c9bf000080fb0009
:102df8004700dd00eb00400020ef2000008040008d
:102e08000000e800e08288007800370008c9bf00a9
:102e18000080fb00c700dd0020ef2000008040009c
:102e28000000e800630040002200200080007800d5
:102e38002006210033f7070008c9bf000080fb0007
:102e48004700dd00e700400020ef20000080400040
:102e58000000e800d082880008c9bf000080fb009d
:102e68004700dd0021ef200061407800ed40500070
:102e7800e00521000148780008c9bf000080fb0078
:102e88004700dd00e900400020ef200000804000fe
:102e98000000e800e082880054003700c08280000b
:102ea8000070a000c08288001006210011c0b30085
:102eb800014878001e4090000004e0002400320021
:102ec80008c9bf000080fb00c700dd0020ef20001c
:102ed800008040000000e80063004000220020005d
:102ee800800078002006210006f7070008c9bf0007
:102ef8000080fb004700dd00ec00400020ef2000d0
:102f0800008040000000e800d082880008c9bf00a7
:102f18000080fb004700dd0021ef200061407800c1
:102f2800f3405000e00521000148780008c9bf00bf
:102f38000080fb004700dd00ef00400020ef20008c
:102f4800008040000000e800e08288002700370089
:102f580008c9bf000080fb00c700dd0020ef20008b
:102f6800008040000000e8006c00400022002000c3
:102f78008000780020062100e2f6070008c9bf009b
:102f88000080fb004700dd00ee00400020ef20003d
:102f9800008040000000e800d082880008c9bf0017
:102fa8000080fb004700dd0021ef20006140780031
:102fb800f5405000e00521000148780008c9bf002d
:102fc8000080fb004700dd00f100400020ef2000fa
:102fd800008040000000e800e0828800030037001d
:102fe800810007000040eb007d00370008c9bf00e2
:102ff8000080fb004700dd0031ef200061407800d1
:103008000080fb00680060000000e0003300320030
:1030180020212900104078000080fb00e40f5000b8
:103028001c003200e40f500007003c00e20f500083
:103038000c003200e20f500010003c00e10f50007d
:103048001a0032001f003700e60f50000b00320054
:10305800e60f500003003500e70f50000d00320066
:1030680018003700e005210010407800f5405000b6
:10307800e00521000148780012003700e005210032
:1030880010407800ed405000e0052100014878002c
:103098000c003700e005210010407800e94050009e
:1030a800e00521000148780006003700e00521000e
:1030b80010407800e5405000e00521000148780004
:1030c80000000000e082800065004000e082880087
:1030d800c08280000030a000c082880008c9bf00fc
:1030e8000080fb004700dd0031ef200061407800e0
:1030f8000080fb0067006000e10f5000050032000f
:10310800e30f5000080032000000e0000b0032001e
:103118000f003700c08280000000a1000010a1004d
:10312800c08288000d003700c08280000000a00027
:103138000010a100c082880008003700c08280000b
:103148000000a0000010a000c08288000300370023
:10315800250007000040eb002100370008c9bf0028
:103168008080fb0008c9bf000080fb004700dd002d
:1031780022ef2000624078000080fb000080e90018
:10318800c708dd000080400031ef2000e1407800f2
:10319800000621000148780008c9bf008080fb00b4
:1031a80008c9bf000080fb004700dd0022ef2000b7
:1031b800624078000080fb000000e900c708dd00dd
:1031c8000080400031ef2000e1407800f005210048
:1031d8000148780010c0b300010037000040eb0040
:1031e8000080fa00000006000000fa0008c9bf00cd
:1031f800e14f500007003e0008c9bf000080fb00f7
:1032080021ef20004700dd00008040008040eb00f7
:10321800014878000080fa00000006001800fa0053
:103228006007980071079800020f9800130f980024
:10323800240f9800655798000040eb00104798004d
:103248000040eb00204798006e009000640060008a
:103258000000e0000200320010c0b30000579800e0
:103268006e009000680060000000e000020032007c
:103278000040eb00105798006e009000630060005b
:10328800e10f500003003a0030c0b3002047980017
:10329800060037006e009000630060000000e00048
:1032a80002003a0010c0b300204798009e08900022
:1032b80030438000808f50000c003a00304380007b
:1032c800e10f40000900320050c0b300004f780001
:1032d800ae40900000c4b30000c0700020479800c2
:1032e80010c0b300304798000400370070c0b30026
:1032f800004f78000040eb00304798000e509000d7
:103308000004e000020032001ecfe800020037008f
:103318009e40780068cf40001e5090000004e000f6
:10332800020032001ecfe800020037009e417800fc
:1033380068cf41006e009000680060000000e00067
:10334800030032002e4090000034a000204798006f
:10335800ee00900000022000008060000000e00005
:10336800080032006e009000640060000000e00079
:1033780004003a00ae40900000c2b30000c07000e4
:10338800204798006e00900063006000e30f500033
:103398000b003a000040eb002047980070c0b300d3
:1033a800004f78000040eb003047980010c0b30091
:1033b800105798006e0090000050a1006007980018
:1033c8001e4090000080fb009e4090008140e80075
:1033d800114798009e40780015fc07006e00900089
:1033e800680060000000e0000a0032006e509000a3
:1033f8001e404000e54040001e4090000080fb0059
:103408001e4190000241e8001247980008fc07009e
:10341800080037006e5090009e4040001e4090000b
:103428000080fb001e4190000241e800124798000e
:10343800fffb07001e4090000080fb009e409000ac
:103448008140e80011479800ae409000f8fb070063
:103458006e00900063006000e30f500012003a0015
:103468001e4090000080fb009e4090008140e800d4
:103478001147980001c8b300edfb070060c8bf0002
:10348800804078000040e80060e8b7001e409000e7
:103498000080fb001e4190000241e800124798009e
:1034a800e3fb0700870037000e5090000004e0009f
:1034b8000b0032001e5090000004e00008003200ab
:1034c8001e4090000080fb009e4090008140e80074
:1034d8001147980081c8b300d5fb070025003700c5
:1034e8000e5090000004e0000c0032001e509000c6
:1034f8000004a2000004e000080032001e40900012
:103508000080fb009e4090008140e8001147980031
:1035180081ccb300c6fb0700160037000e509000a0
:103528000004a2000004e0000b0032001e509000ce
:103538000004e000080032001e4090000080fb00fc
:103548009e4090008140e80011479800c1c8b30030
:10355800b7fb0700070037001e4090000080fb0003
:103568009e4090008140e80011479800c1ccb3000c
:10357800affb070060c8bf00804078000040e8004b
:1035880060e8b7001e4090000080fb001e419000dc
:103598000241e80012479800a5fb0700ae509000d2
:1035a8001e4090000080fb001e4190000241e80090
:1035b800124798009efb0700be5090001e409000e6
:1035c8000080fb001e4190000241e800124798006d
:1035d80097fb07006e009000640060000000e000a8
:1035e8000f0032001e4090000080fb009e409000bb
:1035f8008140e8001147980080c0eb008cfb070071
:103608001e4090000080fb009e4090008140e80032
:103618001147980080c0eb0085fb070029003700a0
:103628000e5090000004e000120032007e0090006e
:10363800904078001e4090000080fb001e419000e2
:103648000241e8001247980079fb07007e009000cd
:103658000000e800904078001e4090000080fb00c9
:103668001e4190000241e8001247980070fb0700d5
:10367800140037000040eb00204798000e00370088
:10368800fe0090002e4090000080fb00008040006b
:10369800904078001e4090000080fb001e41900082
:1036a8000241e8001247980061fb07002e40900095
:1036b8000040e800204798002e409000e74f500057
:1036c800efff36003e4090000004a2000004e00036
:1036d8001100320030438000804078001e40900086
:1036e8000080fb001e4190000241e800124798004c
:1036f8004ffb0700304380004800de008040780020
:103708001e4090000080fb001e4190000241e8002e
:103718001247980046fb07001e5090000004e00086
:103728001200320040438000804078001e40900024
:103738000080fb001e4190000241e80012479800fb
:103748003bfb0700404380004800de0080407800d3
:103758001e4090000080fb001e4190000241e800de
:103768001247980032fb0700140037000040eb00b6
:10377800204798000e003700714280002e409000cc
:103788000080fb0000804000904078001e409000c0
:103798000080fb001e4190000241e800124798009b
:1037a80023fb07002e4090000040e80020479800c7
:1037b8002e409000e74f5000efff36006e0090005b
:1037c800680060000000e0003f0032000040eb00ad
:1037d8002047980015003700804280009142800001
:1037e8002e4190000281fb004311dd008201780028
:1037f8008301e900030033008100d1000080d30079
:10380800fbff3700804078001e4090000080fb00de
:103818001e4190000241e8001247980004fb07008f
:103828002e4090000040e800204798002e4090006d
:10383800e34f5000e8ff360080428000914280004c
:1038480061004000e0804800804288009142880082
:1038580030212900904078001e4090000080fb0035
:103868001e4190000241e80012479800f0fa070054
:103878000040eb00204798000b0037002e409000d6
:103888000080fb0021202900e14078002e409000b4
:103898000080fb000028b000e5fa07002e409000e9
:1038a8000040e800204798002e409000ef4f50005d
:1038b800f2ff36002021290010407800804078006f
:1038c80090c5b300fefa07000040eb0020479800bf
:1038d8000e0037002e4090000080fb00ae089000dc
:1038e80000804000904078001e4090000080fb005f
:1038f8001e4190000241e80012479800ccfa0700e8
:103908002e4090000040e80020479800ae4090000c
:103918006e50900080cf5000eeff39006a08a80072
:10392800ee00900000022000008060000000e0002f
:10393800080032006e009000640060000000e000a3
:1039480004003a0050c0b300204798006a28a80035
:103958000300370010c0b300204798006a28a90068
:103968006e009000680060000000e0000300320074
:103978002e4090000014a00020479800ae40900010
:1039880070c3b300cefa070064004700022907009d
:103998000100370000000000d11680000010200050
:1039a800008060000000e00001003a008680a80066
:1039b8006ac8bf00614060000004e00009003a00e6
:1039c8006ac8bf00644060000004e00003003200e1
:1039d8006a48a9000040eb001500370010c0b3008a
:1039e8001300370068004700eb2807004e019000dd
:1039f800de0190002e009000be00900000015100f2
:103a0800818159008002200001002000800f5100b0
:103a1800818f5900dfff360000fb07006186200018
:103a280080862000e70007006a08a9000040eb0034
:103a38000080fa00000006000400fa002047980001
:103a480001c8b300d0c7b3009dfa0700c0c7b300d0
:103a5800b5fa0700004f780003003700c0c7b3006d
:103a6800b1fa0700004f78001e80fb00610060007b
:103a78000000e000f9ff320000212000c4fa07002e
:103a8800004f780001c4b300d0c7b3008cfa070018
:103a98001e4078000080fa00000006001000fa00be
:103aa800204f98002e4890000080fb000000e000a6
:103ab80004003200f10f2000810f50000f00320087
:103ac8005f003700d662a90041c0b30050c5b300fb
:103ad8007bfa070001c8b30050c4b30078fa0700a6
:103ae80001c6b300b0c1b30075fa070001c8b3003e
:103af800b0c6b30072fa070053003700d662a800b8
:103b08000e80e800a428070001003700000000002c
:103b180066004700a02807003e019000ce019000f3
:103b28001e009000ae0090000000510081805900f6
:103b380030079800410798003e019000ce019000a0
:103b48004006200001002000800f5100818f59009d
:103b580005003600b1fa0700618620008086200043
:103b6800980007000b00370020c6b3006efa070064
:103b7800004f78009e80fb00000420000080600059
:103b88000000e000e1ff3200000000000100370003
:103b9800000000006c0047007f2807006e019000bd
:103ba800fe01900032079800430798003e019000fc
:103bb800ce0190001e009000ae0090000000510061
:103bc8008180590030079800410798003e01900015
:103bd800ce0190004006200001002000800f510017
:103be800818f5900050036008cfa07006186200095
:103bf80080862000730007000a003700f0202000ac
:103c080063fa0700004f78009e80fb00000e20003a
:103c180080806000000a2000808f5000dcff3a009e
:103c28000000000041c0b300d0c6b30024fa07006a
:103c38008040eb00d0c6b30021fa0700020037002d
:103c48000040eb000100370010c0b3000080fa000c
:103c5800000006000200fa00004f780011479800a3
:103c68001e407800ea4f5000030036001e407800de
:103c7800fa4f5000020036000040eb0012003700f7
:103c88001e41780041862000824878001e80fb0093
:103c98006b0050004400dd00004078003040b30065
:103ca8008040780000202000e1f9070041c0b300ff
:103cb800d0c6b30002fa07008040eb00d0c6b300bc
:103cc800fff9070010c0b3000080fa0000000600ea
:103cd8000400fa00204798002e4090008080fb00e6
:103ce800a000200000017800110009008280d8009f
:103cf8008000fd00104798002e4090008080fb0057
:103d0800a000200000017800110009008280d8007e
:103d180080407800600020000008dd00004f780037
:103d28001e409000e54f50000300360081c3b300e9
:103d38001ecf40001d0037001e409000e44f500089
:103d48000300360002c3b3001e4f410017003700be
:103d58001e409000e34f50000300360081c2b300bc
:103d68001ecf4000110037001e409000e24f500067
:103d78000300360002c2b3001e4f41000b0037009b
:103d88001e409000e14f5000030036009e4078002e
:103d980078cf4000050037001e4090000004e00086
:103da800020032001e417800704f41009e407800aa
:103db800302020009ef9070010c0b3000080fa00f0
:103dc800000006000400fa00000f780011079800b0
:103dd800220020009e0078008086200049f307001a
:103de800220020009e0090006086200045f3070016
:103df80040438000004078008040780070c0b300e5
:103e0800aff90700404380004800de00004078001a
:103e18008040780090c0b300a9f9070030438000c3
:103e2800004078008040780030c0b300a4f9070053
:103e3800304380004800de00004078008040780071
:103e480050c0b3009ef9070010c0b3000080fa000c
:103e5800000006000800fa002007980031079800c3
:103e68002e019000be0190006242880073428800d3
:103e7800300880000040780060e8b700b0c0b300a8
:103e880064e8b700e5f907006a68ef000040eb0056
:103e9800004f7800070037001e80fb0021ef20004c
:103ea8004700dd00008040008040eb0001487800ba
:103eb8001e4fe8001e407800e14f5000f6ff360024
:103ec80010002000010020008042880091428800f4
:103ed8000000eb00100798000040eb00004f78004e
:103ee8000e0037001e0090000000400010079800e8
:103ef8000040eb00d0fe07000080fb00610060007e
:103f08009e0090000100700010079800a00020009b
:103f180001002000a02807001e4fe8001e4078007e
:103f2800ef4f5000efff36001e009000cf2607002d
:103f3800052707000040780060e8b70010c0b3000c
:103f48000080fa000000060000a0fe003600f8001d
:103f5800849fbe00869fbe00889fbe003400f80084
:103f680004002000a40188000c00fa00b0048000be
:103f7800700060000000e0007f0132003004800023
:103f8800700060000000e0007b0132008680a9001c
:103f980020c6b30064f90700104f98001e4890002f
:103fa800614060000004e000100032006a08a900c7
:103fb8006228ef006ac8bf00624060000004e000a9
:103fc8000a00320080c4b30057f907003047980050
:103fd8003e4090000080fb00610060000000e000af
:103fe800010034006a48a8006a28a9001e48900009
:103ff800684060000004e000fe00320000c0eb00f2
:10400800204798000040eb00004f78000a00370076
:104018001e80fb004700dd0021ef20006140780092
:104028000004e00003003a009e4078002147980011
:10403800040037001e4fe8001e407800e14f500092
:10404800f3ff36002e409000e14f5000e4003e00a0
:104058006ac8bf00684060000004e0009d003200ac
:10406800e0c5b30030f90700404798006a68a90026
:104078004e4090000080fb00620060000000e000fd
:104088000400320011c0b300b0c1b3000cf907003e
:10409800d800370060c0b300004f7800103020000f
:1040a8003bf90700504798005e4090008080fb0075
:1040b80000042000008060000000e00001003a00d9
:1040c8001ecfe8002030200031f907005047980043
:1040d8005e4090000080fb006c006000ec0f500018
:1040e80003003a009e40780068cf40000100370086
:1040f8001ecfe8000040eb00104798000f00370083
:104108001e4090000084fb001e80fb000130200050
:10411800808040001e4090000080fb00008040002e
:104128001bf90700418520008880400080487800fe
:104138001e4090000040e800104798001e40900084
:10414800e74f5000eeff3600c0852000300798008a
:104158000040eb00104798000f0037001e40900009
:104168000080fb00be009000008440001e80fb0021
:1041780081302000808040001e4090000080fb00bd
:104188000080400002f90700004c78001e409000b3
:104198000040e800104798001e409000e34f500090
:1041a800eeff36000040eb00004f78001a003700a1
:1041b8001e80fb007200b90000007800f00040008b
:1041c80020ff200000804000100078004700de003b
:1041d800614060000004e0000e0032001e80fb0019
:1041e800428520007200b900000078006800400095
:1041f80021ff2000008040003202be002203be00e2
:104208005001be004000be001e0907000004e00087
:1042180005003a001e4fe8001e407800e44f5000a9
:10422800e3ff360001003700000000001e40780060
:10423800e44f500030003e001e80fb007200b900c1
:104248008000780020ff2000008040001001be00a0
:10425800e0428000f1428000800f5100818f5900b8
:104268000400360011c0b300b0c1b30094f80700d1
:1042780060003700e2428000f34280000080eb00db
:104288008080eb00800f5100818f590008003a00b0
:104298001e80fb007200b9008000780020ff20001b
:1042a800008140006000b8000089be00120037009d
:1042b8001e81fb00e0428000f14280007211b900cb
:1042c8008201780022ff2000028141000089be009f
:1042d800090037006ac8bf00704060000004e000b1
:1042e800050032006a88a90011c0b300b0c1b3004c
:1042f80073f807003f00370041c0b30030c7b30070
:104308006ff807002e4090000084fb00003020006a
:104318009ff8070080c0e80022ef20004740dd003a
:1043280000004100014878002e4090000080fb000a
:104338004700dd0021ef2000e1407800e0c7b3002e
:1043480080cf50001f003e006aa8a80010c0b3002c
:10435800004f78000d0037002e4090008084fb004d
:104368001e80fb000004e9001e80fb000030b00046
:1043780087f8070032ef2000c748dd00888040003a
:1043880081004100804878001e4fe8009e80fb00b5
:104398002e4090000080fb004700dd0022ef200047
:1043a800624078000080fb000080e800808f5000a9
:1043b800e9ff340011c0b300b0c1b30040f80700f2
:1043c8000300370011c0b300b0c1b3003cf80700c8
:1043d8008040eb0030c7b30039f80700050037000c
:1043e80011c0b300b0c1b30035f807006a68a9006e
:1043f8006a88a9001e489000704060000004e00030
:104408005d0032006ac8bf00614060000004e0003f
:10441800080032006a88a80001c8b30090c5b3003c
:1044280027f8070011c0b300b0c1b30024f8070093
:104438005100370060c0b300004f780010302000f2
:1044480053f80700004f98000e4890008080fb004a
:1044580000042000008060000000e00001003a0035
:104468001ecfe8002030200049f80700004f9800d0
:104478000e4890000080fb006c006000ec0f5000bc
:1044880003003a009e40780068cf400001003700e2
:104498001ecfe8000040eb001047980007003700e7
:1044a8001e4090000080fb001030b00038f8070074
:1044b8001e4090000040e800104798001e40900001
:1044c8008080fb001e80fb006a004000808f500047
:1044d800f3ff35001e80fb00c030b0002cf8070049
:1044e8001047980030212900104078009e40900025
:1044f80080cf50000400320001c8b30090c5b3005b
:10450800eff707006a88a8006ac8bf00704060001b
:104518000004e00018003a000040eb00004f78006b
:10452800070037001e80fb0021202900e1407800a9
:104538001e80fb00002bb000bdf707001e4fe800ef
:104548001e407800ef4f5000f6ff36006a68a8005a
:1045580020212900104078000080fb004300dd0086
:104568008040780000c4b30000c07000804078002c
:1045780090c5b300d2f707000080fa003400f900b4
:104588004f04be004f03be004f02be003600f900c4
:104598000080fe00004006000000fa000029ef003d
:1045a8000229ef000080fa00000006000a00fa0065
:1045b80010079800210798003207980043079800d1
:1045c80000c0eb00104798000040eb00004f780057
:1045d800360037001e80fb007100b900000078002b
:1045e8006a004000f1d92000614078000080fb009b
:1045f80061006000004078000004e0002a003200fa
:104608001e80fb007100b90080007800e0d920000e
:10461800008240009482fb00144390000683fb0054
:104628004833dd008682720005007800a4429000bd
:104638008582fb00344390000683fb004833dd008d
:104648008682720085007800c44290008582fb0053
:10465800544390000683fb004833dd0086827200d5
:1046680005017800e44290008582fb0074429000c6
:104678000482fb004822dd00048272008401780075
:104688001e029000ae0290003e039000ce03900000
:10469800fc0707000004e000030032009e40780099
:1046a80011479800040037001e4fe8001e407800ac
:1046b800f34f5000c7ff36001e4090000080fa00fc
:1046c800000006000e00fa00200798003107980045
:1046d8004207980053079800640798000080eb0091
:1046e800000f78002e009000be0090004e01900050
:1046f800de019000adff0700204798002e40900093
:10470800e14f4000220032002e4090000080fb0064
:104718007100b900000078006a004000f1d920005b
:10472800614078000080fb00620060000000e0004b
:10473800170034002e4090000080fb007100b90083
:1047480000007800ec004000e0d920000080400024
:10475800904090008180fb00204090000080fb008a
:104768004800dd0000807000000f78009e80ea009d
:104778006e009000808f5000030031000080eb0035
:10478800000f7800020037006e0090001e0f4000f6
:104798001e0078000080fa00000006001000fa00f1
:1047a8006007980071079800fe00900090002000b4
:1047b80000017800110009008280d80040079800a5
:1047c8000000eb00500798004e009000e50f5000e5
:1047d800020036005000200040079800200020000a
:1047e800100798000000eb00300798000000eb006d
:1047f800000f7800410037003e0090000000e800fc
:1048080030079800004880001e0040008000e80043
:104818004001200000017800110009008280d800c2
:104828008000fd00200798002e0090007100b9005c
:10483800000078006a004000f1d92000614078004b
:104848000080fb0061006000004078000004e00088
:10485800290032002e0090007100b9000000780095
:104868006a004000f1d92000614078000080fb0018
:10487800620060000000e0001f003200e006070050
:104888000081fb002e0090007100b90080007800c4
:10489800e0d9200080804000ee0190001e009000ca
:1048a8000080410097f00700d50607000080fb0054
:1048b8009e0090000080400010079800ee009000d5
:1048c8001e009000008140002e0090007100b90089
:1048d800000078006c004000e1d9200061407800b9
:1048e800004978001e0090000000e80010079800ba
:1048f800ae009000510798001e0fe8004e0090008f
:104908009e007800808f5000bbff39005e01900048
:10491800024888001048800000417800ee009000ae
:10492800824878000000e800104888006e00900077
:104938000000e800ae00900081407800014878004f
:10494800ee0090001e009000008040000080fa00f9
:10495800000006000c00fa002007980031079800b4
:1049680042079800530798002e009000be00900060
:104978004e019000de0190000cff07000080fb0054
:10498800000f78001000200010079800f00f20009a
:104998009e007800808f50000f0032001e007800c3
:1049a8007100b900000078006a004000f1d92000c9
:1049b80061407800004178000234a0001e007800b1
:1049c800f3d920007100b900000078000080410090
:1049d8006a004000024878001e0090000080fa003b
:1049e800000006000c00fa00200798003107980024
:1049f80042079800530798002e009000be009000d0
:104a08004e019000de019000e8fe07000080fb00e8
:104a18001007980010002000000f78009e009000fa
:104a2800f00f2000808f5000110032001e0090000f
:104a38007100b900000078006a004000f1d9200038
:104a4800e140780070cfb30000c160001e00900004
:104a5800f3d920007100b9000000780000804100ff
:104a68006a004000024878000000eb00000f780060
:104a78001e0078000080fa00000006000e00fa0010
:104a8800300798004107980052079800630798007c
:104a980010002000000f78003e009000ce0090002b
:104aa8005e019000ee019000c0fe07000080fb0050
:104ab800100798009e009000f00f2000808f500093
:104ac8000e0032001e0090007100b90080007800ce
:104ad800e0d9200000804000200798002e009000b8
:104ae8008040eb00015098002e0090008040eb00c1
:104af800714898000000eb00000f78001e00780055
:104b08000080fa00000006000c00fa002047980018
:104b1800240798003507980046079800570798001b
:104b28002e4090000080fb007100b90080007800e2
:104b3800e0d92000008f40001e0078002e01900070
:104b4800f10f200081006100104178006041610090
:104b58008140710001487800ae009000c808de006e
:104b6800104190006041610081407100114098003f
:104b78003e019000f10f200081006100204190006b
:104b8800604161008140710021409800be009000a2
:104b9800c808de003041900060416100814071002a
:104ba800314098004e019000f10f20008100610013
:104bb800404190006041610081407100414098008f
:104bc800ce009000c808de005041900060416100ae
:104bd80081407100514098005e019000f10f200063
:104be8008100610060419000604161008140710076
:104bf80061409800de009000c808de007041900017
:104c08006041610081407100714098001e00780089
:104c18008040eb00014898001e0078008040eb00bf
:104c2800114898001e0078008040eb002148980049
:104c38001e00780051c0b300314898001e0078006b
:104c48008040eb00414898001e007800d048900052
:104c5800e0c0600051489800e0489000e0c0600063
:104c6800614898000080fa00000006001400fa006d
:104c780020579800f00f200030079800f00f200010
:104c8800100798000000eb00200798000000eb00d8
:104c9800000f7800650037001e0078007100b90029
:104ca800000078006a004000f1d9200061407800d7
:104cb8000080fb00610060000000e000530032004b
:104cc8001e0078007100b900000078006a004000fa
:104cd800f1d92000614078000080fb00620060008c
:104ce8000000e0004b0032001e0078007100b9009f
:104cf800000078006a004000f1d920006140780087
:104d08000080fb00680060000000e00043003a00fb
:104d18006a004700700607001e0078007100b9009d
:104d280080007800e0d92000008240009482fb00d7
:104d3800144390000683fb004833dd00868272002e
:104d480005007800a44290008582fb00344390005f
:104d58000683fb004833dd008682720085007800f8
:104d6800c44290008582fb00544390000683fb00f8
:104d78004833dd008682720005017800e442900025
:104d88008582fb00744290000482fb004822dd000b
:104d980004827200840178005e029000ee029000a6
:104da8007e0390008e0b9000360607000004e0009a
:104db8001c003a001e0078007100b900000078005d
:104dc800ec004000e0d920000080400090409000b6
:104dd8008180fb00204090000080fb004800dd003f
:104de8000080700040079800ce0090002e009000d0
:104df800808f50000c0039009e0078001107980041
:104e0800ce0090002107980007003700000000003e
:104e18000500370000000000030037000000000014
:104e280001003700000000001e0fe8001e00780097
:104e3800f30f500098ff36002e5090008080fb0042
:104e48002e009000808f500003003e009e009000ce
:104e58003107980002003700f00f20003007980053
:104e68003e0090000080fa00000006000400fa00ee
:104e7800f00f2000100798000000eb00000f7800ea
:104e88000f0037001e0078007100b900000078009c
:104e98006a004000f1d92000614078000080fb00e2
:104ea80061006000004078000004e00003003a0060
:104eb8009e00780011079800040037001e0fe800d4
:104ec8001e007800f30f5000eeff36001e00900021
:104ed8000080fa00000006000e00fa002007980083
:104ee8003107980042079800530798006407980014
:104ef80010002000000f78002e009000be009000e7
:104f08004e019000de019000a8fd070020479800a0
:104f18002e409000e14f4000030032000000eb00fb
:104f2800000f780066003700d0ff07002047980080
:104f38002e409000e14f40001d0032002e029000ec
:104f4800be0290004e039000de0390002e409000b9
:104f5800edfe07002e4090000082fb002e409000de
:104f68000080fb007100b900000078006a00400072
:104f7800f1d92000e14078006e00900000417800ef
:104f8800400020000010dd0000c17000f3d92000af
:104f98007120b90000007800008041006a004000dc
:104fa800024878000000eb00000f7800440037004a
:104fb800a0c0b3002dff0700204798002e409000a6
:104fc800e14f40003e0032002e4090000080fb0080
:104fd8007100b90080007800e0d92000008240000c
:104fe8009482fb00144390000683fb004833dd00e5
:104ff8008682720005007800a44290008582fb003a
:10500800344390000683fb004833dd00868272003b
:1050180085007800c44290008582fb0054439000cc
:105028000683fb004833dd008682720005017800a4
:10503800e44290008582fb00744290000482fb00e9
:105048004822dd000482720084017800200e0700e7
:105058002e029000be0290004e039000de039000e6
:105068002e409000a8fe07002e4090000082fb0012
:105078002e4090000080fb007100b900000078000d
:105088006a004000f1d92000e14078006e009000ed
:1050980000417800400020000010dd0000c17000d1
:1050a800f3d920007120b900000078000080410089
:1050b8006a004000024878000000eb00000f78000a
:1050c8001e0078000080fa00000006000400fa00c4
:1050d800204798000080eb00000f78002e409000d9
:1050e8000004e0000d0032002e4090000080fb001c
:1050f800419c200000017800110009008200d800be
:10510800000f7800a00f20009e007800808f5000cc
:10511800020036000080eb00000f78001e007800c7
:105128000080fa00000006000400fa00000f780072
:10513800110798001e007800d04890008180fb007d
:10514800604890000080fb004800dd00008070008f
:10515800c200dd001e0090000080400000004000fa
:1051680080007800a00020000001780011000900ec
:105178008280d800800078001e007800f20f20009e
:1051880002816000d0499000e0c1610002c1710055
:1051980052489800c808de006049900060416100ec
:1051a80081407100614898000080fa000000060004
:1051b8001000fa004007980051079800620798000d
:1051c8007307980030c0b300104798000040eb0008
:1051d800004f7800980037001e80fb007100b9006e
:1051e80080007800e0d92000008040001007980077
:1051f8001e0290009482fb00144390000683fb007b
:105208004833dd008682720005007800a4429000d1
:105218008582fb00344390000683fb004833dd00a1
:105228008682720085007800c44290008582fb0067
:10523800544390000683fb004833dd0086827200e9
:1052480005017800e44290008582fb0074429000da
:105258000482fb004822dd00048272008401780089
:105268004e029000de0290006e039000fe03900054
:10527800040507000004e0006e0032001e009000e4
:10528800304890000080fb0061006000004078001a
:105298000004e000670032001e0090009048900073
:1052a8001e0090002048900000c040004047980031
:1052b8001e009000304890000080fb0062006000f3
:1052c8000000e00027003a001e00900010489000ff
:1052d8000080fb008000eb00a20f20000289b900cb
:1052e800020178006002b9008401780003014100de
:1052f800a30f20000300b8000101410082007800dc
:105308004e4190000281fb008001eb0092ec070007
:10531800300798003e009000804078001e00900002
:10532800414898001e0090004048900067ff070021
:10533800800078001e009000f20f200002816000bb
:10534800d0499000e0c1610002c171005248980044
:10535800c808de006049900060416100814071002a
:10536800614898001e009000304890008040780006
:105378000114a0001e009000314898001e00900003
:10538800104890000080fb008000eb00a20f200076
:105398000289b900020178006002b900840178002e
:1053a80003014100a30f20000300b80001014100e0
:1053b800820078004e4190000281fb008001eb00e2
:1053c80065ec0700300798001e00900040489000e8
:1053d8000080fb00c200dd003e009000008040001d
:1053e8000000400080007800a00020000001780044
:1053f800110009008280d800804078001e009000cb
:10540800414898001e0090008040eb001148980029
:105418001e0090008040eb00214898001e0090007c
:105428004048900029ff0700800078001e00900087
:105438003dff07001e4fe8001e407800f34f500064
:1054480065ff36000080fa00000006000600fa003a
:105458002047980031479800220798002e40900076
:105468000080fb007100b900000078006a0040006d
:10547800f1d92000614078000080fb0064006000e2
:105488000000e000110032002e4090000082fb0076
:105498002e4090000080fb007100b90000007800e9
:1054a8006a004000f1d92000e1407800b0cfb30095
:1054b80000c16000f3d920007120b9000000780015
:1054c800008041006a004000024878002e409000a9
:1054d8000082fb002e4090000080fb007100b900a4
:1054e800000078006a004000f1d92000e14078000f
:1054f8002e00900000417800400020000010dd00e0
:1055080000c17000f3d920007120b90000007800b4
:10551800008041006a004000024878002e40900058
:105528000080fb007100b9000000780068004000ae
:10553800e1d9200061407800be40900000cf5000c3
:105548002e4090000080fb00e2d920007100b900d5
:10555800000078000000410068004000be40900054
:10556800014878002e4090000081fb007110b900be
:105578000000780068004000f1d920006140780000
:105588008041e800f4d920007110b90000007800cb
:105598000000420068004000034878001e40780080
:1055a8000004e000110032002e4090000082fb0051
:1055b8002e4090000080fb007100b90000007800c8
:1055c8006a004000e1d92000614078001e40400098
:1055d8000041e900e3d920007120b90000007800fb
:1055e800008041006a004000024878001e407800b0
:1055f800ea4f5000380036002e4090000080fb0033
:105608007100b90080007800e0d9200000824000d5
:105618009482fb00144390000683fb004833dd00ae
:105628008682720005007800a44290008582fb0003
:10563800344390000683fb004833dd008682720005
:1056480085007800c44290008582fb005443900096
:105658000683fb004833dd0086827200050178006e
:10566800e44290008582fb00744290000482fb00b3
:105678004822dd0004827200840178000203be0023
:105688000002be002e4090001ffd07002e40900033
:105698000080fb00e2d920007100b900000078000a
:1056a8000000410068004000be40900001487800ba
:1056b8002e4090000080fb00f2d920007100b90054
:1056c80000007800000041006800400011c0b300ed
:1056d80001487800380037002e4090000080fb0019
:1056e8007100b9000000780068004000f1d920007e
