:04000000DDEF01F03F
:100008005682E1CF4FF0E2CF50F0D9CF51F0DACF9E
:1000180052F0F3CF53F0F4CF54F0F0B4F0AAB0D1CB
:10002800600E141801E0A7D1280EE6EC99F04B6E8B
:10003800D8904B30166E16C015F08B943CEC9BF0A4
:1000480000016A6F8B846B6B6B51390D000EF324C2
:10005800D96E030EF420DA6EDFA005D000016B2BF9
:10006800010E6B65F1D7020E00016A1903E1010E5A
:10007800676F01D0676B370E6A6107D06A5105E078
:10008800010E6B6512D0675110E11A0EE6EC99F07B
:1000980007D08B943CEC9BF08B841A0EE6EC99F01D
:1000A8000001626F62B3F5D769D1686B6AC060F00E
:1000B800616B5DD16007D8A06107675108E08B9438
:1000C8006851630FD96EDA6A3CEC9BF016D08B94BA
:1000D8006B51390D000E4B6E030E4C6E4B2A000E01
:1000E8004C22F3504B26F4504C2268514B24D96EC5
:1000F800000E4C20DA6E3CEC9BF0DF6E0001682BA2
:100108008B846A51685D01E232D1675123E0635103
:10011800030B020A07E11950641901E02FD1010EFF
:10012800E36F2CD1010E6B6501D0AFD76B51390D40
:10013800010EF324D96E030EF420DA6E63C0DFFFDC
:100148006B51390D020EF324D96E030EF420DA6ECA
:1001580064C0DFFF6B51390D380EF324D96E030EDE
:10016800F420DA6E6AC0DFFF69696B51390D010E40
:10017800F324D96E030EF420DA6EDFAC33D000011D
:100188006C6B28D06C510C24D96E000E0D20DA6EE1
:100198006B51390D000E4C6E030E4D6E030E4C263E
:1001A800000E4D22F3504C26F4504D226C514C2435
:1001B800E16E000E4D20E26EDE50E6180AE06B514B
:1001C800390D380EF324D96E030EF420DA6EDF6A87
:1001D8005CD76C2B0B30E832E8320F0B4B6E4B5070
:1001E8006C5DD0E300016B51390D010EF324D96E1B
:1001F800030EF420DA6EDFAA37D06C6B000E6C2584
:10020800D96EDA6A010EDA226C51630FE16EE26A86
:10021800DFCFE7FF6C2B010E6C65F0D7060E0101EE
:10022800006F00016B51390D020EF324D96E030ED5
:10023800F420DA6EDF500101016FF094376A020E84
:10024800D0EC8FF000016C6B6C51630FD96EDA6AD9
:10025800000E6C25E16EE26A010EE222DFCFE7FFB5
:100268006C2B010E6C65F0D700016C6B6C51060DA0
:10027800000EF324D96E020EF420DA6EDF5026E069
:100288006B51390D020EF324D96E030EF420DA6E89
:100298006C51060D010EF324E16E020EF420E26E9D
:1002A800DE50E61813E123EC97F06C51060D020EB0
:1002B800F324D96E020EF420DA6E2DC0DEFF2EC0B4
:1002C800DEFF2FC0DEFF30C0DEFF12D069290CE14F
:1002D8006C51060D000EF324D96E020EF420DA6E6E
:1002E800DF5002E16CC069F06C2B040E6C65BED760
:1002F800040E6C6543D0050E69612ED06951060D58
:10030800000EF324D96E020EF420DA6E010EDF6EB1
:100318006B51390D020EF324D96E030EF420DA6EF8
:100328006951060D010EF324E16E020EF420E26E0F
:10033800DFCFE7FF23EC97F06951060D020EF32497
:10034800D96E020EF420DA6E2DC0DEFF2EC0DEFF5D
:100358002FC0DEFF30C0DEFF6B51390D000EF324D5
:10036800D96E030EF420DA6E0301DF8007D06051E6
:10037800611104E09FD6010E0001DE6FF09400F0D9
:100388009EB09DA006D09E90222A225002E1000134
:10039800E52B54EC9BF054C0F4FF53C0F3FF52C05C
:1003A800DAFF51C0D9FF50C0E2FF4FC0E1FF5692BB
:0603B800110010EF94F0AB
:10FD90000020B2202020B22020B220B2202020203B
:10FDA00020B220B20D0AB220B220B220B220202010
:10FDB000B22020B22020B220200D0AB22020B22092
:10FDC00020B220B220B22020B22020B220B20D0AF0
:10FDD000B22020B22020B220B22020B220B220B225
:10FDE0002020B20D0AB22020B22020B220B2202062
:10FDF00020B220B2202020B20D0A20202020202076
:10FE0000202020202020202020202020200D0A2E0D
:10FE1000008402090409060C08C10A770C640E323A
:10FE2000100012001400163818C81A0D1C001E729B
:10FE3000203822382407260028002A692C812E7EAB
:10FE4000309632F83488364038003AE83C003E5468
:10FE5000545454545454545454545454545555555F
:10FE60005555555555555555555555555555552D6A
:10FE7000303335383B3E414346494C4F51090C0F16
:10FE80001215171A1D202325282B2E313336390140
:10FE9000000800400000020010008001000A006419
:10FEA00000E80310270100100000010010436F6EEE
:10FEB0006E656374696E67205065657220206F6E91
:10FEC000204368616E6E656C202564200020436FBE
:10FED0006E6E6563746564205065657220206F6E78
:10FEE000204368616E6E656C2025640053696D70F7
:10FEF0006C65205354415220202020204D5246381A
:10FF0000395841204E6F6465005242303A253032F4
:10FF1000642D2530327825303278253032782D6DB9
:10FF200065005242303A253032642D253032782532
:10FF30003032782530327800204164647265737302
:10FF40003A253032782530327825303278005265C3
:10FF500073746F72696E67204E6574776F726B2071
:10FF6000212100446174615F53656E64696E675F4F
:10FF70004661696C212100454E445F444556494322
:10FF80004553203A2530326400303132333435362F
:10FF900037383941424344454600303132333435F5
:10FFA00036373839616263646566005242323A20FE
:10FFB0004368616E6765206E6F64650044617461BB
:10FFC000205061636B65742066726F6D005258201B
:10FFD0004D657373616765733A2025336400545827
:10FFE000204D657373616765733A20253364002083
:10FFF000556E6963617374204661696C65640000C5
:020000040001F9
:100000007D0E936FA0D3250E991909E079C0D9FF11
:100010007AC0DAFF99C0DFFF794B7A2B94D3976BC4
:10002000986B9A6B9B6B09D09A8705D09A8103D005
:100030009B8701D09A857B4B7C2B7BC0F6FF7CC0D5
:10004000F7FF000EF86E0800F550200AEFE0030AF3
:10005000EFE00E0AE9E01D0AEDE09AB79A957BC041
:10006000F6FF7CC0F7FF000EF86E0800F550DCECE0
:100070009AF032E3976B986B97C06DF098C06EF072
:10008000706B0A0E6F6F75EC9AF06DC097F06EC0D2
:1000900098F0D00E856F86697BC0F6FF7CC0F7FFB5
:1000A000000EF86E0800F550876F886B8551872722
:1000B0008651882387519727885198237B4B7C2B27
:1000C0007BC0F6FF7CC0F7FF000EF86E0800F5500D
:1000D000DCEC9AF016E3D0D77BC0F6FF7CC0F7FFCC
:1000E000000EF86E0800F5502A0A0BE19351D96E04
:1000F000DA6ADECF97F0DDCF98F0020E93277B4BC4
:100100007C2B7BC0F6FF7CC0F7FF000EF86E08006A
:10011000F5502E0A36E19B8D7B4B7C2B7BC0F6FF86
:100120007CC0F7FF000EF86E0800F5502A0A0AE1BD
:100130009351D96EDA6ADF50966F020E93277B4B8C
:100140007C2B8ED0966B11D07BC0F6FF7CC0F7FF66
:10015000000EF86E0800F5CF85F096510A0DF350A9
:100160008525D00F966F7B4B7C2B7BC0F6FF7CC028
:10017000F7FF000EF86E0800F550DCEC9AF070E323
:10018000E3D7966B6DD09A8D8AD09A8B9A8F87D051
:1001900096510FE096C085F0866B85BF860791511A
:1001A000855D9251865905E29651916F926B91BF90
:1001B00092079751915D9851925905E29151975F3D
:1001C0009251985B02D0976B986B9AB71DD008D06C
:1001D00079C0D9FF7AC0DAFF200EDF6E794B7A2B17
:1001E0009707D8A098079729F3E198290DE0F0D751
:1001F0009051D96EDA6A79C0E1FF7AC0E2FFDFCFB1
:10020000E7FF902B794B7A2B9107D8A09207912981
:10021000EFE19229EDE19AA796D208D079C0D9FFF3
:100220007AC0DAFF200EDF6E794B7A2B9707D8A0C1
:1002300098079729F3E1982901E185D2EFD79351E7
:10024000D96EDA6ADF50996F020E9327990E906F7C
:10025000000E926F010E916F9BD7C00E9A131FD0A4
:100260007BC0F6FF7CC0F7FF7B4B7C2B000EF86E4B
:100270000800F5CF99F0995101E173D2580A85E051
:100280003B0ADDE0070A0BE00D0A09E0060A01E17E
:100290007AD71A0AE2E00D0A01E178D7D7D79AC0D7
:1002A00085F0C00E851712E19351D96EDA6ADECF60
:1002B00094F0DDCF95F0020E932795AF10D0030E8A
:1002C0009A13946D951FD8B0952B09D09351D96E80
:1002D000DA6ADECF94F0DDCF95F0020E93279651C7
:1002E00050E1945195114DE1962B4BD0010E996F31
:1002F000050E99194FE09951020D9B0EF324F66EED
:10030000FE0EF420F76EF86A000EF8220900F55090
:10031000945D0900F55095593DE3992BE9D7010EFD
:10032000996F040E991936E09951020DA50EF32428
:10033000F66EFE0EF420F76EF86A000EF822090041
:10034000F550945D0900F550955924E3992BE9D7B0
:10035000010E996F060E99191DE09951020D8F0E2D
:10036000F324F66EFE0EF420F76EF86A000EF82203
:100370000900F550945D0900F55095590BE3992B50
:10038000E9D79A51C00BB2E0400AE2E0C00AC7E0E8
:10039000400AACE09951800A856F9651800A855DCC
:1003A00003E296C099F009D09651800A856F995161
:1003B000800A855D02E299C096F09751981108E095
:1003C0009AC085F0030E851703E09707D8A0980719
:1003D0009BAD13D0800E96BF7F0E856F9751965DB3
:1003E0009851800A855907E29651975F000E96BF93
:1003F000FF0E985B02D0976B986BC40E856F080E4A
:10040000866F9AC087F09BC088F085518717865108
:100410008817400E87190AE1080E881907E19751DD
:10042000981124E09707D8A0980720D0C00E856FB8
:10043000080E866F9AC087F09BC088F08551871799
:1004400086518817800E871911E1080E88190EE170
:1004500098BF0AD0985103E1030E975D05E3FE0EA5
:100460009727FF0E982302D0976B986B800E99BF49
:100470007F0E856F9751995D9851800A855907E2E3
:100480009951975F000E99BFFF0E985B02D0976B52
:10049000986B9AA54FD09AC085F0030E851709E096
:1004A00079C0D9FF7AC0DAFF2D0EDF6E794B7A2B37
:1004B00031D09AA106D079C0D9FF7AC0DAFF200ED8
:1004C000F4D7C00E856F080E866F9AC087F09BC068
:1004D00088F08551871786518817800E87191AE191
:1004E000080E881917E179C0D9FF7AC0DAFF300EFB
:1004F000DF6E794B7A2B9ABB03D08B6B780E02D0D0
:100500008B6B580E8A6F79C0D9FF7AC0DAFF8AC028
:10051000DFFFCCD79751981101E1FDD079C0D9FF09
:100520007AC0DAFF300EDF6E794B7A2B9707D8A0AE
:100530009807F0D79751981110E09AB70ED079C06C
:10054000D9FF7AC0DAFF200EDF6E794B7A2B97073E
:10055000D8A0980797519811F2E19AC085F0030E40
:10056000851709E079C0D9FF7AC0DAFF2D0EDF6E5A
:10057000794B7A2B08D09AA106D079C0D9FF7AC0DE
:10058000DAFF200EF4D7C00E856F080E866F9AC072
:1005900087F09BC088F08551871786518817400ED9
:1005A00087190CE1080E881909E179C0D9FF7AC0D2
:1005B000DAFF300EDF6E794B7A2BADD0C00E856F2F
:1005C000080E866F9AC087F09BC088F08551871708
:1005D00086518817800E87191BE1080E881901E0E3
:1005E0009AD079C0D9FF7AC0DAFF300EDF6E794B2E
:1005F0007A2B9ABB03D08D6B780E02D08D6B580E80
:100600008C6F79C0D9FF7AC0DAFF8CC0DFFFD3D7F7
:1006100082D09651020D9B0EF324F66EFE0EF4204E
:10062000F76EF86A000EF8220900F5CF6FF00A00A5
:10063000F5CF70F094C06DF095C06EF0C0EC97F0FF
:100640006DC074F06EC075F0776B0A0E766F23EC98
:1006500098F074514DD094C06DF095C06EF09651E5
:10066000020DA50EF324F66EFE0EF420F76EF86A66
:10067000000EF8220900F5CF6FF00A00F5CF70F0F8
:10068000C0EC97F06D510F0B896F9ABB04D09A0E96
:100690008E6FFF0E03D0890E8E6FFF0E8F6F895104
:1006A0008E25856F000E8F21866F85C0F6FF86C070
:1006B000F7FF000EF86E0800F5CF99F025D094C032
:1006C0006DF095C06EF09651020D8F0EF324F66E0C
:1006D000FE0EF420F76EF86A000EF8220900F5CF3E
:1006E0006FF00A00F5CF70F0C0EC97F06D51070B7A
:1006F000300F996F09D09A51C00B8BE0400ADFE0B0
:10070000C00AA9E0400A85E079C0D9FF7AC0DAFFC3
:1007100099C0DFFF50D796079629EDE19AB798BFA9
:1007200012D0985102E197050EE379C0D9FF7AC043
:10073000DAFF200EDF6E794B7A2B9707D8A0980747
:1007400097519811F2E17BC0F6FF7CC0F7FF7B4B1D
:100750007C2B000EF86E0800F5CF99F0995101E05E
:1007600052D479C0D9FF7AC0DAFFDF6A000C4CECB2
:1007700097F06DC0B3F06EC0B4F06FC0B5F070C04C
:10078000B6F04CEC97F06DC0B8F06EC0B9F06FC029
:10079000BAF070C0BBF0EB5128E101018F510001AC
:1007A000B85DAB6F010190510001B959AC6F010107
:1007B00091510001BA59AD6F010192510001BB592D
:1007C000AE6FE10EAB5D050EAC592D0EAD590B0EA3
:1007D000AE5932E3CCEC96F0B8C08FF1B9C090F1CD
:1007E000BAC091F1BBC092F127D001018B51000139
:1007F000B85DAB6F01018C510001B959AC6F0101BB
:100800008D510001BA59AD6F01018E510001BB59E4
:10081000AE6FAE5107E18D0EAB5D860EAC59470E43
:10082000AD590AE3D4EC98F0B8C08BF1B9C08CF1A3
:10083000BAC08DF1BBC08EF101018B510001B35DD7
:10084000AB6F01018C510001B459AC6F01018D51A6
:100850000001B559AD6F01018E510001B659AE6F5F
:10086000AE5107E18D0EAB5D860EAC59470EAD590A
:100870000CE3EB510AE1A8EC8AF0B3C08BF1B4C0F1
:100880008CF1B5C08DF1B6C08EF1E1A335D04CEC42
:1008900097F06DC0AFF06EC0B0F06FC0B1F070C037
:1008A000B2F001017F510001AF5DAB6F01018051DA
:1008B0000001B059AC6F010181510001B159AD6F18
:1008C000010182510001B259AE6FAE5107E1B50E80
:1008D000AB5DC40EAC59040EAD590EE3E1931E0E90
:1008E0006E6F020E6F6FE6C070F0E7C071F0736B51
:1008F0008C0E726F32EC93F00001E1B71200B2EC93
:100900008BF00009D8B41200106A016A0101000ED0
:1009100073B5010E216E0118FC0B2118016E73A72F
:1009200002D0018601D0019601017351030BE80644
:1009300004E10001AB6BAB2B02D00001AB6BAB3B16
:10094000AB470150AB19DF0BAB19016E010173AF5F
:1009500002D0018C01D0019C010173AF04D074C19D
:1009600004F075C105F078C108F076C106F077C1D2
:1009700007F07AC10AF079C109F001AA89D266D2DA
:100980000001EB510AE1BE6B20EE01F00650D926C2
:100990000750DA22E951DE1803E0CDEC9AF07AD262
:1009A000030EEC19FAE03FEC8DF0BE6F20EE03F081
:1009B0000650D9260750DA22AA0EDE181EE1BC6BBB
:1009C000090EBC6501D019D004C06DF005C06EF0F1
:1009D000BC510E0D220EF3246F6F020EF420706FC7
:1009E000D0EC99F0000907E0690EBC25D96EDA6AEF
:1009F000010EDA22DF68BC2BE3D7EC0507E1BE0568
:100A000005E0020EBE1902E0F30EBE6FE26B930E1C
:100A1000E225D96EDA6A010EDA22910EDF6EE22B40
:100A2000930EE225D96EDA6A010EDA22BEC0DFFF2C
:100A3000E22B930EE225D96EDA6A010EDA2212C099
:100A4000DFFFE22BBE5102E0BE051BE1930EE22563
:100A5000D96EDA6A010EDA22E0C0DFFFE22BBF6B4B
:100A6000BF510FE1BF51550FD96EDA6A930EE225DF
:100A7000E16EE26A010EE222DFCFE7FFE22BBF2B3D
:100A8000EFD7CDEC9AF004C094F005C095F0010EBC
:100A90000001966F000E01B6010E976F000E47EC35
:100AA00092F0A8EC8AF0BE5101E0F4D1DF510E0DB6
:100AB0001E0EF3246E6F020EF4206F6FDF510E0DC9
:100AC000E651F324706FE751F420716F736B0E0ED3
:100AD000726F32EC93F0DED1020E0001EC6501D0B2
:100AE0005CD720EE01F00650D9260750DA22E951F2
:100AF000DE1801E052D7E26B930EE225D96EDA6A76
:100B0000010EDA22970EDF6EE22B930EE225D96EEC
:100B1000DA6A010EDA22E0C0DFFFE22BBF6BBF51C1
:100B20000FE1BF51550FD96EDA6A930EE225E16EDF
:100B3000E26A010EE222DFCFE7FFE22BBF2BEFD705
:100B4000CDEC9AF004C094F005C095F0010E0001C0
:100B5000966F000E01B6010E976F000E47EC92F0F3
:100B600099D10001E26B930EE225D96EDA6A010E8B
:100B7000DA22920EDF6EE22BBF6B090EBF6501D049
:100B800046D0BF510E0D2A0EF324D96E020EF4206A
:100B9000DA6EDFAE39D004C06DF005C06EF0000132
:100BA000BF510E0D220EF3246F6F020EF420706FF2
:100BB000D0EC99F0000928E0BF510E0D2A0EF32465
:100BC000D96E020EF420DA6EDF6ABF510E0D1E0ED2
:100BD000F3246E6F020EF4206F6FBF510E0DE651BD
:100BE000F324706FE751F420716F736B0E0E726F08
:100BF00032EC93F0930E0001E225D96EDA6A010E11
:100C0000DA22DF6AE22B03D00001BF2BB6D7CDEC8E
:100C10009AF00A0E0001BF1909E1930EE225D96E80
:100C2000DA6A010EDA22F00EDF6EE22B04C094F0D5
:100C300005C095F0010E966F000E01B6010E976F7C
:100C4000000E47EC92F026D13FEC8DF020EE02F042
:100C50000650D9260750DA22DF50EA6FEA0E6E6F8F
:100C60006F6B2BC070F02CC071F0736B010E726F44
:100C700032EC93F00001E1834CEC97F06DC07FF112
:100C80006EC080F16FC081F170C082F186D620EE17
:100C900001F00650D9260750DA22DF50D5E0010ACC
:100CA000D3E07BD60001E1BBE19B77D620EE01F0DB
:100CB0000650D9260750DA22DF5001E06ED6000137
:100CC000BF6B090EBF6501D068D6BF510E0D2A0E4D
:100CD000F324D96E020EF420DA6EDFAE30D004C0F9
:100CE0006DF005C06EF00001BF510E0D220EF32411
:100CF0006F6F020EF420706FD0EC99F000091FE0C6
:100D0000BF510E0D2A0EF324D96E020EF420DA6EB6
:100D1000DF6ABF510E0D1E0EF3246E6F020EF4201B
:100D20006F6FBF510E0DE651F324706FE751F42041
:100D3000716F736B0E0E726F32EC93F02ED6000152
:100D4000BF2BBFD70001EB0501E027D6010E206EB7
:100D500024D60001EB0501E020D620EE01F006507C
:100D6000D9260750DA22DF50AB6FAB051E6E06C0E6
:100D700074F007C075F0D2EC90F00FD60001EB5183
:100D800001E00BD606C06DF007C06EF0E4EC92F007
:100D9000B76FB7290DE006C0A4F007C0A5F0B7C033
:100DA000A6F004C0A7F005C0A8F07FEC93F0106E89
:100DB000105001E1F2D504C09EF005C09FF03AEC5E
:100DC0009AF0EBD50001EB5101E0E7D5BD6B090EC0
:100DD000BD6501D0E2D504C0D9FF05C0DAFFBD5121
:100DE0000E0D220EF324E16E020EF420E26EDE50B0
:100DF000E6182AE120EE01F00450D9260550DA2247
:100E0000BD510E0D230EF324E16E020EF420E26EAE
:100E1000DE50E61819E120EE02F00450D926055004
:100E2000DA22BD510E0D240EF324E16E020EF420E1
:100E3000E26EDE50E61808E15F0EBD25D96EDA6A73
:100E4000010EDA22DF2AA9D5BD2BC1D706C0D9FFF2
:100E500007C0DAFFDF50770A01E17BD70D0AB2E065
:100E6000FB0A01E18DD5030A01E17BD6050A01E108
:100E700033D6160A01E10BD7030A01E117D7050A99
:100E800001E110D75B0A01E179D7160A01E15AD7CF
:100E90000001E187085005E00001E1B902D0E1ABB3
:100EA00012000001E197CDEF9AF04CEC97F06DC085
:100EB00083F16EC084F16FC085F170C086F1010EC0
:100EC0001D6E33D29BEC97F0000901E0E2D1C8EC33
:100ED00093F0DA6FDA0504E0020EDA1901E0D9D1F5
:100EE000EB5133E1E26BE46B060E6D6F1B5026ECA9
:100EF0009AF0150D910ED16FFD0ED26FF350D127E0
:100F0000F450D223E451D127000ED223D1C0F6FFF2
:100F1000D2C0F7FF000EF86E930EE225D96EDA6AA2
:100F2000010EDA220800F5CFDFFFE22BE42B140ECE
:100F3000E465DAD71B2A000E04EC9BF018C09EF083
:100F40001A2A1A502AEC9BF0A4D1DC6B010E1C6EFD
:100F5000D96F9CD14EEC9AF0DC51EA1937E1B60E0C
:100F6000796F010E7A6F090E7B6FFF0E7C6FDC517B
:100F7000040D3A0EF324D96E010EF420DA6EDF5020
:100F80007D6F7E6BDC51040D370EF324D96E010E9C
:100F9000F420DA6EDF507F6F806BDC51040D380E69
:100FA000F324D96E010EF420DA6EDF50816F826B6C
:100FB000DC51040D390EF324D96E010EF420DA6EE3
:100FC000DF50836F846B00EC80F036D0B60E796F03
:100FD000010E7A6F220E7B6FFF0E7C6FDC51040DC9
:100FE0003A0EF324D96E010EF420DA6EDF507D6FD5
:100FF0007E6BDC51040D370EF324D96E010EF42004
:10100000DA6EDF507F6F806BDC51040D380EF324F5
:10101000D96E010EF420DA6EDF50816F826BDC51E5
:10102000040D390EF324D96E010EF420DA6EDF5070
:10103000836F846B00EC80F0B60E796F010E7A6FCF
:10104000220E7B6FFF0E7C6FDC51040D3A0EF324F1
:10105000D96E010EF420DA6EDF507D6F7E6BDC51AD
:10106000040D370EF324D96E010EF420DA6EDF5032
:101070007F6F806BDC51040D380EF324D96E010EA6
:10108000F420DA6EDF50816F826BDC51040D390E73
:10109000F324D96E010EF420DA6EDF50836F846B77
:1010A00000EC80F0C60E796F010E7A6FAB0E7B6F8D
:1010B000FF0E7C6F00EC80F09AEC94F0010E1C6E39
:1010C000E2D0C8EC93F0DB6F9BEC97F0DB0501E01E
:1010D000BED0D96B1C6ADC51EA192EE1E26BE46BDD
:1010E000060E6D6F1B5026EC9AF0150D910ED16F08
:1010F000FD0ED26FF350D127F450D223E451D12703
:10110000000ED223D1C0F6FFD2C0F7FF000EF86E5A
:10111000930EE225D96EDA6A010EDA220800F5CFC5
:10112000DFFFE22BE42B140EE465DAD7000EA26B8E
:10113000B8EC98F01A2A7CD0E26B930EE225D96EB7
:10114000DA6A010EDA22CC0EDF6EE22BDC51040DDE
:10115000370EF324D96E010EF420DA6E930EE225D9
:10116000E16EE26A010EE222DFCFE7FFE22BDC5103
:10117000040D380EF324D96E010EF420DA6E930EAE
:10118000E225E16EE26A010EE222DFCFE7FFE22B09
:10119000DC51040D390EF324D96E010EF420DA6E01
:1011A000930EE225E16EE26A010EE222DFCFE7FF55
:1011B000E22B040EE46FFC0ED16FD269060E6D6F48
:1011C0001B5026EC9AF0150D910ED36FFD0ED46FC7
:1011D000F350D327F450D423E451D327000ED42363
:1011E000D151D327D251D423D3C0F6FFD4C0F7FFB7
:1011F000000EF86E930EE225D96EDA6A010EDA223D
:101200000800F5CFDFFFE22BE42B180EE465D3D7FF
:10121000C06BDC5185EC8CF0D86FD8518BE1630E3C
:101220009C6FFF0E9D6F000E9E6F9F6F04EC98F0F9
:1012300018C09EF01A502AEC9BF0050E6E6FDC0E63
:101240006D6F40EC91F0EB5150EC9BF01CD0020E16
:10125000DB1919E1DC51D16FD26BD369D4691E500F
:10126000D56FD66BD351D527D451D623D151D55D67
:10127000D651800AD76FD251800AD75902E2DC6B6F
:1012800001D0DC2B1C6A1C5001E01BD7D90501E101
:1012900061D61F5006E0EB0504E1C06BF1EC8DF068
:1012A0001F6A4CEC97F06DC087F16EC088F16FC07B
:1012B00089F170C08AF101018351875D0001D16F0E
:1012C0000101845188590001D26F0101855189596A
:1012D0000001D36F010186518A590001D46FD451A6
:1012E00007E18D0ED15D860ED259470ED3591DE30D
:1012F000EB511BE14EEC9AF0B60E796F010E7A6F4E
:10130000770E7B6FFF0E7C6FE8C07DF07E6B00EC8C
:1013100080F09AEC94F0070E6E6FD00E6D6F40EC7B
:1013200091F01D6A010E50EC9BF01D5001E0CAD5F2
:1013300012007F6F0001836B8351E2086E6F000E15
:10134000D8A0E82A01086F6F8351FA0F706F010E61
:10135000716F57EC99F0832B020E8365EDD7010175
:10136000DF69FE0EDE6F0001836B8351DD086E6F57
:10137000000ED8A0E82A01086F6F8351FD0F706F2F
:10138000010E716F57EC99F0832B020E8365EDD738
:10139000F8EC91F0E16B7F5137E1836B83510E0DD7
:1013A0002A0EF324D96E020EF420DA6EDF6A83511E
:1013B0000E0D220EF324D96E020EF420DA6EDF6ACF
:1013C00083510E0D230EF324D96E020EF420DA6E33
:1013D000DF6A83510E0D240EF324D96E020EF42021
:1013E000DA6EDF6A5F0E8325D96EDA6A010EDA22C1
:1013F000DF6A690E8325D96EDA6A010EDA22DF6AA6
:10140000832B090E8365CAD718EC9BF0E26B7F51E2
:1014100053E0E90E6E6F6F6B25C070F026C071F05F
:10142000736B010E726FF9EC96F01F0E0001E96507
:1014300001D01F0CEC0E6E6F6F6B23C070F024C0D8
:1014400071F0736B010E726FF9EC96F01E0E0001D5
:101450006E6F020E6F6FE6C070F0E7C071F0736BD5
:101460008C0E726FF9EC96F0EB0E00016E6F6F6BE5
:1014700029C070F02AC071F0736B010E726FF9EC25
:1014800096F0EA0E00016E6F6F6B2BC070F02CC0EF
:1014900071F0736B010E726FF9EC96F0E80E0001BB
:1014A0006E6F6F6B27C070F028C071F0736B010E08
:1014B000726FF9EC96F027D0E90E6E6F6F6B25C056
:1014C00070F026C071F0736B010E726F32EC93F006
:1014D000EC0E00016E6F6F6B23C070F024C071F0D2
:1014E000736B010E726F32EC93F01E0E00016E6F83
:1014F000020E6F6FE6C070F0E7C071F0736B8C0E78
:10150000726F32EC93F0DB0E0001816F010E826F7F
:1015100080838051870B4009806F7FB102D0809516
:1015200002D000018085809180C07BF081C07CF07A
:1015300082C07DF0A8EC91F00001E9513EEC99F0F9
:101540000001E06BE081EC39F00BE013F08A12004F
:10155000E851040D040EF326000EF422F4BE05D06B
:10156000F45006E1230EF35C03E2010EA66F27D0D0
:10157000E851040D040EF3246D6F000EF4206E6F1D
:10158000706B230E6F6F53EC95F06D51A66FE851A1
:10159000040D040EF326000EF422F350F4100FE0B5
:1015A000E851040D040EF3246D6F000EF4206E6FED
:1015B000706B230E6F6F33EC96F06D51A627A86BFE
:1015C000CCD0E26B930EE225D96EDA6A010EDA22F4
:1015D000770EDF6EE22B930EE225D96EDA6A010EEA
:1015E000DA22E8C0DFFFE22BA851070D930EE225B7
:1015F000D96EDA6A010EDA22F3CFDFFFE22BA829D7
:10160000070D930EE225D96EDA6A010EDA22F3CFC6
:10161000DFFFE22B040EA56FA851070DF3CFA9F051
:1016200067D0E851A95D63E2A9510E0D2A0EF3249B
:10163000D96E020EF420DA6EDFAE3ED00001A95161
:101640000E0D220EF324D96E020EF420DA6E930EE4
:10165000E225E16EE26A010EE222DFCFE7FFE22B34
:10166000A9510E0D230EF324D96E020EF420DA6E6A
:10167000930EE225E16EE26A010EE222DFCFE7FF80
:10168000E22BA9510E0D240EF324D96E020EF42084
:10169000DA6E930EE225E16EE26A010EE222DFCFFE
:1016A000E7FFE22B930EE225D96EDA6A010EDA2209
:1016B000A9C0DFFFE22B19D0930E0001E225D96EFD
:1016C000DA6A010EDA22DF68E22B930EE225D96E88
:1016D000DA6A010EDA22DF68E22B930EE225D96E78
:1016E000DA6A010EDA22DF68DCD7040EA527A92BFF
:1016F000A8519E6F9F6B9E2B000E9F23070E9E038B
:10170000F3CFA0F0F4CFA1F09F03F350A127A9518C
:10171000A26FA36BA051A25DA351800AA46FA15137
:10172000800AA45901E27DD7A5C0A7F0220EA765C3
:1017300001D00BD0930EE225D96EDA6A010EDA22BF
:10174000110EDF6EE22BA72BF1D7946B956B010E78
:10175000966F976B47EC92F0A82BA651A85D01E21B
:1017600030D71200846B4CEC97F06DC07FF06EC0E8
:1017700080F06FC081F070C082F08451060D000EC1
:10178000F324D96E020EF420DA6EDF503FE084516C
:10179000060D020EF324D96E020EF420DA6E7F518C
:1017A000DE5C8051DE588151DE588251DE582EE2D7
:1017B0008451060D020EF324D96E020EF420DA6E67
:1017C000DECF77F0DECF78F0DECF79F0DECF7AF0C3
:1017D00077517F5D7B6F785180597C6F795181594A
:1017E0007D6F7A5182597E6F7E5107E1B50E7B5D28
:1017F000C40E7C59040E7D5909E38451060D000E78
:10180000F324D96E020EF420DA6EDF6A842B040E04
:101810008465A9D7172801E0000C846B8451390D29
:10182000000EF324D96E030EF420DA6EDFA067D029
:1018300000018451390D010EF324D96E030EF420FA
:10184000DA6EDF500101736F00018451390D380EDB
:10185000F324D96E030EF420DA6EDF500101786FA5
:10186000020E0001836F010173AD06D00B30E83228
:10187000E8320F0B00018327010173AF1ED0000176
:101880008451390D000E776F030E786F772B000EA1
:101890007823F3507727F45078238351772501017B
:1018A000746F0001000E78210101756F0B30E83272
:1018B000E8320F0B0001832702D0746B756B0001B7
:1018C00083510101785F00018451390D000E776F5B
:1018D000030E786F772B000E7823F3507727F450A0
:1018E0007823835177250101766F0001000E78215E
:1018F0000101776F15C079F184C017F0010C000168
:10190000842B010E84658AD7000C0201D66F206AF1
:10191000E2C0D5F2D76B0FD0930ED725D96EDA6A15
:10192000010EDA22AA0ED725E16EE26A020EE22249
:10193000DFCFE7FFD72BD551D75DEEE30001E26B98
:10194000930EE225D96EDA6A010EDA22CC0EDF6E32
:10195000E22B0201D651040D370EF324D96E010E8D
:10196000F420DA6E930E0001E225E16EE26A010EC8
:10197000E222DFCFE7FFE22B0201D651040D380E41
:10198000F324D96E010EF420DA6E930E0001E225E5
:10199000E16EE26A010EE222DFCFE7FFE22B0201F5
:1019A000D651040D390EF324D96E010EF420DA6EEF
:1019B000930E0001E225E16EE26A010EE222DFCF22
:1019C000E7FFE22B0201D76B12D0AA0ED725D96E02
:1019D000DA6A020EDA22930E0001E225E16EE26A73
:1019E000010EE222DFCFE7FFE22B0201D72BD55118
:1019F000D75DEBE3220E0001946F020E956F010E8E
:101A0000966FC0C097F0000E47EC92F04CEC97F048
:101A10006DC0CDF26EC0CEF26FC0CFF270C0D0F20A
:101A20002AD04CEC97F06DC0D1F26EC0D2F26FC0EC
:101A3000D3F270C0D4F231EC9BF00201CD51D15DF4
:101A40000001C16F0201CE51D2590001C26F0201E3
:101A5000CF51D3590001C36F0201D051D4590001B5
:101A6000C46FC451C31105E1250EC15DF40EC25906
:101A700002E3200402E12050D4E0205012000001D3
:101A80007B6B7C697D6B7D510E0D2A0EF324D96E24
:101A9000020EF420DA6EDFAE16D004C06DF005C081
:101AA0006EF000017D510E0D220EF3246F6F020EB9
:101AB000F420706FD0EC99F000090AE07DC07CF052
:101AC000010E7B6F09D000017C2902E17DC07CF012
:101AD0007D2B090E7D65D7D77C2901E1F10CEC51F6
:101AE00003E000017B5112007CC012F07D6B7D5140
:101AF0000424D96E000E0520DA6E7C510E0D1E0EE8
:101B0000776F020E786F040E7727000E7823F3505C
:101B10007727F45078237D517725E16E000E7821E8
:101B2000E26EDFCFE7FF7D2B070E7D65E0D77C51AE
:101B30000E0D2A0EF324D96E020EF420DA6EDF8E1B
:101B400020EE02F00650D9260750DA22DF500001BD
:101B5000776F010E77177C510E0D2A0EF324D96E84
:101B6000020EF420DA6EDF507719FE0B7719DF6E64
:101B70007D6B7D510624776F000E0720786F030E72
:101B80007725D96E000E7821DA6E7C510E0D1E0E6F
:101B9000796F020E7A6F0D0E7927000E7A23F350BB
:101BA0007927F4507A237D517925E16E000E7A2150
:101BB000E26EDFCFE7FF7D2B7D51DBE07CC0DFF005
:101BC000E19974EC97F0E86FE80E6E6F6F6B27C0C9
:101BD00070F028C071F0736B010E726F32EC93F0ED
:101BE00080D7ECC0C5F0030EC66FC76B4CEC97F006
:101BF0006DC08BF16EC08CF16FC08DF170C08EF135
:101C0000C00501E1FF0C4CEC97F06DC0C8F06EC050
:101C1000C9F06FC0CAF070C0CBF0B40EC85FC40E7C
:101C2000C95B040ECA5B000ECB5BEC6BE1896BD029
:101C30004CEC97F06DC0CCF06EC0CDF06FC0CEF024
:101C400070C0CFF0C851CC5DC16FC951CD59C26FC2
:101C5000CA51CE59C36FCB51CF59C46FC45107E19C
:101C6000B50EC15DC40EC259040EC35946E3CCC0C3
:101C7000C8F0CDC0C9F0CEC0CAF0CFC0CBF0C70706
:101C8000C72941E1010EC76FC607C62902E1E199E4
:101C9000FF0CE26B930EE225D96EDA6A010EDA22AE
:101CA000810EDF6EE22B930EE225D96EDA6A010E09
:101CB000DA22E9C0DFFFE22B930EE225D96EDA6A61
:101CC000010EDA22E0C0DFFFE22BD06BD051550FBE
:101CD000D96EDA6A930EE225E16EE26A010EE22223
:101CE000DFCFE7FFE22BD02BD051F0E0946B956B68
:101CF000010E966F976B47EC92F031EC9BF0000968
:101D000002E049EC9BF00001E1B992D7C5C0ECF0CC
:101D1000DF2903E0010EEB6F01D0EB6BEB0E6E6F72
:101D20006F6B29C070F02AC071F0736B010E726F77
:101D300032EC93F00001DF511200A26F0001A229E2
:101D400051E1A36BA3510E0D2A0EF324D96E020E9E
:101D5000F420DA6EDFAE21D00001E26B930EE225B3
:101D6000D96EDA6A010EDA22820EDF6EE22BA351FF
:101D70000E0D220EF324946F020EF420956F010EC7
:101D8000966F000E976B47EC92F09E6B9F6B9E4B8D
:101D90009F2B9E290F0E9F59FAE30001A3510E0DB0
:101DA0002A0EF324D96E020EF420DA6EDF6AA351F4
:101DB0000E0D1E0EF3246E6F020EF4206F6FA351F2
:101DC0000E0DE651F324706FE751F420716F736BC1
:101DD0000E0E726F32EC93F00001A32B090EA36577
:101DE000B1D7090CA2510E0D2A0EF324D96E020EA2
:101DF000F420DA6E0201DFAE12000001E26B930EF6
:101E0000E225D96EDA6A010EDA22820EDF6EE22B4B
:101E1000A2510E0D220EF324946F020EF420956F42
:101E2000010E966F000E976B47EC92F0A06BA16BC2
:101E3000A04BA12BA0290F0EA159FAE3A2510E0D20
:101E40002A0EF324D96E020EF420DA6EDF6AA25154
:101E50000E0D1E0EF3246E6F020EF4206F6FA25152
:101E60000E0DE651F324706FE751F420716F736B20
:101E70000E0E726F32EF93F0886F030E0001856FC4
:101E800088D0866BE36B846B775119E0280E70EC79
:101E900099F0876FD8908733410E876510D0842BD7
:101EA0008405786F040E786501D0000C010E6D6F0B
:101EB000000E6E6B6F6B706B51EC9BF0E7D7F09A76
:101EC000200EFDEC95F01A0E00016F6FC90E6E6FBB
:101ED000FCEC99F00001885162EC9AF000018A6BE9
:101EE0000BD0000E8A25D96EDA6A010EDA22DF5095
:101EF00062EC9AF000018A2B88518A5DF2E3800E31
:101F0000FDEC95F0F08A0001DE5102E1F0A4FBD770
:101F1000DE6B200EFDEC95F0600EFDEC95F00101FE
:101F200000AB0ED001C119F04CEC97F06DC07CF005
:101F30006EC07DF06FC07EF070C07FF0E35104E0B2
:101F4000010E0001896F2AD04CEC97F06DC080F033
:101F50006EC081F06FC082F070C083F07C51805DF4
:101F6000786F7D518159796F7E5182597A6F7F5197
:101F700083597B6F7B517A1105E10A0E785D3D0E26
:101F80007959DCE3862B8605786F040E786101D0E1
:101F900079D78507852901E074D7896B89511200AB
:101FA0003C6E030E476E84D0486A0001E36B466ABC
:101FB000375019E0280EE6EC99F0496ED890493276
:101FC000410E496410D0462A4604386E040E386427
:101FD00001D0040C010E2D6E000E2E6A2F6A306A9D
:101FE00053EC9BF0E7D7F09A200E67EC96F01A0EB0
:101FF0002F6EC90E2E6E88EC9AF03C50ADEC9AF024
:102000004A6A0AD0000E4A24D96EDA6A010EDA2230
:10201000DF50ADEC9AF04A2A3C504A5CF3E3800E64
:1020200067EC96F0F08A0001DE5102E1F0A4FBD7E4
:10203000DE6B200E67EC96F0600E67EC96F0010107
:1020400000AB0ED001C119F023EC97F02DC03EF08B
:102050002EC03FF02FC040F030C041F0E35103E00C
:10206000010E3D6E010C23EC97F02DC042F02EC006
:1020700043F02FC044F030C045F03E50425C386E13
:102080003F504358396E405044583A6E415045587D
:102090003B6E3B503A1005E10A0E385C3D0E395854
:1020A000DDE3482A4804386E040E386001D07DD73D
:1020B0004706472801E078D73D6A1200230E906555
:1020C00001D0000C8BB503D0916B912B02D0000195
:1020D000916B913B914791478B519119BF0B91198E
:1020E0008B6F8B8F8B51030BE80601E18B8F8BC0BD
:1020F00000F111C001F1112A020E926F8BAD1AD0BE
:10210000936B10D093518C25D96E000E8D21DA6E11
:10211000000E9225E16EE26A010EE222DFCFE7FFB8
:10212000922B932B0B30E832E8320F0B916F9151C9
:10213000935DE8E38BAF1AD0936B10D093510C24CE
:10214000D96E000E0D20DA6E000E9225E16EE26A65
:10215000010EE222DFCFE7FF922B932B0B30E83208
:10216000E8320F0B916F9151935DE8E3936B10D0C0
:1021700093518E25D96E000E8F21DA6E000E9225B6
:10218000E16EE26A010EE222DFCFE7FF922B932B92
:102190009051935DEDE3000E0BB2010E776F9251FB
:1021A0003CEF8FF0040E796F79C076F0030E76174E
:1021B00061E17951766F776B030E7627000E7723F6
:1021C00077BF05D0775156E1230E765D53E2795102
:1021D0007425766F000E7521776F030E7625D96E04
:1021E000000E7721DA6EDF50786F7851040D3A0EC9
:1021F000F324D96E010EF420DA6E78C0DFFF795136
:102200007425D96E000E7521DA6E7851040D370EE3
:10221000F324E16E010EF420E26EDFCFE7FF795187
:102220007425766F000E7521776F7629D96E000EB2
:102230007721DA6E7851040D380EF324E16E010E29
:10224000F420E26EDFCFE7FF79517425766F000E40
:102250007521776F020E7625D96E000E7721DA6E22
:102260007851040D390EF324E16E010EF420E26E74
:10227000DFCFE7FF792B220E796596D717EF95F020
:102280006D516F6F6E51706F716B726BC40E6F0317
:10229000F3CF73F0F4CF74F0756B766B7003F3507B
:1022A0007427F4507523000E7623090E6F03F35044
:1022B0007427F4507523000E7623C40E7103F35077
:1022C0007527F4507623090E7003F3507527F450E8
:1022D0007623000E6F03F3507527F4507623C40E57
:1022E0007203F3507627090E7103F3507627000E20
:1022F0007003F3507627000E6F03F350762773C0F8
:1023000077F074C078F075C079F076C07AF0560E28
:102310007727FF0E782379237A237ABFFF0C7A512F
:10232000791178110CE1C40E775D09E2120000F01A
:10233000D90E00017727FF0E782379237A237ABFFD
:1023400012007A5179117811F2E17705F0E212006A
:102350007BC00BF07CC00CF07DC00DF06E6B140EDA
:102360006D6F40EC91F08D868B84D6CF11F017689D
:102370007E6B7E51390D000EF324D96E030EF420CE
:10238000DA6EDF6A7E2B010E7E65F3D77E6B7E519F
:10239000020D0F0EF324F66EFE0EF420F76EF86AAF
:1023A000000EF8220900F5CF6EF00A00F5CF6FF0AD
:1023B000FCEC99F000017E2B1F0E7E65E8D7200E05
:1023C000FDEC95F000016F6B4E0E6E6FFCEC99F01A
:1023D000400EFDEC95F01C0E00016F6F0F0E6E6F3E
:1023E000FCEC99F0600EFDEC95F0F094F08A120090
:1023F000010E736F0E6A0F6A6E6B020E6D6FD70E51
:102400006F6F010E706FA1EC99F073176E6B010E78
:102410006D6F250E6F6F706BA1EC99F073176E6B7B
:10242000010E6D6F230E6F6F706BA1EC99F0731737
:102430006E6B8C0E6D6FE60E6F6F706BA1EC99F08A
:1024400073176E6B040E6D6FD90E6F6F010E706F88
:10245000A1EC99F073176E6B010E6D6F270E6F6F05
:10246000706BA1EC99F073176E6B010E6D6F290EF6
:102470006F6F706BA1EC99F073176E6B010E6D6F3F
:102480002B0E6F6F706BA1EC99F0731712009A6F9F
:1024900000019B6B965103E0986B982B02D00001D2
:1024A000986B9B519819FC0B98199B6F9A5103E1FB
:1024B000986B982B02D00001986B983B98479B51E2
:1024C0009819DF0B98199B6F9AB102D09B9502D097
:1024D00000019B8597B102D09B9702D000019B879A
:1024E0009A5103E1986B982B02D00001986B983BAE
:1024F000984798479B519819BF0B98199B6F9B8FD2
:1025000094C09CF095C09DF09BC08BF09CC08CF05B
:102510009DC08DF0930E8E6F010E8F6FE2C090F014
:102520005EEC90F0996FE26B99511200746F1F0E80
:102530000001746501D0000C0C0E6F6F640E6E6F9D
:10254000FCEC99F04F0E00017425F66EF76AFE0E52
:10255000F722F86A000EF8220800F5CF73F0000E9B
:1025600073116E6F0E0E6F6FFCEC99F06F0E000121
:102570007425F66EF76AFE0EF722F86A000EF8224E
:102580000800F5CF73F0000E73116E6F100E6F6FB1
:10259000FCEC99F0200EFDEC95F000016F6B4E0EF7
:1025A0006E6FFCEC99F0400EFDEC95F01C0E0001F6
:1025B0006F6F0F0E6E6FFCEC99F0200EFDEC95F036
:1025C000600EFDEC95F0010C726B43D072510E0D54
:1025D0002A0EF324D96E020EF420DA6EDFAE37D065
:1025E000000172510E0D220EF324D96E020EF4205A
:1025F000DA6E10EE01F06D51E1266E51E222DE50EE
:10260000E61825E172510E0D230EF324D96E020E49
:10261000F420DA6E10EE02F06D51E1266E51E222E6
:10262000DE50E61814E172510E0D240EF324D96E1B
:10263000020EF420DA6E10EE03F06D51E1266E51B9
:10264000E222DE50E61803E172C071F005D000010D
:10265000722BE851725DBAE3E851721901E17169B8
:1026600071511200000EF0BA010E756FF09A899642
:10267000050EEBEC9AF037EC9BF00001766F898643
:102680004EEC9BF0000176B1F2D78996060EEBEC8A
:102690009AF089864EEC9BF08996020EEBEC9AF04C
:1026A00000017151EBEC9AF000017051EBEC9AF0E3
:1026B0000001766B1AD06EC0D9FF6FC0DAFFDF5011
:1026C000EBEC9AF000016E4B6F2B7207D8A07307EA
:1026D000762B76517025746F3F0E741706E189864C
:1026E00076517027000E7123C2D772517311E3E146
:1026F000898675B102D0F09A01D0F08A1200E26B9F
:10270000A7C0D9FFA8C0DAFF930EE225E16EE26A06
:10271000010EE222DFCFE7FFE22B20EE01F0A7510E
:10272000D926A851DA22930EE225E16EE26A010E63
:10273000E222DFCFE7FFE22B20EE02F0A751D926FD
:10274000A851DA22930EE225E16EE26A010EE2223E
:10275000DFCFE7FFE22B030EAA6FAA51A425D96EA3
:10276000000EA521DA6E930EE225E16EE26A010EFB
:10277000E222DFCFE7FFE22BAA2B220EAA65EDD7DC
:10278000A26BA651B8EC98F00001A96FA9511200F4
:1027900081B00FD0135043E1010E136E4CEC97F053
:1027A0006DC07BF16EC07CF16FC07DF170C07EF1B9
:1027B000010C80BA0FD0135032E1010E136E4CECB5
:1027C00097F06DC07BF16EC07CF16FC07DF170C081
:1027D0007EF1020C4CEC97F06DC07BF06EC07CF08B
:1027E0006FC07DF070C07EF001017B5100017B5D08
:1027F000776F01017C5100017C59786F01017D5197
:1028000000017D59796F01017E5100017E597A6F77
:102810007A51791103E1400E785D01E3136A000CEF
:10282000820EF66E360EF76E010EF86E01EEDBF0DC
:1028300010EE08F00900F5CFEEFFE550E150FAE1A7
:10284000AB0EF66E360EF76E010EF86E0900F5CF80
:10285000ECF0AA0EF66E360EF76E010EF86E090059
:10286000F5CF55F003EE00F0720EEE6AE806FDE1DA
:1028700002EE00F0AA0EEE6AE806FDE101EE00F0BD
:10288000DB0EEE6AE806FDE100EEDEF00E0EEE6A0B
:10289000E806FDE100EE01F02C0EEE6AE806FDE12F
:1028A000569056920001BEEF9AF04CEC97F06DC036
:1028B000A5F06EC0A6F06FC0A7F070C0A8F04CECF9
:1028C00097F06DC0A9F06EC0AAF06FC0ABF070C0F9
:1028D000ACF0A551A95DA16FA651AA59A26FA7514D
:1028E000AB59A36FA851AC59A46FA45121E1D10EEB
:1028F000A15D120EA259130EA3591AE2C8EC93F06F
:10290000AD6F020EAD1912E14E0E9C6FFF0E9D6F62
:10291000000E9E6F9F6F04EC98F0030E6E6FE80E32
:102920006D6F40EC91F0010EAE6FC9D7AE6BC7D79B
:10293000AE511200800E9BEC98F000017C6BB60E3D
:102940007C25D96EDA6A010EDA22DF5004E1200E0E
:1029500060EC98F009D0B60E7C25D96EDA6A010ECB
:10296000DA22DF5060EC98F000017C2B0F0E7C65C2
:10297000E6D7C00E9BEC98F0100E00017C6FB60EEF
:102980007C25D96EDA6A010EDA22DF5004E1200ECE
:1029900060EC98F009D0B60E7C25D96EDA6A010E8B
:1029A000DA22DF5060EC98F000017C2B1F0E7C6572
:1029B000E6D71F0C9294898400016E6B0A0E6D6F2E
:1029C00040EC91F0979C8E9C6E6B0A0E6D6F40EC04
:1029D00091F08E8C45EC9BF0B9EC99F089EC99F074
:1029E000000E24EC99F000016E6B0A0E6D6F40EC46
:1029F00091F03C0EEFEC98F000016E6B0A0E6D6FDB
:102A000040EC91F00C0EEFEC98F000016E6B0A0EAA
:102A10006D6F40EC91F0010EEFEC98F000016E6BE1
:102A20000A0E6D6F40EC91F00C0EEFEF98F0726BA8
:102A3000EB05D8A41200736B1ED07351040D370E32
:102A4000F324D96E010EF420DA6E0101DB51DE1899
:102A500010E100017351040D380EF324D96E010EFC
:102A6000F420DA6EDE500101DC1903E1010E0001F1
:102A7000726F0001732B1E506D6F6E6B6D2B000E0D
:102A80006E2373516F6F706B6D516F5D7051800A63
:102A9000716F6E51800A7159D0E37251D8A412003F
:102AA000010E1F6E010C726B70AF06D06F6D701F40
:102AB000D8B0702B010E726F6EAF06D06D6D6E1FA9
:102AC000D8B06E2B010E721B736B746B6F5170114B
:102AD0001BE0010E716F04D0D8906F377037712BE7
:102AE00070AFFAD7D890733774376F516D5D7051EE
:102AF0006E5905E36F516D5F70516E5B7381D890B5
:102B000070336F33712FEED7725104E0736D741F01
:102B1000D8B0742B73C06DF074C06EF012004EEC20
:102B20009AF0B60E796F010E7A6FBC0E7B6FFF0EB6
:102B30007C6F00EC80F0C60E796F010E7A6F380E54
:102B40007B6FFF0E7C6F9CC0D9FF9DC0DAFFDF500A
:102B50007D6F7E6B20EE01F09C51D9269D51DA22CB
:102B6000DF507F6F806B20EE02F09C51D9269D5183
:102B7000DA22DF50816F826B00EC80F09AEC94F0E7
:102B8000040E6E6FB00E6D6F40EF91F0D16F0001CB
:102B9000D15105E0010E99EC89F0EB5112008C9EA9
:102BA0008C9C000E99EC89F0190E3EEC99F000090E
:102BB00003E1190E52EC9BF0000E7EEC98F0000E33
:102BC0000001A16F190E9BEC9AF0C06BF1EC8DF037
:102BD000D26FD22906E0010EA16F190E9BEC9AF07C
:102BE00009D00A0E776F000E786B796B7A6B7B6B6E
:102BF00042EC98F08C8EEB5112000001716F27D0DF
:102C00006F6B8E0E6E6FFCEC99F0800E146E800C64
:102C10006F6B6E0E6E6FFCEC99F0600E146E600CB4
:102C20006F6B4E0E6E6FFCEC99F0400E146E400C04
:102C30006F6B2E0E6E6FFCEC99F0200E146E200C54
:102C40006F6B0E0E6E6FFCEC99F0146A12000001AF
:102C50007151F6E0200AECE0600AE2E0200AD8E0D8
:102C6000E00ACEE01200726B6EAF06D06D6D6E1F83
:102C7000D8B06E2B010E726F70AF04D06F6D701FE5
:102C8000D8B0702B6F51701117E0010E716F04D026
:102C9000D8906F377037712B70AFFAD76F516D5D69
:102CA00070516E5904E36F516D5F70516E5BD89037
:102CB00070336F33712FF2D7725104E06D6D6E1F58
:102CC000D8B06E2B6DC06DF06EC06EF01200316E1C
:102CD00027D02F6A8E0E2E6E88EC9AF0800E146E1E
:102CE000800C2F6A6E0E2E6E88EC9AF0600E146EB9
:102CF000600C2F6A4E0E2E6E88EC9AF0400E146E09
:102D0000400C2F6A2E0E2E6E88EC9AF0200E146E58
:102D1000200C2F6A0E0E2E6E88EC9AF0146A1200A8
:102D20003150F7E0200AEDE0600AE3E0200AD9E044
:102D3000E00ACFE01200700ED36EC088DF0EC16EC5
:102D4000C268C098926893689468956A896A8A6A2A
:102D50008B6A8C6A9380928A959E959C938A9488BC
:102D6000949A9496C00EC76E210EC66E9696949451
:102D7000959E959CF094F08A8D868B84F28E400E01
:102D8000C76E210EC66EF1869296898696948D84C2
:102D9000F28EF08ADAEF94F0A56BA5510E0D2A0E93
:102DA000F324D96E020EF420DA6EDFAE1CD05F0E73
:102DB0000001A525D96EDA6A010EDA22DF500CE196
:102DC000690EA525D96EDA6A010EDA22DE2804E042
:102DD000A5519DEC8EF007D05F0EA525D96EDA6A5D
:102DE000010EDA22DF6A0001A52B090EA565D5D7F1
:102DF000090C000EF0BA010E746FF09A8996030E5A
:102E0000EBEC9AF000017151EBEC9AF0000170517B
:102E1000EBEC9AF00DD037EC9BF06EC0D9FF6FC091
:102E2000DAFFDF6E00016E4B6F2B7207D8A07307BD
:102E3000000172517311EFE1898674B102D0F09AEA
:102E400001D0F08A1200356A366A9D90000E9EB05D
:102E5000010E326ECECF33F0CFCF34F0000E9EB0E5
:102E6000010E316E31503218F1E1325006E09E9081
:102E7000222A225002E10001E52B225035260001D2
:102E8000E55136269D8033C02DF034C02EF035C07C
:102E90002FF036C030F012000001756B766B9D90FC
:102EA000000E9EB0010E726FCECF73F0CFCF74F0D4
:102EB000000E9EB0010E716F71517219F1E17251E5
:102EC00005E09E90222A225001E1E52B2250752731
:102ED000E55176279D8073C06DF074C06EF075C0AB
:102EE0006FF076C070F012006D6B6E6B6E510E0D50
:102EF000220EF324D96E020EF420DA6EDF5014E1B4
:102F00006E510E0D230EF324D96E020EF420DA6EEC
:102F1000DF500AE16E510E0D240EF324D96E020E1D
:102F2000F420DA6EDF5001E06D2B6E2B090E6E651A
:102F3000DDD76D51120031EC9BF0C06FC0511EE027
:102F4000182A18C09EF01A502AEC9BF0070E6E6FDC
:102F5000D00E6D6F40EC91F08C7CEB0509E10150D7
:102F6000030B06E106C09CF007C09DF08FEC95F0C6
:102F700049EC9BF00001EB5150EC9BF0C05112006A
:102F8000726B736B6F5170111BE0010E716F04D087
:102F9000D8906F377037712B70AFFAD7D8907237DF
:102FA00073376F516D5D70516E5905E36F516D5FF1
:102FB00070516E5B7281D89070336F33712FEED782
:102FC00072C06DF073C06EF012009D6F4EEC9AF0FF
:102FD000B60E796F010E7A6FDE0E7B6FFF0E7C6F7F
:102FE0009DC07DF07E6B00EC80F0C60E796F010E07
:102FF0007A6FCD0E7B6FFF0E7C6F9CC07DF07E6B79
:1030000000EC80F09AEF94F04EEC9AF0B60E796FE7
:10301000010E7A6F9CC07BF09DC07CF09EC07DF05D
:103020007E6B00EC80F09AEC94F09F51D8B41200C3
:10303000A06B6E6BFA0E6D6F40EC91F0A02B070E3B
:10304000A065F7D7070C7651771117E0010E786F5E
:1030500004D0D89076377737782B77AFFAD7765178
:10306000745D7751755904E37651745F7751755BE0
:10307000D89077337633782FF2D774C074F075C058
:1030800075F012007C6F15D04CEC97F06DC08BF191
:103090006EC08CF16FC08DF170C08EF14CEC97F06A
:1030A0006DC08FF16EC090F16FC091F170C092F160
:1030B000120000017C51E8E0010AD8A4030A1200C2
:1030C0007B6F00016E6B010E6D6F40EC91F0800E16
:1030D00024EC99F000017B510AEC99F000F000F02B
:1030E00000F000F0C00E24EC99F000F000F000F0C9
:1030F00000F000F000F0000E24EF99F00001786F6E
:10310000030E786501D0030C78C0ECF0ECC077F0CA
:10311000773BF00E7717E0510F0B7711E06FEC0E55
:103120006E6F6F6B23C070F024C071F0736B010E73
:10313000726F32EF93F07B6F000E24EC99F0000178
:103140006E6B010E6D6F40EC91F07B510AEC99F0C3
:1031500000F000F000F000F0400E24EC99F000F0D8
:1031600000F000F000F000F000F0000E24EF99F005
:10317000A36F0001A3510E0D2A0EF324D96E020E87
:10318000F420DA6E0201DFAE000C0001A3510E0D37
:10319000220EF3249E6F020EF4209F6F010EA06F8B
:1031A000A2C0A1F00EEF9BF0E26B930EE225D96E68
:1031B000DA6A010EDA227A0EDF6EE22B220E946FAB
:1031C000020E956F010E966F000E976B47EC92F012
:1031D0009E6F9E51D8A41200010E1F6E010C0001BB
:1031E000706F000E24EC99F0000170510AEC99F018
:1031F00000F000F000F0400E24EC99F000F000F038
:1032000000F000F000F000F000F000F000F0000E20
:1032100024EF99F06E6F000EF0BA010E00016F6F8F
:10322000F09A8994400EEBEC9AF0130EEBEC9AF0C6
:1032300000016E51EBEC9AF0898400016FB102D06D
:10324000F09A01D0F08A120000016E6F000EF0BA01
:10325000010E6F6FF09A8994400EEBEC9AF0120E0B
:10326000EBEC9AF000016E51EBEC9AF089840001CE
:103270006FB102D0F09A01D0F08A1200776F00018E
:10328000726B775196EC92F0000910E077C0E9F08C
:10329000E90E00016E6F6F6B25C070F026C071F0F3
:1032A000736B010E726F32EC93F0010C000C8D9475
:1032B000030EEBEC9AF000017051EBEC9AF00BD09E
:1032C00037EC9BF06EC0D9FF6FC0DAFFDF6E0001F4
:1032D0006E4B6F2B710700017151F2E18D8412006A
:1032E00000016E6F000EF0BA010E706FF09A8D96AD
:1032F0006E8D6E51EBEC9AF037EC9BF000016F6F26
:103300008D8670B102D0F09A01D0F08A00016F5121
:103310001200000EF0BA010E00016E6FF09A89944F
:10332000400EEBEC9AF0010EEBEC9AF0000EEBEC99
:103330009AF0898400016EB102D0F09A01D0F08A2F
:1033400012006D510E24716F6E510F20726F710556
:10335000800E725901E3000C6FC0D9FF70C0DAFF14
:103360000EC0DEFF0FC0DDFF6D510E266E510F2225
:10337000010C000EF0BA010E6E6FF09A8994400EA7
:10338000EBEC9AF0000EEBEC9AF0000EEBEC9AF0FE
:10339000898400016EB102D0F09A01D0F08A120047
:1033A000736B73516F25D96E000E7021DA6E7351F5
:1033B0006D25E16E000E6E21E26EDE50E61801E032
:1033C000000C732B070E7365ECD7010C2E6E000EEC
:1033D000F0BA010E306EF09A8D962E8C2E50F8ECCD
:1033E0009AF03CEC9BF02F6E8D8630B002D0F09AB4
:1033F00001D0F08A2F501200000EF0BA010E706F4B
:10340000F09A8D966F51EBEC9AF000016E51EBEC57
:103410009AF08D86000170B102D0F09A01D0F08A46
:1034200012006DC073F06EC074F008D073C0D9FF85
:1034300074C0DAFF6FC0DFFF734B742B7107D8A025
:1034400072077129F3E17229F1E112006E6F080E23
:1034500000016F6F706BD8906E357035706FD890BB
:103460006E376D51705D02E36D51705F6F2FF3D752
:1034700070511200E26B930EE225D96EDA6A010EEA
:10348000DA22DA0EDF6EE22B9EC094F09FC095F038
:10349000010E966F000E976B47EF92F0010EEFEC66
:1034A00098F000016E6B020E6D6F40EC91F0B60E5D
:1034B0006D6F010E6E6F706B200E6F6F726B716FA0
:1034C00011EF9AF06E6F000EF0BA010E00016F6FEF
:1034D000F09A8B946E51EBEC9AF08B8400016FB1F3
:1034E00002D0F09A01D0F08A12006D516F03F3CF31
:1034F00071F0F4CF72F06D517003F35072276E517A
:103500006F03F350722771C06DF072C06EF012003D
:10351000000EF0BA010E306EF09A8D962F50F8EC36
:103520009AF02E50F8EC9AF08D8630B002D0F09AD6
:1035300001D0F08A1200A26F0001A15104E1AD0E8A
:103540009C6FFE0E03D0CD0E9C6FFE0E9D6FA2C031
:103550009EF0010E9F6F04EF98F02E6E000EF0BAF1
:10356000010E2F6EF09A8B942E50F8EC9AF08B840B
:103570002FB002D0F09A01D0F08A12009BEC96F0A6
:1035800018EC9BF021EC9BF055EC94F0DD6FDD51D5
:10359000C6EC95F04CEC9BF0FDD7020E1760020CC8
:1035A0001750390D000EF324D96E030EF420DA6E95
:1035B000000EDF6A176812006F6F00016E6B3A0E23
:1035C0006F6105D02F0E6F6502D0010E6E6F6EC059
:1035D0006DF06D31120000016D6F9E96C950C69E50
:1035E0006DC0C9FFC6BEFBD79EA6FED79E96120031
:1035F0002D6E9E96C950C69E2DC0C9FFC6BEFBD774
:103600009EA6FED79E9612009E6F0001946B956B4E
:10361000966B9EC097F0010E47EF92F09EC094F01B
:103620009FC095F0000E966BA1C097F047EF92F007
:10363000380ECD6E9E909D80CD80226A0001E56B94
:103640001200EC0E9C6FFE0E9D6F9E6B010E9F6F25
:1036500004EF98F000019F6F9EC09CF09F51E5EF32
:1036600097F0B7EC83F00001E1B7010C000C000EFD
:10367000EBEC9AF0C9501200000EF8EC9AF0C95029
:103680001200FF11223344556611949A94969E9627
:103690001200E197CDEF9AF055EF87F000F012009D
:0C36A000120012001200120012000103C0
:06FFF800A0F4C5F7F8FFBC
:00000001FF
