:040000004FEF02F0CC
:100008004F82E1CF30F0E2CF31F0D9CF32F0DACF02
:1000180033F0F3CF34F0F4CF35F0F0B0F0A60ED2D1
:10002800600E3E1801E005D2280E19EC39F02C6E4E
:10003800D8902C300101D06FD0C1CFF1899A12EC41
:100048003BF00001706F898A716B7151470D1E0E6C
:10005800F324D96E030EF420DA6EDFA005D0000178
:10006800712B010E7165F1D7020E0001701903E1C1
:10007800010E6B6F01D06B6B400E706107D0705131
:1000880005E0010E716512D06B5110E11A0E19ECE2
:1000980039F007D0899A12EC3BF0898A1A0E19ECCC
:1000A80039F00001636F63B3F5D7C6D16E6B70C0CA
:1000B80061F0626BBAD16107D8A062076B5108E0A2
:1000C800899A6E51640FD96EDA6A12EC3BF016D039
:1000D800899A7151470D1E0E2C6E030E2D6E2C2A17
:1000E800000E2D22F3502C26F4502D226E512C2474
:1000F800D96E000E2D20DA6E12EC3BF0DF6E000197
:100108006E2B898A70516E5D01E28FD16B5123E0AD
:100118006451030B020A07E14250651901E08CD1D2
:10012800010E436E89D1010E716501D0AFD77151AF
:10013800470D1F0EF324D96E030EF420DA6E64C047
:10014800DFFF7151470D200EF324D96E030EF42002
:10015800DA6E65C0DFFF7151470D5F0EF324D96E6B
:10016800030EF420DA6E70C0DFFF6F696A6B71519D
:10017800470D1F0EF324D96E030EF420DA6EDFACA0
:100188008FD0680E0001606F726B7151470D1E0EA3
:100198002C6E030E2D6E030E2C26000E2D22F3500E
:1001A8002C26F4502D2272512C24D96E000E2D20AD
:1001B800DA6E60517225E16EE26ADFCFE7FF722BDB
:1001C800010E7265E2D7682902E169290AE0EB515C
:1001D800681903E1EC51691904E0EB2955E1EC29B0
:1001E80053E1010E6A6F726B20D072513724D96EB9
:1001F800000E3820DA6E7151470D1E0E2D6E030E5B
:100208002E6E050E2D26000E2E22F3502D26F450AC
:100218002E2272512D24E16E000E2E20E26EDE5049
:10022800E61802E06A6B09D0722B3630E832E83201
:100238000F0B2C6E2C50725DD8E36A5125E1010E2C
:100248006A6F726B19D07151470D1E0E2C6E030E1A
:100258002D6E050E2C26000E2D22F3502C26F45060
:100268002D2272512C24D96E000E2D20DA6EDE2834
:1002780002E06A6B09D0722B3630E832E8320F0B95
:100288002C6E2C50725DDFE36A510AE17151470D03
:100298005F0EF324D96E030EF420DA6EDF6AF6D609
:1002A80000017151470D1F0EF324D96E030EF4207F
:1002B800DA6EDFAA37D0726B780E7225D96EDA6AD9
:1002C800040EDA227251640FE16EE26ADFCFE7FFB3
:1002D800722B010E7265F0D7060E0401786F0001CB
:1002E8007151470D200EF324D96E030EF420DA6EF7
:1002F800DF500401796FF090156A020EE8EC22F0E5
:100308000001726B7251640FD96EDA6A780E722529
:10031800E16EE26A040EE222DFCFE7FF722B010EE4
:100328007265F0D70001726B7251060D000EF3244E
:10033800D96E030EF420DA6EDF5026E07151470DB6
:10034800200EF324D96E030EF420DA6E7251060DD6
:10035800010EF324E16E030EF420E26EDE50E6187F
:1003680013E185EC38F07251060D020EF324D96EB4
:10037800030EF420DA6E0DC0DEFF0EC0DEFF0FC0E4
:10038800DEFF10C0DEFF12D06F290CE17251060D9E
:10039800000EF324D96E030EF420DA6EDF5002E16A
:1003A80072C06FF0722B040E7265BED7040E7265B0
:1003B80043D0050E6F612ED06F51060D000EF32449
:1003C800D96E030EF420DA6E010EDF6E7151470DFF
:1003D800200EF324D96E030EF420DA6E6F51060D49
:1003E800010EF324E16E030EF420E26EDFCFE7FF87
:1003F80085EC38F06F51060D020EF324D96E030E0A
:10040800F420DA6E0DC0DEFF0EC0DEFF0FC0DEFF87
:1004180010C0DEFF7151470D1E0EF324D96E030E76
:10042800F420DA6E0301DF8007D06151621104E025
:1004380042D6010E0001E96FF09000F0F2B4F2AA82
:1004480018D0D6CF6CF0D7CF6DF00101BE2B000EBF
:10045800BF23C023C12300018F0E6C27E80E6D2334
:100468006CC0D6FF6DC0D7FF6CC0D6FFF294010EEA
:10047800EA6FF2B2F2A801D0F29235C0F4FF34C0AC
:10048800F3FF33C0DAFF32C0D9FF31C0E2FF30C01A
:10049800E1FF4F9211001BEF29F08AC1A0F18BC137
:1004A800A1F18AC1A6F18BC1A7F1CCEC3AF073C0D7
:1004B80097F174C098F101019A6B9B6B9C6B9D6BD3
:1004C8009AC173F09BC174F09CC175F09DC176F020
:1004D8008A290001776F000E01018B210001786FD6
:1004E8008CC179F08DC17AF0BCEC2DF073C09AF113
:1004F80074C09BF175C09CF176C09DF19AC1ABF0B8
:100508009BC1ACF09CC1ADF09DC1AEF0A0EC10F069
:10051800000902E010EF3AF001018F0559E120EEE1
:1005280002F0A051D926A151DA22220EDE1850E19C
:100538009E0E0001756F010E766F860E776F010EA5
:10054800786F7A6B020E796F54EC35F0010120EE6A
:1005580006F0A051D926A151DA22DECF91F1DDCFE4
:1005680092F1970E936F340E946F9E1D956F9F1D99
:10057800966F93519527945196239151951B9251BB
:10058800961B20EE06F0A051D926A151DA2295C17A
:10059800DEFF96C1DDFF860E00019F6F010EA06F82
:1005A8008AC1A1F08BC1A2F08CC1A3F08EC1A4F0C6
:1005B80025EC24F0860E9D6F010E9E6F8AC19FF078
:1005C8008BC1A0F08CC1A1F049EC22F030EF3BF0D8
:1005D8002AEC3BF0000919E120EE06F0A651D926D5
:1005E800A751DA22DECF8FF0DDCF90F020EE03F0B6
:1005F800A651D926A751DA22DF50070B0001916FC7
:10060800E5EC1BF0E80601E080D201018F0512E15C
:1006180020EE02F0A051D926A151DA22270EDE18C9
:1006280009E138EC3BF0E80601E06FD225EC31F047
:1006380030EF3BF08F051AE120EE02F0A051D926E9
:10064800A151DA22280EDE1811E1882903E189294F
:1006580001E15BD288C173F089C174F08EC175F075
:100668000001766B14EC1BF030EF3BF020EE02F04B
:10067800A651D926A751DA22230EDE1825E020EE4E
:1006880002F0A651D926A751DA22240EDE181CE062
:1006980020EE02F0A651D926A751DA22250EDE183F
:1006A80013E020EE02F0A651D926A751DA22260E31
:1006B800DE180AE020EE02F0A651D926A751DA2268
:1006C800290EDE1801E021D2C6EC3AF097C1D9FF15
:1006D80098C1DAFFDECF7DF0DDCF7EF0010120EE9C
:1006E80004F0A651D926A751DA22DECF7FF0DDCF5C
:1006F80080F0BAEC39F0000928E1010120EE04F09D
:10070800A651D926A751DA22DECF7BF0DDCF7CF0C7
:10071800E1EC36F0000919E12AEC3BF000097FE131
:1007280094EC39F07BC07DF07CC07EF0010120EEB6
:1007380004F0A651D926A751DA22DECF7FF0DDCF0B
:1007480080F0BAEC39F000096AE0A6C1D9FFA7C168
:10075800DAFFDF5029E0010120EE04F0A651D92686
:10076800A751DA22DECF7BF0DDCF7CF0E1EC36F06A
:10077800000907E101018F0517E12AEC3BF00009A8
:1007880013E1A6C1D9FFA7C1DAFFDF068AC19FF02E
:100798008BC1A0F08CC1A1F08DC1A2F090C1A3F0D3
:1007A8000001A46BADEC1CF001018F5119E120EEA2
:1007B80006F0A651D926A751DA22DECFA2F1DDCF65
:1007C800A3F186C1A4F187C1A5F1A20E00018F6F24
:1007D800010E906FA40E916F010E926FD7EC11F07D
:1007E800010120EE04F0A651D926A751DA22DECF66
:1007F8007BF0DDCF7CF0E1EC36F00101996F8AC126
:10080800DCF08BC1DDF08CC1DEF08DC1DFF099C169
:10081800E0F090C1E1F07CEC16F030EF3BF0010124
:100828008F051CE1A6C1D9FFA7C1DAFFDF5001E19E
:100838006CD1A6C1D9FFA7C1DAFFDF068AC19FF034
:100848008BC1A0F08CC1A1F08DC1A2F090C1A3F022
:100858000001A46BADEC1CF030EF3BF020EE04F08F
:10086800A651D926A751DA22DECF7DF0DDCF7EF062
:1008780094EC39F07BC07FF07CC080F0BAEC39F0A2
:10088800E8062BE1010120EE06F0A651D926A75172
:10089800DA22DECFA2F1DDCFA3F186C1A4F187C1B0
:1008A800A5F1A20E00018F6F010E906FA40E916F3B
:1008B800010E926FD7EC11F08AC18AF08BC18BF0D0
:1008C8008CC18CF08DC18DF0010E00018E6F90C12E
:1008D8008FF0FFEC20F030EF3BF0010120EE02F04A
:1008E800A651D926A751DA22260EDE1825E120EED8
:1008F80006F0A651D926A751DA22DECFA2F1DDCF24
:10090800A3F186C1A4F187C1A5F1A20E00018F6FE2
:10091800010E906FA40E916F010E926FD7EC11F03B
:100928002AEC3BF0000908E120EE02F0A651D92696
:10093800A751DA22230EDF6E20EE04F0A651D92645
:10094800A751DA22DECFA2F1DDCFA3F1A2C181F057
:10095800A3C182F014EC32F0020A14E1A2C17FF0C4
:10096800A3C180F08AC181F08BC182F08CC183F071
:100978008DC184F090C185F0010E866FF4EC3AF0D9
:1009880030EF3BF0A2C1ABF0A3C1ACF0A7EC1FF075
:10099800ABC0A4F1ACC0A5F1A4C17BF0A5C17CF0AB
:1009A800E1EC36F0E8067CE1010120EE02F0A65108
:1009B800D926A751DA22260EDE1801E0A0D020EEB3
:1009C80004F0A651D926A751DA22DECF8BF0DDCF6D
:1009D8008CF04EEC34F08BC0A4F18CC0A5F1A4C10E
:1009E8007BF0A5C17CF0E1EC36F0000945E12AEC8A
:1009F8003BF000090FE0A4C17DF0A5C17EF00DEC2D
:100A08003BF073C07FF074C080F0BAEC39F0000995
:100A180001E052D7A4C1BCF0A5C1BDF0FEEC3AF08C
:100A280073C0BEF074C0BFF08AC1C0F08BC1C1F002
:100A38008CC1C2F090C1C3F0D3EC35F0000965E178
:100A4800A4C197F0A5C198F029EC33F0010120EE7C
:100A580004F0A651D926A751DA22DECF7DF0DDCFEA
:100A68007EF0A4C17FF0A5C180F0BAEC39F0E806A9
:100A78004CE12AEC3BF002D02AEC3BF0000901E003
:100A88001BD7A6C1D9FFA7C1DAFF140EDF6E20EE6F
:100A980002F0A651D926A751DA22230EDF6ECED650
:100AA8002AEC3BF000090FE0A4C17DF0A5C17EF05F
:100AB8000DEC3BF073C07FF074C080F0BAEC39F0F5
:100AC800000901E0F9D6A4C1BCF0A5C1BDF0FEEC57
:100AD8003AF073C0BEF074C0BFF08AC1C0F08BC1D9
:100AE800C1F08CC1C2F090C1C3F0D3EC35F000095D
:100AF8000CE1A2C181F0A3C182F042EC2FF0A6C1A3
:100B0800D9FFA7C1DAFF140EC9D730EF3BF051D097
:100B1800010E05D018EC38F0E80651E1020E406EDF
:100B28004ED018EC38F000094AE10101426B436BE2
:100B38004C0E4203F3CFC5F0F4CFC6F04303F35095
:100B48000001C6274B0EC525D96E060EC621DA6EE2
:100B5800DF5026E04C0E01014203F3CFC5F0F4CF7D
:100B6800C6F04303F3500001C6274B0EC525D96EC6
:100B7800060EC621DA6E010EDF6E4C0E010142032D
:100B8800F3CFC5F0F4CFC6F04303F3500001C627F6
:100B9800490EC525D96E060EC621DA6E000EDF6E27
:100BA8000101424B432B4351B3E1020E425DB0E2D7
:100BB800BFD74050ADE0010AADE0030AB2E0020E33
:100BC8004018D8A412000101426B436B95D14C0E1A
:100BD80001014203F3CFC5F0F4CFC6F04303F3504D
:100BE8000001C627400EC525D96E060EC621DA6E4D
:100BF800DF5001E199D14C0E01014203F3CFC5F05A
:100C0800F4CFC6F04303F3500001C6274A0EC525AA
:100C1800D96E060EC621DA6E0601DFB038D094EC24
:100C280039F07BC07FF07CC080F0000E816F010E30
:100C3800826F230E836F4C0E01014203F3CFC5F080
:100C4800F4CFC6F04303F3500001C627000EC525B4
:100C5800846F060EC621856F4C0E01014203F3CF47
:100C6800C7F0F4CFC8F04303F3500001C827400E83
:100C7800C725D96E060EC821DA6EDF50866F876BDE
:100C880007EC2AF07FC040F180C041F141D0000E4E
:100C98000001756F010E766F4C0E01014203F3CF10
:100CA800C5F0F4CFC6F04303F3500001C627000E89
:100CB800C525776F060EC621786F4C0E01014203D9
:100CC800F3CFC7F0F4CFC8F04303F3500001C827AF
:100CD800400EC725D96E060EC821DA6EDF50796F2F
:100CE8007A6B54EC35F04C0E01014203F3CFC5F09A
:100CF800F4CFC6F04303F3500001C627400EC525C4
:100D0800D96E060EC621DA6EDF500101406F416BC5
:100D18000DEC3BF073C0BCF074C0BDF0FEEC3AF0D3
:100D280073C0BEF074C0BFF0000E0001C06F010EAA
:100D3800C16F40C1C2F04C0E01014203F3CFC5F0B0
:100D4800F4CFC6F04303F3500001C6274A0EC52569
:100D5800D96E060EC621DA6E000EDFB2010EC36F21
:100D6800D3EC35F0E80613E14C0E01014203F3CF52
:100D7800C5F0F4CFC6F04303F3500001C6274B0E6D
:100D8800C525D96E060EC621DA6E000EB3D04FEC1B
:100D980038F04C0E01014203F3CFC5F0F4CFC6F092
:100DA8004303F3500001C627410EC525D96E060E30
:100DB800C621DA6E070EEBCFDBFFE806FCE24C0E2D
:100DC80001014203F3CFC5F0F4CFC6F04303F3505B
:100DD8000001C627490EC525D96E060EC621DA6E52
:100DE800DF2A4C0E01014203F3CFC5F0F4CFC6F061
:100DF8004303F3500001C627490EC525D96E060ED8
:100E0800C621DA6E030EDF6013D04C0E01014203D7
:100E1800F3CFC5F0F4CFC6F04303F3500001C62763
:100E28004B0EC525D96E060EC621DA6E020E62D0AB
:100E38004C0E01014203F3CFC5F0F4CFC6F04303D3
:100E4800F3500001C6274B0EC525D96E060EC621E4
:100E5800DA6E020EDF6E0DEC3BF073C08FF074C0DB
:100E680090F00FEC2EF060D04C0E01014203F3CF4E
:100E7800C5F0F4CFC6F04303F3500001C627410E76
:100E8800C525D96E060EC621DA6E00EE8FF0070E64
:100E9800DBCFEBFFE806FCE2A6EC30F092519111B3
:100EA80005E1A10E8F5D0F0E90593EE34C0E010136
:100EB8004203F3CFC5F0F4CFC6F04303F35000016B
:100EC800C627490EC525D96E060EC621DA6EDF2A59
:100ED8004C0E01014203F3CFC5F0F4CFC6F0430333
:100EE800F3500001C6274B0EC525D96E060EC62144
:100EF800DA6E010EDF6E18D04C0E4203F3CFC5F048
:100F0800F4CFC6F04303F3500001C6274B0EC525A6
:100F1800D96E060EC621DA6EDF5006E0010A01E13D
:100F280056D6030AA1E020D70101424B432B435177
:100F380003E1020E425DE0E312000001B86B6AECC7
:100F480038F07FC0ACF080C0ADF081C0AEF082C098
:100F5800AFF0B851060D000EF324D96E030EF4203D
:100F6800DA6EDF503EE0B851060D020EF324D96E5A
:100F7800030EF420DA6EAC51DE5CAD51DE58AE5192
:100F8800DE58AF51DE582DE2B851060D020EF3249B
:100F9800D96E030EF420DA6EDECFA4F0DECFA5F012
:100FA800DECFA6F0DECFA7F0A451AC5DA86FA551A7
:100FB800AD59A96FA651AE59AA6FA751AF59AB6FDA
:100FC800AB51AA1105E1E90EA85D030EA95909E381
:100FD800B851060D000EF324D96E030EF420DA6E14
:100FE800DF6AB82B040EB865AAD73F2801E0000CC9
:100FF800B86BB851470D1E0EF324D96E030EF420BA
:10100800DA6EDFA05DD10001B851470D1F0EF32441
:10101800D96E030EF420DA6EDF500201336F00013F
:10102800B851470D5F0EF324D96E030EF420DA6E23
:10103800DF500201386F020E0001B76F020133ADB5
:101048001AD03D0E0001756F020E766FB851470D2C
:10105800210EF324776F030EF420786F7A6B020E5B
:10106800796F54EC35F0020EB7273630E832E832A3
:101078000F0BB72702D03D693E69020133AF3CD060
:101088003B0E0001756F020E766FB851470D1E0EAC
:10109800A46F030EA56FA42B000EA523F350A4275D
:1010A800F450A523B751A425776F000EA521786FBA
:1010B8007A6B020E796F54EC35F0020EB727B851EF
:1010C800470D1E0EA46F030EA56FA42B000EA523BB
:1010D800F350A427F450A523B751A4250201346F77
:1010E8000001000EA5210201356F3630E832E832E2
:1010F8000F0B0001B72706D0346B356BEBC03BF202
:10110800ECC03CF2020133A7BBD00001B851470D37
:101118001E0EA46F030EA56F050EA427000EA523AF
:10112800F350A427F450A523B751A425D96E000E77
:10113800A521DA6EDF500AE0B851470D1E0EF324E0
:10114800D96E030EF420DA6EDF6A000C020133AFA9
:1011580071D00001B66BB00E756F766B34C277F044
:1011680035C278F07A6B020E796F54EC35F0B651CF
:101178000B0DC20EF324D96E040EF420DA6EDFAE26
:1011880015D00001B6510B0DC00EF324D96E040E14
:10119800F420DA6EDECF7DF0DDCF7EF0B0C07FF0D8
:1011A800B1C080F0BAEC39F0000905E10001B62BB6
:1011B800040EB665D0D7050EB6613CD0B20E756F79
:1011C800766BB851470D1E0EA46F030EA56FA42BA6
:1011D800000EA523F350A427F450A523B751A42546
:1011E800776F000EA521786F7A6B040E796F54EC37
:1011F80035F0B6510B0DB80EF324D96E040EF42059
:10120800DA6EDE50B25DDE50B359DE50B459DE50AE
:10121800B55992E3B6510B0DB80EF324D96E040EEE
:10122800F420DA6EB2C0DEFFB3C0DEFFB4C0DEFF6A
:10123800B5C0DEFF050E0001B727B851470D1F0ED8
:10124800F324976F030EF420986FB7C099F0B85144
:10125800470D5F0EF324D96E030EF420DA6EDF50CB
:10126800A46FB751A45D9A6F510E9B6F020E9C6FCD
:10127800E2EC2AF0000901E15FD7B751020F02D072
:101288000001B7510201385F0001B851470D1E0E29
:10129800A46F030EA56FA42B000EA523F350A4275B
:1012A800F450A523B751A4250201366F0001000EA2
:1012B800A5210201376FCFC139F2B8C03FF0010C48
:1012C8000001B82B010EB86594D6000C916B926B97
:1012D80094D19151921102E18B9406D0910592110B
:1012E80002E1899C01D0899EC50E9125D96E010E17
:1012F8009221DA6E010E6CD0C20E9125D96E010EC4
:101308009221DA6E020EDE180AE151D0898EC50EDE
:101318009125D96E010E9221DA6E050E19D1C20EF1
:101328009125D96E010E9221DA6E030EDE1836E190
:101338006AEC38F0000E876F020E886FD8909135EE
:10134800D96E9235DA6ED890D936DA368751D926E1
:101358008851DA227FC0DEFF80C0DEFF81C0DEFF59
:1013680082C0DEFFC50E9125D96E010E9221DA6E7C
:10137800030EDF6E2C0E9125D96E020E9221DA6EC5
:10138800010EDF6E9151921102E18B841AD0910502
:10139800921102E1898C15D0898E13D0C20E912545
:1013A800D96E010E9221DA6E040EDE180AE191510F
:1013B800921102E18B84ABD791059211A7E1898C38
:1013C800A6D7C20E9125D96E010E9221DA6E000EB3
:1013D800DF6E27D1000E876F020E886FD890913587
:1013E800D96E9235DA6ED890D936DA368751D92641
:1013F8008851DA22DECF89F0DECF8AF0DECF8BF09B
:10140800DECF8CF06AEC38F089517F5D8D6F8A51A0
:1014180080598E6F8B5181598F6F8C518259906F83
:1014280090518F118E1104E1150E8D5D01E2F9D0F6
:10143800C50E9125D96E010E9221DA6E040EDF6E6B
:101448006AEC38F0000E876F020E886FD8909135DD
:10145800D96E9235DA6ED890D936DA368751D926D0
:101468008851DA227FC0DEFF80C0DEFF81C0DEFF48
:1014780082C0DEFF2C0E9125D96E020E9221DA6E03
:10148800DE040CE19151921102E18B94CAD09105CE
:10149800921102E1899CC5D0899EC3D091519211C5
:1014A80002E18B84BED09105921102E1898CB9D0FA
:1014B800898EB7D0000E876F020E886FD89091354D
:1014C800D96E9235DA6ED890D936DA368751D92660
:1014D8008851DA22DECF89F0DECF8AF0DECF8BF0BA
:1014E800DECF8CF06AEC38F089517F5D8D6F8A51C0
:1014F80080598E6F8B5181598F6F8C518259906FA3
:1015080090518F118E1104E1150E8D5D01E289D085
:101518002C0E9125D96E020E9221DA6EC50E9125F8
:10152800E16E010E9221E26EDFCFE7FF7AD0C20EA4
:101538009125D96E010E9221DA6EDE040BE153D0AB
:10154800899EC50E9125D96E010E9221DA6E010E83
:10155800DF6E37D7C20E9125D96E010E9221DA6E51
:10156800030EDE1836E16AEC38F0000E876F020EC3
:10157800886FD8909135D96E9235DA6ED890D93671
:10158800DA368751D9268851DA227FC0DEFF80C03B
:10159800DEFF81C0DEFF82C0DEFFC50E9125D96E59
:1015A800010E9221DA6E030EDF6E2C0E9125D96E94
:1015B800020E9221DA6E050EDF6E9151921102E150
:1015C8008B94FFD69105921102E1899CFAD6899EE7
:1015D800F8D6C20E9125D96E010E9221DA6E040E4C
:1015E800DE1801E0EED69151921102E18B94A9D751
:1015F80091059211A5E1899CA4D7C50E9125D96EB4
:10160800010E9221DA6EDF5001E163D6010A01E191
:1016180073D6020A01E1DED6070A01E14BD7010AB7
:1016280086E0914B922B925103E1030E915DE5E325
:101638001200D2EC3AF073C0A3F074C0A4F02AEC04
:101648003BF00009D8B4120000019D6B9E6B9F69A6
:10165800A0699B699C69976B986BB5D0090E970335
:10166800F3CF93F0F4CF94F09803F3509427980EA7
:101678009325A16F060E9421A26F20EE02F0A151CE
:10168800D926A251DA22DECF86F0DDCF87F0D8EC5A
:101698003AF0000901E095D020EE02F0A151D926D8
:1016A800A251DA22DECF7DF0DDCF7EF0CCEC3AF02D
:1016B80073C0D9FF74C0DAFFDECF7FF0DDCF80F0D2
:1016C800BAEC39F000097DE1A1C0D9FFA2C0DAFF68
:1016D800DECF85F0DDCF86F0886B876B87EC32F044
:1016E80085C095F086C096F0A1C0D9FFA2C0DAFFE8
:1016F800DECF85F0DDCF86F0000120EE04F0A151A9
:10170800D926A251DA22DECF87F0DDCF88F087EC28
:1017180032F085C099F086C09AF0A1C0D9FFA2C066
:10172800DAFFDECF7DF0DDCF7EF0A3C0D9FFA4C005
:10173800DAFFDECF7FF0DDCF80F0BAEC39F00009B8
:1017480023E099C09BF09AC09CF020EE04F0A151D0
:10175800D926A251DA2210EE02F0A351E126A451B3
:10176800E222DECFE6FFDDCFE5FF20EE07F0A15154
:10177800D926A251DA2210EE05F0A351E126A45190
:10178800E222DFCFE7FF1DD020EE07F0A151D926D6
:10179800A251DA22DF5015E195C073F096C074F0BB
:1017A800B2EC3AF000090DE09F51995DA0519A59A9
:1017B80008E299C09FF09AC0A0F0A1C09DF0A2C015
:1017C8009EF0974B982BE751975DE851985901E2A5
:1017D80045D79F2903E1A02901E17FD09B2902E198
:1017E8009C2926E020EE05F0A351D926A451DA223F
:1017F800DE0413E120EE02F0A351D926A451DA2227
:10180800DECF93F0DDCF94F00A0E9327000E9423D9
:1018180093519F5D9451A0590BE30F0E9F25936F31
:10182800000EA021946F9B51935D9C51945955E2F1
:10183800A3C0D9FFA4C0DAFFDECF85F0DDCF86F0E4
:10184800BFEC37F09DC0D9FF9EC0DAFFDECF85F030
:10185800DDCF86F0DDEC37F09DC0D9FF9EC0DAFF02
:10186800DECF85F0DDCF86F0A9EC35F09DC0D9FF3D
:101878009EC0DAFFA3C0E1FFA4C0E2FFDECFE6FF0F
:10188800DDCFE5FF20EE04F09D51D9269E51DA22E6
:1018980010EE02F0A351E126A451E222DECFE6FFCA
:1018A800DDCFE5FF20EE07F09D51D9269E51DA22C3
:1018B80010EE05F0A351E126A451E222DFCFE7FFA5
:1018C8009F519B5D936FA0519C59946F945103E174
:1018D800150E935D02E332EC3BF044500FE0A3C0D9
:1018E800D9FFA4C0DAFFDECF86F0DDCF87F0D8ECD1
:1018F8003AF0000903E045EC3BF00DD044500BE111
:1019080000019B2908E19C2906E19F2902E1A02901
:1019180002E044EC3BF0446A120093EC29F0BDEC81
:1019280036F095EC17F08BEC05F047D12AEC3BF03C
:10193800000903E1040ED56F040C010E0101D56FF7
:10194800010C2AEC3BF00009D8B412002AEC3BF059
:1019580000090AE00DEC3BF073C086F074C087F014
:10196800D8EC3AF00009E9E10101DF51D8A41200EE
:10197800EFEC1EF07351D36F030E7415D46FD56B53
:10198800D66BE80ED3250201286F030E0001D4217F
:101998000201296F000E0001D52102012A6F000EF5
:1019A8000001D62102012B6F4FEC38F022EE0CF02B
:1019B800070EEBCFDBFFE806FCE2050E0101D56F51
:1019C800050CF9EC3AF0000173517411D8B4120007
:1019D8004FEC38F022EE0CF0070EEBCFDBFFE806F9
:1019E800FCE2020E0101D56F020C22EE0CF000EEB3
:1019F8008FF0070EDBCFEBFFE806FCE2A6EC30F039
:101A08009251911107E1D10E8F5D070E905902E2B4
:101A1800F9EF3AF01DEC0BF0030E0101D56F030C42
:101A28000DEC3BF073C086F074C087F0D8EC3AF048
:101A3800000926E14FEC38F022EE0CF0070EEBCF50
:101A4800DBFFE806FCE2EFEC1EF07351D36F030EE8
:101A58007415D46FD56BD66BE80ED3250201286FA9
:101A6800030E0001D4210201296F000E0001D521C7
:101A780002012A6F000E0001D62102012B6F9DD7AB
:101A8800F9EC3AF000017351741101E156D71200D4
:101A98000DEC3BF073C086F074C087F0D8EC3AF0D8
:101AA800E806BAE022EE0CF000EE8FF0070EDBCF6E
:101AB800EBFFE806FCE2A6EC30F08F510201285D4E
:101AC80000019051020129590001915102012A593E
:101AD8000001925102012B59D8B0120046EC3BF09C
:101AE8000009D8A412000101D70794EC39F07BC093
:101AF8007FF07CC080F0440E816F010E826F240E4F
:101B0800836F846B856B876B866B07EC2AF07FC0CD
:101B180057F180C058F1440E01015725D96E010EC6
:101B28005821DA6E2AEC3BF0DF6E574B582B0DEC40
:101B38003BF073C0BCF074C0BDF0FEEC3AF073C06B
:101B4800BEF074C0BFF0440E0001C06F010EC16F3B
:101B580057C1C2F027EC3BF00001C36FD3EC35F05E
:101B6800000908E10DEC3BF073C08FF074C090F0F1
:101B78000FEC2EF0060E0101D56F4FEC38F022EE77
:101B88000CF0070EEBCFDBFFE806FCE2120022EEBA
:101B98000CF000EE8FF0070EDBCFEBFFE806FCE25F
:101BA800A6EC30F09251911107E1E90E8F5D030E1A
:101BB800905901E3DDD61200DBD60101D55101E1D0
:101BC800B5D6010A01E1FDD6030A01E10ED7010AE3
:101BD80001E126D7070A01E1B4D6010A01E158D785
:101BE800030AD5E01200966B96510B0D000EF324F4
:101BF800976F050EF420986F97C0D9FF98C0DAFF49
:101C0800DECF7DF0DDCF7EF088C07FF089C080F028
:101C1800BAEC39F0000901E137D120EE05F097510F
:101C2800D9269851DA22DFA02FD120EE04F097515F
:101C3800D9269851DA22DF508A6F20EE03F09751A7
:101C4800D9269851DA22DF508A25936F20EE05F0C5
:101C58009751D9269851DA22DFB273D020EE03F0DB
:101C68009751D9269851DA22DF508A6F8AC08BF0B3
:101C78008C6B8D6B8E6BFA0E8B03F3CF8FF0F4CFDA
:101C880090F0916B926B8C03F3509027F450912352
:101C9800000E92238B03F3509027F4509123000EEB
:101CA8009223FA0E8D03F3509127F4509223000EDD
:101CB8008C03F3509127F4509223000E8B03F350BA
:101CC8009127F4509223FA0E8E03F3509227000EB8
:101CD8008D03F3509227000E8C03F3509227000EC9
:101CE8008B03F35092278FC073F090C074F091C0AB
:101CF80075F092C076F09351776F786B796B7A6B49
:101D0800D9EC31F073C094F074C095F020EE06F071
:101D18009751D9269851DA2294C0DFFF20EE06F0B9
:101D28009751D9269851DA22DF5045EC37F020EE4A
:101D380007F09751D9269851DA227BC0DEFF7CC084
:101D4800DDFF20EE05F09751D9269851DA22000ED2
:101D5800DB8220EE03F09751D9269851DA22DF5022
:101D68008A6F8AC08BF08C6B8D6B8E6BFA0E8B032F
:101D7800F3CF8FF0F4CF90F0916B926B8C03F3500C
:101D88009027F4509123000E92238B03F350902751
:101D9800F4509123000E9223FA0E8D03F3509127ED
:101DA800F4509223000E8C03F3509127F4509223A1
:101DB800000E8B03F3509127F4509223FA0E8E03F2
:101DC800F3509227000E8D03F3509227000E8C03D8
:101DD800F3509227000E8B03F35092278FC073F0B5
:101DE80090C074F091C075F092C076F09351776FFF
:101DF800786B796B7A6BD9EC31F073C094F074C05E
:101E080095F020EE06F09751D9269851DA2294C021
:101E18008AF095C08BF0D8908A378B3710EE06F091
:101E28009751E1269851E222E750080D8A51F32490
:101E3800736F8B51F420746F766B0A0E756F98EC84
:101E480036F07351DF6E20EE03F09751D926985182
:101E5800DA22DF6A20EE04F09751D9269851DA2267
:101E6800DF6A97C080F098C081F020EE06F09751A5
:101E7800D9269851DA22DF5045EC37F07BC082F042
:101E88007CC083F0EFEC33F0962B130E9665ACD63E
:101E9800130C7E0E8B6F3ED1250E921909E07AC085
:101EA800D9FF7BC0DAFF92C0DFFF7A4B7B2B32D1A0
:101EB800906B916B876B03D087857C4B7D2B7CC0A7
:101EC800F6FF7DC0F7FF0800F550300AF5E07CC04A
:101ED800F6FF7DC0F7FF0800F55001EC3AF001E28B
:101EE80085D0906B916B90C073F091C074F0766B55
:101EF8000A0E756F6EEC39F073C090F074C091F0F3
:101F0800D00E826F83697CC0F6FF7DC0F7FF0800A2
:101F1800F550846F856B82518427835185238451C2
:101F28009027855191237C4B7D2B7CC0F6FF7DC08B
:101F3800F7FF0800F55001EC3AF058E3D4D78B517D
:101F4800D96EDA6ADECF8CF0DDCF8DF0020E8B27EA
:101F58008C518D1104E1E40E8C6FFF0E8D6F8E6B2A
:101F68008F6B02D08E4B8F2B8E518C25826F8F51A9
:101F78008D21836F82C0F6FF83C0F7FF0800F550FC
:101F8800F1E190518E5D91518F5905E28E51905F2C
:101F98008F51915B0BD0906B916B08D07AC0D9FFB1
:101FA8007BC0DAFF200EDF6E7A4B7B2B9007D8A020
:101FB80091079029F3E1912910E0F0D78CC0F6FF42
:101FC8008DC0F7FF7AC0D9FF7BC0DAFF0800F5CFD4
:101FD800DFFF8C4B8D2B7A4B7B2B8E07D8A08F077E
:101FE8008E29ECE18F2901E195D0E8D77CC0F6FF76
:101FF8007DC0F7FF7C4B7D2B0800F5CF92F0925106
:1020080001E194D0580A05E02B0A99E00B0A01E097
:1020180081D08B51D96EDA6ADECF88F0DDCF89F0B6
:10202800020E8B27010E926F9251020D7D0EF32442
:10203800F66EFF0EF420F76E0900F550885D090072
:10204800F550895904E3922B040E9219EDE1800EA4
:1020580092BF7F0E826F9051925D9151800A825992
:1020680007E29251905F000E92BFFF0E915B02D083
:10207800906B916B87A50FD0905191111DE07AC09C
:10208800D9FF7BC0DAFF300EDF6E7A4B7B2B9007CF
:10209800D8A09107F1D7905191110EE07AC0D9FFDD
:1020A8007BC0DAFF200EDF6E7A4B7B2B9007D8A01F
:1020B800910790519111F2E192C08AF028D088C01E
:1020C80073F089C074F08A51020D7D0EF324F66E08
:1020D800FF0EF420F76E0900F5CF75F00A00F5CF72
:1020E80076F098EC36F073510F0B866FBA0E862592
:1020F800F66EF76AFF0EF7220800F5CF92F07AC065
:10210800D9FF7BC0DAFF92C0DFFF7A4B7B2B8A07AF
:102118008A29D5E17CC0F6FF7DC0F7FF7C4B7D2B7B
:102128000800F5CF92F0925101E0B6D67AC0D9FFF7
:102138007BC0DAFFDF6A000CC269C369C669C76978
:10214800010EC16FC80E736F746B766B7569786B0F
:10215800080E776F2FEC39F0B50E736F746B766BD2
:10216800756B786B0C0E776F2FEC39F0D06BD16BE9
:102178000C0ED003F3CFAFF0F4CFB0F0D103F3508F
:10218800B027A00EAF25D96E0A0EB021DA6ECC5159
:10219800DE5CCD51DE58CE51DE58CF51DE5833E3E8
:1021A8000C0ED003F3CFAFF0F4CFB0F0D103F3505F
:1021B800B027A00EAF25D96E0A0EB021DA6EDE5018
:1021C800CC193BE1DE50CD1938E1DE50CE1935E1AE
:1021D800DE50CF1932E10C0ED003F3CFAFF0F4CFBD
:1021E800B0F0D103F350B0279C0EAF25D96E0A0E7C
:1021F800B021DA6EDE50C85DDE50C959DE50CA59CA
:10220800DE50CB591AE30C0ED003F3CFAFF0F4CF66
:10221800B0F0D103F350B0279C0EAF25D96E0A0E4B
:10222800B021DA6E10EEC8F0070EDBCFE3FFE80648
:10223800FCE2D0C0C2F0D1C0C3F0C62920E1C72952
:102248001EE10C0ED003F3CFAFF0F4CFB0F0D10302
:10225800F350B027980EAF25736F0A0EB021746F34
:10226800B50E756F766B786B0C0E776FFEEC34F0ED
:102278007351741104E1D0C0C6F0D1C0C7F00C0E80
:10228800D003F3CFAFF0F4CFB0F0D103F350B027C1
:10229800980EAF25D96E0A0EB021DA6EAB51DE1852
:1022A80038E1AC51DE1835E1AD51DE1832E1AE51FE
:1022B800DE182FE10C0ED003F3CFAFF0F4CFB0F05F
:1022C800D103F350B0279C0EAF25D96E0A0EB0216A
:1022D800DA6E00EE8FF0070EDBCFEBFFE806FCE2CC
:1022E800A6EC30F0925191110FE1D00E8F5D070EE0
:1022F80090590AE2D0C0C6F0D1C0C7F0D0C0C2F031
:10230800D1C0C3F0C16B0DD0C669C769C269C369C2
:1023180008D0D04BD12BD15104E11E0ED05D01E283
:1023280027D7C62902E1C72905E0C6C0C4F0C7C03F
:10233800C5F004D0C2C0C4F0C3C0C5F0C42902E1CE
:10234800C5292DE00C0EC403F3CFAFF0F4CFB0F0E5
:10235800C503F350B027980EAF25D96E0A0EB021E9
:10236800DA6EABC0DEFFACC0DEFFADC0DEFFAEC0D4
:10237800DEFF4FEC38F00C0EC403F3CFAFF0F4CF10
:10238800B0F0C503F350B0279C0EAF25D96E0A0EE6
:10239800B021DA6E070EEBCFDBFFE806FCE2C15195
:1023A800D8B4010C000C99699A699B699C699F0EC5
:1023B800736F746B766B7569786B080E776F2FEC9B
:1023C80039F0A76BA86B0C0EA703F3CF93F0F4CFEB
:1023D80094F0A803F3509427040E9325D96E040EA5
:1023E8009421DA6EA351DE5CA451DE58A551DE5863
:1023F800A651DE5833E30C0EA703F3CF93F0F4CFC6
:1024080094F0A803F3509427040E9325D96E040E74
:102418009421DA6EDE50A3193CE1DE50A41939E1AB
:10242800DE50A51936E1DE50A61933E10C0EA703DC
:10243800F3CF93F0F4CF94F0A803F3509427000E51
:102448009325D96E040E9421DA6EDE509F5DDE501E
:10245800A059DE50A159DE50A2591BE39F0E756F9B
:10246800766B0C0EA703F3CF93F0F4CF94F0A80388
:10247800F3509427000E9325776F040E9421786FFC
:102488007A6B080E796F54EC35F0A7C099F0A8C0A4
:102498009AF09B292EE19C292CE10C0EA703F3CF7F
:1024A80093F0F4CF94F0A803F3509427040E9325E7
:1024B800D96E040E9421DA6EDE50DE10DE10DE10C6
:1024C80018E10C0EA703F3CF93F0F4CF94F0A80310
:1024D800F3509427000E9325D96E040E9421DA6EDA
:1024E800DE50DE10DE10DE1004E1A7C09BF0A8C0AD
:1024F8009CF08FC0D9FF90C0DAFFDECF7DF0DDCF32
:102508007EF00C0EA703F3CF93F0F4CF94F0A8035A
:10251800F3509427080E9325D96E040E9421DA6E91
:10252800DECF7FF0DDCF80F0BAEC39F0E80609E1C4
:10253800A7C09BF0A8C09CF0A7C099F0A8C09AF0CB
:1025480008D0A74BA82BA85104E10A0EA75D01E209
:102558003AD79B2902E19C2905E09BC09DF09CC0CD
:102568009EF004D099C09DF09AC09EF09D2903E189
:102578009E29D8B412000C0E9D03F3CF93F0F4CF2C
:1025880094F09E03F3509427080E9325756F040E5C
:102598009421766F8FC077F090C078F02DEC3BF0E7
:1025A8000001796F7A6B54EC35F00C0E9D03F3CF74
:1025B80093F0F4CF94F09E03F35094270A0E9325DA
:1025C800756F040E9421766F91C077F092C078F001
:1025D8002DEC3BF00001796F7A6B54EC35F04FEC41
:1025E80038F00C0E9D03F3CF93F0F4CF94F09E03D4
:1025F800F3509427000E9325D96E040E9421DA6EB9
:10260800070EEBCFDBFFE806FCE21200010ECF6FEE
:10261800CCEC3AF073C0CDF074C0CEF0C7C0D0F0A7
:10262800C8C0D1F0C5C0ABF0C6C0ACF0A7EC1FF075
:10263800ABC0D2F0ACC0D3F0D2C07BF0D3C07CF03A
:10264800E1EC36F0E80601E0ABD02AEC3BF00009FB
:1026580015E1D0C0D9FFD1C0DAFF140EDF6EC7C0B4
:102668009FF0C8C0A0F0C9C0A1F0CAC0A2F0CBC0FA
:10267800A3F00001A46BADEC1CF0F9D0C5C08BF041
:10268800C6C08CF04EEC34F08BC0D2F08CC0D3F0C6
:10269800D2C07BF0D3C07CF0E1EC36F0000960E1F9
:1026A800D2C07DF0D3C07EF00DEC3BF073C07FF05C
:1026B80074C080F0BAEC39F0000914E02AEC3BF061
:1026C800000910E0C7C08AF0C8C08BF0C9C08CF000
:1026D800CAC08DF0010E00018E6FCBC08FF0FFECE9
:1026E80020F093D0D2C0BCF0D3C0BDF0FEEC3AF0DD
:1026F80073C0BEF074C0BFF0C7C0C0F0C8C0C1F09E
:10270800C9C0C2F0CBC0C3F0D3EC35F0CF6FCF5106
:1027180001E0ADD0D2C097F0D3C098F029EC33F0E7
:1027280020EE02F0D051D926D151DA22230EDE183C
:1027380008E120EE02F0D051D926D151DA22260E36
:10274800DF6EC7C08AF0C8C08BF0C9C08CF0CAC0A1
:102758008DF0010E8E6FCBC08FF0FFEC20F055D0BE
:1027680020EE02F0D051D926D151DA22230EDE18FC
:1027780008E120EE02F0D051D926D151DA22260EF6
:10278800DF6EC7C08AF0C8C08BF0C9C08CF0CAC061
:102798008DF0010E8E6FCBC08FF0FFEC20F067D06C
:1027A800D2C07DF0D3C07EF0CDC0D9FFCEC0DAFF55
:1027B800DECF7FF0DDCF80F0BAEC39F0000904E01D
:1027C800C5C0D2F0C6C0D3F0D2C07DF0D3C07EF071
:1027D8000DEC3BF073C07FF074C080F0BAEC39F0B8
:1027E800000915E02AEC3BF0000911E0C7C08AF0A7
:1027F800C8C08BF0C9C08CF0CAC08DF0010E0001B2
:102808008E6FCBC08FF0FFEC20F0CF6F30D0D2C0EE
:10281800BCF0D3C0BDF0FEEC3AF073C0BEF074C09B
:10282800BFF0C7C0C0F0C8C0C1F0C9C0C2F0CBC0BB
:10283800C3F0D3EC35F0CF6FCF5119E1C5C081F0AB
:10284800C6C082F042EC2FF0D0C0D9FFD1C0DAFF69
:10285800140EDF6EC7C09FF0C8C0A0F0C9C0A1F0B9
:10286800CAC0A2F0CBC0A3F0A46BADEC1CF0CF5152
:10287800120002017A6B7B6B7C6B010E0101FC6F0D
:10288800B6EC2CF094EC3AF073EC36F07FC0E8F13B
:1028980080C0E9F1E80E836F010E846F550E866FD4
:1028A800340E856F4CEC36F0A7EC34F08B94899C91
:1028B800899EAC0E00017A6F030E7B6FCB0E7C6F86
:1028C800FF0E7D6FE8C17EF0E9C17FF04DEC0FF09F
:1028D8005BEC2CF00101AA6BAB6BAC6B1E0EAD6F01
:1028E8000E0EC1EC24F0FF0AF5E0000E00019A6B11
:1028F8005FEC2EF0BEEC33F06AEC09F0A2EC28F0A5
:10290800E80627E1BD0E00017A6F030E7B6F950E76
:102918007C6FFF0E7D6F42C2D9FF43C2DAFFDECF64
:102928007EF0DDCF7FF0020120EE01F04451D92680
:102938004551DA22DF500001806F816B4DEC0FF0BA
:102948005BEC2CF0040E736F000EA1EC37F023EC57
:102958003BF0000E81EC39F0E80658E102017A51AB
:1029680057E1010E7A6F36EC3BF0E80640E131C2E0
:102978007FF232C280F27F0E736F020E746F766B35
:10298800756B786B020E776F2FEC39F00101D26B03
:10299800880ED225D96EDA6A070EDA220A0EDF6EA1
:1029A800D22B880ED225D96EDA6A070EDA227BC2BC
:1029B800DFFFD22B7F0E476F020E486F496B4A6BC1
:1029C8004B6BFBEC37F0E80623E1BD0E7A6F030E84
:1029D8007B6FA80E7C6FFF0E7D6F7BC27EF07F6BD6
:1029E8004DEC0FF002017B2B5BEC2CF011D0BD0EEF
:1029F8007A6F030E7B6FF40E7C6FFF0E7D6FD90E1E
:102A08007E6FFF0E7F6F4DEC0FF0EED702017A6BF1
:102A180036EC3BF0E80636E1B9EC3AF075C078F2EE
:102A280076C079F202017C5112E07D0E0001736FCD
:102A3800020E746F780E756F020E766F786B020E49
:102A4800776FFEEC34F07351741101E153D7010E26
:102A580002017C6FB9EC3AF075C07DF276C07EF267
:102A6800B30E00017A6F030E7B6FEB0E7C6FFF0EC7
:102A78007D6F7DC27EF07EC27FF04DEC0FF05BEC87
:102A88002CF038D702017C0501E034D77C6BB9EC17
:102A98003AF075C07DF276C07EF2B30E00017A6F0F
:102AA800030E7B6FF20E7C6FFF0E7D6FD40E7E6F70
:102AB800FF0E7F6F4DEC0FF0E2D7D2EC3AF073C007
:102AC800CFF074C0D0F0000E736F070E746F766B82
:102AD800756B786B480E776F2FEC39F0000ED16F5D
:102AE800070ED26F20EE02F0D151D926D251DA2248
:102AF800220EDF6E2AEC3BF00001C36F20EE03F0DC
:102B0800D151D926D251DA22DF50C319F80BC31993
:102B1800DF6E18EC38F0C36F20EE03F0D151D926E0
:102B2800D251DA22C347C347C347DF50C319F70B53
:102B3800C319DF6E20EE05F0CF51D926D051DA2225
:102B4800DF50C36F20EE03F0D151D926D251DA22DB
:102B5800C33BDF50C319EF0BC319DF6E20EE01F042
:102B6800D151D926D251DA22D6C1DFFF0101D62BA5
:102B7800040E0001D125756F000ED221766FCFC0EB
:102B880077F0D0C078F02DEC3BF00001796F7A6BCC
:102B980054EC35F02AEC3BF0000912E1000120EE7C
:102BA80002F0CF51D926D051DA2210EE06F0D151D9
:102BB800E126D251E222DECFE6FFDDCFE5FF3BD0B2
:102BC800CFC0D9FFD0C0DAFFDECF86F0DDCF87F0E7
:102BD800D8EC3AF0000910E020EE06F0D151D926E1
:102BE800D251DA22DE68DD6820EE03F0D151D92611
:102BF800D251DA22DF8A1FD0CFC0D9FFD0C0DAFF86
:102C0800DECF85F0DDCF86F020EE02F0CF51D92659
:102C1800D051DA22DECF87F0DDCF88F087EC32F0B2
:102C2800000120EE06F0D151D926D251DA2285C012
:102C3800DEFF86C0DDFFCCEC3AF073C0CBF074C089
:102C4800CCF0CD0E756F766BCBC077F0CCC078F03A
:102C58007A6B020E796F54EC35F020EE06F0D15104
:102C6800D926D251DA22DECFC3F0DDCFC4F0970ED9
:102C7800C56F340EC66FCD1DC76FCE1DC86FC55149
:102C8800C727C651C823C351C71BC451C81B20EE50
:102C980006F0D151D926D251DA22C7C0DEFFC8C00A
:102CA800DDFF080ED125846F000ED221856FD1512A
:102CB8002808866FD251D8A0E82A0708876F72ECD7
:102CC8001DF084C0C9F085C0CAF0000EBC6F070EA5
:102CD800BD6FD151C95DBE6FFEEC3AF073C0BFF055
:102CE80074C0C0F027EC3BF00001C16F1FEF34F057
:102CF800DCC084F1DDC085F12AEC3BF0000901E07D
:102D0800B3D020EE06F08451D9268551DA22DECFE1
:102D18008FF0DDCF90F020EE03F08451D926855155
:102D2800DA22DF50070B0001916FE5EC1BF0E80693
:102D380001E187D0120020EE06F08451D926855192
:102D4800DA22DECF81F0DDCF82F0400E0001836F02
:102D5800010E846F830E856F010E866F800E876F5C
:102D6800010E886FC0EC3AF081C081F182C082F117
:102D7800010181518211D8B41200800517E120EEBB
:102D880006F08451D9268551DA22DECFC5F0DDCF91
:102D9800C6F0400E0001C76F010EC86F81C1C9F0AF
:102DA80082C1CAF083C1CBF00AEF13F020EE06F01F
:102DB8008451D9268551DA22DECFD4F0DDCFD5F083
:102DC800230E0001D66F400ED76F010ED86F81C158
:102DD800D9F082C1DAF083C1DBF0FCEF35F020EEE8
:102DE80006F08451D9268551DA22DECFD4F0DDCF22
:102DF800D5F0250E0001D66FD76BD86BDA6BD96B7F
:102E0800E1C0DBF0FCEF35F0D851D8A41200000186
:102E1800DF5104E10B0EDE5DD8A01200C80E756FFD
:102E2800070E766F0A0EDC25776F000EDD21786FAE
:102E3800F60EDE25796FFF0EDF217A6F54EC35F040
:102E480054D0010120EE02F08451D9268551DA22AE
:102E5800DF50230AD9E0070AC2E0010AD8B41200F9
:102E68000C0A01E168D7120020EE02F08451D9263D
:102E78008551DA22250EDE181CE1DF510CE1D9C19B
:102E880086F0DAC187F0D8EC3AF0000904E132ECB8
:102E98003BF0010EDF6F010120EE06F08451D926C8
:102EA8008551DA22DECFE6F1DDCFE7F1040ED56FEA
:102EB800040CD851D8A412000001DF5104E10B0E14
:102EC800DE5DD8A01200C80E756F070E766F0A0E69
:102ED800DC25776F000EDD21786FF60EDE25796F21
:102EE800FF0EDF217A6F54EC35F0010E0101D86F27
:102EF80020EE06F08451D9268551DA22DECF7BF008
:102F0800DDCF7CF0C80E00017D6F070E7E6FF60ED8
:102F1800DE257F6FFF0EDF21806FE0C081F07FEF3D
:102F280035F0CF6BD06B4A0ECF03F3CFC3F0F4CF9D
:102F3800C4F0D003F350C427E00EC325D96E080EA1
:102F4800C421DA6EDE50DE10DE10DE1015E14A0E06
:102F5800CF03F3CFC3F0F4CFC4F0D003F350C427AA
:102F6800DC0EC325D96E080EC421DA6EDE50DE10E1
:102F7800DE10DE1001E1C4D04FEC38F0040EE92673
:102F8800000EEA224A0ECF03F3CFC7F0F4CFC8F001
:102F9800D003F350C827E00EC725D96E080EC82104
:102FA800DA6EEE50DE5CEE50DE58EE50DE58EE5033
:102FB800DE583CE34FEC38F0040EE926000EEA2216
:102FC8004A0ECF03F3CFC7F0F4CFC8F0D003F350C5
:102FD800C827E00EC725D96E080EC821DA6EDE5064
:102FE800EE1809E1DE50EE1806E1DE50EE1803E1B6
:102FF800DE50EE18D8A484D04FEC38F04A0ECF0338
:10300800F3CFC7F0F4CFC8F0D003F350C827DC0ED5
:10301800C725D96E080EC821DA6EDE50EE5CDE5088
:10302800EE58DE50EE58DE50EE586AE34A0ECF03F3
:10303800F3CFC3F0F4CFC4F0D003F350C427250E68
:10304800C325D96E090EC421DA6EDFA203D0CD697B
:10305800CE6906D0FEEC3AF073C0CDF074C0CEF065
:103068004A0E0001CF03F3CFC3F0F4CFC4F0D0036E
:10307800F350C427E40EC325BC6F080EC421BD6FEE
:103088004A0ECF03F3CFC5F0F4CFC6F0D003F35008
:10309800C627240EC525D96E090EC621DA6EDF5063
:1030A800BE6FCDC0BFF0CEC0C0F04A0ECF03F3CF85
:1030B800C7F0F4CFC8F0D003F350C827250EC725B2
:1030C800D96E090EC821DA6E010EDFA0000EC16F9D
:1030D8001FEC34F04A0ECF03F3CFC3F0F4CFC4F0A3
:1030E800D003F350C427DC0EC325736F080EC42128
:1030F800746F766B756B786B080E776F2FEC39F001
:10310800CF4BD02BD05104E1060ECF5D01E20BD797
:10311800120089698A698B6B8C6B0B0E8B03F3CF5A
:1031280085F0F4CF86F08C03F3508627C00E8525F2
:10313800D96E040E8621DA6EDECF7DF0DDCF7EF00B
:1031480081C07FF082C080F0BAEC39F0E80626E151
:103158000B0E8B03F3CF85F0F4CF86F08C03F3507E
:103168008627BC0E8525D96E040E8621DA6E83511A
:10317800DE1814E18451DE1811E10B0E8B03F3CF36
:1031880085F0F4CF86F08C03F3508627C20E852590
:10319800D96E040E8621DA6EDFBE22D00B0E000136
:1031A8008B03F3CF85F0F4CF86F08C03F35086279A
:1031B800C20E8525D96E040E8621DA6EDFBE08D0D0
:1031C800892906E18A2904E18BC089F08CC08AF03C
:1031D80000018B4B8C2B8C5103E1050E8B5D9DE31D
:1031E80000018C5104E1050E8B5DD8A0120089C046
:1031F8008BF08AC08CF08B2903E18C29D8B412009B
:103208000B0E8B03F3CF85F0F4CF86F08C03F350CD
:103218008627B80E8525736F040E8621746F766B2A
:10322800756B786B0B0E776F2FEC39F00B0E8B03E9
:10323800F3CF85F0F4CF86F08C03F3508627C00EC9
:103248008525756F040E8621766F810E776F786BF2
:103258007A6B020E796F54EC35F00B0E8B03F3CFBB
:1032680085F0F4CF86F08C03F3508627BC0E8525B5
:10327800D96E040E8621DA6E83C0DEFF84C0DDFFBE
:103288000B0E8B03F3CF85F0F4CF86F08C03F3504D
:103298008627C20E8525D96E040E8621DA6EDF8E4A
:1032A8000B0E00018B03F3CF85F0F4CF86F08C036F
:1032B800F3508627B80E8525D96E040E8621DA6E5E
:1032C800DE6ADE6ADE6ADD6A12008A6B89698B6BE8
:1032D8008C6B8D6B0B0E8C03F3CF86F0F4CF87F0DD
:1032E8008D03F3508727050E8625D96E050E872195
:1032F800DA6EDFA041D00B0E00018C03F3CF86F00D
:10330800F4CF87F08D03F3508727000E8625D96EFA
:10331800050E8721DA6EDECF7DF0DDCF7EF00DEC75
:103328003BF073C07FF074C080F0BAEC39F000094C
:1033380023E10B0E8C03F3CF86F0F4CF87F08D03D7
:10334800F3508727050E8625D96E050E8721DA6E7C
:10335800DFB612D00B0E00018C03F3CF86F0F4CF4A
:1033680087F08D03F3508727050E8625D96E050E45
:103378008721DA6EDFA28B2B00018C4B8D2B8D51B0
:1033880003E1140E8C5DA6E38B5170E0EFEC1EF0A8
:1033980073C07FF074C080F08BC081F0826B64ECE6
:1033A80037F07F51886F8C6B8D6B0B0E8C03F3CFCE
:1033B80086F0F4CF87F08D03F3508727050E862516
:1033C800D96E050E8721DA6EDFA048D00B0E0001FA
:1033D8008C03F3CF86F0F4CF87F08D03F350872763
:1033E800050E8625D96E050E8721DA6EDFA636D042
:1033F8000B0E8C03F3CF86F0F4CF87F08D03F350D8
:103408008727050E8625D96E050E8721DA6EDFA27D
:1034180025D00B0E8C03F3CF86F0F4CF87F08D0305
:10342800F3508727000E8625D96E050E8721DA6EA0
:10343800DECF7DF0DDCF7EF00DEC3BF073C07FF08A
:1034480074C080F0BAEC39F0000908E188078829CF
:1034580005E18CC089F08DC08AF008D000018C4B42
:103468008D2B8D5103E1140E8C5D9FE389C084F090
:103478008AC085F01200360EA96501D0000CA25151
:10348800030BE80601E1A28FAD6BA2C078F4AD2B67
:10349800780EAD25D96EDA6A040EDA223DC0DFFF58
:1034A8003D2AAD2BA2AD2AD0780EAD25756F766B6F
:1034B800040E7623A50E776F786B7A6B020E796F00
:1034C80054EC35F0020EAD27AC6B10D0AC51A325EF
:1034D800D96E000EA421DA6E780EAD25E16EE26A8F
:1034E800040EE222DFCFE7FFAD2BAC2B3630E832FB
:1034F800E8320F0BAA6FAA51AC5DE8E3A2AF2AD05D
:10350800780EAD25756F766B040E7623EB0E776F0C
:10351800786B7A6B020E796F54EC35F0020EAD279A
:10352800AC6B10D0AC513724D96E000E3820DA6E4F
:10353800780EAD25E16EE26A040EE222DFCFE7FFE6
:10354800AD2BAC2B3630E832E8320F0BAA6FAA51FC
:10355800AC5DE8E3A2A748D0780EAD25756F766B11
:10356800040E7623590E776F020E786F7A6B040E6D
:10357800796F54EC35F0040EAD270201592B000E7B
:103588005A235B235C23780E0001AD25D96EDA6AD5
:10359800040EDA22DF6AAD2BADC0ABF0AC6B10D0F5
:1035A800AC51A725D96E000EA821DA6E780EAD258C
:1035B800E16EE26A040EE222DFCFE7FFAD2BAC2B0F
:1035C800A951AC5DEDE3780E976F040E986FABC010
:1035D80099F0A9C09AF0510E9B6F020E9C6FA4EC53
:1035E8002BF0020EAD2715D0AC6B10D0AC51A7252F
:1035F800D96E000EA821DA6E780EAD25E16EE26A6A
:10360800040EE222DFCFE7FFAD2BAC2BA951AC5D56
:10361800EDE3000E36B2010E876FAD51A4EF21F035
:103628007B697C6902012F4B302B00017D6B7E6B1F
:10363800050E7D03F3CF77F0F4CF78F07E03F350D7
:103648007827CE0E7725D96E030E7821DA6E73515E
:10365800DE1840E17451DE183DE1050E7D03F3CF1D
:1036680077F0F4CF78F07E03F3507827CD0E7725E6
:10367800D96E030E7821DA6E0101CC51DE182AE1E9
:10368800050E00017D03F3CF77F0F4CF78F07E03C9
:10369800F3507827D00E7725D96E030E7821DA6E8D
:1036A800DF50796F7A6B7551795D76517A5933E2CB
:1036B800050E7D03F3CF77F0F4CF78F07E03F35057
:1036C8007827D00E7725D96E030E7821DA6E75C06B
:1036D800DFFF21D0050E00017D03F3CF77F0F4CF93
:1036E80078F07E03F3507827D10E7725D96E030E34
:1036F8007821DA6EDF5008E17B2906E17C2904E1B4
:103708007DC07BF07EC07CF07D4B7E2B7E5103E13B
:10371800050E7D5D8DE37E5104E1050E7D5DD8A02B
:1037280012007B2903E17C29D8B412007BC07DF00C
:103738007CC07EF0050E7D03F3CF77F0F4CF78F0F0
:103748007E03F3507827D10E7725D96E030E7821A2
:10375800DA6E010EDF6E050E7D03F3CF77F0F4CF3E
:1037680078F07E03F3507827CE0E7725D96E030EB6
:103778007821DA6E73C0DEFF74C0DDFF050E7D03AD
:10378800F3CF77F0F4CF78F07E03F3507827D00E9C
:103798007725D96E030E7821DA6E75C0DFFF050E26
:1037A8007D03F3CF77F0F4CF78F07E03F3507827DA
:1037B800CD0E7725D96E030E7821DA6ECCC1DFFFE6
:1037C80012009D699E699C6B940E736F746B766B87
:1037D800756B786B080E776F2FEC39F09F6BA06BC9
:1037E8008FC07DF090C07EF00B0E9F03F3CF92F058
:1037F800F4CF93F0A003F3509327000E9225D96ECF
:10380800080E9321DA6EDECF7FF0DDCF80F0BAECC0
:1038180039F0E8062AE14FEC38F00B0E9F03F3CF9E
:1038280092F0F4CF93F0A003F3509327020E922561
:10383800D96E080E9321DA6E070EEBCFDBFFE80690
:10384800FCE20B0E9F03F3CF92F0F4CF93F0A003AA
:10385800F35093270A0E9225D96E080E9321DA6E3B
:1038680091C0DFFF010E9C6F26D00B0E9F03F3CF94
:1038780092F0F4CF93F0A003F3509327000E922513
:10388800D96E080E9321DA6EDECF86F0DDCF87F091
:10389800D8EC3AF0000908E09D2906E19E2904E1E8
:1038A8009FC09DF0A0C09EF09F4BA02BA05103E1AC
:1038B800140E9F5D95E3A05103E1140E9F5D47E34D
:1038C8009E5145E1140E9D5D42E20B0E9D03F3CF20
:1038D80092F0F4CF93F09E03F3509327000E9225B5
:1038E800756F080E9321766F8F0E776F786B2DECBE
:1038F8003BF00001796F7A6B54EC35F04FEC38F0FF
:103908000B0E9D03F3CF92F0F4CF93F09E03F35088
:103918009327020E9225D96E080E9321DA6E070EB0
:10392800EBCFDBFFE806FCE20B0E9D03F3CF92F032
:10393800F4CF93F09E03F35093270A0E9225D96E85
:10394800080E9321DA6E91C0DFFF010E9C6F9C5127
:103958001200AB6BAC6BAD6B4A0EAC03F3CFA5F0AA
:10396800F4CFA6F0AD03F350A627E00EA525D96E37
:10397800080EA621DA6EDE50DE10DE10DE1001E041
:10398800A3D04A0EAC03F3CFA5F0F4CFA6F0AD0355
:10399800F350A627DC0EA525D96E080EA621DA6EEF
:1039A800DE50DE10DE10DE1001E08ED04A0EAC03D1
:1039B800F3CFA5F0F4CFA6F0AD03F350A627E40E9D
:1039C800A525756F080EA621766F9FC077F0A0C059
:1039D80078F0A1C079F0A2C07AF054EC35F04A0E24
:1039E800AC03F3CFA5F0F4CFA6F0AD03F350A627B0
:1039F800240EA525D96E090EA621DA6EA1C0DFFF17
:103A08004FEC38F0E9CFD9FFEACFDAFF00EE8FF0BC
:103A1800070EDBCFEBFFE806FCE2EFEC1EF03F0EF3
:103A28007315976F986B996B9A6B61EC30F04A0E2F
:103A3800AC03F3CFA5F0F4CFA6F0AD03F350A6275F
:103A4800DC0EA525D96E080EA621DA6E070EEBCF7F
:103A5800DBFFE806FCE24A0EAC03F3CFA5F0F4CF97
:103A6800A6F0AD03F350A627250EA525D96E090E9D
:103A7800A621DA6EDF6AA30511E14A0EAC03F3CF83
:103A8800A5F0F4CFA6F0AD03F350A627250EA52583
:103A9800D96E090EA621DA6E000EDB80A40511E1AD
:103AA8004A0EAC03F3CFA5F0F4CFA6F0AD03F35064
:103AB800A627250EA525D96E090EA621DA6E000EB9
:103AC800DB82010EAB6F08D0AC4BAD2BAD5104E1DE
:103AD800060EAC5D01E240D7AB51120086C073F010
:103AE80087C074F0766B030E756F98EC36F073C070
:103AF8008EF074C08FF08C6B8D6B8F5103E1060EC6
:103B08008E5D03E38F6B050E8E6F936B020E926FC3
:103B18008A6B8B6B906B916B8A4B8B2B905101014D
:103B2800CA250001886F91510101CB210001896FDD
:103B380088297F6F000E8921806F826B140E816F38
:103B480064EC37F07FC094F080C095F00B0E9403BE
:103B5800F3CF88F0F4CF89F09503F3508927050E49
:103B68008825D96E050E8921DA6EDFA056D00B0E96
:103B780000019403F3CF88F0F4CF89F09503F35054
:103B88008927050E8825D96E050E8921DA6EDFA2F0
:103B980044D08A518E5D8B518F593FE392518425D1
:103BA800756F93518521766F0B0E9403F3CF88F0D0
:103BB800F4CF89F09503F3508927000E8825776F95
:103BC800050E8921786F2DEC3BF00001796F7A6B37
:103BD80054EC35F02DEC3BF000019227000E9323B6
:103BE8000B0E9403F3CF88F0F4CF89F09503F350CC
:103BF8008927060E8825D96E050E8921DA6E92511D
:103C08008425E16E93518521E26EDFCFE7FF924B69
:103C1800932B94C08CF095C08DF00001904B912BA4
:103C2800915104E1140E905D01E276D78CC0CAF17F
:103C38008DC0CBF184C0D9FF85C0DAFFC8C1DFFFD2
:103C48000101C84BC92B000120EE01F08451D9268F
:103C58008551DA2294C0DFFF92518425846F9351F5
:103C68008521856F120073C0D9FF74C0DAFFDECFDB
:103C780084F0DDCF85F020EE02F07351D92674511F
:103C8800DA22DECF86F0DDCF87F0886B896B9E0E57
:103C9800826F370E816F836B030E8815776F786B91
:103CA800D8907737783777517525D96E785176213E
:103CB800DA6EDECF79F0DDCF7AF088517927895135
:103CC8007A2386C07BF087C07CF0050E7D6FD89084
:103CD8007C337B337D2FFBD786C07EF087C07FF097
:103CE8007E3B7F3BF00E7F177E510F0B7F13F00E4C
:103CF8007E177B517E1B7C517F1B86517E27875107
:103D08007F2379517E1B7A517F1B7E5184277F51F7
:103D18008523815188278251892388C077F089C0FB
:103D280078F00B0E796FD89078337733792FFBD7EB
:103D3800030E7717786BD8907737783777517525D2
:103D4800D96E78517621DA6EDECF7AF0DDCF7BF04E
:103D580088517A2789517B2384C07CF085C07DF007
:103D6800050E7E6FD8907D337C337E2FFBD784C0C1
:103D78007FF085C080F07F3B803BF00E80177F513D
:103D88000F0B8013F00E7F177C517F1B7D51801B1A
:103D980084517F27855180237A517F1B7B51801B5B
:103DA8007F51862780518723832B1F0E836574D705
:103DB80073C0D9FF74C0DAFF84C0DEFF85C0DDFFA1
:103DC80020EE02F07351D9267451DA2286C0DEFF44
:103DD80087C0DDFF12004BC077F04CC078F04DC0B3
:103DE80079F04EC07AF0050ED89000017737783711
:103DF80079377A37E82EF8D777514B1A78514C1A19
:103E080079514D1A7A514E1A4BC077F04CC078F060
:103E18004DC079F04EC07AF0080E05D0D8907A33AC
:103E2800793378337733E82EF9D777514B1A7851AD
:103E38004C1A79514D1A7A514E1A4BC077F04CC032
:103E480078F04DC079F04EC07AF0160ED8907737DA
:103E5800783779377A37E82EF9D777514B1A78516E
:103E68004C1A79514D1A7A514E1A47500101F025D2
:103E78000001776F48500101F1210001786F495026
:103E88000101F2210001796F4A500101F32100017B
:103E98007A6F0101AE51000177257B6F0101AF51A7
:103EA800000178217C6F0101B051000179217D6FFB
:103EB8000101B15100017A217E6F47C0F0F148C07D
:103EC800F1F149C0F2F14AC0F3F1010E7EAF000EE4
:103ED8000101AE6FAF6BB06BB16B3A0E00017B1591
:103EE800476E370E7C15486EDE0E7D15496E540EF2
:103EF8007E154A6EE40E0101EC27350EED23370ED0
:103F0800EE236D0EEF234B50EC250001776F4C50DC
:103F18000101ED210001786F4D500101EE210001F2
:103F2800796F4E500101EF2100017A6F47507725D4
:103F3800736F48507821746F49507921756F4A50D2
:103F48007A21766F1200BD0E736F746B766B75698C
:103F5800786B020E776F2FEC39F0BB0E756F766BAE
:103F6800AB0E776F786B2DEC3BF00001796F7A6BB5
:103F780054EC35F0BF6BC06BBBC07DF0BCC07EF0AD
:103F88000C0EBF03F3CFADF0F4CFAEF0C003F35087
:103F9800AE27080EAD25D96E040EAE21DA6EDECF3F
:103FA8007FF0DDCF80F0BAEC39F0E8066CE10C0E5A
:103FB800BF03F3CFADF0F4CFAEF0C003F350AE279C
:103FC800040EAD25D96E040EAE21DA6EDE50DE1079
:103FD800DE10DE1014E10C0EBF03F3CFADF0F4CF0A
:103FE800AEF0C003F350AE27000EAD25D96E040E17
:103FF800AE21DA6EDE50DE10DE10DE1044E00C0E6C
:10400800BF03F3CFADF0F4CFAEF0C003F350AE274B
:10401800000EAD25D96E040EAE21DA6E10EEB3F0A7
:10402800070EDBCFE3FFE806FCE220EEB3F000EE7C
:104038008FF0070EDBCFEBFFE806FCE2A6EC30F0D2
:10404800925121E1600E8F5D5B0E9059030E9159DC
:104058001AE2BD0E756F766B0C0EBF03F3CFADF091
:10406800F4CFAEF0C003F350AE270A0EAD25776F3C
:10407800040EAE21786F2DEC3BF00001796F7A6B5E
:1040880054EC35F008D0BF4BC02BC05104E10A0EE8
:10409800BF5D01E271D7BDC0ABF0BEC0ACF012008D
:1040A8009E6F00019E510B0D050EF324D96E050E6F
:1040B800F420DA6EDFA40AD09E510B0D050EF3240E
:1040C800D96E050EF420DA6EFB0EDF169AC09BF04F
:1040D80000019B3BF00E9B179E510B0D050EF32420
:1040E800D96E050EF420DA6E9B51DF129E510B0D2E
:1040F800020EF324D96E050EF420DA6EDF509B6FA2
:104108009B51995D9D6F9E510B0D020EF324D96E44
:10411800050EF420DA6E99C0DFFF9E510B0D030ED9
:10412800F324D96E050EF420DA6EDF2A9D510DE0D6
:104138009DC09BF09B079E510B0D040EF324D96E76
:10414800050EF420DA6E9B51DF260A0E9D6524D0F9
:104158009E510B0D000EF324D96E050EF420DA6E75
:10416800DECF73F0DDCF74F09E51E6EC30F09E5157
:104178000B0D020EF324D96E050EF420DA6E99C0E9
:10418800DFFF9E510B0D030EF324D96E050EF420AC
:10419800DA6E010EDF6E010C9E510B0D030EF32437
:1041A800D96E050EF420DA6EDF509B6F9C6B9E5122
:1041B8000B0D040EF324D96E050EF420DA6EDF50D1
:1041C8009B27000E9C239CBF05D09C5106E1030E43
:1041D8009B5D03E2020E9D65020C9E510B0D000EC5
:1041E800F324D96E050EF420DA6EDECF88F0DDCF29
:1041F80089F0F7EF0DF0926B8D5103E1400E8C5D65
:1042080003E38D6B3F0E8C6F936B946B4C0E930393
:10421800F3CF90F0F4CF91F09403F35091274B0E25
:104228009025D96E060E9121DA6EDF5007E0934B88
:10423800942B945103E1020E935DE8E394517EE1DF
:10424800020E935D7BE218EC38F0E80677E14C0E3D
:104258009303F3CF90F0F4CF91F09403F3509127A8
:10426800000E9025756F060E9121766F8AC077F043
:104278008BC078F08CC079F08DC07AF054EC35F0B2
:104288004C0E9303F3CF90F0F4CF91F09403F350D6
:104298009127400E9025D96E060E9121DA6E8CC0BA
:1042A800DFFF4C0E9303F3CF90F0F4CF91F094031B
:1042B800F3509127490E9025D96E060E9121DA6E9A
:1042C800DF6A4C0E9303F3CF90F0F4CF91F0940390
:1042D800F35091274B0E9025D96E060E9121DA6E78
:1042E800010EDF6E4C0E9303F3CF90F0F4CF91F0F4
:1042F8009403F35091274A0E9025D96E060E91210A
:10430800DA6E8EB102D0DF9001D0DF804C0E000152
:104318009303F3CF90F0F4CF91F09403F3509127E7
:104328004A0E9025D96E060E9121DA6E8FB102D011
:10433800DF9201D0DF82010E0001926F92511200CC
:104348009B6F030E0001966F99D0976B436AF096A6
:10435800200EBFEC32F01A0E0001766FC90E756F91
:1043680044EC39F000019B51A7EC39F000019D6B3A
:104378000BD0780E9D25D96EDA6A040EDA22DF504A
:10438800A7EC39F000019D2B9B519D5DF2E387510D
:104398002CE09D6B280ED2EC38F09A6FD8909A33A7
:1043A800410E9A6522D0EFEC1EF01F0E7317746B46
:1043B800080E7325946F000E7421956F986B996B96
:1043C8000BD00400010E00017B6F7C6B7D6B7E6B54
:1043D800ACEC2EF0984B992B9451985D95519959C6
:1043E800F0E39D2B030E9D65D5D7800EBFEC32F010
:1043F800F0860001E95102E1F0A0FBD7E96B200E3D
:10440800BFEC32F0600EBFEC32F0040178AB0ED096
:1044180079C442F06AEC38F07FC08CF080C08DF02F
:1044280081C08EF082C08FF0435004E0010E00017D
:104438009C6F29D06AEC38F07FC090F080C091F072
:1044480081C092F082C093F08C51905D886F8D513D
:104458009159896F8E5192598A6F8F5193598B6FE9
:104468008B518A11891103E1330E885DDDE3972BA7
:104478009705886F040E886101D068D7960796293A
:1044880001E063D79C6B9C5112009FC0A8F0A0C0AC
:10449800A9F0090EA165090C20EE02F0A851D92651
:1044A800A951DA22220EDE18D8A41200A60E756FC2
:1044B800766B9DC077F09EC078F02DEC3BF0000144
:1044C800796F7A6B54EC35F09FC0A8F0A0C0A9F0C2
:1044D80020EE03F0A851D926A951DA22000EDFB840
:1044E800010EA56F20EE04F0A851D926A951DA22B1
:1044F800DECF86F0DDCF87F0D8EC3AF0000953E143
:1045080020EE03F0A851D926A951DA22DF50070B73
:10451800020A49E020EE03F0A851D926A951DA226F
:10452800DFA641D020EE06F0A851D926A951DA22FB
:10453800DE50DE1015E1A6C097F0A7C098F020EE77
:1045480003F0A851D926A951DA22DF50070B996F39
:104558001AEC30F0A6C085F0A7C086F0DDEC37F085
:10456800A6C08FF0A7C090F020EE04F0A851D9267D
:10457800A951DA22DECF91F0DDCF92F020EE06F0DD
:10458800A851D926A951DA22DECF93F0DDCF94F0D5
:104598001BEC27F0A6C073F0A7C074F0A5C075F097
:1045A80043EC3BF006D0A6C08FF0A7C090F00FEC0C
:1045B8002EF0000120EE03F0A851D926A951DA22E5
:1045C800DFBA32EC3BF012001A6E030E266E95D05D
:1045D800276A436AF096200EF5EC32F01A0E046E44
:1045E800C90E036ECDEC39F01A50E0EC39F02B6AA5
:1045F8000AD0780E2B24D96EDA6A040EDA22DF503C
:10460800E0EC39F02B2A1A502B5CF3E315502DE01F
:104618002B6A030E2B6401D028D0280E19EC39F030
:104628002A6ED8902A32410E2A641FD087EC23F0D4
:104638001F0E0116026A080E0124246E000E0220C5
:10464800256E286A296A0AD00400010E096E0A6AD2
:104658000B6A0C6AF7EC2EF0284A292A2450285CA9
:1046680025502958F1E32B2AD4D7800EF5EC32F0E7
:10467800F0860001E95102E1F0A0FBD7E96B200EBA
:10468800F5EC32F0600EF5EC32F0040178AB0ED0A8
:1046980079C442F085EC38F00DC01CF00EC01DF056
:1046A8000FC01EF010C01FF0435003E0010E1B6E38
:1046B800010C85EC38F00DC020F00EC021F00FC0C1
:1046C80022F010C023F01C50205C166E1D5021589B
:1046D800176E1E502258186E1F502358196E195005
:1046E8001810171003E1330E165CDEE3272A27049F
:1046F800166E040E166001D06CD72606262801E037
:1047080067D71B6A12004BC005F04CC006F04DC0BD
:1047180007F04EC008F0050ED89005360636073665
:104728000836E82EF9D705504B1A06504C1A075090
:104738004D1A08504E1A4BC005F04CC006F04DC03B
:1047480007F04EC008F0080E05D0D890083207329E
:1047580006320532E82EF9D705504B1A06504C1A86
:1047680007504D1A08504E1A4BC005F04CC006F0C1
:104778004DC007F04EC008F0160ED8900536063624
:1047880007360836E82EF9D705504B1A06504C1A4A
:1047980007504D1A08504E1A47500101F025056E72
:1047A8004850F121066E4950F221076E4A50F32114
:1047B800086EAE510524096EAF5106200A6EB0513D
:1047C80007200B6EB15108200C6E47C0F0F148C0AD
:1047D800F1F149C0F2F14AC0F3F1010E0CAE000E3E
:1047E800AE6FAF6BB06BB16B3A0E0914476E370EF4
:1047F8000A14486EDE0E0B14496E540E0C144A6EE1
:10480800E40EEC27350EED23370EEE236D0EEF2365
:104818004B50EC25056E4C50ED21066E4D50EE21A7
:10482800076E4E50EF21086E47500524016E485020
:104838000620026E49500720036E4A500820046E75
:104848001200A1C0A9F0A2C0AAF0090EA365090C24
:1048580020EE02F0A951D926AA51DA22220EDE183A
:10486800D8A41200080EA925A76F000EAA21A86FC8
:10487800AB0E756F766B9FC077F0A0C078F02DEC0B
:104888003BF00001796F7A6B54EC35F0ABC081F0E6
:10489800ACC082F07BEC34F0AD6FAD2901E01CD0E8
:1048A80024EC36F000017351AD6FAD2927E0ABC0A1
:1048B80073F0ACC074F0AD51E6EC30F0A7C0D9FF8E
:1048C800A8C0DAFFAD510B0D020EF324E16E050E00
:1048D800F420E26EDFCFE7FFA7C0D9FFA8C0DAFF58
:1048E800DF50996F20EE03F0A951D926AA51DA2298
:1048F800DF50070B9A6FAD5154EF20F0410EF3ECE7
:1049080025F08151AD6FAD290FE0AD510B0D000EB3
:10491800F324D96E050EF420DA6EDECF8FF0DDCFEA
:1049280090F00FEC2EF021D0180EA465180CA9C039
:1049380088F0AAC089F077EC2AF0E806D8A412001B
:1049480069EC19F08451AD6FAD29D8B41200AD519E
:104958000B0D000EF324D96E050EF420DA6EDECFAF
:104968008FF0DDCF90F00FEC2EF0ABC073F0ACC041
:1049780074F00001AD51E6EF30F002016B6F76691B
:10498800020E726F736B746B756B6B51636F646B34
:10499800050ED89063376437E82EFBD763C270F2F0
:1049A80064C271F2CD0E0001736F030E746F766BE3
:1049B800756B786B190E776F2FEC39F0010E0201C9
:1049C800776F0101AA5102017215636F0101AB51A2
:1049D80002017315646F0101AC5102017415656F12
:1049E8000101AD5102017515666F635164116511BE
:1049F800661140E077C2CCF10101CC51E4EC3AF009
:104A08004EEC32F06AEC38F07FC06CF280C06DF288
:104A180081C06EF282C06FF2A2EC28F0000902E0B9
:104A280023EC3BF0040002017051636F7151646F15
:104A3800656B666B6AEC38F002016C5100017F5DB2
:104A48000201676F6D51000180590201686F6E5154
:104A5800000181590201696F6F51000182590201F9
:104A68006A6F6351675D6451685965516959665148
:104A78006A59D2E3D8907237733774377537772B02
:104A88001F0E77659ED7776B7751050DD10EF324EE
:104A9800D96E030EF420DA6EDF5004E0772B040E93
:104AA8007765F2D7775102E077C276F27651120035
:104AB8000001DE6BCCEC3AF073C0DCF074C0DDF0C2
:104AC8002AEC3BF000094CE140C17DF041C17EF089
:104AD800DCC0D9FFDDC0DAFFDECF7FF0DDCF80F0AC
:104AE800BAEC39F0000979E140C17DF041C17EF0AE
:104AF80094EC39F07BC07FF07CC080F0BAEC39F0E0
:104B080000096BE140C181F041C182F014EC32F040
:104B1800020A13E140C17FF041C180F042C181F037
:104B280043C182F044C183F045C184F046C185F099
:104B3800866BF4EC3AF000014FD040C1D4F041C18B
:104B4800D5F0230ED66F42C1D7F043C1D8F044C187
:104B5800D9F045C1DAF046C1DBF0FCEC35F03CD0C9
:104B680040C17DF041C17EF0EFEC3AF073C07FF0B8
:104B780074C080F0BAEC39F0E8060EE040C17DF070
:104B880041C17EF094EC39F07BC07FF07CC080F0AE
:104B9800BAEC39F0E8060EE142C18AF043C18BF065
:104BA80044C18CF045C18DF08E6B46C18FF0FFEC8F
:104BB80020F012D040C1D4F041C1D5F0260ED66FF6
:104BC80042C1D7F043C1D8F044C1D9F045C1DAF0A9
:104BD80046C1DBF0FCEC35F0DE6FDE511200856F6C
:104BE8000001876B86698C6B8D6B8E6B8F6B0B0EE0
:104BF8008E03F3CF83F0F4CF84F08F03F350842730
:104C0800050E8325D96E050E8421DA6EDFA060D0EB
:104C18000B0E00018E03F3CF83F0F4CF84F08F03E3
:104C2800F3508427050E8325D96E050E8421DA6E8C
:104C3800DFA24ED00B0E8E03F3CF83F0F4CF84F0B7
:104C48008F03F3508427050E8325D96E050E842122
:104C5800DA6EDFB63DD00B0E8E03F3CF83F0F4CFC0
:104C680084F08F03F3508427000E8325D96E050E38
:104C78008421DA6EDECF7DF0DDCF7EF00DEC3BF0E7
:104C880073C07FF074C080F0BAEC39F0000920E1FD
:104C98000B0E8E03F3CF83F0F4CF84F08F03F35021
:104CA8008427070E8325D96E050E8421DA6EDECFA0
:104CB8008AF0DDCF8BF08C518A5D8D518B5908E3DA
:104CC8008EC086F08FC087F08AC08CF08BC08DF0C4
:104CD80000018E4B8F2B8F5103E1140E8E5D87E3FD
:104CE8008551836F846B83518C5D84518D5905E3A5
:104CF80086C088F087C089F003D0000E896B886968
:104D080088C081F089C082F012008D928C8E8C96BA
:104D18008D909692959E959696908D90020E000194
:104D28007B6F7C6B7D6B7E6BACEC2EF08D80020E06
:104D38007B6F7C6B7D6B7E6BACEC2EF0300E89EC60
:104D48003AF0020E00017B6F7C6B7D6B7E6BACECE6
:104D58002EF0300E89EC3AF0020E00017B6F7C6B6E
:104D68007D6B7E6BACEC2EF0300E89EC3AF0020EC7
:104D780000017B6F7C6B7D6B7E6BACEC2EF0390E8B
:104D880089EC3AF0020E00017B6F7C6B7D6B7E6BC9
:104D9800ACEC2EF0140E89EC3AF0020E00017B6F99
:104DA8007C6B7D6B7E6BACEC2EF0560E89EC3AF08A
:104DB800020E00017B6F7C6B7D6B7E6BACEC2EF082
:104DC8006D0E89EC3AF0020E00017B6F7C6B7D6BF7
:104DD8007E6BACEC2EF0700E89EC3AF0020E0001FE
:104DE8007B6F7C6B7D6B7E6BACEC2EF00E0E89ECD2
:104DF8003AF0020E00017B6F7C6B7D6B7E6BACEC36
:104E08002EF0060E89EC3AF0020E00017B6F7C6BE7
:104E18007D6B7E6BACEC2EF0010E89EC3AF00A0E3D
:104E280000017B6F7C6B7D6B7E6BACEF2EF08FC0CF
:104E380085F090C086F0886B876B87EC32F085C070
:104E480095F086C096F08FC088F090C089F05CEC31
:104E580033F0976F0A0E971901E112009751E7197D
:104E6800E81143E195C073F096C074F0B2EC3AF0E3
:104E78000009D8B412009751090D980EF324D96E81
:104E8800060EF420DA6E8FC0DEFF90C0DDFF97516A
:104E9800090D9A0EF324D96E060EF420DA6E91C02D
:104EA800DEFF92C0DDFF9751090D9C0EF324D96EE9
:104EB800060EF420DA6E93C0DEFF94C0DDFF975132
:104EC800090D9E0EF324D96E060EF420DA6E010E3B
:104ED800DF6E9751090D9F0EF324D96E060EF4204C
:104EE800DA6EDF6AE74BE82B000C9751090D980E34
:104EF800F324D96E060EF420DA6E8FC0DEFF90C060
:104F0800DDFF9751090D9A0EF324D96E060EF42091
:104F1800DA6E91C0DEFF92C0DDFF9751090D9C0E3D
:104F2800F324D96E060EF420DA6E93C0DEFF94C027
:104F3800DDFF9751090D9E0EF324D96E060EF4205D
:104F4800DA6E010EDF6E010C87C036F088C037F0CC
:104F580089C038F0140E7B6F7C6B7D6B7E6BACEC7C
:104F68002EF08C82898A3F688D6B8D51470D1E0EFD
:104F7800F324D96E030EF420DA6EDF6A8D2B010E4E
:104F88008D65F3D70201596F5A6B5B6B5C6B510EE1
:104F98000001756F020E766F8D0E776FFF0E786FBA
:104FA8007A6B080E796F54EC35F08D6B8D51020DCC
:104FB800FD0EF324F66EFE0EF420F76E0900F5CF11
:104FC80075F00A00F5CF76F044EC39F000018D2B2E
:104FD8001F0E8D65EBD7200EBFEC32F00001766B0B
:104FE8004E0E756F44EC39F0400EBFEC32F01C0EDB
:104FF8000001766F0F0E756F44EC39F0600EBFEC50
:1050080032F0F090F08600018B6B8C6B8D6BD89032
:105018008B378C37280ED2EC38F08A6FD8908A31CB
:10502800010B8B138D2B0F0E8D65F1D78BC073F091
:105038008CC074F000EC2CF0EFEC1EF073513D6E58
:10504800010C97C0F6F1D90E0001736F010E746F51
:10505800766B756B786B070E776F2FEC39F0010163
:10506800DE6BF80E0001756F010E766F930E776F89
:10507800786B2DEC3BF00001796F7A6B54EC35F0CE
:1050880097511CE1F8C1E6F1F9C1E7F1D90E756F46
:10509800010E766F930E776F786B2DEC3BF0000165
:1050A800796F7A6B54EC35F00101DB6BDC6B010E28
:1050B800DF6F95C098F096C099F01FD0E60E736F19
:1050C800010E746F766B75692DEC3BF00001776FFC
:1050D800786B2FEC39F0D90E736F010E746F766B05
:1050E80075692DEC3BF00001776F786B2FEC39F088
:1050F8000101DB69DC69DF6BDCD793C07FF094C00A
:1051080080F098C081F099C082F029EC35F02CEC41
:105118003AF0DEEC3AF0F1EC39F0EBEC38F044EC34
:105128003AF073EC3AF038EC3AF068EC3AF0EFEC1D
:105138001EF073510101CE6FD56B12006AEC38F086
:105148000201245100017F5DE36F02012551000136
:105158008059E46F0201265100018159E56F02016F
:10516800275100018259E66FE351E411E511E61178
:105178000CE06AEC38F07FC024F280C025F281C0D0
:1051880026F282C027F2B9EC38F091EC0CF0A1ECD1
:1051980007F0E8062EE1A80E0001756F010E766F84
:1051A80034C277F035C278F07A6B020E796F54EC1E
:1051B80035F0A8C186F1A9C187F13BC288F13CC28C
:1051C80089F136C28AF137C28BF138C28CF10101FC
:1051D8008D6B39C28EF10201000E33B5010E01014B
:1051E8008F6F0201000E33B7010E0101906F51EC71
:1051F80002F00101D30518E1A80E0001756F010E38
:10520800766F42C277F043C278F07A6B020E796FFC
:1052180054EC35F0A8C181F0A9C182F040C283F0F6
:1052280041C284F08DEC18F00101D3511200540EE4
:10523800F66E750EF76E000EF86E01EEECF010EEDD
:1052480010F00900F5CFEEFFE550E150FAE1840EC9
:10525800F66E760EF76E000EF86E0900F5CFEBF0DD
:105268000900F5CFECF02E0EF66E760EF76E000EF6
:10527800F86E00EE47F010EE08F00900F5CFEEFFEB
:10528800E550E150FAE108EEDCF013EE24F0EE6AA6
:10529800E550E150FCE1E250FAE108EE00F0DC0EE6
:1052A800EE6AE806FDE107EE00F0FE0EEE6AE8069B
:1052B800FDE106EE00F0F20EEE6AE806FDE105EE0D
:1052C80000F0DC0EEE6AE806FDE104EE00F0EF0EF9
:1052D800EE6AE806FDE103EE00F0E60EEE6AE80687
:1052E800FDE102EE00F0630EEE6AE806FDE101EE74
:1052F800AEF03E0EEE6AE806FDE10001EA6BE96BEE
:10530800E86BE76B00EE36F0110EEE6AE806FDE199
:105318004F904F92000EF86E00013DEF14F068D0E8
:10532800010ECD6F010C22EE14F000EE8FF0070E87
:10533800DBCFEBFFE806FCE2A6EC30F08F51010171
:10534800BA5D000190510101BB5900019151010161
:10535800BC59000192510101BD59D8B0120061EC4D
:1053680015F00101BA51B25DBA6FBB51B359BB6FA9
:10537800BC51B459BC6FBD51B559BD6F4FEC38F035
:1053880022EE14F0070EEBCFDBFFE806FCE2030E7B
:105398000101CD6F030C22EE14F000EE8FF0070E22
:1053A800DBCFEBFFE806FCE2A6EC30F08F51010101
:1053B800BA5D000190510101BB59000191510101F1
:1053C800BC59000192510101BD59D8B0120061ECDD
:1053D80015F034EC38F04FEC38F022EE14F0070EEC
:1053E800EBCFDBFFE806FCE2020E0101CD6F020CF9
:1053F8000101CD5195E0010AD8B41200030A93E0E7
:10540800010AC9E0120081C088F082C089F088C012
:10541800D9FF89C0DAFFDF6A20EE03F08851D92668
:105428008951DA222AEC3BF0070BDF6E060E0001E9
:105438008825756F000E8921766FCCEC3AF073C021
:1054480077F074C078F02DEC3BF00001796F7A6B3F
:1054580054EC35F020EE04F08851D9268951DA222F
:105468007FC0DEFF80C0DDFF20EE01F08851D92625
:105478008951DA221FEC3BF0DF6E000120EE02F0CA
:105488008851D9268951DA2283C0DFFF0DEC3BF021
:10549800000120EE08F08851D9268951DA2273C01C
:1054A800DEFF74C0DDFF8451851114E08651871139
:1054B80011E00A0E8125756F000E8221766F84C077
:1054C80077F085C078F086C079F087C07AF054EC20
:1054D80035F002D0866B876B0A0E86257F6F000E2B
:1054E8008721806F1200946B88C095F089C096F070
:1054F80020EE04F09551D9269651DA22DECF86F0B7
:10550800DDCF87F0D8EC3AF0000956E120EE06F03E
:105518009551D9269651DA22DE50DE1003E1010EAC
:10552800946F4AD020EE06F09551D9269651DA228A
:10553800DECF8CF0DDCF8DF0926B936B35D0090EFA
:105548009203F3CF8AF0F4CF8BF09303F3508B27B9
:10555800980E8A25906F060E8B21916F90C0D9FF07
:1055680091C0DAFFDECF7DF0DDCF7EF00DEC3BF0B1
:1055780073C07FF074C080F0BAEC39F0000912E112
:1055880020EE04F09051D9269151DA22DECF8EF028
:10559800DDCF8FF08E518C5D8F518D59010ED8B0B3
:1055A800000E9413924B932BE751925DE851935957
:1055B80003E2945101E1C3D794511200A36B9951AE
:1055C800A35D02E3A16B08D0A3519725D96E000E05
:1055D8009821DA6EDF50A16FA26BE00EA325D96E79
:1055E800DA6A010EDA22A1C0DFFFA32B020EA3653F
:1055F800E6D7995197258A6F000E98218B6F9AC02C
:105608008CF09BC08DF09CC08EF0E00E8F6F010E69
:10561800906F45EC2BF097C08AF098C08BF09951A9
:105628009A25FE0F8C6F9BC08DF09CC08EF0E00E0B
:105638008F6F010E906F66EC2DF0A36B9951972533
:105648009D6F000E98219E6F9A519D27000E9E23F4
:10565800A3519D27000E9E23FE0E9D25D96EFF0E99
:105668009E21DA6EE00EA325E16EE26A010EE222C7
:10567800DE50E61801E0000CA32B010EA365DED76F
:10568800010C8CC091F0D8909133D8909133912926
:10569800946F956B51D0966B96518F25D96E000EED
:1056A8009021DA6EE00E9625E16EE26A010EE222A2
:1056B800DFCFE7FF962B020E9665EED795C0E3F194
:1056C800E00E736F010E746F8DC075F08EC076F0AA
:1056D80037EC1EF0966B8C51916F926B9551040DBF
:1056E8009651F326000EF4229151F35CF450800A8F
:1056F800936F9251800A93591EE2E00E9625D96E57
:10570800DA6A010EDA22DF50916F9551040D8AC0D2
:1057180092F08BC093F0F3509227F4509323965154
:105728009225D96E000E9321DA6E9151DF1A962BCD
:10573800030E9665D0D7952B9451955DACE3120076
:1057480097C08AF098C08BF099519A258C6F9BC0AE
:105758008DF09CC08EF0E00E8F6F010E906F66EC9E
:105768002DF0A16BE00EA125D96EDA6A010EDA22BE
:10577800995197259D6F000E98219E6F9A519D27EC
:10578800000E9E23A1519D25E16E000E9E21E26E22
:10579800DFCFE7FFA12B030EA165E4D7A16B9951D9
:1057A800A15D02E39F6B08D0A1519725D96E000E29
:1057B8009821DA6EDF509F6FA06BE00EA125D96E9D
:1057C800DA6A010EDA229FC0DFFFA12B020EA16563
:1057D800E6D7995197258A6F000E98218B6F9A51B9
:1057E800040F8C6F9BC08DF09CC08EF0E00E8F6F05
:1057F800010E906F45EF2BF07351756F7451766FF2
:10580800776B786B75510101EC130001765101013A
:10581800ED13000177510101EE13000178510101E8
:10582800EF1300017351756F7451766F776B786B56
:1058380076C078F075C077F0766B756B75514B1242
:1058480076514C1277514D1278514E127351756F33
:105858007451766F776B786B75C078F0776B766B71
:10586800756B75510101F013000176510101F113B7
:10587800000177510101F213000178510101F3137E
:1058880000017351756F7451766F776B786B755132
:105898004716765148167751491678514A1673C0FB
:1058A800AEF174C0AFF10101B06BB16B120045509D
:1058B80004E1010E456E89EC26F0800E89EC3AF081
:1058C8000001876B0A0E736F746B756B766B03EC54
:1058D80039F0AC0E8725D96EDA6A030EDA22DF506A
:1058E80004E1200E7EEC3AF009D0AC0E8725D96E83
:1058F800DA6A030EDA22DF507EEC3AF00001872BD9
:105908000F0E8765DFD70A0E736F746B756B766B36
:1059180003EC39F0C00E89EC3AF0100E0001876FE5
:105928000A0E736F746B756B766B03EC39F0AC0E03
:105938008725D96EDA6A030EDA22DF5004E1200ED9
:105948007EEC3AF009D0AC0E8725D96EDA6A030EE0
:10595800DA22DF507EEC3AF00001872B1F0E8765B4
:10596800DFD71F0C780ED36E9B8CC090550EA76E98
:10597800AA0EA76E0E01FF91110EE76F170EFB6FAF
:105988000A0EDB6F090ED96F550EA76EAA0EA76E09
:10599800FF81FC0E0F01486F1F0E496F9494929C73
:1059A800929EF19E92829280898A8C82929A959296
:1059B8009380948CF18AF18CF292F288F090F086C0
:1059C800938A949E9398C00EC76E220EC66E958CCD
:1059D80095949598110E0E01E76F170EFB6F0A0E3E
:1059E800DB6F090ED96F736A310E726EA49E8C8AB2
:1059F800959A8D928C8E8C968D909692959E959672
:105A08009690958C95949598736A320E726E9694CA
:105A18008D84A49EF28E320C870E736F746B766B36
:105A280075692DEC3BF00001776F786B2FEC39F03E
:105A3800856B866B3DD0090E8503F3CF83F0F4CFD9
:105A480084F08603F3508427980E8325896F060E09
:105A580084218A6F89C0D9FF8AC0DAFFDECF7DF042
:105A6800DDCF7EF081C07FF082C080F0BAEC39F0E3
:105A7800E80601E112D020EE02F08951D9268A51B8
:105A8800DA22DECF7DF0DDCF7EF081C07FF082C0EC
:105A980080F0BAEC39F0E80609E189C0D9FF8AC07C
:105AA800DAFFDECF87F0DDCF88F007D0854B862B75
:105AB800E751855DE8518659BEE387C081F088C00B
:105AC80082F012008CC091F0D8909133D890913325
:105AD8009129946F966B96518F25D96E000E90215F
