:04000000D6EF01F046
:100008005F82E1CF23F0E2CF24F0D9CF25F0DACF19
:1000180026F0F3CF27F0F4CF28F0F0B4F0AAA9D156
:10002800600E531801E0A0D1280E19EC1DF01F6EC8
:10003800D8901F30546E54C0E1F08B94B8EC1EF089
:10004800336E8B84346A34503E0D3C0EF324D96EE3
:10005800020EF420DA6E0201DFA004D0342A010E69
:100068003464F1D7020E331803E1010E306E01D06B
:10007800306A3C0E336007D0335005E0010E34641B
:1000880011D030500FE11A0E19EC1DF007D08B94E7
:10009800B8EC1EF08B841A0E19EC1DF02B6E2BB2E7
:1000A800F6D765D1316A33C029F02A6A59D12906B1
:1000B800D8A02A06305008E08B9431502C0FD96E06
:1000C800DA6AB8EC1EF016D08B9434503E0D3C0E14
:1000D8001F6E020E206E1F2A000E2022F3501F26CC
:1000E800F450202231501F24D96E000E2020DA6EE1
:1000F800B8EC1EF0DF6E312A8B843350315C01E29C
:100108002FD1305024E02C50030B020A08E157503D
:100118002D1801E02CD1010E0001EA6F28D1010E43
:10012800346401D0B0D734503E0D3D0EF324D96E5F
:10013800020EF420DA6E2CC0DFFF34503E0D3E0E66
:10014800F324D96E020EF420DA6E2DC0DFFF34508E
:100158003E0D790EF324D96E020EF420DA6E33C008
:10016800DFFF326834503E0D3D0EF324D96E020E87
:10017800F420DA6EDFAC33D0356A28D03550D82574
:10018800D96E000ED921DA6E34503E0D3C0E206E29
:10019800020E216E030E2026000E2122F350202687
:1001A800F450212235502024E16E000E2120E26E09
:1001B800DE50E6180AE034503E0D790EF324D96E6D
:1001C800020EF420DA6EDF6A5ED7352A0001D731D5
:1001D800E832E8320F0B1F6E1F50355CCFE3345006
:1001E8003E0D3D0EF324D96E020EF420DA6E0201A4
:1001F800DFAA34D0356A000E3524D96EDA6A020EC9
:10020800DA2235502C0FE16EE26ADFCFE7FF352A9C
:10021800010E3564F0D7060E0201006F34503E0D12
:100228003E0EF324D96E020EF420DA6EDF50016F11
:10023800F0940B6A020EB6EC11F0356A35502C0FAB
:10024800D96EDA6A000E3524E16EE26A020EE22205
:10025800DFCFE7FF352A010E3564F0D7356A355010
:10026800060D000EF324D96E010EF420DA6EDF506D
:1002780026E034503E0D3E0EF324D96E020EF420D3
:10028800DA6E3550060D010EF324E16E010EF420EE
:10029800E26EDE50E61813E121EC1BF03550060D36
:1002A800020EF324D96E010EF420DA6E01C0DEFFCF
:1002B80002C0DEFF03C0DEFF04C0DEFF12D032281A
:1002C8000CE13550060D000EF324D96E010EF42012
:1002D800DA6EDF5002E135C032F0352A040E35649B
:1002E800BED7040E356443D0050E32602ED032508E
:1002F800060D000EF324D96E010EF420DA6E010EFD
:10030800DF6E34503E0D3E0EF324D96E020EF420FB
:10031800DA6E3250060D010EF324E16E010EF42060
:10032800E26EDFCFE7FF21EC1BF03250060D020E24
:10033800F324D96E010EF420DA6E01C0DEFF02C08C
:10034800DEFF03C0DEFF04C0DEFF34503E0D3C0E6E
:10035800F324D96E020EF420DA6E0201DF8007D092
:1003680029502A1004E0A3D6010E0001DA6FF09498
:1003780000F09EB09DA006D09E90582A585002E1E9
:100388000001EE2B86EC1EF028C0F4FF27C0F3FF17
:1003980026C0DAFF25C0D9FF24C0E2FF23C0E1FF51
:1003A8005F92110016EF19F0700E866F78D3250E44
:1003B8008C1909E06CC0D9FF6DC0DAFF8CC0DFFF73
:1003C8006C4B6D2B6CD38A6B8B6B8D6B8E6B09D0E2
:1003D8008D8705D08D8103D08E8701D08D856E4B9A
:1003E8006F2B6EC0F6FF6FC0F7FF0800F550200AAC
:1003F800F1E0030AF1E00E0AEBE01D0AEFE08DB729
:100408008D956EC0F6FF6FC0F7FF0800F55019EC28
:100418001EF02EE38A6B8B6B8AC060F08BC061F094
:10042800636B0A0E626F7FEC1DF060C08AF061C0DA
:100438008BF0D00E786F79696EC0F6FF6FC0F7FF4A
:100448000800F5507A6F7B6B78517A2779517B23B6
:100458007A518A277B518B236E4B6F2B6EC0F6FF28
:100468006FC0F7FF0800F55019EC1EF014E3D4D75D
:100478006EC0F6FF6FC0F7FF0800F5502A0A0BE1BF
:100488008651D96EDA6ADECF8AF0DDCF8BF0020EA4
:1004980086276E4B6F2B6EC0F6FF6FC0F7FF080004
:1004A800F5502E0A30E18E8D6E4B6F2B6EC0F6FF25
:1004B8006FC0F7FF0800F5502A0A0AE18651D96E85
:1004C800DA6ADF50896F020E86276E4B6F2B8AD04F
:1004D800896B0FD06EC0F6FF6FC0F7FF0800F5CF2D
:1004E80078F089510A0DF3507825D00F896F6E4B3B
:1004F8006F2B6EC0F6FF6FC0F7FF0800F55019ECC0
:100508001EF070E3E7D7896B6DD08D8D88D08D8B09
:100518008D8F85D089510FE089C078F0796B78BFCD
:1005280079078451785D8551795905E28951846F3D
:10053800856B84BF85078A51845D8B51855905E297
:1005480084518A5F85518B5B02D08A6B8B6B8DB728
:100558001DD008D06CC0D9FF6DC0DAFF200EDF6E49
:100568006C4B6D2B8A07D8A08B078A29F3E18B295E
:100578000DE0F0D78351D96EDA6A6CC0E1FF6DC027
:10058800E2FFDFCFE7FF832B6C4B6D2B8407D8A0EE
:1005980085078429EFE18529EDE18DA780D208D070
:1005A8006CC0D9FF6DC0DAFF200EDF6E6C4B6D2B6F
:1005B8008A07D8A08B078A29F3E18B2901E16FD23A
:1005C800EFD78651D96EDA6ADF508C6F020E862714
:1005D8008C0E836F000E856F010E846F9BD7C00E43
:1005E8008D131DD06EC0F6FF6FC0F7FF6E4B6F2BDB
:1005F8000800F5CF8CF08C5101E15DD2580A87E0F4
:100608003B0ADFE0070A0BE00D0A09E0060A01E1F0
:100618007CD71A0AE4E00D0A01E17AD7D9D78DC050
:1006280078F0C00E781712E18651D96EDA6ADECFFB
:1006380087F0DDCF88F0020E862788AF10D0030E32
:100648008D13876D881FD8B0882B09D08651D96E35
:10065800DA6ADECF87F0DDCF88F0020E862789516F
:1006680047E18751881144E1892B42D0010E8C6FF4
:10067800050E8C1946E08C51020D890EF324F66E96
:10068800FA0EF420F76E0900F550875D0900F55061
:10069800885937E38C2BECD7010E8C6F040E8C191C
:1006A80030E08C51020D930EF324F66EFA0EF4200E
:1006B800F76E0900F550875D0900F550885921E368
:1006C8008C2BECD7010E8C6F060E8C191AE08C510E
:1006D800020D7D0EF324F66EFA0EF420F76E090073
:1006E800F550875D0900F55088590BE38C2BECD742
:1006F8008D51C00BBBE0400AE5E0C00ACDE0400ADE
:10070800B5E08C51800A786F8951800A785D03E2E0
:1007180089C08CF009D08951800A786F8C51800A81
:10072800785D02E28CC089F08A518B1108E08DC097
:1007380078F0030E781703E08A07D8A08B078EADF0
:1007480013D0800E89BF7F0E786F8A51895D8B51D7
:10075800800A785907E289518A5F000E89BFFF0E27
:100768008B5B02D08A6B8B6BC40E786F080E796F27
:100778008DC07AF08EC07BF078517A1779517B174B
:10078800400E7A190AE1080E7B1907E18A518B118C
:1007980024E08A07D8A08B0720D0C00E786F080EF7
:1007A800796F8DC07AF08EC07BF078517A177951C5
:1007B8007B17800E7A1911E1080E7B190EE18BBFA9
:1007C8000AD08B5103E1030E8A5D05E3FE0E8A27EA
:1007D800FF0E8B2302D08A6B8B6B800E8CBF7F0E33
:1007E800786F8A518C5D8B51800A785907E28C5159
:1007F8008A5F000E8CBFFF0E8B5B02D08A6B8B6BFF
:100808008DA54FD08DC078F0030E781709E06CC025
:10081800D9FF6DC0DAFF2D0EDF6E6C4B6D2B31D01A
:100828008DA106D06CC0D9FF6DC0DAFF200EF4D7B9
:10083800C00E786F080E796F8DC07AF08EC07BF08D
:1008480078517A1779517B17800E7A191AE1080EB8
:100858007B1917E16CC0D9FF6DC0DAFF300EDF6E6F
:100868006C4B6D2B8DBB03D07E6B780E02D07E6BEC
:10087800580E7D6F6CC0D9FF6DC0DAFF7DC0DFFFF9
:10088800CCD78A518B1101E1F2D06CC0D9FF6DC071
:10089800DAFF300EDF6E6C4B6D2B8A07D8A08B0702
:1008A800F0D78A518B1110E08DB70ED06CC0D9FFEC
:1008B8006DC0DAFF200EDF6E6C4B6D2B8A07D8A057
:1008C8008B078A518B11F2E18DC078F0030E7817EF
:1008D80009E06CC0D9FF6DC0DAFF2D0EDF6E6C4BDE
:1008E8006D2B08D08DA106D06CC0D9FF6DC0DAFF82
:1008F800200EF4D7C00E786F080E796F8DC07AF08D
:100908008EC07BF078517A1779517B17400E7A198F
:100918000CE1080E7B1909E16CC0D9FF6DC0DAFF44
:10092800300EDF6E6C4B6D2BA2D0C00E786F080EA8
:10093800796F8DC07AF08EC07BF078517A17795133
:100948007B17800E7A191BE1080E7B1901E08FD006
:100958006CC0D9FF6DC0DAFF300EDF6E6C4B6D2BAB
:100968008DBB03D0806B780E02D0806B580E7F6FE2
:100978006CC0D9FF6DC0DAFF7FC0DFFFD3D777D057
:100988008951020D890EF324F66EFA0EF420F76EE3
:100998000900F5CF62F00A00F5CF63F087C060F078
:1009A80088C061F048EC1BF060C067F061C068F077
:1009B8006A6B0A0E696FF1EC1BF0675145D087C06E
:1009C80060F088C061F08951020D930EF324F66E31
:1009D800FA0EF420F76E0900F5CF62F00A00F5CFA1
:1009E80063F048EC1BF060510F0B7C6F8DBB04D09B
:1009F800590E816FFF0E03D0480E816FFF0E826F74
:100A08007C518125786F000E8221796F78C0F6FFBE
:100A180079C0F7FF0800F5CF8CF022D087C060F0CE
:100A280088C061F08951020D7D0EF324F66EFA0E2E
:100A3800F420F76E0900F5CF62F00A00F5CF63F0F5
:100A480048EC1BF06051070B300F8C6F09D08D51AB
:100A5800C00B96E0400AE2E0C00AB1E0400A90E02C
:100A68006CC0D9FF6DC0DAFF8CC0DFFF5BD7890788
:100A78008929EDE18DB78BBF12D08B5102E18A0530
:100A88000EE36CC0D9FF6DC0DAFF200EDF6E6C4B31
:100A98006D2B8A07D8A08B078A518B11F2E16EC0A3
:100AA800F6FF6FC0F7FF6E4B6F2B0800F5CF8CF089
:100AB8008C5101E07CD46CC0D9FF6DC0DAFFDF6ACD
:100AC800000CD3EC1AF060C0A7F061C0A8F062C0B7
:100AD800A9F063C0AAF0D3EC1AF060C0ACF061C012
:100AE800ADF062C0AEF063C0AFF0FC5120E04B50F7
:100AF800AC5D9E6F4C50AD599F6F4D50AE59A06F75
:100B08004E50AF59A16FA15107E1C10E9E5DE10E94
:100B18009F59E40EA0592AE383EC1AF0ACC04BF0BD
:100B2800ADC04CF0AEC04DF0AFC04EF01FD0475036
:100B3800AC5D9E6F4850AD599F6F4950AE59A06F3C
:100B48004A50AF59A16FA15107E1710E9E5D380E51
:100B58009F59390EA0590AE384EC1CF0ACC047F049
:100B6800ADC048F0AEC049F0AFC04AF04750A75DED
:100B78009E6F4850A8599F6F4950A959A06F4A5075
:100B8800AA59A16FA15107E1710E9E5D380E9F59B8
:100B9800390EA0590CE3FC510AE067EC0CF0A7C031
:100BA80047F0A8C048F0A9C049F0AAC04AF0DFA39E
:100BB80035D0D3EC1AF060C0A2F061C0A3F062C0D7
:100BC800A4F063C0A5F001013B510001A25D9E6F36
:100BD80001013C510001A3599F6F01013D510001E2
:100BE800A459A06F01013E510001A559A16FA1515F
:100BF80007E1910E9E5DD00E9F59030EA0590EE39A
:100C0800DF93470E616F010E626FF1C063F0F2C0AF
:100C180064F0666B460E656FA5EC15F00001DFB752
:100C2800120078EC0EF00009D8B41200A66BCD6B58
:100C380036A403D09E6B9E2B02D000019E6BCD5133
:100C48009E19FC0B9E19CD6F36A602D0CD8702D017
:100C58000001CD973650030BE80603E19E6B9E2BEF
:100C680002D000019E6B9E3B9E47CD519E19DF0B23
:100C78009E19CD6F36AE02D0CD8D02D00001CD9D2C
:100C880036AE04D037C0D0F038C0D1F03BC0D4F075
:100C980039C0D2F03AC0D3F03DC0D6F03CC0D5F050
:100CA800CDAB7AD258D2FC510AE0B26B20EE01F0FB
:100CB800D251D926D351DA22FA51DE1803E0FAECE0
:100CC8001DF06BD2030EFE19FAE039EC0FF0B26F8B
:100CD80020EE03F0D251D926D351DA22AA0EDE181B
:100CE8001EE1B06B040EB06501D019D0D0C060F021
:100CF800D1C061F0B0510E0D4B0EF324626F010E9E
:100D0800F420636F03EC1DF0000907E0320EB025F4
:100D1800D96EDA6A010EDA22DF68B02BE3D7FE0556
:100D280007E1B20505E0020EB21902E0F30EB26F58
:100D3800E46B8D0EE425D96EDA6A010EDA22910E83
:100D4800DF6EE42B8D0EE425D96EDA6A010EDA2205
:100D5800B2C0DFFFE42B8D0EE425D96EDA6A010EEE
:100D6800DA22DDC0DFFFE42BB25102E0B2051BE15D
:100D78008D0EE425D96EDA6A010EDA22DEC0DFFFB5
:100D8800E42BB36BB3510FE1B351FD0FD96EDA6A9F
:100D98008D0EE425E16EE26A010EE222DFCFE7FF65
:100DA800E42BB32BEFD7FAEC1DF0D0C087F0D1C0FD
:100DB80088F0010E896F000ECDB7010E8A6F000E04
:100DC800BCEC14F067EC0CF0B25101E0E6D1DB5159
:100DD8000E0D470EF324616F010EF420626FDB5194
:100DE8000E0DF151F324636FF251F420646F666BBA
:100DF8000E0E656FA5EC15F0D0D1020EFE6501D080
:100E08005ED720EE01F0D251D926D351DA22FA5119
:100E1800DE1801E054D7E46B8D0EE425D96EDA6A4A
:100E2800010EDA22970EDF6EE42B8D0EE425D96EC3
:100E3800DA6A010EDA22DEC0DFFFE42BB36BB351AE
:100E48000FE1B351FD0FD96EDA6A8D0EE425E16E1C
:100E5800E26A010EE222DFCFE7FFE42BB32BEFD7E4
:100E6800FAEC1DF0D0C087F0D1C088F0010E896F70
:100E7800000ECDB7010E8A6F000EBCEC14F08DD1B8
:100E8800E46B8D0EE425D96EDA6A010EDA22920E31
:100E9800DF6EE42BB36B040EB36501D046D0B351BB
:100EA8000E0D530EF324D96E010EF420DA6EDFAE68
:100EB80039D0D0C060F0D1C061F00001B3510E0D3F
:100EC8004B0EF324626F010EF420636F03EC1DF0E8
:100ED800000928E0B3510E0D530EF324D96E010E0C
:100EE800F420DA6EDF6AB3510E0D470EF324616FFA
:100EF800010EF420626FB3510E0DF151F324636FAC
:100F0800F251F420646F666B0E0E656FA5EC15F058
:100F18008D0E0001E425D96EDA6A010EDA22DF6A45
:100F2800E42B03D00001B32BB6D7FAEC1DF0050E65
:100F3800B31909E18D0EE425D96EDA6A010EDA22B9
:100F4800F00EDF6EE42BD0C087F0D1C088F0010E20
:100F5800896F000ECDB7010E8A6F000EBCEC14F03D
:100F68001CD139EC0FF020EE02F0D251D926D35122
:100F7800DA22DF50FB6FFB0E616F626B5DC063F0BE
:100F88005EC064F0666B010E656FA5EC15F000019C
:100F9800DF83D3EC1AF060C03BF161C03CF162C062
:100FA8003DF163C03EF18BD620EE01F0D251D92637
:100FB800D351DA22DF50D5E0010AD3E080D6DFBB77
:100FC800DF9B7DD620EE01F0D251D926D351DA220B
:100FD800DF5001E074D6B36B040EB36501D06FD651
:100FE800B3510E0D530EF324D96E010EF420DA6EB0
:100FF800DFAE30D0D0C060F0D1C061F00001B35195
:101008000E0D4B0EF324626F010EF420636F03EC98
:101018001DF000091FE0B3510E0D530EF324D96ED5
:10102800010EF420DA6EDF6AB3510E0D470EF32479
:10103800616F010EF420626FB3510E0DF151F3246C
:10104800636FF251F420646F666B0E0E656FA5EC4A
:1010580015F035D60001B32BBFD7FC5101E02FD6D0
:10106800010EED6F2CD6FC5101E029D620EE01F0DF
:10107800D251D926D351DA22DF509E6F9E05E96FEF
:10108800D2C067F0D3C068F0B8EC12F018D6FC51A3
:1010980001E115D6D2C060F0D3C061F0F2EC15F0D2
:1010A800AB6FAB290DE0D2C097F0D3C098F0ABC0BE
:1010B80099F0D0C09AF0D1C09BF058EC15F0A66F0B
:1010C800A65101E1FCD5D0C091F0D1C092F044EC1A
:1010D8001DF0F5D5FC5101E1F2D5B16B040EB165F7
:1010E80001D0EDD5D0C0D9FFD1C0DAFFB1510E0D76
:1010F8004B0EF324E16E010EF420E26EDE50E6188A
:1011080028E120EE01F0D051D926D151DA22B1518F
:101118000E0D4C0EF324E16E010EF420E26EDE504B
:10112800E61817E120EE02F0D051D926D151DA2283
:10113800B1510E0D4D0EF324E16E010EF420E26E56
:10114800DE50E61806E1B1513E0FD96EDA6ADF2AA1
:10115800B6D5B12BC3D7D2C0D9FFD3C0DAFFDF5081
:10116800770A81E00D0AB6E0FB0A01E19CD5030A83
:1011780001E186D6050A01E140D6160A01E114D735
:10118800030A01E11FD7050A01E119D75B0A01E14A
:101198007ED7160A01E161D7DF870001D45104E048
:1011A800DFB902D0DFAB1200DF97FAEF1DF0D3EC06
:1011B8001AF060C03FF161C040F162C041F163C004
:1011C80042F1010EE86F62D2ACEC1AF0000901E0BE
:1011D8000FD288EC16F00101F06FF00504E0020E62
:1011E800F01901E005D20001FC5131E0E46BEB6B32
:1011F800060E606FE65158EC1DF0150D7F0EC56F99
:10120800F90EC66FF350C527F450C623EB51C52716
:10121800000EC623C5C0F6FFC6C0F7FF8D0EE42535
:10122800D96EDA6A010EDA220800F5CFDFFFE42B67
:10123800EB2B140EEB65DCD7E62B000E72EC1EF0E0
:10124800E3C091F0E52BE551A1EC1EF0D1D10101ED
:10125800F26B010E0001E76F0101EF6FC5D128ECB9
:101268001EF00101F2510001FB193FE1B50E6C6F50
:10127800010E6D6F440E6E6FFE0E6F6F0101F2511D
:10128800040D210EF324D96E010EF420DA6EDF501E
:101298000001706F716B0101F251040D1E0EF324F1
:1012A800D96E010EF420DA6EDF500001726F736B95
:1012B8000101F251040D1F0EF324D96E010EF42022
:1012C800DA6EDF500001746F756B0101F251040D85
:1012D800200EF324D96E010EF420DA6EDF500001DF
:1012E800766F776BD8EC01F03ED0B50E6C6F010EBF
:1012F8006D6FBB0E6E6FFE0E6F6F0101F251040D24
:10130800210EF324D96E010EF420DA6EDF500001AD
:10131800706F716B0101F251040D1E0EF324D96E2A
:10132800010EF420DA6EDF500001726F736B010159
:10133800F251040D1F0EF324D96E010EF420DA6E5B
:10134800DF500001746F756B0101F251040D200E1E
:10135800F324D96E010EF420DA6EDF500001766FA7
:10136800776BD8EC01F0B50E6C6F010E6D6FBB0E8C
:101378006E6FFE0E6F6F0101F251040D210EF32402
:10138800D96E010EF420DA6EDF500001706F716BB8
:101398000101F251040D1E0EF324D96E010EF42042
:1013A800DA6EDF500001726F736B0101F251040DA8
:1013B8001F0EF324D96E010EF420DA6EDF500001FF
:1013C800746F756B0101F251040D200EF324D96E70
:1013D800010EF420DA6EDF500001766F776BD8ECDF
:1013E80001F0C50E6C6F010E6D6F6A0E6E6FFF0E09
:1013F8006F6FD8EC01F05CEC1EF0010E0001E76F96
:10140800EFD088EC16F00101F16FACEC1AF0010195
:10141800F10501E0C5D0EF6B0001E76B0101F25166
:101428000001FB192DE1E46BEB6B060E606FE651D2
:1014380058EC1DF0150D7F0EC56FF90EC66FF350F1
:10144800C527F450C623EB51C527000EC623C5C0D7
:10145800F6FFC6C0F7FF8D0EE425D96EDA6A010ED5
:10146800DA220800F5CFDFFFE42BEB2B140EEB6537
:10147800DCD7000E956B68EC1CF00001E52B80D0E2
:10148800E46B8D0EE425D96EDA6A010EDA22CC0EF1
:10149800DF6EE42B0101F251040D1E0EF324D96E08
:1014A800010EF420DA6E8D0E0001E425E16EE26A89
:1014B800010EE222DFCFE7FFE42B0101F251040D18
:1014C8001F0EF324D96E010EF420DA6E8D0E000182
:1014D800E425E16EE26A010EE222DFCFE7FFE42BAA
:1014E8000101F251040D200EF324D96E010EF420EF
:1014F800DA6E8D0E0001E425E16EE26A010EE22249
:10150800DFCFE7FFE42B040EEB6FFC0EC56FC66957
:10151800060E606FE65158EC1DF0150D7F0EC76F73
:10152800F90EC86FF350C727F450C823EB51C727EB
:10153800000EC823C551C727C651C823C7C0F6FF28
:10154800C8C0F7FF8D0EE425D96EDA6A010EDA22DB
:101558000800F5CFDFFFE42BEB2B180EEB65D5D792
:10156800000E21EC18F00101EE6FEE5186E1FC0E41
:1015780000018F6FFE0E906F916B926BB2EC1BF0B7
:10158800E3C091F0E551A1EC1EF0050E0001616F7A
:10159800DC0E606F26EC13F0FC51EAEC1DF020D055
:1015A800020EF1191DE1F2510001C56FC66BC76942
:1015B800C869E951C96FCA6BC751C927C851CA233D
:1015C800C551C95DCA51800ACB6FC651800ACB5933
:1015D80003E20101F26B02D00101F22B0001E76B7B
:1015E8000001E75101E00DD70101EF0501E137D610
:1015F8000001EC5106E0FC5104E1B46B8AEC10F0F8
:10160800EC6BD3EC1AF060C043F161C044F162C0E6
:1016180045F163C046F101013F51435D0001C56FCB
:101628000101405144590001C66F0101415145591A
:101638000001C76F0101425146590001C86FC851E6
:1016480007E1710EC55D380EC659390EC7591EE33C
:10165800FC511CE028EC1EF0B50E6C6F010E6D6F8E
:10166800360E6E6FFF0E6F6FF9C070F0716BD8ECAD
:1016780001F05CEC1EF0070E0001616FD00E606F88
:1016880026EC13F0E86B010EEAEC1DF0E85101E0DE
:101698009BD51200726F0001766B7651ED08616F71
:1016A800000ED8A0E82A0108626F7651FA0F636F1E
:1016B800010E646F6DEC1BF00001762B020E76654F
:1016C800ECD70101EA69FE0EE96F0001766B7651ED
:1016D800E808616F000ED8A0E82A0108626F765109
:1016E800FD0F636F010E646F6DEC1BF00001762B2C
:1016F800020E7665ECD718EC17F0DF6B725135E106
:10170800766B76510E0D530EF324D96E010EF4202C
:10171800DA6EDF6A76510E0D4B0EF324D96E010E88
:10172800F420DA6EDF6A76510E0D4C0EF324D96E72
:10173800010EF420DA6EDF6A76510E0D4D0EF32499
:10174800D96E010EF420DA6EDF6A76513E0FD96E3B
:10175800DA6ADF6A320E7625D96EDA6A010EDA2283
:10176800DF6A762B040E7665CCD799EC1EF0E46B15
:1017780072515DE0FA0E616F626BF3C063F0F4C002
:1017880064F0666B010E656F59EC1AF01F0E0001CC
:10179800FA6501D01F0CFE0E616F626BEFC063F03B
:1017A800F0C064F0666B010E656F59EC1AF0470ED5
:1017B8000001616F010E626FF1C063F0F2C064F066
:1017C800666B460E656F59EC1AF0FC0E0001616FEE
:1017D800626BF7C063F0F8C064F0666B010E656F6A
:1017E80059EC1AF0FB0E0001616F626B5DC063F08B
:1017F8005EC064F0666B010E656F59EC1AF0F90E65
:101808000001616F626BF5C063F0F6C064F0666B4F
:10181800010E656F59EC1AF0D80E0001616FFF0ECA
:10182800626FC8EC1DF0FA514BEC1CF027D0FA0E91
:10183800616F626BF3C063F0F4C064F0666B010E15
:10184800656FA5EC15F0FE0E0001616F626BEFC0CD
:1018580063F0F0C064F0666B010E656FA5EC15F0DF
:10186800470E0001616F010E626FF1C063F0F2C0B4
:1018780064F0666B460E656FA5EC15F0E60E000188
:10188800746F010E756F73837351870B4009736F03
:1018980072B102D0739502D000017385739173C041
:1018A8006EF074C06FF075C070F00BEC15F00001AD
:1018B800FA51BAEC1CF00001DE6BDE81FE39F00B48
:1018C800DE13F08A1200F951040D040EF326000EFF
:1018D800F422F4BE05D0F45006E1280EF35C03E2CE
:1018E800010E996F27D0F951040D040EF324606F8F
:1018F800000EF420616F636B280E626FDAEC18F04B
:101908006051996FF951040D040EF326000EF4226C
:10191800F350F4100FE0F951040D040EF324606F36
:10192800000EF420616F636B280E626FBFEC19F034
:10193800605199279B6BCCD0E46B8D0EE425D96E52
:10194800DA6A010EDA22770EDF6EE42B8D0EE425BB
:10195800D96EDA6A010EDA22F9C0DFFFE42B9B5157
:10196800090D8D0EE425D96EDA6A010EDA22F3CF5D
:10197800DFFFE42B9B29090D8D0EE425D96EDA6A69
:10198800010EDA22F3CFDFFFE42B040E986F9B5190
:10199800090DF3CF9CF067D0F9519C5D63E29C512F
:1019A8000E0D530EF324D96E010EF420DA6EDFAE5D
:1019B8003ED000019C510E0D4B0EF324D96E010E42
:1019C800F420DA6E8D0EE425E16EE26A010EE22261
:1019D800DFCFE7FFE42B9C510E0D4C0EF324D96E9C
:1019E800010EF420DA6E8D0EE425E16EE26A010E36
:1019F800E222DFCFE7FFE42B9C510E0D4D0EF324BE
:101A0800D96E010EF420DA6E8D0EE425E16EE26ADD
:101A1800010EE222DFCFE7FFE42B8D0EE425D96E1D
:101A2800DA6A010EDA229CC0DFFFE42B19D08D0E92
:101A38000001E425D96EDA6A010EDA22DF68E42BA8
:101A48008D0EE425D96EDA6A010EDA22DF68E42BFE
:101A58008D0EE425D96EDA6A010EDA22DF68DCD74A
:101A6800040E98279C2B9B51916F926B912B000E23
:101A78009223090E9103F3CF93F0F4CF94F09203DD
:101A8800F35094279C51956F966B9351955D9651A1
:101A9800800A976F9451800A975901E27DD798C0C0
:101AA8009AF0270E9A6501D00BD08D0EE425D96ED9
:101AB800DA6A010EDA22110EDF6EE42B9A2BF1D7C7
:101AC800876B886B010E896F8A6BBCEC14F09B2BBB
:101AD80099519B5D01E230D7120000016D6F050E30
:101AE8006D6520D0230E616FFF0E626FC8EC1DF08C
:101AF8006F6B6F51ED08D96E000ED8A0E82A010867
:101B0800DA6EDF504BEC1CF000016F2B070E6F658F
:101B1800F0D7CC0E616FFF0E626FC8EC1DF0FA5162
:101B280060EC18F0050E00016D616CD0180E616F45
:101B3800FC0E626FC8EC1DF06D510E0D530EF324B0
:101B4800D96E010EF420DA6E0101DFAE1200000139
:101B58006D514BEC1CF0BE0E0001616FFF0E626F01
:101B6800C8EC1DF06F6B080E6F6119D06D510E0D2A
:101B7800470E6B6F010E6C6F0B0E6B27000E6C23FC
:101B8800F3506B27F4506C236F516B5DD96E6C5119
:101B9800D8A06C05DA6EDF504BEC1CF006D0C90EED
:101BA800616FFF0E626FC8EC1DF000016F2B070E0E
:101BB8006F65D9D7C70E616FFF0E626FC8EC1DF055
:101BC8006F6B6D510E0D470E6B6F010E6C6F0D0E26
:101BD8006B27000E6C23F3506B27F4506C236F5166
:101BE8006B25D96E000E6C21DA6EDF504BEC1CF0C1
:101BF80000016F2B6F51E5E0F40E616FFF0E626F0D
:101C0800C8EF1DF0160E616FFC0E626FC8EC1DF078
:101C18006F6B6F510E0D530EF324D96E010EF42025
:101C2800DA6EDFAE5BD000016F514BEC1CF0BE0EDC
:101C38000001616FFF0E626FC8EC1DF06E6B080E3D
:101C48006E6119D06F510E0D470E6B6F010E6C6FE0
:101C58000B0E6B27000E6C23F3506B27F4506C238C
:101C68006E516B5DD96E6C51D8A06C05DA6EDF5081
:101C78004BEC1CF006D0C90E616FFF0E626FC8EC0A
:101C88001DF000016E2B070E6E65D9D7C70E616F68
:101C9800FF0E626FC8EC1DF06E6B6F510E0D470E94
:101CA8006B6F010E6C6F0D0E6B27000E6C23F350DB
:101CB8006B27F4506C236E516B25D96E000E6C2186
:101CC800DA6EDF504BEC1CF000016E2B6E51E5E034
:101CD800F40E616FFF0E626FC8EC1DF000016F2BF0
:101CE800040E6F6596D7040C776BD3EC1AF060C0BE
:101CF80072F061C073F062C074F063C075F0775120
:101D0800060D000EF324D96E010EF420DA6EDF50B2
:101D18003FE07751060D020EF324D96E010EF42030
:101D2800DA6E7251DE5C7351DE587451DE587551AB
:101D3800DE582EE27751060D020EF324D96E010EFD
:101D4800F420DA6EDECF6AF0DECF6BF0DECF6CF017
:101D5800DECF6DF06A51725D6E6F6B5173596F6FA4
:101D68006C517459706F6D517559716F715107E1EC
:101D7800910E6E5DD00E6F59030E705909E37751BD
:101D8800060D000EF324D96E010EF420DA6EDF6A18
:101D9800772B040E7765A9D7E22901E0000C776B51
:101DA80077513E0D3C0EF324D96E020EF420DA6E04
:101DB800DFA055D0000177513E0D3D0EF324D96EBA
:101DC800020EF420DA6EDF50366E77513E0D790E32
:101DD800F324D96E020EF420DA6EDF503B6E020E49
:101DE800766F36AC05D0D731E832E8320F0B76275C
:101DF80036AE19D077513E0D3C0E6A6F020E6B6FEE
:101E08006A2B000E6B23F3506A27F4506B2376512C
:101E18006A25376E000E6B21386ED731E832E8320A
:101E28000F0B762702D0376A386A76513B5E7751B6
:101E38003E0D3C0E6A6F020E6B6F6A2B000E6B2311
:101E4800F3506A27F4506B2376516A25396E000ED9
:101E58006B213A6EE1C03CF077C0E2F0010C000162
:101E6800772B010E77659CD7000C00016E6B6F69AC
:101E7800706B70510E0D530EF324D96E010EF420C1
:101E8800DA6EDFAE16D0D0C060F0D1C061F00001CC
:101E980070510E0D4B0EF324626F010EF420636F28
:101EA80003EC1DF000090AE070C06FF0010E6E6FC0
:101EB80009D000016F2902E170C06FF0702B040E89
:101EC8007065D7D76F2901E1F10CFE5103E00001DD
:101ED8006E5112006FC0DDF0706B7051D025D96E55
:101EE800000ED121DA6E6F510E0D470E6A6F010E8A
:101EF8006B6F040E6A27000E6B23F3506A27F450A9
:101F08006B2370516A25E16E000E6B21E26EDFCF04
:101F1800E7FF702B070E7065E0D76F510E0D530E5B
:101F2800F324D96E010EF420DA6EDF8E000120EE64
:101F380002F0D251D926D351DA22DF506A6F010E4E
:101F48006A176F510E0D530EF324D96E010EF4204B
:101F5800DA6EDF506A19FE0B6A19DF6E706B70510A
:101F6800D2256A6F000ED3216B6F030E6A25D96ED6
:101F7800000E6B21DA6E6F510E0D470E6C6F010E5D
:101F88006D6F0D0E6C27000E6D23F3506C27F45007
:101F98006D2370516C25E16E000E6D21E26EDFCF6E
:101FA800E7FF702B7051DBE06FC0DBF0DF99FAECD4
:101FB8001AF0F96FF90E616F626BF5C063F0F6C045
:101FC80064F0666B010E656FA5EC15F080D7956F10
:101FD8000001952951E1966B96510E0D530EF3248D
:101FE800D96E010EF420DA6EDFAE21D00001E46B69
:101FF8008D0EE425D96EDA6A010EDA22820EDF6EC2
:10200800E42B96510E0D4B0EF324876F010EF4202E
:10201800886F010E896F000E8A6BBCEC14F0916B0F
:10202800926B914B922B91290F0E9259FAE3000172
:1020380096510E0D530EF324D96E010EF420DA6E6C
:10204800DF6A96510E0D470EF324616F010EF420DE
:10205800626F96510E0DF151F324636FF251F42023
:10206800646F666B0E0E656FA5EC15F00001962B7C
:10207800040E9665B1D7040C95510E0D530EF3243A
:10208800D96E010EF420DA6E0101DFAE12000001F4
:10209800E46B8D0EE425D96EDA6A010EDA22820E1F
:1020A800DF6EE42B95510E0D4B0EF324876F010E56
:1020B800F420886F010E896F000E8A6BBCEC14F057
:1020C800936B946B934B942B93290F0E9459FAE3CB
:1020D80095510E0D530EF324D96E010EF420DA6ECD
:1020E800DF6A95510E0D470EF324616F010EF4203F
:1020F800626F95510E0DF151F324636FF251F42084
:10210800646F666B0E0E656FA5EF15F0FEC0B9F033
:10211800030EBA6FBF6BD3EC1AF060C047F061C012
:1021280048F062C049F063C04AF0B40501E1FF0C11
:10213800D3EC1AF060C0BBF061C0BCF062C0BDF067
:1021480063C0BEF0900EBB5FD00EBC5B030EBD5BE0
:10215800000EBE5BFE6BDF896BD0D3EC1AF060C05B
:10216800C0F061C0C1F062C0C2F063C0C3F0BB512F
:10217800C05DB56FBC51C159B66FBD51C259B76F7B
:10218800BE51C359B86FB85107E1910EB55DD00E75
:10219800B659030EB75946E3C0C0BBF0C1C0BCF086
:1021A800C2C0BDF0C3C0BEF0BF07BF2941E1010EE8
:1021B800BF6FBA07BA2902E1DF99FF0CE46B8D0EF5
:1021C800E425D96EDA6A010EDA22810EDF6EE42B7D
:1021D8008D0EE425D96EDA6A010EDA22FAC0DFFF25
:1021E800E42B8D0EE425D96EDA6A010EDA22DEC000
:1021F800DFFFE42BC46BC451FD0FD96EDA6A8D0E74
:10220800E425E16EE26A010EE222DFCFE7FFE42B6C
:10221800C42BC451F0E0876B886B010E896F8A6B01
:10222800BCEC14F0AEEC1EF0000902E0BDEC1EF0B0
:10223800DFB993D7B9C0FEF0DB5112007C6F030EF3
:102248000001786F88D0796BEA6B776B6A5119E077
:10225800280ED3EC1CF07A6FD8907A33410E7A6549
:1022680010D0772B77056B6F040E6B6501D0000CCF
:10227800010E606F000E616B626B636BC5EC1EF044
:10228800E7D7F09A200E89EC19F01A0E0001626F58
:10229800C90E616F2FEC1DF000017C516CEC1DF034
:1022A80000017D6B0BD0000E7D25D96EDA6A020E17
:1022B800DA22DF506CEC1DF000017D2B7C517D5D36
:1022C800F2E3800E89EC19F0F08A0001DA5102E19C
:1022D800F0A4FBD7DA6B200E89EC19F0600E89ECBC
:1022E80019F0020100AB0ED001C257F0D3EC1AF07E
:1022F80060C06FF061C070F062C071F063C072F0CE
:10230800EA5104E0010E00017B6F2AD0D3EC1AF0E9
:1023180060C073F061C074F062C075F063C076F09D
:102328006F51735D6B6F705174596C6F7151755942
:102338006D6F725176596E6F6E516D1105E1D50E44
:102348006B5D300E6C59DCE3792B79056B6F040EED
:102358006B6101D079D77807782901E074D77B6B56
:102368007B511200106E030E1B6E84D01C6A000194
:10237800EA6B1A6A0B5019E0280E19EC1DF01D6E55
:10238800D8901D32410E1D6410D01A2A1A040C6E02
:10239800040E0C6401D0040C010E016E000E026ADA
:1023A800036A046AC6EC1EF0E7D7F09A200EF3EC35
:1023B80019F01A0E036EC90E026E92EC1DF0105041
:1023C800D9EC1DF01E6A0AD0000E1E24D96EDA6AF6
:1023D800020EDA22DF50D9EC1DF01E2A10501E5CC6
:1023E800F3E3800EF3EC19F0F08A0001DA5102E110
:1023F800F0A4FBD7DA6B200EF3EC19F0600EF3ECC7
:1024080019F0020100AB0ED001C257F021EC1BF00D
:1024180001C012F002C013F003C014F004C015F09C
:10242800EA5103E0010E116E010C21EC1BF001C012
:1024380016F002C017F003C018F004C019F01250CB
:10244800165C0C6E135017580D6E145018580E6EFB
:10245800155019580F6E0F500E1005E1D50E0C5C73
:10246800300E0D58DDE31C2A1C040C6E040E0C60A3
:1024780001D07DD71B061B2801E078D7116A12000E
:10248800280E836501D0000C7EB503D0846B842BA5
:1024980002D00001846B843B844784477E518419B1
:1024A800BF0B84197E6F7E8F7E51030BE80601E116
:1024B8007E8F7EC000F2DCC001F2DC2B020E856F3D
:1024C8007EAD1AD0866B10D086517F25D96E000E4E
:1024D8008021DA6E000E8525E16EE26A020EE222A4
:1024E800DFCFE7FF852B862BD731E832E8320F0B99
:1024F800846F8451865DE8E37EAF1AD0866B10D076
:102508008651D825D96E000ED921DA6E000E8525A0
:10251800E16EE26A020EE222DFCFE7FF852B862B0F
:10252800D731E832E8320F0B846F8451865DE8E3D7
:10253800866B10D086518125D96E000E8221DA6E05
:10254800000E8525E16EE26A020EE222DFCFE7FF88
:10255800852B862B8351865DEDE3000ED7B3010EE4
:102568006A6F855122EF11F0040E6C6F6CC069F030
:10257800030E691761E16C51696F6A6B030E692775
:10258800000E6A236ABF05D06A5156E1280E695DBC
:1025980053E26C516725696F000E68216A6F030E5C
:1025A8006925D96E000E6A21DA6EDF506B6F6B51A8
:1025B800040D210EF324D96E010EF420DA6E6BC0DF
:1025C800DFFF6C516725D96E000E6821DA6E6B51FA
:1025D800040D1E0EF324E16E010EF420E26EDFCF2F
:1025E800E7FF6C516725696F000E68216A6F6929DA
:1025F800D96E000E6A21DA6E6B51040D1F0EF3249A
:10260800E16E010EF420E26EDFCFE7FF6C51672523
:10261800696F000E68216A6F020E6925D96E000E77
:102628006A21DA6E6B51040D200EF324E16E010E5F
:10263800F420E26EDFCFE7FF6C2B270E6C6596D790
:102648009EEF18F06051626F6151636F646B656B48
:10265800D00E6203F3CF66F0F4CF67F0686B696B56
:102668006303F3506727F4506823000E6923070EAD
:102678006203F3506727F4506823000E6923D00ED5
:102688006403F3506827F4506923070E6303F3507B
:102698006827F4506923000E6203F3506827F4504A
:1026A8006923D00E6503F3506927070E6403F350BE
:1026B8006927000E6303F3506927000E6203F35085
:1026C800692766C06AF067C06BF068C06CF069C0C3
:1026D8006DF0560E6A27FF0E6B236C236D236DBFBA
:1026E800FF0C6D516C116B110CE1C40E6A5D09E2AF
:1026F800120000F0D90E00016A27FF0E6B236C232D
:102708006D236DBF12006D516C116B11F2E16A05FA
:10271800F0E212000150036E0250046E056A066A68
:10272800D00E0302F3CF07F0F4CF08F0096A0A6A63
:102738000402F3500826F4500922000E0A22070E5C
:102748000302F3500826F4500922000E0A22D00E84
:102758000502F3500926F4500A22070E0402F3502A
:102768000926F4500A22000E0302F3500926F450F9
:102778000A22D00E0602F3500A26070E0502F3506D
:102788000A26000E0402F3500A26000E0302F35034
:102798000A2607C00BF008C00CF009C00DF00AC0EB
:1027A8000EF0560E0B26FF0E0C220D220E220EBE28
:1027B800FF0C0E500D100C100BE1C40E0B5C08E260
:1027C800120000F0D90E0B26FF0E0C220D220E224D
:1027D8000EBE12000E500D100C10F3E10B04F1E2C6
:1027E8001200CDA706D0E20E616FFF0E626FC8EC33
:1027F8001DF0CD51030B07E0860E616FFD0E626F71
:10280800C8EC1DF006D02A0E616FFE0E626FC8EC90
:102818001DF0D5514BEC1CF00001CDAD2ED0EB0EC8
:10282800616FFF0E626FC8EC1DF0CDAF11D020EEC6
:1028380001F0D051D926D151DA22DF504BEC1CF0EF
:10284800D0C0D9FFD1C0DAFFDF504BEC1CF015D057
:10285800666B6651D05D646F000ED159656F070EC7
:102868006425D96E000E6521DA6EDF504BEC1CF042
:102878000001662B070E6665ECD7D50E0001616F67
:10288800FF0E626FC8EC1DF0666B0BD06651D22547
:10289800D96E000ED321DA6EDF50A8EC1EF00001CD
:1028A800662BD451665DF2E312002F0E8F6FFD0E7A
:1028B800906F916B010E926FB2EC1BF09D0E616FE1
:1028C800FB0E626FC8EC1DF08D0E616FFE0E626F1D
:1028D800C8EC1DF0BE0E616FFD0E626FC8EC1DF0F6
:1028E800F40E616FFD0E626FC8EC1DF0750E616F1E
:1028F800FE0E626FC8EC1DF0D90E616FFD0E626F9F
:10290800C8EC1DF00F0E616FFE0E626FC8EC1DF073
:10291800B60E616FFC0E626FC8EC1DF0A40E616FFD
:10292800FE0E626FC8EC1DF01F0E616FFB0E626F2A
:10293800C8EC1DF05F0E616FFB0E626FC8EC1DF0F6
:10294800DD0E616FFA0E626FC8EC1DF09B0E616FB1
:10295800FA0E626FC8EC1DF0DA0E616FFB0E626F43
:10296800C8EC1DF0F20E616FFF0E626FC8EF1DF02C
:102978008D6F00018E6B895103E08B6B8B2B02D01E
:1029880000018B6B8E518B19FC0B8B198E6F8D513F
:1029980003E18B6B8B2B02D000018B6B8B3B8B473E
:1029A8008E518B19DF0B8B198E6F8DB102D08E95DE
:1029B80002D000018E858AB102D08E9702D0000124
:1029C8008E878D5103E18B6B8B2B02D000018B6BB3
:1029D8008B3B8B478B478E518B19BF0B8B198E6F97
:1029E8008E8F87C08FF088C090F08EC07EF08FC029
:1029F8007FF090C080F08D0E816F010E826FE4C071
:102A080083F044EC12F08C6FE46B8C5112006EC0B2
:102A1800D7F06FC0D8F070C0D9F0616B140E606F3A
:102A280026EC13F08D828B84D6CFDCF0E269716BD3
:102A380071513E0D3C0EF324D96E020EF420DA6E6D
:102A4800DF6A712B010E7165F3D7716B7151020D3D
:102A5800FD0EF324F66EF90EF420F76E0900F5CF9B
:102A680061F00A00F5CF62F02FEC1DF00001712B28
:102A78001F0E7165EBD7200E89EC19F00001626B0F
:102A88004E0E616F2FEC1DF0400E89EC19F01C0EF4
:102A98000001626F0F0E616F2FEC1DF0600E89EC64
:102AA80019F0F094F08A1200E46B9AC0D9FF9BC029
:102AB800DAFF8D0EE425E16EE26A010EE222DFCF35
:102AC800E7FFE42B20EE01F09A51D9269B51DA2238
:102AD8008D0EE425E16EE26A010EE222DFCFE7FF08
:102AE800E42B20EE02F09A51D9269B51DA228D0E62
:102AF800E425E16EE26A010EE222DFCFE7FFE42B74
:102B0800030E9D6F9D519725D96E000E9821DA6EA0
:102B18008D0EE425E16EE26A010EE222DFCFE7FFC7
:102B2800E42B9D2B270E9D65EDD7956B995168EC8D
:102B38001CF000019C6F9C5102E10AEC1EF09C51B4
:102B48001200000EF0BA010E686FF09A8C9A050E0A
:102B580037EC1EF0B3EC1EF00001696F8C8AC2ECF2
:102B68001EF0000169B1F2D78C9A060E37EC1EF000
:102B78008C8AC2EC1EF08C9A020E37EC1EF0000113
:102B8800645137EC1EF00001635137EC1EF0000170
:102B9800696B1AD061C0D9FF62C0DAFFDF5037EC29
:102BA8001EF00001614B622B6507D8A06607692BF0
:102BB80069516325676F3F0E671706E18C8A695173
:102BC8006327000E6423C2D765516611E3E18C8A3E
:102BD80068B102D0F09A01D0F08A1200646B42D03A
:102BE80064510E0D530EF324D96E010EF420DA6EE3
:102BF800DFAE36D0000164510E0D4B0EF324D96EB2
:102C0800010EF420DA6E10EE01F06051E1266151F8
:102C1800E222DE50E61824E164510E0D4C0EF32436
:102C2800D96E010EF420DA6E10EE02F06051E12642
:102C38006151E222DE50E61813E164510E0D4D0E8B
:102C4800F324D96E010EF420DA6E10EE03F0605111
:102C5800E1266151E222DE50E61802E164511200D9
:102C68000001642BF951645DBBE3F9516419D8B4D0
:102C7800FF0E1200C56F0001C55104E0010E4EECB5
:102C88000BF03FD089948996000E4EEC0BF0190E8C
:102C9800BAEC1CF0000903E1190EA5EC1DF0000EBA
:102CA8002EEC1CF0000E0001946F190E27EC1AF0A0
:102CB800B46B8AEC10F0C66FC62907E0010E946F5A
:102CC800190E27EC1AF0FC6B0BD00A0E6A6F000E77
:102CD8006B6B6C6B6D6B6E6B10EC1CF0010EFC6F0C
:102CE800FC0E616F626BF7C063F0F8C064F0666B4E
:102CF800010E656FA5EC15F0FF0E71EC0DF08984DF
:102D08000001FC51EAEF1DF081B00FD0E05143E122
:102D1800010EE06FD3EC1AF060C037F161C038F1F2
:102D280062C039F163C03AF1010C81B40FD0E051AF
:102D380032E1010EE06FD3EC1AF060C037F161C0E8
:102D480038F162C039F163C03AF1020CD3EC1AF0E1
:102D580060C06EF061C06FF062C070F063C071F067
:102D68000101375100016E5D6A6F010138510001A0
:102D78006F596B6F01013951000170596C6F010176
:102D88003A51000171596D6F6D516C1103E1400E9C
:102D98006B5D01E3E06B000C676F1F0E0001676558
:102DA80001D0000C0C0E626F640E616F2FEC1DF0E9
:102DB8003D0E00016725F66EF76AFA0EF722080045
:102DC800F5CF66F0000E6611616F0E0E626F2FEC84
:102DD8001DF05D0E00016725F66EF76AFA0EF72200
:102DE8000800F5CF66F0000E6611616F100E626F75
:102DF8002FEC1DF0200E89EC19F00001626B4E0ECD
:102E0800616F2FEC1DF0400E89EC19F01C0E0001CB
:102E1800626F0F0E616F2FEC1DF0200E89EC19F018
:102E2800600E89EC19F0010C010E656F4F6A506A4B
:102E3800616B020E606F590E626FECEC1CF0651747
:102E4800616B010E606FF30E626FECEC1CF065179E
:102E5800616B010E606FEF0E626FECEC1CF0651792
:102E6800616B460E606FF10E626FECEC1CF065173B
:102E7800616B040E606F5B0E626FECEC1CF0651703
:102E8800616B010E606FF50E626FECEC1CF065175C
:102E9800616B010E606FF70E626FECEC1CF065174A
:102EA800616B010E606F5D0E626FECEC1CF06517D4
:102EB80012005150525C04E35550565CD8B01200D1
:102EC80071B0FED75150525C15E25250430FD96E83
:102ED800DA6ADF50756E522A51505218D8A412007F
:102EE8005550D8A412007184010E026E2C0E016E8A
:102EF8008EEF13F05550565CD8B01200B50E56241C
:102F0800D96EDA6A010EDA22DF5008E1B50E5624CE
:102F1800D96EDA6A010EDA22200EDF6EB50E56245B
:102F2800D96EDA6A010EDA22DF50756E562A5550CC
:102F38005618D9E01200D3EC1AF060C098F061C0BE
:102F480099F062C09AF063C09BF0D3EC1AF060C0AD
:102F58009CF061C09DF062C09EF063C09FF09851E4
:102F68009C5D946F99519D59956F9A519E59966F92
:102F78009B519F59976F97511EE1410E945D420EE8
:102F880095590F0E965901E3120088EC16F0A06FC0
:102F9800020EA0190FE1E70E8F6FFE0E906F916B76
:102FA800926BB2EC1BF0030E616FE80E606F26ECBB
:102FB80013F0010C000E12007B0ED36EC090F26A63
:102FC800550EA76EAA0EA76E0E01FF91060EE96FA9
:102FD800130EF66F050ED76F550EA76EAA0EA76EC5
:102FE800FF810F0148693F0E496FF19E926893680F
:102FF800946895689668896A8A6A8C6A8D6A9594D5
:103008008C84949C8B9C9380938492949296958EB6
:1030180093869586938A949E9398C00EC76E210EC8
:10302800C66E949496928B848D82F18696908D804C
:10303800959A8C8AF28E90EF1BF0C06F0001ED6BB1
:103048004B0E876F010E886F010E896FC0C08AF022
:10305800000EBCEC14F0D3EC1AF060C0B8F061C0FC
:10306800B9F062C0BAF063C0BBF022D0D3EC1AF05A
:1030780060C0BCF061C0BDF062C0BEF063C0BFF00C
:10308800AEEC1EF0B851BC5DB46FB951BD59B56F07
:10309800BA51BE59B66FBB51BF59B76FB751B611C8
:1030A80005E1510EB45DC30EB55902E3ED0502E129
:1030B800ED51DCE0ED5112006A6F630E00016A65A4
:1030C80010D0640E646F6A519FEC1CF0686F696BD6
:1030D800D60E6825D96E010E6921DA6EDF50A8EC8C
:1030E8001EF0090E00016A6514D00A0E646F640EA2
:1030F800606F6A5158EC1DF09FEC1CF0686F696BAB
:10310800D60E6825D96E010E6921DA6EDF50A8EC5B
:103118001EF00A0E0001606F6A5158EC1DF0686FCE
:10312800696BD60E6825D96E010E6921DA6EDF50FB
:10313800A8EF1EF0656BFC51D8A41200666B1ED078
:103148006651040D1E0EF324D96E010EF420DA6EBA
:103158000101E651DE1810E100016651040D1F0E51
:10316800F324D96E010EF420DA6EDE500101E7195E
:1031780003E1010E0001656F0001662BE951606FE4
:10318800616B602B000E61236651626F636B605147
:10319800625D6351800A646F6151800A6459D0E3AB
:1031A8006551D8A41200010EEC6F010C656B63AF7A
:1031B80006D0626D631FD8B0632B010E656F61AFD7
:1031C80006D0606D611FD8B0612B010E651B666B60
:1031D800676B625163111BE0010E646F04D0D890D5
:1031E80062376337642B63AFFAD7D890663767378F
:1031F8006251605D6351615905E36251605F6351DB
:10320800615B6681D89063336233642FEED7655172
:1032180004E0666D671FD8B0672B66C060F067C0B2
:1032280061F0120002EE00F0B80EEE6AE806FDE169
:1032380001EE00F0D60EEE6AE806FDE100EECDF0F4
:10324800300EEE6AE806FDE100EE36F0290EEE6A71
:10325800E806FDE1880EF66E3C0EF76E000EF86E7D
:1032680001EED6F010EE18F00900F5CFEEFFE550AC
:10327800E150FAE1880EF66E3D0EF76E000EF86E1C
:103288000900F5CFFDF00900F5CFFEF05F905F92E1
:10329800000EF86E0001B7EF1DF028EC1EF0B50E19
:1032A8006C6F010E6D6F7B0E6E6FFF0E6F6FD8EC3B
:1032B80001F0C50E6C6F010E6D6FD10E6E6FFE0EB4
:1032C8006F6F8FC0D9FF90C0DAFFDF50706F716BDE
:1032D80020EE01F08F51D9269051DA22DF50726F1B
:1032E800736B20EE02F08F51D9269051DA22DF500D
:1032F800746F756BD8EC01F05CEC1EF0040E0001E5
:10330800616FB00E606F26EF13F00001646F27D075
:10331800626B8E0E616F2FEC1DF0800E536E800C69
:10332800626B6E0E616F2FEC1DF0600E536E600CB9
:10333800626B4E0E616F2FEC1DF0400E536E400C09
:10334800626B2E0E616F2FEC1DF0200E536E200C59
:10335800626B0E0E616F2FEC1DF0536A12000001B4
:103368006451F6E0200AECE0600AE2E0200AD8E0C6
:10337800E00ACEE01200656B61AF06D0606D611F98
:10338800D8B0612B010E656F63AF04D0626D631F07
:10339800D8B0632B6251631117E0010E646F04D03B
:1033A800D89062376337642B63AFFAD76251605D98
:1033B8006351615904E36251605F6351615BD89066
:1033C80063336233642FF2D7655104E0606D611F87
:1033D800D8B0612B60C060F061C061F01200056E6A
:1033E80027D0036A8E0E026E92EC1DF0800E536E8B
:1033F800800C036A6E0E026E92EC1DF0600E536E26
:10340800600C036A4E0E026E92EC1DF0400E536E75
:10341800400C036A2E0E026E92EC1DF0200E536EC5
:10342800200C036A0E0E026E92EC1DF0536A120015
:103438000550F7E0200AEDE0600AE3E0200AD9E051
:10344800E00ACFE01200956F0001945114E1760E66
:103458008F6FFC0E906F95C091F0010E926FB2ECD9
:103468001BF0F40E616FFC0E626FC8EC1DF09551F5
:1034780060EC18F013D0D50E8F6FFC0E906F95C0CE
:1034880091F0010E926FB2EC1BF0120E616FFD0EFF
:10349800626FC8EC1DF0955160EC18F0F40E000155
:1034A800616FFF0E626FC8EF1DF0000EF0BA010EDB
:1034B800676FF09A8C9A030E37EC1EF00001645186
:1034C80037EC1EF00001635137EC1EF00DD0B3EC61
:1034D8001EF061C0D9FF62C0DAFFDF6E0001614BE8
:1034E800622B6507D8A06607000165516611EFE1F8
:1034F8008C8A67B102D0F09A01D0F08A1200986BDA
:1035080098510E0D530EF324D96E010EF420DA6E85
:10351800DFAE18D0000198513E0FD96EDA6ADF503D
:103528000CE1320E9825D96EDA6A010EDA22DE280D
:1035380004E09851EBEC0FF005D098513E0FD96E8E
:10354800DA6ADF6A0001982B040E9865D9D7040C53
:10355800AEEC1EF0B46FB45120E0F5EC13F0E32BA1
:10356800E3C091F0E551A1EC1EF0070E0001616F78
:10357800D00E606F26EC13F08976FC5109E1CD512D
:10358800030B06E1D2C08FF0D3C090F051EC19F0D4
:10359800BDEC1EF0FC51EAEC1DF0B45112009D90F8
:1035A8000001686B696B656BCECF66F0CFCF67F0B3
:1035B800662908E1672906E1652B6505646F020E37
:1035C8006465F2D79EA004D0682B582801E1692BC6
:1035D80058506827EE5169279D8066C060F067C023
:1035E80061F068C062F069C063F01200606B616BE3
:1035F80061510E0D4B0EF324D96E010EF420DA6ED4
:10360800DF5014E161510E0D4C0EF324D96E010EFA
:10361800F420DA6EDF500AE161510E0D4D0EF324ED
:10362800D96E010EF420DA6EDF5001E0602B612BB9
:10363800040E6165DDD7605112009D90096A0A6A1F
:10364800066ACECF07F0CFCF08F0072808E1082890
:1036580006E1062A0604056E020E0564F2D79EA04E
:1036680004D0092A582801E10A2A585009260001DD
:10367800EE510A269D8007C001F008C002F009C07B
:1036880003F00AC004F01200656B666B62516311A7
:103698001BE0010E646F04D0D89062376337642B47
:1036A80063AFFAD7D890653766376251605D63516A
:1036B800615905E36251605F6351615B6581D89030
:1036C80063336233642FEED765C060F066C061F083
:1036D8001200000EF2BE010E656FF29E8D90030E71
:1036E80037EC1EF00001635137EC1EF00BD0B3EC41
:1036F8001EF061C0D9FF62C0DAFFDF6E0001614BC6
:10370800622B640700016451F2E18D8065B102D03B
:10371800F29E01D0F28E1200530E9512A49E736A87
:10372800F00E746E280E726E716AA38EF28EF28C91
:10373800010E0001616F2C0E606F26EC13F07C0EF9
:10374800436E810E446E456A606B030E67EC1EF093
:103758000001616BC80E606F26EF13F028EC1EF0B5
:10376800B50E6C6F010E6D6F8FC06EF090C06FF06C
:1037780091C070F0716BD8EC01F05CEC1EF00001A8
:103788009251D8B41200936B616BFA0E606F26ECFD
:1037980013F0932B070E9365F7D7070C906F28EC5F
:1037A8001EF0B50E6C6F010E6D6F9D0E6E6FFF0EE5
:1037B8006F6F90C070F0716BD8EC01F0C50E6C6F34
:1037C800010E6D6F8C0E6E6FFF0E6F6F8FC070F0F5
:1037D800716BD8EC01F05CEF1EF069516A1117E0CB
:1037E800010E6B6F04D0D89069376A376B2B6AAFBC
:1037F800FAD76951675D6A51685904E36951675F8F
:103808006A51685BD8906A3369336B2FF2D767C007
:1038180067F068C068F012006F6F15D0D3EC1AF02B
:1038280060C047F061C048F062C049F063C04AF028
:10383800D3EC1AF060C04BF061C04CF062C04DF0A0
:1038480063C04EF0120000016F51E8E0010AD8A4ED
:10385800030A120000016B6F030E6B6501D0030CA5
:103868006BC0FEF0FEC06AF06A3BF00E6A17DE51CC
:103878000F0B6A11DE6FFE0E616F626BEFC063F0B3
:10388800F0C064F0666B010E656FA5EF15F00001DE
:10389800626F62C061F062390F0B626FD60E6225EB
:1038A800D96EDA6A010EDA22DF50A8EC1EF00001A8
:1038B80061510F0B626FD60E6225D96EDA6A010E5E
:1038C800DA22DF50A8EF1EF0966F000196510E0D18
:1038D800530EF324D96E010EF420DA6E0101DFAE27
:1038E800000C000196510E0D4B0EF324916F010E42
:1038F800F420926F010E936F95C094F07CEF1EF048
:10390800E46B8D0EE425D96EDA6A010EDA227A0E9E
:10391800DF6EE42B4B0E876F010E886F010E896FE7
:10392800000E8A6BBCEC14F0916F9151D8A4120070
:10393800010EEC6F010C656F0001676B645114E0B8
:10394800010E666F03D0D8906437662B64AFFBD73F
:10395800D89067376451655D03E36451655F67819B
:10396800D8906433662FF4D7675112006A6F00014C
:10397800656B6A51D0EC16F0000910E06AC0FAF0E5
:10398800FA0E0001616F626BF3C063F0F4C064F07B
:10399800666B010E656FA5EC15F0010C000C0001BB
:1039A800616F000EF0BA010E636FF09A8D92618D0F
:1039B800615137EC1EF0B3EC1EF00001626F8D828E
:1039C80063B102D0F09A01D0F08A0001625112006E
:1039D80060514F24636F61515020646F6305800EFE
:1039E800645901E3000C6251D96EDA6A4FC0DEFFF8
:1039F80050C0DDFF60514F2661515022010C666BAB
:103A080066516225D96E000E6321DA6E6651602513
:103A1800E16E000E6121E26EDE50E61801E0000C56
:103A2800662B070E6665ECD7010C026E000EF0BA25
:103A3800010E046EF09A8D92028C025050EC1EF02A
:103A4800B8EC1EF0036E8D8204B002D0F09A01D05B
:103A5800F08A03501200000EF0BA010E636FF09A5C
:103A68008D92625137EC1EF00001615137EC1EF067
:103A78008D82000163B102D0F09A01D0F08A120061
:103A8800E46B8D0EE425D96EDA6A010EDA22DA0EBD
:103A9800DF6EE42B91C087F092C088F0010E896F29
:103AA800000E8A6BBCEF14F0616F080E0001626FA4
:103AB800636BD89061356335636FD8906137605117
:103AC800635D02E36051635F622FF3D763511200B5
:103AD800616F000EF0BA010E0001626FF09A8B94CC
:103AE800615137EC1EF08B84000162B102D0F09A6C
:103AF80001D0F08A120060516203F3CF64F0F4CF72
:103B080065F060516303F350652761516203F35018
:103B1800652764C060F065C061F01200000EF0BA5D
:103B2800010E046EF09A8D92035050EC1EF0025074
:103B380050EC1EF08D8204B002D0F09A01D0F08AC9
:103B4800120000016B6F5D0E616FFE0E626FC8ECB4
:103B58001DF06B5160EC18F0480E0001616FFC0E0F
:103B6800626FC8EF1DF0E0EC17F090EC1EF099ECD6
:103B78001EF059EC14F09FEC17F0CC6FCC513EECD2
:103B880016F0C0EC1EF0FDD703D06351A8EC1EF070
:103B980061C0F6FF62C0F7FF0001614B622B0800AD
:103BA800F5CF63F06351F1E11200026E000EF0BA36
:103BB800010E036EF09A8B94025050EC1EF08B8429
:103BC80003B002D0F09A01D0F08A1200946F00017D
:103BD800945104E04C0E8F6FFD0E03D0960E8F6F3C
:103BE800FC0E906F916B926BB2EF1BF0020E00010E
:103BF800E261020CE2513E0D3C0EF324D96E020E36
:103C0800F420DA6E000EDF6AE2691200100E616FAE
:103C1800FF0E626FC8EC1DF0AE0E8F6FFF0E906F37
:103C2800916B010E926FB2EF1BF0626F0001616B36
:103C38003A0E626105D02F0E626502D0010E616FE7
:103C480061C060F0603112000001606BB50E602544
:103C5800D96EDA6A010EDA22200EDF6E602B1F0E93
:103C68006065F4D71F0C0001606F9E96C950C69E10
:103C780060C0C9FFC6BEFBD79EA6FED79E9612009F
:103C8800303132333435363738394142434445468A
:103C9800FF11223344556611016E9E96C950C69E87
:103CA80001C0C9FFC6BEFBD79EA6FED79E961200CE
:103CB8007C0E436E320E446E456A200E466E606F6F
:103CC800040E67EF1EF0616F71B4FED7526A566A30
:103CD80061C051F060C055F071801200916F000111
:103CE800876B886B896B91C08AF0010EBCEF14F06A
:103CF80091C087F092C088F0000E896B94C08AF05A
:103D0800BCEF14F0A4AE1200A49E5DEC17F0026A9A
:103D1800050E016E8EEF13F09584949C240EA86E08
:103D2800900E9C6E190EAB6E190C380ECD6E9E90CF
:103D38009D80CD80586AEE6B1200926F91C08FF013
:103D480000019251D2EF1BF0606FA8A2FED760C0AD
:103D5800A9FF120065EC05F0DFB7010C000C000E9E
:103D680037EC1EF0C9501200000E50EC1EF0C9507E
:103D78001200DF97FAEF1DF0DBEF08F000F01200F9
:063D88000103120012000D
:10F97E000020B2202020B22020B220B22020202051
:10F98E0020B220B20D0AB220B220B220B220202026
:10F99E00B22020B22020B220200D0AB22020B220A8
:10F9AE0020B220B220B22020B22020B220B20D0A06
:10F9BE00B22020B22020B220B22020B220B220B23B
:10F9CE002020B20D0AB22020B22020B220B2202078
:10F9DE0020B220B2202020B20D0A2020202020208C
:10F9EE00202020202020202020202020200D0A2E24
:10F9FE00008402090409060C08C10A770C640E3251
:10FA0E00100012001400163818C81A0D1C001E72B1
:10FA1E00203822382407260028002A692C812E7EC1
:10FA2E00309632F83488364038003AE83C003E547E
:10FA3E005454545454545454545454545455555575
:10FA4E005555555555555555555555555555552D80
:10FA5E00303335383B3E414346494C4F51090C0F2C
:10FA6E001215171A1D202325282B2E313336390156
:10FA7E00000800400000020010008001000A00642F
:10FA8E0000E803102701001000000100100D0A20ED
:10FA9E002020202020202020202020202020202058
:10FAAE00202020203220746F20756E69636173747C
:10FABE0020656E63727970746564206D6573736111
:10FACE0067652E204C454420322077696C6C000D02
:10FADE000A2020202020202020202020202020202E
:10FAEE00202020202020427574746F6E20312074E7
:10FAFE006F2062726F616463617374206D657373DE
:10FB0E006167652E205075736820427574746F6E30
:10FB1E00000D0A2020202020202020202020202020
:10FB2E002020202020202020506F776572206F6EBD
:10FB3E002074686520626F61726420756E74696CE2
:10FB4E00204C45442031206C6967687473207570B1
:10FB5E00000D0A20202020202020202020202020E0
:10FB6E002020202020202020746F20696E6469637D
:10FB7E0061746520636F6E6E656374696E6720775E
:10FB8E0069746820706565722E2050757368000D5B
:10FB9E000A5374617274696E67204E6F646520310A
:10FBAE00206F662053696D706C652044656D6F2003
:10FBBE00666F72204D69576928544D292053544160
:10FBCE005220537461636B202E2E2E000D0A2020BE
:10FBDE002020202020202020202020202020202017
:10FBEE00202020626520746F67676C6564207570D5
:10FBFE006F6E20726563656976696E67206D6573D9
:10FC0E0073616765732E20000D0A0D0A436F6E6EC9
:10FC1E00656374696F6E2020202020506565724CDC
:10FC2E006F6E6741646472657373202020202050CC
:10FC3E00656572496E666F0D0A00206973206E6FDE
:10FC4E007420737570706F7274656420696E2063B2
:10FC5E00757272656E7420636F6E66696775726118
:10FC6E0074696F6E2E0D0A00436F6E6E6563746954
:10FC7E006E67205065657220206F6E204368616E3E
:10FC8E006E656C2025642000524230203A20556E5D
:10FC9E006963617374202020524232203A204E65EF
:10FCAE007874204E6F6465000D0A202020202052AB
:10FCBE0046205472616E736365697665723A204DA3
:10FCCE005246383958410020436F6E6E6563746535
:10FCDE0064205065657220206F6E204368616E6EE1
:10FCEE00656C202564000D0A436F6E6E6563746942
:10FCFE006E672050656572206F6E204368616E6E70
:10FD0E00656C20000D0A436F6E6E6563746564202A
:10FD1E0050656572206F6E204368616E6E656C2053
:10FD2E000053696D706C6520535441522020202081
:10FD3E00204D524638395841204E6F64650050436D
:10FD4E00203A524230206F72205242322020746F7D
:10FD5E002042726F616463617374005242303A20C4
:10FD6E0042726F61646361737420205242323A2092
:10FD7E00556E69636173740042726F61646361737F
:10FD8E0074205061636B65742077697468205253D8
:10FD9E00534920005242303A4E6577204E657477B3
:10FDAE006F726B205242323A467265657A65720006
:10FDBE000D0A202020202020202020202042757493
:10FDCE00746F6E20313A20524230000D0A202020EE
:10FDDE0020202020202020202020204C454420318F
:10FDEE003A20524132000D0A2020202020202020CF
:10FDFE00202020427574746F6E20323A20524232A7
:10FE0E00000D0A202020202020202020202020202D
:10FE1E00204C454420323A2052413300556E6963DE
:10FE2E00617374205061636B657420776974682008
:10FE3E005253534920005242303A253032642D2518
:10FE4E0030327825303278253032782D6D65000DC0
:10FE5E000A53656C656374696F6E206F6620636804
:10FE6E00616E6E656C20000D0A4F7574707574208E
:10FE7E00436F6E66696775726174696F6E3A000DD5
:10FE8E000A496E70757420436F6E6669677572618C
:10FE9E0074696F6E3A000D0A20202044656D6F2044
:10FEAE00496E737472756374696F6E3A00524230A4
:10FEBE003A253032642D253032782530327825308F
:10FECE0032780020416464726573733A253032785B
:10FEDE00253032782530327800526573746F72692E
:10FEEE006E67204E6574776F726B2021210044611E
:10FEFE0074615F53656E64696E675F4661696C21FC
:10FF0E0021000D0A556E6963617374204661696C38
:10FF1E0065640D0A000D0A0D0A4D79204164647264
:10FF2E006573733A20307800454E445F4445564918
:10FF3E00434553203A253032640030313233343564
:10FF4E003637383941424344454600303132333436
:10FF5E003536373839616263646566005242323A2B
:10FF6E00204368616E6765206E6F6465004461743E
:10FF7E0061205061636B65742066726F6D0052581C
:10FF8E00204D657373616765733A202533640054A1
:10FF9E0058204D657373616765733A20253364008D
:10FFAE0020556E6963617374204661696C656400E7
:10FFBE002020202020202020202020202000202053
:10FFCE004368616E6E656C3A2000204368616E6E08
:10FFDE00656C3A0053656375726564200020667225
:0AFFEE006F6D20000D0A0D0A0000DF
:08FFF800ACF6D8FFFFF9FFF1A0
:00000001FF
