:040000002AEF00F0F3
:0E0008004F82E1CF29F0E2CF2AF0CDEF05F0D4
:100018004F80D8CF66F0E8CF67F0E0CF68F0F2B253
:10002800F2A801D0F292600E0001DB1907E1280E58
:10003800B3EC12F0656FD8906531446E68C0E0FF8C
:1000480067C0E8FF66C0D8FF4F90100088EF10F037
:10005800790E8F6F78D3250E951909E075C0D9FFF1
:1000680076C0DAFF95C0DFFF754B762B6CD3936BA8
:10007800946B966B976B09D0968705D0968103D0C1
:10008800978701D09685774B782B77C0F6FF78C095
:10009800F7FF0800F550200AF1E0030AF1E00E0A24
:1000A800EBE01D0AEFE096B7969577C0F6FF78C0AB
:1000B800F7FF0800F55007EC15F02EE3936B946BEF
:1000C80093C069F094C06AF06C6B0A0E6B6FC3EC56
:1000D80014F069C093F06AC094F0D00E816F826901
:1000E80077C0F6FF78C0F7FF0800F550836F846B80
:1000F80081518327825184238351932784519423E8
:10010800774B782B77C0F6FF78C0F7FF0800F550DB
:1001180007EC15F014E3D4D777C0F6FF78C0F7FFE3
:100128000800F5502A0A0BE18F51D96EDA6ADECF42
:1001380093F0DDCF94F0020E8F27774B782B77C0A2
:10014800F6FF78C0F7FF0800F5502E0A30E1978DCA
:10015800774B782B77C0F6FF78C0F7FF0800F5508B
:100168002A0A0AE18F51D96EDA6ADF50926F020EBD
:100178008F27774B782B8AD0926B0FD077C0F6FFFA
:1001880078C0F7FF0800F5CF81F092510A0DF350BF
:100198008125D00F926F774B782B77C0F6FF78C008
:1001A800F7FF0800F55007EC15F070E3E7D7926BFE
:1001B8006DD0968D88D0968B968F85D092510FE012
:1001C80092C081F0826B81BF82078D51815D8E5113
:1001D800825905E292518D6F8E6B8DBF8E079351B8
:1001E8008D5D94518E5905E28D51935F8E51945BCC
:1001F80002D0936B946B96B71DD008D075C0D9FF09
:1002080076C0DAFF200EDF6E754B762B9307D8A0E9
:1002180094079329F3E194290DE0F0D78C51D96E16
:10022800DA6A75C0E1FF76C0E2FFDFCFE7FF8C2B0B
:10023800754B762B8D07D8A08E078D29EFE18E2977
:10024800EDE196A780D208D075C0D9FF76C0DAFF55
:10025800200EDF6E754B762B9307D8A09407932951
:10026800F3E1942901E16FD2EFD78F51D96EDA6AA1
:10027800DF50956F020E8F27950E8C6F000E8E6FD4
:10028800010E8D6F9BD7C00E96131DD077C0F6FF59
:1002980078C0F7FF774B782B0800F5CF95F095518C
:1002A80001E15DD2580A87E03B0ADFE0070A0BE06C
:1002B8000D0A09E0060A01E17CD71A0AE4E00D0AF2
:1002C80001E17AD7D9D796C081F0C00E811712E123
:1002D8008F51D96EDA6ADECF90F0DDCF91F0020E41
:1002E8008F2791AF10D0030E9613906D911FD8B041
:1002F800912B09D08F51D96EDA6ADECF90F0DDCF1D
:1003080091F0020E8F27925147E19051911144E1EB
:10031800922B42D0010E956F050E951946E0955126
:10032800020DFB0EF324F66EFD0EF420F76E0900A5
:10033800F550905D0900F550915937E3952BECD7AE
:10034800010E956F040E951930E09551020D050EBA
:10035800F324F66EFE0EF420F76E0900F550905D5A
:100368000900F550915921E3952BECD7010E956FB3
:10037800060E95191AE09551020DEF0EF324F66E4C
:10038800FD0EF420F76E0900F550905D0900F55058
:1003980091590BE3952BECD79651C00BBBE0400A63
:1003A800E5E0C00ACDE0400AB5E09551800A816FCA
:1003B8009251800A815D03E292C095F009D0925172
:1003C800800A816F9551800A815D02E295C092F0A2
:1003D8009351941108E096C081F0030E811703E051
:1003E8009307D8A0940797AD13D0800E92BF7F0EC5
:1003F800816F9351925D9451800A815907E292511D
:10040800935F000E92BFFF0E945B02D0936B946BC8
:10041800C40E816F080E826F96C083F097C084F077
:100428008151831782518417400E83190AE1080EFF
:10043800841907E19351941124E09307D8A09407F5
:1004480020D0C00E816F080E826F96C083F097C0CF
:1004580084F08151831782518417800E831911E12A
:10046800080E84190EE194BF0AD0945103E1030EDB
:10047800935D05E3FE0E9327FF0E942302D0936B42
:10048800946B800E95BF7F0E816F9351955D94514B
:10049800800A815907E29551935F000E95BFFF0EC0
:1004A800945B02D0936B946B96A54FD096C081F065
:1004B800030E811709E075C0D9FF76C0DAFF2D0E4B
:1004C800DF6E754B762B31D096A106D075C0D9FF5B
:1004D80076C0DAFF200EF4D7C00E816F080E826F47
:1004E80096C083F097C084F0815183178251841796
:1004F800800E83191AE1080E841917E175C0D9FF17
:1005080076C0DAFF300EDF6E754B762B96BB03D0C4
:10051800876B780E02D0876B580E866F75C0D9FF2F
:1005280076C0DAFF86C0DFFFCCD79351941101E182
:10053800F2D075C0D9FF76C0DAFF300EDF6E754B8A
:10054800762B9307D8A09407F0D79351941110E015
:1005580096B70ED075C0D9FF76C0DAFF200EDF6ED1
:10056800754B762B9307D8A0940793519411F2E119
:1005780096C081F0030E811709E075C0D9FF76C0D7
:10058800DAFF2D0EDF6E754B762B08D096A106D0BC
:1005980075C0D9FF76C0DAFF200EF4D7C00E816F80
:1005A800080E826F96C083F097C084F0815183173C
:1005B80082518417400E83190CE1080E841909E151
:1005C80075C0D9FF76C0DAFF300EDF6E754B762B1B
:1005D800A2D0C00E816F080E826F96C083F097C0BC
:1005E80084F08151831782518417800E83191BE18F
:1005F800080E841901E08FD075C0D9FF76C0DAFFE4
:10060800300EDF6E754B762B96BB03D0896B780E58
:1006180002D0896B580E886F75C0D9FF76C0DAFF93
:1006280088C0DFFFD3D777D09251020DFB0EF32499
:10063800F66EFD0EF420F76E0900F5CF6BF00A0098
:10064800F5CF6CF090C069F091C06AF06AEC12F0D6
:1006580069C070F06AC071F0736B0A0E726F55EC66
:1006680013F0705145D090C069F091C06AF0925172
:10067800020D050EF324F66EFE0EF420F76E090047
:10068800F5CF6BF00A00F5CF6CF06AEC12F0695107
:100698000F0B856F96BB04D0710E8A6FFF0E03D0C7
:1006A800600E8A6FFF0E8B6F85518A25816F000E51
:1006B8008B21826F81C0F6FF82C0F7FF0800F5CF5B
:1006C80095F022D090C069F091C06AF09251020D65
:1006D800EF0EF324F66EFD0EF420F76E0900F5CF49
:1006E8006BF00A00F5CF6CF06AEC12F06951070B59
:1006F800300F956F09D09651C00B96E0400AE2E0A2
:10070800C00AB1E0400A90E075C0D9FF76C0DAFFB0
:1007180095C0DFFF5BD792079229EDE196B794BFAA
:1007280012D0945102E193050EE375C0D9FF76C04B
:10073800DAFF200EDF6E754B762B9307D8A094074F
:1007480093519411F2E177C0F6FF78C0F7FF774B29
:10075800782B0800F5CF95F0955101E07CD475C051
:10076800D9FF76C0DAFFDF6A000C0001D9A32AD0CE
:100778001CEC12F069C0A4F06AC0A5F06BC0A6F02A
:100788006CC0A7F04050A45DA06F4150A559A16F5F
:100798004250A659A26F4350A759A36FA35107E12E
:1007A800210EA05DA10EA159070EA2590BE3D99302
:1007B800000E6A6F020E6B6F040E6C6F640E6D6F25
:1007C80081EC0FF00001D9B7120084EC09F00009A0
:1007D800D8B41200BE6BC8A503D0A06BA02B02D062
:1007E8000001A06BBE51A019FC0BA019BE6FC8A7D1
:1007F80002D0BE8702D00001BE97C851030BE8069D
:1008080003E1A06BA02B02D00001A06BA03BA04786
:10081800BE51A019DF0BA019BE6FC8AF02D0BE8DA4
:1008280002D00001BE9DC8AF04D0C9C0C1F0CAC083
:10083800C2F0CDC0C5F0CBC0C3F0CCC0C4F0CFC0AF
:10084800C7F0CEC0C6F0BEAB9BD186D120EE01F07A
:10085800C351D926C451DA22F351DE1803E0E8EC7B
:1008680014F08FD1030EF619FAE045EC0AF0A86FE0
:10087800F60507E1A80505E0020EA81902E0F30E47
:10088800A86FDF6BD90EDF25D96EDA6A010EDA227E
:10089800910EDF6EDF2BD90EDF25D96EDA6A010ED5
:1008A800DA22A8C0DFFFDF2BD90EDF25D96EDA6A7E
:1008B800010EDA22D7C0DFFFDF2BA85102E0A8051E
:1008C8001AE1D90EDF25D96EDA6A010EDA22D8C00C
:1008D800DFFFDF2BA96BA951F40FD96EDA6AD90EA5
:1008E800DF25E16EE26A010EE222DFCFE7FFDF2BB0
:1008F800A92BA951F0E0E8EC14F0C1C096F0C2C0F1
:1009080097F0010E986F000EBEB7010E996F000E9A
:10091800A1EC0EF0A851A3E1D5510A0D000EF32465
:100928006A6F020EF4206B6FD5510A0DF350040F55
:100938006C6F0A0E6D6F81EC0FF023D1020EF66515
:1009480001D08DD720EE01F0C351D926C451DA2247
:10095800F351DE1884E1DF6BD90EDF25D96EDA6A30
:10096800010EDA22970EDF6EDF2BD90EDF25D96E46
:10097800DA6A010EDA22D8C0DFFFDF2BA96BA95192
:10098800F40FD96EDA6AD90EDF25E16EE26A010E3C
:10099800E222DFCFE7FFDF2BA92BA951F0E0E8EC3B
:1009A80014F0C1C096F0C2C097F0010E986F000E07
:1009B800BEB7010E996F000EA1EC0EF0E2D0DF6B0E
:1009C800D90EDF25D96EDA6A010EDA22920EDF6EB1
:1009D800DF2BA96BA9510A0D080EF324D96E020E5C
:1009E800F420DA6EDFAE35D0C1C069F0C2C06AF05B
:1009F8000001A9510A0D000EF3246B6F020EF420BA
:100A08006C6F46EC14F0000924E0A9510A0D080E99
:100A1800F324D96E020EF420DA6EDF6AA9510A0DAA
:100A2800000EF3246A6F020EF4206B6FA9510A0DB1
:100A3800F350040F6C6F0A0E6D6F81EC0FF0D90E36
:100A48000001DF25D96EDA6A010EDA22DF6ADF2BB0
:100A580005D00001A92B090EA965BCD7E8EC14F054
:100A68000A0EA91909E1D90EDF25D96EDA6A010E35
:100A7800DA22F00EDF6EDF2BC1C096F0C2C097F00D
:100A8800010E986F000EBEB7010E996F000EA1EC13
:100A98000EF077D045EC0AF0D9831CEC12F069C04F
:100AA80040F06AC041F06BC042F06CC043F0D7D64A
:100AB80020EE01F0C351D926C451DA22DF50EAE012
:100AC800010AE8E0CCD6D9BBD99BC9D620EE01F003
:100AD800C351D926C451DA22DF5001E0C0D6A96B30
:100AE800A9510A0D080EF324D96E020EF420DA6E0D
:100AF800DFAE2CD0C1C069F0C2C06AF00001A951B4
:100B08000A0D000EF3246B6F020EF4206C6F46EC96
:100B180014F000091BE0A9510A0D080EF324D96E40
:100B2800020EF420DA6EDF6AA9510A0D000EF324D2
:100B38006A6F020EF4206B6FA9510A0DF350040F6F
:100B48006C6F0A0E6D6F81EC0FF089D60001A92B2E
:100B5800090EA965C5D783D6C3C0D9FFC4C0DAFFBB
:100B6800DF50810A01E172D6030A01E128D7050A9C
:100B780001E1E4D6160A9CE0030AA8E0050AA3E00E
:100B8800D9870001C55102E0D9AB1200D997E8EF27
:100B980014F0D9CF2BF0DACF2CF0F3CF2DF0F4CF1F
:100BA8002EF0F0B0F0A6A0D1600E0001DB1901E034
:100BB80097D144C0DCF0899ABBEC15F0396E898A6C
:100BC8003A6A3A50340D500EF324D96E010EF420CF
:100BD800DA6E0101DFA004D03A2A010E3A64F1D797
:100BE800020E391803E1010E366E01D0366A320E54
:100BF800396007D0395005E0010E3A6411D03650FB
:100C08000FE11A0EF7EC12F007D0899ABBEC15F039
:100C1800898A1A0EF7EC12F0316E31B2F6D762D12A
:100C2800376A39C02FF0306A57D12F06D8A030065E
:100C3800365008E0899A3750320FD96EDA6ABBEC21
:100C480015F016D0899A3A50340D500E256E010EC3
:100C5800266E252A000E2622F3502526F450262239
:100C680037502524D96E000E2620DA6EBBEC15F01D
:100C7800DF6E372A898A3950375C01E22DD1365028
:100C880024E03250030B020A08E14550331801E012
:100C980029D1010E0001E36F25D1010E3A6401D07C
:100CA800B0D73A50340D510EF324D96E010EF4200A
:100CB800DA6E32C0DFFF3A50340D520EF324D96E8B
:100CC800010EF420DA6E33C0DFFF3A50340D830E84
:100CD800F324D96E010EF420DA6E39C0DFFF3868CC
:100CE8003A50340D510EF324D96E010EF420DA6E09
:100CF800DFAC31D03B6A26D0D1513B24D96EDA6AB9
:100D08003A50340D500E266E010E276E030E26261D
:100D1800000E2722F3502626F45027223B50262483
:100D2800E16E000E2720E26EDE50E6180AE03A5027
:100D3800340D830EF324D96E010EF420DA6EDF6AC7
:100D480060D73B2A0001D031E832E8320F0B256E1C
:100D580025503B5CD1E33A50340D510EF324D96E43
:100D6800010EF420DA6E0101DFAA34D03B6A000ECE
:100D78003B24D96EDA6A010EDA223B50320FE16E5B
:100D8800E26ADFCFE7FF3B2A010E3B64F0D7060E8D
:100D98000101006F3A50340D520EF324D96E010E42
:100DA800F420DA6EDF50016FF090116A020E13EC36
:100DB8000CF03B6A3B50320FD96EDA6A000E3B24C6
:100DC800E16EE26A010EE222DFCFE7FF3B2A010E65
:100DD8003B64F0D73B6A3B50060D320EF324D96EC4
:100DE800010EF420DA6EDF5026E03A50340D520E30
:100DF800F324D96E010EF420DA6E3B50060D330E43
:100E0800F324E16E010EF420E26EDE50E61813E1E1
:100E180043EC12F03B50060D340EF324D96E010E4C
:100E2800F420DA6E01C0DEFF02C0DEFF03C0DEFF81
:100E380004C0DEFF12D038280CE13B50060D320EFC
:100E4800F324D96E010EF420DA6EDF5002E13BC0C4
:100E580038F03B2A040E3B64BED7040E3B6442D0F4
:100E6800050E38602ED03850060D320EF324D96E98
:100E7800010EF420DA6E010EDF6E3A50340D520E78
:100E8800F324D96E010EF420DA6E3850060D330EB5
:100E9800F324E16E010EF420E26EDFCFE7FF43ECAE
:100EA80012F03850060D340EF324D96E010EF420DA
:100EB800DA6E01C0DEFF02C0DEFF03C0DEFF04C041
:100EC800DEFF3A50340D500EF324D96E010EF42093
:100ED800DA6E0101DF8006D02F50301003E0A5D66E
:100EE800010ED46FF09000F0F2B2F2A80CD0F2929A
:100EF800600E0001DB1907E1280EF7EC12F0256EF1
:100F0800D8902530446E9EB09DA006D09E90462A6B
:100F1800465002E10001E52BCEEC15F02EC0F4FF9F
:100F28002DC0F3FF2CC0DAFF2BC0D9FF2AC0E2FF87
:100F380029C0E1FF4F92110001EC11F030EC14F0E0
:100F4800000901E01200C5EC0FF00201646F0CD13A
:100F58000001DF6BE46B060E696FE1519BEC14F046
:100F6800150DAF0E0101F76FFC0EF86FF350F72760
:100F7800F450F8230001E4510101F727000EF8238B
:100F8800F7C1F6FFF8C1F7FFD90E0001DF25D96ECA
:100F9800DA6A010EDA220800F5CFDFFFDF2BE42B37
:100FA800140EE465D8D7E12B000E60EC15F0DEC016
:100FB8009AF0E02BE051A0EC15F0030E6A6FE80EF2
:100FC800696F7DEC0DF074EF15F0010E0001F56FFF
:100FD8000201676B010E656FC2D0AFEC14F0AFEC85
:100FE80014F0B80E756F010E766F220E776FFF0E34
:100FF800786F67C279F07A6B020167510A0D000EAB
:10100800F324D96E020EF420DA6EDF5000017B6FF4
:101018007C6B020167510A0D010EF324D96E020E92
:10102800F420DA6EDF5000017D6F7E6B020167519C
:101038000A0D020EF324D96E020EF420DA6EDF5088
:1010480000017F6F806B2CEC00F0C80E756F010EED
:10105800766FA40E776FFF0E786F2CEC00F048ECDB
:1010680010F048EC10F0010EF56F76D0C5EC0FF0DB
:101078000201666F30EC14F0020166054AE1656B07
:101088000001F56BE22BDF6BE46B060E696FE25132
:101098009BEC14F00B0D2D0E0101F76FFD0EF86F90
:1010A800F350F727F450F8230001E4510101F72722
:1010B800000EF823F7C1F6FFF8C1F7FFD90E0001BB
:1010C800DF25D96EDA6A010EDA220800F5CFDFFFD4
:1010D800DF2BE42B0A0EE465D8D7E22B010EA46FB0
:1010E80002016751AFEC13F0000903E16AEC15F057
:1010F80002D00001E02BDEC09AF0E051A0EC15F020
:10110800030E6A6FE80E696F7DEC0DF074EC15F054
:1011180026D0020E661920E167510101F76FF86BBE
:10112800FE0EF96FFA690001F2510101FB6FFC6BC9
:10113800F951FB27FA51FC23F751FB5DFC51800A5A
:10114800FD6FF851800AFD5903E20201676B02D076
:101158000201672B0001F56B0001F55187E10201DF
:10116800650501E13AD712006451010A01E1F0D6A0
:10117800030A01E12AD712007B6F00017E6B7E51C2
:101188004E087A6F7AC06AF06B6B7E51FA0F6C6FFB
:10119800010E6D6F00EC14F07E2B020E7E65EFD70A
:1011A8004B68FE0E4A6E7E6B7E5149087A6F7AC094
:1011B8006AF06B6B7E51FD0F6C6F010E6D6F00EC6A
:1011C80014F07E2B020E7E65EFD7E7EC11F0D96B99
:1011D8007B5129E17E6B7E510A0D080EF324D96EEE
:1011E800020EF420DA6EDF6A7E510A0D000EF32437
:1011F800D96E020EF420DA6EDF6A7E510A0D010EF6
:10120800F324D96E020EF420DA6EDF6A7E510A0DDD
:10121800020EF324D96E020EF420DA6EDF6A7E2BFA
:10122800090E7E65D8D798EC15F0DF6B7B512AE064
:10123800F30E6A6F6B6B020E6C6F010E6D6F00EC34
:1012480014F01F0EF36501D01F0CF60E6A6F6B6B5E
:10125800030E6C6F010E6D6F00EC14F0000E6A6FD8
:10126800020E6B6F040E6C6F640E6D6F00EC14F061
:10127800F20E6A6F6B6BBA0E6C6F010E6D6F00EC3D
:1012880014F01ED0F30E6A6F6B6B020E6C6F010EBA
:101298006D6F81EC0FF0F60E00016A6F6B6B030E39
:1012A8006C6F010E6D6F81EC0FF0000E00016A6F1C
:1012B800020E6B6F040E6C6F640E6D6F81EC0FF095
:1012C800470E00017D6F7C837C51870B40097C6F42
:1012D8007BB102D07C9502D000017C857C917CC0DA
:1012E80077F07DC078F0F0EC0EF0F3515CEC14F080
:1012F8000001D86BD881F639F00BD813F0861200AC
:10130800806B1CEC12F069C07BF06AC07CF06BC08B
:101318007DF06CC07EF08051060D320EF324D96E3C
:10132800010EF420DA6EDF503FE08051060D340ED6
:10133800F324D96E010EF420DA6E7B51DE5C7C5109
:10134800DE587D51DE587E51DE582EE28051060D62
:10135800340EF324D96E010EF420DA6EDECF73F06A
:10136800DECF74F0DECF75F0DECF76F073517B5DA3
:10137800776F74517C59786F75517D59796F7651B3
:101388007E597A6F7A5107E1210E775DA10E78595F
:10139800070E795909E38051060D320EF324D96EF0
:1013A800010EF420DA6EDF6A802B040E8065A9D75F
:1013B800DD2901E0000C806B8051340D500EF324C0
:1013C800D96E010EF420DA6EDFA055D000018051ED
:1013D800340D510EF324D96E010EF420DA6EDF506D
:1013E800C86F8051340D830EF324D96E010EF4209A
:1013F800DA6EDF50CD6F020E7F6FC8AD05D0D031E9
:10140800E832E8320F0B7F27C8AF19D08051340D6E
:10141800500E736F010E746F732B000E7423F3500C
:101428007327F45074237F517325C96F000E7421FC
:10143800CA6FD031E832E8320F0B7F2702D0C96B70
:10144800CA6B7F51CD5F8051340D500E736F010E02
:10145800746F732B000E7423F3507327F4507423A6
:101468007F517325CB6F000E7421CC6FDCC0CEF09A
:1014780080C0DDF0010C0001802B010E80659CD737
:10148800000C0001756B7669776B77510A0D080EB1
:10149800F324D96E020EF420DA6EDFAE16D0C1C086
:1014A80069F0C2C06AF0000177510A0D000EF324FA
:1014B8006B6F020EF4206C6F46EC14F000090AE022
:1014C80077C076F0010E756F09D00001762902E128
:1014D80077C076F0772B090E7765D7D7762901E1A3
:1014E800F10CF65103E000017551120076C0D7F0F7
:1014F800776B7751C125D96E000EC221DA6E76510D
:101508000A0D000E716F020E726FF3507127F450BE
:10151800722377517125E16E000E7221E26EDFCFE2
:10152800E7FF772B070E7765E4D776510A0D080E8B
:10153800F324D96E020EF420DA6EDF8E000120EE5D
:1015480002F0C351D926C451DA22DF50716F010E5F
:10155800711776510A0D080EF324D96E020EF42085
:10156800DA6EDF507119FE0B7119DF6E776B7751E8
:10157800C325716F000EC421726F030E7125D96ED9
:10158800000E7221DA6E76510A0D000E736F020E8C
:10159800746F090E7327000E7423F3507327F450E9
:1015A800742377517325E16E000E7421E26EDFCF4C
:1015B800E7FF772B7751DBE076C0D5F0D99971EC4E
:1015C80014F0F26FF20E6A6F6B6BBA0E6C6F010E4D
:1015D8006D6F81EC0FF087D78B6F030E0001876F5B
:1015E80087D0886BE36B866B795118E0280E8FECF7
:1015F80012F0896FD8908933410E89650FD0862BF8
:1016080086057A6F040E7A6501D0000C010E696FA9
:101618006A6B6B6B6C6B14EC0DF0E8D7F298F09674
:10162800200E3CEC11F01A0E6B6FC90E6A6FD7ECE6
:1016380012F000018B5174EC13F000018C6B0BD08D
:10164800000E8C25D96EDA6A010EDA22DF5074ECAE
:1016580013F000018C2B8B518C5DF2E3800E3CEC77
:1016680011F0F288F086D45102E1F0A0FCD7D46BD7
:10167800200E3CEC11F0600E3CEC11F0010100ABC7
:101688000ED001C145F01CEC12F069C07EF06AC0B2
:101698007FF06BC080F06CC081F0E35104E0010E74
:1016A80000018A6F2AD01CEC12F069C082F06AC06F
:1016B80083F06BC084F06CC085F07E51825D7A6FD8
:1016C8007F5183597B6F805184597C6F8151855933
:1016D8007D6F7D517C1105E1A90E7A5D610E7B5904
:1016E800DCE3882B88057A6F040E7A6101D07AD7FB
:1016F8008707872901E075D78A6B8A511200F6C0DF
:10170800AFF0030EB06FB56B1CEC12F0AA0501E147
:10171800FF0C1CEC12F069C0B1F06AC0B2F06BC0EB
:10172800B3F06CC0B4F0200EB15FA10EB25B070E2F
:10173800B35B000EB45BF66BD9896BD01CEC12F06E
:1017480069C0B6F06AC0B7F06BC0B8F06CC0B9F049
:10175800B151B65DAB6FB251B759AC6FB351B8590F
:10176800AD6FB451B959AE6FAE5107E1210EAB5D03
:10177800A10EAC59070EAD5946E3B6C0B1F0B7C0DB
:10178800B2F0B8C0B3F0B9C0B4F0B507B52941E1BB
:10179800010EB56FB007B02902E1D999FF0CDF6BD4
:1017A800D90EDF25D96EDA6A010EDA22810EDF6ED4
:1017B800DF2BD90EDF25D96EDA6A010EDA22F3C0E3
:1017C800DFFFDF2BD90EDF25D96EDA6A010EDA22A8
:1017D800D8C0DFFFDF2BBA6BBA51F40FD96EDA6AC3
:1017E800D90EDF25E16EE26A010EE222DFCFE7FFC4
:1017F800DF2BBA2BBA51F0E0966B976B010E986FFE
:10180800996BA1EC0EF0A7EC15F0000902E0C4EC0E
:1018180015F0D9B993D7AFC0F6F0D5511200166EAE
:10182800030E216E85D0226A0001E36B206A1150F5
:1018380018E0280EF7EC12F0236ED8902332410EF0
:1018480023640FD0202A2004126E040E126401D0E3
:10185800040C010E016E026A036A046AE5EC0DF0DD
:10186800E8D7F298F096200E77EC11F01A0E036E76
:10187800C90E026E92EC13F01650CBEC13F0246AEA
:101888000AD0000E2424D96EDA6A010EDA22DF505B
:10189800CBEC13F0242A1650245CF3E3800E77EC8B
:1018A80011F0F288F0860001D45102E1F0A0FBD7D4
:1018B800D46B200E77EC11F0600E77EC11F001017B
:1018C80000AB0ED001C145F043EC12F001C018F096
:1018D80002C019F003C01AF004C01BF0E35103E082
:1018E800010E176E010C43EC12F001C01CF002C08F
:1018F8001DF003C01EF004C01FF018501C5C126ECF
:1019080019501D58136E1A501E58146E1B501F582C
:10191800156E1550141005E1A90E125C610E1358CE
:10192800DDE3222A2204126E040E126001D07CD755
:101938002106212801E077D7176A12001E0E92654A
:1019480001D0000C8DB503D0936B932B02D000010E
:10195800936B933B934793478D519319BF0B9319FF
:101968008D6F8D8F8D51030BE80601E18D8F8DC032
:1019780000F1D6C001F1D62B020E946F8DAD1AD0AE
:10198800956B10D095518E25D96E000E8F21DA6E89
:10199800000E9425E16EE26A010EE222DFCFE7FF36
:1019A800942B952BD031E832E8320F0B936F93517B
:1019B800955DE8E38DAF18D0956B0ED0D151952584
:1019C800D96EDA6A000E9425E16EE26A010EE2220F
:1019D800DFCFE7FF942B952BD031E832E8320F0B9D
:1019E800936F9351955DEAE3956B10D095519025CF
:1019F800D96E000E9121DA6E000E9425E16EE26A2E
:101A0800010EE222DFCFE7FF942B952B9251955DD3
:101A1800EDE3000ED0B3010E796F9451F0EF0AF0A8
:101A280069C06DF06AC06EF06BC06FF06CC070F08A
:101A3800280E6D03F3CF71F0F4CF72F0736B746BF3
:101A48006E03F3507227F4507323000E74236D0352
:101A5800F3507227F4507323000E7423280E6F037B
:101A6800F3507327F4507423000E6E03F35073275A
:101A7800F4507423000E6D03F3507327F45074234D
:101A8800280E7003F3507427000E6F03F350742769
:101A9800000E6E03F3507427000E6D03F350742785
:101AA80071C075F072C076F073C077F074C078F0CA
:101AB800510E7527FF0E76237723782378BFFF0C06
:101AC8007851771176110CE12E0E755D09E212003E
:101AD80000F0D60E00017527FF0E762377237823B2
:101AE80078BF1200785177117611F2E17505F0E2AE
:101AF800120069516B6F6A516C6F6D6B6E6BA00E43
:101B08006B03F3CF6FF0F4CF70F0716B726B6C03F3
:101B1800F3507027F4507123000E72230F0E6B03DD
:101B2800F3507027F4507123000E7223A00E6D033A
:101B3800F3507127F45072230F0E6C03F350712782
:101B4800F4507223000E6B03F3507127F450722384
:101B5800A00E6E03F35072270F0E6D03F350722719
:101B6800000E6C03F3507227000E6B03F3507227BC
:101B78006FC073F070C074F071C075F072C076F009
:101B8800560E7327FF0E74237523762376BFFF0C3A
:101B98007651751174110CE1C40E735D09E21200DF
:101BA80000F0D90E00017327FF0E742375237623E6
:101BB80076BF1200765175117411F2E17305F0E2E7
:101BC800120001C005F002C006F003C007F004C00F
:101BD80008F0280E0502F3CF09F0F4CF0AF00B6ADB
:101BE8000C6A0602F3500A26F4500B22000E0C224F
:101BF8000502F3500A26F4500B22000E0C22280E80
:101C08000702F3500B26F4500C22000E0602F35084
:101C18000B26F4500C22000E0502F3500B26F4504C
:101C28000C22280E0802F3500C26000E0702F3506F
:101C38000C26000E0602F3500C26000E0502F35087
:101C48000C2609C00DF00AC00EF00BC00FF00CC036
:101C580010F0510E0D26FF0E0E220F22102210BE7C
:101C6800FF0C10500F100E100BE12E0E0D5C08E249
:101C7800120000F0D60E0D26FF0E0E220F221022A3
:101C880010BE120010500F100E10F3E10D04F1E217
:101C98001200780ED36E9B8CC090550EA76EAA0EBC
:101CA800A76E0E01FF91110EE76F170EFB6F0A0E5C
:101CB800DB6F090ED96F550EA76EAA0EA76EFF81AE
:101CC800FC0E0F01486F1F0E496F8B94899C899EEB
:101CD8009494929C929E93829384F19E9282928095
:101CE800898A8C82929A95929380948CF18AF18C4D
:101CF800F292F288F090F086938A949E9398C00EA0
:101D0800C76E210EC66E8C9095808C8A959A8D84AC
:101D180096948D928C8E8C968D909692959E959693
:101D28009690958C95949598736A310E726EA49ED0
:101D3800C6EC10F0F28EF28C12009C6F00019D6BC5
:101D4800985103E09A6B9A2B02D000019A6B9D512F
:101D58009A19FC0B9A199D6F9C5103E19A6B9A2B67
:101D680002D000019A6B9A3B9A479D519A19DF0B52
:101D78009A199D6F9CB102D09D9502D000019D8556
:101D880099B102D09D9702D000019D879C5103E133
:101D98009A6B9A2B02D000019A6B9A3B9A479A4702
:101DA8009D519A19BF0B9A199D6F9D8F96C09EF0F1
:101DB80097C09FF09DC08DF09EC08EF09FC08FF0A1
:101DC800D90E906F010E916FDFC092F0A2EC0CF06B
:101DD8009B6FDF6B9B51120077C0D0F078C0D1F0B9
:101DE8006A6B140E696F7DEC0DF08C82898AD6CFF0
:101DF800D6F0DD69796B7951340D500EF324D96E24
:101E0800010EF420DA6EDF6A792B010E7965F3D7BB
:101E1800796B7951020D6F0EF324F66EFD0EF420E6
:101E2800F76E0900F5CF6AF00A00F5CF6BF0D7EC32
:101E380012F00001792B1F0E7965EBD7200E3CECD0
:101E480011F06B6B4E0E6A6FD7EC12F0400E3CEC43
:101E580011F01C0E6B6F0F0E6A6FD7EC12F0600E4C
:101E68003CEC11F0F292F288F090F0861200716F5B
:101E78001F0E0001716501D0000C0C0E6B6F640E13
:101E88006A6FD7EC12F0AF0E00017125F66EF76A93
:101E9800FD0EF7220800F5CF70F0000E70116A6F82
:101EA8000E0E6B6FD7EC12F0CF0E00017125F66E97
:101EB800F76AFD0EF7220800F5CF70F0000E7011DA
:101EC8006A6F100E6B6FD7EC12F0200E3CEC11F01D
:101ED8006B6B4E0E6A6FD7EC12F0400E3CEC11F0B3
:101EE8001C0E6B6F0F0E6A6FD7EC12F0200E3CECD5
:101EF80011F0600E3CEC11F0010C000EF0B6010E72
:101F08006F6FF0968C9A050E30EC15F0B1EC15F069
:101F18000001706F8C8AC9EC15F0000170B1F2D71E
:101F28008C9A060E30EC15F08C8AC9EC15F08C9A58
:101F3800020E30EC15F000016C5130EC15F0000188
:101F4800706B16D06AC0D9FF6BC0DAFFDF5030EC77
:101F580015F000016A4B6B2B6D07702B6C517025C7
:101F68006E6F0F0E6E1704E18C8A70516C27CAD7FA
:101F78006D51E8E18C8A6FB102D0F09601D0F086FD
:101F8800120081B210D00001DA513CE1010EDA6F83
:101F98001CEC12F069C03CF06AC03DF06BC03EF02A
:101FA8006CC03FF0010C81B410D00001DA512AE175
:101FB800010EDA6F1CEC12F069C03CF06AC03DF00B
:101FC8006BC03EF06CC03FF0020C1CEC12F069C014
:101FD80077F06AC078F06BC079F06CC07AF03C504A
:101FE800775D736F3D507859746F3E507959756FAE
:101FF8003F507A59766F7651751103E1400E745D42
:1020080001E3DA6B000C1CEC12F069C0A1F06AC0A5
:10201800A2F06BC0A3F06CC0A4F01CEC12F069C075
:10202800A5F06AC0A6F06BC0A7F06CC0A8F0A151DB
:10203800A55D9D6FA251A6599E6FA351A7599F6F89
:10204800A451A859A06FA0511EE1810E9D5D840E78
:102058009E591E0E9F5901E31200C5EC0FF0A96F9F
:10206800020EA9190FE1380E986FFF0E996F9A6B3F
:102078009B6B36EC13F0030E6A6FE80E696F7DEC0C
:102088000DF0010C000E1200800E8FEC15F000010F
:102098006B6BB80E6B25D96EDA6A010EDA22DF5047
:1020A80004E1200E86EC15F009D0B80E6B25D96E28
:1020B800DA6A010EDA22DF5086EC15F000016B2B8C
:1020C8000F0E6B65E6D7C00E8FEC15F0100E0001F1
:1020D8006B6FB80E6B25D96EDA6A010EDA22DF5003
:1020E80004E1200E86EC15F009D0B80E6B25D96EE8
:1020F800DA6A010EDA22DF5086EC15F000016B2B4C
:102108001F0E6B65E6D71F0C02EE00F0640EEE6A38
:10211800E806FDE101EE00F0F70EEE6AE806FDE1E3
:1021280000EEBEF0360EEE6AE806FDE100EE3CF089
:102138000B0EEE6AE806FDE1960EF66E2B0EF76EB4
:10214800000EF86E0900F5CFF4F00900F5CFF5F0B0
:102158000900F5CFF6F0800EF66E2B0EF76E000E26
:10216800F86E00EE47F010EE08F00900F5CFEEFF2C
:10217800E550E150FAE14F904F92000EF86E0001E1
:10218800F8EF14F08C8E8D9000016A6B080E696F61
:102198007DEC0DF08D806A6B500E696F7DEC0DF053
:1021A800300E8FEC15F000016A6B080E696F7DEC3C
:1021B8000DF0300E8FEC15F0300E8FEC15F0390E57
:1021C8008FEC15F0140E8FEC15F0560E8FEC15F001
:1021D8006D0E8FEC15F0700E8FEC15F00E0E8FEC67
:1021E80015F0060E8FEC15F0010E8FEC15F00001BE
:1021F8006A6B280E696F7DEF0DF081A281B4120021
:102208000001BB6BAFEC14F0B80E756F010E766F62
:10221800DE0E776FFF0E786F000E7A6F190E796FEA
:102228002CEC00F0C80E756F010E766F0C0E776FF0
:10223800FF0E786F47C079F07A6B48C07BF07C6BF3
:1022480049C07DF07E6B2CEC00F048EC10F00DD00E
:10225800AA6B83EC0BF0C5EC0FF0BC6FBC0503E078
:10226800020EBC1902E1010EBB6FBB51F1E0120076
:1022780000016E6F2CD06B6B8E0E6A6FD7EC12F06C
:10228800800E0001DB6F800C6B6B6E0E6A6FD7ECF3
:1022980012F0600E0001DB6F600C6B6B4E0E6A6F04
:1022A800D7EC12F0400E0001DB6F400C6B6B2E0E6A
:1022B8006A6FD7EC12F0200E0001DB6F200C6B6BFD
:1022C8000E0E6A6FD7EC12F00001DB6B12000001F2
:1022D8006E51F5E0200AEAE0600ADFE0200AD4E067
:1022E800E00AC9E01200066E2CD0036A8E0E026E58
:1022F80092EC13F0800E0001DB6F800C036A6E0E07
:10230800026E92EC13F0600E0001DB6F600C036A42
:102318004E0E026E92EC13F0400E0001DB6F400C83
:10232800036A2E0E026E92EC13F0200E0001DB6F92
:10233800200C036A0E0E026E92EC13F00001DB6BA8
:1023480012000650F6E0200AEBE0600AE0E0200AFE
:10235800D5E0E00ACAE01200BB6F0001BB5105E0FE
:10236800010EC0EC08F074EF15F0899C899E000EF0
:10237800C0EC08F0190E5CEC14F0000903E1190E2A
:10238800CDEC15F0000EE6EC13F0000E00019D6F89
:10239800190ED6EC14F0AA6B83EC0BF0BC6FBC29B9
:1023A80006E0010E9D6F190ED6EC14F009D00A0E46
:1023B800736F000E746B756B766B776B16EC15F09C
:1023C800898C74EF15F0010E6E6FD26BD36B6A6B4C
:1023D800020E696FEE0E6B6F19EC14F06E176A6BD4
:1023E800010E696FEA0E6B6F19EC14F06E176A6BC9
:1023F800010E696FE60E6B6F19EC14F06E176A6BBD
:10240800640E696FE80E6B6F19EC14F06E176A6B47
:10241800040E696FF00E6B6F19EC14F06E176A6B8F
:10242800010E696FEC0E6B6F19EC14F06E17120049
:102438009D900001716B726B6E6BCECF6FF0CFCF3A
:1024480070F06F2908E1702906E16E2B6E056D6F3B
:10245800020E6D65F2D79EA004D0712B462801E1CB
:10246800722B46507127E55172279D806FC069F025
:1024780070C06AF071C06BF072C06CF012009D9071
:10248800096A0A6A066ACECF07F0CFCF08F0072894
:1024980008E1082806E1062A0604056E020E05640E
:1024A800F2D79EA004D0092A462801E10A2A4650FC
:1024B80009260001E5510A269D8007C001F008C0E1
:1024C80002F009C003F00AC004F012006E6B6F6BD3
:1024D8006B516C111BE0010E6D6F04D0D8906B37F7
:1024E8006C376D2B6CAFFAD7D8906E376F376B514E
:1024F800695D6C516A5905E36B51695F6C516A5BA0
:102508006E81D8906C336B336D2FEED76EC069F047
:102518006FC06AF0120000016A6F000EF0B6010E7B
:102528006C6F000EF2B8010E6D6FF298F0968C92F7
:102538006A8D6A5123EC15F0ACEC15F000016B6F55
:102548008C826CB102D0F09601D0F08600016DB19A
:1025580002D0F29801D0F28800016B511200616F2D
:10256800000EF0B6010E0001636F000EF2B8010E06
:10257800646FF298F0968C92618D61513DEC15F084
:10258800B6EC15F00001626F8C8263B102D0F09650
:1025980001D0F086000164B102D0F29801D0F2882F
:1025A800000162511200000EF0B6010E6C6F000EB1
:1025B800F2B8010E6D6FF298F0968C926B5123EC85
:1025C80015F000016A5123EC15F08C8200016CB102
:1025D80002D0F09601D0F08600016DB102D0F298D9
:1025E80001D0F2881200026E000EF0B6010E046EE1
:1025F800000EF2B8010E056EF298F0968C92028CDD
:1026080002504AEC15F0BBEC15F0036E8C8204B056
:1026180002D0F09601D0F08605B002D0F29801D031
:10262800F28803501200996FAFEC14F0B80E756F72
:10263800010E766F930E776FFF0E786F99C079F061
:102648007A6B2CEC00F0C80E756F010E766F820E57
:10265800776FFF0E786F98C079F07A6B2CEC00F0EA
:1026680048EF10F0AFEC14F0B80E756F010E766FEE
:1026780098C077F099C078F09AC079F07A6B2CEC12
:1026880000F048EC10F09B51D8B412009C6B6A6BB8
:10269800FA0E696F7DEC0DF09C2B070E9C65F7D741
:1026A800070C7251731117E0010E746F04D0D890A3
:1026B80072377337742B73AFFAD77251705D7351D9
:1026C800715904E37251705F7351715BD890733321
:1026D8007233742FF2D770C070F071C071F01200AD
:1026E8006A6F000EF0B6010E00016B6F000EF2B8B3
:1026F800010E6C6FF298F096899A6A5123EC15F0E6
:10270800898A00016BB102D0F09601D0F0860001F1
:102718006CB102D0F29801D0F2881200000EF0B627
:10272800010E046E000EF2B8010E056EF298F096D6
:102738008C9203504AEC15F002504AEC15F08C824A
:1027480004B002D0F09601D0F08605B002D0F2981D
:1027580001D0F28812000001A56FA5510A0D080EDC
:10276800F324D96E020EF420DA6E0201DFAE000CFB
:102778000001A5510A0D000EF324A06F020EF420EB
:10278800A16F010EA26FA4C0A3F056EF15F0026E60
:10279800000EF0B6010E036E000EF2B8010E046EC4
:1027A800F298F096899A02504AEC15F0898A03B09B
:1027B80002D0F09601D0F08604B002D0F29801D091
:1027C800F28812000001726F030E726501D0030CCB
:1027D80072C0F6F0F6C071F0713BF00E7117D85167
:1027E8000F0B7111D86FF60E6A6F6B6B030E6C6F5F
:1027F800010E6D6F81EF0FF08C9A030E30EC15F01F
:1028080000016C5130EC15F00BD0B1EC15F06AC03A
:10281800D9FF6BC0DAFFDF6E00016A4B6B2B6D07C7
:1028280000016D51F2E18C8A12006951D2256C6F5A
:102838006A51D3216D6F6C05800E6D5901E3000C50
:102848006B51D96EDA6AD2C0DEFFD3C0DDFF6951A1
:10285800D2276A51D323010CA7EC15F00009D8B48C
:102868001200DE2BDEC09AF0E051A0EC15F0897E54
:10287800070E6A6FD00E696F7DEC0DF074EC15F0E1
:10288800C4EF15F06F6B6F516B25D96E000E6C217C
:10289800DA6E6F516925E16E000E6A21E26EDE5034
:1028A800E61801E0000C6F2B070E6F65ECD7010CE2
:1028B800726F00016F6B72513BEC0FF000090CE076
:1028C80072C0F3F0F30E6A6F6B6B020E6C6F010E41
:1028D8006D6F81EC0FF0010C000C696B6A6B6A512B
:1028E8000A0D080EF324D96E020EF420DA6EDFAE5C
:1028F80002D00001692B00016A2B090E6A65EFD727
:102908006951120069C06FF06AC070F008D06FC0DA
:10291800D9FF70C0DAFF6BC0DFFF6F4B702B6D07FC
:10292800D8A06E076D29F3E16E29F1E112006A6FF4
:10293800080E00016B6F6C6BD8906A356C356C6F44
:10294800D8906A3769516C5D02E369516C5F6B2FEF
:10295800F3D76C511200010E8FEC15F000016A6B71
:10296800020E696F7DEC0DF0B80E696F010E6A6F8B
:102978006C6B200E6B6F6E6B6D6F86EF14F0695188
:102988006B03F3CF6DF0F4CF6EF069516C03F35025
:102998006E276A516B03F3506E276DC069F06EC0E5
:1029A8006AF012009E6F00019D5104E13F0E986F7E
:1029B800FE0E03D07E0E986FFE0E996F9EC09AF0A1
:1029C800010E9B6F36EF13F0020E0001DD61020C61
:1029D800DD51340D500EF324D96E010EF420DA6E59
:1029E800000EDF6ADD6912004DEC0EF098EC15F070
:1029F8007DEC15F007EC10F0BD6FBD51B0EC11F097
:102A0800C7EC15F0FDD76B6F00016A6B3A0E6B616E
:102A180005D02F0E6B6502D0010E6A6F6AC069F08F
:102A280069311200786F04D01CEC12F01CEF12F020
:102A380000017851F9E0010AD8A4030A1200000144
:102A4800696F9E96C950C69E69C0C9FFC6BEFBD7AE
:102A58009EA6FED79E9612000001696FA49E75502F
:102A6800729E69C075FF72BEFBD7A4AEFED7A49E46
:102A780012000001606F9E96C950C69E60C0C9FFD3
:102A8800C6BEFBD79EA6FED79E961200016E9E96E6
:102A9800C950C69E01C0C9FFC6BEFBD79EA6FED7B9
:102AA8009E961200A0C096F0A1C097F0000E986BF9
:102AB800A3C099F0A1EF0EF0A06F0001966B976B81
:102AC800986BA0C099F0010EA1EF0EF0B40E0001B2
:102AD800986FFF0E996F9A6B010E9B6F36EF13F08C
:102AE8009D0E0001986FFE0E996F9A6B9B6B36EFE7
:102AF80013F05F0E986FFE0E996F9A6B010E9B6F25
:102B080036EF13F06A6F8C9E8C8600016A5130ECA8
:102B180015F08C8E120000016A6F8C9E8C966A519B
:102B280030EC15F08C8E1200380ECD6E9E909D8084
:102B3800CD80466AE56B12009B6F9AC098F0000141
:102B48009B5117EF13F0B9EC03F0D9B7010C000C47
:102B5800000E23EC15F0C9501200000E30EC15F0F1
:102B680075501200000E3DEC15F0C9501200000E11
:102B78004AEC15F0C950120001776655443322110A
:102B8800D997E8EF14F0A0EF07F000F01200010168
:012B98000339
:042B9A001200120013
:10FCAE000020B2202020B22020B220B2202020201E
:10FCBE0020B220B20D0AB220B220B220B2202020F3
:10FCCE00B22020B22020B220200D0AB22020B22075
:10FCDE0020B220B220B22020B22020B220B20D0AD3
:10FCEE00B22020B22020B220B22020B220B220B208
:10FCFE002020B20D0AB22020B22020B220B2202045
:10FD0E0020B220B2202020B20D0A20202020202058
:10FD1E00202020202020202020202020200D0AB26C
:10FD2E00B2B22020B2B2B2B20D0AB22020B220B2CC
:10FD3E002020200D0AB22020B220B2B2B2B20D0A9B
:10FD4E00B22020B220B22020200D0AB2B2B2202062
:10FD5E00B2B2B2B20D0A2020202020202020200D89
:10FD6E000A2E008402090409060C08C10A770C64E5
:10FD7E000E32100012001400163818C81A0D1C008E
:10FD8E001E72203822382407260028002A692C816A
:10FD9E002E7E309632F83488364038003AE83C00F1
:10FDAE003E5454545454545454545454545454551A
:10FDBE0055555555555555555555555555555555E5
:10FDCE00552D303335383B3E414346494C4F510952
:10FDDE000C0F1215171A1D202325282B2E31333602
:10FDEE003901000800400000020010008001000AE6
:10FDFE00006400E803102701001000000100100D40
:10FE0E000A0D0A436F6E6E656374696F6E20202053
:10FE1E002020506565724C6F6E6741646472657325
:10FE2E0073202020202050656572496E666F0D0A82
:10FE3E0000436F6E6E656374696E67205065657200
:10FE4E0020206F6E204368616E6E656C20256420E5
:10FE5E000053696D706C65205032502044656D6F93
:10FE6E0020204D524638395841204E6F646520008F
:10FE7E0020436F6E6E6563746564205065657220F5
:10FE8E00206F6E204368616E6E656C202564005392
:10FE9E0057313A2042726F6164636173742020534C
:10FEAE0057323A20556E69636173740042726F6106
:10FEBE006463617374205061636B65742077697439
:10FECE0068205253534920005357313A4E657720DC
:10FEDE004E6574776F726B205357323A4672656572
:10FEEE007A657200556E6963617374205061636B3D
:10FEFE006574207769746820525353492000416419
:10FF0E0064726573733A2025303278253032782545
:10FF1E00303278005242303A253032642D2530325C
:10FF2E0078253032782530327800526573746F72CE
:10FF3E00696E67204E6574776F726B202121000DFC
:10FF4E000A0D0A4D7920416464726573733A20304C
:10FF5E007800303132333435363738394142434404
:10FF6E0045460030313233343536373839616263C5
:10FF7E00646566005258204D657373616765733A08
:10FF8E0020253364005458204D6573736167657383
:10FF9E003A20253364005242323A2043686E676538
:10FFAE00206E6F64650020556E6963617374204620
:10FFBE0061696C65640020202020202020202020F4
:10FFCE002020200020204368616E6E656C3A200070
:10FFDE002043683A25303264005365637572656458
:0AFFEE0020002066726F6D200000F5
:08FFF800ACF5DAFBFFF9FFF1A3
:00000001FF
