:100000008331982B000008007E14803120007F0887
:10001000CA0022000F170F13270096198B1D7E2B85
:10002000603023004F06031D762B2830B73136276A
:10003000803189362000BF003F082300D1005108DD
:100040002000BF003F082300D00022000E11B43171
:10005000FE2480312000BF003F08D50022000E158D
:100060002000D60102305602031859285608BF0056
:10007000C0013F08F0004008F1003930F2000030C4
:10008000F300B63152268031F2302000C100223018
:10009000C2007008410786007108423D8700011CBC
:1000A00059280130BF003F08D60702305602031C12
:1000B000362802305506031D6028D201D20A612875
:1000C000D2013730550203186F28550803196F28DD
:1000D00002305602031C81285208031D81281A3061
:1000E000B731362780312000BF003F08CD00CD1C3E
:1000F0007B2B22000E11B431FE24803122000E151C
:100100006F28D3015508BF00C0013F08CB0040084D
:10011000CC004B084C0403197B2B0130CB02003080
:10012000CC3B52080319A02822000E11B431FE2442
:1001300080312000BF0053084E3E86008701D12841
:1001400022000E11B431FE2480312000BF00560879
:10015000C000C1014008F0004108F1003930F20050
:100160000030F300B6315226803120005308013EA2
:10017000C200003003180130C300F230C400223046
:10018000C50042084407C6004308453DC700700843
:100190004607C8007108473DC9004808860049085D
:1001A00087003F0881000130BF003F08D3072200CD
:1001B0000E15200055085302031C89285208031904
:1001C000472903304E05BF0002303F06031DF528C6
:1001D0004F0823005206031DF22801302000BF0003
:1001E0003F08E3002000D3017B2B02305602031CA2
:1001F000FB28D3016F285608BF00C0013F08F0005C
:100200004008F1003930F2000030F300B6315226D8
:1002100080317008013E2000C1000030713DC200F5
:10022000F230C3002230C40041084307C500420831
:10023000443DC60045088600460887004E088100F8
:100240004F08BF005608C000C1014008F000410837
:10025000F1003930F2000030F300B631522680311F
:100260007008023E2000C2000030713DC300F23031
:10027000C4002230C50042084407C6004308453D7B
:10028000C70046088600470887003F0881005608D7
:10029000BF00C0013F08F0004008F1003930F20013
:1002A0000030F300B631522680317008383E20000D
:1002B000C1000030713DC200F230C3002230C400E2
:1002C00041084307C5004208443DC6004508860072
:1002D0004608870055088100FF30BF003F08D40062
:1002E0005608BF00C0013F08F0004008F100393057
:1002F000F2000030F300B631522680317008013E22
:100300002000C1000030713DC200F230C300223035
:10031000C4004108430786004208443D8700011F8E
:10032000F229D701580CBF00BF0C3F0C0F39570200
:100330000318F22957085907BF003F08860001300B
:1003400087005608C000C1014008F0004108F100D4
:100350003930F2000030F300B631522680312000EF
:100360005708033EC200003003180130C300F230CA
:10037000C4002230C50042084407C6004308453D7A
:10038000C7007008460784007108473D85000008D3
:1003900001060319ED29D3015608BF00C0013F082B
:1003A000F0004008F1003930F2000030F300B631BF
:1003B000522680317008383E2000C1000030713D67
:1003C000C200F230C3002230C40041084307860057
:1003D0004208443D870081016F280130BF003F087B
:1003E000D70792295608BF00C0013F08F000400817
:1003F000F1003930F2000030F300B631522680317E
:100400007008013E2000C1000030713DC200F23092
:10041000C3002230C4004108430786004208443D1F
:100420008700811E792AD7010230570203182D2A2E
:100430005708203E8600033087000108BF00570898
:100440004E3E860087013F0881000130BF003F0813
:10045000D70702305702031C182A0630BF003F0896
:100460002600A00020005608BF00C0013F08F00091
:100470004008F1003930F2000030F300B631522666
:1004800080317008023E2000C1000030713DC20082
:10049000F230C3002230C4004108430786004208FE
:1004A000443D87000108C50045082600A10027003B
:1004B0009611FC0102309831892080312000D7014B
:1004C000023057020318792A57084E3E86008701EA
:1004D0000108BF005708203E8600033087003F0810
:1004E00081000130BF003F08D70702305702031CCC
:1004F000642AD701053057020318F92A0630BF00D5
:100500003F08F0005708B53172258031A03E8600C3
:100510000330870001080319D82A20005608BF00BD
:10052000C0013F08F0004008F1003930F20000300F
:10053000F300B631522680317008023E2000C1001F
:100540000030713DC200F230C3002230C4004108C7
:10055000430786004208443D87000630C500450831
:10056000F0005708B53172258031013EA03E84006D
:100570000330850000080106031DD82A063020003C
:10058000BF003F08F0005708B53172258031023EA8
:10059000A03E860003308700AA318C22803170088B
:1005A000C03F7108C13F7208C23F7308C33FF92AB8
:1005B0002000540A031DF02A0630BF003F08F00057
:1005C0005708B53172258031A03E86000330870080
:1005D0000108031DF02A20005708BF003F08D4007F
:1005E00001302000BF003F08D70705305702031C29
:1005F0007E2A053020005702031C7B2B0530540255
:1006000003185A2B0630BF003F08F0005408B531DC
:1006100072258031A03E8600033087008101810A67
:1006200020005608BF00C0013F08F0004008F1005C
:100630003930F2000030F300B631522680317008B4
:10064000023E2000C1000030713DC200F230C30004
:100650002230C4004108430786004208443D870019
:100660000108C5000630C6004608F0005408B53140
:1006700072258031013EA03E8600033087002000B5
:10068000450881000630BF003F08F0005408B5312E
:1006900072258031023EA03E860003308700AA31D9
:1006A0008C2280317008C03F7108C13F7208C23F80
:1006B0007308C33F20005608BF00C0013F08F00088
:1006C0004008F1003930F2000030F300B631522614
:1006D0008031F2302000C1002230C2007008410792
:1006E00086007108423D870001147B2B01302000F9
:1006F000BF003F08DA002700961100002000111CFF
:10070000912B2100111C912B200011100130BF00F2
:100710003F08E6076608031D912B0130BF003F0824
:10072000E7079031012020004A08FF007E100900F1
:1007300083319A2BB431F7248331ED00B431F8249E
:100740008331EE00B431F9248331EF000A308400A4
:10075000B530850023001200E7001200E800120007
:10076000E9001200EA001200EB001200EC00120097
:10077000ED001200EE00F230840022308500FE30E1
:10078000FE000030FF00A231B1228331FD0158305C
:100790008400003085001530FE000030FF00A231DB
:1007A000B12283312200EE01EF01A030840001303C
:1007B00085004730FE000030FF00A231B1228331B6
:1007C00020308400023085003730FE000030FF000A
:1007D000A231B1228331A03084000230850049303B
:1007E000FE000030FF00A231B122833120308400AE
:1007F000033085003730FE000030FF00A231B12207
:100800008331A0308400033085001E30FE000030AC
:10081000FF00A231B1227E102000B6311D2E210032
:10082000EB0120006A082100E200E301E235E30D5C
:10083000E235E30D6208043EE4000030633DE5006C
:100840006508803AE60080306602031D292C2330BB
:10085000640203182F2C2100EB01EB0A7A2C2330C1
:100860002100A0000030A10020006A082100E20061
:10087000E301E235E30DE235E30D6208043EA20038
:100880000030633DA300AD31F925843121002008FB
:10089000E4006408EB0020006A082100E200E301A4
:1008A000E235E30DE235E30D6208043EE40000307A
:1008B000633DE5006408650403197A2C2330A00029
:1008C0000030A10020006A082100E200E301E235C7
:1008D000E30DE235E30D6208043EA2000030633D03
:1008E000A300AB314A238431210020086B07E400C8
:1008F0006408EB00EC016B086C020318080022008E
:10090000EE0177302100E20022006E08343E8600BE
:10091000023087002100620881000130E200620895
:100920002200EE0720006A082100E20022006E0883
:10093000343E8600023087002100620881000130C9
:10094000E20062082200EE0707302100E2006208A0
:10095000A0006C08B531952584312100E300220008
:100960006E08343E86000230870021006308810053
:100970000130E20062082200EE0707302100E200A9
:100980006208A0006C08013EB53195258431210034
:10099000E30022006E08343E86000230870021000A
:1009A000630881000130E20062082200EE07043093
:1009B0002100E2006208EA000730E2006208A000BD
:1009C0006C08B531952584312100E3006308ED0002
:1009D0006C08013EA700003003180130A800073062
:1009E000A9000030AA00B631A426843121002808CD
:1009F000803A803C031DFE2C27086D020318002E50
:100A000020006A0821006D020318FB2D6D08E2002A
:100A1000E3016208A7006308A8000E30A9000030B7
:100A2000AA00B631A4268431210027080C3EE40038
:100A30000030283DE5006430E6002330E70064081C
:100A4000660786006508673D8700811FB12D6D0828
:100A5000E200E3016208A7006308A8000E30A900C5
:100A60000030AA00B631A426843121002708043EB4
:100A7000E4000030283DE5006430E6002330E70064
:100A80006408660786006508673D87000108E8007E
:100A900022006E08343E860002308700210068087C
:100AA00081000130E20062082200EE0721006D089B
:100AB000E200E3016208A7006308A8000E30A90065
:100AC0000030AA00B631A426843121002708053E53
:100AD000E4000030283DE5006430E6002330E70004
:100AE0006408660786006508673D87000108E8001E
:100AF00022006E08343E860002308700210068081C
:100B000081000130E20062082200EE0721006D083A
:100B1000E200E3016208A7006308A8000E30A90004
:100B20000030AA00B631A426843121002708063EF1
:100B3000E4000030283DE5006430E6002330E700A3
:100B40006408660786006508673D87000108E800BD
:100B500022006E08343E86000230870021006808BB
:100B6000DE2DFF302100E20022006E08343E8600B8
:100B7000023087002100620881000130E200620833
:100B80002200EE07FF302100E20022006E08343E12
:100B90008600023087002100620881000130E200F7
:100BA00062082200EE07FF302100E20022006E08FA
:100BB000343E860002308700210062088100013047
:100BC000E20062082200EE0721006D08E200220028
:100BD0006E08343E860002308700210062088100E2
:100BE0000130E20062082200EE0721006A08043E9C
:100BF000E2006208EA000130E2006208ED07E82C3A
:100C000021006A08E2006208E90023306902031843
:100C1000222E1130E20022006E08343E860002309F
:100C200087002100620881000130E2006208220092
:100C3000EE0701302100E2006208E9072330690273
:100C4000031C092E0030D6000030D700D801D80A86
:100C5000D9010130AB319023843101302100E20011
:100C60006208EC077B2C2100BC0105303C02031814
:100C7000CD2EAB31D923863121002308BA002208BA
:100C8000B9002108B8002008B7000630AD002D08D3
:100C9000A0003C08B53195258631A03E8600033082
:100CA000870001080319C42E06302100AD002D086D
:100CB000A0003C08B53195258631023EA03E860055
:100CC00003308700403F2100AE00413FAF00423F6C
:100CD000B000433FB1003A083102031D792E3908B4
:100CE0003002031D792E38082F02031D792E370894
:100CF0002E020318C42E3708AD003808AE0039089C
:100D0000AF003A08B0000630B1003108A0003C083E
:100D1000B53195258631023EA03E8600033087001E
:100D2000403F2100B200413FB300423FB400433F87
:100D3000B500B209B309B409B509B20A0319B30A77
:100D40000319B40A0319B50A3208AD073308AE3DDA
:100D50003408AF3D3508B03D3008031DB72EB5301F
:100D60002D02C4302E3B04302F3B031CC42E063012
:100D7000AD002D08A0003C08B53195258631A03E78
:100D8000860003308700810101302100AD002D086D
:100D9000BC0705303C02031C392E20005E0A0319F3
:100DA000D32E003008002100BC0102303C020318A1
:100DB000D72F3C08AD00AE012D08A7002E08A800D3
:100DC0003930A9000030AA00B631A4268631F230AD
:100DD0002100AF002230B00027082F078600280826
:100DE000303D8700011CCE2F3C08AD00AE012D0820
:100DF000A7002E08A8003930A9000030AA00B6319B
:100E0000A426863121002708013EAF000030283D8E
:100E1000B000F230B1002230B2002F083107860056
:100E20003008323D87000108B30033082300AA00D0
:100E300021003C08AD00AE012D08A7002E08A80037
:100E40003930A9000030AA00B631A426863121002D
:100E50002708383EAF000030283DB000F230B10026
:100E60002230B2002F08310786003008323D87005B
:100E70000108B30033082300AF0002302100AD00A9
:100E80002D08BB0023002A1F4F2F2000580C2100E3
:100E9000AD00AD0C2D0C0F39AE002E08BB072300A2
:100EA000AA1F8B2F21003C08AD00AE012D08A70022
:100EB0002E08A8003930A9000030AA00B631A426B7
:100EC000863121003B08013EAF000030031801309D
:100ED000B000F230B1002230B2002F083107B30069
:100EE0003008323DB40027083307B5002808343DE8
:100EF000B60035082300AB00210036082300AC0003
:100F00002000580C2100AD00AD0C2D0C0F39AE00A7
:100F10002E08BB078E2F2300AB01AC0121003B083C
:100F20002300AF0221003C08AD00AE012D08A70050
:100F30002E08A8003930A9000030AA00B631A42636
:100F4000863121003B08013EAF000030031801301C
:100F5000B000F230B1002230B2002F083107B300E8
:100F60003008323DB40027083307B5002808343D67
:100F7000B60035082300AD00210036082300AE007E
:100F800050082100AD002D082300B00021003C08CE
:100F9000AD002D082000DE000130080001302100E6
:100FA000AD002D08BC0702303C02031CD92E0030D6
:100FB00008002100200823004A072100A40021087E
:100FC00023004B3D2100A50080302502013003198C
:100FD0002402031CED2F003008002208860023089D
:100FE000870023004A08C03F4B08C13F210020086A
:100FF0002300CA07210021082300CB3D013008004F
:10100000080000308B1901302100A3008B11220051
:101010000C114030B531D32588310130B531D3259D
:1010200088310030B531D32522000C152100230C66
:10103000031C8B1103188B1508002100C900000048
:1010400003302100B5003508C6000130C602460A4B
:101050000319F028C7012000E3012100C50134086D
:10106000031D472857284508C50AB5000530350235
:10107000031C3C28003008000030AF000030AE00F8
:101080000030AD000130AC00B6316D26883128301B
:10109000B731942788312100B5003508CB004B3695
:1010A000B5003508CB0042304B02031833288B11B2
:1010B0002030AE31F1268831C9302100A3001A302A
:1010C000A400B6310326883121004908B531BD2579
:1010D00088312100CA0149084A0203187E284A08BB
:1010E000203E8600033087000108B531BD258831D8
:1010F00001302100B5003508CA076B288030AE31B9
:10110000F12688318B1520005A08031D8A282700F4
:10111000961D83282000DA012030AE31F126883177
:101120006030AE31F12688312600A01EEC2821085F
:101130002100B50035082300D200AB31D923883116
:1011400021002308C0002208BF002108BE0020089B
:10115000BD0020006308031DEC28AB31D923883182
:1011600021002308C4002208C3002108C20020086F
:10117000C1004108B5004208B6004308B700440862
:10118000B8003D09B9003E09BA003F09BB0040095B
:10119000BC00B90A0319BA0A0319BB0A0319BC0A2D
:1011A0003908B5073A08B63D3B08B73D3C08B83D9D
:1011B0003808031DE4283708031DE4280A303502E7
:1011C0003D30363B031CA9284708C70AB500043048
:1011D0003502031C2B2825282100C801C80AF12844
:1011E000C80148080800AB31D92388312100230801
:1011F0002200BA00210022082200B90021002108A3
:101200002200B800210020082200B700AB31D9230A
:101210008831210023082200BF002100220822007B
:10122000BE00210021082200BD002100200822006C
:10123000BC006F08031961293C08AA003D08AB00F7
:101240003E08AC003F08AD00230046092200AE0076
:10125000230047092200AF00230048092200B00004
:10126000230049092200B100AE0A0319AF0A03198D
:10127000B00A0319B10A2E08AA072F08AB3D30089F
:10128000AC3D3108AD3DE1302A0205302B3B2D301D
:101290002C3B0B302D3B031CA729AD31A7258831F2
:1012A00022003F082300C90022003E082300C80096
:1012B00022003D082300C70022003C082300C6008E
:1012C000A72922003C08AA003D08AB003E08AC005C
:1012D0003F08AD00230042092200AE00230043096D
:1012E0002200AF00230044092200B000230045097A
:1012F0002200B100AE0A0319AF0A0319B00A03199C
:10130000B10A2E08AA072F08AB3D3008AC3D3108C2
:10131000AD3D2D08031D94298D302A0286302B3BCC
:1013200047302C3B031CA729A831A020883122007C
:101330003F082300C50022003E082300C40022000D
:101340003D082300C30022003C082300C200220005
:101350003708AA003808AB003908AC003A08AD00DD
:10136000230042092200AE00230043092200AF00FF
:10137000230044092200B000230045092200B100E7
:10138000AE0A0319AF0A0319B00A0319B10A2E08ED
:10139000AA072F08AB3D3008AC3D3108AD3D2D0804
:1013A000031DDA298D302A0286302B3B47302C3B37
:1013B000031CF0296F080319F02984310F248831A8
:1013C00022003A082300C500220039082300C40087
:1013D000220038082300C300220037082300C2007F
:1013E000FD1C4C2AAB31D92388312100230822006F
:1013F000B500210022082200B400210021082200AB
:10140000B300210020082200B2003208AA003308ED
:10141000AB003408AC003508AD00230036092200CB
:10142000AE00230037092200AF0023003809220054
:10143000B000230039092200B100AE0A0319AF0A37
:101440000319B00A0319B10A2E08AA072F08AB3DE9
:101450003008AC3D3108AD3D2D08031D372AB530AD
:101460002A02C4302B3B04302C3B031C4C2AFD10B9
:1014700064302100AD002330AE0020006908210057
:10148000B000200068082100AF008C30B1000030AF
:10149000B200A3319F238831FD190800863133261D
:1014A0008831003A031908002200B6012300A00188
:1014B00000302A190130D80020085806FC39580697
:1014C000A000A011AA19A01523002A080339013A87
:1014D000031D6D2A2300A0166F2A2300A0122013DB
:1014E000AA1B20172300AA1F792A2C08A4002B0866
:1014F000A3002F082200AA002A082300A7002E0814
:10150000A6002D08A50031082200AA002A08230001
:10151000A90030082200AA002A082300A800A01A67
:10152000CF2FF42F22006F080319E12BC2012300F3
:1015300025088600260887004131010820006B0637
:101540000319A62AA83106208831F52F0330200080
:101550006F06031DAF2AA83106208831F52F903180
:10156000152088312200AA002A08C200230025087D
:101570008600260887004331AA300106031D102B80
:101580002200C0010A3040020318102B2300240857
:101590002100AE00230023082100AD0022004008F6
:1015A000AA00AB012A082100A70022002B08210075
:1015B000A8000E30A9000030AA00B631A426883158
:1015C00021002708043E2200AC0000302100283D05
:1015D0002200AD006430AE002330AF002C082E078F
:1015E0002100AF0022002D082F3D2100B000A831BE
:1015F00078208831003A0319072BFF302200AA0017
:1016000040082A3E8600023087002A088100013007
:101610002200AA002A08C0070A304002031CC62A7A
:1016200020006F03031D202B220042030319202BEF
:10163000023042060319202BF330AA002A08C20008
:101640002200EE019130AA006E08343E860002307E
:1016500087002A0881000130AA002A08EE07420804
:10166000AA006E08343E8600023087002A088100F6
:101670000130AA002A08EE0723004D082200AA0024
:101680006E08343E8600023087002A08810001304F
:10169000AA002A08EE074208031D4203031D7B2B04
:1016A00020005C082200AA006E08343E860002304A
:1016B00087002A0881000130AA002A08EE07C3012A
:1016C0004308031D7B2B43086D3E860087010108FC
:1016D000AA006E08343E8600023087002A08810086
:1016E0000130AA002A08EE070130AA002A08C30721
:1016F00043080319632BA8310620883123002408EE
:101700002100D700230023082100D600D801D80AE1
:1017100000302300A01901302100D9000030AB3186
:101720009023883184310F24883122004208031D20
:10173000F52F20005B082200AA00AB012A08210037
:10174000A70022002B082100A8000E30A9000030BD
:10175000AA00B631A426883164302200AC002330C0
:10176000AD002100270822002C072100AD00280829
:1017700022002D3D2100AE0020005B082200AE00BB
:10178000AF012E082100A70022002F082100A80089
:101790000E30A9000030AA00B631A42688312000FE
:1017A000680821002707AF00200069082100283DB4
:1017B000B0000E30B1000030B200A3319F23883159
:1017C000F52FA83106208831F52F033020006F0255
:1017D000031CEE2BA83106208831F52F23002508A5
:1017E0008600260887004131010820006B06031996
:1017F000FD2BA83106208831F52F2200EE0197300D
:10180000AA006E08343E8600023087002A08810054
:101810000130AA002A08EE0720005C082200AA0076
:101820006E08343E8600023087002A0881000130AD
:10183000AA002A08EE07C3014308031D372C4308FA
:101840006D3E860087010108AA006E08343E8600BE
:10185000023087002A0881000130AA002A08EE071A
:101860000130AA002A08C307430803191F2CA83116
:1018700006208831230024082100D70023002308F4
:101880002100D600D801D80A00302300A019013069
:101890002100D9000030AB3190238831F52F220090
:1018A000EE019230AA006E08343E860002308700B6
:1018B0002A0881000130AA002A08EE07C3010A3075
:1018C00043020318412D4308AA00AB012A08210056
:1018D000A70022002B082100A8000E30A90000302C
:1018E000AA00B631A4268831210027080C3E220028
:1018F000AC0000302100283D2200AD006430AE0075
:101900002330AF002C082E0786002D082F3D8700BE
:10191000811F382D230024082100AE002300230856
:101920002100AD0022004308AA00AB012A082100D3
:10193000A70022002B082100A8000E30A9000030CB
:10194000AA00B631A426883121002708043E2200CF
:10195000AC0000302100283D2200AD006430AE0014
:101960002330AF002C082E072100AF0022002D08E5
:101970002F3D2100B000A83178208831003A0319AA
:10198000382D22004308AA00AB012A082100A70035
:1019900022002B082100A8000E30A9000030AA0068
:1019A000B631A4268831210027080C3E2200AC0065
:1019B00000302100283D2200AD006430AE0023300D
:1019C000AF002C082E0786002D082F3D87008101CF
:1019D0004308AA00AB012A082100A70022002B0817
:1019E0002100A8000E30A9000030AA00B631A426BC
:1019F000883164302200AC002330AD00210027087C
:101A000022002C072100AD00280822002D3D2100D6
:101A1000AE0022004308AE00AF012E082100A7004F
:101A200022002F082100A8000E30A9000030AA00D3
:101A3000B631A42688312000680821002707AF00AE
:101A4000200069082100283DB0000E30B1000030B0
:101A5000B200A3319F23883122006E08343E8600F5
:101A60000230870081010130AA002A08EE07412DCB
:101A700001302200AA002A08C3070A304302031CCF
:101A8000632CA831062088310A3022004306031D4A
:101A9000562DF030AA006E08343E860002308700D2
:101AA0002A0881000130AA002A08EE072300240832
:101AB0002100D700230023082100D600D801D80A2E
:101AC00000302300A01901302100D9000030AB31D3
:101AD00090238831F52F9031152088312300250877
:101AE000860026088700423101082200AA002A0841
:101AF0002000EC006C302100AD000030AE0023006F
:101B000066082100B000230065082100AF00013005
:101B1000B1000030B200A3319F238831FD14AB31F6
:101B2000D9238831210023082300B900210022088D
:101B30002300B800210021082300B700210020085D
:101B40002300B600B12D2300250886002608870053
:101B500041310108003A03196B2D013A03196B2D2D
:101B6000B12DA83106208831F52FFD1EB82DFD12AC
:101B7000A83106208831F52F230025088600260885
:101B8000870041310108031D9E2E2200C3010A3047
:101B9000430203189E2E4308AA00AB012A08210025
:101BA000A70022002B082100A8000E30A900003059
:101BB000AA00B631A4268831210027080C3E220055
:101BC000AC0000302100283D2200AD006430AE00A2
:101BD0002330AF002C082E0786002D082F3D8700EC
:101BE000811F952E230024082100AE002300230826
:101BF0002100AD0022004308AA00AB012A08210001
:101C0000A70022002B082100A8000E30A9000030F8
:101C1000AA00B631A426883121002708043E2200FC
:101C2000AC0000302100283D2200AD006430AE0041
:101C30002330AF002C082E072100AF0022002D0812
:101C40002F3D2100B000A83178208831003A0319D7
:101C5000952E22004308AA00AB012A082100A70004
:101C600022002B082100A8000E30A9000030AA0095
:101C7000B631A4268831210027080C3E2200AC0092
:101C800000302100283D2200AD006430AE0023303A
:101C9000AF002C082E0786002D082F3D87008101FC
:101CA0004308AA00AB012A082100A70022002B0844
:101CB0002100A8000E30A9000030AA00B631A426E9
:101CC000883164302200AC002330AD0021002708A9
:101CD00022002C072100AD00280822002D3D210004
:101CE000AE0022004308AE00AF012E082100A7007D
:101CF00022002F082100A8000E30A9000030AA0001
:101D0000B631A42688312000680821002707AF00DB
:101D1000200069082100283DB0000E30B1000030DD
:101D2000B200A3319F2388319E2E01302200AA00E9
:101D30002A08C3070A304302031CCB2DA831062012
:101D40008831F52F22006F08031DAD2E2000E5011C
:101D5000E50AA83106208831F52FA8310620883100
:101D6000F52F22006F08031DD12E230025088600C1
:101D70002608870041310108FF3E2200AA002A08F8
:101D80002000E200230026082100A50023002508EA
:101D90002100A400A63108268831A8310620883108
:101DA000F52FA83106208831F52F22006F0803197E
:101DB000182F230026082100AE002300250821004B
:101DC000AD00A731512788312200AA002A08BB00A4
:101DD0003B0A0319062F230026082200A100230036
:101DE00025082200A0003B08AA002A08A200230020
:101DF00024082200A400230023082200A300A2310B
:101E0000BD2288312200AB002B08B600360803192A
:101E1000142F230024082100E300230023082100BD
:101E2000E200B73155278831A83106208831F52FD7
:101E3000A83106208831F52F22006F080319CA2F18
:101E4000C1010A3041020318C62F2300230886006F
:101E50002408870022004108AA00AB012A082100BB
:101E6000A70022002B082100A8000E30A900003096
:101E7000AA00B631A426883121002708043E22009A
:101E8000AC0000302100283D2200AD006430AE00DF
:101E90002330AF002C082E0784002D082F3D85002D
:101EA00000080106031DBE2F230023088600240816
:101EB0008700413122004108AA00AB012A08210015
:101EC000A70022002B082100A8000E30A900003036
:101ED000AA00B631A426883121002708053E220039
:101EE000AC0000302100283D2200AD006430AE007F
:101EF0002330AF002C082E0784002D082F3D8500CD
:101F000000080106031DBE2F2300230886002408B5
:101F10008700423122004108AA00AB012A082100B3
:101F2000A70022002B082100A8000E30A9000030D5
:101F3000AA00B631A426883121002708063E2200D7
:101F4000AC0000302100283D2200AD006430AE001E
:101F50002330AF002C082E0784002D082F3D85006C
:101F600000080106031DBE2F0130AA004108203ED3
:101F70008600023087002A088107C62F0130AA0098
:101F80002A08C1070A304102031C252FA831062068
:101F90008831F52FA83106208831F52FF42F250838
:101FA0008600260887000108773A0319B12E0D3AFA
:101FB00003191C2FFB3A0319922A033A03194F2CD9
:101FC000053A0319E52B163A0319A32D033A031911
:101FD000BC2D053A0319B52D5B3A0319D52E163AD7
:101FE0000319A22ECE2FF52FFD1523002708031D60
:101FF0007D1AFC2FFD1E0800FD11A83106200800E7
:102002000800F30000308B190130F4008B1122001C
:102012000E117308B531832522000E15740C031CB2
:102022008B1103188B1508002100C601FF30B9007F
:102032003908C700C8010A30480203188628480830
:10204200B900BA013908A7003A08A8000E30A90061
:102052000030AA00B631A4269031210027080C3E98
:10206200BB000030283DBC006430BD002330BE0000
:102072003B083D0786003C083E3D8700811F7628CD
:10208200230024082100AE00230023082100AD0014
:102092004808B900BA013908A7003A08A8000E306A
:1020A200A9000030AA00B631A426903121002708E9
:1020B200043EBB000030283DBC006430BD0023302C
:1020C200BE003B083D07AF003C083E3DB000A831D2
:1020D20078209031003A03197D2821004808B90080
:1020E2003908C700C601C60A8628470A031D7D288B
:1020F2004808B9003908C70001302100B900390881
:10210200C8070A304802031C2028470A031D8B28EF
:10211200F130080020006F080319922821004608B8
:10212200080021004708B90039082300CD0021002A
:10213200C801083048020318E1284808B900BA016A
:10214200390823002307860021003A082300243D92
:10215200870001082100BB004708BC00BD013C0804
:10216200A7003D08A8000E30A9000030AA00B63131
:10217200A426903121004808043EBE000030031816
:102182000130BF006430C0002330C1003E08400768
:10219200C2003F08413DC30027084207C400280887
:1021A200433DC50044088600450887003B0881007E
:1021B2000130B9003908C80708304802031C9E28BC
:1021C2004708B900BA013908A7003A08A8000E303A
:1021D200A9000030AA00B631A426903121002708B8
:1021E2000C3EBB000030283DBC006430BD002330F3
:1021F200BE003B083D0786003C083E3D8700811734
:102202002300250886002608870042310130010597
:102212002100B9004708BA00BB013A08A7003B08F1
:10222200A8000E30A9000030AA00B631A4269031D1
:10223200210027080C3EBC000030283DBD00643060
:10224200BE002330BF003C083E0786003D083F3DEC
:10225200870001083906FE3939068100C80148089D
:10226200031D79294808033EB900003003180130E4
:10227200BA00390823002507860021003A08230006
:10228200263D870001082100BB004708BC00BD01B4
:102292003C08A7003D08A8000E30A9000030AA00A3
:1022A200B631A4269031210048080D3EBE00003010
:1022B20003180130BF006430C0002330C1003E0863
:1022C2004007C2003F08413DC30027084207C4003F
:1022D2002808433DC50044088600450887003B089E
:1022E20081000130B9003908C807480803193329A9
:1022F2004708B90039082000DB007D12A4318E2482
:1023020090312100B90039082000EA006A3021002A
:10231200AD000030AE0023005E082100B0002300B3
:102322005D082100AF000130B1000030B200A331DE
:102332009F232100460808002100C100C401033088
:1023420044020318BD294408FA3EBB003B08A3001F
:10235200A401A40A4408013EFF3A013E083EE73EBA
:10236200A8312B20913101302100BB003B08C4076A
:1023720003304402031CA429FF30BB003B082300A6
:10238200EB00FE302100BB003B082300EA002100E5
:10239200C401033044020318FB294408FD3EBB007C
:1023A2003B08A300A401A40A4403FF3A023EE73E0D
:1023B200A8312B20913101302100BB003B08C4071A
:1023C200CA294408FA3EBB003B08A300A401A40AA0
:1023D2004408013EFF3A013E083EE73EA8312B2069
:1023E200913101302100BB003B08C4070830440290
:1023F200031CE229A53109259131FD012100410883
:10240200031D9C2AC4010A30440203189C2A440872
:10241200BB00BC013B08A7003C08A8000E30A90085
:102422000030AA00B631A4269131210027080C3EC3
:10243200BD000030283DBE006430BF002330C00024
:102442003D083F0786003E08403D87008101440861
:10245200BB00BC013B08A7003C08A8000E30A90045
:102462000030AA00B631A426913121002708043E8B
:10247200BD000030283DBE006430BF002330C000E4
:102482003D083F0786003E08403D87008101440821
:10249200BB00BC013B08A7003C08A8000E30A90005
:1024A2000030AA00B631A426913121002708053E4A
:1024B200BD000030283DBE006430BF002330C000A4
:1024C2003D083F0786003E08403D870081014408E1
:1024D200BB00BC013B08A7003C08A8000E30A900C5
:1024E2000030AA00B631A426913121002708063E09
:1024F200BD000030283DBE006430BF002330C00064
:102502003D083F0786003E08403D870081014408A0
:10251200203E860002308700810144082A3E860060
:102522000230870081010130BB003B08C4070A303A
:102532004402031C082AB5313B2591312200EE01E9
:10254200210041080319222B6B30A3000030A400A4
:1025520023005C082100A60023005B082100A500DF
:102562000130A7000030A800AA3154229131203056
:1025720020006B02031808006F302100A300003016
:10258200A40023005A082100A600230059082100B4
:10259200A5000130A7000030A800AA3154229131D1
:1025A20064302100A3002330A40020006908210028
:1025B200A600200068082100A5008C30A70000308A
:1025C200A800AA31542291316F302100A3000130BA
:1025D200A400230064082100A60023006308210050
:1025E200A5000130A7000030A800AA315422913181
:1025F2006C302100A3000030A400230066082100F3
:10260200A600230065082100A5000130A7000030C4
:10261200A800AA31542291316A302100A30000306F
:10262200A40023005E082100A60023005D0821000B
:10263200A5000130A7000030A800AA315422913130
:102642005E2B6B302100AD000030AE0023005C0831
:102652002100B00023005B082100AF000130B1006F
:102662000030B200A3319F2391316F302100AD00C1
:102672000030AE0023005A082100B00023005908A0
:102682002100AF000130B1000030B200A3319F231E
:10269200913164302100AD002330AE002000690882
:1026A2002100B000200068082100AF008C30B1008A
:1026B2000030B200A3319F239131E7302100BB00EB
:1026C2003B08C300C214420887394038C20041089F
:1026D20001394211031D421542104308B30042085A
:1026E200B20098310220913120006B08A8315120AC
:1026F20091312000DC015C146F082100BB00033023
:10270200BB35FF3E031D812B3B35BC003C0820003E
:10271200DC048B1508002100CF00B030B800380867
:10272200C60021002F08B9002E08B800AE0A03190E
:10273200AF0A38088400390885000008BA003A0850
:10274200CC004C080319FA2F25304C060319B62B7E
:102752004C08B8004F088600023087003808810014
:102762000130B8003808CF07922BCA01CB01CD0146
:10277200CE01C62BCD15C22B4D14C22BCE15C22BAA
:102782004D150130AE070030AF3D2E0884002F08F2
:1027920085000008203A0319BD2B033A0319BF2B09
:1027A2000E3A0319BB2B1D3A0319C12BD82BCD1D91
:1027B200DE2BFB30CD05FF30CE052E0884002F081E
:1027C20085000008B53154259331031C1A2C2100D1
:1027D200CA01CB010A302100A7000030A8004B0833
:1027E200AA004A08A900B631A4269331210028087C
:1027F200CB002708CA002E0884002F088500000895
:10280200D03EB800FF3003180030B9003808CA07BC
:102812003908CB3D0130AE070030AF3D2E088400B1
:102822002F0885000008B53154259331031C322C42
:10283200EB2B21002E0884002F08850012002A3A73
:10284200031D322C460886008701403FCA00413FE3
:10285200CB000230B8003808C6070130AE0700309E
:10286200AF3D21002E0884002F08850012002E3A69
:10287200031D7D2C4E170130AE070030AF3D2E08F0
:1028820084002F08850012002A3A031D582C46089E
:10289200860087010108B8003808C9000230B80074
:1028A2003808C6070130AE070030AF3D132DC9010D
:1028B2002E0884002F0885000008B5315425933175
:1028C200031C132D21002E0884002F088500000808
:1028D200B8000A30B9003908A0004908B531952579
:1028E200933121003807D03EBA003A08C9000130BE
:1028F200AE070030AF3D592C2100C901132D4D17F1
:102902003A2DCD16CD173A2D490803199A2C4908AC
:10291200B800B901B81BB90345083902031D932C4D
:102922004408380203189A2C4908C400C501C41B84
:10293200C5034B084502031DA02C4A084402031894
:10294200A72C4408CA024508CB3BA92CCA01CB01DB
:10295200CD1DB82CD62C2030B8004F08860002308E
:102962008700380881000130B8003808CF07FF30EF
:10297200CA07FF30CB3D4A0A031DAC2C4B0A031990
:10298200D62CAC2C4308860087010108B8004F08FA
:10299200860002308700380881000130B80038080C
:1029A200C3070130B8003808CF070130C402003035
:1029B200C53B440A031DC32C450A031DC32CCD1974
:1029C200EF2C922B2030B8004F088600023087008F
:1029D200380881000130B8003808CF07FF30CA0735
:1029E200FF30CB3D4A0A031DE32C4B0A0319922BFD
:1029F200E32C4608860087010108B8003808CC009D
:102A02000230B8003808C607CC30B8003808C30016
:102A12000130C4000030C500852CC030CD04003028
:102A2200CE043A2D21002F08B9002E08B800AE0AB4
:102A32000319AF0A38088400390885000008CC0061
:102A4200003A0319FA2F583A0319822C3B3A031918
:102A5200FA2C073A03193A2D0D3A03193A2D063A80
:102A62000319802C1A3A03190E2D0D3A0319832CDF
:102A7200052DC0304D05B80000304E05B9003808AC
:102A82003904031D5B2D460886008701403FC700BD
:102A9200413FC8000230B8003808C607C81F662D7B
:102AA2000330CD040030CE04C709C809C70A031990
:102AB200C80A662D460886008701403FC700413F8D
:102AC200C8000230B8003808C6074908031DD82DCF
:102AD20047084804031DD82D0130B8003808C9073B
:102AE200D82DCC01CC0A05304C060319E72D4C0831
:102AF200B800B901B835B90D4C3038078400A1309F
:102B0200393D8500003FBA00013FBB003B08480247
:102B1200031D8D2D3A084702031CE72D0130B80032
:102B22003808CC07742DCC01CC0A04304C060319AA
:102B3200E72D4C08B800B901B835B90D5630380741
:102B42008400A130393D8500003FBA00013FBB003F
:102B52003B084802031DAF2D3A084702031CE72D2C
:102B62000130B8003808CC07962DCC01CC0A0630CB
:102B72004C060319E72D4C08B800B901B835B90D58
:102B8200403038078400A130393D8500003FBA004B
:102B9200013FBB003B084802031DD12D3A08470202
:102BA200031CE72D0130B8003808CC07B82D4D08BA
:102BB200C039003A0319722D403A0319B62DC03AB2
:102BC2000319942D403A0319722DE72D4C08803ACF
:102BD200B8004908803AB8020318F42D4908B80031
:102BE2003808CC00002E4908803AB8004C08803AD8
:102BF200B8020318002E4C08B8003808C9004A0869
:102C02004B040319122E03304D05B80000304E0557
:102C1200B900380839040319122EFF30CA07FF30F1
:102C2200CB3D4E1F332E4908B800B901B81BB9037A
:102C32003908803ABA004B08803A3A02031D232E23
:102C42004A0838020318302E21004908B800B90199
:102C5200B81BB9033808CA023908CB3B332E21000E
:102C6200CA01CB01C4304D05B80008304E05B90089
:102C720040303806083003193906031D462E4A082B
:102C82004B040319672EFF30602EC0304D05B8008B
:102C920008304E05B900803038060830031939066D
:102CA200031D672E4B08803AB80080303802031D9E
:102CB2005C2E03304A02031C642EFE302100CA0738
:102CC200FF30CB3D672E2100CA01CB014C08B80072
:102CD200B901B81BB9033908803ABA004B08803AE7
:102CE2003A02031D762E4A0838020318832E210069
:102CF2004C08B800B901B81BB9033808CA02390830
:102D0200CB3B862E2100CA01CB014D1DDA2E0330AA
:102D12004D05B80000304E05B900380839040319D2
:102D2200942E2D30BA2E4D1C982E2030BA2EC03043
:102D32004D05B80008304E05B9008030380608301D
:102D420003193906031DC52E3030B8004F0886001E
:102D520002308700380881000130B8003808CF07F8
:102D6200CD1AB52E7830B62E5830BC000030BD00DA
:102D72003C08B8004F0886000230870038088100FE
:102D82000130B8003808CF074A084B040319C02F96
:102D92003030B8004F0886000230870038088100C2
:102DA2000130B8003808CF07FF30CA07FF30CB3DEB
:102DB200C52E4A084B04031DCD19F32E2030B8004E
:102DC2004F08860002308700380881000130B800C1
:102DD2003808CF07FF30CA07FF30CB3D4A084B0403
:102DE200031DDF2E03304D05B80000304E05B9003B
:102DF200380839040319FF2E2D30022F4D1C0D2FD8
:102E02002030B8004F088600023087003808810061
:102E12000130B8003808CF07C0304D05B80008307F
:102E22004E05B90040303806083003193906031D33
:102E32001C2F3030B52FC0304D05B80008304E057C
:102E4200B90080303806083003193906031DC02F37
:102E52003030B8004F088600023087003808810001
:102E62000130B8003808CF07CD1A392F78303A2F01
:102E72005830BE000030BF003E08B52F0A30A8000F
:102E82000030A9004908B800B901B835B90D4C3075
:102E920038078400A130393D8500003FA000013F82
:102EA200A1004808A3004708A200A931E9219331F3
:102EB20021002108AB002008AA00A831CA209331C2
:102EC20021002808B02F4908B800B901B835B90D5A
:102ED200563038078400A130393D8500003FA000FC
:102EE200013FA1004808A3004708A200A931E92137
:102EF2009331210020080F39BA003A08C200CD1AD6
:102F0200862F4B30C000A230892F3A30C000A23049
:102F1200C1004108B9004008B800420838078400DF
:102F220039080318390A85000008B12F4908B8008A
:102F3200B901B835B90D403038078400A130393DA8
:102F42008500003FA000013FA1004808A3004708F8
:102F5200A200A931E9219331210020080739303E2E
:102F6200BA003A08CC004C08B8004F08860002307C
:102F72008700380881000130B8003808CF07FF30D9
:102F8200B8003808C907490A0319D72F4D08C039B4
:102F9200003A03193F2F403A0319972FC03A0319F9
:102FA200642F403A03193F2FB42FB42FCD1D922B1B
:102FB2004B08803AB80080303802031DE22F0130FE
:102FC2004A02031C922B20302100B8004F088600D1
:102FD20002308700380881000130B8003808CF0776
:102FE200FF30CA07FF30CB3D4A084B040319922B2E
:0E2FF200E42F4F08860002308700810108009E
:10300400210033082000D900210032082000D80014
:1030140014302100AC000030AD00AC3123249831D1
:10302400220090150E15200016082100B400340863
:103034002300CC00FF302100B40034082000DE005F
:103044002100B8010230380203184A283808B400B5
:10305400B5013408A7003508A8003930A9000030AC
:10306400AA00B631A4269831F2302100B6002230ED
:10307400B7002708360786002808373D87008101F6
:103084000130B4003408B80702303802031C282881
:10309400B8012030380203186A283808B400B50192
:1030A400B435B50DC03034078400A030353D8500FB
:1030B400003FA300013FA400B6310326983101303C
:1030C4002100B4003408B80720303802031C4F280C
:1030D4002030AE31F12698314E302100A30000306B
:1030E400A400B631032698314030AE31F126983130
:1030F4000F302100A3001C30A400B6310326983100
:103104006030AE31F126270096118B15080020009F
:10311400B000000003302000A8002808BB000130E4
:10312400BB023B0A03195929BC01E301BA017C081B
:10313400031DAF28BF283A08BA0AA80005302802A0
:10314400031808000030A3000030A2000030A100E2
:103154000130A000B631372698312830B7313627F0
:1031640098312000A8002808BE003E36A800280890
:10317400BE0042303E0203189D288B112030AC3132
:103184006F249831C930F3001A30F400B531A72503
:103194009831200030089031022098312000BD0180
:1031A40030083D020318E5283D08203E8600033020
:1031B4008700010890310220983101302000A800D6
:1031C4002808BD07D2288030AC316F2498318B1584
:1031D40020005A08031DF1282700961DEA28200024
:1031E400DA012030AC316F2498316030AC316F2477
:1031F40098312600A01E552921082000A80028087F
:103204002300D200AA318C22983173082000B50023
:103214007208B4007108B3007008B200630803199F
:103224001629B101B10A0800AA318C229831730819
:103234002000B9007208B8007108B7007008B60021
:103244003608A8003708A9003808AA003908AB00D6
:103254003209AC003309AD003409AE003509AF00C2
:10326400AC0A0319AD0A0319AE0A0319AF0A2C08F4
:10327400A8072D08A93D2E08AA3D2F08AB3D2B0811
:10328400031D4D292A08031D4D290A3028023D300B
:10329400293B031C10293C08BC0AA800043028025E
:1032A400031C972891282000B101B10A0800B1013C
:1032B400080020006F082200C6004608CE00033034
:1032C400C6004608CF00D401AB31D923993121007F
:1032D40023082300C500210022082300C400210084
:1032E40021082300C300210020082300C20022007B
:1032F4004503031D7F29FF300800AB31D9239931E1
:10330400210023082200D300210022082200D20039
:10331400210021082200D100210020082200D00031
:10332400B430C600C430C7000430C8000030C9003F
:103334004608D0024708D13B4808D23B4908D33B52
:103344002000EF017D167D1E592AAB31D923993116
:10335400210023082200D800210022082200D700DF
:10336400210021082200D600210020082200D500D7
:103374005508C6005608C7005708C8005808C900B1
:103384005009CA005109CB005209CC005309CD00A1
:10339400CA0A0319CB0A0319CC0A0319CD0A4A082D
:1033A400C6074B08C73D4C08C83D4D08C93D4908F0
:1033B400031DE429B5304602C430473B0430483B82
:1033C400031C4F2A5808D3005708D2005608D100CE
:1033D4005508D0000130D402540A031DA529D40194
:1033E400D40A0130CF024F0A031DFB297D12FF309E
:1033F4000800EE018130C6006E08343E86000230BB
:103404008700460881000130C6004608EE07200008
:103414006B082200C6006E08343E86000230870026
:10342400460881000130C6004608EE0720005C080B
:103434002200C6006E08343E86000230870046082B
:1034440081000130C6004608EE07D9015908031D62
:10345400432A59086D3E860087010108C6006E089C
:10346400343E860002308700460881000130C600E1
:103474004608EE070130C6004608D9075908031963
:103484002B2A00302100D6000030D700D801D80AFA
:10349400D9010130AB3190239931B53112259931DD
:1034A400003A0319A529B431FA249931A529220037
:1034B4004E08C60046082000EF005B080800210003
:1034C400EC006C0A031D392BED010A306D02031860
:1034D40008006D08E200E3016208A7006308A80081
:1034E4000E30A9000030AA00B631A4269A3121007A
:1034F40027080C3EE4000030283DE5006430E60077
:103504002330E7006408660786006508673D870086
:10351400811FDB2A2200EE0182302100E20022001A
:103524006E08343E86000230870021006208810064
:103534000130E20062082200EE0721006D08E2007B
:10354400E3016208A7006308A8000E30A900003058
:10355400AA00B631A4269A3121002708043EE400CB
:103564000030283DE5006430E6002330E7006408BD
:103574006607D6006508673DD700D801D80AD90187
:103584000030AB3190239A312100E801E9010F307A
:103594006902FF30031968020318DB2A0130E807C7
:1035A4000030E93D0F306902FF3003196802031C43
:1035B400D02A6D08E200E3016208A7006308A800AE
:1035C4000E30A9000030AA00B631A4269A31210099
:1035D40027080C3EE4000030283DE5006430E60096
:1035E4002330E7006408660786006508673D8700A6
:1035F40081016D08E200E3016208A7006308A800E6
:103604000E30A9000030AA00B631A4269A316430E5
:103614002100E4002330E50027086407AD002808F2
:10362400653DAE006D08E600E7016608A70067087F
:10363400A8000E30A9000030AA00B631A4269A31A1
:103644002000680821002707AF0020006908210036
:10365400283DB0000E30B1000030B200A3319F23EA
:103664009A3101302100E2006208ED07672A6C08F4
:10367400E200E3016208A7006308A8000E30A90075
:103684000030AA00B631A4269A31210027080C3E46
:10369400E4000030283DE5006430E6002330E70014
:1036A4006408660786006508673D8700811F080077
:1036B4002200EE0182302100E20022006E08343E36
:1036C4008600023087002100620881000130E20098
:1036D40062082200EE0721006C08E200E3016208A0
:1036E400A7006308A8000E30A9000030AA00B63174
:1036F400A4269A3121002708043EE4000030283D26
:10370400E5006430E6002330E70064086607D6006D
:103714006508673DD700D801D80AD9010030AB311C
:1037240090239A312100EA01EB010F306B02FF3044
:1037340003196A020318A92B0130EA070030EB3D94
:103744000F306B02FF3003196A02031C9E2B6C08B6
:10375400E200E3016208A7006308A8000E30A90094
:103764000030AA00B631A4269A31210027080C3E65
:10377400E4000030283DE5006430E6002330E70033
:103784006408660786006508673D870081016C0848
:10379400E200E3016208A7006308A8000E30A90054
:1037A4000030AA00B631A4269A3164302100E40026
:1037B4002330E50027086407AD002808653DAE0006
:1037C4006C08E600E7016608A7006708A8000E3049
:1037D400A9000030AA00B631A4269A312000680856
:1037E40021002707AF00200069082100283DB00010
:1037F4000E30B1000030B200A3319F230800AB317A
:10380400D9239C31210023082300BD002100220874
:103814002300BC00210021082300BB002100200854
:103824002300BA00D501D50A23005508031908005E
:10383400AE314B269C31003A031D782FA5318825E3
:103844009C312200DA005A08E900690303192E2C7E
:1038540002306906031D782F6F080319A02CEE01AE
:103864002000E401153064020318842C610822004E
:10387400DA00DB015A082100A20022005B082100C3
:10388400A3000630A0000030A100AB314A239C31D4
:1038940021002108A8002008A7001530A900003045
:1038A400AA00B631A4269C3100302200DC00A030EE
:1038B400DD002100270822005C07DE002100280823
:1038C40022005D3DDF002000640822005E078400C2
:1038D4005F0803185F0A85000008E0006E08343EA4
:1038E400860002308700600881000130DA005A083F
:1038F400EE070130DA005A082000E40715306402AC
:10390400031C382C01302200DA005A082000E10799
:103914000030B53163259C3120005F082200DA00B5
:103924005A082100D40001302200DB005B0820008B
:10393400E0076008B5311B259C31782F2200EB018C
:103944002300D401D40A2200E801E80A2200680313
:10395400031D782FB531EA259C3120006C08220024
:103964006B06031D0A2DBA302100AE00A130AF0052
:1039740022006B08DA000130DA35FF3E031DBE2C4D
:103984005A35033EA03E8600023087000108DB0062
:10399400DC015B082100B00022005C082100B100BA
:1039A40022006B08DD000130DD35FF3E031DD62CFF
:1039B4005D35A03E8600023087000108DE00DF018D
:1039C4005E082100B20022005F082100B30022003B
:1039D4006B08E0000130E035FF3E031DED2C60353F
:1039E400013EA03E8600023087000108E100E201AA
:1039F40061082100B400220062082100B500220001
:103A04006B08E3000130E335FF3E031D052D5E2DF9
:103A1400D3302100AE00A130AF0022006B08DA00E1
:103A24000130DA35FF3E031D132D5A35033EA03E07
:103A34008600023087000108DB00DC015B082100FE
:103A4400B00022005C082100B10022006B08DD00F8
:103A54000130DD35FF3E031D2B2D5D35A03E860074
:103A6400023087000108DE00DF015E082100B20099
:103A740022005F082100B30022006B08E00001303F
:103A8400E035FF3E031D422D6035013EA03E860019
:103A9400023087000108E100E20161082100B4005E
:103AA400220062082100B50022006B08E300013007
:103AB400E335FF3E031D5A2D6335023EA03E8600CA
:103AC400023087000108E400E50164082100B60023
:103AD400220065082100B700C83093318C239C3143
:103AE400D3302100AE00A130AF0022006B08DA0011
:103AF4000130DA35FF3E031D7B2D5A35033EA03ECF
:103B04008600023087000108DB00DC015B0821002D
:103B1400B00022005C082100B10022006B08DD0027
:103B24000130DD35FF3E031D932D5D35A03E86003B
:103B3400023087000108DE00DF015E082100B200C8
:103B440022005F082100B30022006B08E00001306E
:103B5400E035FF3E031DAA2D6035013EA03E8600E0
:103B6400023087000108E100E20161082100B4008D
:103B7400220062082100B50022006B08E300013036
:103B8400E335FF3E031DC22D6335023EA03E860091
:103B9400023087000108E400E50164082100B60052
:103BA400220065082100B700C83093318C239C3172
:103BB4007E302100AE00A230AF00D83093318C2388
:103BC4009C31AD3109259C312300D401D40A230052
:103BD40054080319A82CA53188259C312200DA0049
:103BE4005A08EA00AE314B269C3122006A03031DB9
:103BF400532FE8012300D40101302200DA005A08CF
:103C04002300D30720006C0822006B06031D682ED6
:103C1400EE012000E4011530640203185D2E6108F2
:103C24002200DA00DB015A082100A20022005B080E
:103C34002100A3000630A0000030A100AB314A23CC
:103C44009C3121002108A8002008A7001530A900F4
:103C54000030AA00B631A4269C3100302200DC00DA
:103C6400A030DD002100270822005C07DE002100CF
:103C7400280822005D3DDF002000640822005E0762
:103C840084005F0803185F0A85000008E0006E08DE
:103C9400343E860002308700600881000130DA007B
:103CA4005A08EE070130DA005A082000E4071530FC
:103CB4006402031C112E2100E7010030AC31BC2446
:103CC4009C312200DA005A08E600292F2200EE0176
:103CD400CC30DA006E08343E8600023087005A0881
:103CE40081000130DA005A08EE076B08DA0001306F
:103CF400DA35FF3E031D7A2E5A35A03E8600023087
:103D040087000108DB006E08343E8600023087001D
:103D14005B0881000130DA005A08EE076B08DA000C
:103D24000130DA35FF3E031D932E5A35013EA03E85
:103D34008600023087000108DB006E08343E8600EE
:103D4400023087005B0881000130DA005A08EE0770
:103D54006B08DA000130DA35FF3E031DAD2E5A350B
:103D6400023EA03E8600023087000108DB006E0898
:103D7400343E8600023087005B0881000130DA009F
:103D84005A08EE070430DA005A082000E40019301B
:103D9400640203181E2F61082200DA00DB015A08AE
:103DA4002100A20022005B082100A3000630A0002D
:103DB4000030A100AB314A239C3121002108A80026
:103DC4002008A7001530A9000030AA00B631A426A7
:103DD4009C3120006408FC3E2200DC00FF30031804
:103DE4000030DD000030DE00A030DF005C085E073C
:103DF400E0005D085F3DE1006008210027078400C2
:103E0400220061082100283D850000082200E2000C
:103E14006E08343E8600023087006208810001305B
:103E2400DA005A08EE070130DA005A082000E407E5
:103E340019306402031CCD2E0030A43116249C31A9
:103E44002200DA005A08E700670803192F2F01300F
:103E5400DA005A082000E007392F14302100D0007E
:103E6400A230D100D201D301A931B5219C31200067
:103E74005F082200DA005A082100D40020006008FC
:103E8400B5311B259C31DC302100AC000530AD0080
:103E9400AC3123249C3122006F08B431F1249C31CD
:103EA400E92D023022006A06031DE92D2000620874
:103EB400FF3E2200DA00FF3003180030DB005B080D
:103EC400803ADC0080305C02031D6A2F6B085A02C2
:103ED40003186F2F2200EB01752F22006B08013E9F
:103EE400DA005A08EB002300D401E92D2300570817
:103EF4000319872F22006F08031D872FC501FF3088
:103F040099315B219C312300D701AB31D9239C31FA
:103F1400210023082300C100210022082300C0003F
:103F2400210021082300BF00210020082300BE0037
:103F34003E082200DA0023003F082200DB002300B1
:103F440040082200DC00230041082200DD00230099
:103F54003A092200DE0023003B092200DF0023008F
:103F64003C092200E00023003D092200E100DE0AB2
:103F74000319DF0A0319E00A0319E10A5E08DA07E4
:103F84005F08DB3D6008DC3D6108DD3D5D08031D25
:103F9400D32F8D305A0286305B3B47305C3B031C89
:103FA400162C6F080319162CB531EA259C312830DC
:103FB4002100AE00A230AF0020006A082200DA001F
:103FC400DB015A082100B00022005B082100B10087
:103FD400C83093318C239C31AD3109259C31D030CC
:103FE4002100AC000730AD00AC3123249C31230008
:103FF400D5010130B431F1249C31162C2034B23473
:10400400203420342034B23420342034B2342034E8
:10401400B23420342034203420342034B2342034D8
:10402400B2340D340A34B2342034B2342034B234CD
:104034002034B234203420342034B23420342034B8
:10404400B23420342034B234203420340D340A34D1
:10405400B23420342034B23420342034B234203406
:10406400B2342034B23420342034B23420342034F6
:10407400B2342034B2340D340A34B234203420340F
:10408400B23420342034B2342034B23420342034D6
:10409400B2342034B2342034B23420342034B23434
:1040A4000D340A34B23420342034B2342034203471
:1040B400B2342034B234203420342034B2342034A6
:1040C400B234203420342034B2340D340A34203451
:1040D400203420342034203420342034203420343C
:1040E400203420342034203420342034203420342C
:1040F400203420340D340A34B234B234B23420348F
:104104002034B234B234B234B2340D340A34B2345A
:1041140020342034B2342034B234203420342034D7
:104124000D340A34B23420342034B2342034B2345E
:10413400B234B234B2340D340A34B23420342034BC
:10414400B2342034B2342034203420340D340A34D0
:10415400B234B234B23420342034B234B234B2344F
:10416400B2340D340A342034203420342034203442
:1041740020342034203420340D340A342E340034D6
:104184008434023409340434093406340C340834D5
:10419400C1340A3477340C3464340E343234103479
:1041A40000341234003414340034163438341834DF
:1041B400C8341A340D341C3400341E3472342034A0
:1041C4003834223438342434073426340034283440
:1041D40000342A3469342C3481342E347E3430341F
:1041E40096343234F8343434883436344034383401
:1041F40000343A34E8343C3400343E3454345434D7
:10420400543454345434543454345434543454346A
:104214005434543454345434553455345534553456
:104224005534553455345534553455345534553442
:104234005534553455345534553455342D3430347F
:104244003334353438343B343E34413443344634E7
:1042540049344C344F34513409340C340F3412344F
:10426400153417341A341D342034233425342834B7
:104274002B342E343134333436343934013400346D
:104284000834003440340034003402340034103430
:1042940000348034013400340A340034643400348B
:1042A400E834033410342734013400341034003437
:1042B400003401340034103443346F346E346E34BB
:1042C40065346334743469346E3467342034503460
:1042D400653465347234203420346F346E342034C1
:1042E4004334683461346E346E3465346C34203451
:1042F4002534643420340034203443346F346E3431
:104304006E34653463347434653464342034503426
:10431400653465347234203420346F346E34203480
:104324004334683461346E346E3465346C34203410
:10433400253464340034533469346D3470346C344B
:1043440065342034533454344134523420342034CA
:104354002034203420344D34523446343834393403
:104364005834413420344E346F346434653400346A
:104374005234423430343A342534303432346434B0
:104384002D342534303432347834253430343234D6
:10439400783425343034323478342D346D34653403
:1043A40000345234423430343A34253430343234E4
:1043B40064342D3425343034323478342534303474
:1043C4003234783425343034323478340034203480
:1043D40041346434643472346534733473343A3439
:1043E400253430343234783425343034323478342B
:1043F40025343034323478340034523465347334F0
:1044040074346F34723469346E34673420344E3407
:104414006534743477346F3472346B34203421341B
:104424002134003444346134743461345F3453349B
:1044340065346E34643469346E3467345F344634BE
:10444400613469346C3421342134003445344E34BD
:1044540044345F3444344534563449344334453465
:10446400533420343A342534303432346434003410
:1044740030343134323433343434353436343734FC
:104484003834393441344234433444344534463482
:104494000034303431343234333434343534363413
:1044A40037343834393461346234633464346534D1
:1044B400663400345234583420344D346534733403
:1044C400733461346734653473343A3420342534B6
:1044D4003334643400345434583420344D34653423
:1044E4007334733461346734653473343A34203448
:1044F40025343334643400345234423432343A345C
:1045040020344334683461346E3467346534203481
:104514006E346F3464346534003444346134743438
:10452400613420345034613463346B34653474340E
:104534002034663472346F346D340034203455348E
:104544006E346934633461347334743420344634DF
:0C455400613469346C3465346434003424
:104562006400800101310130FE020030FF3B7F0810
:104572007E0403190034B22A2200EE0123088600C9
:10458200240887000108A5006E08343E8600023028
:104592008700250881000130A5002508EE072308C1
:1045A20086002408870041310108A5006E08343EC8
:1045B200860002308700250881000130A500250809
:1045C200EE07230886002408870042310108A5006F
:1045D2006E08343E860002308700250881000130D3
:1045E200A5002508EE070330A5002508A900233001
:1045F200290203181A2B2908A500A601250820075D
:1046020086002608213D87000108A7006E08343E77
:10461200860002308700270881000130A5002508A6
:10462200EE070130A5002508A90723302902031C43
:10463200FC2A2100E70122002208AC31BC24A2316D
:104642002200A5002508A8002808031D2A2BB53141
:1046520030252200280808002200DB005B0803192D
:104662003B2B013091319D21A33122006F08B431DF
:10467200F12408008F130F13003091319D21A331D3
:1046820020006E08A8315120A331003A031D4E2BA1
:1046920020006E0888310020A3310030A931262184
:1046A200A3312100D70120006E08B7317427A3314E
:1046B2002200C501FF3099315B21A3312200DA00CB
:1046C2005A08DC005C0A0319712B2100D701D70AB2
:1046D20020006E08B7317427A3312200EF01852B29
:1046E2000A30DA005A082100AB000030AF00003077
:1046F200AE000030AD000030AC000030AA311E2206
:10470200A3312200EF01EF0A6F302100AD0001302A
:10471200AE00230064082100B000230063082100DA
:10472200AF000130B1000030B200A3319F23A331AA
:1047320022008F176F08B431F12408002100B8015C
:1047420000308B190130B7008B1122008C1105301B
:10475200B531D325A331B5310425A3312100B300EE
:104762003308B80022008C1580310220A3312100C9
:104772003818A62B22008C110630B531D325A3316F
:1047820022008C1580310220A33122008C110230CC
:10479200B531D325A33121003008B531D325A3315A
:1047A20021002F08B531D325A3312100B8013108EA
:1047B200320403190D2C2D0886002E0887000108EB
:1047C200B531D325A33101302100AD070030AE3D14
:1047D2000130B1020030B23B0130B3003308B807F8
:1047E20038082F07B30030080318300AB4003F30EE
:1047F2003305B50000303405B60035083604031D14
:10480200D82B22008C1521003808B300B4013308DC
:10481200AF073408B03DA62B22008C152100370CBF
:10482200031C8B1103188B1508002200D6002000F0
:10483200E50168302100D6002330D700D801D80A1C
:1048420022005608C50045082100D9000030AB31CE
:104852009023A4312200C6004608CD00AB31D923F3
:10486200A431210023082200D100210022082200C5
:10487200D000210021082200CF00210020082200C0
:10488200CE0020006508031D8C2CAB31D923A43146
:10489200210023082200D500210022082200D40092
:1048A200210021082200D300210020082200D2008A
:1048B200B5311225A43122005208C5005308C600A2
:1048C2005408C7005508C8004E09C9004F09CA005C
:1048D2005009CB005109CC00C90A0319CA0A0319AD
:1048E200CB0A0319CC0A4908C5074A08C63D4B083A
:1048F200C73D4C08C83D4808031D882C4708031DC6
:10490200882C25304502F430463B031C422C200003
:1049120065030319422C650808002100B301B401A4
:104922000A3034020318072D3408AD00AE012D08F9
:10493200A7002E08A8000E30A9000030AA00B63148
:10494200A426A43121002708043EAF000030283DF0
:10495200B0006430B1002330B2002F083107860066
:104962003008323D87000108031DFB2C3408AD00DE
:10497200AE012D08A7002E08A8000E30A9000030B5
:10498200AA00B631A426A43121002708053EAF00B3
:104992000030283DB0006430B1002330B2002F084F
:1049A200310786003008323D87000108031DFB2CC9
:1049B2003408AD00AE012D08A7002E08A8000E3065
:1049C200A9000030AA00B631A426A431210027088C
:1049D200063EAF000030283DB0006430B100233005
:1049E200B2002F08310786003008323D87000108E7
:1049F2000319FF2C0130AD002D08B3070130AD00C3
:104A02002D08B4070A303402031C952C3308080021
:104A12002100A701A70A2300CA01CB01023021000D
:104A2200A0000030A100DF30A2000130A3008731D6
:104A3200D927A5312100A6002608A7050130A0002C
:104A42000030A100DB30A2000130A3008731D9275A
:104A5200A5312100A6002608A7050130A0000030DC
:104A6200A100D930A2000130A3008731D927A53196
:104A72002100A6002608A7058C30A0000030A10066
:104A82006830A2000030A3008731D927A531210068
:104A9200A6002608A7050430A0000030A100E130DE
:104AA200A2000130A3008731D927A5312100A60039
:104AB2002608A7050130A0000030A100DD30A200C9
:104AC2000130A3008731D927A5312100A60026088D
:104AD200A7050130A0000030A100E330A2000130A0
:104AE200A3008731D927A5312100A6002608A705F2
:104AF2000130A0000030A100E530A2000130A30087
:104B02008731D9272100A6002608A7050800200022
:104B12000D18A42D5D08031D062EDD01DD0AAB3143
:104B2200D923210023082300B500210022082300F5
:104B3200B400210021082300B30021002008230033
:104B4200B200013008008C1ABF2D5D08031D062E2D
:104B5200DD01DD0AAB31D923210023082300B50092
:104B6200210022082300B400210021082300B30001
:104B7200210020082300B20002300800AB31D92303
:104B8200A53121002308BA002208B9002108B80083
:104B92002008B7003708AB003808AC003908AD0070
:104BA2003A08AE00230032092100AF002300330986
:104BB2002100B000230034092100B100230035098F
:104BC2002100B200AF0A0319B00A0319B10A03198E
:104BD200B20A2F08AB073008AC3D3108AD3D3208B0
:104BE200AE3D2E08B6002D08B5002C08B4002B08E7
:104BF200B3003608031D042E3508031D042E403071
:104C02003402031C062E2000DD01003008002100C2
:104C1200AA010430A6002608AC0023302C02031897
:104C2200A92E2C080339031DA02E2C08033EA60032
:104C3200003003180130A7002708803AA80080300E
:104C42002802031D262E233026020318A02E21003F
:104C52002C08033EA600003003180130A7002608E6
:104C6200240786002708253D87000108A800280898
:104C7200AB002B08A6002B08A7000130A735FF3E8A
:104C8200031D3F2E2735033EA03E860002308700DB
:104C9200260881002C08A600A70126082407860002
:104CA2002708253D87000108A8002B08A90001302C
:104CB200A935FF3E031D592E2935A03E860002303C
:104CC2008700280881002C08013EA6000030031846
:104CD2000130A7002608240786002708253D870003
:104CE2000108A8002B08A9000130A935FF3E031DC9
:104CF200762E2935013EA03E860002308700280824
:104D020081002C08023EA600003003180130A700E3
:104D12002608240786002708253D87000108A800E9
:104D22002B08A9000130A935FF3E031D942E293519
:104D3200023EA03E86000230870028088100013032
:104D42002100A6002608AC0723302C02031C122ED9
:104D5200AD3157250800243021005002031CB32E28
:104D6200003008004C1D0314031CBA2E21004C17FE
:104D7200BC2E21004C13CC174C080339013A0319FD
:104D8200CC174C08D10051082600A00023004C0883
:104D92002100D10051082600A10001302100D100DC
:104DA20051082300CC0702302100D1005108D40061
:104DB2004C1F012FD5012000580C2100D100D10C2D
:104DC200510C0F3955020318012F5508D100D20199
:104DD20051084D07860052084E3D87000108D30056
:104DE2005408203E860003308700530881000130BA
:104DF200D1005108D4070130D1005108D507DC2E6B
:104E0200CC1F292FD5012000580C2100D100D10C34
:104E1200510C0F3955020318292F55082000590744
:104E22002100D10051088600013087000108D2001C
:104E32005408203E8600033087005208810001306A
:104E4200D1005108D4070130D1005108D507042FF1
:104E5200D501500855020318472F55084F07D100B6
:104E620051088600023087000108D2005408203E13
:104E7200860003308700520881000130D1005108BA
:104E8200D4070130D1005108D5072A2F0030200065
:104E9200D81801302100B400540888311D200800C0
:104EA2002100B50120006A08210035020318F92FFC
:104EB2003508AF00B0012F08A7003008A8000E3057
:104EC200A9000030AA00B631A426A7312100270884
:104ED2000C3EB1000030283DB2006430B3002330F4
:104EE200B4003108330786003208343D8700811F41
:104EF200F42F3508AF00B0012F08A7003008A80032
:104F02000E30A9000030AA00B631A426A731210034
:104F12002708043EB1000030283DB2006430B300DF
:104F22002330B4003108330786003208343D87004D
:104F32002D0884002E088500013100080106031D9A
:104F4200F42F3508AF00B0012F08A7003008A800E1
:104F52000E30A9000030AA00B631A426A7312100E4
:104F62002708053EB1000030283DB2006430B3008E
:104F72002330B4003108330786003208343D8700FD
:104F82002D0884002E088500023100080106031D49
:104F9200F42F3508AF00B0012F08A7003008A80091
:104FA2000E30A9000030AA00B631A426A731210094
:104FB2002708063EB1000030283DB2006430B3003D
:104FC2002330B4003108330786003208343D8700AD
:104FD2002D0884002E088500033100080106031DF8
:104FE200F42F350808000130AF002F08B507532F02
:104FF200350820006A06031D0800FF300800210062
:105002008E128E11200091110800023020005E02E3
:10501200031808005E082100AD00AE012D08A700AC
:105022002E08A8003930A9000030AA00B631A42603
:10503200F2302100AF002230B00027082F0786008F
:105042002808303D87008101FF30AD002D08200087
:10505200DE0008002100A600220010110330B53145
:10506200D325A83121002308B531D325A831210049
:10507200240803194E28B5310425A8312100A500C2
:105082002608860001308700250881000130A5002E
:105092002508A6070130A4023828220010150800AE
:1050A2002100BA00A8013A08AE319D26A831003A83
:1050B2000319762821003A08B90039082000EB00CC
:1050C2006B302100AD000030AE0023005C082100EF
:1050D200B00023005B082100AF000130B1000030B6
:1050E200B200A3319F2301300800003008002100E4
:1050F200B5010830350203189E283508B100B20107
:1051020031082F0786003208303D87003508B3008A
:10511200B40133082D07840034082E3D85000008B1
:10512200010603199628003008000130B100310849
:10513200B50708303502031C7E2801300800220022
:10514200EE017A302100E20022006E08343E860031
:10515200023087002100620881000130E20062080B
:105162002200EE0768302100D6002330D700D80194
:10517200D80AD9010030AB319023A8312100E200D6
:105182006208E3006308031D08002300D701D70A61
:1051920008002100280829040319F228AD01AD0AEC
:1051A200A91BDD280130A835A90D890BD4280130AF
:1051B200AC002C08AD07D12829082B02031DE328D7
:1051C20028082A02031CE9282808AA022908AB3B5E
:1051D2000130A936A80C890BEA280130AD02031D63
:1051E200DD282B08A9002A08A80008000030FB00CF
:1051F2000030FA000030F9000030F800701C092974
:105202007408F8077508F93D7608FA3D7708FB3D02
:105212000130F435F50DF60DF70D890B0A29013031
:10522200F336F20CF10CF00C890B1129730872049D
:1052320071047004031DFF287B08F3007A08F20052
:105242007908F1007808F00008002100BB00043062
:105252003B02031808003B08B90039082000EF00A0
:105262006F082100B9000430B935890B35292000B7
:105272005C080F3921003904BA003A082000DC002A
:105282006F302100AD000030AE0023005A0821002B
:10529200B000230059082100AF000130B1000030F6
:1052A200B200A3319F23080000302100AB00003080
:1052B200AA000030A9000030A800201C6829240898
:1052C200A8072508A93D2608AA3D2708AB3D0130BD
:1052D200A435A50DA60DA70D890B69290130A336AA
:1052E200A20CA10CA00C890B702923082204210412
:1052F2002004031D5E292B08A3002A08A200290806
:10530200A1002808A00008002100D300B531EA2539
:10531200A93105302100AC000030AD00AC312324AE
:10532200A9316D302100AE00A230AF005308D10088
:10533200D2015108B0005208B100C83093318C2319
:10534200A9315C302100AE00A230AF005008D1007C
:10535200D2015108B0005208B100D83093318C23E9
:10536200A931AD3109250800B531EA25A931053049
:105372002100AC000030AD00AC312324A931210062
:105382005108AF005008AE005208D400D5015408AD
:10539200B0005508B100C83093318C23A931AD312A
:1053A2000925A9312100530803190800D601083044
:1053B200560203180800FA30AC000030AD00AC31E0
:1053C2002324A93101302100D4005408D607D8295A
:1053D2002100A501A601200821040319192AA70109
:1053E200A70AA11BFE290130A035A10D890BF529C1
:1053F2000130A4002408A707F2290130A535A60D23
:10540200890BFF2921082302031D092A20082202F1
:10541200031C102A2008A2022108A33B25140130F4
:10542200A136A00C890B112A0130A702031DFE2907
:105432002608A1002508A00008002100B000472A84
:10544200AB31D923AA31210023082300C500210052
:1054520022082300C400210021082300C3002100E8
:1054620020082300C200AB31D923210023082300E6
:10547200C900210022082300C800210021082300BE
:10548200C700210020082300C600080021003008C0
:10549200003A0319212A013A0319532A033A03193C
:1054A200532A532A080000308B1901302100AA0028
:1054B2008B1122008C110330B531D325AA31210082
:1054C2002608B531D325AA3121002508B531D325C7
:1054D200AA312100270828040319832AB53104259B
:1054E200AA312100A9002308860024088700290880
:1054F20081000130A3070030A43D0130A702003033
:10550200A83B6A2A22008C1521002A0C031C8B114D
:1055120003188B150800F901FA012100111000305F
:10552200200011180130F6001608F4007408F70084
:105532001708F4007408F800003011180130F50063
:1055420076087506031D902A76080319B42A1110ED
:105552000130F4007408E6076608031DB42A01301E
:10556200F4007408E7076608F4007408F90767088E
:10557200F4007408FA07210011147A08F30079087C
:10558200F2007808F1007708F0000800703021007E
:10559200990023008C01FF3021008C00FF308D0028
:1055A200FF308E008F0122008C018D018E018F0150
:1055B20021000D148C168F130F138D160E168E12DA
:1055C2008E11C030240094002130950021009011EA
:1055D2000E118F130F13270096118B1522009015B1
:1055E2000E154030240094002130950027009515B7
:1055F20021008C1122008C1521001011220010159F
:105602008B170B178B15AF3148270800B531EA25E8
:10561200AB318F302100AE00A230AF00C8309331E1
:105622008C23AB31E9302100AE00A130AF0050082D
:105632008600510887000108D200D3015208B00049
:105642005308B10050088600510887004131010813
:10565200D400D5015408B2005508B30050088600A2
:105662005108870042310108D600D7015608B4001C
:105672005708B500D83093318C23AB31AD310925B1
:10568200AB31B0302100AC000430AD00AC3123248A
:1056920008002100A601A31F552BA209A309A20AF3
:1056A2000319A30AA601A60AA11F5C2BA009A1093E
:1056B200A00A0319A10A200821040319832BA501BA
:1056C200A50AA11B6E2B0130A035A10D890B652BFC
:1056D2000130A4002408A507622B21082302031D20
:1056E200742B20082202031C7A2B2008A202210814
:1056F200A33B0130A136A00C890B7B2B0130A50204
:10570200031D6E2B260803198B2BA209A309A20ADB
:105712000319A30A2308A1002208A00008002100FF
:10572200DE00DF0158080319982B0130992B003055
:10573200DA005F085A06FC395A06DF005E08031DCC
:10574200A52B2100DF16A72B2100DF125E080139ED
:105752005F11031D5F1559080139DF11031DDF15A4
:105762005E08031DB72B21005F17B92B21005F13C1
:10577200DF175708E1005608E0005F08CC00600818
:10578200CD006108CE003430DA005A08CF00220082
:105792006E082100DB005B08D000A631AC26210098
:1057A200DC005C08DD002200EE0121005D0808003B
:1057B2002100A901AA0111100030200011180130A6
:1057C2002100A600200016082100A4002408A7003A
:1057D200200017082100A4002408A800003020009F
:1057E200111801302100A50026082506031DDD2B16
:1057F200260803190D2C2000111001302100A400ED
:1058020024082000E6076608031D0D2C0130210044
:10581200A40024082000E707200066082100A40055
:105822002408A907200067082100A4002408AA0769
:1058320011142A08A3002908A2002808A100270899
:10584200A000080021002C08A0002D08A100A20140
:10585200A3010030A7000030A6000930A500C43023
:10586200A400A9315521AC3121002308B10022083E
:10587200B0002108AF002008AE005630AE07FF305E
:10588200AF3DFF30B03DFF30B13DB11B08003108E4
:10589200031D552C3008031D552C2F08031D552CB4
:1058A200C4302E02031C0800B11B08003108031D7E
:1058B200642C3008031D642C2F08031D642C013056
:1058C2002E02031C08000000D9302100AE07FF3071
:1058D200AF3DFF30B03DFF30B13D552CF700AA2C53
:1058E2008E30F3000030F400B531A7258030F60089
:1058F20076082300CF0008006E30F3000030F40079
:10590200B531A7256030F60076082300CF000800E5
:105912004E30F3000030F400B531A7254030F600D8
:1059220076082300CF0008002E30F3000030F40088
:10593200B531A7252030F60076082300CF000800F5
:105942000E30F3000030F400B531A7252300CF015B
:1059520008007708003A0319A12C203A0319952C64
:10596200603A0319892C203A03197D2CE03A031975
:10597200712CBB2C08002100EF006F08E800E90140
:105982006808A7006908A8000E30A9000030AA0024
:10599200B631A426AC31210027080C3EEA000030C3
:1059A200283DEB006430EC002330ED006A086C0700
:1059B20086006B086D3D8700811F072D6F08E80088
:1059C200E9016808A7006908A8000E30A9000030A4
:1059D200AA00B631A426AC3121002708043EEA0011
:1059E2000030283DEB006430EC002330ED006A0803
:1059F2006C07E2006B086D3DE300E401E40A67080E
:105A0200EE006E08E500B5314625080000300800BA
:105A12008030B731DB27AD312100B40110303402C0
:105A22000318302D3408C83E860002308700010872
:105A3200031D1D2D2030242D21003408C83E860070
:105A4200023087000108B731B727AD31013021009C
:105A5200B3003308B40710303402031C132DC030D6
:105A6200B731DB27AD3110302100B3003308B40069
:105A720020303402031808003408C83E8600023081
:105A820087000108031D472D20304E2D21003408C8
:105A9200C83E8600023087000108B731B727AD3112
:105AA20001302100B3003308B407392D2100A201CF
:105AB20022006F08031D08002100A30120006208D4
:105AC200013E2100A000003003180130A10021088E
:105AD200803A803C031D6F2D2008230203189F2D5E
