:04000000CDEF01F04F
:100008005382E1CF4DF0E2CF4EF0D9CF4FF0DACFA7
:1000180050F0F3CF51F0F4CF52F0F0B4F0AAA0D1E1
:10002800600E251801E097D1280E49EC13F0496EAF
:10003800D8904930266E26C0D0F08B94CCEC14F0C2
:1000480000016A6F8B846B6B6B513E0D000EF324BD
:10005800D96E020EF420DA6EDFA005D000016B2BFA
:10006800010E6B65F1D7020E00016A1903E1010E5A
:10007800676F01D0676B3C0E6A6107D06A5105E073
:10008800010E6B6512D0675110E11A0E49EC13F09E
:1000980007D08B94CCEC14F08B841A0E49EC13F037
:1000A8000001626F62B3F5D759D1686B6AC060F01E
:1000B800616B4DD16007D8A06107675108E08B9448
:1000C8006851630FD96EDA6ACCEC14F016D08B94B1
:1000D8006B513E0D000E496E020E4A6E492A000E03
:1000E8004A22F3504926F4504A2268514924D96ECD
:1000F800000E4A20DA6ECCEC14F0DF6E0001682B9B
:100108008B846A51685D01E222D1675123E0635113
:10011800030B020A07E12950641901E01FD1010EFF
:10012800D76F1CD1010E6B6501D0AFD76B513E0D57
:10013800010EF324D96E020EF420DA6E63C0DFFFDD
:100148006B513E0D020EF324D96E020EF420DA6EC6
:1001580064C0DFFF6B513E0D3D0EF324D96E020ED5
:10016800F420DA6E6AC0DFFF69696B513E0D010E3B
:10017800F324D96E020EF420DA6EDFAC31D0000120
:100188006C6B26D0C6516C25D96EDA6A6B513E0D60
:10019800000E4A6E020E4B6E030E4A26000E4B22CC
:1001A800F3504A26F4504B226C514A24E16E000E5B
:1001B8004B20E26EDE50E6180AE06B513E0D3D0E14
:1001C800F324D96E020EF420DA6EDF6A5ED76C2B48
:1001D800C531E832E8320F0B496E49506C5DD2E305
:1001E80000016B513E0D010EF324D96E020EF4206E
:1001F800DA6EDFAA37D06C6B000E6C25D96EDA6A1E
:10020800010EDA226C51630FE16EE26ADFCFE7FF7D
:100218006C2B010E6C65F0D7060E0101006F000112
:100228006B513E0D020EF324D96E020EF420DA6EE5
:10023800DF500101016FF094356A020E0CEC0CF0EE
:1002480000016C6B6C51630FD96EDA6A000E6C2575
:10025800E16EE26A010EE222DFCFE7FF6C2B010EAE
:100268006C65F0D700016C6B6C51060DF350010FF3
:10027800D96EDA6ADF5022E06B513E0D020EF3248C
:10028800D96E020EF420DA6E6C51060DF350020F8F
:10029800E16EE26ADE50E61811E1ABEC11F06C5148
:1002A800060DF350030FD96EDA6A2BC0DEFF2CC09F
:1002B800DEFF2DC0DEFF2EC0DEFF10D069290AE167
:1002C8006C51060DF350010FD96EDA6ADF5002E166
:1002D8006CC069F06C2B040E6C65C6D7040E6C6597
:1002E8003DD0050E696128D06951060DF350010F04
:1002F800D96EDA6A010EDF6E6B513E0D020EF324E1
:10030800D96E020EF420DA6E6951060DF350020F11
:10031800E16EE26ADFCFE7FFABEC11F06951060D41
:10032800F350030FD96EDA6A2BC0DEFF2CC0DEFF54
:100338002DC0DEFF2EC0DEFF6B513E0D000EF324F4
:10034800D96E020EF420DA6E0201DF8007D0605108
:10035800611104E0AFD6010E0001C96FF09400F0FE
:100368009EB09DA006D09E902A2A2A5002E1000144
:10037800D92B92EC14F052C0F4FF51C0F3FF50C0D7
:10038800DAFF4FC0D9FF4EC0E2FF4DC0E1FF5392E4
:1003980011002BEF11F07D0E936F78D3250E99196C
:1003A80009E079C0D9FF7AC0DAFF99C0DFFF794B3D
:1003B8007A2B6CD3976B986B9A6B9B6B09D09A8747
:1003C80005D09A8103D09B8701D09A857B4B7C2BE3
:1003D8007BC0F6FF7CC0F7FF0800F550200AF1E06B
:1003E800030AF1E00E0AEBE01D0AEFE09AB79A95CE
:1003F8007BC0F6FF7CC0F7FF0800F55019EC14F03D
:100408002EE3976B986B97C06DF098C06EF0706B89
:100418000A0E6F6FB0EC13F06DC097F06EC098F0D5
:10042800D00E856F86697BC0F6FF7CC0F7FF080099
:10043800F550876F886B85518727865188238751A8
:100448009727885198237B4B7C2B7BC0F6FF7CC079
:10045800F7FF0800F55019EC14F014E3D4D77BC06B
:10046800F6FF7CC0F7FF0800F5502A0A0BE193510C
:10047800D96EDA6ADECF97F0DDCF98F0020E9327B7
:100488007B4B7C2B7BC0F6FF7CC0F7FF0800F55048
:100498002E0A30E19B8D7B4B7C2B7BC0F6FF7CC00A
:1004A800F7FF0800F5502A0A0AE19351D96EDA6A73
:1004B800DF50966F020E93277B4B7C2B8AD0966B6E
:1004C8000FD07BC0F6FF7CC0F7FF0800F5CF85F0A2
:1004D80096510A0DF3508525D00F966F7B4B7C2BD8
:1004E8007BC0F6FF7CC0F7FF0800F55019EC14F04C
:1004F80070E3E7D7966B6DD09A8D88D09A8B9A8FD8
:1005080085D096510FE096C085F0866B85BF86072B
:100518009151855D9251865905E29651916F926B82
:1005280091BF92079751915D9851925905E2915167
:10053800975F9251985B02D0976B986B9AB71DD0D2
:1005480008D079C0D9FF7AC0DAFF200EDF6E794B68
:100558007A2B9707D8A098079729F3E198290DE0F7
:10056800F0D79051D96EDA6A79C0E1FF7AC0E2FF1C
:10057800DFCFE7FF902B794B7A2B9107D8A0920712
:100588009129EFE19229EDE19AA780D208D079C0AC
:10059800D9FF7AC0DAFF200EDF6E794B7A2B9707E6
:1005A800D8A098079729F3E1982901E16FD2EFD7EE
:1005B8009351D96EDA6ADF50996F020E9327990E1C
:1005C800906F000E926F010E916F9BD7C00E9A1319
:1005D8001DD07BC0F6FF7CC0F7FF7B4B7C2B08004F
:1005E800F5CF99F0995101E15DD2580A87E03B0AAD
:1005F800DFE0070A0BE00D0A09E0060A01E17CD7F3
:100608001A0AE4E00D0A01E17AD7D9D79AC085F031
:10061800C00E851712E19351D96EDA6ADECF94F0D5
:10062800DDCF95F0020E932795AF10D0030E9A13E5
:10063800946D951FD8B0952B09D09351D96EDA6A6D
:10064800DECF94F0DDCF95F0020E9327965147E167
:100658009451951144E1962B42D0010E996F050EE5
:10066800991946E09951020D9F0EF324F66EFE0E7D
:10067800F420F76E0900F550945D0900F55095597E
:1006880037E3992BECD7010E996F040E991930E0D6
:100698009951020DA90EF324F66EFE0EF420F76EA2
:1006A8000900F550945D0900F550955921E3992BFF
:1006B800ECD7010E996F060E99191AE09951020D9F
:1006C800930EF324F66EFE0EF420F76E0900F55033
:1006D800945D0900F55095590BE3992BECD79A5185
:1006E800C00BBBE0400AE5E0C00ACDE0400AB5E037
:1006F8009951800A856F9651800A855D03E296C0FC
:1007080099F009D09651800A856F9951800A855DC4
:1007180002E299C096F09751981108E09AC085F0C6
:10072800030E851703E09707D8A098079BAD13D051
:10073800800E96BF7F0E856F9751965D9851800AFF
:10074800855907E29651975F000E96BFFF0E985B9A
:1007580002D0976B986BC40E856F080E866F9AC08F
:1007680087F09BC088F08551871786518817400EFF
:1007780087190AE1080E881907E19751981124E0B2
:100788009707D8A0980720D0C00E856F080E866FEF
:100798009AC087F09BC088F08551871786518817C3
:1007A800800E871911E1080E88190EE198BF0AD04A
:1007B800985103E1030E975D05E3FE0E9727FF0EA0
:1007C800982302D0976B986B800E99BF7F0E856F28
:1007D8009751995D9851800A855907E29951975F19
:1007E800000E99BFFF0E985B02D0976B986B9AA585
:1007F8004FD09AC085F0030E851709E079C0D9FF5C
:100808007AC0DAFF2D0EDF6E794B7A2B31D09AA1A0
:1008180006D079C0D9FF7AC0DAFF200EF4D7C00E0F
:10082800856F080E866F9AC087F09BC088F0855147
:10083800871786518817800E87191AE1080E8819BC
:1008480017E179C0D9FF7AC0DAFF300EDF6E794B35
:100858007A2B9ABB03D08B6B780E02D08B6B580E19
:100868008A6F79C0D9FF7AC0DAFF8AC0DFFFCCD798
:100878009751981101E1F2D079C0D9FF7AC0DAFF17
:10088800300EDF6E794B7A2B9707D8A09807F0D7F0
:100898009751981110E09AB70ED079C0D9FF7AC055
:1008A800DAFF200EDF6E794B7A2B9707D8A09807CE
:1008B80097519811F2E19AC085F0030E851709E067
:1008C80079C0D9FF7AC0DAFF2D0EDF6E794B7A2B0B
:1008D80008D09AA106D079C0D9FF7AC0DAFF200ED5
:1008E800F4D7C00E856F080E866F9AC087F09BC03C
:1008F80088F08551871786518817400E87190CE1B3
:10090800080E881909E179C0D9FF7AC0DAFF300EDC
:10091800DF6E794B7A2BA2D0C00E856F080E866FDA
:100928009AC087F09BC088F0855187178651881731
:10093800800E87191BE1080E881901E08FD079C055
:10094800D9FF7AC0DAFF300EDF6E794B7A2B9ABB6B
:1009580003D08D6B780E02D08D6B580E8C6F79C0DA
:10096800D9FF7AC0DAFF8CC0DFFFD3D777D0965192
:10097800020D9F0EF324F66EFE0EF420F76E0900AA
:10098800F5CF6FF00A00F5CF70F094C06DF095C008
:100998006EF0D2EC11F06DC074F06EC075F0776B2C
:1009A8000A0E766F7BEC12F0745145D094C06DF04E
:1009B80095C06EF09651020DA90EF324F66EFE0E48
:1009C800F420F76E0900F5CF6FF00A00F5CF70F04C
:1009D800D2EC11F06D510F0B896F9ABB04D09A0EAF
:1009E8008E6FFF0E03D0890E8E6FFF0E8F6F8951A9
:1009F8008E25856F000E8F21866F85C0F6FF86C015
:100A0800F7FF0800F5CF99F022D094C06DF095C09B
:100A18006EF09651020D930EF324F66EFE0EF4203E
:100A2800F76E0900F5CF6FF00A00F5CF70F0D2EC41
:100A380011F06D51070B300F996F09D09A51C00B07
:100A480096E0400AE2E0C00AB1E0400A90E079C0CE
:100A5800D9FF7AC0DAFF99C0DFFF5BD796079629DE
:100A6800EDE19AB798BF12D0985102E197050EE3CD
:100A780079C0D9FF7AC0DAFF200EDF6E794B7A2B66
:100A88009707D8A0980797519811F2E17BC0F6FF15
:100A98007CC0F7FF7B4B7C2B0800F5CF99F0995170
:100AA80001E07CD479C0D9FF7AC0DAFFDF6A000C94
:100AB8000001CEA32DD084EC11F06DC0A2F06EC061
:100AC800A3F06FC0A4F070C0A5F0C151A25D9E6FE5
:100AD800C251A3599F6FC351A459A06FC451A559BE
:100AE800A16FA15107E1910E9E5DD00E9F59030E93
:100AF800A0590EE3CE933C0E6E6F010E6F6FDCC0F3
:100B080070F0DDC071F0736B320E726F2AEC0EF06C
:100B18000001CEB7120076EC09F00009D8B4120033
:100B2800AB6BB5A503D09E6B9E2B02D000019E6BCC
:100B3800AB519E19FC0B9E19AB6FB5A702D0AB87C2
:100B480002D00001AB97B551030BE80603E19E6B99
:100B58009E2B02D000019E6B9E3B9E47AB519E1977
:100B6800DF0B9E19AB6FB5AF02D0AB8D02D0000181
:100B7800AB9DB5AF04D0B6C0AEF0B7C0AFF0BAC049
:100B8800B2F0B8C0B0F0B9C0B1F0BCC0B4F0BBC0EE
:100B9800B3F0ABABA7D192D120EE01F0B051D9267A
:100BA800B151DA22E751DE1803E009EC14F09BD1C9
:100BB800030EF219FAE02FEC0AF0A66FF20507E12E
:100BC800A60505E0020EA61902E0F30EA66FD36B88
:100BD8006E0ED325D96EDA6A010EDA22910EDF6E17
:100BE800D32B6E0ED325D96EDA6A010EDA22A6C08F
:100BF800DFFFD32B6E0ED325D96EDA6A010EDA2207
:100C0800CCC0DFFFD32BA65102E0A6051AE16E0E79
:100C1800D325D96EDA6A010EDA22CDC0DFFFD32BD5
:100C2800A76BA751E80FD96EDA6A6E0ED325E16E6D
:100C3800E26A010EE222DFCFE7FFD32BA72BA751F1
:100C4800F0E009EC14F0AEC094F0AFC095F0010EDE
:100C5800966F000EABB7010E976F000EDBEC0DF030
:100C6800A651A3E1CA510A0D3C0EF3246E6F010E82
:100C7800F4206F6FCA510A0DDC51F324706FDD51F7
:100C8800F420716F736B0A0E726F2AEC0EF02BD181
:100C9800020EF26501D089D720EE01F0B051D926B5
:100CA800B151DA22E751DE1880E1D36B6E0ED325FD
:100CB800D96EDA6A010EDA22970EDF6ED32B6E0E2A
:100CC800D325D96EDA6A010EDA22CDC0DFFFD32B25
:100CD800A76BA751E80FD96EDA6A6E0ED325E16EBD
:100CE800E26A010EE222DFCFE7FFD32BA72BA75141
:100CF800F0E009EC14F0AEC094F0AFC095F0010E2E
:100D0800966F000EABB7010E976F000EDBEC0DF07F
:100D1800EAD0D36B6E0ED325D96EDA6A010EDA22C9
:100D2800920EDF6ED32BA76BA7510A0D440EF32446
:100D3800D96E010EF420DA6EDFAE39D0AEC06DF098
:100D4800AFC06EF00001A7510A0D3C0EF3246F6F7F
:100D5800010EF420706F33EC13F0000928E0A7515E
:100D68000A0D440EF324D96E010EF420DA6EDF6A00
:100D7800A7510A0D3C0EF3246E6F010EF4206F6F1D
:100D8800A7510A0DDC51F324706FDD51F420716F07
:100D9800736B0A0E726F2AEC0EF06E0E0001D325EB
:100DA800D96EDA6A010EDA22DF6AD32B05D0000188
:100DB800A72B040EA765B8D709EC14F0050EA719E0
:100DC80009E16E0ED325D96EDA6A010EDA22F00E29
:100DD800DF6ED32BAEC094F0AFC095F0010E966FC6
:100DE800000EABB7010E976F000EDBEC0DF07BD059
:100DF8002FEC0AF0CE8384EC11F06DC0C1F06EC008
:100E0800C2F06FC0C3F070C0C4F0CFD620EE01F0BE
:100E1800B051D926B151DA22DF50EAE0010AE8E000
:100E2800C4D6CEBBCE9BC1D620EE01F0B051D92698
:100E3800B151DA22DF5001E0B8D6A76BA7510A0DED
:100E4800440EF324D96E010EF420DA6EDFAE30D0F2
:100E5800AEC06DF0AFC06EF00001A7510A0D3C0E98
:100E6800F3246F6F010EF420706F33EC13F0000958
:100E78001FE0A7510A0D440EF324D96E010EF42089
:100E8800DA6EDF6AA7510A0D3C0EF3246E6F010E6D
:100E9800F4206F6FA7510A0DDC51F324706FDD51F8
:100EA800F420716F736B0A0E726F2AEC0EF07DD608
:100EB8000001A72B040EA765C1D777D6B0C0D9FF0C
:100EC800B1C0DAFFDF50810A01E166D6030A01E109
:100ED80020D7050A01E1DCD6160A98E0030AA4E047
:100EE800050A9FE0CE870001B25102E0CEAB1200A6
:100EF800CE9709EF14F050EC10F005EC13F0000950
:100F080001E012004EEC0FF00101CE6F0CD1000190
:100F1800D36BD86B060E6D6FD55189EC13F0150D98
:100F2800530E0101C76FFD0EC86FF350C727F45069
:100F3800C8230001D8510101C727000EC823C7C123
:100F4800F6FFC8C1F7FF6E0E0001D325D96EDA6A25
:100F5800010EDA220800F5CFDFFFD32BD82B140EB1
:100F6800D865D8D7D52B000E7EEC14F0D2C09EF0F1
:100F7800D42BD451B5EC14F0030E00016E6FE80EBB
:100F88006D6F0CEC0DF0ADEF14F0010E0001E96F80
:100F98000101D16B010ECF6FC1D028EC14F028EC01
:100FA80014F0960E796F010E7A6F5E0E7B6FFF0E4E
:100FB8007C6FD1C17DF07E6B0101D1510A0D3C0ED1
:100FC800F324D96E010EF420DA6EDF5000017F6F32
:100FD800806B0101D1510A0D3D0EF324D96E010E2B
:100FE800F420DA6EDF500001816F826B0101D1516C
:100FF8000A0D3E0EF324D96E010EF420DA6EDF508E
:101008000001836F846BCFEC01F0A60E796F010E9F
:101018007A6FCD0E7B6FFF0E7C6FCFEC01F051EC39
:1010280014F051EC14F0010E0001E96F74D04EEC8D
:101038000FF00101D06F05EC13F00101D0054BE171
:10104800CF6B0001E96BD62BD36BD86B060E6D6F97
:10105800D65189EC13F00B0DD10E0101C76FFD0EAF
:10106800C86FF350C727F450C8230001D8510101B5
:10107800C727000EC823C7C1F6FFC8C1F7FF6E0E09
:101088000001D325D96EDA6A010EDA220800F5CFFD
:10109800DFFFD32BD82B0A0ED865D8D7D62B010E55
:1010A800A26F0101D151B7EC12F0000903E188ECFD
:1010B80014F002D00001D42BD2C09EF0D451B5EC6C
:1010C80014F0030E00016E6FE80E6D6F0CEC0DF05E
:1010D800ADEC14F023D0020ED0191DE1D151C76F29
:1010E800C86BFE0EC96FCA690001E6510101CB6FDA
:1010F800CC6BC951CB27CA51CC23C751CB5DCC513E
:10110800800ACD6FC851800ACD5902E2D16B01D057
:10111800D12B0001E96B0001E95189E10101CF05FB
:1011280001E13BD71200CE51010A01E1F0D6030AD2
:1011380001E12BD712007E6F0001816B8151FA0FFC
:101148006E6F010E6F6F8151F108F7EC11F000011D
:10115800812B020E8165F2D7EE69FE0EED6F816B71
:101168008151FD0F6E6F010E6F6F8151EC08F7EC26
:1011780011F00001812B020E8165F2D7C2EC10F04C
:10118800CE6B7E5129E1816B81510A0D440EF32407
:10119800D96E010EF420DA6EDF6A81510A0D3C0E19
:1011A800F324D96E010EF420DA6EDF6A81510A0D3C
:1011B8003D0EF324D96E010EF420DA6EDF6A8151F8
:1011C8000A0D3E0EF324D96E010EF420DA6EDF6AA2
:1011D800812B040E8165D8D7A5EC14F0D36B7E5112
:1011E80039E0E70E6E6F6F6BDEC070F0DFC071F034
:1011F800736B010E726F5AEC11F01F0E0001E76558
:1012080001D01F0CF20E6E6F6F6BDAC070F0DBC08E
:1012180071F0736B010E726F5AEC11F03C0E000105
:101228006E6F010E6F6FDCC070F0DDC071F0736B14
:10123800320E726F5AEC11F0E60E00016E6F6F6B92
:10124800E0C070F0E1C071F0736B010E726F5AEC80
:1012580011F027D0E70E6E6F6F6BDEC070F0DFC045
:1012680071F0736B010E726F2AEC0EF0F20E000132
:101278006E6F6F6BDAC070F0DBC071F0736B010ECC
:10128800726F2AEC0EF03C0E00016E6F010E6F6F4C
:10129800DCC070F0DDC071F0736B320E726F2AEC37
:1012A8000EF0EA0E0001806F7F837F51870B4009A3
:1012B8007F6F7EB102D07F9502D000017F857F913C
:1012C8007FC07BF080C07CF077EC0EF00001E75126
:1012D800D3EC12F00001CD6BCD81F239F00BCD13B8
:1012E800F08A1200846B84EC11F06DC07FF06EC040
:1012F80080F06FC081F070C082F08451060DF35009
:10130800010FD96EDA6ADF5039E08451060DF350C7
:10131800030FD96EDA6A7F51DE5C8051DE58815145
:10132800DE588251DE582AE28451060DF350030F2D
:10133800D96EDA6ADECF77F0DECF78F0DECF79F0DB
:10134800DECF7AF077517F5D7B6F785180597C6F63
:10135800795181597D6F7A5182597E6F7E5107E1AB
:10136800910E7B5DD00E7C59030E7D5907E38451A5
:10137800060DF350010FD96EDA6ADF6A842B040E6A
:101388008465B1D7D12901E0000C846B84513E0DEE
:10139800000EF324D96E020EF420DA6EDFA055D0C9
:1013A800000184513E0D010EF324D96E020EF42083
:1013B800DA6EDF50B56F84513E0D3D0EF324D96EC1
:1013C800020EF420DA6EDF50BA6F020E836FB5ADED
:1013D80005D0C531E832E8320F0B8327B5AF19D0F5
:1013E80084513E0D000E776F020E786F772B000E3A
:1013F8007823F3507727F450782383517725B66FF5
:10140800000E7821B76FC531E832E8320F0B832719
:1014180002D0B66BB76B8351BA5F84513E0D000E94
:10142800776F020E786F772B000E7823F3507727AB
:10143800F450782383517725B86F000E7821B96F5F
:10144800D0C0BBF084C0D1F0010C0001842B010E88
:1014580084659CD7000C00017B6B7C697D6B7D519A
:101468000A0D440EF324D96E010EF420DA6EDFAEB5
:1014780016D0AEC06DF0AFC06EF000017D510A0D00
:101488003C0EF3246F6F010EF420706F33EC13F0F1
:1014980000090AE07DC07CF0010E7B6F09D00001D5
:1014A8007C2902E17DC07CF07D2B040E7D65D7D7B9
:1014B8007C2901E1F10CF25103E000017B5112009B
:1014C8007CC0CCF07D6B7D51AE25D96E000EAF216E
:1014D800DA6E7C510A0D3C0E776F010E786FF3506F
:1014E8007727F45078237D517725E16E000E782117
:1014F800E26EDFCFE7FF7D2B070E7D65E4D77C51D9
:101508000A0D440EF324D96E010EF420DA6EDF8E34
:10151800000120EE02F0B051D926B151DA22DF5095
:10152800776F010E77177C510A0D440EF324D96E9C
:10153800010EF420DA6EDF507719FE0B7719DF6E93
:101548007D6B7D51B025776F000EB121786F030E4A
:101558007725D96E000E7821DA6E7C510A0D3C0E83
:10156800796F010E7A6F090E7927000E7A23F350EE
:101578007927F4507A237D517925E16E000E7A217E
:10158800E26EDFCFE7FF7D2B7D51DBE07CC0CAF048
:10159800CE9974EC13F0E66FE60E6E6F6F6BE0C0D9
:1015A80070F0E1C071F0736B010E726F2AEC0EF0EF
:1015B80084D7F2C0BBF1030E0101BC6FBD6B84EC94
:1015C80011F0A80501E1FF0C84EC11F06DC0BEF12B
:1015D8006EC0BFF16FC0C0F170C0C1F1900E0101C3
:1015E800BE5FD00EBF5B030EC05B000EC15B000187
:1015F800F26BCE8972D084EC11F06DC0C2F16EC06E
:10160800C3F16FC0C4F170C0C5F10101BE51C25D24
:10161800B76FBF51C359B86FC051C459B96FC151E1
:10162800C559BA6FBA5107E1910EB75DD00EB859D6
:10163800030EB9594CE3C2C1BEF1C3C1BFF1C4C165
:10164800C0F1C5C1C1F1BD07BD2947E1010EBD6F9C
:10165800BC07BC2903E10001CE99FF0C0001D36B44
:101668006E0ED325D96EDA6A010EDA22810EDF6E8C
:10167800D32B6E0ED325D96EDA6A010EDA22E7C0B3
:10168800DFFFD32B6E0ED325D96EDA6A010EDA226C
:10169800CDC0DFFFD32B0101C66BC651E80FD96E51
:1016A800DA6A6E0E0001D325E16EE26A010EE222CB
:1016B800DFCFE7FFD32B0101C62BC651EEE00001B7
:1016C800946B956B010E966F976BDBEC0DF0C2EC8B
:1016D80014F0000902E0D1EC14F00001CEB98BD768
:1016E800BBC1F2F0CA511200886F030E0001856F6A
:1016F80088D0866BD76B846B775119E0280EECEC99
:1017080012F0876FD8908733410E876510D0842BED
:101718008405786F040E786501D0000C010E6D6F9A
:10172800000E6E6B6F6B706BD8EC14F0E7D7F09A05
:10173800200E8CEC10F01A0E00016F6FC90E6E6F40
:101748005FEC13F0000188519DEC13F000018A6BE7
:101758000BD0000E8A25D96EDA6A010EDA22DF5024
:101768009DEC13F000018A2B88518A5DF2E3800E0C
:101778008CEC10F0F08A0001C95102E1F0A4FBD70B
:10178800C96B200E8CEC10F0600E8CEC10F001018F
:1017980000AB0ED001C129F084EC11F06DC07CF0D3
:1017A8006EC07DF06FC07EF070C07FF0D75104E04E
:1017B800010E0001896F2AD084EC11F06DC080F011
:1017C8006EC081F06FC082F070C083F07C51805D84
:1017D800786F7D518159796F7E5182597A6F7F5127
:1017E80083597B6F7B517A1105E1D50E785D300EF8
:1017F8007959DCE3862B8605786F040E786101D071
:1018080079D78507852901E074D7896B895112003A
:101818003A6E030E456E84D0466A0001D76B446A5F
:10182800355019E0280E49EC13F0476ED89047322E
:10183800410E476410D0442A4404366E040E3664C0
:1018480001D0040C010E2B6E000E2C6A2D6A2E6A34
:10185800DAEC14F0E7D7F09A200EF7EC10F01A0E35
:101868002D6EC90E2C6EC3EC13F03A50E8EC13F051
:10187800486A0AD0000E4824D96EDA6A010EDA22C4
:10188800DF50E8EC13F0482A3A50485CF3E3800E46
:10189800F7EC10F0F08A0001C95102E1F0A4FBD77F
:1018A800C96B200EF7EC10F0600EF7EC10F0010198
:1018B80000AB0ED001C129F0ABEC11F02BC03CF00D
:1018C8002CC03DF02DC03EF02EC03FF0D75103E0B4
:1018D800010E3B6E010CABEC11F02BC040F02CC09C
:1018E80041F02DC042F02EC043F03C50405C366EB3
:1018F8003D504158376E3E504258386E3F5043581D
:10190800396E3950381005E1D50E365C300E37582F
:10191800DDE3462A4604366E040E366001D07DD7D4
:101928004506452801E078D73B6A1200280E9065E5
:1019380001D0000C8BB503D0916B912B02D0000124
:10194800916B913B914791478B519119BF0B91191D
:101958008B6F8B8F8B51030BE80601E18B8F8BC04C
:1019680000F1CBC001F1CB2B020E926F8BAD1AD0D8
:10197800936B10D093518C25D96E000E8D21DA6EA1
:10198800000E9225E16EE26A010EE222DFCFE7FF48
:10199800922B932BC531E832E8320F0B916F91519E
:1019A800935DE8E38BAF18D0936B0ED0C6519325A7
:1019B800D96EDA6A000E9225E16EE26A010EE22221
:1019C800DFCFE7FF922B932BC531E832E8320F0BBC
:1019D800916F9151935DEAE3936B10D093518E25EB
:1019E800D96E000E8F21DA6E000E9225E16EE26A42
:1019F800010EE222DFCFE7FF922B932B9051935DEC
:101A0800EDE3000EC5B3010E776F925178EF0BF03E
:101A18006D516F6F6E51706F716B726BD00E6F037B
:101A2800F3CF73F0F4CF74F0756B766B7003F350EB
:101A38007427F4507523000E7623070E6F03F350B6
:101A48007427F4507523000E7623D00E7103F350DB
:101A58007527F4507623070E7003F3507527F4505A
:101A68007623000E6F03F3507527F4507623D00EBB
:101A78007203F3507627070E7103F3507627000E92
:101A88007003F3507627000E6F03F350762773C068
:101A980077F074C078F075C079F076C07AF0560E99
:101AA8007727FF0E782379237A237ABFFF0C7A51A0
:101AB800791178110CE1C40E775D09E2120000F08B
:101AC800D90E00017727FF0E782379237A237ABF6E
:101AD80012007A5179117811F2E17705F0E21200DB
:101AE8002B502D6E2C502E6E2F6A306AD00E2D0280
:101AF800F3CF31F0F4CF32F0336A346A2E02F35068
:101B08003226F4503322000E3422070E2D02F350F1
:101B18003226F4503322000E3422D00E2F02F35016
:101B28003326F4503422070E2E02F3503326F45095
:101B38003422000E2D02F3503326F4503422D00EF6
:101B48003002F3503426070E2F02F3503426000ECD
:101B58002E02F3503426000E2D02F350342631C0E5
:101B680035F032C036F033C037F034C038F0560E96
:101B78003526FF0E36223722382238BEFF0C385061
:101B8800371036100BE1C40E355C08E2120000F085
:101B9800D90E3526FF0E36223722382238BE1200DB
:101BA800385037103610F3E13504F1E212009A6F1D
:101BB80000019B6B965103E0986B982B02D00001B3
:101BC800986B9B519819FC0B98199B6F9A5103E1DC
:101BD800986B982B02D00001986B983B98479B51C3
:101BE8009819DF0B98199B6F9AB102D09B9502D078
:101BF80000019B8597B102D09B9702D000019B877B
:101C08009A5103E1986B982B02D00001986B983B8E
:101C1800984798479B519819BF0B98199B6F9B8FB2
:101C280094C09CF095C09DF09BC08BF09CC08CF03C
:101C38009DC08DF06E0E8E6F010E8F6FD3C090F029
:101C48009AEC0CF0996FD36B99511200000EF0BA10
:101C5800010E756FF09A8C9A050E44EC14F0C7ECDF
:101C680014F00001766F8C8AD6EC14F0000176B17E
:101C7800F2D78C9A060E44EC14F08C8AD6EC14F049
:101C88008C9A020E44EC14F00001715144EC14F0EB
:101C98000001705144EC14F00001766B1AD06EC04C
:101CA800D9FF6FC0DAFFDF5044EC14F000016E4B2F
:101CB8006F2B7207D8A07307762B76517025746F37
:101CC8003F0E741706E18C8A76517027000E712337
:101CD800C2D772517311E3E18C8A75B102D0F09AC0
:101CE80001D0F08A12007BC0C5F07CC0C6F06E6BD4
:101CF800140E6D6F0CEC0DF08D828B84D6CFCBF06B
:101D0800D1697D6B7D513E0D000EF324D96E020E14
:101D1800F420DA6EDF6A7D2B010E7D65F3D77D6BCB
:101D28007D51020D130EF324F66EFE0EF420F76EAD
:101D38000900F5CF6EF00A00F5CF6FF05FEC13F0F5
:101D480000017D2B1F0E7D65EBD7200E8CEC10F06B
:101D580000016F6B4E0E6E6F5FEC13F0400E8CEC53
:101D680010F01C0E00016F6F0F0E6E6F5FEC13F01A
:101D7800600E8CEC10F0F094F08A1200746F1F0E55
:101D88000001746501D0000C0C0E6F6F640E6E6F4D
:101D98005FEC13F0530E00017425F66EF76AFE0E21
:101DA800F7220800F5CF73F0000E73116E6F0E0E58
:101DB8006F6F5FEC13F0730E00017425F66EF76A0F
:101DC800FE0EF7220800F5CF73F0000E73116E6F48
:101DD800100E6F6F5FEC13F0200E8CEC10F000010A
:101DE8006F6B4E0E6E6F5FEC13F0400E8CEC10F0C4
:101DF8001C0E00016F6F0F0E6E6F5FEC13F0200E5C
:101E08008CEC10F0600E8CEC10F0010C84EC11F0EE
:101E18006DC0B7F16EC0B8F16FC0B9F170C0BAF15A
:101E280084EC11F06DC0BBF16EC0BCF16FC0BDF1A8
:101E380070C0BEF10101B751BB5D0001A16F010186
:101E4800B851BC590001A26F0101B951BD59000137
:101E5800A36F0101BA51BE590001A46FA45119E141
:101E6800410EA15D420EA2590F0EA35901E31200C3
:101E78004EEC0FF00101BF6F020EBF1909E1740E9D
:101E880000019C6FFF0E9D6F9E6B9F6B3CEC12F0E8
:101E9800010E120081B010D00001CF513CE1010EBB
:101EA800CF6F84EC11F06DC0BDF06EC0BEF06FC096
:101EB800BFF070C0C0F0010C81B410D00001CF5148
:101EC8002AE1010ECF6F84EC11F06DC0BDF06EC039
:101ED800BEF06FC0BFF070C0C0F0020C84EC11F00F
:101EE8006DC07BF06EC07CF06FC07DF070C07EF07E
:101EF800BD517B5D776FBE517C59786FBF517D595D
:101F0800796FC0517E597A6F7A51791103E1400E89
:101F1800785D01E3CF6B000C2350245C04E3275069
:101F2800285CD8B0120071B0FED72350245C15E2AB
:101F380024501F0FD96EDA6ADF50756E242A235099
:101F48002418D8A412002750D8A412007184010EB6
:101F58002C6E2C0E2B6E74EF0DF02750285CD8B029
:101F68001200960E2824D96EDA6A010EDA22DF50A2
:101F780008E1960E2824D96EDA6A010EDA22200EBC
:101F8800DF6E960E2824D96EDA6A010EDA22DF5047
:101F9800756E282A27502818D9E012007B0ED36EB8
:101FA800C090F26A550EA76EAA0EA76E0E01FF9199
:101FB800060EE96F130EF66F050ED76F550EA76E56
:101FC800AA0EA76EFF810F0148693F0E496FF19E67
:101FD80092689368946895689668896A8A6A8C6A30
:101FE8008D6A95948C84949C8B9C93809384929412
:101FF8009296958E93869586938A949E9398C00E12
:10200800C76E210EC66E949496928B848D82F1864B
:1020180096908D80959A8C8AF28E1AEF12F00001B4
:10202800A96FA9510BE0010E9FEC08F00F0E9C6FF1
:10203800FF0E9D6F9E6B9F6B3CEF12F08994899603
:10204800000E9FEC08F0190ED3EC12F0000903E122
:10205800190ED9EC14F0000E9AEC12F0000E0001E3
:10206800A16F190ED6EC13F0A86BDDEC0AF0AA6F7D
:10207800AA2906E0010EA16F190ED6EC13F009D0BB
:102088000A0E776F000E786B796B7A6B7B6B37EC87
:1020980014F08984ADEF14F081A081B4120000011E
:1020A800A96B28EC14F0960E796F010E7A6FED0E7D
:1020B8007B6FFF0E7C6F000E7E6F190E7D6FCFEC6D
:1020C80001F0A60E796F010E7A6F480E7B6FFF0E36
:1020D8007C6FEAC07DF07E6BEBC07FF0806BECC05C
:1020E80081F0826BCFEC01F051EC14F00DD0A86BAD
:1020F800DDEC0AF04EEC0FF0AA6FAA0503E0020E21
:10210800AA1902E1010EA96F0001A951F0E012001D
:102118000001716F27D06F6B8E0E6E6F5FEC13F03E
:10212800800E256E800C6F6B6E0E6E6F5FEC13F079
:10213800600E256E600C6F6B4E0E6E6F5FEC13F0C9
:10214800400E256E400C6F6B2E0E6E6F5FEC13F019
:10215800200E256E200C6F6B0E0E6E6F5FEC13F069
:10216800256A120000017151F6E0200AECE0600ACD
:10217800E2E0200AD8E0E00ACEE01200010E726F19
:10218800C76BC86B6E6B020E6D6FE20E6F6F1CEC47
:1021980013F072176E6B010E6D6FDE0E6F6F1CEC15
:1021A80013F072176E6B010E6D6FDA0E6F6F1CEC09
:1021B80013F072176E6B320E6D6FDC0E6F6F1CECC6
:1021C80013F072176E6B040E6D6FE40E6F6F1CECDC
:1021D80013F072176E6B010E6D6FE00E6F6F1CECD3
:1021E80013F0721712002F6E27D02D6A8E0E2C6EE8
:1021F800C3EC13F0800E256E800C2D6A6E0E2C6ECB
:10220800C3EC13F0600E256E600C2D6A4E0E2C6E1A
:10221800C3EC13F0400E256E400C2D6A2E0E2C6E6A
:10222800C3EC13F0200E256E200C2D6A0E0E2C6EBA
:10223800C3EC13F0256A12002F50F7E0200AEDE0F6
:10224800600AE3E0200AD9E0E00ACFE0120002EEDB
:1022580000F07C0EEE6AE806FDE101EE00F0B70E34
:10226800EE6AE806FDE100EEABF03D0EEE6AE80628
:10227800FDE100EE01F02A0EEE6AE806FDE1780EB7
:10228800F66E290EF76E000EF86E00EEE8F010EE0E
:102298000BF00900F5CFEEFFE550E150FAE153905D
:1022A8005392000EF86E0001F9EF13F0000EF0BA29
:1022B800010E746FF09A8C9A030E44EC14F000012E
:1022C800715144EC14F00001705144EC14F00DD03D
:1022D800C7EC14F06EC0D9FF6FC0DAFFDF6E0001E3
:1022E8006E4B6F2B7207D8A07307000172517311E0
:1022F800EFE18C8A74B102D0F09A01D0F08A120012
:102308009D900001756B766B726BCECF73F0CFCF5B
:1023180074F0732908E1742906E1722B7205716F54
:10232800020E7165F2D79EA004D0752B2A2801E110
:10233800762B2A507527D95176279D8073C06DF06A
:1023480074C06EF075C06FF076C070F012009D908A
:10235800336A346A306ACECF31F0CFCF32F03128C9
:1023680008E1322806E1302A30042F6E020E2F646D
:10237800F2D79EA004D0332A2A2801E1342A2A5011
:1023880033260001D95134269D8031C02BF032C04C
:102398002CF033C02DF034C02EF01200726B736B2A
:1023A8006F5170111BE0010E716F04D0D8906F3718
:1023B8007037712B70AFFAD7D890723773376F5167
:1023C8006D5D70516E5905E36F516D5F70516E5BB5
:1023D8007281D89070336F33712FEED772C06DF061
:1023E80073C06EF01200716F000EF2BE010E000194
:1023F800706FF29E8D90030E44EC14F000016E5144
:1024080044EC14F009D07151D96EDA6AC7EC14F0B3
:10241800DF6E0001712B6F0700016F51F4E18D80B1
:1024280070B102D0F29E01D0F28E1200530E9512B6
:10243800A49E736AF00E746E280E726E716AA38E73
:10244800F28EF28C010E00016E6F2C0E6D6F0CEC8B
:102458000DF07C0E1F6E810E206E216A6D6B030ECF
:1024680069EC14F000016E6BC80E6D6F0CEF0DF087
:1024780028EC14F0960E796F010E7A6F9CC07BF0F1
:102488009DC07CF09EC07DF07E6BCFEC01F051ECDE
:1024980014F000019F51D8B41200A06B6E6BFA0EB5
:1024A8006D6F0CEC0DF0A02B070EA065F7D7070C8D
:1024B8009D6F28EC14F0960E796F010E7A6FBC0EA2
:1024C8007B6FFF0E7C6F9DC07DF07E6BCFEC01F0C3
:1024D800A60E796F010E7A6FAB0E7B6FFF0E7C6FC5
:1024E8009CC07DF07E6BCFEC01F051EF14F076517B
:1024F800771117E0010E786F04D0D89076377737C8
:10250800782B77AFFAD77651745D7751755904E314
:102518007651745F7751755BD89077337633782F1F
:10252800F2D774C074F075C075F012000001786FAE
:10253800030E786501D0030C78C0F2F0F2C077F092
:10254800773BF00E7717CD510F0B7711CD6FF20E49
:102558006E6F6F6BDAC070F0DBC071F0736B010ED9
:10256800726F2AEF0EF00001A36FA3510A0D440EFB
:10257800F324D96E010EF420DA6E0101DFAE000CEF
:102588000001A3510A0D3C0EF3249E6F010EF420A6
:102598009F6F010EA06FA2C0A1F074EF14F0776FC7
:1025A8000001726B7751C2EC0EF0000910E077C0A1
:1025B800E7F0E70E00016E6F6F6BDEC070F0DFC0F2
:1025C80071F0736B010E726F2AEC0EF0010C000CA7
:1025D80000016E6F000EF0BA010E706FF09A8D92C6
:1025E8006E8D6E5144EC14F0C7EC14F000016F6F5F
:1025F8008D8270B102D0F09A01D0F08A00016F513B
:102608001200C2EC14F00009D8B41200D22BD2C0C8
:102618009EF0D451B5EC14F08976070E00016E6F68
:10262800D00E6D6F0CEC0DF0ADEC14F0D1EF14F092
:102638006D51C725706F6E51C821716F7005800E7E
:10264800715901E3000C6F51D96EDA6AC7C0DEFF19
:10265800C8C0DDFF6D51C7276E51C823010C736BCD
:1026680073516F25D96E000E7021DA6E73516D2586
:10267800E16E000E6E21E26EDE50E61801E0000CFD
:10268800732B070E7365ECD7010C2C6E000EF0BA95
:10269800010E2E6EF09A8D922C8C2C505DEC14F05D
:1026A800CCEC14F02D6E8D822EB002D0F09A01D0B1
:1026B800F08A2D501200000EF0BA010E706FF09AD9
:1026C8008D926F5144EC14F000016E5144EC14F0FB
:1026D8008D82000170B102D0F09A01D0F08A120008
:1026E8006D6B6E6B6E510A0D440EF324D96E010E9C
:1026F800F420DA6EDFAE02D000016D2B00016E2BE4
:10270800040E6E65EFD76D5112006E6F080E000152
:102718006F6F706BD8906E357035706FD8906E375C
:102728006D51705D02E36D51705F6F2FF3D770517B
:1027380012006E6F000EF0BA010E00016F6FF09A72
:102748008B946E5144EC14F08B8400016FB102D06D
:10275800F09A01D0F08A12006D516F03F3CF71F037
:10276800F4CF72F06D517003F35072276E516F03FE
:10277800F350722771C06DF072C06EF01200000E37
:10278800F0BA010E2E6EF09A8D922D505DEC14F079
:102798002C505DEC14F08D822EB002D0F09A01D04E
:1027A800F08A1200A26F0001A15104E1B10E9C6FE2
:1027B800FE0E03D0F00E9C6FFE0E9D6FA2C09EF021
:1027C800010E9F6F3CEF12F02C6E000EF0BA010E56
:1027D8002D6EF09A8B942C505DEC14F08B842DB0F8
:1027E80002D0F09A01D0F08A1200D2EC0FF0A5ECDA
:1027F80014F09CEC14F00AEC0FF00101D26FD251E6
:1028080013EC10F0D4EC14F0FDD7020E0001D161E6
:10281800020CD1513E0D000EF324D96E020EF420A5
:10282800DA6E000EDF6AD16912006F6F00016E6BFD
:102838003A0E6F6105D02F0E6F6502D0010E6E6FD4
:102848006EC06DF06D31120000016D6B960E6D2536
:10285800D96EDA6A010EDA22200EDF6E6D2B1F0E9A
:102868006D65F4D71F0C7C6F04D084EC11F084EFF5
:1028780011F000017C51F9E0010AD8A4030A120002
:1028880000016D6F9E96C950C69E6DC0C9FFC6BE39
:10289800FBD79EA6FED79E9612007C0E1F6E320EA8
:1028A800206E216A200E226E00016D6F040E69EF02
:1028B80014F02B6E9E96C950C69E2BC0C9FFC6BE8B
:1028C800FBD79EA6FED79E9612006E6F71B4FED7F8
:1028D800246A286A6EC023F06DC027F07180120048
:1028E8009EC094F09FC095F0000E966BA1C097F023
:1028F800DBEF0DF09E6F0001946B956B966B9EC09D
:1029080097F0010EDBEF0DF0DD0E00019C6FFF0E5E
:102918009D6F9E6B010E9F6F3CEF12F0A4AE1200EC
:10292800A49E90EC0FF02C6A050E2B6E74EF0DF040
:10293800D10E9C6FFE0E9D6F9E6B010E9F6F3CEF3C
:1029480012F0380ECD6E9E909D80CD802A6AD96B8C
:1029580012000F0E9C6FFF0E9D6F9E6B9F6B3CEFDE
:1029680012F09F6F9EC09CF000019F515CEF12F027
:0B2978000101FF1122334455661103DA
:102984005CEC05F0CEB7010C000C000E44EC14F026
:10299400C9501200000E5DEC14F0C9501200CE971D
:1029A40009EF14F07FEF07F000F01200120012009C
:0229B40012000F
:10FD52000020B2202020B22020B220B22020202079
:10FD620020B220B20D0AB220B220B220B22020204E
:10FD7200B22020B22020B220200D0AB22020B220D0
:10FD820020B220B220B22020B22020B220B20D0A2E
:10FD9200B22020B22020B220B22020B220B220B263
:10FDA2002020B20D0AB22020B22020B220B22020A0
:10FDB20020B220B2202020B20D0A202020202020B4
:10FDC200202020202020202020202020200D0AB2C8
:10FDD200B2B22020B2B2B2B20D0AB22020B220B228
:10FDE2002020200D0AB22020B220B2B2B2B20D0AF7
:10FDF200B22020B220B22020200D0AB2B2B22020BE
:10FE0200B2B2B2B20D0A2020202020202020200DE4
:10FE12000A2E008402090409060C08C10A770C6440
:10FE22000E32100012001400163818C81A0D1C00E9
:10FE32001E72203822382407260028002A692C81C5
:10FE42002E7E309632F83488364038003AE83C004C
:10FE52003E54545454545454545454545454545575
:10FE62005555555555555555555555555555555540
:10FE7200552D303335383B3E414346494C4F5109AD
:10FE82000C0F1215171A1D202325282B2E3133365D
:10FE92003901000800400000020010008001000A41
:10FEA200006400E803102701001000000100104365
:10FEB2006F6E6E656374696E67205065657220208F
:10FEC2006F6E204368616E6E656C2025642000535E
:10FED200696D706C65205032502044656D6F202032
:10FEE2004D524638395841204E6F646520002043F8
:10FEF2006F6E6E6563746564205065657220206F55
:10FF02006E204368616E6E656C202564005242303B
:10FF12003A2042726F6164636173742020524232EC
:10FF22003A20556E6963617374005242303A4E65ED
:10FF320077204E6574776F726B205242323A467266
:10FF420065657A657200416464726573733A20254F
:10FF52003032782530327825303278005242303AC9
:10FF6200253032642D2530327825303278253032F2
:10FF72007800526573746F72696E67204E6574778C
:10FF82006F726B20212100303132333435363738ED
:10FF920039414243444546003031323334353637F5
:10FFA2003839616263646566005258204D65737327
:10FFB200616765733A20253364005458204D657398
:10FFC20073616765733A20253364005242323A20E6
:10FFD20043686E6765206E6F64650020556E6963C5
:10FFE200617374204661696C6564002043683A2538
:05FFF200303264000044
:08FFF800ACF6D8FFFFF9FFF1A0
:00000001FF
