:0400000040EF03F0DA
:10000800E1CF33F0E2CF34F0D9CF35F0DACF36F0A4
:10001800F3CF37F0F4CF38F0F0BAF0A420D38B94B4
:1000280082A817D38B848D965DECA3F00001696FCD
:100038006F6B6F51420D3C0EF324D96E020EF42003
:10004800DA6EDFA005D000016F2B010E6F65F1D7C6
:10005800040E0001691903E1010E626F01D0626BA1
:10006800400E696107D0695105E0010E6F6529D01E
:10007800625127E18D86F094820E036E010E026EA6
:100088008FECA2F0CA0E036E810E026E8FECA2F006
:10009800800E036E330E026E8FECA2F0800E036E9C
:1000A800730E026E8FECA2F0820E036E810E026E4A
:1000B8008FECA2F0CA0E036E830E026E8FECA2F0D4
:1000C800CDD26A6B606B616B81A8BCD262510AE0C9
:1000D8006A51630FD96EDA6A5DECA3F0DF6E000136
:1000E8006A2B16D06F51420D3C0E286E020E296EF7
:1000F800282A000E2922F3502826F45029226A5172
:100108002824D96E000E2920DA6E5DECA3F0E6D71C
:1001180069516A5DD7E352EC9FF00001E7AFAAD7B7
:100128008D86CA0E036E810E026E8FECA2F000015E
:1001380062515EE06351030B020A2EE16551286E9D
:100148006651676F28C068F0630E016E026A020E7E
:10015800036E000E056A046A98EC9DF001C06CF00D
:1001680002C06DF000016C51671903E16D51681907
:1001780007E0CA0E036E830E026E8FECA2F07AD7E8
:100188004650641902E1010EE16FCA0E036E830E38
:10019800026E8FECA2F062D2010E6F6501D0E9D732
:1001A8006F51420D3D0EF324D96E020EF420DA6E23
:1001B80063C0DFFF6F51420D3E0EF324D96E020E6D
:1001C800F420DA6E64C0DFFF6F51420D3F0EF32456
:1001D800D96E020EF420DA6E65C0DFFF6F51420D52
:1001E800400EF324D96E020EF420DA6E66C0DFFFEB
:1001F8006F51420D7D0EF324D96E020EF420DA6E93
:1002080069C0DFFF6F51420D7D0EF324D96E020ED7
:10021800F420DA6EDF50286E6F51420D3C0E296EC5
:10022800020E2A6EF3502926F4502A222850292437
:10023800D96E000E2A20DA6EDF502B6E6F51420DF8
:100248007D0EF324D96E020EF420DA6EDF502C6E88
:100258006F51420D2D682E683C0E2F6E020E306EC7
:100268002D502F262E503022F3502F26F4503022B6
:100278002C502F24D96E000E3020DA6EDF50316EEC
:100288002B50676F31C068F06F51420D3D0EF3245B
:10029800D96E020EF420DA6EDFB40BD000016F5174
:1002A800420D3D0EF324D96E020EF420DA6EDFAC57
:1002B8001AD000016F51420D3D0EF324016E020E5B
:1002C800F420026E6F51420D7D0EF324D96E020E9A
:1002D800F420DA6EDF50FE0F036E000E056A046A22
:1002E80098EC9DF042D000016F51420D3D0EF32471
:1002F800016E020EF420026E020E036E000E056AF5
:10030800046A98EC9DF001C06CF002C06DF0D6C094
:1003180001F0D7C002F00001D531E832E8320F0B06
:10032800036E6CC004F06DC005F098EC9DF001C040
:100338006CF002C06DF000016F51420D3F0EF324C6
:10034800016E020EF420026E6F51420D7D0EF324F1
:10035800D96E020EF420DA6EDF50FC0F036E6CC00B
:1003680004F06DC005F098EC9DF001C06CF002C07F
:100378006DF000016C51671903E16D5168190AE0CD
:100388006F51420D7D0EF324D96E020EF420DA6E01
:10039800DF6AEFD66F51420D3C0EF324D96E020E80
:1003A800F420DA6EDF840001E6A102D0DF8201D0FA
:1003B800DF9200016B696F51420D3D0EF324D96E37
:1003C800020EF420DA6EDFAC28D06E6B1ED06E51B0
:1003D800D625D96E000ED721DA6E6F51420D3C0E2C
:1003E800296E020E2A6E030E2926000E2A22F350C9
:1003F8002926F4502A226E512924E16E000E2A2063
:10040800E26EDE50E618BCE16E2BD531E832E832F8
:100418000F0B286E28506E5DDAE300016F51420D14
:100428003D0EF324D96E020EF420DA6E0201DFAA23
:100438005FD0CA0E036E830E026E8FECA2F000012D
:100448006E6B030E6E6501D00ED02C0E6E25D96E24
:10045800DA6A010EDA226E51630FE16EE26ADFCFCB
:10046800E7FF6E2BEED7060E01012C6F00016F51CE
:10047800420D3E0EF324D96E020EF420DA6EDF50E0
:1004880001012D6F2C0E016E010E026E020E036E1D
:10049800000E056A046A98EC9DF001C06CF002C079
:1004A8006DF06DC02EF16CC02FF1026A020E016E64
:1004B80086EC96F00F6A040E09EC90F0CA0E036EF3
:1004C800810E026E8FECA2F000016E6B030E6E655A
:1004D80001D00ED06E51630FD96EDA6A2C0E6E25DC
:1004E800E16EE26A010EE222DFCFE7FF6E2BEED764
:1004F80000016E6B040E6E6501D04FD06E51080D71
:10050800000EF324D96E020EF420DA6EDF5035E0C7
:100518006F51420D3E0EF324D96E020EF420DA6EAE
:100528006E51080D010EF324E16E020EF420E26E06
:10053800DE50E61822E16E51080D020EF324D96E42
:10054800020EF420DA6E6751DE1817E16851DE18E2
:10055800D8A413D0DAEC9EF06E51080D040EF324E3
:10056800D96E020EF420DA6E01C0DEFF02C0DEFF93
:1005780003C0DEFF04C0DEFF10D06B290CE16E5112
:10058800080D000EF324D96E020EF420DA6EDF5047
:10059800D8B46EC06BF06E2BADD7040E6E65F5D572
:1005A800050E6B613AD06B51080D000EF324D96E1D
:1005B800020EF420DA6E010EDF6E6F51420D3E0E10
:1005C800F324D96E020EF420DA6E6B51080D010E79
:1005D800F324E16E020EF420E26EDFCFE7FF6B51E9
:1005E800080D020EF324D96E020EF420DA6E67C0ED
:1005F800DEFF68C0DDFFDAEC9EF06B51080D040EDB
:10060800F324D96E020EF420DA6E01C0DEFF02C0B8
:10061800DEFF03C0DEFF04C0DEFF6F51420D7D0E1A
:10062800F324D96E020EF420DA6E020EDF5E6F51EB
:10063800420D3C0EF324D96E020EF420DA6E02014C
:10064800DF80A3D5604B612B6051611101E112D5A8
:100658003BD55DECA3F00001E66F8B84F09438C0C5
:10066800F4FF37C0F3FF36C0DAFF35C0D9FF34C016
:0C067800E2FF33C0E1FF1100C8EF98F072
:10FB0E000020B2202020B22020B220B220202020BF
:10FB1E0020B220B20D0AB220B220B220B220202094
:10FB2E00B22020B22020B220200D0AB22020B22016
:10FB3E0020B220B220B22020B22020B220B20D0A74
:10FB4E00B22020B22020B220B22020B220B220B2A9
:10FB5E002020B20D0AB22020B22020B220B22020E6
:10FB6E0020B220B2202020B20D0A202020202020FA
:10FB7E00202020202020202020202020200D0A01BF
:10FB8E00000800400000020010008001000A00641E
:10FB9E0000E8031027010010000001001000010210
:10FBAE0003040506070D0A202020202020202020F7
:10FBBE002020202020202020202020203220746F82
:10FBCE0020756E696361737420656E6372797074EB
:10FBDE006564206D6573736167652E204C45442006
:10FBEE00322077696C6C000D0A2020202020202006
:10FBFE002020202020202020202020202020427580
:10FC0E0074746F6E203120746F2062726F61646342
:10FC1E00617374206D6573736167652E2050757303
:10FC2E006820427574746F6E000D0A20202020200B
:10FC3E0020202020202020202020202020202020B6
:10FC4E00506F776572206F6E2074686520626F61E9
:10FC5E00726420756E74696C204C45442031206CA2
:10FC6E006967687473207570000D0A2020202020AB
:10FC7E002020202020202020202020202020202076
:10FC8E00746F20696E64696361746520636F6E6E54
:10FC9E00656374696E672077697468207065657234
:10FCAE002E2050757368000D0A5374617274696E5C
:10FCBE0067204E6F64652031206F662053696D702A
:10FCCE006C652044656D6F20666F72204D695769B3
:10FCDE0028544D29205354415220537461636B2094
:10FCEE002E2E2E000D0A2020202020202020202025
:10FCFE002020202020202020202020626520746FCC
:10FD0E0067676C65642075706F6E207265636569D8
:10FD1E0076696E67206D657373616765732E20005B
:10FD2E000D0A0D0A436F6E6E656374696F6E202047
:10FD3E00202020506565724C6F6E67416464726559
:10FD4E007373202020202050656572496E666F0DFA
:10FD5E000A00206973206E6F7420737570706F7255
:10FD6E0074656420696E2063757272656E742063AB
:10FD7E006F6E66696775726174696F6E2E0D0A001B
:10FD8E00436F6E6E656374696E6720506565722091
:10FD9E00206F6E204368616E6E656C2025642000B6
:10FDAE000D0A20202020205246205472616E73636B
:10FDBE0065697665723A204D5246343958410020B5
:10FDCE00436F6E6E656374656420506565722020A6
:10FDDE006F6E204368616E6E656C202564000D0A9F
:10FDEE00436F6E6E656374696E6720506565722031
:10FDFE006F6E204368616E6E656C20000D0A436F56
:10FE0E006E6E65637465642050656572206F6E203A
:10FE1E004368616E6E656C200053696D706C652071
:10FE2E005354415220202020204D524634395841FF
:10FE3E00204E6F64650042726F616463617374205B
:10FE4E005061636B6574207769746820525353490F
:10FE5E002000556E6963617374205061636B657425
:10FE6E002077697468205253534920005242303A29
:10FE7E00253032642D2530327825303278253032D7
:10FE8E00782D6D65000D0A53656C656374696F6E30
:10FE9E00206F66206368616E6E656C20000D0A200F
:10FEAE00202044656D6F20496E737472756374699A
:10FEBE006F6E3A005242303A253032642D25303280
:10FECE0078253032782530327800204164647265AE
:10FEDE0073733A25303278253032782530327800F7
:10FEEE00526573746F72696E67204E6574776F72A8
:10FEFE006B20212100446174615F53656E64696EED
:10FF0E00675F4661696C2121000D0A556E69636158
:10FF1E007374204661696C65640D0A000D0A0D0A42
:10FF2E004D7920416464726573733A2030780045D0
:10FF3E004E445F44455649434553203A253032647A
:10FF4E000030313233343536373839414243444547
:10FF5E0046003031323334353637383961626364B6
:10FF6E006566005242323A204368616E6765206EC4
:10FF7E006F64650044617461205061636B65742029
:10FF8E0066726F6D005258204D65737361676573AD
:10FF9E003A20253364005458204D657373616765AC
:10FFAE00733A202533640020556E696361737420A3
:10FFBE004661696C656400202020202020202020CE
:10FFCE00202020200020204368616E6E656C3A2050
:10FFDE0000204368616E6E656C3A005365637572FE
:10FFEE00656420002066726F6D20000D0A0D0A00F8
:02FFFE00000001
:020000040001F9
:1000000003EC9FF070C005F371C006F372C007F3F4
:1000100073C008F303EC9FF070C00AF371C00BF3D8
:1000200072C00CF373C00DF3ED512CE001012651A9
:1000300003010A5D0001C46F0101275103010B593F
:100040000001C56F0101285103010C590001C66F61
:100050000101295103010D590001C76FE10EC45D73
:10006000050EC5592D0EC6590B0EC75936E32EEC99
:100070009EF00AC326F10BC327F10CC328F10DC370
:1000800029F12BD00101225103010A5D0001C46F47
:100090000101235103010B590001C56F01012451D6
:1000A00003010C590001C66F0101255103010D59CF
:1000B0000001C76FC75107E18D0EC45D860EC5599B
:1000C000470EC6590AE3EFECA0F00AC322F10BC3B6
:1000D00023F10CC324F10DC325F1010122510301C9
:1000E000055D0001C46F01012351030106590001A0
:1000F000C56F01012451030107590001C66F0101B9
:100100002551030108590001C76FC75107E18D0E42
:10011000C45D860EC559470EC6590CE3ED510AE081
:10012000F5EC8CF005C322F106C323F107C324F1DB
:1001300008C325F1DAA339D003EC9FF070C000F3B7
:1001400071C001F372C002F373C003F301011651D1
:100150000301005D0001C46F010117510301015942
:100160000001C56F01011851030102590001C66F5A
:1001700001011951030103590001C76FC75107E17C
:10018000B50EC45DC40EC559040EC6590EE3DA930C
:100190006C0E716F010E726FE8C073F0E9C074F0FD
:1001A000766B370E756FC5EC99F00001DAB7120067
:1001B00010EC8AF00009D8B412000301046B396A0C
:1001C000010100A504D00001C46BC42B02D00001C2
:1001D000C46B3950C419FC0BC419396E010100A756
:1001E00002D0398601D0399601010051030BE8068F
:1001F00004E10001C46BC42B02D00001C46BC43BFA
:10020000C4473950C419DF0BC419396E010100AF5E
:1002100002D0398C01D0399C010100AF04D001C15A
:100220003CF002C13DF005C140F003C13EF004C105
:100230003FF007C142F006C141F039BA88D2A9D2D5
:100240000001ED510CE00301106B20EE01F03E5077
:10025000D9263F50DA220001EB51DE1803E0D7EC3B
:10026000A2F099D2030EEF19FAE0ECEC92F0030140
:10027000106F20EE03F03E50D9263F50DA22AA0E2E
:10028000DE1821E10E6B040E0E6501D01CD03CC0BF
:1002900070F03DC071F00E510B0D700EF324000193
:1002A000726F010EF420736F00ECA2F0000908E0F9
:1002B0000D0E03010E25D96EDA6A010EDA22DF680F
:1002C00003010E2BE0D70001EF0508E10301100543
:1002D00005E0020E101902E0F30E106F0001DD6B55
:1002E000A30EDD25D96EDA6A010EDA22910EDF6ED9
:1002F000DD2BA30EDD25D96EDA6A010EDA2210C3DA
:10030000DFFFDD2BA30EDD25D96EDA6A010EDA22BE
:1003100044C0DFFFDD2B0301105102E010051FE197
:10032000A30E0001DD25D96EDA6A010EDA22D9C0EA
:10033000DFFFDD2B0301116B115111E11151EE0FA4
:10034000D96EDA6AA30E0001DD25E16EE26A010EC4
:10035000E222DFCFE7FFDD2B0301112BEDD7D7EC36
:10036000A2F03CC0ADF03DC0AEF0010EAF6F000E8C
:1003700039B6010EB06F000EF0EC9AF0F5EC8CF08F
:100380000301105101E007D20001D8510B0D6C0E92
:10039000F324716F010EF420726FD8510B0DE851E8
:1003A000F324736FE951F420746F766B0B0E756F45
:1003B000C5EC99F0F0D1020E0001EF6501D04FD7E6
:1003C00020EE01F03E50D9263F50DA22EB51DE18E4
:1003D00001E045D7DD6BA30EDD25D96EDA6A010E8B
:1003E000DA22970EDF6EDD2BA30EDD25D96EDA6AD9
:1003F000010EDA22D9C0DFFFDD2B0301116B115191
:1004000011E11151EE0FD96EDA6AA30E0001DD255C
:10041000E16EE26A010EE222DFCFE7FFDD2B03018E
:10042000112BEDD7D7ECA2F03CC0ADF03DC0AEF043
:10043000010EAF6F000E39B6010EB06F000EF0EC7A
:100440009AF0A9D10001DD6BA30EDD25D96EDA6A21
:10045000010EDA22920EDF6EDD2B0301116B040E0A
:10046000116501D04BD011510B0D750EF324D96ECF
:10047000010EF420DA6EDFAE3ED03CC070F03DC01D
:1004800071F0030111510B0D700EF3240001726F16
:10049000010EF420736F00ECA2F000092CE00301C0
:1004A00011510B0D750EF324D96E010EF420DA6E86
:1004B000DF6A11510B0D6C0EF3240001716F010EF8
:1004C000F420726F030111510B0D0001E851F32468
:1004D000736FE951F420746F766B0B0E756FC5EC7A
:1004E00099F0A30E0001DD25D96EDA6A010EDA2239
:1004F000DF6ADD2B03D00301112BB1D7D7ECA2F0BB
:10050000050E030111190AE1A30E0001DD25D96EC4
:10051000DA6A010EDA22F00EDF6EDD2B3CC0ADF0A0
:100520003DC0AEF0010E0001AF6F000E39B6010EF6
:10053000B06F000EF0EC9AF02ED1ECEC92F020EEC1
:1005400002F03E50D9263F50DA22DF50EC6FEC0E1D
:10055000716F726B54C073F055C074F0766B010EFE
:10056000756FC5EC99F00001DA8303EC9FF070C061
:1005700016F171C017F172C018F173C019F16FD67E
:1005800020EE01F03E50D9263F50DA22DF50D5E070
:10059000010AD3E064D60001DABBDA9B60D620EE14
:1005A00001F03E50D9263F50DA22DF5001E057D605
:1005B0000301116B040E116501D051D611510B0DC1
:1005C000750EF324D96E010EF420DA6EDFAE35D04D
:1005D0003CC070F03DC071F0030111510B0D700E65
:1005E000F3240001726F010EF420736F00ECA2F08F
:1005F000000923E0030111510B0D750EF324D96E90
:10060000010EF420DA6EDF6A11510B0D6C0EF3242B
:100610000001716F010EF420726F030111510B0D77
:100620000001E851F324736FE951F420746F766B85
:100630000B0E756FC5EC99F012D60301112BBAD7CA
:100640000001ED5101E00BD6010EE36F08D6000169
:10065000ED5101E004D620EE01F03E50D9263F5086
:10066000DA22DF50C46FC405E06F3EC077F03FC0B0
:1006700078F0ACEC95F0F3D50001ED5101E1EFD548
:100680003EC070F03FC071F012EC9AF00301096FA8
:1006900009290EE03EC0BDF03FC0BEF009C3BFF067
:1006A0003CC0C0F03DC0C1F076EC99F00301046F8E
:1006B000045101E1D4D53CC0B7F03DC0B8F0EAEC3C
:1006C000A1F0CDD50001ED5101E1C9D503010F6BBA
:1006D000040E0F6501D0C3D53CC0D9FF3DC0DAFF81
:1006E0000F510B0D700EF324E16E010EF420E26E3B
:1006F000DE50E6182AE120EE01F03C50D9263D50AC
:10070000DA220F510B0D710EF324E16E010EF4206D
:10071000E26EDE50E61819E120EE02F03C50D926D8
:100720003D50DA220F510B0D720EF324E16E010ED3
:10073000F420E26EDE50E61808E1080E0F25D96EAF
:10074000DA6A010EDA22DF2A8AD50F2BC1D73EC022
:10075000D9FF3FC0DAFFDF50770A01E178D70D0AF1
:10076000B1E0FB0A01E16CD5030A01E16BD6050A91
:1007700001E121D6160A01E103D7030A01E10FD7EF
:10078000050A01E108D75B0A01E176D7160A01E103
:1007900057D70001DA87405005E00001DAB902D0EE
:1007A000DAAB12000001DA97D7EFA2F0800E966F55
:1007B000A5D3250E9C1909E07CC0D9FF7DC0DAFFC6
:1007C0009CC0DFFF7C4B7D2B99D39A6B9B6B9D6B01
:1007D0009E6B09D09D8705D09D8103D09E8701D057
:1007E0009D857E4B7F2B7EC0F6FF7FC0F7FF000EFE
:1007F000F86E0800F550200AEFE0030AEFE00E0A59
:10080000E9E01D0AEDE09DB79D957EC0F6FF7FC033
:10081000F7FF000EF86E0800F550E7ECA2F032E3A7
:100820009A6B9B6B9AC070F09BC071F0736B0A0E51
:10083000726F69ECA2F070C09AF071C09BF0D00E9C
:10084000886F89697EC0F6FF7FC0F7FF000EF86EE3
:100850000800F5508A6F8B6B88518A2789518B234A
:100860008A519A278B519B237E4B7F2B7EC0F6FFAC
:100870007FC0F7FF000EF86E0800F550E7ECA2F01D
:1008800016E3D0D77EC0F6FF7FC0F7FF000EF86EEC
:100890000800F5502A0A0BE19651D96EDA6ADECFCC
:1008A0009AF0DDCF9BF0020E96277E4B7F2B7EC009
:1008B000F6FF7FC0F7FF000EF86E0800F5502E0A15
:1008C00036E19E8D7E4B7F2B7EC0F6FF7FC0F7FF0B
:1008D000000EF86E0800F5502A0A0AE19651D96E0A
:1008E000DA6ADF50996F020E96277E4B7F2B8FD0EE
:1008F000996B11D07EC0F6FF7FC0F7FF000EF86E37
:100900000800F5CF88F099510A0DF3508825D00FD3
:10091000996F7E4B7F2B7EC0F6FF7FC0F7FF000EE6
:10092000F86E0800F550E7ECA2F071E3E3D7996B9D
:100930006ED09D8D8BD09D8B9D8F88D099510FE06F
:1009400099C088F0896B88BF89079451885D95515B
:10095000895905E29951946F956B94BF95079A5107
:10096000945D9B51955905E294519A5F95519B5B1B
:1009700002D09A6B9B6B9DA709D01CD07CC0D9FF7D
:100980007DC0DAFF200EDF6E7C4B7D2B9A07D8A04E
:100990009B079A29F3E19B290DE0F0D79351D96E7B
:1009A000DA6A7CC0E1FF7DC0E2FFDFCFE7FF932B77
:1009B0007C4B7D2B9407D8A095079429EFE19529CE
:1009C000D8A4ECD79DB709D099D27CC0D9FF7DC0FF
:1009D000DAFF200EDF6E7C4B7D2B9A07D8A09B0799
:1009E0009A29F3E19B2901E189D2EFD79651D96E7B
:1009F000DA6ADF509C6F020E96279C0E936F000EF2
:100A0000956F010E946F9AD7C00E9D131FD07EC0B4
:100A1000F6FF7FC0F7FF7E4B7F2B000EF86E0800BD
:100A2000F5CF9CF09C5101E177D2580A84E03B0A53
:100A3000DDE0070A0BE00D0A09E0060A01E179D7BB
:100A40001A0AE2E00D0A01E177D7D7D79DC088F0F6
:100A5000C00E881712E19651D96EDA6ADECF97F090
:100A6000DDCF98F0020E962798AF10D0030E9D139D
:100A7000976D981FD8B0982B09D09651D96EDA6A25
:100A8000DECF97F0DDCF98F0020E9627995150E116
:100A9000975198114DE1992B4BD0010E9C6F050E8B
:100AA0009C194FE09C51020D990EF324F66EFB0E3B
:100AB000F420F76EF86A000EF8220900F550975DF1
:100AC0000900F55098593DE39C2BE9D7010E9C6F26
:100AD000040E9C1936E09C51020DA30EF324F66E11
:100AE000FB0EF420F76EF86A000EF8220900F550AC
:100AF000975D0900F550985924E39C2BE9D7010E26
:100B00009C6F060E9C191DE09C51020D8D0EF32466
:100B1000F66EFB0EF420F76EF86A000EF82209005C
:100B2000F550975D0900F55098590BE39C2BE9D7D8
:100B30009D51C00BB2E0400AE2E0C00AC7E0400AA3
:100B4000ACE09C51800A886F9951800A885D03E26D
:100B500099C09CF009D09951800A886F9C51800AF5
:100B6000885DD8A09CC099F09A519B1108E09DC067
:100B700088F0030E881703E09A07D8A09B079EAD64
:100B800013D0800E99BF7F0E886F9A51995D9B514B
:100B9000800A885907E299519A5F000E99BFFF0EAB
:100BA0009B5B02D09A6B9B6BC40E886F080E896F9B
:100BB0009DC08AF09EC08BF088518A1789518B178F
:100BC000400E8A190BE1080E8B19D8A407D09A5150
:100BD0009B1125E09A07D8A09B0721D0C00E886FF3
:100BE000080E896F9DC08AF09EC08BF088518A17CD
:100BF00089518B17800E8A1912E1080E8B19D8A41F
:100C00000ED09BBF0AD09B5103E1030E9A5D05E312
:100C1000FE0E9A27FF0E9B2302D09A6B9B6B800ED1
:100C20009CBF7F0E886F9A519C5D9B51800A8859AA
:100C300007E29C519A5F000E9CBFFF0E9B5B02D0A7
:100C40009A6B9B6B9DA550D09DC088F0030E8817B2
:100C500009E07CC0D9FF7DC0DAFF2D0EDF6E7C4B32
:100C60007D2B32D09DA106D07CC0D9FF7DC0DAFF9C
:100C7000200EF4D7C00E886F080E896F9DC08AF0D1
:100C80009EC08BF088518A1789518B17800E8A1964
:100C90001BE1080E8B19D8A417D07CC0D9FF7DC0EA
:100CA000DAFF300EDF6E7C4B7D2B9DBB03D08E6B4D
:100CB000780E02D08E6B580E8D6F7CC0D9FF7DC030
:100CC000DAFF8DC0DFFFCBD79A519B1101E1FED037
:100CD0007CC0D9FF7DC0DAFF300EDF6E7C4B7D2BF0
:100CE0009A07D8A09B07F0D79A519B11D8A49DB71B
:100CF0000ED07CC0D9FF7DC0DAFF200EDF6E7C4BAA
:100D00007D2B9A07D8A09B079A519B11F2E19DC0B9
:100D100088F0030E881709E07CC0D9FF7DC0DAFF98
:100D20002D0EDF6E7C4B7D2B08D09DA106D07CC0A4
:100D3000D9FF7DC0DAFF200EF4D7C00E886F080EF1
:100D4000896F9DC08AF09EC08BF088518A178951A7
:100D50008B17400E8A190DE1080E8B19D8A409D003
:100D60007CC0D9FF7DC0DAFF300EDF6E7C4B7D2B5F
:100D7000ADD0C00E886F080E896F9DC08AF09EC0EE
:100D80008BF088518A1789518B17800E8A191BE1C5
:100D9000080E8B19D8A49AD07CC0D9FF7DC0DAFF89
:100DA000300EDF6E7C4B7D2B9DBB03D0906B780E9D
:100DB00002D0906B580E8F6F7CC0D9FF7DC0DAFFD8
:100DC0008FC0DFFFD3D782D09951020D990EF32443
:100DD000F66EFB0EF420F76EF86A000EF82209009A
:100DE000F5CF72F00A00F5CF73F097C070F098C09D
:100DF00071F09FEC9FF070C077F071C078F07A6B63
:100E00000A0E796F22ECA0F077514DD097C070F0A8
:100E100098C071F09951020DA30EF324F66EFB0EEB
:100E2000F420F76EF86A000EF8220900F5CF72F090
:100E30000A00F5CF73F09FEC9FF070510F0B8C6F91
:100E40009DBB04D0600E916FFF0E03D04F0E916FCB
:100E5000FF0E926F8C519125886F000E9221896F41
:100E600088C0F6FF89C0F7FF000EF86E0800F5CFC6
:100E70009CF025D097C070F098C071F09951020D88
:100E80008D0EF324F66EFB0EF420F76EF86A000E5A
:100E9000F8220900F5CF72F00A00F5CF73F09FEC4D
:100EA0009FF07051070B300F9C6F09D09D51C00B04
:100EB0008BE0400ADFE0C00AA9E0400A85E07CC080
:100EC000D9FF7DC0DAFF9CC0DFFF50D79907992971
:100ED000EDE19DB79BBF12D09B5102E19A050EE355
:100EE0007CC0D9FF7DC0DAFF200EDF6E7C4B7D2BEE
:100EF0009A07D8A09B079A519B11F2E17EC0F6FF9A
:100F00007FC0F7FF7E4B7F2B000EF86E0800F5CFF9
:100F10009CF09C5101E04DD47CC0D9FF7DC0DAFF2C
:100F2000000EDF6A120003EC9FF070C01AF171C06E
:100F30001BF172C01CF173C01DF1010E486E6CD222
:100F400079EC9FF0000901E020D2A8EC9AF00301AF
:100F5000146F140504E0020E141901E016D200010A
:100F6000ED5137E0DD6BE26B060E706FDF5156EC32
:100F7000A2F0150D0F0E0101F16FFB0EF26FF35091
:100F8000F127F450F2230001E2510101F127000E94
:100F9000F223F1C1F6FFF2C1F7FF000EF86EA30EC7
:100FA0000001DD25D96EDA6A010EDA220800F5CFDC
:100FB000DFFFDD2BE22B140EE265D6D7DF2B010E0F
:100FC00019ECA3F0DCC0A1F0DE2BDE5145ECA3F060
:100FD000DCD10301166B010E476E136FD2D141ECC9
:100FE000A2F0030116510001EC193FE1C00E7C6F25
:100FF000020E7D6F7A0E7E6FFE0E7F6F030116511B
:10100000040DCE0EF324D96E010EF420DA6EDF50FB
:101010000001806F816B03011651040DCB0EF32488
:10102000D96E010EF420DA6EDF500001826F836BFF
:1010300003011651040DCC0EF324D96E010EF420D9
:10104000DA6EDF500001846F856B03011651040DC9
:10105000CD0EF324D96E010EF420DA6EDF500001BC
:10106000866F876BD6EC83F03ED0C00E7C6F020E8D
:101070007D6FC20E7E6FFE0E7F6F03011651040D51
:10108000CE0EF324D96E010EF420DA6EDF5000018B
:10109000806F816B03011651040DCB0EF324D96EC2
:1010A000010EF420DA6EDF500001826F836B0301C2
:1010B0001651040DCC0EF324D96E010EF420DA6E15
:1010C000DF500001846F856B03011651040DCD0EB6
:1010D000F324D96E010EF420DA6EDF500001866F22
:1010E000876BD6EC83F0C00E7C6F020E7D6FC20E54
:1010F0007E6FFE0E7F6F03011651040DCE0EF3249A
:10110000D96E010EF420DA6EDF500001806F816B22
:1011100003011651040DCB0EF324D96E010EF420F9
:10112000DA6EDF500001826F836B03011651040DEC
:10113000CC0EF324D96E010EF420DA6EDF500001DC
:10114000846F856B03011651040DCD0EF324D96E07
:10115000010EF420DA6EDF500001866F876BD6EC4B
:1011600083F0D00E7C6F020E7D6F710E7E6FFF0ECE
:101170007F6FD6EC83F0BCEC9BF0010E476EFED087
:10118000A8EC9AF00301156F79EC9FF003011505A7
:1011900001E0D3D0136B476A16510001EC1934E11A
:1011A000DD6BE26B060E706FDF5156ECA2F0150D91
:1011B0000F0E0101F16FFB0EF26FF350F127F450A7
:1011C000F2230001E2510101F127000EF223F1C1E7
:1011D000F6FFF2C1F7FF000EF86EA30E0001DD2549
:1011E000D96EDA6A010EDA220800F5CFDFFFDD2BB7
:1011F000E22B140EE265D6D7010EBB6F000E0AEC8F
:10120000A1F00001DE2B8AD0DD6BA30EDD25D96EA7
:10121000DA6A010EDA22CC0EDF6EDD2B03011651E5
:10122000040DCB0EF324D96E010EF420DA6EA30E5A
:101230000001DD25E16EE26A010EE222DFCFE7FF69
:10124000DD2B03011651040DCC0EF324D96E010ED3
:10125000F420DA6EA30E0001DD25E16EE26A010ED4
:10126000E222DFCFE7FFDD2B03011651040DCD0E87
:10127000F324D96E010EF420DA6EA30E0001DD25F1
:10128000E16EE26A010EE222DFCFE7FFDD2B040E02
:10129000E26FFC0E0101F16FF269060E0001706F42
:1012A000DF5156ECA2F0150D0F0E0101F36FFB0E8E
:1012B000F46FF350F327F450F4230001E2510101DD
:1012C000F327000EF423F151F327F251F423F3C175
:1012D000F6FFF4C1F7FF000EF86EA30E0001DD2546
:1012E000D96EDA6A010EDA220800F5CFDFFFDD2BB6
:1012F000E22B180EE265CDD7010E3AEC9CF003010B
:10130000126F125101E07DD7030E00019F6FFF0E97
:10131000A06F000EA16FA26F03ECA0F0DCC0A1F0E3
:10132000DE5145ECA3F0050E716FDC0E706F1CEC06
:1013300096F0ED5173ECA3F021D0020E15191EE1C9
:1013400016510101F16FF26BF369F4690001E0518C
:101350000101F56FF66BF351F527F451F623F151C6
:10136000F55DF651800AF76FF251800AF75903E2F2
:101370000301166B02D00301162B476A475001E0A8
:10138000FFD60301130501E12AD6495007E0000109
:10139000ED5104E1C86B63EC94F0496A03EC9FF0F3
:1013A00070C01EF171C01FF172C020F173C021F135
:1013B00001011A511E5DF16F1B511F59F26F1C5133
:1013C0002059F36F1D512159F46FF45107E18D0E2F
:1013D000F15D860EF259470EF3591EE30001ED51FF
:1013E0001BE041ECA2F0C00E7C6F020E7D6F3D0E43
:1013F0007E6FFF0E7F6FEAC080F0816BD6EC83F0CA
:10140000BCEC9BF0070E716FD00E706F1CEC96F069
:10141000486A010E73ECA3F04850D8B4120090D57E
:1014200081A6F084B46B03EC9FF070C0A9F071C08A
:10143000AAF072C0ABF073C0ACF0B451080D000E4E
:10144000F324D96E020EF420DA6EDF503FE0B4517F
:10145000080D040EF324D96E020EF420DA6EA951A1
:10146000DE5CAA51DE58AB51DE58AC51DE582EE29C
:10147000B451080D040EF324D96E020EF420DA6E76
:10148000DECFA1F0DECFA2F0DECFA3F0DECFA4F05E
:10149000A151A95DA56FA251AA59A66FA351AB593D
:1014A000A76FA451AC59A86FA85107E1B50EA55D6F
:1014B000C40EA659040EA75909E3B451080D000E35
:1014C000F324D96E020EF420DA6EDF6AB42B040E18
:1014D000B465A9D7DB2901E0000CB46BB451420D0F
:1014E0003C0EF324D96E020EF420DA6EDFA03AD15E
:1014F0000001B451420D3D0EF324D96E020EF420CA
:10150000DA6EDF500101006F0001B451420D7D0E13
:10151000F324D96E020EF420DA6EDF500101056F5C
:10152000020E0001B36F010100AD06D00001D531FC
:10153000E832E8320F0BB327010100AF1ED00001E3
:10154000B451420D3C0EA16F020EA26FA12B000EF2
:10155000A223F350A127F450A223B351A1250101E6
:10156000016F0001000EA2210101026F0001D531BF
:10157000E832E8320F0BB32702D0016B026B010196
:1015800000A7B3D00001B451420D3C0EA16F020E72
:10159000A26F050EA127000EA223F350A127F4503D
:1015A000A223B351A125D96E000EA221DA6EDF501D
:1015B0000BE0B451420D3C0EF324D96E020EF42020
:1015C000DA6E000EDF6E000C010100AF68D0000182
:1015D000B26BB2510B0D750EF324D96E010EF420CF
:1015E000DA6EDFAE11D00001B2510B0D700EF32494
:1015F000706F010EF420716F01C172F002C173F0BF
:1016000000ECA2F0000905E10001B22B040EB26566
:10161000E0D7050EB26143D0B16BB451420D3C0E20
:10162000A16F020EA26FA12B000EA223F350A127DF
:10163000F450A223B351A127000EA223B151A1253A
:10164000D96E000EA221DA6EB151AD0FE16EE26AE1
:10165000DFCFE7FFB12B030EB165DFD7B251040D29
:10166000280EF324D96E020EF420DA6EDE50AD5D42
:10167000DE50AE59DE50AF59DE50B0599AE3B25148
:10168000040D280EF324D96E020EF420DA6EADC0DC
:10169000DEFFAEC0DEFFAFC0DEFFB0C0DEFF050E76
:1016A0000001B327B451420D3D0EF324946F020E96
:1016B000F420956FB3C096F0B451420D7D0EF32423
:1016C000D96E020EF420DA6EDF50A16FB351A15D26
:1016D000976FDF0E986F010E996FEFEC96F000098F
:1016E00001E167D7B351020F02D00001B3510101EC
:1016F000055F0001B451420D3C0EA16F020EA26FB6
:10170000A12B000EA223F350A127F450A223B35122
:10171000A1250101036F0001000EA2210101046F48
:101720000001B451420D3C0EF324D96E020EF42098
:10173000DA6EDFA204D0190E0101066F02D001019A
:10174000066B0001B451420D3C0EF324D96E020E1B
:10175000F420DA6E000EDFB4010E0101076FB4C091
:10176000DBF0010C0001B42B010EB465B7D6000C00
:10177000280EA56501D0000CA09DA051030BE80622
:10178000D8B4A08FA0C02CF143C02DF1432A2C0E59
:10179000706F010E716F020E726F000E746B736BBF
:1017A000CCEC9DF070C0A9F071C0AAF0020EAC6F35
:1017B000A0AD1AD0AB6B10D0AB51A125D96E000EE5
:1017C000A221DA6E2C0EAC25E16EE26A010EE22255
:1017D000DFCFE7FFAC2BAB2BD531E832E8320F0B74
:1017E000A66FA651AB5DE8E3A0B513D0A1C070F021
:1017F000A2C071F0D531E832E8320F0B726FA9C088
:1018000073F0AAC074F0CCEC9DF070C0A9F071C068
:10181000AAF0A0AF3BD0AB6B10D0AB51D625D96EA0
:10182000000ED721DA6E2C0EAC25E16EE26A010EB5
:10183000E222DFCFE7FFAC2BAB2BD531E832E83229
:101840000F0BA66FA651AB5DE8E32C0EA66F010E41
:10185000A76FAC51A627000EA723D531E832E83296
:101860000F0BA65D706FA751D8A0A705716FD5317A
:10187000E832E8320F0B726FA9C073F0AAC074F09F
:10188000CCEC9DF070C0A9F071C0AAF0A0A76FD0F9
:10189000AB6BE70EAB25D96EDA6A010EDA222C0E9D
:1018A000AC25E16EE26A010EE222DFCFE7FFAC2B4E
:1018B000AB2B030EAB65EDD70101E72B000EE82340
:1018C000E923EA23E75113E1E8C1A6F0030E000182
:1018D000A6170DE1E70E716F010E726F50C073F025
:1018E00051C074F0766B040E756FC5EC99F02C0E38
:1018F0000001AC25D96EDA6A010EDA22DF6AAC2B60
:10190000ACC0A8F0AB6B10D0AB51A325D96E000EC4
:10191000A421DA6E2C0EAC25E16EE26A010EE22201
:10192000DFCFE7FFAC2BAB2BA551AB5DEDE32C0E6E
:10193000946F010E956FA8C096F0A5C097F0DF0ECA
:10194000986F010E996F13EC98F0020EAC27270EDA
:10195000A825706F716B010E7123A551070F726F6F
:10196000A9C073F0AAC074F0CCEC9DF021D0AB6B91
:1019700010D0AB51A325D96E000EA421DA6E2C0E27
:10198000AC25E16EE26A010EE222DFCFE7FFAC2B6D
:10199000AB2BA551AB5DEDE3A3C070F0A4C071F01B
:1019A000A5C072F0A9C073F0AAC074F0CCEC9DF091
:1019B00070C0A9F071C0AAF02C0EAC25D96EDA6AFD
:1019C000010EDA22AAC0DFFFAC2B2C0EAC25D96E9B
:1019D000DA6A010EDA22A9C0DFFFAC2B000ED5B304
:1019E000010E876FAC5100EF8EF0EA51040D040E2A
:1019F000F326000EF422F4BE06D0F45007E1280EC0
:101A0000F35CD8B003D0010EBF6F27D0EA51040DAC
:101A1000040EF324706F000EF420716F736B280EA8
:101A2000726FB4EC9CF07051BF6FEA51040D040E5C
:101A3000F326000EF422F350F4100FE0EA51040DE7
:101A4000040EF324706F000EF420716F736B280E78
:101A5000726F64EC9DF07051BF27C16BCCD0DD6B11
:101A6000A30EDD25D96EDA6A010EDA22770EDF6E5B
:101A7000DD2BA30EDD25D96EDA6A010EDA22EAC06B
:101A8000DFFFDD2BC151090DA30EDD25D96EDA6A0A
:101A9000010EDA22F3CFDFFFDD2BC129090DA30EE2
:101AA000DD25D96EDA6A010EDA22F3CFDFFFDD2BF6
:101AB000040EBE6FC151090DF3CFC2F067D0EA51D9
:101AC000C25D63E2C2510B0D750EF324D96E010E97
:101AD000F420DA6EDFAE3ED00001C2510B0D700E65
:101AE000F324D96E010EF420DA6EA30EDD25E16E2B
:101AF000E26A010EE222DFCFE7FFDD2BC2510B0DC0
:101B0000710EF324D96E010EF420DA6EA30EDD25DA
:101B1000E16EE26A010EE222DFCFE7FFDD2BC25168
:101B20000B0D720EF324D96E010EF420DA6EA30EA3
:101B3000DD25E16EE26A010EE222DFCFE7FFDD2B59
:101B4000A30EDD25D96EDA6A010EDA22C2C0DFFFEC
:101B5000DD2B19D0A30E0001DD25D96EDA6A010E46
:101B6000DA22DF68DD2BA30EDD25D96EDA6A010EDD
:101B7000DA22DF68DD2BA30EDD25D96EDA6A010ECD
:101B8000DA22DF68DCD7040EBE27C22BC151B76F43
:101B9000B86BB72B000EB823090EB703F3CFB9F01B
:101BA000F4CFBAF0B803F350BA27C251BB6FBC6B85
:101BB000B951BB5DBC51800ABD6FBA51800ABD5995
:101BC00001E27DD7BEC0C0F0270EC06501D00BD0AA
:101BD000A30EDD25D96EDA6A010EDA22110EDF6E50
:101BE000DD2BC02BF1D7AD6BAE6B010EAF6FB06BC1
:101BF000F0EC9AF0C12BBF51C15DD8B012002FD7C5
:101C00009B6F030E966FFFD0976BE16B956B8751BF
:101C100024E0820E856F810E846F2CECA2F000010F
:101C20009A6B9E6BB0EC9EF00001E7BF9A2B010E01
:101C3000706F000E716B726B736B74ECA3F09E2B64
:101C4000040E9E65EFD7020E9A6507D0952B950579
:101C5000886F040E8865E3D7000CF09A820E856FBA
:101C6000010E846F2CECA2F0800E0001856FB30E84
:101C7000846F2CECA2F0820E0001856F210E846F20
:101C80002CECA2F00001716B010E706F1CEC96F051
:101C90009D6B9F6B8B94B80EF5ECA2F0AA0EF5EC41
:101CA000A2F00001986B996B50D082A825D0030E4A
:101CB0009F6116D00CD02D0EF5ECA2F00ED0D40EF4
:101CC000F5ECA2F00AD09B51F5ECA2F006D09F51A2
:101CD000F2E0010AF4E0030AF6E000019F2BE1D7ED
:101CE0002C0E9D25D96EDA6A010EDA22DF50F5EC52
:101CF000A2F000019D2BD5D7984B992B98519911A3
:101D000024E18B84972B9705886F140E886501D08A
:101D10002FD0820E856F810E846F2CECA2F0800E86
:101D20000001856F730E846F2CECA2F0CA0E0001C7
:101D3000856F830E846F2CECA2F00001716B050E91
:101D4000706F1CEC96F0F08A60D79B51886F896B9E
:101D5000020E8827000E89239D518A6F8B6B885154
:101D60008A5D8B51800A8C6F8951800A8C599DE362
:101D70008B84820E856F810E846F2CECA2F0800E16
:101D80000001856F730E846F2CECA2F0CA0E000167
:101D9000856F830E846F2CECA2F0B0EC9EF0F08A7D
:101DA00001012CAB0ED02DC146F003EC9FF070C0AA
:101DB0008DF071C08EF072C08FF073C090F0E15161
:101DC00004E0010E00019C6F23D003EC9FF070C073
:101DD00091F071C092F072C093F073C094F08D5185
:101DE000915D886F8E519259896F8F5193598A6F87
:101DF000905194598B6F8B518A1105E10A0E885DC1
:101E00003D0E8959DCE39607962901E0FDD69C6BCF
:101E10009C51120000017D6F050E7D651FD02A0EBA
:101E2000716FFF0E726F7CECA2F07F6B7F51FD082B
:101E3000D96E000ED8A0E82A0108DA6EDF50B7ECA0
:101E4000A0F07F2B040E7F65F1D7D30E716FFF0ECC
:101E5000726F7CECA2F0EB51F0EC9CF0050E7D6112
:101E600069D0300E716FFD0E726F7CECA2F07D5167
:101E70000B0D750EF324D96E010EF420DA6E0101FC
:101E8000DFAE120000017D51B7ECA0F0C50E716FFE
:101E9000FF0E726F7CECA2F07F6B050E7F6119D094
:101EA0007D510B0D6C0E7B6F010E7C6F080E7B2736
:101EB000000E7C23F3507B27F4507C237F517B5D05
:101EC000D96E7C51D8A07C05DA6EDF50B7ECA0F05B
:101ED00006D0D00E716FFF0E726F7CECA2F07F2BDC
:101EE000070E7F65DAD7CE0E716FFF0E726F7CEC36
:101EF000A2F07F6B7D510B0D6C0E7B6F010E7C6F22
:101F00000A0E7B27000E7C23F3507B27F4507C23A2
:101F10007F517B25D96E000E7C21DA6EDF50B7EC45
:101F2000A0F07F2B7F51E6E0FB0E716FFF0E726F0A
:101F300080EFA2F02E0E716FFD0E726F7CECA2F09E
:101F40007F6B7F510B0D750EF324D96E010EF420BB
:101F5000DA6EDFAE58D000017F51B7ECA0F0C50EAD
:101F6000716FFF0E726F7CECA2F07E6B050E7E61CE
:101F700019D07F510B0D6C0E7B6F010E7C6F080E1C
:101F80007B27000E7C23F3507B27F4507C237E516B
:101F90007B5DD96E7C51D8A07C05DA6EDF50B7EC42
:101FA000A0F006D0D00E716FFF0E726F7CECA2F025
:101FB0007E2B070E7E65DAD7CE0E716FFF0E726F25
:101FC0007CECA2F07E6B7F510B0D6C0E7B6F010ED3
:101FD0007C6F0A0E7B27000E7C23F3507B27F45086
:101FE0007C237E517B25D96E000E7C21DA6EDF507A
:101FF000B7ECA0F07E2B7E51E6E0FB0E716FFF0E7A
:10200000726F7CECA2F000017F2B040E7F6599D7E4
:10201000040C156E030E206EF5D0216A0001E16BF1
:102020001F6A0F5025E0820E036E810E026E8FEC48
:10203000A2F0246A266A040E266401D00FD052EC66
:102040009FF00001E7BF242A010E016E000E026A14
:10205000036A046A75ECA3F0262AEDD7020E246405
:1020600007D01F2A1F04106E040E1064E2D7040C60
:10207000F09A820E036E010E026E8FECA2F0800EBB
:10208000036EB30E026E8FECA2F0820E036E210E71
:10209000026E8FECA2F0026A010E016E86EC96F0E1
:1020A000256A276A8B94B80E02ECA3F0AA0E02EC04
:1020B000A3F0226A236A4BD082A823D0030E2760A4
:1020C00015D00CD02D0E02ECA3F00ED0D40E02ECE5
:1020D000A3F00AD0155002ECA3F006D02750F2E08E
:1020E000010AF4E0030AF6E0272AE3D72C0E2524A0
:1020F000D96EDA6A010EDA22DF5002ECA3F0252A4B
:10210000D8D7224A232A2250231021E18B84212A66
:102110002104106E140E106401D02CD0820E036EB8
:10212000810E026E8FECA2F0800E036E730E026EB3
:102130008FECA2F0CA0E036E830E026E8FECA2F03B
:10214000026A050E016E86EC96F0F08A67D715508C
:10215000106E116A020E1026000E11222550126E0A
:10216000136A1050125C1350800A146E1150800ACA
:102170001458A2E38B84820E036E810E026E8FECE4
:10218000A2F0800E036E730E026E8FECA2F0CA0EE8
:10219000036E830E026E8FECA2F052EC9FF0F08A79
:1021A00001012CAB0ED02DC146F0DAEC9EF001C03F
:1021B00017F002C018F003C019F004C01AF0E15182
:1021C00003E0010E166E010CDAEC9EF001C01BF06C
:1021D00002C01CF003C01DF004C01EF017501B5CB1
:1021E000106E18501C58116E19501D58126E1A504E
:1021F0001E58136E1350121005E10A0E105C3D0EAE
:102200001158DDE32006202801E007D7166A1200E6
:102210008B6F70EC98F0DA6B8B5137E18F6B8F51CD
:102220000B0D750EF324D96E010EF420DA6EDF6A01
:102230008F510B0D700EF324D96E010EF420DA6E5F
:10224000DF6A8F510B0D710EF324D96E010EF4204D
:10225000DA6EDF6A8F510B0D720EF324D96E010E08
:10226000F420DA6EDF6A080E8F25D96EDA6A010E65
:10227000DA22DF6A0D0E8F25D96EDA6A010EDA22B4
:10228000DF6A8F2B040E8F65CAD723ECA3F0DD6BBA
:102290008F6B8F51040D280EF324D96E020EF4209B
:1022A000DA6EDE6ADE6ADE6ADD6A8F2B040E8F6507
:1022B000F0D78B515DE0EB0E716F726B4CC073F019
:1022C0004DC074F0766B010E756F86EC9EF01F0E9C
:1022D0000001EB6501D01F0CEF0E716F726B4AC0ED
:1022E00073F04BC074F0766B010E756F86EC9EF048
:1022F0006C0E0001716F010E726FE8C073F0E9C0DF
:1023000074F0766B370E756F86EC9EF0ED0E000163
:10231000716F726B52C073F053C074F0766B010E24
:10232000756F86EC9EF0EC0E0001716F726B54C0FD
:1023300073F055C074F0766B010E756F86EC9EF0ED
:10234000EA0E0001716F726B4EC073F04FC074F0F3
:10235000766B010E756F86EC9EF0DF0E0001716FDB
:10236000FF0E726F7CECA2F0EB51B7ECA0F027D01F
:10237000EB0E716F726B4CC073F04DC074F0766BE6
:10238000010E756FC5EC99F0EF0E0001716F726B65
:102390004AC073F04BC074F0766B010E756FC5ECDC
:1023A00099F06C0E0001716F010E726FE8C073F04E
:1023B000E9C074F0766B370E756FC5EC99F0F90EC5
:1023C00000018D6F010E8E6F8C838C51870B280955
:1023D0008C6F8BB102D08C9502D000018C858C91D2
:1023E0008CC087F08DC088F08EC089F005EC92F02B
:1023F0000001EB51D3ECA1F00001D96BD981D98751
:10240000EF39F00BD913F08A120087C0D5F088C0DD
:10241000D6F089C0D7F08B848D868B9A8B96D6CFD9
:1024200043F0DB698A6B8A51420D3C0EF324D96E6E
:10243000020EF420DA6EDF6A8A2B010E8A65F3D76A
:1024400087A523D0E70E716F010E726F50C073F035
:1024500051C074F0766B040E756F86EC9EF001012E
:10246000D890040EE827000EE923EA23E70E0001C6
:10247000716F010E726F50C073F051C074F0766BC3
:10248000040E756FC5EC99F019D00101E76BE86B8C
:10249000E96BEA6BE70E0001716F010E726F50C0BD
:1024A00073F051C074F0766B040E756FC5EC99F043
:1024B000010E0101E76FE86BE96BEA6B00018A6BC3
:1024C000AB0E8A25F66EF76AFB0EF722F86A000E4D
:1024D000F822DF0E8A25D96EDA6A010EDA220800A8
:1024E000F5CFDFFF8A2B070E8A65EAD7CA0E856F04
:1024F000810E846F2CECA2F0CA0E0001856F830E52
:10250000846F2CECA2F0800E0001856F330E846F77
:102510002CECA2F0C40E0001856FB70E846F2CEC7A
:10252000A2F0A70E0001856FD00E846F2CECA2F0F4
:10253000C60E0001856F230E846F2CECA2F0820E74
:102540000001856F010E846F2CECA2F0A4ECA1F0C9
:10255000040E7011846F940E7111856F2CECA2F033
:10256000980E0001856F100E846F2CECA2F0C20E45
:102570000001856FAC0E846F2CECA2F0820E00017E
:10258000856F210E846F2CECA2F00001716B050E9B
:10259000706F1CEC96F0820E856F810E846F2CECB0
:1025A000A2F0800E0001856F730E846F2CECA2F0F8
:1025B000CA0E0001856F810E846F2CECA2F0CA0E4A
:1025C0000001856F830E846F2CECA2F00001856BF7
:1025D000846B2CECA2F0120000017E6B7F69806B93
:1025E00080510B0D750EF324D96E010EF420DA6EB6
:1025F000DFAE16D03CC070F03DC071F000018051DC
:102600000B0D700EF324726F010EF420736F00EC4B
:10261000A2F000090AE080C07FF0010E7E6F09D0B1
:1026200000017F29D8B480C07FF0802B040E806524
:10263000D7D77F2901E1F10CEF5103E000017E5172
:1026400012007FC044F0806B80513C24D96E000E94
:102650003D20DA6E7F510B0D6C0E7A6F010E7B6F91
:10266000040E7A27000E7B23F3507A27F4507B2345
:1026700080517A25E16E000E7B21E26EDFCFE7FF0D
:10268000802B070E8065E0D77F510B0D750EF3246C
:10269000D96E010EF420DA6EDF8E20EE02F03E508D
:1026A000D9263F50DA22DF5000017A6F010E7A17E7
:1026B0007F510B0D750EF324D96E010EF420DA6EE6
:1026C000DF507A19FE0B7A19DF6E0001806B8051A2
:1026D0003E247A6F000E3F207B6F030E7A25D96E61
:1026E000000E7B21DA6E7F510B0D6C0E7C6F010E9C
:1026F0007D6F0A0E7C27000E7D23F3507C27F4505B
:102700007D2380517C25E16E000E7D21E26EDFCFBE
:10271000E7FF802B8051DBE07F51040D280EF3246E
:10272000D96E020EF420DA6EDE6ADE6ADE6ADD6AD7
:102730007FC0D8F0DA992BEC9FF0EA6FEA0E716F48
:10274000726B4EC073F04FC074F0766B010E756FF4
:10275000C5EC99F073D770C0D9FF71C0DAFFDECF36
:1027600081F0DDCF82F020EE02F07051D926715158
:10277000DA22DECF83F0DDCF84F0856B866B9E0E90
:102780007F6F370E7E6F806B030E8515746F756BD0
:10279000D8907437753774517225D96E755173217D
:1027A000DA6EDECF76F0DDCF77F085517627865171
:1027B000772383C078F084C079F0050E7A6FD890C3
:1027C000793378337A2FFBD783C07BF084C07CF0D9
:1027D0007B3B7C3BF00E7C177B510F0B7C13F00E88
:1027E0007B1778517B1B79517C1B83517B2784514C
:1027F0007C2376517B1B77517C1B7B5181277C513D
:1028000082237E5185277F51862385C074F086C040
:1028100075F00B0E766FD89075337433762FFBD727
:10282000030E7417756BD890743775377451722511
:10283000D96E75517321DA6EDECF77F0DDCF78F087
:10284000855177278651782381C079F082C07AF04C
:10285000050E7B6FD8907A3379337B2FFBD781C0FD
:102860007CF082C07DF07C3B7D3BF00E7D177C517F
:102870000F0B7D13F00E7C1779517C1B7A517D1B59
:1028800081517C2782517D2377517C1B78517D1BA0
:102890007C5183277D518423802B1F0E806574D744
:1028A00070C0D9FF71C0DAFF81C0DEFF82C0DDFFDA
:1028B00020EE02F07051D9267151DA2283C0DEFF7A
:1028C00084C0DDFF1200EFC0F1F2030E0201F26FCF
:1028D000F36B03EC9FF070C022F171C023F172C062
:1028E00024F173C025F1C80501E1FF0C03EC9FF052
:1028F00070C0F4F271C0F5F272C0F6F273C0F7F274
:10290000B40E0201F45FC40EF55B040EF65B000E1C
:10291000F75B0001EF6BDA897AD003EC9FF070C0AF
:10292000F8F271C0F9F272C0FAF273C0FBF2020160
:10293000F451F85D0001C96F0201F551F959000128
:10294000CA6F0201F651FA590001CB6F0201F7512B
:10295000FB590001CC6FCC5107E1B50EC95DC40E27
:10296000CA59040ECB594DE3F8C2F4F2F9C2F5F29C
:10297000FAC2F6F2FBC2F7F20201F307F32947E1CC
:10298000010EF36FF207F22903E10001DA99FF0C5F
:102990000001DD6BA30EDD25D96EDA6A010EDA22A5
:1029A000810EDF6EDD2BA30EDD25D96EDA6A010EF6
:1029B000DA22EBC0DFFFDD2BA30EDD25D96EDA6A4C
:1029C000010EDA22D9C0DFFFDD2B0201FC6BFC51C6
:1029D000EE0FD96EDA6AA30E0001DD25E16EE26A20
:1029E000010EE222DFCFE7FFDD2B0201FC2BFC51C1
:1029F000EEE00001AD6BAE6B010EAF6FB06BF0ECB3
:102A00009AF04CECA3F00009D8A466ECA3F0000106
:102A1000DAB983D7F1C2EFF0D8511200BB6FBB29EE
:102A200051E1BC6BBC510B0D750EF324D96E010E38
:102A3000F420DA6EDFAE21D00001DD6BA30EDD25C0
:102A4000D96EDA6A010EDA22820EDF6EDD2BBC51FE
:102A50000B0D700EF324AD6F010EF420AE6F010E5E
:102A6000AF6F000EB06BF0EC9AF0B76BB86BB74B72
:102A7000B82BB7290F0EB859FAE30001BC510B0D62
:102A8000750EF324D96E010EF420DA6EDF6ABC51A4
:102A90000B0D6C0EF324716F010EF420726FBC519C
:102AA0000B0DE851F324736FE951F420746F766BCA
:102AB0000B0E756FC5EC99F00001BC2B040EBC65C4
:102AC000B1D7040CBB510B0D750EF324D96E010E5A
:102AD000F420DA6E0101DFAE12000001DD6BA30EFF
:102AE000DD25D96EDA6A010EDA22820EDF6EDD2B69
:102AF000BB510B0D700EF324AD6F010EF420AE6FC1
:102B0000010EAF6F000EB06BF0EC9AF0B96BBA6BC0
:102B1000B94BBA2BB9290F0EBA59FAE3BB510B0DB9
:102B2000750EF324D96E010EF420DA6EDF6ABB5104
:102B30000B0D6C0EF324716F010EF420726FBB51FC
:102B40000B0DE851F324736FE951F420746F766B29
:102B50000B0E756FC5EF99F0040E7C6F7CC079F099
:102B6000030E791762E17C51796F7A6B030E792736
:102B7000000E7A237ABF06D07A5157E1280E795D8C
:102B8000D8B053D07C517725796F000E78217A6FB9
:102B9000030E7925D96E000E7A21DA6EDF507B6F35
:102BA0007B51040DCE0EF324D96E010EF420DA6EA3
:102BB0007BC0DFFF7C517725D96E000E7821DA6E5D
:102BC0007B51040DCB0EF324E16E010EF420E26E76
:102BD000DFCFE7FF7C517725796F000E78217A6F80
:102BE0007929D96E000E7A21DA6E7B51040DCC0E54
:102BF000F324E16E010EF420E26EDFCFE7FF7C519B
:102C00007725796F000E78217A6F020E7925D96EBB
:102C1000000E7A21DA6E7B51040DCD0EF324E16EA5
:102C2000010EF420E26EDFCFE7FF7C2B270E7C65E0
:102C300095D778EC9CF012007051726F7151736FE0
:102C4000746B756BC40E7203F3CF76F0F4CF77F02C
:102C5000786B796B7303F3507727F4507823000E69
:102C60007923090E7203F3507727F4507823000E6E
:102C70007923C40E7403F3507827F4507923090E96
:102C80007303F3507827F4507923000E7203F35046
:102C90007827F4507923C40E7503F3507927090E71
:102CA0007403F3507927000E7303F3507927000E55
:102CB0007203F350792776C07AF077C07BF078C042
:102CC0007CF079C07DF0560E7A27FF0E7B237C23A3
:102CD0007D237DBF12007D517C117B110DE1C40E5F
:102CE0007A5DD8A0120008D000F0D90E00017A2732
:102CF000FF0E7B237C237D237DBF12007D517C1141
:102D00007B11F2E17A05D8B0EFD712000150036EC3
:102D10000250046E056A066AC40E0302F3CF07F080
:102D2000F4CF08F0096A0A6A0402F3500826F45046
:102D30000922000E0A22090E0302F3500826F4505D
:102D40000922000E0A22C40E0502F3500926F4508F
:102D50000A22090E0402F3500926F4500A22000E3A
:102D60000302F3500926F4500A22C40E0602F3505F
:102D70000A26090E0502F3500A26000E0402F3503B
:102D80000A26000E0302F3500A2607C00BF008C003
:102D90000CF009C00DF00AC00EF0560E0B26FF0E07
:102DA0000C220D220E220EBE12000E500D100C1021
:102DB0000CE1C40E0B5CD8A0120007D000F0D90EB5
:102DC0000B26FF0E0C220D220E220EBE12000E50FC
:102DD0000D100C10F3E10B04D8B0F0D71200A06B6B
:102DE0009651A05D02E39E6B08D0A0519425D96E48
:102DF000000E9521DA6EDF509E6F9F6BEB0EA025C3
:102E0000D96EDA6A010EDA229EC0DFFFA02B020E15
:102E1000A065E6D796519425876F000E9521886F9F
:102E200097C089F098C08AF099C08BF0EB0E8C6F38
:102E3000010E8D6FB3EC97F094C087F095C088F0C9
:102E400096519725FE0F896F98C08AF099C08BF034
:102E5000EB0E8C6F010E8D6F1FEC99F0A06B9651ED
:102E600094259A6F000E95219B6F97519A27000E1B
:102E70009B23A0519A27000E9B23FE0E9A25D96E04
:102E8000FF0E9B21DA6EEB0EA025E16EE26A010EC9
:102E9000E222DE50E61801E0000CA02B010EA06536
:102EA000DED7010C39A606D0E90E716FFF0E726FE6
:102EB0007CECA2F03950030B07E0440E716FFE0E5C
:102EC000726F7CECA2F006D0600E716FFE0E726F16
:102ED0007CECA2F04150B7ECA0F039AC2DD0F20E52
:102EE000716FFF0E726F7CECA2F039AE11D020EE44
:102EF00001F03C50D9263D50DA22DF50B7ECA0F06B
:102F00003CC0D9FF3DC0DAFFDF50B7ECA0F014D0D1
:102F1000766B76513C5C746F000E3D58756F040EF5
:102F20007425D96E000E7521DA6EDF50B7ECA0F073
:102F3000762B040E7665EDD7DC0E716FFF0E726F87
:102F40007CECA2F0766B0AD076513E24D96E000E4E
:102F50003F20DA6EDF5052ECA3F0762B4050765DC6
:102F6000D8B01200F1D789C08EF0D8908E33D890A7
:102F70008E338E29916F926B51D0936B93518C2528
:102F8000D96E000E8D21DA6EEB0E9325E16EE26AAA
:102F9000010EE222DFCFE7FF932B020E9365EED7FF
:102FA00092C0EEF1EB0E706F010E716F8AC072F07D
:102FB0008BC073F0ABEC93F0936B89518E6F8F6B7A
:102FC0009251040D9351F326000EF4228E51F35CBE
:102FD000F450800A906F8F51800A90591EE2EB0ED8
:102FE0009325D96EDA6A010EDA22DF508E6F925184
:102FF000040D87C08FF088C090F0F3508F27F450F5
:10300000902393518F25D96E000E9021DA6E8E5148
:10301000DF1A932B030E9365D0D7922B9151925DBB
:10302000D8B01200AAD794C087F095C088F0965106
:103030009725896F98C08AF099C08BF0EB0E8C6F42
:10304000010E8D6F1FEC99F09E6BEB0E9E25D96ED5
:10305000DA6A010EDA22965194259A6F000E9521B4
:103060009B6F97519A27000E9B239E519A25E16EE4
:10307000000E9B21E26EDFCFE7FF9E2B030E9E65C5
:10308000E4D79E6B96519E5D02E39C6B08D09E51E7
:103090009425D96E000E9521DA6EDF509C6F9D6BE2
:1030A000EB0E9E25D96EDA6A010EDA229CC0DFFF94
:1030B0009E2B020E9E65E6D796519425876F000ED3
:1030C0009521886F9751040F896F98C08AF099C035
:1030D0008BF0EB0E8C6F010E8D6FB3EC97F012003E
:1030E000010E766F01012A6B2B6B0001716B020ED2
:1030F000706FEF0E726F010E736FE4EC9FF00001C2
:103100007617716B010E706F4C0E726F736BE4EC7F
:103110009FF000017617716B010E706F4A0E726F8F
:10312000736BE4EC9FF000017617716B370E706FD4
:10313000E80E726F736BE4EC9FF000017617716B11
:10314000040E706F500E726F736BE4EC9FF0000111
:103150007617716B010E706F4E0E726F736BE4EC2D
:103160009FF000017617716B010E706F520E726F37
:10317000736BE4EC9FF000017617716B010E706FBA
:10318000540E726F736BE4EC9FF00001761712001F
:1031900002EE00F0E10EEE6AE806FDE101EE00F05D
:1031A000F10EEE6AE806FDE100EED5F0190EEE6ACA
:1031B000E806FDE100EE39F01D0EEE6AE806FDE1DD
:1031C0007A0EF66E460EF76E010EF86E03EE17F0ED
:1031D00010EE10F00900F5CFEEFFE550E150FAE1F6
:1031E0006A0EF66E460EF76E010EF86E02EEE1F014
:1031F00010EE10F00900F5CFEEFFE550E150FAE1D6
:10320000DA0EF66E460EF76E010EF86E01EEF9F06C
:1032100010EE05F00900F5CFEEFFE550E150FAE1C0
:10322000E40EF66E460EF76E010EF86E0900F5CF4D
:10323000EEF00900F5CFEFF00001A2EFA2F089C097
:103240008EF0D8908E33D8908E338E29916F936BF9
:1032500093518C25D96E000E8D21DA6EDF6A932B87
:10326000030E9365F5D7936B3CD0926B89518E6FAB
:103270008F6B9351040D9251F326000EF4228E5160
:10328000F35CF450800A906F8F51800A90591EE2CF
:103290009351040D87C08EF088C08FF0F3508E27B5
:1032A000F4508F2392518E25D96E000E8F21DA6E45
:1032B000DF50906F92518C25D96E000E8D21DA6E01
:1032C0009051DF1A922B030E9265D0D78CC070F00C
:1032D0008DC071F08AC072F08BC073F0ABEC93F0CC
:1032E000932B9151935DD8B01200BFD70001DD6BD5
:1032F000C0C0D9FFC1C0DAFFA30EDD25E16EE26ACE
:10330000010EE222DFCFE7FFDD2B20EE01F0C051FE
:10331000D926C151DA22A30EDD25E16EE26A010E43
:10332000E222DFCFE7FFDD2B20EE02F0C051D926ED
:10333000C151DA22A30EDD25E16EE26A010EE2221E
:10334000DFCFE7FFDD2B030EC36FC351BD25D96E61
:10335000000EBE21DA6EA30EDD25E16EE26A010EDB
:10336000E222DFCFE7FFDD2BC32B270EC365EDD7AE
:10337000010EBB6FBF510AECA1F00001C26FC25138
:10338000D8B4C6ECA2F0C2511200000EF0BA010E81
:10339000786FF09A8996050EF5ECA2F058ECA3F040
:1033A0000001796F898670ECA3F0000179B1F2D742
:1033B0008996060EF5ECA2F0898670ECA3F089964A
:1033C000020EF5ECA2F000017451F5ECA2F0000140
:1033D0007351F5ECA2F00001796B1AD071C0D9FFDE
:1033E00072C0DAFFDF50F5ECA2F00001714B722BD6
:1033F0007507D8A07607792B79517325776F3F0E23
:10340000771706E1898679517327000E7423C2D796
:1034100075517611E3E1898678B102D0F09A01D036
:10342000F08A1200746B42D074510B0D750EF324A8
:10343000D96E010EF420DA6EDFAE36D00001745181
:103440000B0D700EF324D96E010EF420DA6E10EE1F
:1034500001F07051E1267151E222DE50E61824E1BC
:1034600074510B0D710EF324D96E010EF420DA6E37
:1034700010EE02F07051E1267151E222DE50E618A2
:1034800013E174510B0D720EF324D96E010EF4206A
:10349000DA6E10EE03F07051E1267151E222DE5037
:1034A000E61802E1745112000001742BEA51745DB8
:1034B000BBE3EA517419D8B4FF0E12000001CD6FBE
:1034C000CD5105E0010E08EC91F0ED5112008C9EFB
:1034D0008C9C000E08EC91F0190ED3ECA1F00009C1
:1034E00003E1190EB4ECA2F0000E9AECA0F0000E6D
:1034F0000001A46F190EFEEC9DF0C86B63EC94F014
:10350000CE6FCE2907E0010EA46F190EFEEC9DF0E0
:10351000ED6B0BD00A0E7A6F000E7B6B7C6B7D6BB4
:103520007E6B7DECA0F0010EED6FED0E716F726B96
:1035300052C073F053C074F0766B010E756FC5EC1A
:1035400099F0FF0E0AEC8FF08C8E0001ED51120005
:1035500081B00FD0455043E1010E456E03EC9FF062
:1035600070C012F171C013F172C014F173C015F183
:10357000010C80BA0FD0455032E1010E456E03ECCC
:103580009FF070C012F171C013F172C014F173C0DA
:1035900015F1020C03EC9FF070C07EF071C07FF05B
:1035A00072C080F073C081F00101125100017E5D94
:1035B0007A6F0101135100017F597B6F0101145192
:1035C000000180597C6F01011551000181597D6F07
:1035D0007D517C1103E1400E7B5DD8B0456A000C43
:1035E000B36FB46BAF5103E0B16BB12B02D00001EC
:1035F000B16BB451B119FC0BB119B46FB35103E104
:10360000B16BB12B02D00001B16BB13BB147B451EA
:10361000B119DF0BB119B46FB3B102D0B49502D0B8
:103620000001B485B0B102D0B49702D00001B487D4
:10363000B49DB451030BE80602E1B48F01D0B49FEE
:10364000ADC0B5F0AEC0B6F0B4C0A0F0B5C0A1F04A
:10365000B6C0A2F0A30EA36F010EA46FDDC0A5F04B
:10366000B8EC8BF0B26FDD6BB251120003EC9FF03F
:1036700070C0A8F071C0A9F072C0AAF073C0ABF01E
:1036800003EC9FF070C0ACF071C0ADF072C0AEF052
:1036900073C0AFF0A851AC5DA46FA951AD59A56F2F
:1036A000AA51AE59A66FAB51AF59A76FA75122E1EE
:1036B000D10EA45D120EA559130EA659D8B0120052
:1036C00001D01200A8EC9AF00001B06F020EB01900
:1036D00010E1EE0E9F6FFE0EA06F000EA16FA26FA5
:1036E00003ECA0F0030E716FE80E706F1CEC96F007
:1036F000010C000E1200270E9F6FFE0EA06F000E31
:10370000A16F010EA26F03ECA0F0B50E716FFC0E5D
:10371000726F7CECA2F0AE0E716FFD0E726F7CECDE
:10372000A2F0AB0E716FFE0E726F7CECA2F0370E42
:10373000716FFC0E726F7CECA2F0770E716FFC0E55
:10374000726F7CECA2F0F50E716FFB0E726F7CEC69
:10375000A2F0B30E716FFB0E726F7CECA2F0F20E52
:10376000716FFC0E726F7CECA2F0F90E716FFF0EA0
:10377000726F7CECA2F01200800E41ECA0F0000110
:103780007F6BC00E7F25D96EDA6A020EDA22DF5017
:1037900004E1200E5FECA0F009D0C00E7F25D96EA9
:1037A000DA6A020EDA22DF505FECA0F000017F2B14
:1037B0000F0E7F65E6D7C00E41ECA0F0100E0001A1
:1037C0007F6FC00E7F25D96EDA6A020EDA22DF50D3
:1037D00004E1200E5FECA0F009D0C00E7F25D96E69
:1037E000DA6A020EDA22DF505FECA0F000017F2BD4
:1037F0001F0E7F65E6D71F0C929489840001716BC0
:103800000A0E706F1CEC96F0979C8E9C716B0A0EE2
:10381000706F1CEC96F08E8C62ECA3F0BCECA1F007
:103820008CECA1F0000E59ECA1F00001716B0A0EB6
:10383000706F1CEC96F03C0ED3ECA0F00001716BA5
:103840000A0E706F1CEC96F00C0ED3ECA0F0000189
:10385000716B0A0E706F1CEC96F0010ED3ECA0F0A9
:103860000001716B0A0E706F1CEC96F00C0ED3EC1D
:10387000A0F01200CC6FE36B700EAD6F010EAE6F57
:10388000010EAF6FCCC0B0F0000EF0EC9AF003EC7C
:103890009FF070C0CDF071C0CEF072C0CFF073C099
:1038A000D0F022D003EC9FF070C0D1F071C0D2F004
:1038B00072C0D3F073C0D4F04CECA3F0CD51D15D05
:1038C000C86FCE51D259C96FCF51D359CA6FD05199
:1038D000D459CB6FCB51CA1105E1250EC85DF40E4A
:1038E000C95902E3E30502E1E351DCE0E3511200D0
:1038F000756BED51D8A41200766B1ED07651040D75
:10390000CB0EF324D96E010EF420DA6E0101F951C9
:10391000DE1810E100017651040DCC0EF324D96EAF
:10392000010EF420DA6EDE500101FA1903E1010EF6
:103930000001756F0001762BE051706F716B702B79
:10394000000E71237651726F736B7051725D7351FB
:10395000800A746F7151800A7459D0E37551D8A4EC
:103960001200010E496E010C756B73AF06D0726DBB
:10397000731FD8B0732B010E756F71AF06D0706DC9
:10398000711FD8B0712B010E751B766B776B72515E
:1039900073111BE0010E746F04D0D8907237733727
:1039A000742B73AFFAD7D890763777377251705D32
:1039B0007351715905E37251705F7351715B768178
:1039C000D89073337233742FEED7755104E0766D4F
:1039D000771FD8B0772B76C070F077C071F01200E7
:1039E0007A6F630E7A6510D0640E746F7A513FEC73
:1039F000A1F0786F796BE10E7825D96E020E7921EE
:103A0000DA6EDF5052ECA3F0090E7A6514D00A0E7C
:103A1000746F640E706F7A5156ECA2F03FECA1F017
:103A2000786F796BE10E7825D96E020E7921DA6E06
:103A3000DF5052ECA3F00A0E706F7A5156ECA2F0F0
:103A4000786F796BE10E7825D96E020E7921DA6EE6
:103A5000DF5052ECA3F0120041ECA2F0C00E7C6FDC
:103A6000020E7D6F820E7E6FFF0E7F6FD6EC83F0AD
:103A7000D00E7C6F020E7D6FD80E7E6FFE0E7F6FB4
:103A80009FC0D9FFA0C0DAFFDF50806F816B20EEAE
:103A900001F09F51D926A051DA22DF50826F836B4B
:103AA00020EE02F09F51D926A051DA22DF50846F18
:103AB000856BD6EC83F0BCEC9BF0040E716FB00EFE
:103AC000706F1CEC96F01200756B71AF06D0706DC4
:103AD000711FD8B0712B010E756F73AF04D0726D6A
:103AE000731FD8B0732B7251731117E0010E746FEE
:103AF00004D0D89072377337742B73AFFAD77251E2
:103B0000705D7351715904E37251705F7351715B51
:103B1000D89073337233742FF2D7755104E0706DFF
:103B2000711FD8B0712B70C070F071C071F01200AD
:103B300004C009F005C00AF027D001C0D9FF02C0B7
:103B4000DAFFDF50076E066A0650091A07500A1A94
:103B5000014A022A086A070E086401D015D00AAE8D
:103B60000ED009C006F00AC007F0D8900636073616
:103B7000210E0618096E100E07180A6E03D0D89091
:103B800009360A36082AE7D7030603AED6D709C096
:103B900001F00AC002F0120073C078F074C079F02E
:103BA00025D070C0D9FF71C0DAFFDF50766F756B1A
:103BB0007551781B7651791B704B712B776B79AFF0
:103BC0000ED078C075F079C076F0D890753776371A
:103BD000210E7519786F100E7619796F03D0D89071
:103BE00078377937772B070E7765E9D7720772AF89
:103BF000D8D778C070F079C071F01200A56FA451C9
:103C000014E18E0E9F6FFD0EA06FA5C0A1F0010EF6
:103C1000A26F03ECA0F0EC0E716FFD0E726F7CECE6
:103C2000A2F0A551F0EC9CF013D0CD0E9F6FFD0ECD
:103C3000A06FA5C0A1F0010EA26F03ECA0F00A0EC8
:103C4000716FFE0E726F7CECA2F0A551F0EC9CF04F
:103C5000FB0E716FFF0E726F80EFA2F0BE6BBE5154
:103C60000B0D750EF324D96E010EF420DA6EDFAE63
:103C70001CD0080E0001BE25D96EDA6A010EDA22C8
:103C8000DF500CE10D0EBE25D96EDA6A010EDA2284
:103C9000DE2804E0BE510EEC95F007D0080EBE25DC
:103CA000D96EDA6A010EDA22DF6A0001BE2B040E39
:103CB000BE65D5D7040C700ED36EC088DF0EC16E02
:103CC000C268C098926893689468956A896A8A6A9B
:103CD0008B6A8C6A9380928A959E959C94948B842F
:103CE000939A8A8A93869488949A9496C00EC76E03
:103CF000210EC66E969693888D86F1969296898649
:103D0000F28EF094F08AFCEC9BF01200000EF0BAF8
:103D1000010E776FF09A8996030EF5ECA2F0000180
:103D20007451F5ECA2F000017351F5ECA2F00DD046
:103D300058ECA3F071C0D9FF72C0DAFFDF6E00014A
:103D4000714B722B7507D8A076070001755176115B
:103D5000EFE1898677B102D0F09A01D0F08A1200A3
:103D6000000E8DB6010E0001716F000E8BB4010EB6
:103D7000726F000EF0BA010E736FF09A8D868B94FD
:103D800058ECA3F00001E66F58ECA3F00001E76FD8
:103D900071B102D08D9601D08D86000172B102D032
:103DA0008B9401D08B84000173B102D0F09A01D0C2
:103DB000F08A12009D90096A0A6A066ACECF07F05F
:103DC000CFCF08F0072809E10828D8A406D0062A92
:103DD0000604056E020E0564F1D79EA005D0092ADF
:103DE0000001E429D8B40A2A0001E4510926E5516A
:103DF0000A269D8007C001F008C002F009C003F048
:103E00000AC004F012009D900001786B796B756B0D
:103E1000CECF76F0CFCF77F0762909E17729D8A4F5
:103E200006D0752B7505746F020E7465F1D79EA0D0
:103E300004D0782BE429D8B4792BE4517827E551C4
:103E400079279D8076C070F077C071F078C072F0ED
:103E500079C073F01200706B716B71510B0D700EA5
:103E6000F324D96E010EF420DA6EDF5014E17151A3
:103E70000B0D710EF324D96E010EF420DA6EDF50B3
:103E80000AE171510B0D720EF324D96E010EF4206C
:103E9000DA6EDF50D8A4702B712B040E7165DDD75C
:103EA00070511200000E8DB6010E026E000E8BB422
:103EB000010E036E000EF0BA010E046EF09A8D86AC
:103EC0008B945DECA3F00001E66F5DECA3F00001C4
:103ED000E76F02B002D08D9601D08D8603B002D07C
:103EE0008B9401D08B8404B002D0F09A01D0F08A78
:103EF00012004CECA3F0C86FC8511FE052EC97F0D1
:103F0000DC2BDCC0A1F0DE5145ECA3F0070E716F95
:103F1000D00E706F1CEC96F08C7CED5109E139509D
:103F2000030B06E13EC09FF03FC0A0F02CEC9DF0DB
:103F300066ECA3F0ED5173ECA3F0C8511200756B61
:103F4000766B725173111BE0010E746F04D0D89020
:103F500072377337742B73AFFAD7D89075377637BB
:103F60007251705D7351715905E37251705F7351F5
:103F7000715B7581D89073337233742FEED775C02F
:103F800070F076C071F01200A06F41ECA2F0C00E8C
:103F90007C6F020E7D6FA40E7E6FFF0E7F6FA0C040
:103FA00080F0816BD6EC83F0D00E7C6F020E7D6FBB
:103FB000930E7E6FFF0E7F6F9FC080F0816BD6ECFB
:103FC00083F0BCEC9BF01200705101012A25000126
:103FD000746F715101012B210001756F7405800E02
:103FE000755901E3000C72C0D9FF73C0DAFF2AC112
:103FF000DEFF2BC1DDFF705101012A270001715145
:1040000001012B23010C41ECA2F0C00E7C6F020ECB
:104010007D6F9FC07EF0A0C07FF0A1C080F0816B5B
:10402000D6EC83F0BCEC9BF0A251D8B41200A36B89
:10403000716BFA0E706F1CEC96F0A32B070EA36544
:10404000F7D7070C79517A1117E0010E7B6F04D076
:10405000D89079377A377B2B7AAFFAD77951775D59
:104060007A51785904E37951775F7A51785BD89027
:104070007A3379337B2FF2D777C077F078C078F036
:1040800012007E6F000E59ECA1F00001716B010E61
:10409000706F1CEC96F07E5173ECA1F000F000F014
:1040A00000F000F0400E59ECA1F000F000F000F03C
:1040B00000F000F000F0000E59ECA1F012007E6F4D
:1040C000716B010E706F1CEC96F0800E59ECA1F034
:1040D00000017E5173ECA1F000F000F000F000F060
:1040E000C00E59ECA1F000F000F000F000F000F07C
:1040F00000F0000E59ECA1F012007F6F15D003EC18
:104100009FF070C022F171C023F172C024F173C01E
:1041100025F103EC9FF070C026F171C027F172C049
:1041200028F173C029F112007F51E9E0010AD8A4F7
:10413000030A120000017B6F030E7B6501D0030CA4
:104140007BC0EFF0EFC07AF07A3BF00E7A17D951CE
:104150000F0B7A11D96FEF0E716F726B4AC073F04B
:104160004BC074F0766B010E756FC5EF99F0726FEE
:1041700072C071F072390F0B726FE10E7225D96E39
:10418000DA6A020EDA22DF5052ECA3F071510F0B03
:10419000726FE10E7225D96EDA6A020EDA22DF50F2
:1041A00052ECA3F012000001736F000E59ECA1F065
:1041B0000001735173ECA1F000F000F000F0400E2C
:1041C00059ECA1F000F000F000F000F000F000F079
:1041D00000F000F000F0000E59ECA1F01200DD6BD1
:1041E000A30EDD25D96EDA6A010EDA227A0EDF6EB1
:1041F000DD2B700EAD6F010EAE6F010EAF6F000EB6
:10420000B06BF0EC9AF0B76FB751D8A41200010E62
:10421000496E010CBC6FBC510B0D750EF324D96EA9
:10422000010EF420DA6E0101DFAE000C0001BC517A
:104230000B0D700EF324B76F010EF420B86F010E52
:10424000B96FBBC0BAF00EEFA3F0886F1F0E886580
:1042500001D0000C8851690D8751F326000EF4221D
:10426000400EF324846FA10EF420856F2CECA2F095
:104270000001716B140E706F1CEC96F0010C756FE1
:10428000776B745114E0010E766F03D0D8907437B9
:10429000762B74AFFBD7D89077377451755D03E3F5
:1042A0007451755F7781D8907433762FF4D7775136
:1042B00012000001716F000EF0BA010E726FF09AD9
:1042C0008994400EF5ECA2F0120EF5ECA2F000017C
:1042D0007151F5ECA2F08984000172B102D0F09A1C
:1042E00001D0F08A1200716F000EF0BA010E726FE9
:1042F000F09A8994400EF5ECA2F0130EF5ECA2F0C2
:1043000000017151F5ECA2F08984000172B102D074
:10431000F09A01D0F08A1200000EF0BA010E0001EE
:10432000716FF09A8994400EF5ECA2F0010EF5EC55
:10433000A2F0000EF5ECA2F08984000171B102D068
:10434000F09A01D0F08A120023EE17F010EE74F00C
:104350000F0EDBCFE3FFE806FCE200017651726F3F
:10436000736B050ED89072377337E82EFBD772C087
:1043700070F073C071F01200000EF0BA010E716F90
:10438000F09A8994400EF5ECA2F0000EF5ECA2F044
:10439000000EF5ECA2F08984000171B102D0F09A10
:1043A00001D0F08A1200896F876B895125ECA1F04A
:1043B00000090FE089C0EBF0EB0E716F726B4CC01F
:1043C00073F04DC074F0766B010E756FC5EC99F00B
:1043D000010C000C0001DD6BA30EDD25D96EDA6A3D
:1043E000010EDA22DA0EDF6EDD2BB7C0ADF0B8C0F9
:1043F000AEF0010EAF6F000EB06BF0EC9AF0120051
:10440000766B76517225D96E000E7321DA6E765175
:104410007025E16E000E7121E26EDE50E61801E0BB
:10442000000C762B040E7665ECD7010C70C076F08C
:1044300071C077F008D076C0D9FF77C0DAFF72C0BC
:10444000DFFF764B772B7407D8A075077429F3E14B
:104450007529D8A4F0D71200000EF0BA010E866FAD
:10446000F09A8B948551F5ECA2F000018451F5ECA3
:10447000A2F08B84000186B102D0F09A01D0F08ABC
:104480001200010ED3ECA0F00001716B020E706FF0
:104490001CEC96F0C00E706F020E716F736B200EE5
:1044A000726F756B746F16ECA2F01200716F080ECC
:1044B000726F736BD89071357335736FD890713795
:1044C0007051735D02E37051735F722FF3D77351B4
:1044D000120070517203F3CF74F0F4CF75F0705185
:1044E0007303F350752771517203F350752774C02D
:1044F00070F075C071F0120003D0735152ECA3F04C
:1045000071C0F6FF72C0F7FF714B722B000EF86E90
:104510000800F5CF73F07351D8B41200EED7000E37
:10452000F0BA010E046EF09A8B94035002ECA3F0E3
:10453000025002ECA3F08B8404B002D0F09A01D0B8
:10454000F08A12005BEC9EF02CECA3F023ECA3F0BD
:104550007BEC9BF036EC9BF00101F86FF8515EECC0
:104560009AF06AECA3F0FDD700017B6F930E716F98
:10457000FE0E726F7CECA2F07B51F0EC9CF0600EB2
:10458000716FFD0E726F7CECA2F01200170E716F4E
:10459000FF0E726F7CECA2F0B50E9F6FFF0EA06F46
:1045A000000EA16F010EA26F03ECA0F01200020E2C
:1045B0000001DB61020CDB51420D3C0EF324D96E8D
:1045C000020EF420DA6E000EDF6ADB691200726FF1
:1045D000716B3A0E726105D02F0E726502D0010E1A
:1045E000716F71C070F0703112000001706F9E9693
:1045F000C950C69E70C0C9FFC6BEFBD79EA6FED7D7
:104600009E961200016E9E96C950C69E01C0C9FFBB
:10461000C6BEFBD79EA6FED79E961200B7C0ADF0D1
:10462000B8C0AEF0000EAF6BBAC0B0F0F0EC9AF0CC
:104630001200B76FAD6BAE6BAF6BB7C0B0F0010ED1
:10464000F0EC9AF01200380ECD6E9E909D80CD80D9
:104650000001E46BE56B1200948E949C240EAD6E09
:10466000900EAC6E1F0EB06E120030313233343506
:1046700036373839414243444546060606050504A7
:1046800004040303020201010101A26FA1C09FF013
:10469000A251C4EC9FF0120000EC80F00001DAB7E8
:1046A000010C000C706FADA2FED770C0AEFF1200FF
:1046B000000EF5ECA2F0C9501200000E02ECA3F0BF
:1046C000C9501200949A94969E961200DA97D7ECED
:1046D000A2F0120093EC87F01200FF112233440085
:0C46E00000F01200010312001200120092
:06FFF800A0F4C5F7F8FFBC
:00000001FF
