:100000008331912B000008007E14803120007F088E
:10001000CA0022000F170F13270096198B1D772B8C
:10002000603020006006031D702B2830A031802036
:10003000803189362000BF003F08E2006208BF001F
:100040003F08E10022000E11AD31AE2580312000C5
:10005000BF003F08D50022000E152000D601023057
:100060005602031856285608BF00C0013F08F0008A
:100070004008F1003430F2000030F300AF315A276D
:10008000803188302000C1002330C2007008410751
:1000900086007108423D8700011C56280130BF00D0
:1000A0003F08D60702305602031C3328023055069B
:1000B000031D5D28D201D20A5E28D20132305502DA
:1000C00003186C28550803196C2802305602031CCB
:1000D0007E285208031D7E281A30A03180208031EE
:1000E0002000BF003F08CD00CD1C742B22000E1154
:1000F000AD31AE25803122000E156C28D301550894
:10010000BF00C0013F08CB004008CC004B084C04A6
:100110000319742B0130CB020030CC3B5208031979
:100120009D2822000E11AD31AE2580312000BF0088
:1001300053084E3E86008701CE2822000E11AD31B5
:10014000AE2580312000BF005608C000C101400824
:10015000F0004108F1003430F2000030F300AF311C
:100160005A27803120005308013EC2000030031896
:100170000130C3008830C4002330C5004208440762
:10018000C6004308453DC70070084607C80071080F
:10019000473DC90048088600490887003F0881009C
:1001A0000130BF003F08D30722000E15200055087C
:1001B0005302031C862852080319412903304E05B7
:1001C000BF0002303F06031DEF284F086406031DE1
:1001D000ED280130BF003F08E500D301742B023049
:1001E0005602031CF528D3016C285608BF00C00135
:1001F0003F08F0004008F1003430F2000030F30016
:10020000AF315A2780317008013E2000C100003014
:10021000713DC2008830C3002330C4004108430749
:10022000C5004208443DC6004508860046088700D0
:100230004E0881004F08BF005608C000C1014008A9
:10024000F0004108F1003430F2000030F300AF312B
:100250005A2780317008023E2000C2000030713DF4
:10026000C3008830C4002330C50042084407C600DC
:100270004308453DC70046088600470887003F08F9
:1002800081005608BF00C0013F08F0004008F1009F
:100290003430F2000030F300AF315A27803170085B
:1002A000333E2000C1000030713DC2008830C300E1
:1002B0002330C40041084307C5004208443DC6003E
:1002C000450886004608870055088100FF30BF00BA
:1002D0003F08D4005608BF00C0013F08F0004008A6
:1002E000F1003430F2000030F300AF315A27803192
:1002F0007008013E2000C1000030713DC20088300E
:10030000C3002330C4004108430786004208443D2F
:100310008700011FEC29D701580CBF00BF0C3F0C10
:100320000F3957020318EC2957085907BF003F0837
:100330008600013087005608C000C1014008F00067
:100340004108F1003430F2000030F300AF315A2799
:10035000803120005708033EC200003003180130EE
:10036000C3008830C4002330C50042084407C600DB
:100370004308453DC7007008460784007108473DA3
:100380008500000801060319E729D3015608BF00BC
:10039000C0013F08F0004008F1003430F2000030A6
:1003A000F300AF315A2780317008333E2000C1007E
:1003B0000030713DC2008830C3002330C4004108C2
:1003C000430786004208443D870081016C280130C4
:1003D000BF003F08D7078C295608BF00C0013F085F
:1003E000F0004008F1003430F2000030F300AF318B
:1003F0005A2780317008013E2000C1000030713D55
:10040000C2008830C3002330C4004108430786007F
:100410004208443D8700811E732AD70102305702EB
:100420000318272A5708A03E8600023087000108DB
:10043000BF0057084E3E860087013F08810001300B
:10044000BF003F08D70702305702031C122A0630AC
:10045000BF003F082500A00020005608BF00C001D3
:100460003F08F0004008F1003430F2000030F300A3
:10047000AF315A2780317008023E2000C1000030A1
:10048000713DC2008830C3002330C40041084307D7
:1004900086004208443D87000108C5004508250044
:1004A000A10027009611FC0102309B31FB23803113
:1004B0002000D701023057020318732A57084E3E16
:1004C000860087010108BF005708A03E8600023061
:1004D00087003F0881000130BF003F08D707023086
:1004E0005702031C5E2AD701053057020318F32A6E
:1004F0000630BF003F08F0005708AE313F2680317C
:10050000203E86000230870001080319D22A20000D
:100510005608BF00C0013F08F0004008F100343029
:10052000F2000030F300AF315A2780317008023EEC
:100530002000C1000030713DC2008830C30023306C
:10054000C4004108430786004208443D8700063046
:10055000C5004508F0005708AE313F268031013E06
:10056000203E84000230850000080106031DD22AC7
:1005700006302000BF003F08F0005708AE313F268C
:100580008031023E203E860002308700A331D62310
:1005900080317008C03F7108C13F7208C23F7308C4
:1005A000C33FF32A2000540A031DEA2A0630BF0085
:1005B0003F08F0005708AE313F268031203E8600CC
:1005C000023087000108031DEA2A20005708BF00F7
:1005D0003F08D40001302000BF003F08D707053096
:1005E0005702031C782A053020005702031C742B85
:1005F000053054020318542B0630BF003F08F000AA
:100600005408AE313F268031203E860002308700FC
:100610008101810A20005608BF00C0013F08F00098
:100620004008F1003430F2000030F300AF315A27B7
:1006300080317008023E2000C1000030713DC200D0
:100640008830C3002330C4004108430786004208B5
:10065000443D87000108C5000630C6004608F0008A
:100660005408AE313F268031013E203E86000230E4
:1006700087002000450881000630BF003F08F000D9
:100680005408AE313F268031023E203E86000230C3
:100690008700A331D62380317008C03F7108C13F65
:1006A0007208C23F7308C33F20005608BF00C00154
:1006B0003F08F0004008F1003430F2000030F30051
:1006C000AF315A27803188302000C1002330C2006A
:1006D0007008410786007108423D87000114742BA1
:1006E0000130BF003F08DC00270096110000200009
:1006F000111C8A2B2100111C8A2B200011100130A3
:10070000BF003F08E8076808031D8A2B0130BF00BF
:100710003F08FD07AD31A12520004A08FF007E10EB
:1007200009008331932BA5308400AD3085006930FA
:100730008600013087000030FF000430AD31F6251F
:10074000833100308400A0308500DA30860001302B
:1007500087000030FF000830AD31F62583312F309F
:100760008400AE3085005C308600023087000030A7
:10077000FF001030AD31F6258331883084002330FE
:1007800085006830FE000030FF00AD31EA2583317E
:10079000FD0158308400003085001730FE00003025
:1007A000FF00AD31EA25833120308400013085001F
:1007B0002D30FE000030FF00AD31EA258331A0303E
:1007C0008400013085003A30FE000030FF00AD317A
:1007D000EA25833120308400023085003C30FE0061
:1007E0000030FF00AD31EA258331A03084000230B3
:1007F00085003230FE000030FF00AD31EA25833144
:1008000020308400033085002130FE000030FF00DE
:10081000AD31EA257E102000A03162282034B234A8
:10082000203420342034B23420342034B234203404
:10083000B23420342034203420342034B2342034F4
:10084000B2340D340A34B2342034B2342034B234E9
:100850002034B234203420342034B23420342034D4
:10086000B23420342034B234203420340D340A34ED
:10087000B23420342034B23420342034B234203422
:10088000B2342034B23420342034B2342034203412
:10089000B2342034B2340D340A34B234203420342B
:1008A000B23420342034B2342034B23420342034F2
:1008B000B2342034B2342034B23420342034B23450
:1008C0000D340A34B23420342034B234203420348D
:1008D000B2342034B234203420342034B2342034C2
:1008E000B234203420342034B2340D340A3420346D
:1008F0002034203420342034203420342034203458
:100900002034203420342034203420342034203447
:10091000203420340D340A34B234B234B2342034AA
:100920002034B234B234B234B2340D340A34B23476
:1009300020342034B2342034B234203420342034F3
:100940000D340A34B23420342034B2342034B2347A
:10095000B234B234B2340D340A34B23420342034D8
:10096000B2342034B2342034203420340D340A34EC
:10097000B234B234B23420342034B234B234B2346B
:10098000B2340D340A34203420342034203420345E
:1009900020342034203420340D340A342E340034F2
:1009A0008434023409340434093406340C340834F1
:1009B000C1340A3477340C3464340E343234103495
:1009C00000341234003414340034163438341834FB
:1009D000C8341A340D341C3400341E3472342034BC
:1009E000383422343834243407342634003428345C
:1009F00000342A3469342C3481342E347E3430343B
:100A000096343234F834343488343634403438341C
:100A100000343A34E8343C3400343E3454345434F2
:100A20005434543454345434543454345434543486
:100A30005434543454345434553455345534553472
:100A4000553455345534553455345534553455345E
:100A50005534553455345534553455342D3430349B
:100A60003334353438343B343E3441344334463403
:100A700049344C344F34513409340C340F3412346B
:100A8000153417341A341D342034233425342834D3
:100A90002B342E3431343334363439340134003489
:100AA000083400344034003400340234003410344C
:100AB00000348034013400340A34003464340034A7
:100AC000E834033410342734013400341034003453
:100AD00000340134003410340D340A34203420340E
:100AE0002034203420342034203420342034203466
:100AF0002034203420342034203420342034203456
:100B00002034203420343234203474346F34203490
:100B100075346E346934633461347334743420341E
:100B200065346E34633472347934703474346534BB
:100B3000643420346D346534733473346134673411
:100B400065342E3420344C3445344434203432342B
:100B50002034773469346C346C3400340D340A3406
:100B600020342034203420342034203420342034E5
:100B700020342034203420342034203420342034D5
:100B800020342034203420342034423475347434FA
:100B900074346F346E3420343134203474346F3410
:100BA0002034623472346F346134643463346134B9
:100BB0007334743420346D34653473347334613475
:100BC000673465342E3420345034753473346834CB
:100BD000203442347534743474346F346E340034D9
:100BE0000D340A342034203420342034203420348E
:100BF0002034203420342034203420342034203455
:100C00002034203420342034203420342034503414
:100C10006F3477346534723420346F346E3420345A
:100C2000743468346534203462346F34613472341F
:100C30006434203475346E34743469346C34203444
:100C40004C34453444342034313420346C346934E9
:100C50006734683474347334203475347034003439
:100C60000D340A342034203420342034203420340D
:100C700020342034203420342034203420342034D4
:100C80002034203420342034203420342034743470
:100C90006F34203469346E346434693463346134BD
:100CA00074346534203463346F346E346E34653498
:100CB0006334743469346E3467342034773469347F
:100CC00074346834203470346534653472342E34AE
:100CD0002034503475347334683400340D340A349D
:100CE0002034203420342034203420342034203464
:100CF0002034203420342034203420342034203454
:100D000020342034203420342034623465342034BC
:100D100074346F34673467346C346534643420342D
:100D2000753470346F346E34203472346534633407
:100D300065346934763469346E34673420346D3404
:100D400065347334733461346734653473342E34EA
:100D5000203400340D340A34533474346134723422
:100D6000743469346E34673420344E346F346434F0
:100D700065342034313420346F34663420345334B5
:100D800069346D3470346C346534203444346534E3
:100D90006D346F34203466346F34723420344D3403
:100DA000693457346934283454344D342934203468
:100DB0005034323450342034533474346134633416
:100DC0006B3420342E342E342E3400340D340A3457
:100DD0000D340A3443346F346E346E346534633406
:100DE000743469346F346E34203420342034203429
:100DF000203450346534653472344C346F346E347E
:100E00006734413464346434723465347334733415
:100E10002034203420342034203450346534653478
:100E2000723449346E3466346F340D340A3400340D
:100E300020346934733420346E346F347434203485
:100E400073347534703470346F3472347434653480
:100E50006434203469346E3420346334753472342D
:100E6000723465346E347434203463346F346E34C9
:100E70006634693467347534723461347434693477
:100E80006F346E342E340D340A34003443346F34EE
:100E90006E346E3465346334743469346E3467345C
:100EA00020345034653465347234203420346F3447
:100EB0006E3420344334683461346E346E346534B7
:100EC0006C34203425346434203400345334693491
:100ED0006D3470346C3465342034503432345034D2
:100EE0002034443465346D346F34203420344D3430
:100EF00052344634383439345834413420344E3442
:100F00006F3464346534203400340D340A342034B2
:100F100020342034203420345234463420345434A5
:100F2000723461346E3473346334653469347634C6
:100F3000653472343A3420344D34523446343834C3
:100F400039345834413400340D340A3443346F3466
:100F50006E346E3465346334743469346E3467349B
:100F60002034503465346534723420346F346E3438
:100F700020344334683461346E346E3465346C34F8
:100F80002034003443346F346E346E34653463344B
:100F900074346534643420345034653465347234C8
:100FA000203420346F346E34203443346834613458
:100FB0006E346E3465346C3420342534643400343B
:100FC0000D340A3443346F346E346E346534633414
:100FD0007434653464342034503465346534723488
:100FE00020346F346E3420344334683461346E34CA
:100FF0006E3465346C3420340034423472346F34CF
:101000006134643463346134733474342034503460
:10101000613463346B346534743420347734693428
:1010200074346834203452345334533449342034C3
:10103000003455346E346934633461347334743439
:1010400020345034613463346B3465347434203468
:10105000773469347434683420345234533453341C
:101060004934203400340D340A34533465346C343C
:1010700065346334743469346F346E3420346F34BF
:10108000663420346334683461346E346E346534CD
:101090006C34203400340D340A34203420342034AD
:1010A000443465346D346F34203449346E347334D1
:1010B0007434723475346334743469346F346E3418
:1010C0003A3400345234423430343A3425343034F3
:1010D000323464342D342534303432347834253489
:1010E0003034323478342534303432347834003487
:1010F00052346534733474346F34723469346E34FA
:10110000673420344E346534743477346F34723439
:101110006B3420342134213400340D340A345534F6
:101120006E34693463346134733474342034463437
:10113000613469346C34653464340D340A340034F9
:101140000D340A340D340A344D34793420344134AA
:101150006434643472346534733473343A34203410
:10116000303478340034303431343234333434343D
:1011700035343634373438343934413442344334F6
:10118000443445344634003430343134323433342A
:1011900034343534363437343834393461346234A5
:1011A0006334643465346634003452345834203443
:1011B0004D34653473347334613467346534733457
:1011C0003A342034253433346434003454345834BD
:1011D00020344D346534733473346134673465348A
:1011E00073343A3420342534333464340034523484
:1011F000423432343A342034433468346E34673401
:10120000653420346E346F346434653400342034F3
:1012100055346E3469346334613473347434203437
:101220004634613469346C346534643400342034B9
:10123000203420342034203420342034203420340E
:1012400020342034203420340034203420344334FB
:10125000683461346E346E3465346C343A3420341E
:10126000003420344334683461346E346E34653471
:101270006C343A3400345334653463347534723426
:1012800065346434203400342034663472346F346E
:101290006D34203400340D340A340D340A340034F3
:1012A0002100D6005408D5005508D0005608A231B8
:1012B000CE220800A4319824893121002308E200BD
:1012C0002208E1002108E0002008DF00A431982472
:1012D000893121002308E6002208E5002108E40006
:1012E0002008E3006308D7006408D8006508D90027
:1012F0006608DA005F09DB006009DC006109DD00D7
:101300006209DE00DB0A0319DC0A0319DD0A03198E
:10131000DE0A5B08D7075C08D83D5D08D93D5E084A
:10132000DA3D5A08031D0800D13057021230583BED
:101330001330593B031808009931B7218931210036
:10134000D7005708E70002306706031DB929783037
:10135000D0008830D100D201D301A231FE228931E0
:10136000E8302100AC000330AD00A531722501301A
:10137000080000300800903101208931003A031D37
:1013800008009931B72189312200D4005408E100C6
:10139000822BBF01C301153043020318172A4108ED
:1013A000D400D50154082100A200220055082100D4
:1013B000A3000630A0000030A100A43152248931DE
:1013C00021002108A8002008A7001530A90000303E
:1013D000AA00AF31AC2789310E302200D60084300C
:1013E000D7002100270822005607D800210028082E
:1013F0002200573DD90043085807840059080318B4
:10140000590A85000008DA003F083E3E8600023097
:1014100087005A0881000130D4005408BF0701300A
:10142000D4005408C30715304302031CCF290130F0
:10143000D4005408C1070030AE3111268931220092
:101440003E08D40054082100D40001302200D50009
:101450005508C0074008893150218931E830210002
:10146000AC000330AD00A5317225893190310020E8
:101470000800EA01EA0AE401E201E20A220062034A
:10148000031D0800AF310C278931AF310C2789319A
:101490000A302200D40054082100A0002200640871
:1014A000AE3162268931A83E8600013087000108EE
:1014B0002200D500D6015508DB005608DC000A30B2
:1014C000D40054082100A00022006408AE31622636
:1014D0008931013EA83E86000130870001082200C4
:1014E000D500D6015508DD005608DE000A30D400CC
:1014F00054082100A00022006408AE316226893120
:10150000023EA83E86000130870001082200D50077
:10151000D6015508DF005608E00062302100AE0019
:101520008830AF0022006408D400D501540821009F
:10153000B000220055082100B10022005C08210003
:10154000B30022005B082100B20022005E082100E7
:10155000B50022005D082100B400220060082100CF
:10156000B70022005F082100B60020308B318C23A9
:101570008931F7302100AE008830AF0030308B3138
:101580008C238931A6310B268931A6310B2689316E
:101590002200EA01EA0A22006A0803193E2A993168
:1015A000B72189312200D4005408E3009031012092
:1015B000893122006303031D602BE201EA0101303F
:1015C000D4005408C207BF01C3010B304302031803
:1015D000312B4208D400D50154082100A20022007A
:1015E00055082100A3000630A0000030A100A4315E
:1015F0005224893121002108A8002008A7000B30BF
:10160000A9000030AA00AF31AC2789318C3022000C
:10161000D6008430D7002100270822005607D800C2
:10162000210028082200573DD900430858078400AC
:1016300059080318590A85000008DA003F083E3EA1
:101640008600023087005A0881000130D400540817
:10165000BF070130D4005408C3070B304302031CFA
:10166000E92A0130D4005408C2072100E601E60A45
:1016700022006408A131A1218931003A031D442BC5
:10168000AE3187268931492B01302200D40054081D
:10169000C00722003E08D40054082100D4002200D4
:1016A0004008893150218931E8302100AC000330F5
:1016B000AD00A531722589319031002089313E2A53
:1016C000023022006306031DCB2A4B08FE3ED400E5
:1016D000FF3003180030D5005508803AD60080301E
:1016E0005602031D752B6408540203187A2B22003E
:1016F000E401802B22006408013ED4005408E40079
:10170000EA01CB2A6108013A0319C929033A0319EE
:10171000392A8B2B080008002100CD00B030B8001A
:101720003808C60021002F08B9002E08B800AE0AFC
:101730000319AF0A38088400390885000008BA0088
:101740003A08CC004C080319FA2F25304C0603192F
:10175000B62B4C08B8004D088600033087003808C7
:1017600081000130B8003808CD07922BCA01CB01A7
:10177000CE01CF01C62BCE15C22B4E14C22BCF15D6
:10178000C22B4E150130AE070030AF3D2E0884004D
:101790002F0885000008203A0319BD2B033A0319CE
:1017A000BF2B0E3A0319BB2B1D3A0319C12BD82BA3
:1017B000CE1DDE2BFB30CE05FF30CF052E0884007A
:1017C0002F0885000008AE3102268B31031C1A2C2D
:1017D0002100CA01CB010A302100A7000030A80077
:1017E0004B08AA004A08A900AF31AC278B31210071
:1017F0002808CB002708CA002E0884002F0885007F
:101800000008D03EB800FF3003180030B900380897
:10181000CA073908CB3D0130AE070030AF3D2E0876
:1018200084002F0885000008AE3102268B31031C8E
:10183000322CEB2B21002E0884002F08850012008B
:101840002A3A031D322C460886008701403FCA0011
:10185000413FCB000230B8003808C6070130AE0760
:101860000030AF3D21002E0884002F0885001200B3
:101870002E3A031D7D2C4F170130AE070030AF3DCF
:101880002E0884002F08850012002A3A031D582CC8
:101890004608860087010108B8003808C9000230F0
:1018A000B8003808C6070130AE070030AF3D132D31
:1018B000C9012E0884002F0885000008AE310226D9
:1018C0008B31031C132D21002E0884002F08850066
:1018D0000008B8000A30B9003908A0004908AE3144
:1018E00062268B3121003807D03EBA003A08C90081
:1018F0000130AE070030AF3D592C2100C901132D36
:101900004E173A2DCE16CE173A2D490803199A2CA8
:101910004908B800B901B81BB90345083902031DCD
:10192000932C4408380203189A2C4908C400C501B6
:10193000C41BC5034B084502031DA02C4A084402E2
:101940000318A72C4408CA024508CB3BA92CCA019E
:10195000CB01CE1DB82CD62C2030B8004D08860007
:1019600003308700380881000130B8003808CD07FF
:10197000FF30CA07FF30CB3D4A0A031DAC2C4B0A8F
:101980000319D62CAC2C4308860087010108B80047
:101990004D08860003308700380881000130B80008
:1019A0003808C3070130B8003808CD070130C40239
:1019B0000030C53B440A031DC32C450A031DC32C3C
:1019C000CE19EF2C922B2030B8004D088600033042
:1019D0008700380881000130B8003808CD07FF3093
:1019E000CA07FF30CB3D4A0A031DE32C4B0A0319FB
:1019F000922BE32C4608860087010108B8003808BE
:101A0000CC000230B8003808C607CC30B80038081F
:101A1000C3000130C4000030C500852CC030CE04A6
:101A20000030CF043A2D21002F08B9002E08B8004D
:101A3000AE0A0319AF0A3808840039088500000887
:101A4000CC00003A0319FA2F583A0319822C3B3A7A
:101A50000319FA2C073A03193A2D0D3A03193A2DB6
:101A6000063A0319802C1A3A03190E2D0D3A031960
:101A7000832C052DC0304E05B80000304F05B9004D
:101A800038083904031D5B2D460886008701403F56
:101A9000C700413FC8000230B8003808C607C81F59
:101AA000662D0330CE040030CF04C709C809C70A29
:101AB0000319C80A662D460886008701403FC70003
:101AC000413FC8000230B8003808C6074908031D66
:101AD000D82D47084804031DD82D0130B800380818
:101AE000C907D82DCC01CC0A05304C060319E72DC7
:101AF0004C08B800B901B835B90D5A303807840020
:101B00008530393D8500003FBA00013FBB003B08EE
:101B10004802031D8D2D3A084702031CE72D0130B2
:101B2000B8003808CC07742DCC01CC0A04304C0620
:101B30000319E72D4C08B800B901B835B90D643068
:101B4000380784008530393D8500003FBA00013FE9
:101B5000BB003B084802031DAF2D3A084702031C97
:101B6000E72D0130B8003808CC07962DCC01CC0AFF
:101B700006304C060319E72D4C08B800B901B835FA
:101B8000B90D4E30380784008530393D8500003F5F
:101B9000BA00013FBB003B084802031DD12D3A08A3
:101BA0004702031CE72D0130B8003808CC07B82DD8
:101BB0004E08C039003A0319722D403A0319B62D68
:101BC000C03A0319942D403A0319722DE72D4C08A1
:101BD000803AB8004908803AB8020318F42D490841
:101BE000B8003808CC00002E4908803AB8004C08EC
:101BF000803AB8020318002E4C08B8003808C90013
:101C00004A084B040319122E03304E05B800003069
:101C10004F05B900380839040319122EFF30CA07DE
:101C2000FF30CB3D4F1F332E4908B800B901B81B18
:101C3000B9033908803ABA004B08803A3A02031DCA
:101C4000232E4A0838020318302E21004908B80014
:101C5000B901B81BB9033808CA023908CB3B332E87
:101C60002100CA01CB01C4304E05B80008304F0531
:101C7000B90040303806083003193906031D462ED6
:101C80004A084B040319672EFF30602EC0304E0502
:101C9000B80008304F05B900803038060830031905
:101CA0003906031D672E4B08803AB8008030380291
:101CB000031D5C2E03304A02031C642EFE302100FB
:101CC000CA07FF30CB3D672E2100CA01CB014C086B
:101CD000B800B901B81BB9033908803ABA004B08FB
:101CE000803A3A02031D762E4A0838020318832EE2
:101CF00021004C08B800B901B81BB9033808CA0262
:101D00003908CB3B862E2100CA01CB014E1DDA2EAD
:101D100003304E05B80000304F05B90038083904CB
:101D20000319942E2D30BA2E4E1C982E2030BA2E28
:101D3000C0304E05B80008304F05B9008030380675
:101D4000083003193906031DC52E3030B8004D0880
:101D5000860003308700380881000130B800380859
:101D6000CD07CE1AB52E7830B62E5830BC000030D4
:101D7000BD003C08B8004D088600033087003808D5
:101D800081000130B8003808CD074A084B04031918
:101D9000C02F3030B8004D08860003308700380867
:101DA00081000130B8003808CD07FF30CA07FF3086
:101DB000CB3DC52E4A084B04031DCE19F32E20300F
:101DC000B8004D08860003308700380881000130D4
:101DD000B8003808CD07FF30CA07FF30CB3D4A08AE
:101DE0004B04031DDF2E03304E05B80000304F05B5
:101DF000B900380839040319FF2E2D30022F4E1C6C
:101E00000D2F2030B8004D088600033087003808B9
:101E100081000130B8003808CD07C0304E05B80049
:101E200008304F05B900403038060830031939062C
:101E3000031D1C2F3030B52FC0304E05B8000830C0
:101E40004F05B90080303806083003193906031DE4
:101E5000C02F3030B8004D088600033087003808A6
:101E600081000130B8003808CD07CE1A392F7830FC
:101E70003A2F5830BE000030BF003E08B52F0A3060
:101E8000A8000030A9004908B800B901B835B90D5B
:101E90005A30380784008530393D8500003FA00066
:101EA000013FA1004808A3004708A200A331322344
:101EB0008B3121002108AB002008AA00A231422268
:101EC0008B3121002808B02F4908B800B901B83576
:101ED000B90D6430380784008530393D8500003FF6
:101EE000A000013FA1004808A3004708A200A331B9
:101EF00032238B31210020080F39BA003A08C20082
:101F0000CE1A862FC430C0008830892FB330C0006D
:101F10008830C1004108B9004008B80042083807BD
:101F2000840039080318390A85000008B12F4908D0
:101F3000B800B901B835B90D4E3038078400853086
:101F4000393D8500003FA000013FA1004808A300E3
:101F50004708A200A33132238B3121002008073922
:101F6000303EBA003A08CC004C08B8004D08860054
:101F700003308700380881000130B8003808CD07E9
:101F8000FF30B8003808C907490A0319D72F4E088F
:101F9000C039003A03193F2F403A0319972FC03A2E
:101FA0000319642F403A03193F2FB42FB42FCE1DCD
:101FB000922B4B08803AB80080303802031DE22F84
:101FC00001304A02031C922B20302100B8004D083A
:101FD000860003308700380881000130B8003808D7
:101FE000CD07FF30CA07FF30CB3D4A084B04031929
:101FF000922BE42F4D0886000330870081010800F2
:102000000800AD31CA259031003A031908009A3111
:10201000BE22903101302100EB006B082200BE0788
:102020003E082100EC006C08D400220040088931F1
:102030005021903122000F0E2100EB00EB0C6B0CB5
:102040000139EB000130EB06EB0EEB0DEB0D22003E
:102050000F0821006B06BF396B0622008F00D030BD
:102060002100AC000730AD00A531722590319031D0
:1020700000209031AD31A92508002100BF01FF30BB
:10208000B8003808C000C1010530410203188B2890
:102090000A30B8003808A0004108AE3162269031FD
:1020A000083EA83E860001308700811F7A28220062
:1020B00024082100A500220023082100A4000A30E2
:1020C000B8003808A0004108AE3162269031A83E21
:1020D0002100B9003908A600A13155219031003AFC
:1020E0000319822821004108B8003808C000BF0148
:1020F000BF0A8B282100400A031D82284108B8002E
:102100003808C00001302100B8003808C107053088
:102110004102031C4828400A031D9028F1300800A2
:1021200022006C080319972821003F0808002100AD
:102130004008B80038082200BB002100C101083067
:1021400041020318CC284108B800B9013808220020
:1021500023078600210039082200243D870001085A
:102160002100BA000A30BB003B08A0004008AE3195
:1021700062269031A83E21004107BC003C08860041
:10218000013087003A0881000130B8003808C107E3
:1021900008304102031CA3280A30B8003808A00008
:1021A0004008AE3162269031083EA83E86000130DC
:1021B0008700811722002508860026088700423103
:1021C000013001052100B8000A30B9003908A0002B
:1021D0004008AE3162269031083EA83E86000130AC
:1021E0008700010821003806FE3938068100C10148
:1021F0004108031D2C294108033EB8000030031894
:102200000130B9003808220025078600210039086E
:102210002200263D870001082100BA00093041074D
:10222000BB00A8303B07BC000A30BD003D08A00041
:102230004008AE316226903121003C07BE003E08C6
:102240008600013087003A0881000130B800380864
:10225000C10741080319FB284008B80038082200CC
:10226000BA003D12A1312F2190312100B800380869
:102270002200CB0020006E082100AE0020006D0877
:102280002100AD000130AF000030B0004B3099317B
:102290003F2121003F0808002100BC00BF0103309E
:1022A0003F0203186C293F08FA3EBA003A08A3001F
:1022B000A401A40A3F08013EFF3A013E083EDA3E6F
:1022C000A1317B21913101302100BA003A08BF07CA
:1022D00003303F02031C5329FF30BA003A082300A1
:1022E000DE00FE302100BA003A082300DD002100A4
:1022F000BF0103303F020318AA293F08FD3EBA0080
:102300003A08A300A401A40A3F03FF3A023EDA3EC2
:10231000A1317B21913101302100BA003A08BF0779
:1023200079293F08FA3EBA003A08A300A401A40A9A
:102330003F08013EFF3A013E083EDA3EA1317B21D3
:10234000913101302100BA003A08BF0708303F023E
:10235000031C91299831DE2091312200BD0121001A
:102360003C08031DFB29BF0105303F020318FB2970
:102370000A30BA003A08A0003F08AE316226913117
:10238000083EA83E86000130870081010A30210006
:10239000BA003A08A0003F08AE3162269131A83E4B
:1023A00086000130870081010A302100BA003A0816
:1023B000A0003F08AE3162269131013EA83E860062
:1023C0000130870081010A302100BA003A08A000DC
:1023D0003F08AE3162269131023EA83E86000130B0
:1023E0008700810101302100BA003A08BF0705309B
:1023F0003F02031CB829AD31DF2591312200BF0116
:1024000021003C080319572A20006C082100A40071
:1024100020006B082100A3000130A5000030A600B9
:102420004C30A3319D239131203022004C020318FF
:10243000080020006A082100A4002000690821008B
:10244000A3000130A5000030A6006C30A3319D230D
:102450009131220046082100A400220045082100F5
:10246000A3003230A5000030A600A830A3319D2380
:10247000913120006E082100A40020006D08210089
:10248000A3000130A5000030A6004B30A3319D23EE
:10249000913131302100A1008930A200AE31F32604
:1024A000913122004C08A131EE219131872A200080
:1024B0006C082100AE0020006B082100AD00013047
:1024C000AF000030B0004C3099313F2191312000F5
:1024D0006A082100AE00200069082100AD0001302B
:1024E000AF000030B0006C3099313F2191312200B3
:1024F00046082100AE00220045082100AD00323020
:10250000AF000030B000A83099313F219131DA306E
:102510002100BA003A08BE00BD143D088739403892
:10252000BD003C0801393D11031D3D153D103E081D
:10253000B3003D08B2009A313722913122004C0895
:10254000A031C22091312200BC013C146C08210052
:10255000BA000330BA35FF3E031DAA2A3A35BB0044
:102560003B082200BC048B1508002100BC0105308B
:102570003C0203184F2BA4319824923121002308E8
:10258000BA002208B9002108B8002008B7000630B8
:10259000AD002D08A0003C08AE3162269231203EED
:1025A00086000230870001080319462B06302100FF
:1025B000AD002D08A0003C08AE3162269231023EEB
:1025C000203E860002308700403F2100AE00413FA0
:1025D000AF00423FB000433FB1003A083102031D53
:1025E000FB2A39083002031DFB2A38082F02031D7D
:1025F000FB2A37082E020318462B3708AD0038088F
:10260000AE003908AF003A08B0000630B10031081A
:10261000A0003C08AE3162269231023E203E860088
:1026200002308700403F2100B200413FB300423FEB
:10263000B400433FB500B209B309B409B509B20A01
:102640000319B30A0319B40A0319B50A3208AD070E
:102650003308AE3D3408AF3D3508B03D3008031DAA
:10266000392BB5302D02C4302E3B04302F3B031CD8
:10267000462B0630AD002D08A0003C08AE31622686
:102680009231203E86000230870081010130210016
:10269000AD002D08BC0705303C02031CBB2A2000FE
:1026A000630A0319552B003008002100BC010230D9
:1026B0003C0203185A2C3C08AD00AE012D08A700BF
:1026C0002E08A8003430A9000030AA00AF31AC2792
:1026D000923188302100AF002330B00027082F0747
:1026E00086002808303D8700011C512C3C08AD00B5
:1026F000AE012D08A7002E08A8003430A900003034
:10270000AA00AF31AC27923121002708013EAF006B
:102710000030283DB0008830B1002330B2002F08CF
:10272000310786003008323D87000108B3003308C6
:102730002200AA0021003C08AD00AE012D08A70030
:102740002E08A8003430A9000030AA00AF31AC2711
:10275000923121002708333EAF000030283DB00001
:102760008830B1002330B2002F08310786003008CE
:10277000323D87000108B30033082200AF00023069
:102780002100AD002D08BB0022002A1FD12B200004
:10279000580C2100AD00AD0C2D0C0F39AE002E08E9
:1027A000BB072200AA1F0D2C21003C08AD00AE0182
:1027B0002D08A7002E08A8003430A9000030AA0078
:1027C000AF31AC27923121003B08013EAF00003011
:1027D00003180130B0008830B1002330B2002F0858
:1027E0003107B3003008323DB40027083307B50085
:1027F0002808343DB60035082200AB002100360819
:102800002200AC002000580C2100AD00AD0C2D0CB6
:102810000F39AE002E08BB07102C2200AB01AC0113
:1028200021003B082200AF0221003C08AD00AE01B0
:102830002D08A7002E08A8003430A9000030AA00F7
:10284000AF31AC27923121003B08013EAF00003090
:1028500003180130B0008830B1002330B2002F08D7
:102860003107B3003008323DB40027083307B50004
:102870002808343DB60035082200AD002100360896
:102880002200AE00200061082100AD002D082200CA
:10289000B00021003C08AD002D082000E30001300D
:1028A000080001302100AD002D08BC0702303C02B9
:1028B000031C5B2B003008002200BD1CBC2CA43183
:1028C00098249431210023082200D10021002208FD
:1028D0002200D000210021082200CF002100200882
:1028E0002200CE004E082100E20022004F08210005
:1028F000E300220050082100E400220051082100DA
:10290000E500220036092100E600220037092100F7
:10291000E700220038092100E800220039092100DF
:10292000E900E60A0319E70A0319E80A0319E90AA4
:102930006608E2076708E33D6808E43D6908E53D8D
:102940006508031DAB2CB5306202C430633B043014
:10295000643B031CBC2C2200BD1046082100AE00C5
:10296000220045082100AD003230AF000030B00039
:10297000A83099313F2194312200BD1908009231CD
:10298000B5229431003A031908002200CD01A001BC
:1029900000302A190130C40020084406FC394406DE
:1029A000A000A011AA19A01522002A080339013A93
:1029B000031DDD2C2200A016DF2C2200A012201304
:1029C000AA1B20172200AA1FE92C2C08A4002B0800
:1029D000A3002F082100E20062082200A7002E08B1
:1029E000A6002D08A50031082100E200620822009F
:1029F000A90030082100E20062082200A800A01A05
:102A0000DB2FF42FD20125088600260887004131EC
:102A100001084C060319102DA1310A219431F52F1C
:102A2000033022006C06031D192DA1310A219431B7
:102A3000F52F90313D2094312100E2006208220000
:102A4000D2006C03031D312D52030319312D0230C6
:102A500052060319312DF3302100E20062082200F2
:102A6000D200BF0191302100E20022003F083E3E2B
:102A70008600023087002100620881000130E200F8
:102A800062082200BF0752082100E20022003F082E
:102A90003E3E86000230870021006208810001303E
:102AA000E20062082200BF073B082100E20022008A
:102AB0003F083E3E86000230870021006208810008
:102AC0000130E20062082200BF075208031D5203D2
:102AD000031D9E2D3C082100E20022003F083E3EDF
:102AE0008600023087002100620881000130E20088
:102AF00062082200BF07D3015308031D9E2D53080F
:102B0000693E86000130870001082100E2002200B2
:102B10003F083E3E860002308700210062088100A7
:102B20000130E20062082200BF0701302100E2000C
:102B300062082200D307530803197F2DA1310A210F
:102B40009431220024082100D7002200230821000C
:102B5000D600D801D80A00302200A0190130210087
:102B6000D9000030A431DF24943122005208031D23
:102B7000E42D3A082100E200E3016208A70063089F
:102B8000A8000A30A9000030AA00AF31AC27943168
:102B90002200450821002707AD0022004608210039
:102BA000283DAE000A30AF000030B0000A30E4002B
:102BB0006408A00022003A08AE3162269431A83E93
:102BC00099313F219431F52FA1310A219431F52F0C
:102BD000033022006C02031CF12DA1310A21943133
:102BE000F52F2200250886002608870041310108BC
:102BF0004C060319FF2DA1310A219431F52F220033
:102C0000BF0197302100E20022003F083E3E8600CF
:102C1000023087002100620881000130E200620872
:102C20002200BF073C082100E20022003F083E3E90
:102C30008600023087002100620881000130E20036
:102C400062082200BF07D3015308031D462E530814
:102C5000693E86000130870001082100E200220061
:102C60003F083E3E86000230870021006208810056
:102C70000130E20062082200BF0701302100E200BB
:102C800062082200D30753080319272EA1310A2115
:102C90009431220024082100D700220023082100BB
:102CA000D600D801D80A00302200A0190130210036
:102CB000D9000030A431DF249431F52F2200BF0168
:102CC00092302100E20022003F083E3E86000230A2
:102CD00087002100620881000130E20062082200C2
:102CE000BF07D301053053020318F62E0A30210026
:102CF000E2006208A00022005308AE31622694313F
:102D0000083EA83E860001308700811FEC2E22007D
:102D100024082100A500220023082100A4000A3075
:102D2000E2006208A00022005308AE31622694310E
:102D3000A83E2100E3006308A600A131552194318B
:102D4000003A0319EC2E0A302100E2006208A000CC
:102D500022005308AE3162269431083EA83E860018
:102D6000013087008101220053082100E200E301C5
:102D70006208A7006308A8000A30A9000030AA0072
:102D8000AF31AC2794312200450821002707AD0060
:102D9000220046082100283DAE000A30AF00003076
:102DA000B0000A30E4006408A00022005308AE31ED
:102DB00062269431A83E99313F21943122003F0888
:102DC0003E3E860002308700810101302100E20092
:102DD00062082200BF07F62E01302100E2006208DF
:102DE0002200D30705305302031C762EA1310A219D
:102DF0009431053022005306031D0F2FF0302100BF
:102E0000E20022003F083E3E86000230870021009B
:102E1000620881000130E20062082200BF07240836
:102E20002100D700220023082100D600D801D80AAB
:102E300000302200A01901302100D9000030A43157
:102E4000DF249431F52F90313D2094312200BD14C0
:102E5000A43198249431210023082200B9002100D4
:102E600022082200B800210021082200B70021001A
:102E700020082200B6004A2F2200250886002608D6
:102E8000870041310108003A0319232F013A031941
:102E9000232F4A2FA1310A219431F52FBD1E512F26
:102EA000BD12A1310A219431F52F22002508860098
:102EB0002608870041310108031DD62FD3010530B4
:102EC00053020318D62F0A302100E2006208A00046
:102ED00022005308AE3162269431083EA83E860097
:102EE00001308700811FCC2F220024082100A5007B
:102EF000220023082100A4000A30E2006208A0009A
:102F000022005308AE3162269431A83E2100E3002E
:102F10006308A600A13155219431003A0319CC2F42
:102F20000A302100E2006208A00022005308AE31FE
:102F300062269431083EA83E860001308700810158
:102F4000220053082100E200E3016208A7006308A1
:102F5000A8000A30A9000030AA00AF31AC27943194
:102F60002200450821002707AD0022004608210065
:102F7000283DAE000A30AF000030B0000A30E40057
:102F80006408A00022005308AE3162269431A83EA6
:102F900099313F219431D62F01302100E20062089F
:102FA0002200D30705305302031C632FA1310A21ED
:102FB0009431F52FF42F2508860026088700010894
:102FC000813A0319022D033A03195E2E053A0319BB
:102FD000E82D163A03193C2F033A0319552F053AE9
:102FE00003194E2FDA2FF52FBD1522002708031DD8
:102FF0003D1AFC2FBD1E0800BD11A1310A21080099
:103000002100B2000130AC000030AD00A5317225C6
:1030100098318030A0310820983121003208A03149
:10302000262098310000000000000000C030A031D0
:10303000082098310000000000000000000000009F
:103040000030A031082008002100ED006D080319B0
:103050003028013091314C21983190310020080006
:1030600022008F130F13003091314C219831220030
:103070006B08A031C2209831003A031D4428220079
:103080006B08AE31B02698310030A231172298314A
:103090002100D70122006B08A53128259831210095
:1030A000EB01FF309D31A22598312100EC006C0826
:1030B000EE006E0A03196428D701D70A22006B08B4
:1030C000A5312825983175280A302100EC006C08BC
:1030D000AB000030AF000030AE000030AD0000307B
:1030E000AC000030A33167239831FF309E31A22617
:1030F000983122008F179031002008002100B20083
:1031000064303202031C9C286430A7000030A80001
:103110003208B000B1013008A9003108AA00A63178
:1031200059269831210027085C3E8600023087002E
:103130000108AD31C02598310A3021003202031C4C
:10314000C5280A30A7000030A8003208B000B1013D
:103150003008A2003108A3006430A0000030A100B4
:10316000A4315224983121002108AA002008A90086
:10317000A63159269831210027085C3E860002308E
:1031800087000108AD31C02598310A302100A00028
:103190000030A1003208B000B1013008A2003108AF
:1031A000A300A43152249831210020085C3E8600FF
:1031B000023087000108AD31C02508002100A701B9
:1031C000A70A2000DA01DB0102302100A000003054
:1031D000A1004730A2000130A300A131C7219831DE
:1031E0002100A6002608A7050130A0000030A1009C
:1031F0006B30A2000030A300A131C721983121001B
:10320000A6002608A7050130A0000030A100693003
:10321000A2000030A300A131C72198312100A600EF
:103220002608A7053230A0000030A1004530A200DA
:103230000130A300A131C72198312100A600260842
:10324000A7050430A0000030A1004930A2000130E1
:10325000A300A131C72198312100A6002608A705A7
:103260000130A0000030A1006D30A2000030A300AA
:10327000A131C7212100A6002608A70508002100CA
:10328000B700B60100308B190130B5008B11220058
:103290008C110530AE31DC269931AD31B425993130
:1032A0002100B1003108B60022008C1580310220C7
:1032B000993121003618472922008C110630AE3191
:1032C000DC26993122008C158031022099312200B0
:1032D0008C110230AE31DC26993121002E08AE313E
:1032E000DC26993121002D08AE31DC2699312100F0
:1032F000B6012F0830040319AE29370886000130C3
:1033000087000108AE31DC26993101302100B1007F
:103310003108B7070130AF020030B03B0130B100D7
:103320003108B60736082D07B1002E0803182E0AFB
:10333000B2003F303105B30000303205B40033082D
:103340003404031D792922008C1521003608B100B0
:10335000B2013108AD073208AE3D472922008C1575
:103360002100350C031C8B1103188B15080020005D
:103370000D18D3295F08031D352ADF01DF0AA431A8
:103380009824210023082200B500210022082200F1
:10339000B400210021082200B300210020082200EF
:1033A000B200013008008C1AEE295F08031D352A8F
:1033B000DF01DF0AA4319824210023082200B50090
:1033C000210022082200B400210021082200B300BD
:1033D000210020082200B20002300800A431982405
:1033E000993121002308BA002208B9002108B80049
:1033F0002008B7003708AB003808AC003908AD002A
:103400003A08AE00220032092100AF002200330941
:103410002100B000220034092100B100220035094A
:103420002100B200AF0A0319B00A0319B10A031947
:10343000B20A2F08AB073008AC3D3108AD3D320869
:10344000AE3D2E08B6002D08B5002C08B4002B08A0
:10345000B3003608031D332A3508031D332A4030D4
:103460003402031C352A2000DF010030080021004F
:1034700033082000D900210032082000D800143081
:103480002100AC000030AD00A53172259A31220038
:1034900090150E15200016082100B40034082000F5
:1034A000DD00FF302100B40034082000E3002100DB
:1034B000B8010230380203187F2A3808B400B50179
:1034C0003408A7003508A8003430A9000030AA004D
:1034D000AF31AC279A3188302100B6002330B700D5
:1034E0002708360786002808373D8700810101300C
:1034F000B4003408B80702303802031C5D2AB80152
:103500002030380203189F2A3808B400B501B435BA
:10351000B50DCE30340784008430353D8500003F42
:10352000A300013FA400AF3125279A3101302100CB
:10353000B4003408B80720303802031C842A203035
:10354000A73152279A314E302100A3000030A40049
:10355000AF3125279A314030A73152279A310F30A9
:103560002100A3001C30A400AF3125279A31603020
:10357000A7315227270096118B1508002200A01DA5
:10358000C92A3B302100A1008930A200AE31F326C8
:103590009A31220020080339003A0319D42AFD3059
:1035A0002100A1008730D82A19302100A1008830DD
:1035B000A200AE31F3269A3122002808A131EE2173
:1035C0009A312200201F302B44302100A100893085
:1035D000A200AE31F3269A312200A01F022B23084D
:1035E00086002408870041310108A131EE219A317B
:1035F000220023088600240887000108A131EE215B
:103600009A31302B2100AB0108302B020318302BEC
:103610002B08013EA700003003180130A800A709BD
:10362000A809A70A0319A80A2708083EA90000301C
:10363000283DAA00290822002307860021002A0825
:103640002200243D87000108A131EE219A3101308A
:103650002100A7002708AB0708302B02031C082B0A
:103660002E302100A1008930A200AE31F3269A311C
:103670002100AB012200270821002B0203180800BB
:103680002B08A700A8012708220025078600210093
:1036900028082200263D87000108AD31C0259A3157
:1036A00001302100A7002708AB073A2B1F3021006B
:1036B0005002031C5D2B003008004C1D0314031C3A
:1036C000642B21004C17662B21004C13CC174C089F
:1036D0000339013A0319CC174C08D10051082500D1
:1036E000A00020005D082100D10051082500A100A4
:1036F00001302100D10051082000DD0702302100F7
:10370000D1005108D4004C1FAB2BD5012000580C20
:103710002100D100D10C510C0F3955020318AB2BED
:103720005508D100D20151084D07860052084E3D80
:1037300087000108D3005408A03E860002308700AD
:10374000530881000130D1005108D4070130D10065
:103750005108D507862BCC1FD32BD5012000580C40
:103760002100D100D10C510C0F3955020318D32B75
:103770005508200059072100D1005108860001306A
:1037800087000108D2005408A03E8600023087005E
:10379000520881000130D1005108D4070130D10016
:1037A0005108D507AE2BD501500855020318F12B4F
:1037B00055084F07D10051088600023087000108E4
:1037C000D2005408A03E86000230870052088100D3
:1037D0000130D1005108D4070130D1005108D5077C
:1037E000D42B00302000D81801302100B400540838
:1037F0009C31CC2408002000B000000003302000E1
:10380000A8002808BB000130BB023B0A0319CA2CE0
:10381000BC01E501BA017C08031D212C312C3A08BA
:10382000BA0AA80005302802031808000030A300D7
:103830000030A2000030A1000130A000AF313F27CE
:103840009B312830A03180209B312000A80028081F
:10385000BE003E36A8002808BE0042303E020318D3
:103860000F2C8B112030A531BE259B31C930F300C0
:103870001A30F400AE319A269B3120003008AE3168
:1038800074269B312000BD0130083D020318572CDF
:103890003D08A03E8600023087000108AE31742644
:1038A0009B3101302000A8002808BD07442C80303F
:1038B000A531BE259B318B1520005C08031D632CB0
:1038C0002700961D5C2C2000DC012030A531BE2590
:1038D0009B316030A531BE259B312500A01EC62C32
:1038E00021082000A8002808E400A331D6239B313A
:1038F00073082000B5007208B4007108B3007008A6
:10390000B20065080319872CB101B10A0800A33180
:10391000D6239B3173082000B9007208B8007108E3
:10392000B7007008B6003608A8003708A9003808A4
:10393000AA003908AB003209AC003309AD003409E4
:10394000AE003509AF00AC0A0319AD0A0319AE0A7F
:103950000319AF0A2C08A8072D08A93D2E08AA3D77
:103960002F08AB3D2B08031DBE2C2A08031DBE2CBF
:103970000A3028023D30293B031C812C3C08BC0A3C
:10398000A80004302802031C092C032C2000B101DC
:10399000B10A0800B10108002100C900000003308D
:1039A0002100B5003508C6000130C602460A0319D9
:1039B0009F2DC7012000E5012100C5013408031D2A
:1039C000F62C062D4508C50AB50005303502031C46
:1039D000EB2C003008000030AF000030AE000030AB
:1039E000AD000130AC00AF3175279C312830A031DB
:1039F0009F209C312100B5003508CB004B36B50027
:103A00003508CB0042304B020318E22C8B112030DA
:103A1000A73152279C31C9302100A3001A30A400DD
:103A2000AF3125279C3121004908AE31C6269C3193
:103A30002100CA0149084A0203182D2D4A08A03E58
:103A40008600023087000108AE31C6269C31013065
:103A50002100B5003508CA071A2D8030A73152273A
:103A60009C318B1520005C08031D392D2700961D05
:103A7000322D2000DC012030A73152279C316030EC
:103A8000A73152279C312500A01E9B2D2108210023
:103A9000B50035082000E400A43198249C312100B1
:103AA0002308C0002208BF002108BE002008BD0076
:103AB00020006508031D9B2DA43198249C31210012
:103AC0002308C4002208C3002108C2002008C10046
:103AD0004108B5004208B6004308B7004408B800E2
:103AE0003D09B9003E09BA003F09BB004009BC00CE
:103AF000B90A0319BA0A0319BB0A0319BC0A39081F
:103B0000B5073A08B63D3B08B73D3C08B83D380814
:103B1000031D932D3708031D932D0A3035023D30C8
:103B2000363B031C582D4708C70AB5000430350240
:103B3000031CDA2CD42C2100C801C80AA02DC8010E
:103B40004808080022006C08D4005408DC00033048
:103B5000D4005408DD00E201A43198249D312100F5
:103B600023082300A300210022082300A200210033
:103B700021082300A100210020082300A00021002B
:103B80006B03031DC52DFF300800A43198249D311F
:103B9000210023082200E100210022082200E00089
:103BA000210021082200DF00210020082200DE0081
:103BB000B430D400C430D5000430D6000030D70073
:103BC0005408DE025508DF3B5608E03B5708E13B4E
:103BD000EC013D1622003D1E9C2EA43198249D31FF
:103BE000210023082200E600210022082200E5002F
:103BF000210021082200E400210020082200E30027
:103C00006308D4006408D5006508D6006608D700AC
:103C10005E09D8005F09D9006009DA006109DB009C
:103C2000D80A0319D90A0319DA0A0319DB0A580852
:103C3000D4075908D53D5A08D63D5B08D73D5708EB
:103C4000031D2A2EB5305402C430553B0430563B78
:103C5000031C922E6608E1006508E0006408DF009E
:103C60006308DE000130E202620A031DEA2DE20170
:103C7000E20A0130DD025D0A031D412E3D12FF30D4
:103C80000800BF018130D4003F083E3E860002306C
:103C90008700540881000130D4005408BF074C0845
:103CA000D4003F083E3E8600023087005408810061
:103CB0000130D4005408BF073C08D4003F083E3E02
:103CC000860002308700540881000130D400540877
:103CD000BF07E7016708031D862E6708693E860057
:103CE000013087000108D4003F083E3E86000230C4
:103CF0008700540881000130D4005408BF07013008
:103D0000D4005408E707670803196D2E003021001E
:103D1000D6000030D700D801D80AD9010130A4312B
:103D2000DF249D31AD31CA259D31003A0319EA2DBA
:103D3000AD31A9259D31EA2D5C08D4005408EC0072
:103D40003A0808002100B70006303702031CD72EBE
:103D5000A030A1008830A200AE31F3269E312100B0
:103D6000B901083039020318CB2E3908013EFF3A59
:103D7000013E083EDA3E8600013087000108A1318D
:103D8000EE219E3101302100B3003308B90708301D
:103D90003902031CB52E2530A1008930A200AE31B6
:103DA000F3269E3122004C0898317E209E3105304A
:103DB000210037020318682FE830A1008630A200E6
:103DC000AE31F3269E310A302100B3003308A00043
:103DD0003708AE3162269E31083EA83E860001308B
:103DE0008700811F080021003708A131EE219E3194
:103DF00017302100A1008930A200AE31F3269E3198
:103E00002100B901083039020318342F0830390273
:103E10000318232F3908013EFF3A013E083EA83E11
:103E2000B3000A30B4003408A0003708AE3162266F
:103E30009E31210033078600013087000108A1313F
:103E4000EE219E312B2F22302100A1008930A200CB
:103E5000AE31F3269E3101302100B3003308B9079B
:103E600008303902031C062F2030A1008930A2003F
:103E7000AE31F3269E312100B9013908031D612FAF
:103E800009303907B300A8303307B4000A30B50051
:103E90003508A0003708AE3162269E312100340774
:103EA000B60036088600013087000108A131EE21F6
:103EB0009E3101302100B3003308B90739080319D6
:103EC000402F4D30A1008930A200AE31F32608000A
:103ED000E6302100A1008630A200AE31F3269E31EB
:103EE0002100B90105303902031808000A30B30077
:103EF0003308A0003908AE3162269E31083EA83E44
:103F0000860001308700811FFA2F21003908A13176
:103F1000EE219E3117302100A1008930A200AE3180
:103F2000F3269E312100B801083038020318C62F4D
:103F3000083038020318B52F3808013EFF3A013E19
:103F4000083EA83EB3000A30B4003408A000390887
:103F5000AE3162269E312100330786000130870092
:103F60000108A131EE219E31BD2F22302100A10098
:103F70008930A200AE31F3269E3101302100B3001A
:103F80003308B80708303802031C982F2030A100EE
:103F90008930A200AE31F3269E312100B8013808E5
:103FA000031DF32F09303807B300A8303307B400DE
:103FB0000A30B5003508A0003908AE3162269E31BE
:103FC00021003407B600360886000130870001085A
:103FD000A131EE219E3101302100B3003308B80732
:103FE00038080319D22F4D30A1008930A200AE311C
:103FF000F3269E3101302100B3003308B907722F38
:10400000FF3411342234333444345534663411349B
:104010002100A30000308B190130A4008B11220075
:104020000C114030AE31DC26A0311230AE31DC262E
:10403000A03121002308AE31DC2622000C1521001E
:10404000240C031C8B1103188B1508002100A300FE
:1040500000308B190130A4008B1122000C1140306C
:10406000AE31DC26A0311330AE31DC26A031210088
:104070002308AE31DC2622000C152100240C031C81
:104080008B1103188B1508002100A5000030A0310A
:104090000820A03121002508A0312620A0310000F1
:1040A000000000004030A0310820A03100000000D6
:1040B0000000000000000000000000000030A031FF
:1040C000082008002200E801A4311124A031AD31FC
:1040D000D425A031AD31DF25A031A631AB26A031EA
:1040E00089315A21A0312100EF006F082200E80039
:1040F000680898312420A031AD31A225A0317C2858
:10410000F40000308B190130F6008B112200901161
:1041100074084038F3007308F4007408AE31502678
:10412000A031AD31AE25F3007308F50022009015E3
:10413000760C031C8B1103188B15750808002100E1
:10414000A60000308B190130A5008B1122009011C0
:10415000210026084038A3002308A6002608AE3117
:10416000DC26A031AD31B4252100A3002308A40032
:10417000220090152100250C031C8B1103188B15B0
:10418000240808002100B900A8013908A631FE263C
:10419000A031003A0319E32821003908B800380893
:1041A0002200CC0020006C082100AE0020006B082B
:1041B0002100AD000130AF000030B0004C3099312B
:1041C0003F2101300800003008002100B20000301B
:1041D000A0310820A03101302100AC000030AD003A
:1041E000A5317225A03121003208A0312620A0314E
:1041F00000000000000000004030A0310820A03185
:104200000000000000000000000000000030A031AD
:104210000820080002302000630203180800630829
:104220002100AD00AE012D08A7002E08A8003430F3
:10423000A9000030AA00AF31AC2788302100AF00C0
:104240002330B00027082F0786002808303D87005C
:104250008101FF30AD002D082000E300080021009F
:10426000A501A60105302602031853290A30A4002F
:104270002408A0002608AE316226A131083EA83EDF
:10428000860001308700811F4A2901302100A400E7
:104290002408A50701302100A4002408A607053042
:1042A0002602031C3629250808002100AA0108302F
:1042B0002A02031879292A082607A700270886005A
:1042C000013087002A08A800A901280824078400D3
:1042D0002908253D850000080106031971290030D1
:1042E00008000130A7002708AA0708302A02031C8B
:1042F0005B29013008002100A600220010110330C4
:10430000AE31DC26A13121002308AE31DC26A131FB
:104310002100240803199E29AD31B425A1312100C3
:10432000A50026088600013087002508810001309D
:10433000A5002508A6070130A4028829220010152F
:1043400008002100E9000A30E7006708A0006908BA
:10435000AE316226A131083EA83E860001308700BA
:10436000811FC5292100E201E20A6608E70067080B
:10437000E3000A30E8006808A0006908AE31622650
:10438000A131A83EAE3120260800003008002100EF
:10439000200820005A072100A400210820005B3DCE
:1043A0002100A50080302502013003192402031CDE
:1043B000DB2900300800220886002308870020003F
:1043C0005A08C03F5B08C13F210020082000DA07DF
:1043D000210021082000DB3D013008002100A4005D
:1043E0002408A1002108A3002408A1000430A1365C
:1043F000890BF72921080F39A2002208A4002408FC
:104400005C3E8600023087000108AD31C025A13135
:10441000210023080F39A1002108A40024085C3ED4
:104420008600023087000108AD31C0250800210058
:10443000BA0004303A02031808003A08B8003808F5
:104440002200EC006C082100B8000430B835890B5C
:10445000262A22003C080F3921003804B900390807
:104460002200BC0020006A082100AE00200069087C
:104470002100AD000130AF000030B0006C30993148
:104480003F21080021002808290403196A2AAD01E8
:10449000AD0AA91B552A0130A835A90D890B4C2A54
:1044A0000130AC002C08AD07492A29082B02031D56
:1044B0005B2A28082A02031C612A2808AA02290864
:1044C000AB3B0130A936A80C890B622A0130AD0242
:1044D000031D552A2B08A9002A08A800080000304F
:1044E000FB000030FA000030F9000030F800701CCA
:1044F000812A7408F8077508F93D7608FA3D7708AF
:10450000FB3D0130F435F50DF60DF70D890B822AD0
:104510000130F336F20CF10CF00C890B892A730888
:10452000720471047004031D772A7B08F3007A0873
:10453000F2007908F1007808F0000800003021004E
:10454000AB000030AA000030A9000030A800201CF9
:10455000B12A2408A8072508A93D2608AA3D27084E
:10456000AB3D0130A435A50DA60DA70D890BB22AD0
:104570000130A336A20CA10CA00C890BB92A230888
:10458000220421042004031DA72A2B08A3002A08C3
:10459000A2002908A1002808A00008002100D300DB
:1045A000AF310C27A23105302100AC000030AD0046
:1045B000A5317225A231E6302100AE008830AF006F
:1045C0005308D100D2015108B0005208B100203088
:1045D0008B318C23A231D5302100AE008830AF0062
:1045E0005008D100D2015108B0005208B10030305B
:1045F0008B318C23A231A6310B260800AF310C275A
:10460000A23105302100AC000030AD00A53172258B
:10461000A23121005108AF005008AE005208D4006A
:10462000D5015408B0005508B10020308B318C23DF
:10463000A231A6310B26A23121005308031908002C
:10464000D6010830560203180800FA30AC000030DA
:10465000AD00A5317225A23101302100D4005408EB
:10466000D607212B2100A501A6012008210403194A
:10467000622BA701A70AA11B472B0130A035A10D72
:10468000890B3E2B0130A4002408A7073B2B0130E7
:10469000A535A60D890B482B21082302031D522B9B
:1046A00020082202031C592B2008A2022108A33B48
:1046B00025140130A136A00C890B5A2B0130A7021A
:1046C000031D472B2608A1002508A0000800210093
:1046D000B000902BA4319824A3312100230823009B
:1046E000A300210022082300A200210021082300AA
:1046F000A100210020082300A000A431982421005B
:1047000023082300A700210022082300A60021007F
:1047100021082300A500210020082300A400080090
:1047200021003008003A03196A2B013A03199C2B27
:10473000033A03199C2B9C2B08002100A900003090
:104740008B190130A8008B1122008C110330AE317F
:10475000DC26A33121002408AE31DC26A331210060
:104760002308AE31DC26A3312100250826040319D5
:10477000CD2BAD31B425A3312100A7002908860037
:1047800001308700270881000130A7002708A9070A
:104790000130A5020030A63BB42B22008C1521006D
:1047A000280C031C8B1103188B150800F901FA0162
:1047B000210011100030200011180130F6001608F9
:1047C000F4007408F7001708F4007408F8000030CB
:1047D00011180130F50076087506031DDA2B7608EE
:1047E0000319FE2B11100130F4007408E807680863
:1047F000031DFE2B0130F4007408FD076808F40067
:104800007408F9077D08F4007408FA0721001114F0
:104810007A08F3007908F2007808F1007708F000D0
:10482000080070302100990023008C01FF30210026
:104830008C00FF308D00FF308E008F0122008C0134
:104840008D018E018F0121000D148C168F130F1313
:104850008D160E168E128E11C03024009400213059
:104860009500210090110E118F130F132700961140
:104870008B15220090150E158B170B174030240056
:104880009400213095002700951521008C112200FD
:104890008C1521001011220010158B178B15A731D4
:1048A000A92708002100A601A31F5D2CA209A309C6
:1048B000A20A0319A30AA601A60AA11F642CA00933
:1048C000A109A00A0319A10A2008210403198B2CAD
:1048D000A501A50AA11B762C0130A035A10D890BDD
:1048E0006D2C0130A4002408A5076A2C210823029E
:1048F000031D7C2C20082202031C822C2008A2020B
:104900002108A33B0130A136A00C890B832C013078
:10491000A502031D762C26080319932CA209A309CE
:10492000A20A0319A30A2308A1002208A000080074
:104930002100A901AA011110003020001118013036
:104940002100A600200016082100A4002408A700CA
:10495000200017082100A4002408A800003020002F
:10496000111801302100A50026082506031D9C2CE6
:1049700026080319CB2C2000111001302100A400BF
:1049800024082000E8076808031DCB2C0130210013
:10499000A4002408FD07200068082100A4002408C2
:1049A000A9077D08A4002408AA0711142A08A30057
:1049B0002908A2002808A1002708A000080021005B
:1049C000DE00DF0158080319E72C0130E82C003025
:1049D000DA005F085A06FC395A06DF005E08031D3C
:1049E000F42C2100DF16F62C2100DF125E080139BD
:1049F0005F11031D5F1559080139DF11031DDF1514
:104A00005E08031D062D21005F17082D21005F138E
:104A1000DF175708E1005608E0005F08CC00600887
:104A2000CD006108CE003E30DA005A08CF002200E7
:104A30003F082100DB005B08D0009B31562321009A
:104A4000DC005C08DD002200BF0121005D080800D9
:104A50002100D9005708031D4F2D4630D000873064
:104A6000D1005908D8005808D200D301D30AA23186
:104A7000FE22A531A4302100A1008730A200AE3172
:104A8000F326A5312100590898317E20A5314D30FB
:104A90002100A1008930A200AE31F3260800C23007
:104AA0002100D0008730D1005908D8005808D20022
:104AB000D301D30AA231FE22A531E0302100A100AA
:104AC0008730A200AE31F326A53121005908983174
:104AD0007E20A5314D302100A1008930A200AE31E9
:104AE000F326080021002C08A0002D08A100A20137
:104AF000A3010030A7000030A6000930A500C43093
:104B0000A400A2319E22A53121002308B100220871
:104B1000B0002108AF002008AE005630AE07FF30CD
:104B2000AF3DFF30B03DFF30B13DB11B0800310853
:104B3000031DA42D3008031DA42D2F08031DA42D33
:104B4000C4302E02031C0800B11B08003108031DED
:104B5000B32D3008031DB32D2F08031DB32D0130D5
:104B60002E02031C08000000D9302100AE07FF30E0
:104B7000AF3DFF30B03DFF30B13DA42DF700F92D22
:104B80008E30F3000030F400AE319A268030F6000B
:104B900076082000E00008006E30F3000030F400DA
:104BA000AE319A266030F60076082000E00008005A
:104BB0004E30F3000030F400AE319A264030F6005B
:104BC00076082000E00008002E30F3000030F400EA
:104BD000AE319A262030F60076082000E00008006A
:104BE0000E30F3000030F400AE319A262000E001D0
:104BF00008007708003A0319F02D203A0319E42D34
:104C0000603A0319D82D203A0319CC2DE03A031944
:104C1000C02D0A2E08008030A031E520A6312100E9
:104C2000B401103034020318322E3408203E8600BE
:104C3000033087000108031D1F2E2030262E21007F
:104C40003408203E86000330870001089831002098
:104C5000A63101302100B3003308B407103034020C
:104C6000031C152EC030A031E520A63110302100E4
:104C7000B3003308B40020303402031808003408AD
:104C8000203E8600033087000108031D492E203096
:104C9000502E21003408203E860003308700010892
:104CA00098310020A63101302100B3003308B40749
:104CB0003B2E2100AD01A81F642EA709A809A70A51
:104CC0000319A80AAD01AD0AAA1F6F2EA909AA09E6
:104CD000A90A0319AA0A0130AB002B08AD06AE01E0
:104CE000AF012708280403199E2EAC01AC0AA81BAB
:104CF000832E0130A735A80D890B7A2E0130AB0029
:104D00002B08AC07772E0130AE35AF0D890B842E02
:104D100028082A02031D8E2E27082902031C952E1F
:104D20002708A9022808AA3B2E140130A836A70C90
:104D3000890B962E0130AC02031D832E2D0803191A
:104D4000A62EAE09AF09AE0A0319AF0A2F08A800B4
:104D50002E08A700080066302100D0008730D1005F
:104D6000D201D301D30AA231FE22A631AA302100FA
:104D7000A1008630A200AE31F326A6318530210095
:104D8000A1008730A200AE31F326A6314B302100BE
:104D9000A1008830A200AE31F326A631F030210008
:104DA000A1008530A200AE31F326A63130302100BB
:104DB000A1008630A200AE31F326A631AE3021002C
:104DC000A1008530A200AE31F326A6316C3021005F
:104DD000A1008530A200AE31F326A6316E3021004D
:104DE000A1008630A200AE31F326A6314B3021005F
:104DF000A1008930A200AE31F32608002100AA00EC
:104E000020302A02031C062F003008006430A30063
:104E10000C30A400AF312527A63121002A080E3E10
:104E2000840085300318013E85000008A900003089
:104E30002904A3000E30A400AF312527A63121009C
:104E40002A082E3E840085300318013E85000008A4
:104E5000A90000302904A3001030A400AF31252799
:104E6000A6312030A7315227A6314E302100A300B1
:104E70000030A400AF312527A6314030A73152279A
:104E8000A6310F302100A3001C30A400AF3125272C
:104E9000A6312030A7315227A6316030A7315227E2
:104EA000013008002100A700962F8E30A3000030AB
:104EB000A400AF31252780302100A600260820005D
:104EC000E00008006E302100A3000030A400AF31E4
:104ED000252760302100A60026082000E0000800F9
:104EE0004E302100A3000030A400AF312527403010
:104EF0002100A60026082000E00008002E30210036
:104F0000A3000030A400AF31252720302100A600E7
:104F100026082000E00008000E302100A300003029
:104F2000A400AF3125272000E00108002100270858
:104F3000003A03198C2F203A03197E2F603A031987
:104F4000702F203A0319622FE03A0319552FA82F2A
:104F5000080021000C1122000C150A302100AC00C1
:104F60000030AD00A5317225A73126000C132700B3
:104F70000C130A302100AC000030AD00A5317225C1
:104F8000A73127000C17AD31BA25A731AF31C8279B
:104F9000A731AF31E427A7310030A0310820A73175
:104FA0000A302100AC000030AD00A5317225A731D8
:104FB0003C30A0314420A7310A302100AC00003041
:104FC000AD00A5317225A7310C30A0314420A731A6
:104FD0000A302100AC000030AD00A5317225A731A8
:104FE0000130A0314420A7310A302100AC0000304C
:104FF000AD00A5317225A7310C30A0314420080046
:105B420008008931BB2108000134013419340334BF
:105B52002200BD11A1310A2108000030AE315026C9
:105B62002400110808000030AE31DC2624001108A0
:105B7200080021008E128E112000911108002100D0
:105B8200A00023009E1CC22D2100200823009A00A1
:105B9200080094315C2422003D0C2100EA00EA0C4A
:105BA2006A0C0139080021008E170E1324302300DD
:105BB2009E0090309D001F309B000800383020006E
:105BC200980011102100111420001814E801FD01A1
:105BD20008006400800101310130FE020030FF3B09
:105BE2007F087E0403190034EB2DFE0012001E0014
:105BF2000130FE020030FF3B7F087E0403190034AF
:105C0200F72D2100A100A0013A30210203180F2E26
:105C120030302102031C0F2EA001A00A200C080024
:105C22002100E3000030D6000030D700D80163081D
:105C3200E2006208D9000130A431DF24080021000B
:105C4200E5006508D6000130D700D8016308E400FA
:105C52006408D9000030A431DF2408003034313424
:105C620032343334343435343634373438343934E6
:105C7200413442344334443445344634F200F3016F
:105C8200721C472E7008F1007108F3070310F00D23
:105C92000310F20C7208031D412E73080800F20073
:105CA2002000911124001108F0007008F1009513F2
:105CB20072089100951B582E2000911D5D2E9111A6
:105CC20008002100A300A201231C6B2E2008A100C2
:105CD2002108A2070310A00D0310A30C2308031D23
:105CE200652E22080800F30000308B190130F40001
:105CF2008B1122000E117308AE31502622000E15B0
:105D0200740C031C8B1103188B1508008D302100B5
:105D1200A1008830A200AE31F326AE310730210057
:105D2200D0008930D100D201D301D30AA231FE22A0
:105D3200080000308B190130F5008B112200901100
:105D42007408AE315026AE317308AE3150262200AF
:105D52009015750C031C8B1103188B15080021007C
:105D6200B3003330A1008830A200AE31F326AE3149
:105D72002100330898317E20AE3118302100A10075
:105D82008730A200AE31F32608002100A3000030C4
:105D92008B190130A4008B1122000E11210023085F
:105DA200AE31DC2622000E152100240C031C8B11BF
:105DB20003188B1508002100A20020009111240075
:105DC20011082100A0002008A10024009513210041
:105DD200220824009100951BE62E2000911DEE2E34
:105DE2009111080021002208A4002108A300A10AA1
:105DF2000319A20A23088400240885000008A500CC
:105E02002508A60026080319080021002608AD313E
:105E1200C025AE31F32E0130A0314420AF31023023
:105E22002100AC000030AD00A5317225AF31203029
:105E32002100A0000030A1002030A2000030A30009
:105E42002030AF319027080000308B19013021003B
:105E5200A5008B112200901121002408AE31DC260E
:105E6200AF3121002308AE31DC262200901521003B
:105E7200250C031C8B1103188B1508000800000069
:105E8200D6302000A407FF30A53DFF30A63DFF30ED
:105E9200A73DA71B08002708031D402F2608031D46
:105EA200402F2508031D402F01302402031C080047
:105EB200402FF401F501701C622F7208F407730879
:105EC200F53D0130F235F30D890B632F0130F136C8
:105ED200F00C890B682F70087104031D5C2F750884
:105EE200F1007408F000080008000000D63021001C
:105EF200B007FF30B13DFF30B23DFF30B33DB31BC1
:105F020008003308031D762F3208031D762F31084F
:105F1200031D762F01303002031C0800762F21006A
:105F2200A5002508A4002408A6000130A202003022
:105F3200A33B220A0319230A031908002008A4001C
:105F42002608860003308700240881000130A4005F
:105F52002408A607962F2100AB01AC01271CB52F00
:105F62002908AB072A08AC3D0130A935AA0D890BD7
:105F7200B62F0130A836A70C890BBB2F270828049F
:105F8200031DAF2F2C08A8002B08A7000800003023
:105F92008B1901302100A3008B1122000C1140301B
:105FA200AE31DC26AF310030AE31DC26AF3100300D
:105FB200AE31DC2622000C152100230C031C8B11B0
:105FC20003188B15080000308B1901302100A30043
:105FD2008B1122000C114030AE31DC26AF31013082
:105FE200AE31DC26AF310030AE31DC2622000C159A
:0E5FF2002100230C031C8B1103188B150800D3
:020000040001F9
:02000E00E2CB43
:00000001FF
