:020000040000fa
:080000000002040000000000f2
:020000040000fa
:04000800ac02000046
:020000040000fa
:04000c00ac02000042
:020000040000fa
:04001000ac0200003e
:020000040000fa
:04001400ac0200003a
:020000040000fa
:04001800ac02000036
:020000040000fa
:04001c00ac02000032
:020000040000fa
:04002000ac0200002e
:020000040000fa
:04002400ac0200002a
:020000040000fa
:04002800ac02000026
:020000040000fa
:04002c00ac02000022
:020000040000fa
:04003000ac0200001e
:020000040000fa
:04003400ac0200001a
:020000040000fa
:04003800ac02000016
:020000040000fa
:04003c00ac02000012
:020000040000fa
:04004000ac0200000e
:020000040000fa
:04004400ea6100006d
:020000040000fa
:04004800ac02000006
:020000040000fa
:04004c00ac02000002
:020000040000fa
:04005000ac020000fe
:020000040000fa
:04005400ac020000fa
:020000040000fa
:04005800ac020000f6
:020000040000fa
:04005c00ac020000f2
:020000040000fa
:04006000ac020000ee
:020000040000fa
:04006400ac020000ea
:020000040000fa
:04006800ac020000e6
:020000040000fa
:04006c00ac020000e2
:020000040000fa
:04007000ac020000de
:020000040000fa
:04007400ac020000da
:020000040000fa
:04007800a81b0000c1
:020000040000fa
:04007c00ac020000d2
:020000040000fa
:04008000ac020000ce
:020000040000fa
:04008400ac020000ca
:020000040000fa
:04008800ac020000c6
:020000040000fa
:04008c00ac020000c2
:020000040000fa
:04009000ac020000be
:020000040000fa
:04009400ac020000ba
:020000040000fa
:04009800ac020000b6
:020000040000fa
:04009c00f21b000053
:020000040000fa
:0400a000ac020000ae
:020000040000fa
:0400a400ac020000aa
:020000040000fa
:0400a800ac020000a6
:020000040000fa
:0400ac00ac020000a2
:020000040000fa
:0400b000ac0200009e
:020000040000fa
:0400b400ac0200009a
:020000040000fa
:0400b800ac02000096
:020000040000fa
:0400bc00ac02000092
:020000040000fa
:0400c000ac0200008e
:020000040000fa
:0400c400ac0200008a
:020000040000fa
:0400c800ac02000086
:020000040000fa
:0400cc00ac02000082
:020000040000fa
:0400d000ac0200007e
:020000040000fa
:0400d400ac0200007a
:020000040000fa
:0400d800ac02000076
:020000040000fa
:0400dc00ac02000072
:020000040000fa
:0400e000ac0200006e
:020000040000fa
:0400e400ac0200006a
:020000040000fa
:0400e800ac02000066
:020000040000fa
:0400ec00ac02000062
:020000040000fa
:0400f000ac0200005e
:020000040000fa
:0400f400ac0200005a
:020000040000fa
:0400f800ac02000056
:020000040000fa
:0400fc00ac02000052
:020000040000fa
:04010000ac0200004d
:020000040000fa
:04010400ac02000049
:020000040000fa
:04010800ac02000045
:020000040000fa
:04010c00ac02000041
:020000040000fa
:04011000ac0200003d
:020000040000fa
:04011400ac02000039
:020000040000fa
:04011800ac02000035
:020000040000fa
:04011c00ac02000031
:020000040000fa
:04012000ac0200002d
:020000040000fa
:04012400ac02000029
:020000040000fa
:04012800ac02000025
:020000040000fa
:04012c00ac02000021
:020000040000fa
:04013000ac0200001d
:020000040000fa
:04013400ac02000019
:020000040000fa
:04020800ac02000044
:020000040000fa
:04020c00ac02000040
:020000040000fa
:04021000ac0200003c
:020000040000fa
:04021400ac02000038
:020000040000fa
:04021800ac02000034
:020000040000fa
:04021c00ac02000030
:020000040000fa
:04022000ac0200002c
:020000040000fa
:04022400ac02000028
:020000040000fa
:04022800ac02000024
:020000040000fa
:04022c00ac02000020
:020000040000fa
:04023000ac0200001c
:020000040000fa
:04023400ac02000018
:020000040000fa
:04023800ac02000014
:020000040000fa
:04023c00ac02000010
:020000040000fa
:04024000ac0200000c
:020000040000fa
:04024400ac02000008
:020000040000fa
:04024800ac02000004
:020000040000fa
:04024c00ac02000000
:020000040000fa
:04025000ac020000fc
:020000040000fa
:04025400ac020000f8
:020000040000fa
:04025800ac020000f4
:020000040000fa
:04025c00ac020000f0
:020000040000fa
:04026000ac020000ec
:020000040000fa
:04026400ac020000e8
:020000040000fa
:04026800ac020000e4
:020000040000fa
:04026c00ac020000e0
:020000040000fa
:04027000ac020000dc
:020000040000fa
:04027400ac020000d8
:020000040000fa
:04027800ac020000d4
:020000040000fa
:04027c00ac020000d0
:020000040000fa
:04028000ac020000cc
:020000040000fa
:04028400ac020000c8
:020000040000fa
:04028800ac020000c4
:020000040000fa
:04028c00ac020000c0
:020000040000fa
:04029000ac020000bc
:020000040000fa
:04029400ac020000b8
:020000040000fa
:04029800ac020000b4
:020000040000fa
:04029c00ac020000b0
:020000040000fa
:0402a000ac020000ac
:020000040000fa
:0402a400ac020000a8
:020000040000fa
:0402a800ac020000a4
:020000040000fa
:0402ac00ac020000a0
:020000040000fa
:0402b000ac0200009c
:020000040000fa
:0402b400ac02000098
:020000040000fa
:0402b800ac02000094
:020000040000fa
:0402bc00ac02000090
:020000040000fa
:0402c000ac0200008c
:020000040000fa
:0402c400ac02000088
:020000040000fa
:0402c800ac02000084
:020000040000fa
:0402cc00ac02000080
:020000040000fa
:0402d000ac0200007c
:020000040000fa
:0402d400ac02000078
:020000040000fa
:0402d800ac02000074
:020000040000fa
:0402dc00ac02000070
:020000040000fa
:0402e000ac0200006c
:020000040000fa
:0402e400ac02000068
:020000040000fa
:0402e800ac02000064
:020000040000fa
:0402ec00ac02000060
:020000040000fa
:0402f000ac0200005c
:020000040000fa
:0402f400ac02000058
:020000040000fa
:0402f800ac02000054
:020000040000fa
:0402fc00ac02000050
:020000040000fa
:04030000ac0200004b
:020000040000fa
:04030400ac02000047
:020000040000fa
:04030800ac02000043
:020000040000fa
:04030c00ac0200003f
:020000040000fa
:04031000ac0200003b
:020000040000fa
:04031400ac02000037
:020000040000fa
:04031800ac02000033
:020000040000fa
:04031c00ac0200002f
:020000040000fa
:04032000ac0200002b
:020000040000fa
:04032400ac02000027
:020000040000fa
:04032800ac02000023
:020000040000fa
:04032c00ac0200001f
:020000040000fa
:04033000ac0200001b
:020000040000fa
:04033400ac02000017
:020000040000fa
:100400002f2221000e7f22000e0188000000000034
:10041000000020000000e000020032000001200087
:10042000200288000c00070020ec250001002000bd
:1004300011000700000020000000e0000200320070
:1004400000000200000000009a59020000000000b5
:100450000040da000000fe004440a900604e200089
:100460000000e0000300320000002000a00188002e
:100470004440a80000000600910188008000780038
:100480000000eb0015003700e280400032a0b4000d
:100490009101ba00e280400032a0b4009102ba009b
:1004a000e280400032a0b4000002eb00472bde00e7
:1004b000f507b200602ce10004003a000059eb009f
:1004c0008301e900fdff3e00040037006128e100e0
:1004d000010032000082eb000b00070011c3ba00dc
:1004e0001101ba000604e00003003a000200e00037
:1004f000e5ff3a0000000600f607b200960188000a
:1005000082007800f5ff37003159ba008301e90015
:100510000c0032002159ba008301e90008003200c2
:100520000400e00003003a00e280400032a0b40082
:10053000f5ff370011d9ba008301e900faff3a004c
:100540008100e800e180400032a0b4000000060015
:10055000a2050400000000000040da000000fe00d8
:100560006022b800060220000000d0008180d20086
:100570000482d2008582d2000000a0000202520054
:1005800083825a00030031000202420083824a0043
:100590000000a1000603e900f3ff3a000000060096
:1005a000889fbe008a9fbe0030044200b0844a008b
:1005b00030054b0090854b006000b1000898be00ec
:1005c0000a90be000440e10005c8e10006d0e10049
:1005d00007d8e10002003100680040001008e80080
:1005e0004f05be004f04be0000000600889fbe00fd
:1005f0008a9fbe003004be002005be0004185400cf
:1006000005985c0006185d0007985d001100200049
:100610000440e10005c8e10006d0e10007d8e10090
:10062000010039008000eb00108810004f05be006b
:100630004f04be00000006001200fa00889fbe00b2
:100640008a9fbe008c9fbe00e0b79f00f1b79f005d
:1006500082bf9f0093bf9f000605be000404be003a
:100660000000eb00d0b79f00c0b79f00b0b79f005d
:10067000a0b79f0090b79f000006eb005fb1970006
:10068000cfb09700820141003fb097000200e00028
:1006900004003d00370007007e805700c0ff0700c0
:1006a00003003700330007007e805700cfff0700ac
:1006b000dfb697000d00e0000c0035006fb2970028
:1006c000ffb297000fbb97009fbb97001000200060
:1006d000010020006011b8000002720081827200e7
:1006e00002037300838373001b0007000c06e800fd
:1006f00001042000810f5600e0ff3a000d00e000e9
:1007000004003d000802be000a03be007e805700c0
:10071000a3ff07005fa897000000e00005003a0073
:100720001fb29700afb297003fb39700cfb39700c7
:10073000090007006fb09700ffb097000fb997004e
:100740009fb997004f06be004f05be004f04be0084
:100750000080fa000000060001000700000006000b
:10076000a4b79f00b5b79f00c6b79f00d7b79f003b
:10077000000006004f09de0082817100b3b79f00c0
:100780004f01de008180400082807000a1b79f0091
:100790008fb097004f09de0000004000020070009b
:1007a00090b79f007fa897004f01de008180400036
:1007b0008280700081b79f000d0007004f3ade0075
:1007c0000000400004007000f0af9f000800070028
:1007d0000402420085824a0006034b0087834b00d7
:1007e000dfff07000802be000a03be00000006008b
:1007f0002fb29700bfb297004fb39700dfb39700b7
:1008000000000600881f780018002000881f78006c
:1008100089ff07008f87e9004f0478000000060079
:10082000801feb0084ff07008f87e90000000600af
:10083000889fbe008a9fbe00e00f5000e08f5800e6
:10084000e00f5900e08f59000c003d006044b800f3
:100850006055b8000000540081805c0002015d001a
:1008600083815d00180020001500070008003d008e
:10087000180007000004eb00050037000004eb003f
:100880000f00070002003d001200070018002000c2
:10089000dcff07000800e000060032006022b8001c
:1008a0006033b8000000520081805a0002015b00f2
:1008b00083815b004f05be004f04be0000000600b0
:1008c000e00f5200e08f5a00e00f5b00e08f5b000a
:1008d000000006006044b8006055b80004025400ef
:1008e00085825c0006035d0087835d0000000600d2
:1008f000889fbe008a9fbe008c1f7800e00f5000ca
:10090000e08f5800e00f5900e08f59000d003d00c6
:100910006044b8006055b8000000540081805c005d
:1009200002015d0083815d001c0020000820e100c1
:1009300009a8e1000ab0e1000bb8e1000d003d009c
:10094000080037000006eb00e00f5200e08f5a006d
:10095000e00f5b00e08f5b0006003d006044b800e4
:100960006055b8000402540085825c0006035d00f7
:1009700087835d00aaff07000c00e000060032003c
:100980006022b8006033b8000000520081805a0035
:1009900002015b0083815b004f0678004f05be00bb
:1009a0004f04be0000000600889fbe008a9fbe0064
:1009b0008c1f78000006eb00e00f5000e08f58001d
:1009c000e00f5900e08f590007003d006044b80077
:1009d0006055b8000000540081805c0002015d0099
:1009e00083815d001c002000e00f5200e08f5a0060
:1009f000e00f5b00e08f5b0007003d006044b80043
:100a00006055b8000402540085825c0006035d0056
:100a100087835d000c00a2000c0007000c00e000c2
:100a2000060032006022b8006033b80000005200b7
:100a300081805a0002015b0083815b004f067800d1
:100a40004f05be004f04be0000000600889fbe0098
:100a50008a9fbe008c9fbe000404b8000506b80043
:100a60008904460060854e000606b8000a05460067
:100a7000e0854e000706b8008b054600040eb8005e
:100a8000890446000a854e00e0854d00050eb80039
:100a90000a0546008b854e00060eb8008b05460001
:100aa0000416b8000a0546008b854e000516b800ee
:100ab0008b054600041eb8008b0546000800be00ea
:100ac0000a01be004f06be004f05be004f04be0027
:100ad000000006000900370030427800b14178007c
:100ae000834f520004003200100020000600310045
:100af0000080eb00000006000201e9000200e000b7
:100b0000f5ff3a000000eb000000060080017800cd
:100b100002003700b15978000201e9000200e0004c
:100b2000fcff3a0000000600800178000200370058
:100b3000815978000201e9000200e000fcff3a0060
:100b400000000600881f7800020478000801780081
:100b5000eeff0700080040004f0478000000060088
:100b60000000fa00881f780000047800ea8157002e
:100b70003fb9970088007800205a2000070007003e
:100b80000000e000020035008040eb0001747800b6
:100b90004f0478000080fa00000006006200fa00ae
:100ba000889fbe008a1f78000005780081047800c5
:100bb000020478008300780080f92f000f004000c5
:100bc000da0307009a979f00a9979f000000eb00a7
:100bd000b09f9f001885fb008a04fb000a05ea000d
:100be0004f55de0050022000808f54000d0032006f
:100bf000e10f55000b003a000a01780088007800e8
:100c00002f9097009f91970003000100a0979f00ed
:100c10000000e0008e0032003f9897000000e800de
:100c2000b09f9f000a04440050022000808f5400af
:100c3000040032000900e000e6ff3a003f98970008
:100c4000840037000000eb00909f9f00809f9f0072
:100c5000f0979f00e0979f00d0979f00c0979f005c
:100c60000700370061212100010050000000400012
:100c7000a120210061007800df989700010070003a
:100c8000d09f9f00880478000904780038457800d8
:100c90008a00fb0060212100a70107000000e0009e
:100ca000f0ff3a00a1c2b300814f55000e003a0098
:100cb000cf8897000180e900c08f9f001000780066
:100cc000c09f9f000000e00005003d000000ea001a
:100cd000c09f9f005f9897000020a000d09f9f00ba
:100ce0000904e8000f003700c09f9f000000eb00e0
:100cf00005003700f2ff2700820f5000020032008b
:100d00006a01b90002804000090478008804780074
:100d1000b900fb000103b100e98f5000f5ff360078
:100d2000c09f9f00e0c2b300984f10000200320045
:100d30000080eb0019003700a0c2b300d84f1000ac
:100d400007003a00cf8897000180e900c08f9f001c
:100d500010007800a09f9f000804e80010003700f2
:100d60000000eb00a09f9f0088007800050037007e
:100d7000f3ff2700830f5000020032006a02b9001f
:100d80000400410001047800880078003101fb0074
:100d90000203b100e90f5100f5ff3600a09f9f004c
:100da000984478008900fb002020210062010700a0
:100db0000000e000020032000804e80001003700f3
:100dc0008044eb00c97f9f0080c6b30080cf5400f1
:100dd00004003a0098cf14000a003a006640500020
:100de00006003700c0c6b30080cf540005003a00ab
:100df00098cf140003003a0065404000c07f9f0078
:100e00000804e8001801fb00e3fb2f008f8141007c
:100e100081f92f008f804000a0f92f000f004000c3
:100e2000100007000000e00009003a00e1fb2f007d
:100e30008f804000a0f92f000f0040007f020700c4
:100e40000000e000020035000804e80061ff370000
:100e50000080eb004f0578004f04be000080fa00d0
:100e600000000600889fbe008a1f780000047800fa
:100e7000e0c6b300804f5100c100320015003c00b5
:100e80006b405000804f5100240032000a003c00ab
:100e900070405000804f5100fa0032006540400021
:100ea000804f51006800320050c2b300804f5100a3
:100eb0000b013a000701370040c6b300804f5100d4
:100ec0001b00320065404000804f510004013a0091
:100ed0001700370030c7b300804f5100e9003200df
:100ee00007003c0064405000804f51005600320023
:100ef0000040e800804f5100f9003a00d30037006d
:100f000050c7b300804f51004f0032006340400093
:100f1000804f5100f2003a004b0037001181e90088
:100f2000820878007800900012417800ea003700cb
:100f300028609000c4c6b300844f500007003a00f8
:100f40001102780064005200800878001002be0090
:100f50004fabde00860378001100370014c7b300e2
:100f6000844f500003003200a4c6b300844f5000e9
:100f700006003a00110278006800520080087800ec
:100f80003002be002003be00050037001180e900da
:100f90008008780010027800cfa2de00612bb90033
:100fa000049cbe000694be002860900081c6b30079
:100fb000814f50000d00320021c6b300814f500018
:100fc00004003a000402fb00cfa2de00612bb9004e
:100fd0000800370041c7b300814f500003003200c2
:100fe000e6c04000814f500004003a00cfa2de006e
:100ff000612bb900049cbe000694be003802be00fe
:101000002803be0078009000d1c2b300e00f520068
:10101000e08f5a00e00f5b00e08f5b0008003500b6
:10102000881090000118a30002003200b1c2b30082
:10103000030037000108a3004c00320001c2b300d6
:10104000817178004700370028609000c4c6b30063
:10105000844f500006003a001102780064005200ec
:10106000800878001002be006033b800110037001d
:1010700014c7b300844f500003003200a4c6b3006d
:10108000844f500006003a001102780068005200b8
:10109000800878003002be002003be000500370043
:1010a0001180e90080087800100278008002eb00cf
:1010b0006033b800049cbe000694be002860900017
:1010c00081c6b300814f50000d00320021c6b3002d
:1010d000814f500004003a000482fb008002eb00c4
:1010e0006033b8000800370041c7b300814f50009b
:1010f00003003200e6c04000814f500004003a0077
:101100008002eb006033b800049cbe000694be0071
:10111000081090000038a300140032003802be000e
:101120002803be00e00f5200e08f5a00e00f5b0082
:10113000e08f5b000d00320080c7b300804f51008c
:101140000300320080c5b300804f510007003a0011
:101150007800900001c3b300817178000000e800be
:10116000827178000000e800700498007800900018
:101170008081410063049800824078003e0037007f
:1011800028619000c3c6b3001180e900834f51006d
:10119000220032000a003c00e4c15100834f51009c
:1011a0002500320083c1e800834f51001300320054
:1011b000e8c15100834f51001e003a000a00370079
:1011c00043c7b300834f51001b003200e6c141000a
:1011d000834f510018003200e9c15100834f510084
:1011e00014003a00050037008008780010007800ed
:1011f000485c90000848780041003700800878007b
:1012000010007800680a9000cfa2de00612bb900c0
:101210000498be000690be003900370080087800b0
:101220001000780068099000cf91de000288be00af
:10123000330037001180e900800878001000780042
:10124000680c9000080878002d0037001180e90034
:101250008008780010027800cfa2de00612bb90070
:10126000049cbe000694be0078009000808141007e
:101270006304980081c7b3000800780040000700ad
:101280001f0037001180e900800878001005780001
:101290006a049800d80c90000900e00004003d00aa
:1012a0000a0078003000070080047800070037004b
:1012b000090178008000eb000a00780014000700a4
:1012c0000000e000010032008a045000190c980070
:1012d0000b0037007800900082717800060037001c
:1012e00078009000808141000204e00001003a0093
:1012f00052c2b300824978000000e80070049800f0
:101300000000eb004f0578004f04be00000006000f
:1013100003003700b0cf1000050032000201e900e1
:10132000800178000200e000faff3a0000000500aa
:101330000300780000000600020037000304e0000c
:10134000060032000001780002007800b041780009
:1013500081cf5100f9ff3a00010037000001eb0096
:10136000020078000000060080007800010178008b
:101370003104e000fdff3a000000510000000600cb
:10138000fc874700889fbe008a9fbe008c9fbe00de
:101390008e1f78000006780080c5b30080cf500013
:1013a0000a0032007740400080cf50000a0032002f
:1013b0006940400080cf50000b003200301d2100fa
:1013c00080bf9f00ae0020000a003700221c2100d1
:1013d00082bf9f0006003700331d210083bf9f009e
:1013e0008e00200003003700341d210084bf9f00c1
:1013f0000e0120003c02be002c03be000605be000c
:101400000404be0040c6b30080cf50000300320089
:101410006540400080cf50000b003a00e00f5200c2
:10142000e08f5a00e00f5b00e08f5b0006003d009c
:101430006000b8006011b8000404500085845800b2
:101440000605590087855900e80f5700040032004f
:1014500040002000f00f570038003a00010037002c
:1014600030002000e00f5400e08f5c00e00f5d00d2
:10147000e08f5d0004003a00dc0890008d01200040
:101480000100e000060032008e00e9008880600064
:101490008fba9700e5c07800f1ef9f007d01200032
:1014a000800078008100e900050033008b05d10041
:1014b0000a85d3008984d3000884d300f9ff37005c
:1014c000089ebe000a96be00120037008d06e90095
:1014d0008e00e900848060000fb99700e2c17800b7
:1014e00082fd2f000f01410003f17e008000780093
:1014f0008100e900050033008783d1000683d30013
:101500008582d3000482d300f9ff3700049ebe0019
:101510000696be003c02be002c03be00e00f520047
:10152000e08f5a00e00f5b00e08f5b008b0034001f
:101530000d00e000e5ff3c00880037002c609000c3
:1015400081c6b300814f50000b00320006003c0002
:101550000004e00008003200e6c05000814f500057
:101560004e003a0004003700c1c6b300814f50005e
:101570004a003a00210037000800e00004003a0069
:101580005c0890008d0120000000e00006003200a1
:10159000110009000e84d8000fb99700e2c078004e
:1015a000f1ef9f007d012000110009000e84d8009a
:1015b0000a003700110009000e04d8008d06e9006a
:1015c0000e81b900020454008fb8970061417c007d
:1015d00081fd2f008f80400082f07e0000047800a3
:1015e0000800e000020032000d00e000f1ff3c00c6
:1015f000cfc4de00614db90025003700e00f540074
:10160000e08f5c0004003a005c0890008d0120002f
:101610000000e000070032006171b9000800be0060
:10162000530107008fb99700e3417800f3ef9f0063
:101630007d0120006171b9000800be00c8fb0700f1
:101640000b0037006171b9000800be0039010700c6
:101650008d06e90000f1b900020454000fba9700aa
:10166000e4427c0084fd2f000f02420005f27e0060
:101670000004be00e00f5000e08f5800020032006e
:101680000d00e000efff3c004fcdde008a05780042
:10169000089ebe000a96be0030003700e00f5400de
:1016a000e08f5c00e00f5d00e08f5d0004003a0019
:1016b0005c0890008d0120000000e000090032006d
:1016c0006172b900612bb9000800be000a01be00ba
:1016d00053fc07000fba970064427800f4ef9f00b4
:1016e0007d0120006172b900612bb9000800be00c5
:1016f0000a01be0043fc07000d0037006172b9000b
:10170000612bb9000800be000a01be0048fc0700ba
:101710008d06e90000f2b900040454008fba970066
:1017200065427c0085fd2f008f82420084f27e009e
:10173000009ebe000296be003c04be002c05be000a
:10174000e00f5400e08f5c00e00f5d00e08f5d0073
:10175000020034000d00e000e8ff3c00e80f5700f5
:1017600010003a000c1090000038a3000d00320069
:10177000f78f560006003e0085fd2f008f82420045
:10178000e5c07e0000c3b30080cf500005003200ea
:101790008d06e90002c3b30081fd2f008f80400059
:1017a00082f07e0078811600120e98006c00900086
:1017b00083fd2f008f8141008d804100d3fc070005
:1017c0001c089000dc089000810f500006003d00ce
:1017d00000805000000e98000c1090000040a10006
:1017e000001698000f0037000100e0000d003d00da
:1017f0008c109000f4806000f08f500009003a00d7
:101800007c099000fc009000810051000c099000c0
:1018100082805000008050004240a9000100340046
:10182000000e98004f0778004f06be004f05be001f
:101830004f04be00cf01b100000006000400fa0012
:10184000889fbe008a9fbe008c1f7800000478002d
:1018500001067800f80d9000780090008085550012
:101860000808900080855500180890008085550074
:101870002808900080855500380890008085550024
:1018800048089000808555000002220090bf9f000c
:1018900000032300a0bf9f00081090000028a300b1
:1018a00015003a000b00e000130034000b0578002f
:1018b0008a047800e20f550001003600290020005c
:1018c000c801900009017800ee8057005800900090
:1018d00003000100500498000000e0008c0032007a
:1018e0006808900009004000600c98000905550048
:1018f0004240a900eeff3c00780190000200e000a9
:101900000c003400c80190008c0078005800900052
:1019100003000100500498008080eb000000e0000c
:101920007c003200e80890007800900000804000c1
:10193000600c9800880c90000900e0001100340051
:1019400009057800e28f5400010036002a002000cb
:10195000c80190000a017800ec8057005800900000
:1019600003000100500498000000e000680032000d
:10197000680890000a004000600c98008a845400b7
:10198000edff3700180990000200e0000c00340061
:10199000c8019000e800900058009000030001008a
:1019a000500498008080eb000000e00059003200f5
:1019b000e80890001808900000804000600c980033
:1019c000a80c90000900e00011003400090578001f
:1019d000e28f5400010036002a002000c801900068
:1019e0000a017800ec8057005800900003000100c5
:1019f000500498000000e0004500320068089000a4
:101a00000a004000600c98008a845400edff370003
:101a1000380990000200e0000e003400e800900059
:101a20001808900080804000c80190005800900085
:101a300003000100500498008080eb000000e000eb
:101a400034003200e8089000380890000080400020
:101a5000600c9800c80c90000900e00011003400f0
:101a600009057800e28f5400010036002a002000aa
:101a7000c80190000a017800ec80570058009000df
:101a800003000100500498000000e0002000320034
:101a9000680890000a004000600c98008a84540096
:101aa000edff3700081090008000eb000028a30035
:101ab000180032000b00e000160034008b047800a0
:101ac00009057800e28f5400010036002a0020004a
:101ad000c80190000a017800ee805700580090007d
:101ae00003000100500498000000e00008003200ec
:101af000680890000a004000600c98008a84540036
:101b00004240a900eeff3c008000eb0001003700de
:101b10008080eb00010078004f0678004f05be0082
:101b20004f04be000080fa000000060001087800a3
:101b300000000600839f68000100e00002003d00f5
:101b400060001000e08018000300e00002003d008b
:101b500060011100e081190081fa07004f00e000e8
:101b600002003b0060001000e0801800000006004a
:0c1b70007bfa07000400be000000060025
:020000040000fa
:101b7c000000000000000000963000000777000015
:101b8c002c6100000eee0000ba5100000999000013
:101b9c0019c400006d0700008ff400006a7000008b
:101bac0035a5000063e90000a3950000649e0000c9
:101bbc0032880000db0e0000a4b80000dc790000c5
:101bcc001ee90000d5e0000088d90000d297000083
:101bdc002b4c0000b6090000bd7c0000b17e00005b
:101bec00072d0000b8e70000911d0000bf90000019
:101bfc0064100000b71d0000f2200000b06a000065
:101c0c0048710000b9f30000de410000be84000002
:101c1c007dd40000da1a0000ebe40000dd6d00005a
:101c2c0051b50000d4f40000c7850000d383000038
:101c3c00569800006c130000c0a800006b640000f4
:101c4c007af9000062fd0000ecc90000658a000012
:101c5c004f5c000001140000d96c0000066300000a
:101c6c00633d00000ffa0000f50d0000088d000028
:101c7c00c82000006e3b00005e100000694c0000a4
:101c8c00e441000060d500007271000067a2000002
:101c9c00d1e40000033c000047d40000044b0000da
:101cac00fd8500000dd200006bb500000aa50000f8
:101cbc00faa80000b53500006c980000b242000094
:101ccc00d6c90000bbdb000040f90000bcac000032
:101cdc00e36c0000d8320000755c0000df450000aa
:101cec00cf0d0000d6dc0000593d0000d1ab000048
:101cfc00ac300000d92600003a000000de51000094
:101d0c0080510000d7c8000016610000d0bf000051
:101d1c00b5f40000b421000023c40000b356000049
:101d2c0099950000bacf00000fa50000bdb80000c7
:101d3c009eb800000228000008880000055f000023
:101d4c00b2d900000cc6000024e900000bb1000061
:101d5c00877c00006f2f0000114c000068580000b9
:101d6c00ab1d000061c100003d2d000066b60000f7
:101d7c0090410000dc76000006710000db010000e1
:101d8c00bc200000d29800002a100000d5ef000003
:101d9c0089850000b17100001fb50000b606000077
:101dac00a5e40000bf9f000033d40000b8e8000099
:101dbc00a2c900000778000034f90000000f0000f1
:101dcc008ea8000009960000189800000ee1000093
:101ddc00bb0d00006a7f00002d3d00006d08000067
:101dec00976c000064910000015c000063e6000049
:101dfc00f45100006b6b0000626100006c1c000071
:101e0c00d8300000658500004e00000062f2000032
:101e1c00ed950000066c00007ba50000011b000086
:101e2c00c1f400000882000057c400000ff5000048
:101e3c00c6d90000b065000050e90000b7120000e0
:101e4c00eab80000be8b00007c880000b9fc0000e2
:101e5c00df1d0000dd620000492d0000da150000d6
:101e6c00f37c0000d38c0000654c0000d4fb000018
:101e7c0058610000b24d0000ce510000b53a000090
:101e8c0074000000bca30000e2300000bbd40000d2
:101e9c0041a50000df4a0000d7950000d83d0000a6
:101eac006dc40000d1a40000fbf40000d6d30000e8
:101ebc006ae9000069430000fcd900006e340000a0
:101ecc004688000067ad0000d0b8000060da000062
:101edc00732d000004440000e51d000003330000d6
:101eec005f4c00000aaa0000c97c00000ddd000058
:101efc003c71000005500000aa41000002270000c0
:101f0c00101000000bbe0000862000000cc9000061
:101f1c0025b5000068570000b38500006f20000055
:101f2c0009d4000066b900009fe4000061ce0000f7
:101f3c000ef90000de5e000098c90000d9290000ef
:101f4c0022980000d0b00000b4a80000d7c7000051
:101f5c00173d0000b3590000810d0000b42e0000a5
:101f6c003b5c0000bdb70000ad6c0000bac00000c7
:101f7c0020830000b8ed0000b6b30000bf9a00004b
:101f8c000ce20000b60300009ad20000b17400000d
:101f9c0039470000d5ea0000af770000d29d000061
:101fac0015260000db04000083160000dc73000023
:101fbc00120b000063e30000843b000064940000fb
:101fcc003e6a00006d0d0000a85a00006a7a0000fd
:101fdc000bcf00000ee400009dff000009930000f1
:101fec0027ae0000000a0000b19e0000077d000033
:101ffc00449300000ff00000d2a3000008870000fb
:10200c0068f20000011e0000fec20000066900001c
:10201c005d57000062f70000cb6700006580000090
:10202c00713600006c190000e70600006b6e0000b2
:10203c00761b0000d4fe0000e02b0000d3890000ca
:10204c005a7a0000da100000cc4a0000dd6700006c
:10205c006fdf0000b9f90000f9ef0000be8e000040
:10206c0043be0000b7170000d58e0000b060000022
:10207c00e8a30000d6d600007e930000d1a100009a
:10208c00c4c20000d838000052f20000df4f00003c
:10209c00f1670000bbd1000067570000bca6000030
:1020ac00dd060000b53f00004b360000b2480000d2
:1020bc00da2b00000dd800004c1b00000aaf00000a
:1020cc00f64a000003360000607a0000044100006c
:1020dc00c3ef000060df000055df000067a80000c0
:1020ec00ef8e00006e31000079be000069460000e2
:1020fc008cb3000061cb00001a83000066bc0000aa
:10210c00a0d200006f25000036e2000068520000eb
:10211c00957700000ccc0000034700000bbb0000bf
:10212c00b9160000022200002f2600000555000001
:10213c00be3b0000bac50000280b0000bdb2000079
:10214c00925a0000b42b0000046a0000b35c00003b
:10215c00a7ff0000d7c2000031cf0000d0b50000af
:10216c008b9e0000d92c00001dae0000de5b000031
:10217c00b0c20000649b000026f2000063ec00007b
:10218c009ca300006a7500000a9300006d02000019
:10219c00a9060000099c00003f3600000eeb000071
:1021ac00856700000772000013570000000500004f
:1021bc00824a0000bf950000147a0000b8e20000cb
:1021cc00ae2b0000b17b0000381b0000b60c0000e9
:1021dc009b8e0000d29200000dbe0000d5e50000e1
:1021ec00b7ef0000dc7c000021df0000db0b0000ff
:1021fc00d4d20000d386000042e20000d4f10000eb
:10220c00f8b30000dd6800006e830000da1f0000e8
:10221c00cd160000be8100005b260000b9f6000060
:10222c00e1770000b06f000077470000b71800009e
:10223c00e65a000008880000706a00000fff0000da
:10224c00ca3b0000066600005c0b00000111000098
:10225c00ff9e0000658f000069ae000062f8000070
:10226c00d3ff00006b61000045cf00006c1600002e
:10227c0078e200000aa00000eed200000dd70000aa
:10228c0054830000044e0000c2b300000339000068
:10229c006126000067a70000f716000060d0000060
:1022ac004d47000069490000db7700006e3e0000de
:1022bc004a6a0000d1ae0000dc5a0000d6d90000fa
:1022cc00660b0000df400000f03b0000d837000038
:1022dc0053ae0000bca90000c59e0000bbde000090
:1022ec007fcf0000b2470000e9ff0000b5300000ce
:1022fc001cf20000bdbd00008ac20000baca00007a
:10230c0030930000b3530000a6a30000b4240000d7
:10231c0005360000d0ba000093060000d7cd0000af
:10232c0029570000de540000bf670000d9230000cd
:10233c002e7a000066b30000b84a000061c40000a9
:10234c00021b0000685d0000942b00006f2a000047
:10235c0037be00000bb40000a18e00000cc30000bf
:10236c001bdf0000055a00008def0000022d00005d
:10237c0054540000545400005454000054540000b1
:10238c00545400005454000054540000555500009f
:10239c005555000055550000555500005555000089
:1023ac005555000055550000555500005555000079
:1023bc002d30000033350000383b00003e4100005a
:1023cc0043460000494c00004f510000090c00002e
:1023dc000f120000151700001a1d0000202300002a
:1023ec00252800002b2e0000313300003639000068
:1023fc002e00000084020000010400000106000011
:10240c000c080000c10a0000770c0000640e0000ec
:10241c003210000000120000001400000016000032
:10242c0038180000c81a00000d1c0000001e000027
:10243c00ff2000003822000038240000072600008e
:10244c0000280000002a0000692c0000812e0000ea
:10245c007e30000096320000f83400008836000010
:10246c0040380000003a0000e83c0000003e00004c
:10247c002a4e000072960000bade0000613a00009d
:10248c002530000034780000207000003a4600002f
:10249c004646000046000000693a00002530000066
:1024ac00347800003d250000303200007820000018
:1024bc00202000002020000020200000006f0000e1
:1024cc003a25000030320000782000002020000067
:1024dc0020200000202000002020000020200000f0
:1024ec00004e00006f2000004e6500007477000065
:1024fc006f7200006b000000703a00002530000085
:10250c0034780000004600004646000046000000fb
:10251c00703a00002573000000000000000100006c
:10252c00020300000405000006070000ffff000086
:0c253c00ffff0000ffff0000ffff000099
:020000040000fa
:102548000200fa0000c2b30024000700004f780020
:102558001e80fb006f0060000000e8007900b900f1
:10256800000078000080fa00000006000400fa006d
:1025780010079800b00480004d00de006140600044
:10258800004f780097a0a900ca22a9001e00900059
:102598004800de0000407800ef2707001e0090008a
:1025a80000407800ec270700ca22a8009e40780067
:1025b80061c060000080fb00610060004d00dd002c
:1025c800b2048000f1ff2d0081006100010070005d
:1025d800b00488000080fa00000006000400fa0039
:1025e80020479800b00480004d00de006140600084
:1025f800004f780097a0a900ca22a900ae40900019
:1026080000c4b30000c07000204798002e4090001e
:10261800d1270700e127070010479800ca22a80021
:102628009e40780061c060000080fb00610060008f
:102638004d00dd00b2048000f1ff2d008100610033
:1026480001007000b00488001e4090000080fa006d
:10265800000006000400fa0020479800b00480003b
:102668004d00de0061406000004f780097a0a9008f
:10267800ca42a9002e409000b7270700ca42a80006
:102688009e40780061c060000080fb00610060002f
:102698004d00dd00b2048000f1ff2d0081006100d3
:1026a80001007000b00488000080fa0000000600f5
:1026b8001400fa00205798003157980030c0b30032
:1026c800204798008a0037000040eb003047980008
:1026d80001003700000000004c68ef0097a0a90037
:1026e80000c2b3002a01070090ac21009fff070039
:1026f8002e509000d7ff07000040eb0010479800cd
:10270800080037001e4090000080fb00a1ca20008e
:1027180061407800cfff07001e4090000040e800ad
:10272800104798009e4090002e50900080cf500097
:10273800f4ff39000040eb00604798003e509000dd
:102748000004e000290032000040eb001047980028
:102758002100370080c2b300a0ff0700704798002f
:102768007e4090000080fb000000d1007047980078
:10277800fe40900010c4b30080cf50001a0036000d
:102788004b260700000078007f00600068004000ca
:10279800400798000000eb0020079800070037006a
:1027a8000060fe001000200001002000d427070070
:1027b8002e0090000000e80020079800ae0090006e
:1027c8004e009000808f5000f5ff39001e409000a9
:1027d8000040e800104798001e409000e34f50006a
:1027e800dcff3600010037000000000000c8b3001d
:1027f800e700070097a0a8000000000040c8bf003d
:102808000004a2000004e00005003200310480004a
:1028180000002200008060000000e000f7ff3200a6
:102828004068ef0000c2b300d900070000c6b3003b
:10283800d7000700a0ca2000104078008080fb0065
:1028480000022000008060000000e0002500340045
:10285800b0ca20001040780046e8b7006a00470078
:10286800a726070001003700000000004cc8bf0081
:102878000004e0000300320010c0b300004f7800ed
:10288800270037006e0047009d2607007e01900054
:102898008e0990005e009000ee009000000151004b
:1028a800818159002003200001002000800f510081
:1028b800818f5900ecff360010c0b300be40900075
:1028c800e3cf5000010036000040eb00be4090000e
:1028d8008140e800314798000004e0007dff3a009d
:1028e8000300370010c0b300004f78000c00370019
:1028f8002e4090000080fb000000ea004f00de0040
:1029080000407800ae4090008140e90021479800df
:102918000004e0006cff3a000040eb00004f780034
:102928001e4078000080fa00000006000400fa004b
:10293800000f7800110798000040eb000080fa00b3
:10294800000006000200fa00004f780011479800c6
:102958001e407800ff4f5000020036000040eb0098
:102968001d00370040c6200000ff07001e80fb0046
:10297800e11b2900614078008080fb0000e0200016
:1029880001007000f9fe07001e80fb00e11d290010
:10299800614078008080fb00000021000100700089
:1029a800f2fe070000c2b30079000700e00420002f
:1029b800eefe070000c4b30075000700f0c0210058
:1029c800eafe070000c2b3007100070000c6b300aa
:1029d8006f00070010c0b3000080fa000000060076
:1029e8000200fa00004f78001e407800e74f5000c0
:1029f800020036000040eb00070037001e80fb0095
:102a08000000400080007800004f230001007000a3
:102a1800d6fe070010c0b3000080fa0000000600d0
:102a28000800fa0020079800310798002e0190004e
:102a3800be01900012428800234288004001200015
:102a4800010020002e270700ca22a800ca42a800b9
:102a580000c0eb0048e8b7000040eb00004f7800ea
:102a6800090037009e80fb00800420000088b90020
:102a78008000780040bf2000008040008040eb00cc
:102a8800014878001e4fe8001e407800e14f5000d2
:102a9800f4ff36001000200001002000704288007a
:102aa80081428800820020004129290020ca200094
:102ab80014f807000040eb00004f780007003700cb
:102ac8001e80fb0080004000e01f290000804000bd
:102ad80010007800a5fe07001e4fe8001e40780091
:102ae800ff4f5000f6ff360000c2b3002800070071
:102af800e00420009dfe070000c4b3002400070086
:102b0800f0c0210099fe070000c6b30020000700ae
:102b180087a0a90097a0a8000000eb001007980064
:102b28000040eb00004f78000e0037001e009000b8
:102b3800000040001007980080c2b300a7fe0700fd
:102b48000080fb000000d100004078000080fb00fe
:102b5800610060009e00900001007000100798005e
:102b68001e4fe8001e407800ef4f5000efff360080
:102b78001e009000172507004d250700004078002b
:102b880047e8b70010c0b3000080fa000000060054
:102b98000200fa00004f78001e80fb0001042000ac
:102ba800810f50001900320001042000810f5000ed
:102bb80006003c000000e0001e0032000102200078
:102bc800810f5000160032001e0037000106200059
:102bd800810f50000800320001082000810f5000ca
:102be80018003a00e008200060fe070000c8b300a3
:102bf80049e8b70013003700e00620005bfe070035
:102c080000c6b30049e8b7000e003700e004200012
:102c180056fe070000c4b30049e8b70009003700b2
:102c2800e002200051fe070000c2b30049e8b700e7
:102c380004003700e00020004cfe07004968ef0060
:102c4800000000000080fa00000006000e00fa00f4
:102c5800200798003107980042079800530798000a
:102c6800444f9800ce48900060c3b30080cf500016
:102c7800020036000040eb00bf0037002e00900035
:102c880063006000e10f500003003a002e0090003e
:102c98000070a000200798000040eb001047980043
:102ca8001e4090000080fb004e419000a1ca200009
:102cb800827078001e4090000040e800104798009d
:102cc8001e4090008080fb0047c8bf00a2ca2000b9
:102cd80000f178009e4090008140e800114798007c
:102ce8000040e80047e8b700ae009000000420006c
:102cf800008060000000e000210032001e409000cb
:102d08008080fb00a0ca200000804000e40047004b
:102d1800e4804000220020007af707001e4090005f
:102d280000c0e800104798000040eb00004f780012
:102d38000c0037001e4090000080fb003e01900010
:102d48009e80fb008100410011417800a1ca20004b
:102d5800827078001e4090000040e80010479800fc
:102d68001e4fe8009e80fb00104280004300de00fa
:102d78006f4060000080fb00808f5000edff350041
:102d8800ae00900000082000008060000000e00015
:102d9800200032001e4090008080fb00a0ca200066
:102da8000080400022002000618c200055f70700b9
:102db8001e40900000c0e800104798000040eb005b
:102dc800004f78000c0037001e4090000080fb0088
:102dd800224280009e80fb00810041001141780062
:102de800a1ca2000827078001e4090000040e800d0
:102df800104798001e4fe8009e80fb00104280009c
:102e08004300de006f4060000080fb00808f5000b0
:102e1800edff35002e009000680060000000e00023
:102e2800360032001e4090008080fb00a0ca2000bf
:102e38000080400042002000e184200031f70700b4
:102e48001e40900064404000104798007042800087
:102e58008142800061004000e080480070428800a4
:102e6800814288001e4090000080fb00a1ca20001b
:102e78000041eb00827078001e4090000040e8009e
:102e8800104798009e409000214798000040eb00b2
:102e9800004f78000c0037001e4090000080fb00b7
:102ea8009e80fb005e019000810041001141780086
:102eb800a1ca2000827078001e4090000040e800ff
:102ec800104798001e4fe8004e4890009e4078003a
:102ed80080cf5000f0ff390023ca20004e499000ef
:102ee800ae409000a0ca2000531f07001e4090006b
:102ef80000c0e80010479800130037000040eb00be
:102f0800004f78000c0037001e4090000080fb0046
:102f18009e80fb005e019000810041001141780015
:102f2800a1ca2000827078001e4090000040e8008e
:102f3800104798001e4fe8004e4890009e407800c9
:102f480080cf5000f0ff3900104280000000d1000f
:102f5800614060000080fb0000f0a7000000ea006c
:102f68000000ea004f00de00004078008040780052
:102f78001e409000cefd07000080fa000000060009
:102f88000e00fa000040eb00004f78002e003700da
:102f980064004700da2407001e80fb006600b900c1
:102fa8008000780040c82000008040001040780071
:102fb8000004e000230032002e019000be019000c2
:102fc8001e80fb006600b900000078008080e800e1
:102fd80040c82000008040001000be00800f510053
:102fe800818f5900170036002e019000be01900015
:102ff8001e80fb006600b900000078008080e800b1
:1030080040c82000008040001000be0000015100b0
:1030180081815900803e200001002000800f51006e
:10302800818f5900070036001e80fb006600b9003a
:103038008000780040c82000008040008040eb00fd
:10304800014878001e4fe8001e407800e44f500009
:10305800cfff360048c8bf00e14f400002003200f1
:103068000040eb00310137000040eb00004f7800d2
:103078002a0137009e80fb00800420000088b900e8
:103088008000780040bf20000080400010007800d9
:1030980000407800614060000004e0001e0132003a
:1030a8009e80fb00800420000088b9008000780022
:1030b80040bf2000008040009040900040d4200095
:1030c800014878009e80fb00800420000088b90039
:1030d80000007800010420008080400040bf2000ec
:1030e8000080400090409000a0d420000148780063
:1030f80020c0b30010479800216a80000004200017
:10310800008060000000e000180032009e80fb0094
:10311800800420000088b9008000780040bf2000ab
:10312800008040008000e8001e4090000080fb0006
:1031380000804000220020008000780000d5200098
:1031480070f607001e40900000c0e8001047980085
:10315800104280004300de006f4060009e409000f7
:1031680000c0400010479800020037000080eb00c4
:10317800806a8800216a80000008200000806000c2
:103188000000e000230032009e80fb008004200045
:103198000088b9008000780040bf2000008040000f
:1031a8008000e8001e4090000080fb000080400086
:1031b8002200200080007800e0d4200051f60700ab
:1031c8001e40900000c0e800104798009e80fb0059
:1031d800800420000088b9008000780040bf2000eb
:1031e800008040008000e8001e4090000080fb0046
:1031f80000804000306a8800104280004300de00f2
:103208006f4060009e40900000c04000104798004a
:10321800040037000000eb00306a88003046800068
:10322800706a8800206a8000680060000000e00082
:103238009f0032009e80fb001e4090000080fb0033
:1032480064014000800420000088b9000000780074
:103258008200400040bf20000080400010409000e5
:103268000004e0000a0032009e80fb008004200079
:103278000088b9008000780040bf2000008040002e
:103288008040eb00014878000040eb00a7003700c1
:10329800216a800000082000008060000000e00033
:1032a800560032000040eb00204798001f0037000e
:1032b800316a8000680047002200200011f60700ec
:1032c8002e4090000080fb006c00b90000007800e0
:1032d800ea004000a0ce20000080400010007800e6
:1032e8004700de00614060000004e0000c0032008e
:1032f8002e4090000080fb006c00b90000007800b0
:10330800e8004000a0ce200000804000ce009000e1
:1033180010007800f10907000004e00007003a00f7
:103328002e4090000040e800204798002e40900072
:10333800e44f5000deff36000100370000000000b7
:103348002e409000e44f50002c003e009e80fb0071
:10335800800420000088b9008000780040bf200069
:10336800008040008000e8001e4090000080fb00c4
:10337800808040006a00470042002000e1f5070015
:103388002e4090000080fb006c00b900800078009f
:10339800a0ce2000008040001001be005e0090001a
:1033a800ee009000800f5100818f59000a0036000e
:1033b8009e80fb00800420000088b900800078000f
:1033c80040bf2000008040008040eb0001487800aa
:1033d8000040eb00550037002e4090000081fb00b4
:1033e8005e009000ee0090006c11b9008201780038
:1033f800a2ce2000028141000089be001e4090003c
:1034080065404000104798009e80fb008004200023
:103418000088b90000007800010420008080400086
:1034280040bf200000804000904090001e40900067
:1034380000c150009e80fb00800420000088b90075
:103448008000780040bf2000008040000000e800b5
:1034580023ca20009e409000371e07000004a200e7
:103468000004e0000a0032009e80fb008004200077
:103478000088b9008000780040bf2000008040002c
:103488008040eb00014878000040eb00270037003f
:10349800a0d42000904078001e40900000c050004a
:1034a80080c0e900a0d42000014878000600370059
:1034b800a0d42000904078001e40900080c05000aa
:1034c800a0d42000014878009e80fb0080042000e2
:1034d8000088b9008000780040bf200000804000cc
:1034e8008000e8001e4090000080fb000080400043
:1034f800406a8800b184200091407800b0d4200050
:10350800014878001e4178008184200082487800b4
:1035180010c0b300050037001e4fe8001e407800b9
:10352800e14f5000d3fe36000040eb000080fa0067
:10353800000006000000fa0048c8bf00e14f500034
:103548000b003e0048c8bf008080fb0080042000bc
:103558000088b9008000780040bf2000008040004b
:103568008040eb000148780000c0eb0048e8b70055
:103578000080fa00000006000c00fa00204f9800b6
:103588000000eb0010079800e4004700e223290040
:1035980005000900b25878000040eb00004f7800a1
:1035a800230037002e4890000004e0000a003a008b
:1035b80080c2b30009fc07000080fb000000d100b6
:1035c800004078000080fb009e00900000804000d2
:1035d800100798000c0037002e489000e14f50006b
:1035e80009003a0080c2b300fcfb07000080fb0022
:1035f8000000d100004078000080fb009e00900091
:1036080000804000100798000040eb001047980029
:10361800030037001e4090000040e8001047980063
:103628001e409000e14f4000faff3a001e4fe800ac
:103638001e407800e14f4000daff3a001e0090007b
:103648004800de00100798009e009000a0002000af
:1036580000017800110009008280d800004f78002e
:103668001e407800e64f50000200360060c0b300ec
:10367800004f78001e4078000004e00002003a0085
:1036880010c0b300004f78001e80fb000000e90066
:1036980000004700404090000080fa00000006004b
:1036a8000400fa00204798002e4090000080fb009c
:1036b8000000e00004003200f10f2000810f5000ec
:1036c800050032001b0037000040eb0030fd07000a
:1036d80097a0a9001900370000c2b3002cfd07000d
:1036e80000c6b3002afd070097a0a800a00020008c
:1036f80001002000022407000040eb00004f780082
:10370800080037001e80fb006600b90080007800c2
:1037180040c82000008040008040eb00014878004d
:103728001e4fe8001e407800e44f5000f5ff3600b9
:10373800020037000040eb000100370010c0b30062
:103748000080fa000000060000a0fe003600f80025
:10375800849fbe00869fbe003400f800040020004d
:10376800a40188000000fa00510480000002200033
:10377800008060000000e000060032005104800074
:1037880000022000008060000000e000010032001c
:103798008aa0a900918420009140780000c6b30057
:1037a80080cf500006003a0080c2b3008bfb0700b0
:1037b8000080fb000000d100004078004ae8b70014
:1037c8000080fa003400f9004f03be004f02be002b
:1037d8003600f9000080fe000040060000a0fe0050
:1037e8003600f800849fbe00869fbe00889fbe00fa
:1037f8003400f80004002000a40188001600fa0034
:103808003104800000002200008060000000e00019
:10381800fc013200b104800000002200008060003a
:103828000000e000f7013200918420009140780008
:1038380000c6b30080cf5000ec013a0080c2b3004c
:1038480066fb07000080fb000000d1000040780004
:103858004ae8b7004ac8bf004be8b700ca42a90007
:103868004e230700104f9800ca42a8000040eb0002
:10387800104798000f0037001e4090008080fb0022
:10388800800420000088b9008000780040bf200034
:10389800008040001000780000407800614060001f
:1038a8000004e000070032001e4090000040e800dd
:1038b800104798001e409000e14f5000eeff360080
:1038c80001003700000000001e489000e24f500041
:1038d80003003a0010c0b3004047980002003700c8
:1038e8000040eb00404798009e489000f0c3b300aa
:1038f80080cf50000a003e001e4890000004e000ff
:10390800070032001e409000e14f500014003600be
:103918004e4090000004a2000004e00010003200b5
:10392800a0c1b3002dfb07005047980006003700e0
:10393800ca42a90019230700ca42a800a0c1b300bf
:1039480026fb0700504798005e4090000080fb006f
:10395800620060000000e000f5ff3a00a7013700b0
:103968000040eb00004f78001e4890000080fb00ec
:1039780010079800990137001e0090000000e90028
:10398800100798004e4090000004e0000800320044
:10399800ca42a9001e84fb000023070088004700d4
:1039a800c04898001e4fe800ca42a8000f00370020
:1039b800ca42a9001e4090008084fb001e84fb00c0
:1039c800f6220700004178008004200000c8b900f2
:1039d800000078008800400040bf200000804000c0
:1039e800124098001e4fe800ca42a8001e489000e6
:1039f8009e40780080cf5000780139004e409000fa
:103a08000004e000260032004e4890000080fb00d1
:103a180063006000e20f500009003a00de489000a1
:103a280046c8bf0080cf500002003a0010c0b30063
:103a38004ce8b7000040eb00004f78006f013700fa
:103a48001e409000e14f5000030036000040eb009c
:103a5800004f7800b2ff37001e4090008080fb00c6
:103a68004e499000800420000088b900800078004a
:103a780040bf200000804000124098001e40900087
:103a88008080fb005e499000800420000088b90017
:103a98008000780050bf200000804000124098004d
:103aa8001e4090008080fb00800420000088b90040
:103ab8008000780040c32000008040009e489000ad
:103ac8001140980000c0eb00704798000040eb00e0
:103ad800004f98001e4090008080fb00800420006a
:103ae8000088b9008000780040bf200000804000b6
:103af800104090008080fb000004200000806000df
:103b08000000e00081003200700047005007980074
:103b18000040eb0060479800140037006e409000aa
:103b28000080fb00de009000008140001e409000f5
:103b38008080fb006e4090000080fb008081e800e0
:103b4800800420000088b90000007800830040004d
:103b580040bf2000008040001040900000497800dd
:103b68006e4090000040e800604798006e4090006a
:103b7800e14f5000e9ff36000e089000e10f4000c9
:103b8800070032008e08900030468000808f500079
:103b98000300320030468000e10f40004b003a003d
:103ba80010c0b300004f98000040eb006047980039
:103bb800190037001e4090008080fb006e40900086
:103bc8000080fb0064014000800420000088b900e8
:103bd800000078008200400040bf200000804000c4
:103be80090409000224280006e4090000080fb00d0
:103bf800000041001040780080cf500003003200e0
:103c08000040eb00004f98000b0037006e4090001a
:103c18000040e800604798006e4090008080fb00fc
:103c2800104280004300de006f4060000080fb000f
:103c3800808f5000dfff35000e4890000004a2007e
:103c48000004e0002100320010c0b300004f9800cb
:103c58000040eb0060479800140037001e409000b9
:103c68008080fb006e4090000080fb0064014000f3
:103c7800800420000088b90000007800820040001d
:103c880040bf20000080400010409000e14f4000fd
:103c9800030032000040eb00004f98000b00370093
:103ca8006e4090000040e800604798006e40900029
:103cb8008080fb00104280004300de006f406000ff
:103cc8000080fb00808f5000e4ff35000e48900014
:103cd8000004a2000004e0000c0032000040eb00e9
:103ce800004f78001e4090008080fb008004200078
:103cf8000088b9008000780040c3200000804000a0
:103d08008040eb001140980005ff37001e409000ee
:103d18008080fb00800420000088b90080007800c3
:103d280040bf200000804000104090008080fb00d1
:103d380000022000008060000000e0003400320033
:103d48000040eb00604798000b0037006e40900081
:103d58000080fb00ee4090008180fb00a2ca20009a
:103d6800e2c0780000004700414898006e4090008b
:103d78000040e800604798006e409000e14f500016
:103d8800f2ff3600a0ca200061c0b30001487800e5
:103d98001e4090008080fb00800420000088b9004d
:103da800000078008000e80040bf2000008040004c
:103db80090409000b0ca20000148780087a0a90070
:103dc8008040eb0020c0b30039fa07000040eb0048
:103dd800604798000b0037006e4090000080fb00a1
:103de800ee4090008180fb0081004700414990002f
:103df800a1ca2000827078006e4090000040e80060
:103e0800604798006e409000e14f5000f2ff360086
:103e18000040eb0060479800390037006e40900082
:103e28000080fb006600b9008000780040c82000d0
:103e380000804000104078000004e0001e003200be
:103e48006e4090000080fb006600b900800078009a
:103e580040c8200000804000104190001e409000a3
:103e68008080fb00800420000088b90000007800f2
:103e78008000e80040bf2000008040001040900013
:103e8800804f51000c003a006e4090000080fb000b
:103e98006600b9008000780060c8200000844000f7
:103ea80072004700162107001e099000ae09900015
:103eb800028cbe00150037007e409000e14f4000a4
:103ec8000c003a006e4090000080fb006600b900cc
:103ed8008000780040c82000008040001040780032
:103ee8000004a2000004e00002003200ee4190004d
:103ef800734798006e4090000040e80060479800c3
:103f08006e409000e44f5000c4ff36006e409000b1
:103f1800e44f5000380036007e409000e44f5000d7
:103f280023003e007e4090000080fb006600b90040
:103f38008000780040c820000080400011c0b30015
:103f4800014878007e4090008081fb001e40900070
:103f58008080fb00800420000088b9000000780001
:103f68008000e80040bf2000008040001041900021
:103f78006618b9008000780040c820000080400022
:103f8800124098007e4090000080fb006600b90057
:103f98008000780060c8200000844000720047005c
:103fa800d72007001e099000ae099000028cbe00c1
:103fb8001e4090008080fb00800420000088b9002b
:103fc8008000780040bf2000808040001100780009
:103fd8000000a00080087800080037001e0090004c
:103fe8000000e00064fe3a000400370010c0b3008f
:103ff80040e8b700010037000000000087a0a900d2
:10400800000000000080fa003400f9004f04be00f0
:104018004f03be004f02be003600f9000080fe00cc
:10402800004006000000fa00be28ef00c028ef009c
:104038000080fa00000006000400fa00100798004b
:1040480000c0eb00104798000040eb00004f7800dc
:104058001d0037001e80fb006b00b90000007800cf
:1040680064004000f1ec2000614078000080fb0013
:1040780061006000004078000004e0001100320098
:104088001e80fb006b00b90080007800e0ec200087
:10409800008040009080fb00104090000080fb00f2
:1040a8004800dd00008070009e0090008b0607002d
:1040b8000004e000030032009e4078001147980099
:1040c800040037001e4fe8001e407800f34f5000f0
:1040d800e0ff36001e4090000080fa000000060055
:1040e8000800fa0020079800310798000080eb00cc
:1040f800000f78002e009000cfff0700204798009f
:104108002e409000e14f4000220032002e409000e7
:104118000080fb006b00b9000000780064004000dc
:10412800f1ec2000614078000080fb006200600034
:104138000000e000170034002e4090000080fb00d3
:104148006b00b90000007800e6004000e0ec2000b9
:1041580000804000904090008180fb00204090004b
:104168000080fb004800dd0000807000000f780030
:104178009e80ea003e009000808f500003003100ce
:104188000080eb00000f7800020037003e0090002e
:104198001e0f40001e0078000080fa000000060094
:1041a8001000fa006007980071079800fe00900060
:1041b8003000200000017800110009008280d8003a
:1041c800400798000000eb00500798004e00900050
:1041d800e50f50000200360050002000400798000c
:1041e80020002000100798000000eb00300798001e
:1041f8000000eb00000f7800410037003e009000ff
:104208000000e80030079800f04580001e004000dc
:104218008000e8004001200000017800110009003a
:104228008280d8008000fd00200798002e009000b2
:104238006b00b9000000780064004000f1ec200039
:10424800614078000080fb00610060000040780059
:104258000004e000290032002e0090006b00b90035
:104268000000780064004000f1ec20006140780014
:104278000080fb00620060000000e0001f003200c8
:10428800830507000081fb002e0090006b00b90039
:1042980080007800e0ec200080804000ee01900073
:1042a8001e0090000080410016f207007805070004
:1042b8000080fb009e0090000080400010079800de
:1042c800ee0090001e009000008140002e0090003b
:1042d8006b00b9000000780066004000e1ec2000a7
:1042e80061407800004978001e0090000000e80056
:1042f80010079800ae009000510798001e0fe800c4
:104308004e0090009e007800808f5000bbff39005f
:104318005e019000f2458800004680000041780068
:10432800ee009000824878000000e800004688000f
:104338006e0090000000e800ae0090008140780018
:1043480001487800ee0090001e00900000804000b8
:104358000080fa00000006000600fa002007980016
:104368002e00900034ff07000080fb00000f78004b
:104378001000200010079800f00f20009e00780021
:10438800808f50000f0032001e0078006b00b900cb
:104398000000780064004000f1ec200061407800e3
:1043a800004178000234a0001e007800f3ec2000e1
:1043b8006b00b900000078000080410064004000f4
:1043c800024878001e0090000080fa0000000600f5
:1043d8000600fa00200798002e00900016ff07003c
:1043e8000080fb001007980010002000000f7800e4
:1043f8009e009000f00f2000808f500011003200c6
:104408001e0090006b00b9000000780064004000b6
:10441800f1ec2000e140780070cfb30000c16000eb
:104428001e009000f3ec20006b00b900000078003b
:104438000080410064004000024878000000eb0062
:10444800000f78001e0078000080fa0000000600c7
:104458000800fa003007980010002000000f7800cc
:104468003e009000f4fe07000080fb001007980053
:104478009e009000f00f2000808f50000e00320048
:104488001e0090006b00b90080007800e0ec20006e
:1044980000804000200798002e0090008040eb002c
:1044a800214898002e0090008040eb0011489800a9
:1044b8000000eb00000f78001e0078000080fa0072
:1044c800000006000600fa0020479800210798001f
:1044d8002e4090000080fb006b00b900800078003f
:1044e800e0ec2000008f40001e0078002e019000b4
:1044f800f10f2000810061001041780060416100e7
:104508008140710001487800ae009000c808de00c4
:104518001041900060416100814071001140980095
:104528001e0078008040eb00214098001e007800b3
:104538008040eb00314098001e0078008040eb007e
:10454800414098001e00780051c0b30051409800c7
:104558001e0078008040eb00614098001e00780043
:10456800f0409000e0c060007140980080489000e2
:10457800e0c06000014898000080fa0000000600d2
:104588000e00fa00404f9800f00f20003007980006
:10459800f00f2000100798000000eb00200798009b
:1045a8000000eb00000f78004c0037001e00780078
:1045b8006b00b9000000780064004000f1ec2000b6
:1045c800614078000080fb00610060000000e000ae
:1045d8003a0032001e0078006b00b9000000780035
:1045e80064004000f1ec2000614078000080fb008e
:1045f800620060000000e000320032001e00780017
:104608006b00b9000000780064004000f1ec200065
:10461800614078000080fb00680060000000e00056
:104628002a003a006a0047003d0507001e0078008e
:104638006b00b90080007800e0ec200000804000aa
:104648009080fb00104090000080fb004800dd00d7
:1046580000807000de009000200507000004e000e4
:104668001c003a001e0078006b00b90000007800ba
:10467800e6004000e0ec2000008040009040900000
:104688008180fb00204090000080fb004800dd0096
:104698000080700040079800ce0090002e00900027
:1046a800808f50000c0039009e0078001107980098
:1046b800ce00900021079800070037000000000096
:1046c800050037000000000003003700000000006c
:1046d80001003700000000001e0fe8001e007800ef
:1046e800f30f5000b1ff36004e4890008080fb0069
:1046f8002e009000808f500003003e009e00900026
:104708003107980002003700f00f200030079800aa
:104718003e0090000080fa00000006000400fa0045
:10472800f00f2000100798000000eb00000f780041
:104738000f0037001e0078006b00b90000007800f9
:1047480064004000f1ec2000614078000080fb002c
:1047580061006000004078000004e00003003a00b7
:104768009e00780011079800040037001e0fe8002b
:104778001e007800f30f5000eeff36001e00900078
:104788000080fa00000006000800fa0020079800e0
:104798003107980010002000000f78002e009000cc
:1047a80025fe0700204798002e409000e14f40006a
:1047b800030032000000eb00000f78004a003700c9
:1047c800d6ff0700204798002e409000e14f400098
:1047d8001a003200ae0090002e40900039ff07000a
:1047e8002e4090000082fb002e4090000080fb00cd
:1047f8006b00b9000000780064004000f1ec200074
:10480800e14078003e009000004178004000200020
:104818000010dd0000c17000f3ec20006b20b9002f
:1048280000007800008041006400400002487800e1
:104838000000eb00000f78002b003700a0c0b30089
:104848004fff0700204798002e409000e14f40009e
:10485800250032002e4090000080fb006b00b9005c
:1048680080007800e0ec2000008040009080fb0091
:10487800104090000080fb004800dd0000807000c0
:10488800b20a0700ae0090002e4090000dff07000e
:104898002e4090000082fb002e4090000080fb001c
:1048a8006b00b9000000780064004000f1ec2000c3
:1048b800e14078003e009000004178004000200070
:1048c8000010dd0000c17000f3ec20006b20b9007f
:1048d8000000780000804100640040000248780031
:1048e8000000eb00000f78001e0078000080fa003e
:1048f800000006000400fa00204798000080eb0042
:10490800000f78002e4090000004e0000d003200f7
:104918002e4090000080fb00419c200000017800a0
:10492800110009008200d800000f7800a00f2000b5
:104938009e007800808f5000020036000080eb0057
:10494800000f78001e0078000080fa0000000600c2
:104958000400fa00000f7800110798001e00780084
:10496800f04090008180fb00004890000080fb0030
:104978004800dd0000807000c200dd001e009000cd
:10498800008040000000400080007800a000200067
:1049980000017800110009008280d80080007800aa
:1049a8001e007800f20f200002816000f0419000a4
:1049b800e0c1610002c1710072409800c808de00c1
:1049c80000499000604161008140710001489800f1
:1049d8000080fa00000006000a00fa00400798006c
:1049e80030c0b300104798000040eb00004f78003b
:1049f8007f0037001e80fb006b00b9008000780044
:104a0800e0ec200000804000100798001e00900095
:104a18009080fb00104090000080fb004800dd0003
:104a280000807000ce0090002c0407000004e00015
:104a38006e0032001e009000504090000080fb0085
:104a480061006000004078000004e0006700320068
:104a58001e009000b04090001e0090004040900062
:104a680000c04000404798001e0090005040900051
:104a78000080fb00620060000000e00027003a00b0
:104a88001e009000304090000080fb008000eb008a
:104a9800a20f20000289b900020178006002b90063
:104aa8008401780003014100a30f20000300b8002f
:104ab80001014100820078004e4190000281fb0014
:104ac8008001eb00a4ee0700300798003e0090003c
:104ad800804078001e009000614098001e00900001
:104ae8006040900083ff0700800078001e0090005f
:104af800f20f200002816000f0419000e0c16100e7
:104b080002c1710072409800c808de000049900098
:104b18006041610081407100014898001e009000ca
:104b280050409000804078000114a0001e009000c2
:104b3800514098001e009000304090000080fb001b
:104b48008000eb00a20f20000289b9000201780062
:104b58006002b9008401780003014100a30f20001e
:104b68000300b80001014100820078004e41900026
:104b78000281fb008001eb0077ee07003007980008
:104b88001e009000604090000080fb00c200dd0025
:104b98003e00900000804000000040008000780047
:104ba800a000200000017800110009008280d800d0
:104bb800804078001e009000614098001e00900020
:104bc8008040eb00314098001e0090008040eb00d0
:104bd800414098001e0090006040900045ff07008b
:104be800800078001e00900059ff07001e4fe80063
:104bf8001e407800f34f50007eff36000080fa0018
:104c0800000006000600fa00204798003147980087
:104c1800220798002e4090000080fb006b00b9002e
:104c28000000780064004000f1ec2000614078004a
:104c38000080fb00640060000000e000110032000a
:104c48002e4090000082fb002e4090000080fb0068
:104c58006b00b9000000780064004000f1ec20000f
:104c6800e1407800b0cfb30000c16000f3ec200051
:104c78006b20b9000000780000804100640040000b
:104c8800024878002e4090000082fb002e409000e1
:104c98000080fb006b00b900000078006400400051
:104ca800f1ec2000e14078002e00900000417800ef
:104cb800400020000010dd0000c17000f3ec20006f
:104cc8006b20b900000078000080410064004000bb
:104cd800024878002e4090000080fb006b00b9006d
:104ce800000078000080e800e1ec200061407800d6
:104cf800be40900000cf50002e4090000080fb0086
:104d0800e2ec20006b00b9000000780000004100d0
:104d18000080e800be409000014878002e409000d6
:104d28000081fb006b10b900000078000080e800eb
:104d3800f1ec2000614078008041e800f4ec2000ac
:104d48006b10b90000007800000042000080e80005
:104d5800034878001e4078000004e000110032008b
:104d68002e4090000082fb002e4090000080fb0047
:104d78006b00b9000000780064004000e1ec2000fe
:104d8800614078001e4040000041e900e3ec20004b
:104d98006b20b900000078000080410064004000ea
:104da800024878001e407800ea4f50002100360083
:104db8002e4090000080fb006b00b9008000780056
:104dc800e0ec2000008040009080fb001040900044
:104dd8000080fb004800dd00008070008000780043
:104de8002e409000b7fd07002e4090000080fb0089
:104df800e2ec20006b00b9000000780000004100e0
:104e08000080e800be409000014878002e409000e5
:104e18000080fb00f2ec20006b00b9000000780075
:104e2800000041000080e80011c0b300014878008c
:104e3800220037002e4090000080fb006b00b90074
:104e4800000078000080e800f1ec20006140780064
:104e58000081fb002e4090000080fb006b00b90031
:104e68000000780064004000e1ec20006140780018
:104e78000080fb0000004100e20f500003003c00ee
:104e88001e407800e24f50000c0036002e40900083
:104e98000080fb006b00b90080007800e0ec200087
:104ea800008040009080fb00104090000080fb00d4
:104eb8004800dd0000807000c7fe07000080fa008f
:104ec800000006000a00fa00f00f20001007980002
:104ed8000040eb00504798000000eb00000f7800fe
:104ee800330037001e0078006b00b900000078001e
:104ef80064004000f1ec2000614078000080fb0075
:104f080061006000004078000004e00027003200e3
:104f180068004700020307001e0078006b00b90014
:104f280080007800e0ec2000008040009080fb00ca
:104f3800104090000080fb004800dd0000807000f9
:104f4800ce009000e50207000004e00017003a00d8
:104f58001e0078006b00b900000078006400400073
:104f6800f1ec2000614078000080fb0068006000e0
:104f78000000e0000d003a001e0078006b00b90048
:104f88000000780064004000f1ec200061407800e7
:104f98000080fb00620060000000e00003003a00af
:104fa8005e4090000040e800504798001e0fe8005f
:104fb8001e007800f30f5000caff36005e409000d4
:104fc8000004e0004c003200391c07008000780023
:104fd8005e4090000080fb0000017800110009008d
:104fe8008280d8008000fd00404798000000eb0058
:104ff800000f78003d0037001e0078006b00b900f4
:105008000000780064004000f1ec20006140780066
:105018000080fb00610060000000e0003200340006
:105028001e0078006b00b9000000780064004000a2
:10503800f1ec2000614078000080fb00680060000f
:105048000000e000280034001e0078006b00b90062
:105058000000780064004000f1ec20006140780016
:105068000080fb00620060000000e0001e003400c9
:1050780066004700aa0207001e0078006b00b9000e
:1050880080007800e0ec2000008040009080fb0069
:10509800104090000080fb004800dd000080700098
:1050a800be0090008d0207000004a2000004e0008a
:1050b8000d0032004e4090000080fb000000e90027
:1050c8004f00de0000407800ce4090008140e900ab
:1050d800414798000004e000030032009e00780079
:1050e80011079800040037001e0fe8001e00780022
:1050f800f30f5000c0ff36001e0090000080fa0039
:10510800000006001000fa00500798006107980098
:10511800624f9800734f980010002000000f78002d
:10512800ee009000110798006e489000e94f50007b
:10513800720036001e009000a040900020c2b3000c
:1051480080cf50006d003a001e00900068004000bb
:1051580020079800ce0107000081fb00de009000c8
:105168006800470067ee07002e009000904090000e
:10517800614798004e009000affb07007047980009
:105188007e409000e14f40000b0032001e0090006e
:1051980030409000674060008080fb002e00900047
:1051a8001040780001017800804078007e4090002f
:1051b80094fe07004f00370058fd0700704798001d
:1051c8007e409000e14f400018003200ce00900071
:1051d8007e409000bbfc07007e4090000080fb00f2
:1051e800ae00900011417800e3ec20006b00b9009c
:1051f80000007800008041000080e8000248780044
:105208001e00900030409000674060008080fb00e6
:105218002e0090001040780001017800804078004e
:105228007e40900077fe070032003700ccc8bf00f0
:10523800d3fc0700704798007e409000e14f400083
:10524800100032007e4090000080fb006b00b90027
:1052580080007800e0ec2000008040009080fb0097
:10526800104090000080fb004800dd0000807000c6
:1052780036080700ce0090007e40900091fc0700a1
:105288001c003700cdc8bf00fe48900080cf5000fa
:10529800180039001e009000440907000004e000cf
:1052a8001400320007ff0700704798007e40900006
:1052b800e14f40000f0032007e4090000080fb006c
:1052c8006b00b90080007800e0ec2000008040000e
:1052d8009080fb00104090000080fb004800dd003b
:1052e8000080700019080700ce0090007e409000f2
:1052f80074fc07000000eb00000f78001e00780027
:105308000080fa00000006000400fa001007980068
:1053180010002000000f78001e009000f40f5000cd
:105328000b003e001e0090006b00b90000007800e2
:1053380064004000f1ec2000614078008080fb00b0
:1053480000072000008060004480de00000f780025
:105358001e0078000080fa00000006000400fa0031
:10536800100798001e00900033fb07000080fb0028
:10537800000f7800f00f20009e007800808f50000a
:10538800130032001e0078006b00b900800078001e
:10539800e0ec2000008040009080fb00104090006e
:1053a8000080fb004800dd0000807000e707070070
:1053b8001e007800f2ec20006b00b90000007800b5
:1053c80000004100640040008040eb000148780084
:1053d8000080fa00000006002200fa00889fbe0044
:1053e8008a9fbe00cf130700ce060700d618070015
:1053f8003e0c070070408000e30f50006800320048
:10540800e30f500005003e00e10f5000420032005b
:10541800e10f50004a003e0007003700e50f50003a
:1054280087003200e50f50000c003900e60f5000ed
:10543800d20032000b013700670107000000e000ce
:1054480003003a0040002000704088000501370042
:105458001000200070408800020137005e0107003c
:105468000000e000f20032005b0107000000e000ed
:10547800090032006c004700a90107006e00900087
:10548800880107000004e00003003200100020003b
:1054980070408800f30037000080200060409000d2
:1054a8000004a2000004e000e3003200001b070033
:1054b8000004be006055b800f03f20000100200045
:1054c8006011b80000026400818264000203650074
:1054d80083836500803e2000010020006011b80031
:1054e8000000420081804a0002014b0083814b008a
:1054f80044812000009abe000292be00551c07009d
:10550800c4812000009abe000292be005000200014
:1055180070408800d3003700f90807000000e00059
:10552800c70032004b1c0700c4812000009abe004f
:105538000292be002000200070408800c900370099
:10554800441c07000205be000004be00c081200004
:105558005001be004000be000002540081825c0081
:1055680002035d0083835d00007d200001002000b0
:105578006011b8000020e10001a8e10002b0e100dc
:1055880003b8e10004003600880607003000200058
:1055980070408800b3003700d9080700b100370011
:1055a8006a0047005e0107005e0090003d010700a9
:1055b8000004a2000004e0001b003200251c0700c4
:1055c800c4812000009abe000292be00b81a0700eb
:1055d8000004be006055b800f03f20000100200024
:1055e8006011b80000026400818264000203650053
:1055f80083836500803e2000010020006011b80010
:105608000000420081804a0002014b0083814b0068
:1056180044812000009abe000292be005000200083
:10562800704088008f003700b50807000000e000d0
:1056380085003a001000200070408800890037007b
:1056480068004700360107004e009000150107006a
:105658000004e000030032003000200070408800a1
:1056680080003700fb1b07000205be000004be00d7
:10567800c08120005001be004000be00000254005e
:1056880081825c0002035d0083835d00408120000d
:105698005001be004000be000020e10001a8e1006a
:1056a80002b0e10003b8e100690036007814070091
:1056b8000004a2000004e0006700320010c8bf0028
:1056c8000040e90010e8b70066004700190107002c
:1056d8006e0047000002eb008001eb004202200050
:1056e800800078003e00900005020700000f780057
