:0400000004EF01F018
:100008004182FACF0EF0FBCF0FF0E9CF10F0EACF24
:1000180011F0E1CF12F0E2CF13F0D9CF14F0DACF1C
:1000280015F0F3CF16F0F4CF17F0F6CF18F0F7CF9E
:1000380019F0F8CF1AF0F5CF1BF0F2B8F2A2B8D049
:10004800F292620EC3EC2FF01D6E1DA019D00001B4
:10005800F6910001F6AD02D00001F69D000E0101F7
:100068008A6F000E896F0001F6A30AD0480EC3EC10
:100078002FF01C6E1CA002D00001F6850001F6933B
:100088001DA68FD01F68000E206E010E206401D0BF
:1000980010D020504E0D000EF324D96E020EF4201D
:1000A800DA6EDF50D8A403D020C01FF002D0202A77
:1000B800ECD7020E1F606CD0040E036E730EECECCE
:1000C8002FF01F504E0D000EF324D96E020EF420AF
:1000D800DA6E030E046E000E036EFAEC2DF0020FBA
:1000E800DF6E1F504E0D000EF324D96E020EF42061
:1000F800DA6E4D0EDF6041D00001F68B010E206EE6
:100108001AD01F504E0D000E096E020E0A6EF350E3
:100118000926F4500A2220500924D96E000E0A201C
:10012800DA6E000E2024036E046A030E0422FAEC31
:100138002DF0DF6E202A2050096E0A6A1F504E0DDE
:10014800000EF324D96E020EF420DA6EDF500B6E27
:100158000C6A020E0B26000E0C2209500B5C0C5088
:10016800800A0D6E0A50800A0D58D8B0CAD7010E01
:10017800036E1B0EECEC2FF005D0010E036E1B0E68
:10018800ECEC2FF0000E036E730EECEC2FF009D0A0
:10019800010E036E1B0EECEC2FF00001F697000128
:1001A800F6991DA805D0800E036E590EECEC2FF0C1
:1001B8009EB09DA005D09E902B2A2B50D8B42C2AF7
:1001C800B8EC30F01BC0F5FF1AC0F8FF19C0F7FFF4
:1001D80018C0F6FF17C0F4FF16C0F3FF15C0DAFF0A
:1001E80014C0D9FF13C0E2FF12C0E1FF11C0EAFF3B
:1001F80010C0E9FF0FC0FBFF0EC0FAFF41921100CB
:1002080005EF2AF0C9EC2BF060C0E5F061C0E6F01C
:1002180062C0E7F063C0E8F0C9EC2BF060C0EAF018
:1002280061C0EBF062C0ECF063C0EDF03E50D8B4B2
:1002380042D082C1D6F083C1D7F084C1D8F085C13D
:10024800D9F00001D61FD71FD81FD91FD62B000EF3
:10025800D723D823D9230001EA510001D62500016C
:10026800DA6F0001EB510001D7210001DB6F0001BB
:10027800EC510001D8210001DC6F0001ED510001B3
:10028800D9210001DD6F0001DA05A30E0001DB5959
:10029800E10E0001DC59110E0001DD59D8A04DD046
:1002A80053EC2AF0EAC082F1EBC083F1ECC084F190
:1002B800EDC085F142D07EC1D6F07FC1D7F080C1B4
:1002C800D8F081C1D9F00001D61FD71FD81FD91F78
:1002D800D62B000ED723D823D9230001EA510001D9
:1002E800D6250001DA6F0001EB510001D72100018A
:1002F800DB6F0001EC510001D8210001DC6F000127
:10030800ED510001D9210001DD6F0001DD510BE144
:10031800E10E0001DA5D700E0001DB59720E00017A
:10032800DC59D8A00AD0F8EC2CF0EAC07EF1EBC07A
:100338007FF1ECC080F1EDC081F17EC1D6F07FC1C4
:10034800D7F080C1D8F081C1D9F00001D61FD71FDE
:10035800D81FD91FD62B000ED723D823D9230001A5
:10036800E5510001D6250001DA6F0001E6510001D0
:10037800D7210001DB6F0001E7510001D8210001FE
:10038800DC6F0001E8510001D9210001DD6F000197
:10039800DD510BE1E10E0001DA5D700E0001DB5961
:1003A800720E0001DC59D8A00DD03E50D8B40AD046
:1003B800B0EC1CF0E5C07EF1E6C07FF1E7C080F14B
:1003C800E8C081F10001F7A352D0C9EC2BF060C05E
:1003D800DEF061C0DFF062C0E0F063C0E1F072C13E
:1003E800D6F073C1D7F074C1D8F075C1D9F0000147
:1003F800D61FD71FD81FD91FD62B000ED723D82317
:10040800D9230001DE510001D6250001DA6F000171
:10041800DF510001D7210001DB6F0001E05100012D
:10042800D8210001DC6F0001E1510001D921000150
:10043800DD6F0001DD510BE1210E0001DA5DA10E37
:100448000001DB59070E0001DC59D8A010D00001CB
:10045800F793000E0001626F030E0001636F040E34
:100468000001646F8C0E0001656FF0EC26F000014E
:10047800F7B7120095EC0BF00009D8B41200000E83
:100488000001E26F000E0101646F2DA404D0000189
:10049800D66BD62B02D00001D66B01016451000146
:1004A800D619FC0BD6190101646F2DA603D00101E2
:1004B800648702D0010164972D50030BE806D8A485
:1004C80004D00001D66BD62B02D00001D66B0001F8
:1004D800D63BD647010164510001D619DF0BD61966
:1004E8000101646F2DAE03D00101648D02D00101BA
:1004F800649D2DAE04D02EC067F12FC068F136C0C0
:1005080065F137C066F132C06BF130C069F131C0B6
:100518006AF134C06DF133C06CF1010164BBAED334
:10052800D0D33E50D8B413D1000E0001F06F0101B2
:1005380020EE01F06951D9266A51DA220001FB51F7
:10054800DE18D8B403D011EC30F0BDD3030E00018F
:10055800FD19D8A403D011EC30F0B5D301016529F9
:1005680004E101016629D8B411D00001F951010153
:10057800651906E10001FA5101016619D8B406D0DF
:10058800020E01016B6502D0F20E02D093EC1FF04F
:100598000001F06F010120EE03F06951D9266A517C
:1005A800DA22AA0EDE18D8A42ED0000E0001EE6FB3
:1005B800090E0001EE6501D026D067C160F068C160
:1005C80061F00001EE510E0D040EF326000EF42228
:1005D800000EF3240001626F030EF4200001636F24
:1005E800D1EC2DF00009D8B40BD00001EE51010D6B
:1005F8005A0EF324D96E010EF420DA6EFF0EDF6E68
:100608000001EE2BD5D70001FD05D8A40CD00001C0
:10061800F005D8B408D0020E0001F019D8B403D000
:10062800F30E0001F06F000E0001F86F0001F851A1
:10063800010D940EF324D96E010EF420DA6E910E9A
:10064800DF6E0001F82B0001F851010D940EF32420
:10065800D96E010EF420DA6EF0C0DFFF0001F82B2E
:100668000001F851010D940EF324D96E010EF42007
:10067800DA6E8DC1DFFF0001F82B0001F051000197
:10068800D8B404D00001F005D8A42ED00001F85148
:10069800010D940EF324D96E010EF420DA6E24C0F5
:1006A800DFFF0001F82B000E0001F16F0001F1518E
:1006B8000001D8A419D00001F151010D3F0EF32417
:1006C800D96E000EF420DA6E0001F851010D940E77
:1006D800F324E16E010EF420E26EDFCFE7FF0001A4
:1006E800F82B0001F12BE2D711EC30F065C1B9F01D
:1006F80066C1BAF067C1BBF068C1BCF0010E000169
:10070800BD6F0101000E64B7010E0001BE6F000E3F
:100718004EEC23F0B0EC1CF00001F0510001D8A41D
:10072800D2D222500E0D000EF3240001626F030E88
:10073800F4200001636F22500E0DF350040F0001E6
:10074800646F0E0E0001656FF0EC26F0BCD211EC60
:1007580030F0B9D2020E0001FD6503D011EC30F083
:10076800B2D2010120EE01F06951D9266A51DA228C
:100778000001FB51DE18D8B403D011EC30F0A3D23D
:10078800000E0001F86F0001F851010D940EF324DA
:10079800D96E010EF420DA6E970EDF6E0001F82B89
:1007A8000001F851010D940EF324D96E010EF420C6
:1007B800DA6E24C0DFFF0001F82B000E0001F16F94
:1007C8000001F1510001D8A419D00001F151010D27
:1007D8003F0EF324D96E000EF420DA6E0001F851B2
:1007E800010D940EF324E16E010EF420E26EDFCFCA
:1007F800E7FF0001F82B0001F12BE2D711EC30F0F4
:1008080065C1B9F066C1BAF067C1BBF068C1BCF098
:10081800010E0001BD6F0101000E64B7010E000159
:10082800BE6F000E4EEC23F04ED2000E0001F86FA2
:100838000001F851010D940EF324D96E010EF42035
:10084800DA6E920EDF6E0001F82B000E0001F16FD8
:10085800090E0001F16501D05FD00001F1510E0DC4
:100868000C0EF326000EF422000EF324D96E030EAC
:10087800F420DA6E0301DFAE4CD067C160F068C1C6
:1008880061F00001F1510E0D040EF326000EF42262
:10089800000EF3240001626F030EF4200001636F61
:1008A800D1EC2DF00009D8B434D00001F1510E0D6F
:1008B8000C0EF326000EF422000EF324D96E030E5C
:1008C800F420DA6E000EDF6E0001F1510E0D000EFD
:1008D800F3240001626F030EF4200001636F00012E
:1008E800F1510E0DF350040F0001646F0E0E00015C
:1008F800656FF0EC26F00001F851010D940EF32419
:10090800D96E010EF420DA6E000EDF6E0001F82BAE
:1009180003D00001F12B9CD711EC30F00A0E000136
:10092800F119D8A40DD00001F851010D940EF3244B
:10093800D96E010EF420DA6EF00EDF6E0001F82B8E
:1009480065C1B9F066C1BAF067C1BBF068C1BCF057
:10095800010E0001BD6F0101000E64B7010E000118
:10096800BE6F000E4EEC23F0AED10001F92927E14D
:100978000001FA29D8A423D065C1F9F066C1FAF0BC
:100988000001E369E469E30E0001656F000E0001F0
:10099800666FF90E0001676F000E0001686F00ECCA
:1009A8002CF0F90E0001626F000E0001636F000E5B
:1009B8000001646F020E0001656FF0EC26F093EC05
:1009C8001FF0010120EE02F06951D9266A51DA229E
:1009D800DF503D6E3D0E0001626F000E0001636F37
:1009E800BB0E0001646F010E0001656FF0EC26F08C
:1009F8000001F783C9EC2BF060C072F161C073F19C
:100A080062C074F163C075F10ED0010120EE01F0EF
:100A18006951D9266A51DA22DF50000AD8B4A5D71D
:100A2800010AD8B4A2D711EC30F04DD10001F7ABD0
:100A380002D00001F79B11EC30F045D1010120EE06
:100A480001F06951D9266A51DA22DF50D8A45AD068
:100A5800000E0001F16F090E0001F16501D052D0BE
:100A68000001F1510E0D0C0EF326000EF422000EBB
:100A7800F324D96E030EF420DA6E0301DFAE3FD003
:100A880067C160F068C161F00001F1510E0D040EFC
:100A9800F326000EF422000EF3240001626F030E09
:100AA800F4200001636FD1EC2DF00009D8B427D0F1
:100AB8000001F1510E0D0C0EF326000EF422000E6B
:100AC800F324D96E030EF420DA6E000EDF6E0001F7
:100AD800F1510E0D000EF3240001626F030EF42095
:100AE8000001636F0001F1510E0DF350040F000176
:100AF800646F0E0E0001656FF0EC26F003D0000164
:100B0800F12BA9D711EC30F0DED03E50D8A405D097
:100B1800010E2A6E11EC30F0D6D011EC30F0D3D0A3
:100B28003E50D8A416D0010120EE01F06951D92613
:100B38006A51DA22DF500001D66F0001D605286E0F
:100B480069C167F06AC168F09FEC22F011EC30F0DF
:100B5800BAD011EC30F0B7D03E50D8B428D069C123
:100B680060F06AC161F083EC26F00001E96F0001D2
:100B7800E929D8B40ED069C1CFF06AC1D0F0E9C074
:100B8800D1F067C1D2F068C1D3F056EC24F000016F
:100B9800E26F0001E2510001D8B406D067C1C9F084
:100BA80068C1CAF0B5EC2EF011EC30F08CD011EC25
:100BB80030F089D03E50D8B45ED0000E0001EF6FFF
:100BC800090E0001EF6501D053D067C1D9FF68C194
:100BD800DAFF0001EF510E0D040EF326000EF42289
:100BE800000EF324E16E030EF420E26EDE50E618E8
:100BF800D8A43BD0010120EE01F06751D9266851F5
:100C0800DA220001EF510E0D050EF326000EF42234
:100C1800000EF324E16E030EF420E26EDE50E618B7
:100C2800D8A423D0010120EE02F06751D9266851DB
:100C3800DA220001EF510E0D060EF326000EF42203
:100C4800000EF324E16E030EF420E26EDE50E61887
:100C5800D8A40BD00001EF51010D500EF324D96E2A
:100C6800010EF420DA6EDF2A03D00001EF2BA8D79B
:100C780011EC30F028D011EC30F025D069C1D9FF43
:100C88006AC1DAFFDF50770AD8B44AD70D0AD8B458
:100C980091D7FB0AD8B445D4030AD8B4C6D5050AF7
:100CA800D8B458D5160AD8B4B0D6030AD8B4C6D61C
:100CB800050AD8B4BBD65B0AD8B44ED7160AD8B43E
:100CC80024D70001F78701016B51D8B406D0000181
:100CD800F7B903D00001F7AB12000001F79711EC48
:100CE80030F01200700E0001876F000E0001886F4F
:100CF8007FEF0BF0250E00018E19D8B40BD06CC015
:100D0800D9FF6DC0DAFF8EC0DFFF00016C4B6D2B81
:100D18007FEF0BF0000E00018D6F000E8C6F000E40
:100D28000001906F000E8F6F0ED000018F8708D0E2
:100D380000018F8105D00001908702D000018F85C6
:100D480000016E4B6F2B6EC0F6FF6FC0F7FF0800F7
:100D5800F550200AD8B4ECD7030AD8B4ECD70E0A59
:100D6800D8B4E3D71D0AD8B4E9D700018FA702D0B9
:100D780000018F956EC0F6FF6FC0F7FF0800F550B1
:100D8800AEEC2FF0D8A041D0000E00018D6F000E00
:100D98008C6F8CC066F08DC067F0000E0001696F23
:100DA8000A0E686F4BEC2FF066C08CF067C08DF0B0
:100DB800D00E0001786FFF0E0001796F6EC0F6FF4C
:100DC8006FC0F7FF0800F55000017A6F7B6B0001D8
:100DD800785100017A270001795100017B23000135
:100DE8007A5100018C2700017B5100018D230001FD
:100DF8006E4B6F2B6EC0F6FF6FC0F7FF0800F55003
:100E0800AEEC2FF0D8A01AD0C4D76EC0F6FF6FC0D2
:100E1800F7FF0800F5502A0AD8A410D087C0D9FFD8
:100E280088C0DAFFDECF8CF0DDCF8DF0020E000136
:100E38008727000E882300016E4B6F2B6EC0F6FFCC
:100E48006FC0F7FF0800F5502E0AD8A440D0000163
:100E5800908D00016E4B6F2B6EC0F6FF6FC0F7FFD1
:100E68000800F5502A0AD8A410D087C0D9FF88C036
:100E7800DAFFDF5000018B6F020E00018727000E9A
:100E8800882300016E4B6F2BCBD0000E00018B6FB7
:100E980013D06EC0F6FF6FC0F7FF0800F5CF78F0EB
:100EA80000018B510A0DF35000017825D00F000185
:100EB8008B6F00016E4B6F2B6EC0F6FF6FC0F7FF94
:100EC8000800F550AEEC2FF0D8A0AAD0E2D7000E5B
:100ED80000018B6FA5D000018F8DC7D000018F8BCB
:100EE80000018F8FC2D000018B510001D8B417D0F8
:100EF8008BC078F00001796B78BF790700018551C4
:100F08000001785D0001865100017959D8B007D0F9
:100F180000018B510001856F866B85BF8607000134
:100F28008C510001855D00018D5100018659D8B0B2
:100F380009D00001855100018C5F00018651000134
:100F48008D5B05D0000E00018D6F000E8C6F0001C7
:100F58008FA70AD025D06CC0D9FF6DC0DAFF200E4C
:100F6800DF6E00016C4B6D2B00018C07D8A08D073C
:100F780000018C29F0E100018D29D8B411D0EBD7FC
:100F88007DC0D9FF7EC0DAFF6CC0E1FF6DC0E2FF13
:100F9800DFCFE7FF00017D4B7E2B00016C4B6D2BF3
:100FA80000018507D8A0860700018529E9E100012D
:100FB8008629D8A4E5D700018FB70AD09CD36CC086
:100FC800D9FF6DC0DAFF200EDF6E00016C4B6D2B70
:100FD80000018C07D8A08D0700018C29F0E10001E1
:100FE8008D29D8B488D3EBD787C0D9FF88C0DAFF5A
:100FF800DF5000018E6F020E00018727000E882344
:101008008E0E00017D6F000E00017E6F000E000144
:10101800866F010E856F67D7C00E00018F1325D02C
:101028006EC0F6FF6FC0F7FF00016E4B6F2B080014
:10103800F5CF8EF000018E51000AD8B46BD3580A50
:10104800D8B44CD73B0AD8B4CFD7070AD8B40DD0F8
:101058000D0AD8B40AD0060AD8B43DD71A0AD8B4AB
:10106800DBD70D0AD8B43CD7CBD7C00E00018F15FB
:101078000001786F000E000190150001796F0001E2
:10108800785100017911D8A419D087C0D9FF88C038
:10109800DAFFDECF89F0DDCF8AF0020E0001872764
:1010A800000E882300018AAF16D0030E00018F13AB
:1010B8000001896D8A1FD8B08A2B0DD087C0D9FF4F
:1010C80088C0DAFFDECF89F0DDCF8AF0020E00019A
:1010D8008727000E882300018B510001D8A463D014
:1010E8000001895100018A11D8A45DD000018B2B21
:1010F8005AD0010E00018E6F050E00018E19D8B46A
:1011080061D000018E51020D690EF324F66EFD0EBA
:10111800F420F76E0900F5500001895D0900F550CB
:1011280000018A59D8A04ED000018E2BE5D7010EB8
:1011380000018E6F040E00018E19D8B443D000014F
:101148008E51020D730EF324F66EFD0EF420F76E29
:101158000900F5500001895D0900F55000018A5920
:10116800D8A030D000018E2BE5D7010E00018E6F7C
:10117800060E00018E19D8B425D000018E51020D3B
:101188005D0EF324F66EFD0EF420F76E0900F5509F
:101198000001895D0900F55000018A59D8A012D0D4
:1011A80000018E2BE5D700018F51C00B000AD8B47F
:1011B800A0D7400AD8B4D9D7C00AD8B4B8D7400AFB
:1011C800D8B497D700018E51800A0001786F0001CA
:1011D8008B51800A0001785DD8B003D08BC08EF0A7
:1011E8000DD000018B51800A0001786F00018E51EB
:1011F800800A0001785DD8A08EC08BF000018C5168
:1012080000018D11D8B414D0030E00018F15000110
:10121800786F000E000190150001796F0001785178
:1012280000017911D8B404D000018C07D8A08D072B
:10123800000190AD21D0800E00018BBF7F0E000110
:10124800786F00018C5100018B5D00018D51800A7F
:1012580000017859D8B00BD000018B5100018C5F88
:10126800000E00018BBFFF0E00018D5B05D0000E44
:1012780000018D6F000E8C6FC40E0001786F080E90
:101288000001796F8FC07AF090C07BF0000178512F
:1012980000017A170001795100017B17400E000107
:1012A8007A1910E1080E00017B19D8A40BD00001AF
:1012B8008C5100018D11D8B436D000018C07D8A00C
:1012C8008D0731D0C00E0001786F080E0001796FCC
:1012D8008FC07AF090C07BF00001785100017A1736
:1012E8000001795100017B17800E00017A191BE17A
:1012F800080E00017B19D8A416D000018DBF0ED0AE
:1013080000018D5105E1030E00018C5DD8A006D0C7
:101318000001FE0E8C27FF0E8D2305D0000E000164
:101328008D6F000E8C6F800E00018EBF7F0E000146
:10133800786F00018C5100018E5D00018D51800A8B
:1013480000017859D8B00BD000018E5100018C5F94
:10135800000E00018EBFFF0E00018D5B05D0000E50
:1013680000018D6F000E8C6F00018FA570D0030EE9
:1013780000018F150001786F000E00019015000123
:10138800796F0001785100017911D8B40AD06CC086
:10139800D9FF6DC0DAFF2D0E0CD000016C4B6D2B00
:1013A80042D000018FA107D06CC0D9FF6DC0DAFF11
:1013B800200EDF6EF2D7C00E0001786F080E000114
:1013C800796F8FC07AF090C07BF0000178510001EE
:1013D8007A170001795100017B17800E00017A19F4
:1013E80022E1080E00017B19D8A41DD06CC0D9FFDA
:1013F8006DC0DAFF300EDF6E00016C4B6D2B000103
:101408008FBB05D0000E0001806F780E04D0000E4F
:101418000001806F580E7F6F6CC0D9FF6DC0DAFF76
:101428007FC0DFFFBAD700018C5100018D11D8B4FD
:101438003CD16CC0D9FF6DC0DAFF300EDF6E000101
:101448006C4B6D2B00018C07D8A08D07ECD70001E1
:101458008C5100018D11D8B416D000018FB713D06C
:101468006CC0D9FF6DC0DAFF200EDF6E00016C4B37
:101478006D2B00018C07D8A08D0700018C5100014D
:101488008D11D8A4EDD7030E00018F150001786FD8
:10149800000E000190150001796F000178510001DC
:1014A8007911D8B40AD06CC0D9FF6DC0DAFF2D0EFF
:1014B8000CD000016C4B6D2B0AD000018FA107D016
:1014C8006CC0D9FF6DC0DAFF200EDF6EF2D7C00EF8
:1014D8000001786F080E0001796F8FC07AF090C014
:1014E8007BF00001785100017A1700017951000161
:1014F8007B17400E00017A190CE1080E00017B19D8
:10150800D8A407D06CC0D9FF6DC0DAFF300EDF6EEB
:10151800C9D0C00E0001786F080E0001796F8FC026
:101528007AF090C07BF00001785100017A17000131
:10153800795100017B17800E00017A1904E1080E29
:1015480000017B19D8A4B1D06CC0D9FF6DC0DAFFF7
:10155800300EDF6E00016C4B6D2B00018FBB05D088
:10156800000E0001826F780E04D0000E0001826F19
:10157800580E816F6CC0D9FF6DC0DAFF81C0DFFFE4
:1015880091D000018B51020D690EF324F66EFD0E09
:10159800F420F76E0900F5CF62F00A00F5CF63F08A
:1015A80089C060F08AC061F01AEC2BF060C067F067
:1015B80061C068F0000E00016A6F0A0E696FC7EC1F
:1015C8002CF00001675155D089C060F08AC061F0E5
:1015D80000018B51020D730EF324F66EFD0EF420FC
:1015E800F76E0900F5CF62F00A00F5CF63F01AEC48
:1015F8002BF0000160510F0B00017C6F00018FBBC5
:1016080005D05B0E0001836FFF0E04D04A0E000167
:10161800836FFF0E0001846F00017C51010D83C0B0
:1016280078F084C079F0F35000017827F450000175
:10163800792378C0F6FF79C0F7FF0800F5CF8EF060
:101648002BD089C060F08AC061F000018B51020D77
:101658005D0EF324F66EFD0EF420F76E0900F5CF4B
:1016680062F00A00F5CF63F01AEC2BF0000160512C
:10167800070B300F00018E6F0FD000018F51C00B88
:10168800000AD8B47ED7400AD8B4DBD7C00AD8B489
:101698009BD7400AD8B475D76CC0D9FF6DC0DAFFA4
:1016A8008EC0DFFF00016C4B6D2B00018B07000122
:1016B8008B29D8A4E2D700018FA71DD000018DBFC8
:1016C8001AD000018D5104E100018C05D8A013D077
:1016D8006CC0D9FF6DC0DAFF200EDF6E00016C4BC5
:1016E8006D2B00018C07D8A08D0700018C510001DB
:1016F8008D11D8A4EDD76EC0F6FF6FC0F7FF0001BB
:101708006E4B6F2B0800F5CF8EF000018E51D8A4D8
:101718007EEF06F06CC0D9FF6DC0DAFF000EDF6EF9
:10172800120081A0F2820001F6A113D001018A51B2
:1017380005E1800E0101895DD8A008D0000E0101E5
:101748008A6F000E896F0001F69103D00101894B61
:101758008A2B0001FC69000E0001A96F010E00012F
:10176800A96501D012D00001A9514E0D000EF32435
:10177800D96E020EF420DA6EDF50D8B403D0A9C0B7
:10178800FCF003D00001A92BE9D7020E0001FC618F
:10179800FFEF0FF0010E0001A46F0001FC514E0D88
:1017A800010EF326000EF422000EF324D96E020E69
:1017B800F420DA6E0201DFBC03D0000E0001A46F32
:1017C800000E2D6E000E356E0001FC514E0D020EFE
:1017D800F326000EF422000EF324D96E020EF42034
:1017E800DA6EDF50CC0B0001A36F85D20001FC51EB
:1017F8004E0D060EF326000EF422000EF324D96EC9
:10180800020EF420DA6EDE28D8A410D00001FC51B4
:101818004E0D070EF326000EF422000EF324D96EA7
:10182800020EF420DA6EDE28D8B42D842D8E000145
:10183800A4510001D8B42CD00001FC514E0D040E67
:10184800F326000EF422000EF324D96E020EF420C3
:10185800DA6EDF50366E0001FC514E0D050EF32690
:10186800000EF422000EF324D96E020EF420DA6E74
:10187800DF50376E0001FC514E0D080EF326000EA6
:10188800F422000EF3242E6E020EF4202F6EB8D12F
:101898000001FC514E0D080EF326000EF422000E36
:1018A800F324D96E020EF420DA6EDF50366E000192
:1018B800FC514E0D090EF326000EF422000EF324FF
:1018C800D96E020EF420DA6EDF50376E0001FC513B
:1018D8004E0D0A0EC8D10001FC514E0D000EF32426
:1018E800D96E020EF420DA6EDF50EB0F326E000173
:1018F800FC514E0D120EF1D12D8E0001A4510001A4
:10190800D8B43CD00001FC514E0D040EF326000E55
:10191800F422000EF324D96E020EF420DA6EDF50A2
:10192800366E0001FC514E0D050EF326000EF42212
:10193800000EF324D96E020EF420DA6EDF50376EF3
:101948000001FC514E0D0E0EF326000EF422000E7F
:10195800F3242E6E020EF4202F6E0001FC514E0D62
:10196800000EF324D96E020EF420DA6EDF50E70F72
:10197800326E0001FC514E0D160EAFD10001FC5124
:101988004E0D0E0EF326000EF422000EF324D96E2F
:10199800020EF420DA6EDF50366E0001FC514E0D57
:1019A8000F0EF326000EF422000EF324D96E020E59
:1019B800F420DA6EDF50376E0001FC514E0D100E28
:1019C800F326000EF422000EF3242E6E020EF420ED
:1019D8002F6E0001FC514E0D000EF324D96E020E3D
:1019E800F420DA6EDF50E50F326E0001FC514E0D27
:1019F800180E73D12D842D8E010E356E0001FC5109
:101A08004E0D040EF326000EF422000EF324D96EB8
:101A1800020EF420DA6EDF50366E0001FC514E0DD6
:101A2800050EF326000EF422000EF324D96E020EE2
:101A3800F420DA6EDF50376E0001FC514E0D060EB1
:101A4800F326000EF422000EF3242E6E020EF4206C
:101A58002F6E0001FC514E0D000EF324D96E020EBC
:101A6800F420DA6EDF50F50F33D10001FC514E0D32
:101A7800060EF326000EF422000EF324D96E020E91
:101A8800F420DA6EDE28D8A410D00001FC514E0DE7
:101A9800070EF326000EF422000EF324D96E020E70
:101AA800F420DA6EDE28D8B42D842D8E010E356E22
:101AB8000001A4510001D8A43CD00001FC514E0DF6
:101AC800080EF326000EF422000EF324D96E020E3F
:101AD800F420DA6EDF50366E0001FC514E0D090E0F
:101AE800F326000EF422000EF324D96E020EF42021
:101AF800DA6EDF50376E0001FC514E0D0A0EF326E8
:101B0800000EF422000EF3242E6E020EF4202F6E27
:101B18000001FC514E0D000EF324D96E020EF42084
:101B2800DA6EDF50F10F326E0001FC514E0D0C0ED3
:101B3800D4D00001FC514E0D040EF326000EF42201
:101B4800000EF324D96E020EF420DA6EDF50366EE2
:101B58000001FC514E0D050EF326000EF422000E76
:101B6800F324D96E020EF420DA6EDF50376E0001CE
:101B7800FC514E0D080EF326000EF422000EF3243D
:101B88002E6E020EF4202F6E0001FC514E0D000E39
:101B9800F324D96E020EF420DA6EDF50F30F326EA2
:101BA8000001FC514E0D0A0E98D02D8E010E356E97
:101BB8000001A4510001D8B434D00001FC514E0DED
:101BC800040EF326000EF422000EF324D96E020E42
:101BD800F420DA6EDF50366E0001FC514E0D050E12
:101BE800F326000EF422000EF324D96E020EF42020
:101BF800DA6EDF50376E0001FC514E0D0D0E3ED6E9
:101C08000001FC514E0D000EF324D96E020EF42093
:101C1800DA6EDF50ED0F326E0001FC514E0D100EE2
:101C28005CD00001FC514E0D0D0EF326000EF4227F
:101C3800000EF324D96E020EF420DA6EDF50366EF1
:101C48000001FC514E0D0E0EF326000EF422000E7C
:101C5800F324D96E020EF420DA6EDF50376E0001DD
:101C6800FC514E0D0F0EF326000EF422000EF32445
:101C78002E6E020EF4202F6E2ED60001FC514E0D52
:101C8800060EF326000EF422000EF324D96E020E7F
:101C9800F420DA6EDE28D8A410D00001FC514E0DD5
:101CA800070EF326000EF422000EF324D96E020E5E
:101CB800F420DA6EDE28D8B42D840001FC514E0DD4
:101CC800000EF324D96E020EF420DA6EDF50F60F00
:101CD800326E0001FC514E0D080EF326000EF42260
:101CE800000EF324306E020EF420316E19D011EC80
:101CF80030F0000E12000001A351080AD8B4BDD775
:101D0800880AD8B477D6080AD8B4AFD6040AD8B4A3
:101D18004CD7440AD8B46AD5040AD8B4EDD5E7D765
:101D28000001FC514E0D010EF326000EF422000EA8
:101D3800F324D96E020EF420DA6E0201DFA6D9D0A0
:101D4800C00E0001A36104D011EC30F0000E1200A7
:101D580030C0D9FF31C0DAFFDF500001A56F20EE97
:101D680001F03050D9263150DA22DF500001A66F39
:101D780020EE02F03050D9263150DA22DF5000012F
:101D8800A76F20EE03F03050D9263150DA22DF5009
:101D98000001A86F000E0001A96F090E0001A965D6
:101DA80001D02BD00001A9510E0D0C0EF326000E08
:101DB800F422000EF324D96E030EF420DA6E030128
:101DC800DFAE18D00001A9510E0D040EF326000E47
:101DD800F422000EF3240001606F030EF4200001CA
:101DE800616F2EC062F02FC063F0D1EC2DF00009B6
:101DF800D8A403D00001A92BD0D70A0E0001A961ED
:101E08002CD00001A951040D280EF324D96E010E1F
:101E1800F420DA6EDE500001A55DDE500001A659FF
:101E2800DE500001A759DE500001A859D8B004D0EF
:101E380011EC30F0000E12000001A951040D280E1B
:101E4800F324D96E010EF420DA6EA5C0DEFFA6C019
:101E5800DEFFA7C0DEFFA8C0DEFF050E325E050E5E
:101E6800302400017E6F000E312000017F6F320E9A
:101E78000001806F000E0001816F2EC082F02FC01C
:101E880083F0A5C084F0A6C085F0A7C086F0A8C0DE
:101E980087F00001FC514E0D010EF326000EF422CE
:101EA800000EF324D96E020EF420DA6EDF50000122
:101EB800886F96EC16F00009D8A404D011EC30F025
:101EC800000E1200050E3024306E000E3120316EE7
:101ED8002D860FD0FC0E2D162FD02D50FC0B01098E
:101EE8002D6E2AD0030E2D1227D011EC30F0000EE3
:101EF80012000001FC514E0D010EF326000EF422D3
:101F0800000EF324D96E020EF420DA6EDF50070BB0
:101F180000019D6F9E6B00019E51000AD8A4E5D771
:101F280000019D51000AD8B4DDD7010AD8B4D2D730
:101F3800020AD8B4D2D7D9D7FF0E00019D6FFF0E81
:101F480000019E6F0001FC514E0D000EF324D96E66
:101F5800020EF420DA6EDF5000019F6FA06B0001C3
:101F68009D5100019F2700019E510001A023000EF2
:101F78000001A16F020E0001A26F00019F51000134
:101F8800A1270001A0510001A2230001FC514E0D20
:101F9800F3500001A125D96EF4500001A221DA6E98
:101FA800DF50346E0001FC514E0D000EF324D96E43
:101FB800020EF420DA6EDF5000019D6F0001FC5123
:101FC8004E0D000E00019E6F020E00019F6FF35030
:101FD80000019E27F45000019F2300019D5100013C
:101FE8009E25D96E0001000E00019F21DA6EDF5098
:101FF800336E010E1200000E1200C9EC2BF060C007
:1020080076F161C077F162C078F163C079F1010EB1
:102018000101916FA2D365EC2CF00009D8A425D357
:10202800A5EC25F00101FC6F0101FC05D8B405D031
:10203800020E0101FC19D8A418D33E50D8B454D0CC
:10204800000E0001F86F000E296E140E296401D0ED
:1020580040D0000E0001636F060E626F27C060F06B
:102068000001616BB4EC29F060C066F061C067F0F4
:10207800000E0001696F150E686F4BEC2FF08D0E86
:102088000201B06FFC0E0201B16F0001665102013E
:10209800B027000167510201B1232950010DF35007
:1020A8000201B027F4500201B123B0C2F6FFB1C259
:1020B800F7FF0001F851010D940EF324D96E010EBB
:1020C800F420DA6E0800F5CFDFFF0001F82B292A8B
:1020D800BCD7272A010E99EC2FF025C093F0262AA9
:1020E800265086EC30F0C1D2000E0101FE6F010EC1
:1020F8000101906F010E0101FB6FB3D2F7EC2EF0D6
:102108000101FE513D18D8A45FD0BC0E00016C6FD0
:10211800010E00016D6FB70E00016E6FFE0E00011B
:102128006F6F0101FE51040D030EF326000EF42219
:10213800000EF324D96E010EF420DA6EDF5002018E
:10214800B06F0201B0510001706F716B0101FE5157
:10215800040D000EF324D96E010EF420DA6EDF5060
:102168000201B16F0201B1510001726F736B01017D
:10217800FE51040D010EF326000EF422000EF32486
:10218800D96E010EF420DA6EDF500201B26F02013F
:10219800B2510001746F756B0101FE51040D020EFE
:1021A800F326000EF422000EF324D96E010EF4205B
:1021B800DA6EDF500201B36F0201B3510001766F8E
:1021C800776B76EC06F05ED0BC0E00016C6F010EEA
:1021D80000016D6FD00E00016E6FFE0E00016F6F73
:1021E8000101FE51040D030EF326000EF422000E29
:1021F800F324D96E010EF420DA6EDF500201B06FBD
:102208000201B0510001706F716B0101FE51040DA4
:10221800000EF324D96E010EF420DA6EDF500201AD
:10222800B16F0201B1510001726F736B0101FE5170
:10223800040D010EF326000EF422000EF324D96ECD
:10224800010EF420DA6EDF500201B26F0201B251C2
:102258000001746F756B0101FE51040D020EF32627
:10226800000EF422000EF324D96E010EF420DA6E6B
:10227800DF500201B36F0201B3510001766F776B33
:1022880076EC06F0BC0E00016C6F010E00016D6F5C
:10229800D00E00016E6FFE0E00016F6F0101FE513E
:1022A800040D030EF326000EF422000EF324D96E5B
:1022B800010EF420DA6EDF500201B06F0201B05156
:1022C8000001706F716B0101FE51040D000EF324C3
:1022D800D96E010EF420DA6EDF500201B16F0201EF
:1022E800B1510001726F736B0101FE51040D010EB3
:1022F800F326000EF422000EF324D96E010EF4200A
:10230800DA6EDF500201B26F0201B2510001746F40
:10231800756B0101FE51040D020EF326000EF42226
:10232800000EF324D96E010EF420DA6EDF5002019C
:10233800B36F0201B3510001766F776B76EC06F04C
:10234800CC0E00016C6F010E00016D6F6C0E000168
:102358006E6FFF0E00016F6F76EC06F00EEC29F041
:10236800010E78D1A5EC25F00101FD6F65EC2CF08C
:102378000101FD05D8A43BD1000E0101FB6F000E41
:102388000101906F01018F2B0101FE513D18D8A466
:1023980052D0000E0001F86F000E296E140E296449
:1023A80001D040D0000E0001636F060E626F27C097
:1023B80060F00001616BB4EC29F060C066F061C0A8
:1023C80067F0000E0001696F150E686F4BEC2FF077
:1023D8008D0E0201B06FFC0E0201B16F0001665153
:1023E8000201B027000167510201B1232950010DF4
:1023F800F3500201B027F4500201B123B0C2F6FF36
:10240800B1C2F7FF0001F851010D940EF324D96E03
:10241800010EF420DA6E0800F5CFDFFF0001F82B7B
:10242800292ABCD7010E0001CD6F000E51EC2DF00A
:102438000101F96FBCD0000E0001F86F0001F851DE
:10244800010D940EF324D96E010EF420DA6ECC0E31
:10245800DF6E0001F82B0101FE51040D000EF3247C
:10246800D96E010EF420DA6E0001F851010D940EB8
:10247800F324E16E010EF420E26EDFCFE7FF0001E6
:10248800F82B0101FE51040D010EF326000EF42273
:10249800000EF324D96E010EF420DA6E0001F85113
:1024A800010D940EF324E16E010EF420E26EDFCFED
:1024B800E7FF0001F82B0101FE51040D020EF3267F
:1024C800000EF422000EF324D96E010EF420DA6E09
:1024D8000001F851010D940EF324E16E010EF42071
:1024E800E26EDFCFE7FF0001F82B040E296E180E0D
:1024F800296401D052D0000E0001636F060E626F8E
:1025080027C060F00001616BB4EC29F060C066F090
:1025180061C067F0000E0001696F150E686F4BEC23
:102528002FF0FC0E0201B06FFF0E0201B16F2950AF
:102538000201B26FB36B0201B0510201B22702016E
:10254800B1510201B3238D0E0201B46FFC0E0201DA
:10255800B56F0201B2510201B4270201B351020161
:10256800B523000166510201B42700016751020139
:10257800B523B4C2F6FFB5C2F7FF0001F851010D4B
:10258800940EF324D96E010EF420DA6E0800F5CF0C
:10259800DFFF0001F82B292AAAD7010E36EC25F017
:1025A8000101FA6F0101FA510101D8B402D0262ABB
:1025B8000ED0110E0001916FFF0E0001926F000EF8
:1025C8000001936F000E0001946F7CEC2DF025C084
:1025D80093F0265086EC30F0050E00016D6FDC0E8E
:1025E8006C6FB9EC28F03E504AEC2EF035D0020E54
:1025F8000101FD19D8A430D00101FE510201B06FCC
:10260800B16BFF0E0201B26FFF0E0201B36F2850CB
:102618000201B46FB56B0201B2510201B427020185
:10262800B3510201B5230201B0510201B45D0201A8
:10263800B551800A0201B66F0201B151800A020148
:10264800B659D8B002D0000E02D00101FE2901010E
:10265800FE6F000E0101906F010190510101D8A495
:1026680081D60101FB05D8B449D501019351D8B4ED
:102678000CD03E50D8A409D0000E0001F26FFF0E16
:10268800B0EC20F0000E0101936FC9EC2BF060C094
:102698007AF161C07BF162C07CF163C07DF176C1E3
:1026A800B0F277C1B1F278C1B2F279C1B3F20201E6
:1026B800B01FB11FB21FB31FB02B000EB123B2233E
:1026C800B32301017A510201B0250201B46F01015F
:1026D8007B510201B1210201B56F01017C51020158
:1026E800B2210201B66F01017D510201B32102013D
:1026F800B76F0201B7510BE1E10E0201B45D700E34
:102708000201B559720E0201B659D8A026D03E5022
:10271800D8B423D0F7EC2EF0BC0E00016C6F010E7C
:1027280000016D6F380E00016E6FFF0E00016F6FB4
:102738003CC070F00001716B76EC06F00EEC29F0ED
:10274800070E00016D6FD00E6C6FB9EC28F0000E0B
:102758000101916F010E4AEC2EF001019151010126
:10276800D8B4120058D4000E0001B86F000E000152
:10277800B76F00019AA503D0010E00019D6F0001FB
:102788009AA703D0000E00019E6F00019A51030B17
:10279800E806D8A402D0030E07D000019A51030B13
:1027A8000009D8A403D0010E0001B56F385000010C
:1027B8009F1911E139500001A019D8A40CD038286C
:1027C80003E13928D8B407D0050E0001B66F00011F
:1027D800B58D010E04D0070E0001B66F000E000182
:1027E800B46F00019D51D8B402D0020E01D0080E7A
:1027F8000001B62700019E51D8B402D0020E01D0C4
:10280800080E0001B62700019AAB05D000019AB561
:1028180002D00001B58B00019A51030B030AD8A41A
:102828000ED0000E0001B56F070E0001B66F000E46
:102838000001B46F010E00019E6F00019A9B000118
:102848009AA718D00001B587A1C07EF0A2C07FF07A
:10285800A30E0001806F000E0001816FDDC182F0C0
:10286800DEC183F0DFC184F0E0C185F0B5C086F039
:10287800D2EC1AF0B8C062F00001636BB6C064F025
:1028880096EC2CF00001B82B00019AA70ED0B8C026
:1028980062F00001636B0001B6510001A325050F2A
:1028A8000001646F96EC2CF00CD0B8C062F0000107
:1028B800636B0001B6510001A3250001646F96EC1B
:1028C8002CF00001B82BB8C062F00001636BB5C0F2
:1028D80064F096EC2CF00001B82B00019A51030B20
:1028E800030AD8A415D0B8C062F00001636B800E4B
:1028F8000001646F96EC2CF00001B82BB8C062F0B0
:102908000001636B21C064F096EC2CF0212A9BD067
:1029180000019D51D8B40ED000019E51D8B40AD000
:10292800B8C062F00001636B880E0001646F96EC1A
:102938002CF02DD000019D51D8B40ED000019E512D
:10294800D8A40AD0B8C062F00001636BC80E0001B9
:10295800646F96EC2CF01BD000019D51D8A40ED0CA
:1029680000019E05D8A40AD0B8C062F00001636BCC
:102978008C0E0001646F96EC2CF009D0B8C062F0A0
:102988000001636BCC0E0001646F96EC2CF0000123
:10299800B82BB8C062F00001636B21C064F096ECFC
:1029A8002CF0212A0001B82BB8C062F00001636B3B
:1029B8009FC064F096EC2CF00001B82BB8C062F010
:1029C8000001636BA0C064F096EC2CF00001B82BFA
:1029D80000019AA515D0B8C062F00001636BFF0E24
:1029E8000001646F96EC2CF00001B82BB8C062F0BF
:1029F8000001636BFF0E0001646F96EC2CF023D08E
:102A080000019D51D8B422D0B8C062F00001636BB8
:102A18009BC0D9FF9CC0DAFFDF500001646F96ECC1
:102A28002CF00001B82BB8C062F00001636B000104
:102A380020EE01F09B51D9269C51DA22DF5000018B
:102A4800646F96EC2CF00001B82B21D0000E000129
:102A5800B76F070E0001B76501D019D0B8C062F092
:102A68000001636B0001B751010DF35000019B2574
:102A7800D96EF45000019C21DA6EDF500001646FBA
:102A880096EC2CF00001B82B0001B72BE2D700011F
:102A9800B4510001D8A414D0B8C062F00001636B2F
:102AA80038C064F096EC2CF00001B82BB8C062F086
:102AB8000001636B39C064F096EC2CF00001B82B70
:102AC80000019E51D8B415D0B8C062F00001636B04
:102AD8003AC064F096EC2CF00001B82BB8C062F054
:102AE8000001636B3BC064F096EC2CF00001B82B3E
:102AF80021D0000E0001B76F070E0001B76501D0A5
:102B080019D0B8C062F00001636B0001B751010D24
:102B1800F35001018725D96EF45001018821DA6E3E
:102B2800DF500001646F96EC2CF00001B82B000117
:102B3800B72BE2D700019AA74ED0000E0001B76F5D
:102B4800030E0001B76501D017D0B8C062F00001CC
:102B5800636B0001B751010DDD0EF324D96E010E30
:102B6800F420DA6EDF500001646F96EC2CF000015F
:102B7800B82B0001B72BE4D7010E0101DD27000EA9
:102B8800DE23DF23E0230101DD51D8A415D0DEC107
:102B9800A4F0030E0001A417D8A40ED0DD0E000186
:102BA800626F010E0001636FBC0E0001646F040EBA
:102BB8000001656FF0EC26F0B8C062F00001636BAD
:102BC8007B0EF66EFD0EF76E0800F5CF64F096ECFE
:102BD8002CF00001B82B000E0001B76F18D0B8C058
:102BE80062F00001636B0001B751010DF350000161
:102BF800A125D96EF4500001A221DA6EDF50000140
:102C0800646F96EC2CF00001B82B0001B72B000183
:102C1800A3510001B75DD8A0E2D70001F6810001F9
:102C28009AAB09D000019AB506D0050E0001B76F1E
:102C38000001F68305D0010E0001B76F0001F6937D
:102C4800B7C062F0370E80EC2FF0C9EC2BF060C0F3
:102C5800ACF061C0ADF062C0AEF063C0AFF081A06F
:102C6800F2820001F6B107D00001F6A559D00001A3
:102C7800F695000E1200C9EC2BF060C0B0F061C0F0
:102C8800B1F062C0B2F063C0B3F0ACC0A4F0ADC0A4
:102C9800A5F0AEC0A6F0AFC0A7F00001A41FA51F05
:102CA800A61FA71FA42B000EA523A623A723000158
:102CB800B0510001A4250001A86F0001B151000125
:102CC800A5210001A96F0001B2510001A621000150
:102CD800AA6F0001B3510001A7210001AB6F0001E9
:102CE800AB510001AA1108E1210E0001A85D4E0EAA
:102CF8000001A959D8A0B3D73AEC1EF03A0E00014A
:102D0800656F000E0001666F380E0001676F000ED8
:102D18000001686F00EC2CF00001F691000E120023
:102D2800010E1200010E0001626F1B0E80EC2FF0E5
:102D3800040E0001626F730E80EC2FF0000E00018C
:102D4800636F000E626F0D0E0001646F96EC2CF03D
:102D5800000E0001636F010E626F80C0D9FF81C051
:102D6800DAFFDF500F0F0001646F96EC2CF0000EB5
:102D780000019B6F020E9A6F9AC062F09BC063F0CD
:102D880088C064F096EC2CF000019A4B9B2B9AC0FB
:102D980062F09BC063F084C064F096EC2CF00001F4
:102DA8009A4B9B2B9AC062F09BC063F085C064F07D
:102DB80096EC2CF000019A4B9B2B9AC062F09BC0BA
:102DC80063F086C064F096EC2CF000019A4B9B2BC4
:102DD8009AC062F09BC063F087C064F096EC2CF058
:102DE80000019A4B9B2B000E00019C6F070E0001FF
:102DF8009C6501D01AD09AC062F09BC063F00001B4
:102E08009C51010DF35000018225D96EF450000148
:102E18008321DA6EDF500001646F96EC2CF000011C
:102E28009A4B9B2B00019C2BE1D7000E00019C6F55
:102E380019D09AC062F09BC063F000019C51010D4B
:102E4800F35000017E25D96EF45000017F21DA6E1F
:102E5800DF500001646F96EC2CF000019A4B9B2B1D
:102E680000019C2B80C0D9FF81C0DAFFDE50000131
:102E78009C5DD8A0DED7020E00019B6F4C0E9A6FA6
:102E8800000E00019C6F070E00019C6501D01BD04D
:102E98009AC062F09BC063F000019C51010DF35091
:102EA80000018225D96EF45000018321DA6EDF50CB
:102EB8000001646F96EC2CF000019A07D8A09B07DC
:102EC80000019C2BE0D7000E00019C6F030E00014F
:102ED8009C6501D019D09AC062F09BC063F00001D4
:102EE8009C51010D840EF324D96E000EF420DA6E85
:102EF800DF500001646F96EC2CF000019A07D8A00F
:102F08009B0700019C2BE2D79AC062F09BC063F03C
:102F1800040E0001646F96EC2CF000019A07D8A00B
:102F28009B07020E00019B6F800E9A6F000E000136
:102F38009C6F0F0E00019C6501D018D09AC062F0FA
:102F48009BC063F000019C51010D4D0EF324F66EF9
:102F5800FD0EF420F76E0800F5CF64F096EC2CF027
:102F680000019A4B9B2B00019C2BE3D7800E00019C
:102F7800626F6F0E80EC2FF0040E0001626F590E25
:102F880080EC2FF00001F68D0001F681030E0001A0
:102F9800626F370E80EC2FF0C9EC2BF060C091F017
:102FA80061C092F062C093F063C094F05CD081A0DD
:102FB800F282C9EC2BF060C095F061C096F062C057
:102FC80097F063C098F091C089F092C08AF093C0DE
:102FD8008BF094C08CF00001891F8A1F8B1F8C1FF7
:102FE800892B000E8A238B238C2300019551000125
:102FF800892500018D6F0001965100018A21000189
:103008008E6F0001975100018B2100018F6F000125
:10301800985100018C210001906F000190510BE143
:10302800210E00018D5DA10E00018E59070E0001D1
:103038008F59D8A018D03AEC1EF0000E0001686F26
:103048002350A7EC2DF03A0E0001656F000E000129
:10305800666F380E0001676F000E0001686F00ECA4
:103068002CF0000E12000001F6BDA1D7600E30EC66
:103078002FF00001996F000199AD14D0400E0001A6
:10308800626F610E80EC2FF0000E0001626F730E0C
:1030980080EC2FF0010E0001626F1B0E80EC2FF008
:1030A800000E1200000E0001636F010E626F33EC18
:1030B8002CF0F30F80C0D9FF81C0DAFFDF6E040E59
:1030C80000019C6F19D080C0D9FF81C0DAFF120EB1
:1030D80011D080C0D9FF81C0DAFF0A0E0BD080C0A2
:1030E800D9FF81C0DAFF060E05D080C0D9FF81C0A4
:1030F800DAFF020EDF5E17D000019C51010AD8B436
:10310800F4D7030AD8B4DFD7010AD8B4E2D7070A3C
:10311800D8B4E5D7010AD8B4D6D7030AD8B4D9D7D2
:10312800010AD8B4DCD7000E00019B6F0F0E9A6F0E
:10313800000E00019C6F17D000019C51010DF35047
:1031480000017E25D96EF45000017F21DA6E9AC005
:1031580062F09BC063F033EC2CF0DF6E00019A4BF9
:103168009B2B00019C2B80C0D9FF81C0DAFFDE5069
:1031780000019C5DD8A0E0D7000E0001626F730EBD
:1031880080EC2FF0010E0001626F1B0E80EC2FF017
:10319800010E12000001866F000E00018A6F020EF8
:1031A80000018A6501D02BD000018A510001826F8D
:1031B800836B010E00018227000E83230001821F0A
:1031C800831F824B832B080E00018227000E832366
:1031D800F10E000182250001626F010E00018321BA
:1031E8000001636F00018A51FA0F0001646F010E3C
:1031F8000001656F14EC2FF000018A2BD0D7010174
:10320800F569FE0E0101F46F000E00018A6F020ECF
:1032180000018A6501D056D000018A510001826FF1
:10322800836B0001821F831F824B832B020E0001D8
:103238008227000E8323F10E000182250001626FB0
:10324800010E000183210001636F00018A51FD0F07
:103258000001646F010E0001656F14EC2FF000018E
:103268008A2BD5D7070E00018A6501D02BD0000123
:103278008A510001826F836B010E00018227000EC4
:1032880083230001821F831F824B832B080E0001BA
:103298008227000E8323F10E000182250001626F50
:1032A800010E000183210001636F00018A51FA0FAA
:1032B8000001646F010E0001656F14EC2FF000012E
:1032C8008A2BD0D7D5EC23F0000E0001F76F000150
:1032D80086510001D8A45DD0000E00018A6F090E46
:1032E80000018A6501D055D000018A510E0D0C0EDF
:1032F800F326000EF422000EF324D96E030EF420F8
:10330800DA6E000EDF6E00018A510E0D040EF326F0
:10331800000EF422000EF324D96E030EF420DA6EA8
:10332800000EDF6E00018A510E0D050EF326000E09
:10333800F422000EF324D96E030EF420DA6E000E88
:10334800DF6E00018A510E0D060EF326000EF422E0
:10335800000EF324D96E030EF420DA6E000EDF6E31
:1033680000018A51010D500EF324D96E010EF4208C
:10337800DA6E000EDF6E00018A51010D5A0EF32439
:10338800D96E010EF420DA6E000EDF6E00018A2B72
:10339800A6D768EC30F0000E0001F86F000E0001AF
:1033A8008A6F090E00018A6501D010D000018A5188
:1033B800040D280EF324D96E010EF420DA6EDE6AAD
:1033C800DE6ADE6ADD6A00018A2BEBD700018651CE
:1033D8000001D8B468D0FB0E0001626F000E000136
:1033E800636F020E0001646F010E0001656F14EC3B
:1033F8002FF01F0E0001FB6501D01200F90E00012D
:10340800626F000E0001636F000E0001646F020E10
:103418000001656F14EC2FF0FD0E0001626F000EC5
:103428000001636F030E0001646F010E0001656FF8
:1034380014EC2FF0000E0001626F030E0001636FA1
:10344800040E0001646F8C0E0001656F14EC2FF000
:103458003E0E0001626F000E0001636FB80E00019E
:10346800646F010E0001656F14EC2FF03D0E000132
:10347800626F000E0001636FBB0E0001646F010EE6
:103488000001656F14EC2FF03C0E0001626F000E16
:103498000001636FBA0E0001646F010E0001656FD1
:1034A80014EC2FF03DD0120E0001FA6F340EF96FB4
:1034B800F90E0001626F000E0001636F000E00013B
:1034C800646F020E0001656FF0EC26F0FB0E000140
:1034D800626F000E0001636F020E0001646F010E3F
:1034E8000001656FF0EC26F0FD0E0001626F000E22
:1034F8000001636F030E0001646F010E0001656F28
:10350800F0EC26F0000E0001626F030E0001636FFD
:10351800040E0001646F8C0E0001656FF0EC26F05C
:10352800F10E0001886F010E0001896F0001878389
:1035380000018751870B4009876F000186B103D0CE
:103548000001879502D0000187850001879187C017
:103558007EF088C07FF089C080F014EC26F000016E
:1035680084698569840E0001656F000E0001666F2D
:10357800F90E0001676F000E0001686F00EC2CF077
:103588000001FB51D7EC2EF0000E246E2480248617
:103598000001FD39F00B2412F2881200010E00011F
:1035A800626F1B0E80EC2FF0040E0001626F730E29
:1035B80080EC2FF0000E0001636F000E626F0D0E9D
:1035C8000001646F96EC2CF0000E0001636F010E91
:1035D800626F80C0D9FF81C0DAFFDF500D0F000194
:1035E800646F96EC2CF0000E0001986F020E976F36
:1035F80097C062F098C063F086C064F096EC2CF037
:103608000001974B982B97C062F098C063F082C076
:1036180064F096EC2CF00001974B982B97C062F061
:1036280098C063F083C064F096EC2CF00001974BCF
:10363800982B97C062F098C063F084C064F096EC51
:103648002CF00001974B982B97C062F098C063F05C
:1036580085C064F096EC2CF00001974B982B000E77
:103668000001996F070E0001996501D01AD097C023
:1036780062F098C063F000019951010DF350010107
:103688008725D96EF45001018821DA6EDF500001D8
:10369800646F96EC2CF00001974B982B0001992B46
:1036A800E1D7000E0001996F19D097C062F098C059
:1036B80063F000019951010DF35000017E25D96E88
:1036C800F45000017F21DA6EDF500001646F96EC40
:1036D8002CF00001974B982B0001992B80C0D9FF43
:1036E80081C0DAFFDE500001995DD8A0DED7020E56
:1036F8000001986F4C0E976F000E0001996F070E2E
:103708000001996501D01BD097C062F098C063F0A2
:1037180000019951010DF35001018725D96EF4502C
:1037280001018821DA6EDF500001646F96EC2CF0FD
:1037380000019707D8A098070001992BE0D7000E41
:103748000001996F030E0001996501D019D097C047
:1037580062F098C063F000019951010D820EF324C4
:10376800D96E000EF420DA6EDF500001646F96EC1B
:103778002CF000019707D8A098070001992BE2D7F1
:1037880097C062F098C063F0040E0001646F96EC75
:103798002CF000019707D8A09807020E0001986F37
:1037A800800E976F000E0001996F0F0E000199654A
:1037B80001D018D097C062F098C063F00001995109
:1037C800010D4D0EF324F66EFD0EF420F76E080081
:1037D800F5CF64F096EC2CF00001974B982B000184
:1037E800992BE3D7400E0001626F6F0E80EC2FF02B
:1037F800040E0001626F590E80EC2FF00001F68D67
:10380800030E0001626F370E80EC2FF0C9EC2BF02D
:1038180060C08FF061C090F062C091F063C092F018
:1038280055D081A0F282C9EC2BF060C093F061C042
:1038380094F062C095F063C096F08FC087F090C096
:1038480088F091C089F092C08AF00001871F881F14
:10385800891F8A1F872B000E882389238A2300014A
:1038680093510001872500018B6F000194510001DD
:10387800882100018C6F0001955100018921000108
:103888008D6F0001965100018A2100018E6F0001A1
:103898008E510BE1210E00018B5DA10E00018C59A8
:1038A800070E00018D59D8A011D03AEC1EF03A0E3F
:1038B8000001656F000E0001666F380E0001676F2A
:1038C800000E0001686F00EC2CF012000001F6BD3C
:1038D800A8D7000E0001636F010E626F33EC2CF065
:1038E800F30F80C0D9FF81C0DAFFDF6E000E000140
:1038F800986F0F0E976F000E0001996F17D0000197
:103908009951010DF35000017E25D96EF450000144
:103918007F21DA6E97C062F098C063F033EC2CF028
:10392800DF6E0001974B982B0001992B80C0D9FFBF
:1039380081C0DAFFDE500001995DD8A0E0D7000E03
:103948000001626F730E80EC2FF0010E0001626FB0
:103958001B0E80EC2FF01200000E0001CE6F3C50C1
:10396800040D040EF326000EF422F4BE06D0F45023
:1039780006E1280EF35CD8B002D0010E34D03C50DA
:10398800040D040EF3240001606F000EF420000102
:10399800616F000E0001636F280E626F50EC27F014
:1039A800000160510001CE6F3C50040D040EF32657
:1039B800000EF422F350F410D8B417D03C50040D84
:1039C800040EF3240001606F000EF4200001616F03
:1039D800000E0001636F280E626FB4EC29F000013D
:1039E80060510001CE250001CE6F000E0001CF6F9F
:1039F80036D1000E0001F86F0001F851010D940E48
:103A0800F324D96E010EF420DA6E770EDF6E000112
:103A1800F82B0001F851010D940EF324D96E010E14
:103A2800F420DA6E3CC0DFFF0001F82B0001F851EA
:103A3800010D940EF324D96E010EF420DA6E000104
:103A4800CF51090DF3CFDFFF0001F82B0001F8512A
:103A5800010D940EF324D96E010EF420DA6E0001E4
:103A6800CF29090DF3CFDFFF0001F82B040E000169
:103A7800CD6F0001CF51090DF3CFD0F09FD03C504E
:103A88000001D05DD8B098D00001D0510E0D0C0EB9
:103A9800F326000EF422000EF324D96E030EF42050
:103AA800DA6E0301DFAE59D00001D0510E0D040EBD
:103AB800F326000EF422000EF324D96E030EF42030
:103AC800DA6E0001F851010D940EF324E16E010E37
:103AD800F420E26EDFCFE7FF0001F82B0001D051A0
:103AE8000E0D050EF326000EF422000EF324D96EF7
:103AF800030EF420DA6E0001F851010D940EF32440
:103B0800E16E010EF420E26EDFCFE7FF0001F82B33
:103B18000001D0510E0D060EF326000EF422000E01
:103B2800F324D96E030EF420DA6E0001F851010D6A
:103B3800940EF324E16E010EF420E26EDFCFE7FF6E
:103B480031D00001F851010D940EF324D96E010E05
:103B5800F420DA6ED0C0DFFF28D00001F851010D43
:103B6800940EF324D96E010EF420DA6EFF0EDF6E88
:103B78000001F82B0001F851010D940EF324D96EC1
:103B8800010EF420DA6EFF0EDF6E0001F82B000143
:103B9800F851010D940EF324D96E010EF420DA6E5B
:103BA800FF0EDF6E0001F82BCCD70001F82B0001C7
:103BB800CD51040F0001CD6F0001D02B010E000183
:103BC800CF250001666F0001676B000E6723000EAA
:103BD8000001696F090E686F4BEC2FF00001D0519E
:103BE8000001C96FCA6B000166510001C95D00017F
:103BF800CA51800A0001CB6F00016751800A000199
:103C0800CB59D8A03CD7CDC0CCF0270E0001CC654D
:103C180001D010D00001F851010D940EF324D96E93
:103C2800010EF420DA6E110EDF6E0001F82B000190
:103C3800CC2BEBD7F9C0B9F0FAC0BAF0000E0001EE
:103C4800BB6F000E0001BC6F010E0001BD6F000EBE
:103C58000001BE6F010E4EEC23F00001CF2B0001D6
:103C6800CE510001CF5DD8B01200C3D68C90030EA0
:103C78000001736F000E746F000E756F000E766F83
:103C880022D09A0E00016B6F020E6C6F000E6D6FE2
:103C9800000E6E6F00016B07000E6C5B6D5B6E5B58
:103CA80000016B29F7E100016C29F4E100016D299D
:103CB800F1E100016E29D8A4EDD700017307000EC9
:103CC800745B755B765B0001735100017411000130
:103CD800751100017611D8A4D4D78C800A0E000182
:103CE800776F000E786F000E796F000E7A6F22D012
:103CF8009A0E00016F6F020E706F000E716F000E4A
:103D0800726F00016F07000E705B715B725B0001E0
:103D18006F29F7E100017029F4E100017129F1E14F
:103D280000017229D8A4EDD700017707000E785B4F
:103D3800795B7A5B000177510001781100017911F4
:103D480000017A11D8A4D4D7070E0001626F550E6E
:103D580080EC2FF0540E30EC2FF000017D6F7DC009
:103D68006AF0070E00016A17D8A4F4D7000E000104
:103D78007C6F000E7B6FE80E00017B5D030E000177
:103D88007C59D8B004D000017B4B7C2BF4D7010EB2
:103D98000001626F1B0E80EC2FF0FF0E0001626FB6
:103DA800070E80EC2FF0FF0E0001626F090E80EC09
:103DB8002FF0FF0E0001626F030E80EC2FF0FF0E54
:103DC8000001626F050E80EC2FF0000E00017D6F80
:103DD800070E00017D6501D018D000017D51010D4D
:103DE800F35001018725D96EF45001018821DA6E5C
:103DF800DF500001626F00017D51020DF3500B0F7F
:103E080080EC2FF000017D2BE3D7020E0001636FD9
:103E1800020E626F800E0001646F96EC2CF0020EA9
:103E28000001636F030E626F000E0001646F96EC71
:103E38002CF0020E0001636F060E626F900E0001F7
:103E4800646F96EC2CF0020E0001636F070E626F30
:103E5800800E0001646F96EC2CF0020E0001636F77
:103E6800080E626F100E0001646F96EC2CF0020EC3
:103E78000001636F200E626F210E0001646F96ECE3
:103E88002CF0800E0001626F750E80EC2FF0400E52
:103E98000001626F7D0E80EC2FF0600E0001626FF2
:103EA8007F0E80EC2FF0980E0001626F310E80ECCF
:103EB8002FF0950E0001626F5D0E80EC2FF0020E60
:103EC8000001636F0F0E626F33EC2CF000017D6F01
:103ED80000017D51A00BA00AD8A4F1D7E60E00017D
:103EE800626F650E80EC2FF0020E0001636F000E0A
:103EF800626F030E0001646F96EC2CF0020E000155
:103F0800636F010E626F020E0001646F96EC2CF075
:103F1800000E0001686F2350A7EC2DF01200000E70
:103F280000016E6F00016F69000E0001706F090ECD
:103F38000001706501D036D0000170510E0D0C0ED5
:103F4800F326000EF422000EF324D96E030EF4209B
:103F5800DA6E0301DFAE1ED067C160F068C161F0A0
:103F6800000170510E0D040EF326000EF422000E0F
:103F7800F3240001626F030EF4200001636FD1EC9B
:103F88002DF00009D8B40BD070C06FF0010E0001FD
:103F98006E6F08D000016F29D8B470C06FF00001AF
:103FA800702BC5D700016F29D8A402D0F10E1200DA
:103FB8000001FD51D8B403D000016E5112006FC04A
:103FC8008DF1000E0001706F070E0001706501D0C1
:103FD8002ED000017051010DF35001016725D96EF3
:103FE800F45001016821DA6E00017051010D040ED0
:103FF800F326000EF422000E00016A6F030E000182
:104008006B6FF35000016A27F45000016B23000125
:104018006F510E0DF35000016A25E16EF450000156
:104028006B21E26EDFCFE7FF0001702BCDD70001D7
:104038006F510E0D0C0EF326000EF422000EF32421
:10404800D96E030EF420DA6E0301DF8E010120EE33
:1040580002F06951D9266A51DA22DF5000016A6FED
:10406800010E00016A1700016F510E0D0C0EF326A8
:10407800000EF422000EF324D96E030EF420DA6E3B
:104088000301DF5000016A19FE0B6A190301DF6E94
:10409800000E0001706F000170510001D8A437D0E4
:1040A8000001705100016A6F6B6B030E00016A27F3
:1040B800000E6B2300016A5101016925D96E0001C8
:1040C8006B5101016A21DA6E00017051010D0D0E6C
:1040D800F326000EF422000E00016C6F030E00019F
:1040E8006D6FF35000016C27F45000016D2300013F
:1040F8006F510E0DF35000016C25E16EF450000174
:104108006D21E26EDFCFE7FF0001702BC4D70001FD
:104118006F51040D280EF324D96E010EF420DA6EC7
:10412800DE6ADE6ADE6ADD6A6FC022F00001F79996
:1041380096EC2AF03C6E3C0E0001626F000E000106
:10414800636FBA0E0001646F010E0001656FF0EC39
:1041580026F000016E511200FDC0A4F2030E020108
:10416800A56F000E0201AA6FC9EC2BF060C07EF1AA
:1041780061C07FF162C080F163C081F10001F20586
:10418800D8A402D0FF0E1200C9EC2BF060C0A6F232
:1041980061C0A7F262C0A8F263C0A9F2200E0201B2
:1041A800A65FA10EA75B070EA85B000EA95B000E19
:1041B8000001FD6F0001F789C1D0C9EC2BF060C088
:1041C800ABF261C0ACF262C0ADF263C0AEF2A6C29F
:1041D8009CF2A7C29DF2A8C29EF2A9C29FF2020158
:1041E8009C1F9D1F9E1F9F1F9C2B000E9D239E237F
:1041F8009F230201AB5102019C250201A06F02011D
:10420800AC5102019D210201A16F0201AD510201D1
:104218009E210201A26F0201AE5102019F210201FB
:10422800A36F0201A3510BE1210E0201A05DA10EB3
:104238000201A159070E0201A259D8A079D0ABC238
:10424800A6F2ACC2A7F2ADC2A8F2AEC2A9F20201B0
:10425800AA070201AA29D8A471D0010E0201AA6FE7
:104268000201A5070201A529D8A404D00001F799E5
:10427800FF0E1200000E0001F86F0001F851010D49
:10428800940EF324D96E010EF420DA6E810EDF6EDF
:104298000001F82B0001F851010D940EF324D96E9A
:1042A800010EF420DA6EFBC0DFFF0001F82B0001DD
:1042B800F851010D940EF324D96E010EF420DA6E34
:1042C80024C0DFFF0001F82B000E0201AF6F0201CE
:1042D800AF510201D8A419D00201AF51010D3F0E10
:1042E800F324D96E000EF420DA6E0001F851010DA6
:1042F800940EF324E16E010EF420E26EDFCFE7FFA7
:104308000001F82B0201AF2BE2D7F9C0B9F0FAC0CF
:10431800BAF0000E0001BB6F000E0001BC6F010E69
:104328000001BD6F000E0001BE6F010E4EEC23F0C0
:104338008FEC30F00009D8A49DEC30F00001F7B9FB
:104348003CD7A4C2FDF0225012000001CD6F00013D
:10435800CD29D8A47DD0000E0001CE6F090E000132
:10436800CE6501D012000001CE510E0D0C0EF326C1
:10437800000EF422000EF324D96E030EF420DA6E38
:104388000301DFAE3CD0000E0001F86F0001F851C8
:10439800010D940EF324D96E010EF420DA6E820E0C
:1043A800DF6E0001F82BF9C0B9F0FAC0BAF00001CD
:1043B800CE510E0D040EF326000EF422000EF32447
:1043C8000001BB6F030EF4200001BC6F010E000159
:1043D800BD6F000E0001BE6F000E4EEC23F0000E04
:1043E8000001CA6F000EC96F0001C9290F0E000134
:1043F800CA59D8B004D00001C94BCA2BF5D700015F
:10440800CE510E0D0C0EF326000EF422000EF324EE
:10441800D96E030EF420DA6E000EDF6E0001CE5165
:104428000E0D000EF3240001626F030EF42000014C
:10443800636F0001CE510E0DF350040F0001646F3D
:104448000E0E0001656FF0EC26F00001CE2B86D72A
:104458000001CD510E0D0C0EF326000EF422000EB5
:10446800F324D96E030EF420DA6E0301DFAE1200D6
:10447800000E0001F86F0001F851010D940EF324AD
:10448800D96E010EF420DA6E820EDF6E0001F82B71
:10449800F9C0B9F0FAC0BAF00001CD510E0D040E02
:1044A800F326000EF422000EF3240001BB6F030E66
:1044B800F4200001BC6F010E0001BD6F000E000169
:1044C800BE6F000E4EEC23F0000E0001CC6F000E04
:1044D800CB6F0001CB290F0E0001CC59D8B004D006
:1044E8000001CB4BCC2BF5D70001CD510E0D0C0E96
:1044F800F326000EF422000EF324D96E030EF420E6
:10450800DA6E000EDF6E0001CD510E0D000EF324A1
:104518000001626F030EF4200001636F0001CD51AA
:104528000E0DF350040F0001646F0E0E0001656F4D
:10453800F0EC26F01200000E00016B6F040E000173
:104548006D6F270E00016D6501D0A1D06DC069F0B7
:10455800030E00016917D8A497D000016D5100011E
:10456800696F6A6B030E00016927000E6A23000158
:104578006ABF08D000016A5104E1280E0001695D94
:10458800D8B082D000016D510001696F6A6B030ECB
:1045980000016927000E6A2300016951000167259F
:1045A800D96E00016A5100016821DA6EDF500001FE
:1045B8006C6F00016C51040D030EF326000EF422FB
:1045C800000EF324D96E010EF420DA6E6CC0DFFF02
:1045D80000016D51010DF35000016725D96EF450AB
:1045E80000016821DA6E00016C51040D000EF324FD
:1045F800E16E010EF420E26EDFCFE7FF00016D519E
:104608000001696F6A6B010E00016927000E6A23B9
:104618000001695100016725D96E00016A51000146
:104628006821DA6E00016C51040D010EF326000EAC
:10463800F422000EF324E16E010EF420E26EDFCFC7
:10464800E7FF00016D510001696F6A6B020E0001FE
:104658006927000E6A230001695100016725D96E98
:1046680000016A5100016821DA6E00016C51040DE5
:10467800020EF326000EF422000EF324E16E010E62
:10468800F420E26EDFCFE7FF00016D2B5AD763EC11
:1046980028F012000001C16F000E0001C26F000176
:1046A800BD510001D8B404D00001BF6BBF2B02D0AC
:1046B8000001BF6B0001C2510001BF19FC0BBF19FB
:1046C8000001C26F0001C1510001D8A404D000014B
:1046D800BF6BBF2B02D00001BF6B0001BF3BBF47C0
:1046E8000001C2510001BF19DF0BBF190001C26FE1
:1046F8000001C1B103D00001C29502D00001C285FA
:104708000001BEB103D00001C29702D00001C287E8
:10471800000E0001C66F0001C1510001D8B402D0DB
:10472800010E01D0000E0001C56F0001C15100014A
:10473800D8A404D00001BF6BBF2B02D00001BF6B0F
:104748000001BF3BBF47BF470001C2510001BF196D
:10475800BF0BBF190001C26F0001C28FBBC0C3F0FD
:10476800BCC0C4F0B9C0C7F0BAC0C8F020EEC2F0EF
:1047780000EE9AF0060EDBCFEBFFE806FCE2940EA3
:104788000001A16F010E0001A26FF8C0A3F0B7EC01
:1047980013F00001C06F000E0001F86F0001C05156
:1047A8001200010E0001666F000E01018C6F000EF1
:1047B8008B6F000E0001616F020E606FE90E000141
:1047C800626F010E0001636F23EC2EF00001661783
:1047D800000E0001616F010E606FE50E0001626F4F
:1047E800010E0001636F23EC2EF000016617000E26
:1047F8000001616F010E606FE10E0001626F010E32
:104808000001636F23EC2EF000016617000E000113
:10481800616F8C0E606FE30E0001626F010E000184
:10482800636F23EC2EF000016617000E0001616F24
:10483800040E606FEB0E0001626F010E0001636FE2
:1048480023EC2EF000016617000E0001616F010EC7
:10485800606FE70E0001626F010E0001636F23ECC9
:104868002EF000016617000E0001616F010E606FE7
:10487800ED0E0001626F010E0001636F23EC2EF054
:1048880000016617000E0001616F010E606FEF0EE8
:104898000001626F010E0001636F23EC2EF000012E
:1048A80066171200000E0001F86FD2C0D9FFD3C0FE
:1048B800DAFF0001F851010D940EF324E16E010EA8
:1048C800F420E26EDFCFE7FF0001F82B000120EEB5
:1048D80001F0D251D926D351DA220001F851010D45
:1048E800940EF324E16E010EF420E26EDFCFE7FFB1
:1048F8000001F82B000120EE02F0D251D926D35145
:10490800DA220001F851010D940EF324E16E010E34
:10491800F420E26EDFCFE7FF0001F82B030E000161
:10492800D56F270E0001D56501D01BD00001D551E8
:10493800010DF3500001CF25D96EF4500001D021AC
:10494800DA6E0001F851010D940EF324E16E010EA8
:10495800F420E26EDFCFE7FF0001F82B0001D52B32
:10496800E0D7010E0001CD6F0001D15151EC2DF0BF
:104978000001D46F0001D4510001D8B421EC30F00B
:104988000001D4511200C9EC2BF060C09EF061C048
:104998009FF062C0A0F063C0A1F0C9EC2BF060C02A
:1049A800A2F061C0A3F062C0A4F063C0A5F09EC0ED
:1049B80096F09FC097F0A0C098F0A1C099F00001B0
:1049C800961F971F981F991F962B000E97239823C1
:1049D80099230001A2510001962500019A6F000158
:1049E800A3510001972100019B6F0001A451000110
:1049F800982100019C6F0001A55100019921000137
:104A08009D6F00019D512DE1810E00019A5D840E7C
:104A180000019B591E0E00019C59D8B01200A5EC4C
:104A280025F00001A66F020E0001A619D8A417D020
:104A3800FC0E0001916FFE0E0001926F000E000146
:104A4800936F000E0001946F7CEC2DF0030E0001B3
:104A58006D6FE80E6C6FB9EC28F0010E1200000EB5
:104A6800120012000201AD6F000E2A6EF9C0B9F0F3
:104A7800FAC0BAF0040E0001BB6F030E0001BC6F50
:104A8800010E0001BD6FADC2BEF0000E4EEC23F06A
:104A98000201A46FC9EC2BF060C0A5F261C0A6F2B8
:104AA80062C0A7F263C0A8F247D0C9EC2BF060C07F
:104AB800A9F261C0AAF262C0ABF263C0ACF28FEC9B
:104AC80030F0A5C29CF2A6C29DF2A7C29EF2A8C26F
:104AD8009FF202019C1F9D1F9E1F9F1F9C2B000E73
:104AE8009D239E239F230201A95102019C250201B7
:104AF800A06F0201AA5102019D210201A16F0201CA
:104B0800AB5102019E210201A26F0201AC510201C8
:104B18009F210201A36F0201A3510BE1A10E020123
:104B2800A05D860E0201A159010E0201A259D8A06A
:104B380003D02A04D8A403D02A50D8B4B6D72A5010
:104B4800120081B214D001018E510101D8A466D09F
:104B5800010E01018E6FC9EC2BF060C06EF161C0CF
:104B68006FF162C070F163C071F1010E120081B47F
:104B780014D001018E510101D8A450D0010E0101B9
:104B88008E6FC9EC2BF060C06EF161C06FF162C02E
:104B980070F163C071F1020E1200C9EC2BF060C015
:104BA80072F061C073F062C074F063C075F06EC1DA
:104BB8006AF06FC16BF070C16CF071C16DF00001EB
:104BC8006A1F6B1F6C1F6D1F6A2B000E6B236C23F3
:104BD8006D230001725100016A2500016E6F00010A
:104BE800735100016B2100016F6F000174510001C6
:104BF8006C210001706F0001755100016D210001E9
:104C0800716F000171510001701105E1400E000142
:104C18006F5DD8A003D0000E01018E6F000E120048
:104C28007EC086F17FC087F180C088F1D6CF21F0A1
:104C38000B0E236E3AEC1EF0000E0001F66F000E0C
:104C48000001816F010E0001816501D00ED00001C5
:104C580081514E0D000EF324D96E020EF420DA6E47
:104C6800000EDF6E0001812BEDD700017EA526D056
:104C7800DD0E0001626F010E0001636FBC0E0001C2
:104C8800646F040E0001656F14EC2FF0000E010133
:104C9800DD27040EDE23000EDF23000EE023DD0EE9
:104CA8000001626F010E0001636FBC0E0001646FAA
:104CB800040E0001656FF0EC26F01200000E0101F1
:104CC800DD6F000EDE6F000EDF6F000EE06FDD0E91
:104CD8000001626F010E0001636FBC0E0001646F7A
:104CE800040E0001656FF0EC26F0010E0101DD6F86
:104CF800000EDE6F000EDF6F000EE06F1200000E78
:104D08000001646F5DD0000164510E0D0C0EF32696
:104D1800000EF422000EF324D96E030EF420DA6E8E
:104D28000301DFAE4BD0000164510E0D040EF326D3
:104D3800000EF422000EF324D96E030EF420DA6E6E
:104D4800000110EE01F06051E1266151E222DE50CF
:104D5800E618D8A433D0000164510E0D050EF326D1
:104D6800000EF422000EF324D96E030EF420DA6E3E
:104D7800000110EE02F06051E1266151E222DE509E
:104D8800E618D8A41BD0000164510E0D060EF326B8
:104D9800000EF422000EF324D96E030EF420DA6E0E
:104DA800000110EE03F06051E1266151E222DE506D
:104DB800E618D8A403D00001645112000001642B46
:104DC8003C500001645DD8A09ED73C500001641996
:104DD800D8A41200FF0E1200000E0001696F000E29
:104DE800F2B8010E0001686FF2988C9A050E4DEC2E
:104DF80030F0A2EC30F00001696F8C8AB3EC30F02F
:104E0800000169B1F2D78C9A060E4DEC30F08C8A0D
:104E1800B3EC30F08C9A020E4DEC30F00001645186
:104E28004DEC30F0000E0001696F29D062C0D9FF47
:104E380063C0DAFFDF504DEC30F00001624B632BAA
:104E4800000165070001692B0001695164C066F023
:104E58000001676B00016627000E67230F0E000133
:104E68006617000E67170001665100016711D8A484
:104E780006D08C8A0001695100016427B6D7000169
:104E880065510001D8A4D2D78C8A000168B102D03C
:104E9800F29801D0F2881200000E0001656F00013F
:104EA80063AF08D00001626D631FD8B0632B010E99
:104EB8000001656F000161AF08D00001606D611FDE
:104EC800D8B0612B010E0001651B000E0001676F51
:104ED800000E666F0001625100016311D8B42CD036
:104EE800010E0001646F06D00001D8906237633765
:104EF8000001642B000163AFF7D70001D890663733
:104F08006737000162510001605D000163510001D3
:104F18006159D8A00AD0000162510001605F000108
:104F280063510001615B000166810001D890633321
:104F380062330001642FE1D7000165510001D8B444
:104F480005D00001666D671FD8B0672B66C060F09A
:104F580067C061F012000001F36F0001F351000116
:104F6800D8B407D0010ECEEC18F03E504AEC2EF023
:104F78001200899C899E000ECEEC18F04050D7ECA8
:104F88002EF00009D8A403D04050B7EC30F0000E42
:104F98006FEC2EF0000E0001966F405092EC2EF050
:104FA800000E0001F26FFF0EB0EC20F00001F46F6C
:104FB8000001F429D8B408D0010E0001966F4050C2
:104FC80092EC2EF0000E10D00A0E00016A6F000E4F
:104FD80000016B6F000E6C6F000E6D6F000E6E6F30
:104FE800000E91EC2BF0010E3E6E3E0E0001626F3A
:104FF800000E0001636FB80E0001646F010E00011E
:10500800656FF0EC26F0898C3E504AEC2EF01200C9
:10501800780ED36E9B8CC090550EA76EAA0EA76E05
:105028000E01FF91110E0E01E76F170E0E01FB6FB7
:105038000A0E0E01DB6F090E0E01D96F550EA76E11
:10504800AA0EA76E0E01FF81FC0E0F01486F1F0EFE
:105058000F01496F8B94899C899E9494929C929E8F
:1050680093829384F19E92829280898A8C808C822A
:10507800929A959095929380F19CF292F288938AF5
:10508800949E9398C00EC76E200EC66E8C8A959A11
:105098008D8496948D928C8E8C968D909692959EFA
:1050A80095969690958C95949598000E736E310E02
:1050B800726EA49ED9EC2AF0F28EF28C1200000EC9
:1050C8000001656F3E50D8A41200000E0001666F03
:1050D80025D000016651040D000EF324D96E010E8F
:1050E800F420DA6E0101F151DE18D8A415D00001C0
:1050F8006651040D010EF326000EF422000EF3246F
:10510800D96E010EF420DA6EDE500101F219D8A42E
:1051180003D0010E0001656F0001662B28500001C5
:10512800606F616B010E00016027000E61230001B2
:1051380066510001626F636B000160510001625D9E
:1051480000016351800A0001646F00016151800A07
:1051580000016459D8A0BDD7000165510001D8A449
:105168001200010E0101936F1200000E00016E6F14
:10517800000E6F6F000E706F000E716F6CC060F0E4
:105188006DC061F00001626B636BA00E0001646F7B
:105198000F0E656F000E666F000E676F56EC2BF0F2
:1051A80060C06EF061C06FF062C070F063C071F0F3
:1051B800560E00016E27FF0E6F23FF0E7023FF0EA1
:1051C8007123000171BF12000001715100017011BB
:1051D80000016F1110E1C40E00016E5DD8A012002D
:1051E8000AD000F0D90E00016E27FF0E6F23FF0EC4
:1051F8007023FF0E7123000171BF1200000171516D
:105208000001701100016F11ECE100016E05D8A0DA
:105218001200E7D7800E7CEC30F0000E0001636FBF
:105228000F0E0001636501D01FD000016351010D0D
:10523800BC0EF324D96E010EF420DA6EDF50D8A428
:1052480004D0200E72EC30F00CD000016351010D37
:10525800BC0EF324D96E010EF420DA6EDF5072EC26
:1052680030F00001632BDCD7C00E7CEC30F0100E60
:105278000001636F1F0E0001636501D01200000179
:105288006351010DBC0EF324D96E010EF420DA6EC1
:10529800DF50D8A404D0200E72EC30F00CD00001FE
:1052A8006351010DBC0EF324D96E010EF420DA6EA1
:1052B800DF5072EC30F00001632BDCD7F7EC2EF0F6
:1052C800BC0E00016C6F010E00016D6F7D0E0001B8
:1052D8006E6FFF0E00016F6F76EC06F0CC0E0001CA
:1052E8006C6F010E00016D6FE60E00016E6FFE0E11
:1052F80000016F6F91C0D9FF92C0DAFFDF50000143
:10530800936F000193510001706F716B000120EEE3
:1053180001F09151D9269251DA22DF500001946FA1
:10532800000194510001726F736B000120EE02F0CE
:105338009151D9269251DA22DF500001956F000170
:1053480095510001746F756B76EC06F00EEC29F040
:10535800040E00016D6FB00E6C6FB9EC28F01200EE
:10536800000E0001656F000161AF08D00001606D9B
:10537800611FD8B0612B010E0001656F000163AF9A
:1053880005D00001626D631FD8B0632B0001625124
:1053980000016311D8B426D0010E0001646F06D055
:1053A8000001D890623763370001642B000163AFB6
:1053B800F7D7000162510001605D000163510001EF
:1053C8006159D8A008D0000162510001605F000156
:1053D80063510001615B0001D890633362330001BF
:1053E800642FE7D7000165510001D8B405D000014A
:1053F800606D611FD8B0612B60C060F061C061F062
:10540800120003EE00F08C0EEE6AE806FDE102EEF3
:1054180000F09C0EEE6AE806FDE101EE00F0F10EE8
:10542800EE6AE806FDE10001FB6BFA6BF96BF86BBD
:10543800F76BF66B00EE21F01E0EEE6AE806FDE152
:10544800580EF66E610EF76E000EF86E01EEF1F072
:1054580010EE08F00900F5CFEEFFE550E150FAE153
:105468006C0EF66E610EF76E000EF86E0900F5CF41
:10547800FCF00900F5CFFDF06A0EF66E610EF76ECE
:10548800000EF86E0900F5CF3FF00900F5CF40F0A7
:1054980041904192000EF86E0001D8EF2FF0000EF7
:1054A8000001D06F090E0001D06501D01200000183
:1054B800D0510E0D0C0EF326000EF422000EF3242C
:1054C800D96E030EF420DA6E0301DFAE28D0000196
:1054D800D051010D500EF324D96E010EF420DA6E6E
:1054E800DF50D8A411D00001D051010D5A0EF32479
:1054F800D96E010EF420DA6EDE28D8B405D000018A
:10550800D051A9EC21F00BD00001D051010D500E63
:10551800F324D96E010EF420DA6E000EDF6E00015E
:10552800D02BC0D7000E0001606F000E0001616F24
:10553800090E0001616501D035D0000161510E0DE1
:10554800040EF326000EF422000EF324D96E030E87
:10555800F420DA6EDF50D8A420D0000161510E0D7E
:10556800050EF326000EF422000EF324D96E030E66
:10557800F420DA6EDF50D8A410D0000161510E0D6E
:10558800060EF326000EF422000EF324D96E030E45
:10559800F420DA6EDF50D8B402D00001602B00018D
:1055A800612BC6D70001605112008C8E8D90000EC1
:1055B80000016D6F080E6C6FB9EC28F08D80000E3D
:1055C80000016D6F500E6C6FB9EC28F0300E7CEC5A
:1055D80030F0000E00016D6F080E6C6FB9EC28F00A
:1055E800300E7CEC30F0300E7CEC30F0390E7CEC78
:1055F80030F0140E7CEC30F0560E7CEC30F06D0E72
:105608007CEC30F0700E7CEC30F00E0E7CEC30F060
:10561800060E7CEC30F0010E7CEC30F0000E000140
:105628006D6F280E6C6FB9EC28F01200000E0001A7
:10563800666F000E656F0001625100016311D8B4F6
:105648002CD0010E0001646F06D00001D89062379B
:1056580063370001642B000163AFF7D70001D890CE
:1056680065376637000162510001605D00016351D2
:1056780000016159D8A00AD0000162510001605FA1
:10568800000163510001615B000165810001D89050
:10569800633362330001642FE1D765C060F066C0F0
:1056A80061F01200000E0001686F000E696F000EB5
:1056B8006A6F000E6B6F000160A110D00001645189
:1056C8000001682700016551000169230001665146
:1056D80000016A230001675100016B230001D89083
:1056E80064376537663767370001D89063336233AC
:1056F80061336033000160510001611100016211E2
:1057080000016311D8A4D7D768C060F069C061F000
:105718006AC062F06BC063F0120000016F6F2BD09B
:10572800120E0001FA6F340EF96F00017069716989
:10573800700E0001656F000E0001666FF90E000122
:10574800676F000E0001686F00EC2CF0C9EC2BF0BD
:1057580060C07EF161C07FF162C080F163C081F1F9
:10576800C9EC2BF060C082F161C083F162C084F1A2
:1057780063C085F1120000016F51000AD8B4D0D778
:10578800010AD8B41200030A12009D90000E00010D
:10579800686F000E0001696F000E0001656FCECFC3
:1057A80066F0CFCF67F0000166290DE10001672997
:1057B800D8A409D00001652B65050001646F020EAD
:1057C80000016465ECD79EA007D00001682B2B2848
:1057D800D8A402D00001692B2B50000168272C5057
:1057E800000169279D8066C060F067C061F068C0ED
:1057F80062F069C063F0120065C0D9FF66C0DAFFC5
:10580800DF503A6E000120EE01F06551D92666514D
:10581800DA22DF503B6E67C0D9FF68C0DAFFDF507D
:10582800386E000120EE01F06751D9266851DA225E
:10583800DF50396E3AC062F0070E80EC2FF03BC0A3
:1058480062F0090E80EC2FF038C062F0030E80EC95
:105858002FF039C062F0050E80EC2FF01200000E18
:10586800F2B8010E0001676FF298899A62C064F07D
:1058780063C065F00001D890653364330001D890A7
:10588800653364330001D890653364330001645193
:105898007F0B80093FEC30F000016239E846E00BED
:1058A800E00B3FEC30F098EC30F00001666F898A2D
:1058B800000167B102D0F29801D0F2880001665168
:1058C8001200000E0001F26F8FEC30F00001F26F51
:1058D8000001F2510001D8B422D0252A25C093F046
:1058E800265086EC30F0070E00016D6FD00E6C6FFD
:1058F800B9EC28F0897E3E50D8A40CD0010164513F
:10590800030B0009D8A406D069C191F06AC192F0CE
:1059180062EC29F09DEC30F03E504AEC2EF000018C
:10592800F2511200000EF2B8010E0001676FF298F2
:10593800899A62C065F063C066F00001D89066334A
:1059480065330001D890663365330001D89066331B
:105958006533000165517F0B80093FEC30F0000191
:105968006239E846E00BE00B10093FEC30F000012B
:1059780064513FEC30F0898A000167B102D0F29897
:1059880001D0F28812000001695100016A11D8B4EF
:1059980026D0010E00016B6F06D00001D890693740
:1059A8006A3700016B2B00016AAFF7D70001695114
:1059B8000001675D00016A5100016859D8A008D04C
:1059C800000169510001675F00016A510001685BCD
:1059D8000001D8906A33693300016B2FE7D767C09D
:1059E80067F068C068F01200000E0001F86F00014F
:1059F800F851010D940EF324D96E010EF420DA6EDD
:105A08007A0EDF6E0001F82BF9C0B9F0FAC0BAF0CF
:105A1800040E0001BB6F030E0001BC6F010E0001F4
:105A2800BD6F000E0001BE6F000E4EEC23F00001AA
:105A3800C96F0001C9510001D8A41200010E01016B
:105A4800936F12000001926FF7EC2EF0BC0E00016C
:105A58006C6F010E00016D6F9F0E00016E6FFF0EDF
:105A680000016F6F92C070F00001716B76EC06F068
:105A7800CC0E00016C6F010E00016D6F8E0E0001DF
:105A88006E6FFF0E00016F6F91C070F00001716BB7
:105A980076EC06F00EEC29F012000001CE6F000142
:105AA800CE510E0D0C0EF326000EF422000EF32438
:105AB800D96E030EF420DA6E0301DFAE17D00001B1
:105AC800CE510E0D040EF326000EF422000EF32420
:105AD8000001C96F030EF4200001CA6F010E000116
