:040000000CEF00F011
:10000800D9CF0DF0DACF0EF0F3CF0FF0BEED16F02A
:10001800CBEF1CF0EBEC1FF016C0B7F017C0B8F030
:1000280018C0B9F019C0BAF0EBEC1FF016C0BCF05C
:1000380017C0BDF018C0BEF019C0BFF0695027E066
:10004800010132510001BC5DAC6F01013351000167
:10005800BD59AD6F010134510001BE59AE6F0101A8
:1000680035510001BF59AF6FAC05A30EAD59E10E74
:10007800AE59110EAF5932E39FEC1EF0BCC032F1FD
:10008800BDC033F1BEC034F1BFC035F127D0010186
:100098002E510001BC5DAC6F01012F510001BD590B
:1000A800AD6F010130510001BE59AE6F01013151F0
:1000B8000001BF59AF6FAF5107E1E10EAC5D700EA3
:1000C800AD59720EAE590AE39EEC20F0BCC02EF179
:1000D800BDC02FF1BEC030F1BFC031F101012E51BA
:1000E8000001B75DAC6F01012F510001B859AD6F28
:1000F800010130510001B959AE6F010131510001C0
:10010800BA59AF6FAF5107E1E10EAC5D700EAD5952
:10011800720EAE590CE369500AE0EFEC12F0B7C06A
:100128002EF1B8C02FF1B9C030F1BAC031F1DBA35C
:1001380035D0EBEC1FF016C0B0F017C0B1F018C006
:10014800B2F019C0B3F0010122510001B05DAC6FEB
:10015800010123510001B159AD6F01012451000182
:10016800B259AE6F010125510001B359AF6FAF51BC
:1001780007E1210EAC5DA10EAD59070EAE590EE395
:10018800DB933D0E166E010E176E62C018F063C049
:1001980019F01B6A460E1A6EF7EC1EF00001DBB769
:1001A8000FD378EC07F0000901E10AD30001B46B22
:1001B800CE6BE5A503D0AC6BAC2B02D00001AC6BC9
:1001C800CE51AC19FC0BAC19CE6FE5A702D0CE8787
:1001D80002D00001CE97E551030BE80603E1AC6BB2
:1001E800AC2B02D00001AC6BAC3BAC47CE51AC1988
:1001F800DF0BAC19CE6FE5AF02D0CE8D02D0000177
:10020800CE9DE5AF04D0E6C0D1F0E7C0D2F0EEC095
:10021800CFF0EFC0D0F0EAC0D5F0E8C0D3F0E9C025
:10022800D4F0ECC0D7F0EBC0D6F0CEBB9CD2BDD298
:1002380069500AE0C26B20EE01F0D351D926D4519F
:10024800DA22FC51DE1803E0AFEC22F0AFD2030E45
:10025800FF19FAE0CF2902E1D0290BE0F051CF19BC
:1002680003E1F151D01905E0020ED56502D0F20E76
:1002780003D0FFEC15F00001C26F20EE03F0D3515C
:10028800D926D451DA22AA0EDE1820E1C06B040E5A
:10029800C06501D01BD0D1C016F0D2C017F0C05134
:1002A8000E0D410EF324186E010EF420196EB0ECF9
:1002B80021F0000908E0190E0001C025D96EDA6A9C
:1002C800010EDA22DF680001C02BE1D7FF0507E144
:1002D800C20505E0020EC21902E0F30EC26FDD6B23
:1002E800830EDD25D96EDA6A010EDA22910EDF6EF1
:1002F800DD2B830EDD25D96EDA6A010EDA22C2C043
:10030800DFFFDD2B830EDD25D96EDA6A010EDA22D6
:10031800D9C0DFFFDD2BC25102E0C2051BE1830E0D
:10032800DD25D96EDA6A010EDA22DAC0DFFFDD2BAD
:10033800C36BC3510FE1C351FE0FD96EDA6A830E46
:10034800DD25E16EE26A010EE222DFCFE7FFDD2B59
:10035800C32BEFD7AFEC22F0CFC091F0D0C092F012
:10036800D1C093F0D2C094F0010E0001956F000E39
:10037800CEB7010E966F000E13EC1AF0EFEC12F0E8
:10038800C25101E013D2D8510E0D3D0EF324166E62
:10039800010EF420176ED8510E0D6250F324186E1A
:1003A8006350F420196E1B6A0E0E1A6EF7EC1EF0DD
:1003B800FDD1020EFF6501D047D720EE01F0D351E1
:1003C800D926D451DA22FC51DE1801E03DD7DD6B85
:1003D800830EDD25D96EDA6A010EDA22970EDF6EFA
:1003E800DD2B830EDD25D96EDA6A010EDA22DAC03A
:1003F800DFFFDD2BC36BC3510FE1C351FE0FD96E75
:10040800DA6A830EDD25E16EE26A010EE222DFCFB1
:10041800E7FFDD2BC32BEFD7AFEC22F0CFC091F075
:10042800D0C092F0D1C093F0D2C094F0010E000178
:10043800956F000ECEB7010E966F000E13EC1AF0F2
:10044800B5D1DD6B830EDD25D96EDA6A010EDA22AD
:10045800920EDF6EDD2BC36B040EC36501D047D04F
:10046800C3510E0D490EF324D96E010EF420DA6E35
:10047800DFAE3AD0D1C016F0D2C017F00001C35198
:100488000E0D410EF324186E010EF420196EB0EC17
:1004980021F0000929E00001C3510E0D490EF32493
:1004A800D96E010EF420DA6EDF6AC3510E0D3D0ECF
:1004B800F324166E010EF420176EC3510E0D625010
:1004C800F324186E6350F420196E1B6A0E0E1A6E10
:1004D800F7EC1EF0830E0001DD25D96EDA6A010EF5
:1004E800DA22DF6ADD2B03D00001C32BB5D7AFECCE
:1004F80022F0050E0001C31909E1830EDD25D96E2E
:10050800DA6A010EDA22F00EDF6EDD2BCFC091F031
:10051800D0C092F0D1C093F0D2C094F0010E956F84
:10052800000ECEB7010E966F000E13EC1AF03ED1F6
:10053800F0291AE1F129D8A417D0CFC0F0F0D0C023
:10054800F1F0B569B669F00E1A6EB50ECBEC1EF077
:10055800F00E166E176A64C018F065C019F01B6AB1
:10056800020E1A6EF7EC1EF0FFEC15F0000120EEFB
:1005780002F0D351D926D451DA22DF50FD6FFD0E97
:10058800166E176AFAC018F0FBC019F01B6A010E44
:100598001A6EF7EC1EF00001DB83EBEC1FF016C0BF
:1005A80022F117C023F118C024F119C025F14CD647
:1005B80020EE01F0D351D926D451DA22DF50B8E029
:1005C800010AB6E041D6DBBBDB9B3ED620EE01F04C
:1005D800D351D926D451DA22DF5001E035D6C36B86
:1005E800040EC36501D030D6C3510E0D490EF32455
:1005F800D96E010EF420DA6EDFAE31D0D1C016F01C
:10060800D2C017F00001C3510E0D410EF324186E2D
:10061800010EF420196EB0EC21F0000920E0000171
:10062800C3510E0D490EF324D96E010EF420DA6E73
:10063800DF6AC3510E0D3D0EF324166E010EF42031
:10064800176EC3510E0D6250F324186E6350F420D8
:10065800196E1B6A0E0E1A6EF7EC1EF0F5D5000126
:10066800C32BBED7695001E0EFD5010EE46FECD57E
:10067800695001E0E9D520EE01F0D351D926D451D3
:10068800DA22DF50AC6FAC055B6ED3C01DF0D4C06E
:100698001EF0D4EC18F0D8D5695001E1D5D5D3C0F7
:1006A80016F0D4C017F0B2EC1BF00001BB6FBB29E9
:1006B8000DE0D3C0A5F0D4C0A6F0BBC0A7F0D1C050
:1006C800A8F0D2C0A9F0C8EC1AF0B46FB45101E197
:1006D800BBD5D1C0A0F0D2C0A1F097EC21F0B4D521
:1006E800695001E1B1D5C16B040EC16501D0ACD52B
:1006F800D1C0D9FFD2C0DAFFC1510E0D410EF3248B
:10070800E16E010EF420E26EDE50E6182AE120EEDA
:1007180001F0D151D926D251DA22C1510E0D420E23
:10072800F324E16E010EF420E26EDE50E61819E1C2
:1007380020EE02F0D151D926D251DA22C1510E0D44
:10074800430EF324E16E010EF420E26EDE50E6184B
:1007580008E1140EC125D96EDA6A010EDA22DF2A01
:1007680073D5C12BC1D7D3C0D9FFD4C0DAFFDF50AE
:10077800770A01E17DD70D0AB3E0FB0A01E158D5FC
:10078800030A01E15ED6050A01E113D6160A01E162
:100798000FD7030A01E11AD7050A01E114D75B0A4A
:1007A80001E17AD7160A01E15DD7DB870001D5514F
:1007B800D8A4DBB902D0DBAB03D0DB97AFEC22F0D7
:1007C8001200260E3C6E7DD3250E421809E022C089
:1007D800D9FF23C0DAFF42C0DFFF224A232A71D3A0
:1007E800406A416A436A446A09D0438605D0438017
:1007F80003D0448601D04384244A252A24C0F6FF26
:1008080025C0F7FF0800F550200AF1E0030AF1E0DF
:100818000E0AEBE01D0AEFE043B6439424C0F6FF4E
:1008280025C0F7FF0800F55093EC22F02EE3406A4C
:10083800416A40C016F041C017F0196A0A0E186ED6
:100848001AEC22F016C040F017C041F0D00E2E6E00
:100858002F6824C0F6FF25C0F7FF0800F550306E5A
:10086800316A2E5030262F503122305040263150D8
:100878004122244A252A24C0F6FF25C0F7FF080094
:10088800F55093EC22F014E3D4D724C0F6FF25C02A
:10089800F7FF0800F5502A0A0BE13C50D96EDA6AD6
:1008A800DECF40F0DDCF41F0020E3C26244A252A57
:1008B80024C0F6FF25C0F7FF0800F5502E0A30E1E6
:1008C800448C244A252A24C0F6FF25C0F7FF0800D7
:1008D800F5502A0A0AE13C50D96EDA6ADF503F6EB9
:1008E800020E3C26244A252A8BD03F6A0FD024C00A
:1008F800F6FF25C0F7FF0800F5CF2EF03F500A0D90
:10090800F3502E24D00F3F6E244A252A24C0F6FF28
:1009180025C0F7FF0800F55093EC22F071E3E7D704
:100928003F6A6ED0438C89D0438A438E86D03F502D
:100938000FE03FC02EF02F6A2EBE2F063A502E5CD5
:100948003B502F5805E23F503A6E3B6A3ABE3B0691
:1009580040503A5C41503B5805E23A50405E3B50AB
:10096800415A02D0406A416A43A609D01CD022C02D
:10097800D9FF23C0DAFF200EDF6E224A232A400661
:10098800D8A041064028F3E141280DE0F0D73950BE
:10099800D96EDA6A22C0E1FF23C0E2FFDFCFE7FFAA
:1009A800392A224A232A3A06D8A03B063A28EFE1F8
:1009B8003B28D8A4ECD743B609D083D222C0D9FFAC
:1009C80023C0DAFF200EDF6E224A232A4006D8A071
:1009D80041064028F3E1412801E173D2EFD73C50AA
:1009E800D96EDA6ADF50426E020E3C26420E396E2C
:1009F800000E3B6E010E3A6E9AD7C00E43121DD000
:100A080024C0F6FF25C0F7FF244A252A0800F5CFA1
:100A180042F0425001E161D2580A86E03B0ADFE029
:100A2800070A0BE00D0A09E0060A01E17BD71A0A5A
:100A3800E4E00D0A01E179D7D9D743C02EF0C00E02
:100A48002E1612E13C50D96EDA6ADECF3DF0DDCFCA
:100A58003EF0020E3C263EAE10D0030E43123D6C13
:100A68003E1ED8B03E2A09D03C50D96EDA6ADECF95
:100A78003DF0DDCF3EF0020E3C263F5047E13D50B1
:100A88003E1044E13F2A42D0010E426E050E421844
:100A980046E04250020DAD0EF324F66EFB0EF42034
:100AA800F76E0900F5503D5C0900F5503E5837E3F4
:100AB800422AECD7010E426E040E421830E0425032
:100AC800020DB70EF324F66EFB0EF420F76E090044
:100AD800F5503D5C0900F5503E5821E3422AECD719
:100AE800010E426E060E42181AE04250020DA10E87
:100AF800F324F66EFB0EF420F76E0900F5503D5C0A
:100B08000900F5503E580BE3422AECD74350C00B7E
:100B1800BBE0400AE5E0C00ACDE0400AB5E042503B
:100B2800800A2E6E3F50800A2E5C03E23FC042F0DE
:100B380009D03F50800A2E6E4250800A2E5CD8A001
:100B480042C03FF04050411008E043C02EF0030E71
:100B58002E1603E04006D8A0410644AC13D0800E00
:100B68003FBE7F0E2E6E40503F5C4150800A2E588B
:100B780007E23F50405E000E3FBEFF0E415A02D0D2
:100B8800406A416AC40E2E6E080E2F6E43C030F0C4
:100B980044C031F02E5030162F503116400E301808
:100BA8000BE1080E3118D8A407D04050411025E0B9
:100BB8004006D8A0410621D0C00E2E6E080E2F6E1A
:100BC80043C030F044C031F02E5030162F5031164B
:100BD800800E301812E1080E3118D8A40ED041BE8C
:100BE8000AD0415003E1030E405C05E3FE0E4026A7
:100BF800FF0E412202D0406A416A800E42BE7F0E3B
:100C08002E6E4050425C4150800A2E5807E24250F6
:100C1800405E000E42BEFF0E415A02D0406A416A51
:100C280043A450D043C02EF0030E2E1609E022C074
:100C3800D9FF23C0DAFF2D0EDF6E224A232A32D0D5
:100C480043A006D022C0D9FF23C0DAFF200EF4D774
:100C5800C00E2E6E080E2F6E43C030F044C031F027
:100C68002E5030162F503116800E30181BE1080E0A
:100C78003118D8A417D022C0D9FF23C0DAFF300E0C
:100C8800DF6E224A232A43BA03D0346A780E02D090
:100C9800346A580E336E22C0D9FF23C0DAFF33C03E
:100CA800DFFFCBD74050411001E1F3D022C0D9FF7C
:100CB80023C0DAFF300EDF6E224A232A4006D8A06E
:100CC8004106F0D740504110D8A443B60ED022C0F8
:100CD800D9FF23C0DAFF200EDF6E224A232A4006FE
:100CE800D8A0410640504110F2E143C02EF0030E57
:100CF8002E1609E022C0D9FF23C0DAFF2D0EDF6EC1
:100D0800224A232A08D043A006D022C0D9FF23C0F4
:100D1800DAFF200EF4D7C00E2E6E080E2F6E43C0D9
:100D280030F044C031F02E5030162F503116400E9E
:100D380030180DE1080E3118D8A409D022C0D9FF07
:100D480023C0DAFF300EDF6E224A232AA2D0C00E5B
:100D58002E6E080E2F6E43C030F044C031F02E5076
:100D680030162F503116800E30181BE1080E31183E
:100D7800D8A48FD022C0D9FF23C0DAFF300EDF6E8F
:100D8800224A232A43BA03D0366A780E02D0366A3A
:100D9800580E356E22C0D9FF23C0DAFF35C0DFFFF9
:100DA800D3D777D03F50020DAD0EF324F66EFB0E6D
:100DB800F420F76E0900F5CF18F00A00F5CF19F006
:100DC8003DC016F03EC017F039EC20F016C01DF0FB
:100DD80017C01EF0206A0A0E1F6E7FEC20F01D500F
:100DE80045D03DC016F03EC017F03F50020DB70E7B
:100DF800F324F66EFB0EF420F76E0900F5CF18F019
:100E08000A00F5CF19F039EC20F016500F0B326EAE
:100E180043BA04D06E0E376EFF0E03D05D0E376EE8
:100E2800FF0E386E325037242E6E000E38202F6E8B
:100E38002EC0F6FF2FC0F7FF0800F5CF42F022D0F2
:100E48003DC016F03EC017F03F50020DA10EF3242E
:100E5800F66EFB0EF420F76E0900F5CF18F00A00C5
:100E6800F5CF19F039EC20F01650070B300F426E11
:100E780009D04350C00B96E0400AE2E0C00AB1E056
:100E8800400A90E022C0D9FF23C0DAFF42C0DFFF4A
:100E98005BD73F063F28EDE143B641BE12D0415033
:100EA80002E140040EE322C0D9FF23C0DAFF200E7E
:100EB800DF6E224A232A4006D8A04106405041103E
:100EC800F2E124C0F6FF25C0F7FF244A252A0800CE
:100ED800F5CF42F0425001E077D422C0D9FF23C0B9
:100EE800DAFF000EDF6A120081A0F28259A00CD04E
:100EF80001013A5103E1800E395D04E3396B3A6B25
:100F0800599002D0394B3A2B6A680001866B86519A
:100F18004E0D000EF324D96E020EF420DA6EDF5067
:100F280003E086C06AF004D0862B010E8665EFD7F1
:100F3800020E6A60F7D1010E816F6A504E0D010EE4
:100F4800F324D96E020EF420DA6EDFBC02D0000161
:100F5800816B0001E56BED6B6A504E0D020EF324B8
:100F6800D96E020EF420DA6EDF50CC0B806FDCD124
:100F78006A504E0D060EF324D96E020EF420DA6E76
:100F8800DE280BE16A504E0D070EF324D96E020ECF
:100F9800F420DA6EDE28D8B4E585E58F81512EE09D
:100FA8006A504E0D040EF324D96E020EF420DA6E48
:100FB800DF50EE6F6A504E0D050EF324D96E020E07
:100FC800F420DA6EDF50EF6F6A504E0D080EF324EE
:100FD800E66F020EF420E76F6A504E0D000EF32400
:100FE800D96E020EF420DA6EDF50ED0FEA6F6A5008
:100FF8004E0D100EF324E86F020E34D16A504E0DD8
:10100800080EF324D96E020EF420DA6EDF50EE6F6C
:101018006A504E0D090EF324D96E020EF420DA6ED2
:10102800DF50EF6F6A504E0D0A0EF324E66F020E82
:10103800F420E76F6A504E0D000EF324D96E020EAD
:10104800F420DA6EDF50EB0FEA6F6A504E0D120E85
:10105800F324E86F020E06D1E58F81512EE06A5025
:101068004E0D040EF324D96E020EF420DA6EDF5012
:10107800EE6F6A504E0D050EF324D96E020EF42061
:10108800DA6EDF50EF6F6A504E0D0E0EF324E66FE6
:10109800020EF420E76F6A504E0D000EF324D96E4D
:1010A800020EF420DA6EDF50E70FEA6F6A504E0D39
:1010B800160EF324E86F020ED5D06A504E0D0E0EB0
:1010C800F324D96E020EF420DA6EDF50EE6F6A5008
:1010D8004E0D0F0EF324D96E020EF420DA6EDF5097
:1010E800EF6F6A504E0D100EF324E66F020EF420D7
:1010F800E76F6A504E0D000EF324D96E020EF420ED
:10110800DA6EDF50E50FEA6F6A504E0D180EF324C1
:10111800E86F020EA7D0E585E58F010EED6F6A50E6
:101128004E0D040EF324D96E020EF420DA6EDF5051
:10113800EE6F6A504E0D050EF324D96E020EF420A0
:10114800DA6EDF50EF6F6A504E0D060EF324E66F2D
:10115800020EF420E76F6A504E0D000EF324D96E8C
:10116800020EF420DA6EDF50F50FEA6F6A504E0D6A
:10117800080EF324E86F020E75D06A504E0D060E65
:10118800F324D96E020EF420DA6EDE280BE16A50E1
:101198004E0D070EF324D96E020EF420DA6EDE2807
:1011A800D8B4E585E58F010EED6F81512EE16A50C7
:1011B8004E0D080EF324D96E020EF420DA6EDF50BD
:1011C800EE6F6A504E0D090EF324D96E020EF4200C
:1011D800DA6EDF50EF6F6A504E0D0A0EF324E66F99
:1011E800020EF420E76F6A504E0D000EF324D96EFC
:1011F800020EF420DA6EDF50F10FEA6F6A504E0DDE
:101208000C0EF324E86F020E2DD06A504E0D040E1A
:10121800F324D96E020EF420DA6EDF50EE6F6A50B6
:101228004E0D050EF324D96E020EF420DA6EDF504F
:10123800EF6F6A504E0D080EF324E66F020EF4208D
:10124800E76F6A504E0D000EF324D96E020EF4209B
:10125800DA6EDF50F30FEA6F6A504E0D0A0EF32470
:10126800E86F020EF420E96F71D0E58F010EED6F83
:1012780081511BE06A504E0D040EF324D96E020E04
:10128800F420DA6EDF50EE6F6A504E0D050EF3242F
:10129800D96E020EF420DA6EDF50EF6F6A504E0DF1
:1012A8000D0EF324E66F020E95D66A504E0D0D0E04
:1012B800F324D96E020EF420DA6EDF50EE6F6A5016
:1012C8004E0D0E0EF324D96E020EF420DA6EDF50A6
:1012D800EF6F6A504E0D0F0EF324E66F020EA8D67C
:1012E8006A504E0D060EF324D96E020EF420DA6E03
:1012F800DE280BE16A504E0D070EF324D96E020E5C
:10130800F420DA6EDE28D8B4E5856A504E0D000E5A
:10131800F324D96E020EF420DA6EDF50F60F25D7CB
:10132800AFEC22F0000E15D18051080AD9E0880AE6
:1013380001E1F1D6080A01E120D7040A96E0440A3F
:1013480001E116D6040A01E187D6EAD76A504E0DA4
:10135800010EF324D96E020EF420DA6E0201DFA624
:10136800A3D0C00E0001806101D0DAD7E8C0D9FF50
:10137800E9C0DAFFDF50826F20EE01F0E851D9268C
:10138800E951DA22DF50836F20EE02F0E851D926C6
:10139800E951DA22DF50846F20EE03F0E851D926B4
:1013A800E951DA22DF50856F866B86510E0D490EA2
:1013B800F324D96E010EF420DA6EDFAE11D00001ED
:1013C80086510E0D410EF324166E010EF420176E91
:1013D800E6C018F0E7C019F0B0EC21F0000905E10B
:1013E8000001862B040E8665E0D7050E0001866194
:1013F80021D08651040D000EF324D96E010EF4207D
:10140800DA6EDE50825DDE508359DE508459DE503C
:10141800855986E38651040D000EF324D96E010E1A
:10142800F420DA6E82C0DEFF83C0DEFF84C0DEFFF8
:1014380085C0DEFF050EEA5F050EE825336E000E57
:10144800E921346EEA0E356EE6C036F0E7C037F0B3
:1014580082C038F083C039F084C03AF085C03BF0D0
:101468006A504E0D010EF324D96E020EF420DA6E86
:10147800DF503C6EFAEC0EF0000901E151D7050E81
:101488000001E827000EE923E5870ED0FC0E0001D5
:10149800E51720D00001E551FC0B0109E56F1AD0D2
:1014A800030E0001E51316D06A504E0D010EF32409
:1014B800D96E020EF420DA6EDF50070B4D6E4E6ABD
:1014C8004E5001E02DD74D50EBE0010ADFE0020A53
:1014D800E1E026D76A504E0D000EF324D96E020EB5
:1014E800F420DA6EDF504D6E6A504E0D4E684F682C
:1014F800000E506E020E516E4E5050264F50512223
:10150800F3505026F45051224D505024D96E000EFD
:101518005120DA6EDF50EC6F6A504E0D000EF32446
:10152800D96E020EF420DA6EDF504D6E6A504E0D01
:10153800000E4E6E020E4F6EF3504E26F4504F22A0
:101548004D504E24D96E000E4F20DA6EDF50EB6FEF
:10155800010E1200EBEC1FF016C026F117C027F1A0
:1015680018C028F119C029F1010E0001E16F40D21D
:1015780023EC1FF0000901E0F5D187EC1CF0000115
:10158800CB6FCB0504E0020ECB1901E0EBD169501B
:1015980035E0DD6BE26B060E166EDF512DEC22F0A6
:1015A800150D130E0101E76FFB0EE86FF350E727E7
:1015B800F450E8230001E2510101E727000EE82377
:1015C800E7C1F6FFE8C1F7FF830E0001DD25D96EFC
:1015D800DA6A010EDA220800F5CFDFFFDD2BE22BF5
:1015E800140EE265D8D7DF2B010EA1EC22F0DCC087
:1015F80017F0DE2BDE51F0EC22F0B4D1CD6B010EEA
:10160800E06FCA6FACD11AEC23F00001CD51FD197F
:1016180037E19C0E226E020E236E880E246EFE0E9B
:10162800256ECD51040DAE0EF324D96E010EF420B3
:10163800DA6EDF50266E276ACD51040DAB0EF32407
:10164800D96E010EF420DA6EDF50286E296ACD516A
:10165800040DAC0EF324D96E010EF420DA6EDF50BF
:101668002A6E2B6ACD51040DAD0EF324D96E010EEE
:10167800F420DA6EDF502C6E2D6AE5EC03F036D0DC
:101688009C0E226E020E236ED00E246EFE0E256E68
:10169800CD51040DAE0EF324D96E010EF420DA6E8E
:1016A800DF50266E276ACD51040DAB0EF324D96E98
:1016B800010EF420DA6EDF50286E296ACD51040D30
:1016C800AC0EF324D96E010EF420DA6EDF502A6EC8
:1016D8002B6ACD51040DAD0EF324D96E010EF42002
:1016E800DA6EDF502C6E2D6AE5EC03F09C0E226E4C
:1016F800020E236ED00E246EFE0E256E0001CD5113
:10170800040DAE0EF324D96E010EF420DA6EDF500C
:10171800266E276ACD51040DAB0EF324D96E010E47
:10172800F420DA6EDF50286E296ACD51040DAC0E14
:10173800F324D96E010EF420DA6EDF502A6E2B6A7C
:10174800CD51040DAD0EF324D96E010EF420DA6EDE
:10175800DF502C6E2D6AE5EC03F0AC0E226E020E03
:10176800236E7F0E246EFF0E256EE5EC03F019EC58
:1017780023F0010E0001E06FEED087EC1CF00001B1
:10178800CC6F23EC1FF0CC0501E0C6D0CA6BE06B30
:10179800CD51FD1932E1DD6BE26B060E166EDF519D
:1017A8002DEC22F0150D130E0101E76FFB0EE86F0B
:1017B800F350E727F450E8230001E2510101E7273D
:1017C800000EE823E7C1F6FFE8C1F7FF830E00012A
:1017D800DD25D96EDA6A010EDA220800F5CFDFFFBF
:1017E800DD2BE22B140EE265D8D7010EA46F000E94
:1017F800BCEC20F00001DE2B7FD0DD6B830EDD25F5
:10180800D96EDA6A010EDA22CC0EDF6EDD2BCD51ED
:10181800040DAB0EF324D96E010EF420DA6E830E9C
:10182800DD25E16EE26A010EE222DFCFE7FFDD2B64
:10183800CD51040DAC0EF324D96E010EF420DA6EEE
:10184800830EDD25E16EE26A010EE222DFCFE7FFBB
:10185800DD2BCD51040DAD0EF324D96E010EF4200D
:10186800DA6E830EDD25E16EE26A010EE222DFCF39
:10187800E7FFDD2B040EE26FFC0E0101E76FE8695C
:10188800060E166E0001DF512DEC22F0150D130E19
:101898000101E96FFB0EEA6FF350E927F450EA23E0
:1018A8000001E2510101E927000EEA23E751E92787
:1018B800E851EA23E9C1F6FFEAC1F7FF830E000108
:1018C800DD25D96EDA6A010EDA220800F5CFDFFFCE
:1018D800DD2BE22B180EE265CFD7010E17EC1BF0BB
:1018E800C96FC95187E1110E166EFF0E176E000EF3
:1018F800186A196A1DEC23F0DCC017F00001DE51EC
:10190800F0EC22F0050E176EDC0E166E44EC19F0A2
:1019180069501CEC23F01FD0020ECC191CE1CD51EC
:101928000101E76FE86BE969EA695B50EB6FEC6B03
:10193800E951EB27EA51EC23E751EB5DEC51800AC2
:10194800ED6FE851800AED5903E20001CD6B02D03A
:101958000001CD2BE06B0001E05101E00ED7CA0574
:1019680001E151D6E35106E0695004E1C46B7BEC18
:1019780017F0E36BEBEC1FF016C02AF117C02BF140
:1019880018C02CF119C02DF1010126512A5DE76F0D
:1019980027512B59E86F28512C59E96F29512D5996
:1019A800EA6FEA5107E1E10EE75D700EE859720E41
:1019B800E9591EE369501CE01AEC23F09C0E226ED4
:1019C800020E236E4B0E246EFF0E256E68C026F0A5
:1019D800276AE5EC03F019EC23F0070E176ED00E1A
:1019E800166E44EC19F00001E16B010E1CEC23F0BB
:1019F8000001E151D8B41200BBD5906B4AA402D0C3
:101A0800010E4D6E4AB64E6A4A50030BE80602E1D3
:101A1800030E04D04A50030B02E1010E8D6F5E5095
:101A28004F180EE15F505018D8A40AD05E2802E182
:101A38005F2806E0050E8E6F8D8D010E8C6F03D02A
:101A4800070E8E6F8C6B4D50020ED8B4080E8E2781
:101A58004E50020ED8B4080E8E274ABA4AB401D0A6
:101A68008D8B4A50030B030A07E18D6B070E8E6FAF
:101A78008C6B010E4E6E4A9A4AA613D08D8751C0C0
:101A880033F052C034F0530E356EBFC136F0C0C1CA
:101A980037F0C1C138F0C2C139F08DC03AF080ECDE
:101AA80010F0186A176A8EC019F09BEC1FF000013D
:101AB800902B4AA60CD090C017F0186A8E51532468
:101AC800050F196E9BEC1FF00001902B09D090C0F8
:101AD80017F0186A8E515324196E9BEC1FF0F4D737
:101AE80090C017F0186A8DC019F09BEC1FF0000128
:101AF800902B4A50030B030A12E190C017F0186AA2
:101B0800800E196E9BEC1FF00001902B90C017F00F
:101B1800186A57C019F09BEC1FF0572A77D04D5020
:101B28000CE04E500AE090C017F0186A880E196E43
:101B38009BEC1FF00001902B20D04D500AE04E5036
:101B480008E190C017F0186AC80E196E9BEC1FF0D8
:101B5800F1D74D500AE14E0408E190C017F0186A19
:101B68008C0E196E9BEC1FF0E5D790C017F0186A21
:101B7800CC0E196E9BEC1FF0DDD790C017F0186AD9
:101B880057C019F09BEC1FF0572A0001902B90C00A
:101B980017F0186A4FC019F09BEC1FF00001902B4A
:101BA80090C017F0186A50C019F09BEC1FF00001A4
:101BB800902B4AA40FD090C017F0186A19689BECB4
:101BC8001FF00001902B90C017F0186A19689BEC61
:101BD8001FF01CD04D501DE090C017F0186A4BC084
:101BE800D9FF4CC0DAFFDF50196E9BEC1FF00001E3
:101BF800902B90C017F0186A20EE01F04B50D926B0
:101C08004C50DA22DF50196E9BEC1FF00001902B2C
:101C180014D08F6B90C017F0186A8F514B24D96E6F
:101C2800000E4C20DA6EDF50196E9BEC1FF000019D
:101C3800902B8F2B070E8F65EDD78C5112E190C03A
:101C480017F0186A5EC019F09BEC1FF00001902B8A
:101C580090C017F0186A5FC019F09BEC1FF00001E4
:101C6800902B4E5013E090C017F0186A60C019F01E
:101C78009BEC1FF00001902B90C017F0186A61C010
:101C880019F09BEC1FF00001902B15D08F6B90C0C2
:101C980017F0186A8F5101013725D96E000E3821C7
:101CA800DA6EDF50196E9BEC1FF00001902B8F2B22
:101CB800070E8F65ECD74AA637D08F6B90C017F008
:101CC800186ABF0E8F25D96EDA6A010EDA22DF5044
:101CD800196E9BEC1FF00001902B8F2B030E8F6564
:101CE800EDD70101BF2B000EC023C123C223BF5172
:101CF80013E1C0C180F0030E000180170DE1BF0E93
:101D0800166E010E176E66C018F067C019F01B6AD0
:101D1800040E1A6EF7EC1EF090C017F0186A196AD4
:101D28009BEC1FF00001902B8F6B10D090C017F028
:101D3800186A8F515124D96E000E5220DA6EDF5086
:101D4800196E9BEC1FF00001902B8F2B53508F5D69
:101D5800EDE359804ABA4AB404D0050E8F6F598210
:101D680003D0010E8F6F59928FC017F0370EF2EC27
:101D780021F0EBEC1FF016C084F017C085F018C0F6
:101D880086F019C087F081A0F28259B005D059A415
:101D98002BD05994000E29D0EBEC1FF016C088F018
:101DA80017C089F018C08AF019C08BF0000184515F
:101DB800885D806F85518959816F86518A59826FF4
:101DC80087518B59836F8351821105E1210E805D04
:101DD8004E0E8159D8E30AEC15F05E0E1A6E600EAD
:101DE800CBEC1EF05990D6D7010E1200010E176EDB
:101DF8001B0EF2EC21F0040E176E730EF2EC21F0BC
:101E0800186A176A0D0E196E9BEC1FF0186A010EFE
:101E1800176E3550D96EDA6ADF500F0F196E9BECCA
:101E28001FF04B6A020E4A6E186A020E176E3CC00B
:101E380019F09BEC1FF04A4A4B2A4AC017F04BC0D6
:101E480018F038C019F09BEC1FF04A4A4B2A4AC0D8
:101E580017F04BC018F039C019F09BEC1FF04A4A34
:101E68004B2A4AC017F04BC018F03AC019F09BEC47
:101E78001FF04A4A4B2A4AC017F04BC018F03BC023
:101E880019F09BEC1FF04A4A4B2A4C6A4AC017F0DB
:101E98004BC018F04C503624D96E000E3720DA6E3D
:101EA800DF50196E9BEC1FF04A4A4B2A4C2A070E4A
:101EB8004C64ECD74C6A11D04AC017F04BC018F0EC
:101EC8004C503324D96E000E3420DA6EDF50196E70
:101ED8009BEC1FF04A4A4B2A4C2A3550D96EDA6AD5
:101EE800DE504C5CE9E3020E4B6E4C0E4A6E4C6AB7
:101EF8004AC017F04BC018F04C503624D96E000E6B
:101F08003720DA6EDF50196E9BEC1FF04A06D8A016
:101F18004B064C2A070E4C64EBD74C6A4AC017F0A4
:101F28004BC018F04C50380FD96EDA6ADF50196E72
:101F38009BEC1FF04A06D8A04B064C2A030E4C64B3
:101F4800EDD74AC017F04BC018F0040E196E9BEC81
:101F58001FF04A06D8A04B06020E4B6E800E4A6E42
:101F68004C6A4AC017F04BC018F0910E4C24F66E1C
:101F7800F76AFB0EF7220800F5CF19F09BEC1FF06B
:101F88004A4A4B2A4C2A0F0E4C64EBD7800E176E28
:101F98006F0EF2EC21F0040E176E590EF2EC21F0E0
:101FA800598C5980030E176E370EF2EC21F0EBECCA
:101FB8001FF016C041F017C042F018C043F019C016
:101FC80044F02ED081A0F282EBEC1FF016C045F051
:101FD80017C046F018C047F019C048F04150455C9A
:101FE8003D6E425046583E6E435047583F6E4450EF
:101FF8004858406E405007E1210E3D5CA10E3E5806
:10200800070E3F580DE30AEC15F01D6A58505EECB8
:1020180020F05E0E1A6E600ECBEC1EF0000E6BD038
:1020280059BCD0D7600EC8EC21F0496E49AC0FD02E
:10203800400E176E610EF2EC21F0176A730EF2EC87
:1020480021F0010E176E1B0EF2EC21F0E7D7355088
:10205800D96EDA6A186A010E176E73EC1FF0F30F67
:10206800DF6E15D03550D96EDA6A120E0ED03550A3
:10207800D96EDA6A0A0E09D03550D96EDA6A060EB8
:1020880004D03550D96EDA6A020EDF5E0FD0040E26
:10209800010AF7E0030AE6E0010AE9E0070AECE0D2
:1020A800010AE0E0030AE3E0010AE6E04B6A0F0EEA
:1020B8004A6E4C6A10D04C503324D96E000E34202E
:1020C800DA6E4AC017F04BC018F073EC1FF0DF6EE1
:1020D8004A4A4B2A4C2A3550D96EDA6ADE504C5C93
:1020E800EAE3176A730EF2EC21F0010E176E1B0E6D
:1020F800F2EC21F0010E1200010E176E1B0EF2EC2D
:1021080021F0040E176E730EF2EC21F0186A176AAC
:102118000D0E196E9BEC1FF0186A010E176E3550E4
:10212800D96EDA6ADF500D0F196E9BEC1FF0486A02
:10213800020E476E186A020E176E3AC019F09BEC31
:102148001FF0474A482A47C017F048C018F036C061
:1021580019F09BEC1FF0474A482A47C017F048C0BF
:1021680018F037C019F09BEC1FF0474A482A47C0BF
:1021780017F048C018F038C019F09BEC1FF0474A18
:10218800482A47C017F048C018F039C019F09BEC2E
:102198001FF0474A482A496A47C017F048C018F054
:1021A800495001013725D96E000E3821DA6EDF500B
:1021B800196E9BEC1FF0474A482A492A070E4964C2
:1021C800EBD7496A11D047C017F048C018F04950FA
:1021D8003324D96E000E3420DA6EDF50196E9BEC72
:1021E8001FF0474A482A492A3550D96EDA6ADE5024
:1021F800495CE9E3020E486E4C0E476E496A47C0D7
:1022080017F048C018F0495001013725D96E000E63
:102218003821DA6EDF50196E9BEC1FF04706D8A004
:102228004806492A070E4964EAD7496A47C017F0A1
:1022380048C018F04950360FD96EDA6ADF50196E67
:102248009BEC1FF04706D8A04806492A030E4964AC
:10225800EDD747C017F048C018F0040E196E9BEC74
:102268001FF04706D8A04806020E486E800E476E3B
:10227800496A47C017F048C018F0910E4924F66E15
:10228800F76AFB0EF7220800F5CF19F09BEC1FF058
:10229800474A482A492A0F0E4964EBD7400E176E61
:1022A8006F0EF2EC21F0040E176E590EF2EC21F0CD
:1022B800598C030E176E370EF2EC21F0EBEC1FF081
:1022C80016C03FF017C040F018C041F019C042F0E6
:1022D80029D081A0F282EBEC1FF016C043F017C0A2
:1022E80044F018C045F019C046F03F50435C3B6EBF
:1022F800405044583C6E415045583D6E42504658F7
:102308003E6E3E5007E1210E3B5CA10E3C58070E85
:102318003D5808E30AEC15F05E0E1A6E600ECBEC21
:102328001EF030D059BCD5D73550D96EDA6A186A44
:10233800010E176E73EC1FF0F30FDF6E486A0F0E75
:10234800476E496A10D049503324D96E000E3420A4
:10235800DA6E47C017F048C018F073EC1FF0DF6E54
:10236800474A482A492A3550D96EDA6ADE50495C0C
:10237800EAE3176A730EF2EC21F0010E176E1B0EDA
:10238800F2EC21F01200396EFDEC1BF00001DB6B62
:10239800395037E13D6A3D500E0D490EF324D96E90
:1023A800010EF420DA6EDF6A3D500E0D410EF32463
:1023B800D96E010EF420DA6EDF6A3D500E0D420E22
:1023C800F324D96E010EF420DA6EDF6A3D500E0D4B
:1023D800430EF324D96E010EF420DA6EDF6A140E70
:1023E8003D24D96EDA6A010EDA22DF6A190E3D241D
:1023F800D96EDA6A010EDA22DF6A3D2A040E3D64DC
:10240800CAD7E8EC22F00001DD6B3D6A3D50040DAF
:10241800000EF324D96E010EF420DA6EDE6ADE6A4D
:10242800DE6ADD6A3D2A040E3D64F0D7395073E058
:10243800FC0E166E176AF4C018F0F5C019F01B6A86
:10244800010E1A6EF8EC20F01F0E0001FC6501D099
:10245800C1D0F00E166E176A64C018F065C019F086
:102468001B6A020E1A6EF8EC20F0FF0E166E176A41
:10247800F2C018F0F3C019F01B6A010E1A6EF8ECDE
:1024880020F03D0E166E010E176E62C018F063C084
:1024980019F01B6A460E1A6EF8EC20F0690E166EDB
:1024A800176AF8C018F0F9C019F01B6A010E1A6E05
:1024B800F8EC20F0FD0E166E176AFAC018F0FBC093
:1024C80019F01B6A010E1A6EF8EC20F0680E166EF1
:1024D800176AF6C018F0F7C019F01B6A010E1A6ED9
:1024E800F8EC20F0EA0E176EFF0E186E63EC22F07F
:1024F8000001F15114EC21F00001F05114EC21F02D
:10250800D70E176EFF0E186E63EC22F00001FC5117
:1025180014EC21F035D0120EF16F340EF06FF00E7E
:10252800166E176A64C018F065C019F01B6A020EAF
:102538001A6EF7EC1EF0FC0E166E176AF4C018F04F
:10254800F5C019F01B6A010E1A6EF7EC1EF0FF0EAB
:10255800166E176AF2C018F0F3C019F01B6A010E64
:102568001A6EF7EC1EF03D0E166E010E176E62C065
:1025780018F063C019F01B6A460E1A6EF7EC1EF0CD
:10258800D30E3B6E010E3C6E3A823A50870B4009DF
:102598003A6E39B002D03A9401D03A843A903AC0AF
:1025A80033F03BC034F03CC035F06FEC1AF03768BC
:1025B8003868F00E1A6E370ECBEC1EF00001FC5195
:1025C8007EEC21F00001DA6BDA81DA87FF39F00B53
:1025D800DA13F28812006850040D040EF326000E78
:1025E800F422F4BE06D0F45007E1280EF35CD8B00C
:1025F80003D0010EA86F27D06850040D040EF324F1
:10260800166E000EF420176E196A280E186E4DEC1F
:102618001DF01650A86F6850040D040EF326000E26
:10262800F422F350F4100FE06850040D040EF32464
:10263800166E000EF420176E196A280E186E6BECD1
:102648001EF01650A827AA6BD0D0DD6B830EDD25AF
:10265800D96EDA6A010EDA22770EDF6EDD2B830E71
:10266800DD25D96EDA6A010EDA2268C0DFFFDD2BBC
:10267800AA51090D830EDD25D96EDA6A010EDA2218
:10268800F3CFDFFFDD2BAA29090D830EDD25D96ED7
:10269800DA6A010EDA22F3CFDFFFDD2B040EA76F13
:1026A800AA51090DF3CFABF067D06850AB5D63E278
:1026B800AB510E0D490EF324D96E010EF420DA6EDB
:1026C800DFAE3ED00001AB510E0D410EF324D96EA2
:1026D800010EF420DA6E830EDD25E16EE26A010E4A
:1026E800E222DFCFE7FFDD2BAB510E0D420EF324C4
:1026F800D96E010EF420DA6E830EDD25E16EE26AF2
:10270800010EE222DFCFE7FFDD2BAB510E0D430EAA
:10271800F324D96E010EF420DA6E830EDD25E16E06
:10272800E26A010EE222DFCFE7FFDD2B830EDD2513
:10273800D96EDA6A010EDA22ABC0DFFFDD2B19D0C1
:10274800830E0001DD25D96EDA6A010EDA22DF6810
:10275800DD2B830EDD25D96EDA6A010EDA22DF68F9
:10276800DD2B830EDD25D96EDA6A010EDA22DF68E9
:10277800DCD7040EA727AB2BAA51A06FA16BA02B07
:10278800000EA123090EA003F3CFA2F0F4CFA3F00B
:10279800A103F350A327AB51A46FA56BA251A45D6D
:1027A800A551800AA66FA351800AA65901E27DD7D8
:1027B800A7C0A9F0270EA96501D00BD0830EDD258F
:1027C800D96EDA6A010EDA22110EDF6EDD2BA92B23
:1027D800F1D7F0C091F0F1C092F0936B946B010EB9
:1027E800956F966B13EC1AF0AA2BA851AA5DD8B076
:1027F80012002BD7236E050E23642ED0380E176EC9
:10280800FF0E186E63EC22F0256A2550DA08D96E9F
:10281800000ED8A0E82A0108DA6EDF5014EC21F087
:10282800252A070E2564F1D7CB0E176EFF0E186EFA
:1028380063EC22F00001F15114EC21F00001F05199
:1028480014EC21F0BF0E176EFF0E186E63EC22F029
:102858000001FC5189EC1DF0050E236069D03C0E87
:10286800176EFD0E186E63EC22F023500E0D490E04
:10287800F324D96E010EF420DA6E0101DFAEC5D063
:10288800235014EC21F0B10E176EFF0E186E63EC96
:1028980022F0256A080E256019D023500E0D3D0E32
:1028A800216E010E226E0B0E2126000E2222F350FD
:1028B8002126F45022222550215CD96E2250D8A01E
:1028C8002204DA6EDF5014EC21F006D0BC0E176E2D
:1028D800FF0E186E63EC22F0252A070E2564DAD75E
:1028E800BA0E176EFF0E186E63EC22F0256A23509D
:1028F8000E0D3D0E216E010E226E0D0E2126000ECC
:102908002222F3502126F450222225502124D96E68
:10291800000E2220DA6EDF5014EC21F0252A255013
:10292800E6E0FC0E176EFF0E186E63EC22F06DD019
:102938003A0E176EFD0E186E63EC22F0256A2550CC
:102948000E0D490EF324D96E010EF420DA6E010142
:10295800DFAE57D0255014EC21F0B10E176EFF0EE4
:10296800186E63EC22F0246A080E246019D02550F2
:102978000E0D3D0E216E010E226E0B0E2126000E4D
:102988002222F3502126F45022222450215CD96EB1
:102998002250D8A02204DA6EDF5014EC21F006D0C1
:1029A800BC0E176EFF0E186E63EC22F0242A070E79
:1029B8002464DAD7BA0E176EFF0E186E63EC22F095
:1029C800246A25500E0D3D0E216E010E226E0D0E4D
:1029D8002126000E2222F3502126F45022222450D0
:1029E8002124D96E000E2220DA6EDF5014EC21F07B
:1029F800242A2450E6E0FC0E176EFF0E186E63ECD6
:102A080022F0252A040E25649AD712008B94030E0F
:102A1800286E296A2A6A2B6A19D09A0E206E020E2D
:102A2800216E226A236A2006000E215A225A235A4E
:102A38002028F9E12128F7E12228F5E12328D8A464
:102A4800F2D72806000E295A2A5A2B5A285029103C
:102A58002A102B10E2E18B840A0E2C6E2D6A2E6A46
:102A68002F6A19D09A0E246E020E256E266A276ADE
:102A78002406000E255A265A275A2428F9E1252823
:102A8800F7E12628F5E12728D8A4F2D72C06000E6E
:102A98002D5A2E5A2F5A2C502D102E102F10E2E19D
:102AA800070E176E550EF2EC21F0540EC8EC21F00B
:102AB800326E32C01FF0070E1F16F7E1306A316A16
:102AC800304A312AE80E305C030E3158F9E3010E22
:102AD800176E1B0EF2EC21F01768070EF2EC21F0CE
:102AE8001768090EF2EC21F01768030EF2EC21F0DA
:102AF8001768050EF2EC21F0326A325001013725D1
:102B0800D96E000E3821DA6EDF50176E3250020D82
:102B1800F3500B0FF2EC21F0322A070E3264EDD796
:102B2800020E186E176E800E196E9BEC1FF0020EC7
:102B3800186E030E176E196A9BEC1FF0020E186EC2
:102B4800060E176E900E196E9BEC1FF0020E186E93
:102B5800070E176E800E196E9BEC1FF0020E186E92
:102B6800080E176E100E196E9BEC1FF0020E186EF1
:102B7800200E176E210E196E9BEC1FF0800E176E3B
:102B8800750EF2EC21F0400E176E7D0EF2EC21F07E
:102B9800600E176E7F0EF2EC21F0980E176E310E54
:102BA800F2EC21F0950E176E5D0EF2EC21F0020E9C
:102BB800186E0F0E176E73EC1FF0326E3250A00BAA
:102BC800A00AF5E1E60E176E650EF2EC21F0020E92
:102BD800186E176A030E196E9BEC1FF0020E186E22
:102BE800010E176E020E196E9BEC1FF01D6A5850ED
:102BF8005EEC20F01200216A2268236A23500E0D31
:102C0800490EF324D96E010EF420DA6E0101DFAE0D
:102C180015D0D1C016F0D2C017F023500E0D410EBA
:102C2800F324186E010EF420196EB0EC21F000099F
:102C380009E023C022F0010E216E08D02228D8B462
:102C480023C022F0232A040E2364D8D7222802E1C5
:102C5800F10E8FD00001FF5102E021508AD022C02E
:102C6800D9F0236A2350D125D96E000ED221DA6E0D
:102C780022500E0D3D0E1D6E010E1E6E040E1D26F9
:102C8800000E1E22F3501D26F4501E2223501D2430
:102C9800E16E000E1E20E26EDFCFE7FF232A070E4B
:102CA8002364E0D722500E0D490EF324D96E010E8D
:102CB800F420DA6EDF8E000120EE02F0D351D9261F
:102CC800D451DA22DF501D6E010E1D1622500E0D52
:102CD800490EF324D96E010EF420DA6EDF501D1868
:102CE800FE0B1D18DF6E236A23500001D3251D6ECD
:102CF800000ED4211E6E030E1D24D96E000E1E2058
:102D0800DA6E22500E0D3D0E1F6E010E206E0D0E56
:102D18001F26000E2022F3501F26F4502022235095
:102D28001F24E16E000E2020E26EDFCFE7FF232A8A
:102D38002350DAE02250040D000EF324D96E010E60
:102D4800F420DA6EDE6ADE6ADE6ADD6A22C0D8F056
:102D5800DB9912EC20F0686E680E166E176AF6C0E2
:102D680018F0F7C019F01B6A010E1A6EF7EC1EF086
:102D780074D712000600F4CF10F0F2B8F2A2A4D073
:102D8800F292620EDDEC21F0126E12A00FD0599073
:102D980059BC599C0101396B3A6B59A207D0480EAE
:102DA800DDEC21F0116E11B05984599212A685D02C
:102DB8001468156A15504E0D000EF324D96E020ED4
:102DC800F420DA6EDF5003E115C014F004D0152AA0
:102DD800010E1564EFD7020E146068D0040E026E5F
:102DE800730E06EC22F014504E0D000EF324D96E2B
:102DF800020EF420DA6E030E036E026AC3EC1FF0B3
:102E0800020FDF6E14504E0D000EF324D96E020E21
:102E1800F420DA6E4D0EDF603FD0598A010E156E30
:102E28001AD014504E0D000E086E020E096EF350A3
:102E38000826F450092215500824D96E000E0920DE
:102E4800DA6E000E1524026E036A030E0322C3EC29
:102E58001FF0DF6E152A1550086E096A14504E0DC2
:102E6800000EF324D96E020EF420DA6EDF500A6EDB
:102E78000B6A020E0A26000E0B2208500A5C0B5041
:102E8800800A0C6E0950800A0C58CBE2010E026EC3
:102E98001B0E06EC22F005D0010E026E1B0E06EC8E
:102EA80022F0026A730E06EC22F007D0010E026EC1
:102EB8001B0E06EC22F05996599812A805D0800EE0
:102EC800026E590E06EC22F09EB09DA005D09E9091
:102ED8005C2A5C50D8B45D2A1EEC23F010C0F4FFC5
:102EE8000FC0F3FF0EC0DAFF0DC0D9FF1100FFC0FD
:102EF800DBF1030E0101DC6FDD6BEBEC1FF016C09C
:102F08002EF117C02FF118C030F119C031F10001AE
:102F1800C40502E1FF0E9BD0EBEC1FF016C0DEF1FA
:102F280017C0DFF118C0E0F119C0E1F1200E01016E
:102F3800DE5FA10EDF5B070EE05B000EE15B0001C8
:102F4800FF6BDB897ED0EBEC1FF016C0E2F117C0F7
:102F5800E3F118C0E4F119C0E5F10101DE51E25DC9
:102F68000001C56F0101DF51E3590001C66F01017E
:102F7800E051E4590001C76F0101E151E559000131
:102F8800C86FC85107E1210EC55DA10EC659070ECD
:102F9800C75951E3E2C1DEF1E3C1DFF1E4C1E0F179
:102FA800E5C1E1F10101DD07DD294BE1010EDD6F2E
:102FB800DC07DC2903E10001DB99ACD70001DD6BFC
:102FC800830EDD25D96EDA6A010EDA22810EDF6EF4
:102FD800DD2B830EDD25D96EDA6A010EDA22FCC0FC
:102FE800DFFFDD2B830EDD25D96EDA6A010EDA22CA
:102FF800DAC0DFFFDD2B0101E66BE651FE0FD96E6B
:10300800DA6A830E0001DD25E16EE26A010EE22232
:10301800DFCFE7FFDD2B0101E62BE651EEE0F0C044
:1030280091F0F1C092F00001936B946B010E956FD3
:10303800966B13EC1AF0F7EC22F00009D8A409EC0F
:1030480023F00001DBB97FD7DBC1FFF0D8511200B4
:103058000001A46FA42955E1A56BA5510E0D490ED9
:10306800F324D96E010EF420DA6EDFAE25D000010C
:10307800DD6B830EDD25D96EDA6A010EDA22820E47
:10308800DF6EDD2BF0C091F0F1C092F0A5510E0D6E
:10309800410EF324936F010EF420946F010E956F87
:1030A800000E966B13EC1AF0A06BA16BA04BA12B32
:1030B800A0290F0EA159FAE30001A5510E0D490EE2
:1030C800F324D96E010EF420DA6EDF6AA5510E0DD5
:1030D8003D0EF324166E010EF420176EA5510E0D49
:1030E8006250F324186E6350F420196E1B6A0E0E9A
:1030F8001A6EF7EC1EF00001A52B040EA565ADD7DE
:103108004ED0A4510E0D490EF324D96E010EF420B1
:10311800DA6E0101DFAE43D00001DD6B830EDD25E1
:10312800D96EDA6A010EDA22820EDF6EDD2BF0C06C
:1031380091F0F1C092F0A4510E0D410EF324936F5B
:10314800010EF420946F010E956F000E966B13EC30
:103158001AF0A26BA36BA24BA32BA2290F0EA359A3
:10316800FAE3A4510E0D490EF324D96E010EF42092
:10317800DA6EDF6AA4510E0D3D0EF324166E010EB1
:10318800F420176EA4510E0D6250F324186E63508C
:10319800F420196E1B6A0E0E1A6EF7EC1EF0120060
:1031A800040E226E22C01FF0030E1F1662E1225089
:1031B8001F6E206A030E1F26000E202220BE06D096
:1031C800205057E1280E1F5CD8B053D022501D2440
:1031D8001F6E000E1E20206E030E1F24D96E000ED7
:1031E8002020DA6EDF50216E2150040DAE0EF3243C
:1031F800D96E010EF420DA6E21C0DFFF22501D24A3
:10320800D96E000E1E20DA6E2150040DAB0EF32489
:10321800E16E010EF420E26EDFCFE7FF22501D249D
:103228001F6E000E1E20206E1F28D96E000E202053
:10323800DA6E2150040DAC0EF324E16E010EF42079
:10324800E26EDFCFE7FF22501D241F6E000E1E2006
:10325800206E020E1F24D96E000E2020DA6E215037
:10326800040DAD0EF324E16E010EF420E26EDFCF03
:10327800E7FF222A270E226495D7FDEC1DF01200E5
:103288001650186E1750196E1A6A1B6AA00E18028B
:10329800F3CF1CF0F4CF1DF01E6A1F6A1902F35019
:1032A8001D26F4501E22000E1F220F0E1802F35086
:1032B8001D26F4501E22000E1F22A00E1A02F350E3
:1032C8001E26F4501F220F0E1902F3501E26F4502A
:1032D8001F22000E1802F3501E26F4501F22A00EC3
:1032E8001B02F3501F260F0E1A02F3501F26000E62
:1032F8001902F3501F26000E1802F3501F261CC097
:1033080020F01DC021F01EC022F01FC023F0560E71
:103318002026FF0E21222222232223BE18D023504A
:10332800221021100BE1C40E205C11E307D000F03D
:10333800D90E2026FF0E21222222232223BE07D0C7
:10334800235022102110F3E12004D8B0F0D7120046
:10335800CEA706D0E10E176EFF0E186E63EC22F0B2
:103368000001CE51030B07E0520E176EFE0E186EC9
:1033780063EC22F006D06E0E176EFE0E186E63EC2C
:1033880022F00001D65114EC21F00001CEAD2FD06F
:10339800F30E176EFF0E186E63EC22F00001CEAF2D
:1033A80011D020EE01F0D151D926D251DA22DF50C6
:1033B80014EC21F0D1C0D9FFD2C0DAFFDF5014ECF1
:1033C80021F015D01C6A1C500001D15D1A6E000E48
:1033D800D2591B6E070E1A24D96E000E1B20DA6E06
:1033E800DF5014EC21F01C2A070E1C64ECD7C80E21
:1033F800176EFF0E186E63EC22F01C6A0AD01C5080
:10340800D325D96E000ED421DA6EDF50FEEC22F0FF
:103418001C2A0001D5511C5CD8B01200F0D7986F57
:10342800996B955103E0546A542A01D0546A0001FB
:1034380099515418FC0B5418996F985103E1546A28
:10344800542A01D0546A543A5446000199515418E8
:10345800DF0B5418996F98B102D0999502D00001EA
:10346800998596B102D0999702D0000199879D6BF2
:103478009851010ED8B4000E9C6F985103E1546A1C
:10348800542A01D0546A543A54465446000199517A
:103498005418BF0B5418996F998F93C09AF094C021
:1034A8009BF091C09EF092C09FF020EE99F000EE44
:1034B8004AF0060EDBCFEBFFE806FCE2830E516E06
:1034C800010E526EDDC053F001EC0DF00001976F54
:1034D800DD6B9751120033C036F134C037F135C077
:1034E80038F1D6CF57F00B0E586E0AEC15F0596A22
:1034F800366A36504E0D000EF324D96E020EF420B3
:10350800DA6EDF6A362A010E3664F3D733A422D086
:10351800BF0E166E010E176E66C018F067C019F060
:103528001B6A040E1A6EF8EC20F00101D890040E04
:10353800C027000EC123C223BF0E166E010E176EE0
:1035480066C018F067C019F01B6A040E1A6EF7EC13
:103558001EF019D00101BF6BC06BC16BC26BBF0EEF
:10356800166E010E176E66C018F067C019F01B6A58
:10357800040E1A6EF7EC1EF0010E0101BF6F000E6B
:10358800C06BC16BC26B1200DD6BA8C0D9FFA9C0AC
:10359800DAFF830EDD25E16EE26A010EE222DFCF5B
:1035A800E7FFDD2B20EE01F0A851D926A951DA2238
:1035B800830EDD25E16EE26A010EE222DFCFE7FF2E
:1035C800DD2B20EE02F0A851D926A951DA22830E6C
:1035D800DD25E16EE26A010EE222DFCFE7FFDD2B97
:1035E800030EAB6FAB51A525D96E000EA621DA6E7E
:1035F800830EDD25E16EE26A010EE222DFCFE7FFEE
:10360800DD2BAB2B270EAB65EDD7010EA46FA751B1
:10361800BCEC20F00001AA6FAA51D8B474EC22F0D7
:103628000001AA5112000101DB6F0001E46BF0C038
:1036380091F0F1C092F0410E936F010E946F010E5C
:10364800956FDBC196F0000E13EC1AF0EBEC1FF04F
:1036580016C0DCF117C0DDF118C0DEF119C0DFF1CA
:103668002BD0EBEC1FF016C0E0F117C0E1F118C049
:10367800E2F119C0E3F1F7EC22F00101DC51E05D61
:103688000001C46F0101DD51E1590001C56F01015D
:10369800DE51E2590001C66F0101DF51E359000113
:1036A800C76FC75107E1A10EC45D860EC559010E4B
:1036B800C65902E3E40503E10001E451D2E0E45114
:1036C80012000001C96FC95107E0010EC7EC11F0E3
:1036D80069501CEC23F041D089908992000EC7EC08
:1036E80011F0190E7EEC21F0000903E1190E52ECDD
:1036F80022F0000EDAEC20F0000E216E190E34ECE8
:103708001EF00001C46B7BEC17F0CA6FCA2907E0F2
:10371800010E216E190E34EC1EF0696A0BD00A0EE8
:10372800206E000E216A226A236A246A4BEC1FF07D
:10373800010E696E690E166E176AF8C018F0F9C0A6
:1037480019F01B6A010E1A6EF7EC1EF0FF0EFEEC64
:1037580013F0898069501CEC23F012001A6A41D0DA
:103768001A500E0D490EF324D96E010EF420DA6EAC
:103778000101DFAE35D01A500E0D410EF324D96E7B
:10378800010EF420DA6E10EE01F01650E126175003
:10379800E222DE50E61824E11A500E0D420EF32400
:1037A800D96E010EF420DA6E10EE02F01650E12602
:1037B8001750E222DE50E61813E11A500E0D430EA0
:1037C800F324D96E010EF420DA6E10EE03F01650D1
:1037D800E1261750E222DE50E61802E11A5008D01E
:1037E8001A2A68501A5CBCE368501A18D8B4FF0E3D
:1037F8001200010E1B6E01013B6B3C6B176A020E37
:10380800166E640E186E65EC21F01B16176A010E11
:10381800166EF40E186E65EC21F01B16176A010E71
:10382800166EF20E186E65EC21F01B16176A460E1E
:10383800166E620E186E65EC21F01B16176A040EE0
:10384800166E660E186E65EC21F01B16176A010ECF
:10385800166EF60E186E65EC21F01B16176A010E2F
:10386800166EF80E186E65EC21F01B16176A010E1D
:10387800166EFA0E186E65EC21F01B161200EBECB2
:103888001FF016C02CF017C02DF018C02EF019C06C
:103898002FF0EBEC1FF016C030F017C031F018C055
:1038A80032F019C033F02C50305C286E2D5031584E
:1038B800296E2E5032582A6E2F5033582B6E2B50AB
:1038C80021E1810E285C840E29581E0E2A581AE21E
:1038D80001D018D087EC1CF0346E020E341811E1B8
:1038E800FC0E166EFE0E176E000E186A196A1DEC95
:1038F80023F0030E176EE80E166E44EC19F0010E55
:1039080001D0000E120081BA10D05A503EE1010ECB
:103918005A6EEBEC1FF016C01EF117C01FF118C04D
:1039280020F119C021F1010E31D081B810D05A50C0
:103938002CE1010E5A6EEBEC1FF016C01EF117C0F9
:103948001FF118C020F119C021F1020E1FD0EBECB5
:103958001FF016C024F017C025F018C026F019C0B3
:1039680027F001011E51245C206E1F512558216E3D
:1039780020512658226E21512758236E2350221099
:1039880003E1400E215CD8B05A6A000E120002EE24
:1039980000F0BD0EEE6AE806FDE101EE00F0C30E90
:1039A800EE6AE806FDE100EECEF0300EEE6AE806BB
:1039B800FDE100EE57F0130EEE6AE806FDE17A0E1F
:1039C800F66E450EF76E000EF86E01EEC3F010EEBF
:1039D80018F00900F5CFEEFFE550E150FAE1300E9E
:1039E800F66E460EF76E000EF86E0900F5CFFEF083
:1039F8000900F5CFFFF03E0EF66E460EF76E000E8C
:103A0800F86E0900F5CF6AF0000EF86E000140EF7D
:103A180022F0170E166EFE0E176E186A010E196E3A
:103A28001DEC23F0C10E176EFC0E186E63EC22F02D
:103A3800BA0E176EFD0E186E63EC22F0B90E176EF3
:103A4800FE0E186E63EC22F0430E176EFC0E186E15
:103A580063EC22F0830E176EFC0E186E63EC22F0F6
:103A6800010E176EFC0E186E63EC22F0BF0E176E77
:103A7800FB0E186E63EC22F0FE0E176EFC0E186E2D
:103A880063EC22F0FA0E176EFF0E186E63EC22F04C
:103A980012001B6A19AE06D0186C191ED8B0192A64
:103AA800010E1B6E17AE06D0166C171ED8B0172A5B
:103AB800010E1B1A1C6A1D6A185019101BE0010E12
:103AC8001A6E04D0D890183619361A2A19AEFAD7B1
:103AD800D8901C361D361850165C1950175805E337
:103AE8001850165E1950175A1C80D890193218327F
:103AF8001A2EEED71B5004E01C6C1D1ED8B01D2AD0
:103B08001CC016F01DC017F01200206E630E206452
:103B180010D0640E1A6E20504BEC21F01E6E1F6AF6
:103B2800C30E1E24D96E010E1F20DA6EDF50FEEC84
:103B380022F0090E206414D00A0E1A6E640E166E56
:103B480020502DEC22F04BEC21F01E6E1F6AC30EA4
:103B58001E24D96E010E1F20DA6EDF50FEEC22F013
:103B68000A0E166E20502DEC22F01E6E1F6AC30E30
:103B78001E24D96E010E1F20DA6EDF50FEEC22F0F3
:103B880012001AEC23F09C0E226E020E236E900E89
:103B9800246EFF0E256EE5EC03F0AC0E226E020ECD
:103BA800236EE60E246EFE0E256E45C0D9FF46C074
:103BB800DAFFDF50266E276A20EE01F04550D9263D
:103BC8004650DA22DF50286E296A20EE02F045506E
:103BD800D9264650DA22DF502A6E2B6AE5EC03F02C
:103BE80019EC23F0040E176EB00E166E44EC19F0A3
:103BF80012001B6A695033E11C6A1AD01C50040D6C
:103C0800AB0EF324D96E010EF420DA6E0101D35104
:103C1800DE180DE11C50040DAC0EF324D96E010E14
:103C2800F420DA6EDE50D41902E1010E1B6E1C2A54
:103C38005B50166E176A162A000E17221C50186E53
:103C4800196A1650185C1950800A1A6E1750800AA3
:103C58001A58D4E31B5003E1010E0001E36F120070
:103C6800226E21501AE19A0E166EFD0E176E22C0B2
:103C780018F0010E196E1DEC23F0F90E176EFD0EEB
:103C8800186E63EC22F0225089EC1DF0FC0E176EC2
:103C9800FF0E186E63EC22F019D0DA0E166EFD0EC8
:103CA800176E22C018F0010E196E1DEC23F0350EA8
:103CB800176EFE0E186E63EC22F0225089EC1DF090
:103CC800FC0E176EFF0E186E63EC22F012001B6AD2
:103CD80017AE06D0166C171ED8B0172A010E1B6E29
:103CE80019AE04D0186C191ED8B0192A185019101A
:103CF80017E0010E1A6E04D0D890183619361A2A11
:103D080019AEFAD71850165C1950175804E3185012
:103D1800165E1950175AD890193218321A2EF2D73F
:103D28001B5004E0166C171ED8B0172A16C016F0E0
:103D380017C017F01200566A56500E0D490EF3249C
:103D4800D96E010EF420DA6E0101DFAE1BD0140E1D
:103D58005624D96EDA6A010EDA22DF500CE1190E08
:103D68005624D96EDA6A010EDA22DE2804E05650AB
:103D78002CEC18F007D0140E5624D96EDA6A010E0E
:103D8800DA22DF6A562A040E5664D6D7040C1B6E54
:103D98001B50D96EDA6ADF50606E1B50D96EDA6A32
:103DA800D92ADF50616E1A50D96EDA6ADF505E6E1A
:103DB8001A50D96EDA6AD92ADF505F6E60C017F0E0
:103DC800070EF2EC21F061C017F0090EF2EC21F0B9
:103DD8005EC017F0030EF2EC21F05FC017F0050E7D
:103DE800F2EC21F0120026D019C0AAFF18C0A9FFD2
:103DF80016C0D9FF17C0DAFFDF50A86E164A172A77
:103E0800A69EA69CA684000EF2BE010E1C6EF29E13
:103E1800550EA76EAA0EA76EA6821CB002D0F29EFF
:103E280001D0F28EA6B2FED7A6941A06D8A01B0619
:103E3800184A192A1A501B10D8B41200D5D7F7EC13
:103E480022F0C46FC45120E0ACEC19F0DC2BDCC0CC
:103E580017F0DE51F0EC22F0070E176ED00E166E3A
:103E680044EC19F0897269500AE10001CE51030B44
:103E780006E1D3C045F0D4C046F0C5EC1DF009EC0E
:103E880023F069501CEC23F00001C4511200256E88
:103E980020D0120EF16F340EF06F26682768F00EEE
:103EA8001A6E260ECBEC1EF0EBEC1FF016C02EF1AE
:103EB80017C02FF118C030F119C031F1EBEC1FF029
:103EC80016C032F117C033F118C034F119C035F1FA
:103ED80005D02550DEE0010AD8A4030A1200000E1E
:103EE800F2B8010E1C6EF2988B9017C019F018C02A
:103EF8001AF0D8901A321932D8901A321932D8904A
:103F08001A32193219507F0B8009C9EC22F0173880
:103F1800E846E00BC9EC22F004EC23F01B6E8B8022
:103F28001CB002D0F29801D0F2881B501200000E8B
:103F3800F2B8010E1C6EF2988B9017C01AF018C0D8
:103F48001BF0D8901B321A32D8901B321A32D890F4
:103F58001B321A321A507F0B8009C9EC22F017382D
:103F6800E846E00B1009C9EC22F01950C9EC22F020
:103F78008B801CB002D0F29801D0F2881200000E9B
:103F8800F2B8010E076EF2988B9002C004F003C0DD
:103F980005F0D89005320432D89005320432D89012
:103FA8000532043204507F0B8009D4EC22F0023829
:103FB800E846E00BD4EC22F00EEC23F0066E8B8082
:103FC80007B002D0F29801D0F288065012009D90F6
:103FD8001E6A1F6A1B6ACECF1CF0CFCF1DF01C28AB
:103FE80009E11D28D8A406D01B2A1B041A6E020E4C
:103FF8001A64F1D79EA004D01E2A5C28D8B41F2AC0
:104008005C501E265D501F269D801CC016F01DC0EA
:1040180017F01EC018F01FC019F01200166A176AB0
:1040280017500E0D410EF324D96E010EF420DA6EEE
:10403800DF5014E117500E0D420EF324D96E010E15
:10404800F420DA6EDF500AE117500E0D430EF32408
:10405800D96E010EF420DA6EDF50D8A4162A172A7A
:10406800040E1764DDD7165012001B6A1C6A18501C
:1040780019101BE0010E1A6E04D0D89018361936A4
:104088001A2A19AEFAD7D8901B361C361850165C67
:104098001950175805E31850165E1950175A1B8007
:1040A800D890193218321A2EEED71BC016F01CC041
:1040B80017F012001E6E0A0E1E6403D01A0E1E643C
:1040C80002D0000E17D01EC058F0020E186E176AE4
:1040D8001E50100DF350500F0309196E9BEC1FF082
:1040E800040E176E6D0EF2EC21F0176A6D0EF2ECED
:1040F80021F0010E12001F50201017E0010E216E52
:1041080004D0D8901F362036212A20AEFAD71F5067
:104118001D5C20501E5804E31F501D5E20501E5A7F
:10412800D89020321F32212EF2D71DC01DF01EC09C
:104138001EF01200DD6B830EDD25D96EDA6A010EE2
:10414800DA227A0EDF6EDD2BF0C091F0F1C092F02A
:10415800410E936F010E946F010E956F000E966BD2
:1041680013EC1AF0556E555002E1010EE36F120080
:10417800556E55500E0D490EF324D96E010EF420DC
:10418800DA6E0101DFAE10D055500E0D410EF3244A
:104198000001A06F010EF420A16F010EA26FA4C050
:1041A800A3F084EC22F001D0000E12001E6E030E64
:1041B8001E6401D018D01EC0FFF0FFC01DF01D3ACC
:1041C800F00E1D160001DA510F0B1D10DA6FFF0EED
:1041D800166E176AF2C018F0F3C019F01B6A010EC8
:1041E8001A6EF7EC1EF0120016D019C0AAFF18C0FC
:1041F800A9FFA69EA69CA68016EC23F016C0D9FFA0
:1042080017C0DAFFA8CFDFFF164A172A1A06D8A068
:104218001B06184A192A1A501B10D8B41200E5D7E1
:10422800186E18C017F018380F0B186EC30E182424
:10423800D96EDA6A010EDA22DF50FEEC22F017504E
:104248000F0B186EC30E1824D96EDA6A010EDA2223
:10425800DF50FEEC22F01200D190F26AF16AF06AA7
:104268009368FD0E8B6ED00E946EC00EC76E200E36
:10427800C66E0F0EC16E040E896EF80E926E8B809C
:104288009490F292D08EF19CF28EF28C12001B6EFA
:104298001D6A1A5014E0010E1C6E03D0D8901A360D
:1042A8001C2A1AAEFBD7D8901D361A501B5C03E3A4
:1042B8001A501B5E1D80D8901A321C2EF4D71D5040
:1042C800120016503B25196E17503C211A6E19041E
:1042D800040E1A5802E3000E0CD01850D96EDA6A90
:1042E8003BC1DEFF3CC1DDFF16503B2717503C2386
:1042F800010E12001F6E1D6A1F505EEC20F00009AF
:1043080010E01FC0FCF0FC0E166E176AF4C018F01F
:10431800F5C019F01B6A010E1A6EF7EC1EF0010EBB
:1043280001D0000E1200DD6B830EDD25D96EDA6A2E
:10433800010EDA22DA0EDF6EDD2BF0C091F0F1C04B
:1043480092F0A0C093F0A1C094F0010E956F000EFA
:10435800966B13EC1AF012001C6A1C501824D96EC4
:10436800000E1920DA6E1C501624E16E000E17207C
:10437800E26EDE50E61802E0000E05D01C2A070E99
:104388001C64EBD7010E1200176E000EF2B8010E76
:10439800196EF2988B901750C9EC22F004EC23F0B8
:1043A800186E8B8019B002D0F29801D0F28818509C
:1043B8001200026E000EF2B8010E046EF2988B9095
:1043C8000250D4EC22F00EEC23F0036E8B8004B084
:1043D80002D0F29801D0F28803501200186E000E35
:1043E800F2B8010E196EF2988B901850C9EC22F0B1
:1043F8001750C9EC22F08B8019B002D0F29801D086
:10440800F2881200036E000EF2B8010E046EF298E4
:104418008B900350D4EC22F00250D4EC22F08B8025
:1044280004B002D0F29801D0F28812001650180297
:10443800F3CF1AF0F4CF1BF016501902F3501B26D5
:1044480017501802F3501B261AC016F01BC017F09D
:104458001200176E080E186E196AD890173419349E
:10446800196ED89017361650195C02E31650195E6B
:10447800182EF3D71950120030EC21F0DFEC22F09F
:10448800E8EC22F00DEC1DF043EC1CF00101EE6F9E
:10449800EE5165EC1BF013EC23F0FDD7216EA10E55
:1044A800176EFE0E186E63EC22F0215089EC1DF099
:1044B8006C0E176EFD0E186E63EC22F0120003D01E
:1044C8001950FEEC22F017C0F6FF18C0F7FF174A84
:1044D800182A0800F5CF19F01950D8B41200F0D7EF
:1044E800250E176EFF0E186E63EC22F0A10E166EE5
:1044F800FF0E176E186A010E196E1DEC23F01200DC
:10450800F0C091F0F1C092F0A0C093F0A1C094F077
:10451800000E956BA3C096F013EC1AF01200186EFB
:10452800176A3A0E186005D02F0E186402D0010ED3
:10453800176E17C016F016301200556EF0C091F0C5
:10454800F1C092F0936B946B956B55C096F0010E89
:1045580013EC1AF01200020E6A600AD06A504E0D6F
:10456800000EF324D96E020EF420DA6E000EDF6A14
:10457800120030313233343536373839414243440A
:104588004546FF11223344556611166E9E96C95052
:10459800C69E16C0C9FFC6BEFBD79EB61200FDD781
:1045A800016E9E96C950C69E01C0C9FFC6BEFBD704
:1045B8009EB61200FDD7948E949C240EAC6E900E7D
:1045C800AB6E330EAF6E1200050ECD6E9E909D80C1
:1045D800CD805C6A5D6A1200186E17C016F018501C
:1045E8001BEC23F012000EEC00F00001010EDBA71B
:1045F800000E1200166EACA2FED716C0ADFF120058
:10460800000EC9EC22F0C95012000001DB97AFEC94
:1046180022F01200000ED4EC22F0C9501200AEECC9
:104628000AF0120000F0120001031200120012003A
:08463800120012001200FF0045
:10FB12000020B2202020B22020B220B220202020BB
:10FB220020B220B20D0AB220B220B220B220202090
:10FB3200B22020B22020B220200D0AB22020B22012
:10FB420020B220B220B22020B22020B220B20D0A70
:10FB5200B22020B22020B220B22020B220B220B2A5
:10FB62002020B20D0AB22020B22020B220B22020E2
:10FB720020B220B2202020B20D0A202020202020F6
:10FB8200202020202020202020202020200D0A00BC
:10FB92000102030405060708090A0B0C0D0E0F01EA
:10FBA200000800400000020010008001000A00640A
:10FBB20000E803102701001000000100100D0A20C8
:10FBC2002020202020202020202020202020202033
:10FBD200202020203220746F20756E696361737457
:10FBE20020656E63727970746564206D65737361EC
:10FBF20067652E204C454420322077696C6C000DDD
:10FC02000A20202020202020202020202020202008
:10FC1200202020202020427574746F6E20312074C1
:10FC22006F2062726F616463617374206D657373B8
:10FC32006167652E205075736820427574746F6E0B
:10FC4200000D0A20202020202020202020202020FB
:10FC52002020202020202020506F776572206F6E98
:10FC62002074686520626F61726420756E74696CBD
:10FC7200204C45442031206C69676874732075708C
:10FC8200000D0A20202020202020202020202020BB
:10FC92002020202020202020746F20696E64696358
:10FCA20061746520636F6E6E656374696E67207739
:10FCB20069746820706565722E2050757368000D36
:10FCC2000A5374617274696E67204E6F64652031E5
:10FCD200206F662053696D706C652044656D6F20DE
:10FCE200666F72204D69576928544D29205354413B
:10FCF2005220537461636B202E2E2E000D0A202099
:10FD020020202020202020202020202020202020F1
:10FD1200202020626520746F67676C6564207570AF
:10FD22006F6E20726563656976696E67206D6573B3
:10FD320073616765732E20000D0A0D0A436F6E6EA4
:10FD4200656374696F6E2020202020506565724CB7
:10FD52006F6E6741646472657373202020202050A7
:10FD6200656572496E666F0D0A00206973206E6FB9
:10FD72007420737570706F7274656420696E20638D
:10FD8200757272656E7420636F6E666967757261F3
:10FD920074696F6E2E0D0A00436F6E6E656374692F
:10FDA2006E67205065657220206F6E204368616E19
:10FDB2006E656C20256420000D0A20202020205230
:10FDC20046205472616E736365697665723A204D9E
:10FDD200524632344A34300020436F6E6E6563748B
:10FDE2006564205065657220206F6E204368616EE5
:10FDF2006E656C202564000D0A436F6E6E65637438
:10FE0200696E672050656572206F6E204368616E6F
:10FE12006E656C200053696D706C652053544152BD
:10FE220020202020204D524632344A3430204E6F5A
:10FE32006465000D0A436F6E6E65637465642050DD
:10FE4200656572206F6E204368616E6E656C20007E
:10FE520042726F616463617374205061636B657495
:10FE6200207769746820525353492000556E6963A4
:10FE7200617374205061636B6574207769746820C4
:10FE82005253534920005242303A253032642D25D4
:10FE920030327825303278253032782D6D65000D7C
:10FEA2000A53656C656374696F6E206F66206368C0
:10FEB200616E6E656C20000D0A20202044656D6F16
:10FEC20020496E737472756374696F6E3A005242A0
:10FED200303A253032642D2530327825303278257B
:10FEE2003032780020416464726573733A2530328F
:10FEF20078253032782530327800526573746F720B
:10FF0200696E67204E6574776F726B202121004401
:10FF12006174615F53656E64696E675F4661696CA7
:10FF22002121000D0A556E6963617374204661696F
:10FF32006C65640D0A000D0A0D0A4D792041646456
:10FF4200726573733A20307800454E445F444556DB
:10FF520049434553203A253032640030313233343C
:10FF62003536373839414243444546003031323321
:10FF7200343536373839616263646566005242321D
:10FF82003A204368616E6765206E6F646500446164
:10FF92007461205061636B65742066726F6D00201E
:10FFA200556E6963617374204661696C65640020F3
:10FFB200202020202020202020202020002020433C
:10FFC20068616E6E656C3A2000202050414E4944B3
:10FFD2003A20307800204368616E6E656C3A0053B7
:10FFE20065637572656420000D0A50414E49443ABA
:0EFFF200002066726F6D20000D0A0D0A0000DF
:020000040020DA
:08000000FFFFFFFFFFFFFFFF00
:020000040030CA
:0E000000FF061F10FF8081FF0FC00FE00F40B2
:00000001FF
