:040000008131112910
:100008007E1480318B1DFF282700961CFF28961030
:100018006230A23184228031F800781C292820001F
:100028005E105E1F18285E132200C801C901200057
:10003800DE1C29284830A23184228031F700771C41
:10004800272820005E152000DE10F81DF728FF3055
:10005800FA00FB017B08F0004530F101F200F301E2
:1000680098310020803166302000A0002330A100A4
:100078007008200786007108213D87000108031DCC
:1000880048287B08FA004D280230FB0A7B02031C33
:100098002E2802307A020318F1280430F100733058
:1000A800A2319A2280310330F101F200A231AF224D
:1000B8008031023E2000A0007A08F0004530F101AE
:1000C800F200F30198310020803166302000A10051
:1000D8002330A20070082107A3007108223DA40064
:1000E8002308860024088700200881007A08F00089
:1000F8004530F101F200F30198310020803166307B
:100108002000A0002330A100700820078600710895
:10011800213D8700443001020318E828DE16FB0160
:10012800FB0A7A08F0004530F101F200F30198313A
:100138000020803166302000A0002330A100700824
:10014800200786007108213D87000108023EA200B1
:10015800003003180130A300803AA4008030240244
:10016800031DB8287B082202031CE8287B08F1003D
:100178000330F201F207A231AF2280312000A00043
:100188007B08A100A2017A08F0004530F101F200D5
:10019800F30198310020803166302000A30023301D
:1001A800A40070082307A5007108243DA6002108B3
:1001B8002507A7002208263DA8002708860028084A
:1001C80087002008810094281B30F101F10AA23130
:1001D8009A2280317330F101F4281B30F101F10AC1
:1001E800A2319A228031781EFF288030F1005930E0
:1001F800A2319A2280312000111C0D292100111CE6
:100208000D2920001110FD0A7D08031D0D2922006B
:10021800DA0A8731F6277E100900883101289731DC
:10022800892781312C082300C00020002B082300D7
:10023800BF0020002A082300BE0020002908230050
:10024800BD002200D501D50A22005508031908006F
:1002580004248131003A031D1D2B98238131240089
:10026800CE004E0303193C2902304E06031D1D2BF8
:1002780020006508031989292100EC012000DF010D
:1002880021006C08203E86000230870006302000DE
:10029800A900220053087E23AE001530AF01B0003C
:1002A800B1019F31EB27813100302400C800A8300C
:1002B800C90020002E0824004807CA0020002F0883
:1002C8002400493DCB0020005F0824004A07840031
:1002D8004B0803184B0A8500000881002100EC0A2E
:1002E80020001530DF0A5F02031C44292200003079
:1002F800D30A5F248131220051082000D90022004E
:10030800D20A5208FD2381311D2B2400D00122007E
:10031800D401D40A2400CD01CD0A24004D03031DC5
:100328001D2B8A3111228131640824005006031DD7
:10033800A229F9302000B500A830A62912302000E3
:10034800B500A930B6002400500809070907A33EE4
:1003580086000130870001082000B700B80124009A
:10036800500809070907A03E860001082000B900C7
:10037800BA012400500809070907A13E86000108B0
:100388002000BB00BC012400500809070907A23E51
:10039800860001082000BD00C530BE018A318E22CA
:1003A80081311230B500A930B60024005008090781
:1003B8000907A33E86000130870001082000B70026
:1003C800B8012400500809070907A03E8600010863
:1003D8002000B900BA012400500809070907A13E06
:1003E800860001082000BB00BC0124005008090752
:1003F8000907A23E860001082000BD00C530BE01E5
:100408008A318E2281319B30B500A930B600D530B3
:100418008A318E2281318A31202281312200D40111
:10042800D40A220054080319912998238131240001
:10043800CF000424813124004F0BFD2ACD01220076
:10044800D4012000640824005006031D6D2A2100F1
:10045800EC012000DF0121006C08203E86000230FC
:10046800870006302000A900220053087E23AE0032
:100478001530AF01B000B1019F31EB278131003059
:100488002400C800A830C90020002E08240048070E
:10049800CA0020002F082400493DCB0020005F0837
:1004A80024004A0784004B0803184B0A85000008FB
:1004B80081002100EC0A20001530DF0A5F02031CCE
:1004C8002F2A21000030B801392481312200D20AB4
:1004D800EB2A2100EC016C08203E860002308700E0
:1004E800CC308100EC0A6C08203E860024005008BD
:1004F80009070907A03E8400013085000008810033
:100508002100EC0A6C08203E8600240050080907E8
:100518000907A13E8400000881002100EC0A6C084C
:10052800203E86002400500809070907A23E8400DF
:100538000008810021000430EC0A2000DF002100BF
:100548006C08203E86000230870006302000A90093
:10055800220053087E23AE001530AF01B000B10170
:100568009F31EB278131FC302400C800A730C90037
:1005780020002E0824004807CA0020002F08240065
:10058800493DCB0020005F0824004A0784004B083F
:1005980003184B0A8500000881002100EC0A20009E
:1005A8001930DF0A5F02031CA32A0030712481314D
:1005B8002400CC004C08031D6A2A53302000D700C1
:1005C800A930D800D901DA018831F7208131220019
:1005D80051082000D90022005208FD23DC30B50064
:1005E8000530B6008931572181316508972381315B
:1005F800152A02304F06031D152A22005608FF3E11
:100608002400C800FF3003180030C9004908803AA8
:10061800CA0080304A02031D132B500848020318F1
:10062800182B2400D0011A2B2400D00A2200D40150
:10063800152A2200570803192C2B20006508031DD2
:100648002C2B2100D9018E31BE2681312200D70101
:100658009731892781312C082300C40020002B08FA
:100668002300C30020002A082300C2002000290814
:100678002300C1003D0841022400C80023003E08B1
:10068800423B2400C90023003F08433B2400CA0022
:1006980023004008443B2400CB004B08031D5C2B7F
:1006A8008D3048028630493B47304A3B031C282995
:1006B80020006508031928298A3111228131673001
:1006C800B500A930B6006208B700C530B8018A3154
:1006D8008E2281318A3120228131D030B500073015
:1006E800B60089315721813122000130D501972385
:1006F800813128292000AB000830AC00AD012B085F
:10070800AA000730AA36890B862B2D352A04AD009E
:10071800AB3529082D02031C932B2908AD02AC0B1D
:10072800832B2D080800080020000D18B32B220089
:100738005008031D0034D001D00A973189272C08AE
:100748002300BC0020002B082300BB0020002A083F
:100758002300BA00200029082300B90001348C1AAC
:10076800CD2B22005008031D0034D001D00A973148
:1007780089272C082300BC0020002B082300BB007D
:1007880020002A082300BA00200029082300B90005
:1007980002349731892781312C08B6002B08B5001F
:1007A8002A08B4002908B3003608BA003508B90089
:1007B8003408B8003308B700230039082000B7020E
:1007C80023003A082000B83B23003B082000B93B2F
:1007D80023003C082000BA3B3A08031DFA2B3908CD
:1007E800031DFA2B40303802031C00342200D001CC
:1007F80000342000DA005908D7005A08A031E82848
:1008080056248131D90059080319322C2200D10A03
:1008180051082000D90022005208FD23D030B5002D
:100828000730B600893157218131403022008F06C8
:1008380020006508031D2E2C22002B080339031DF8
:100848002E2C31082000D800220030082000D700C4
:10085800D324813135248131650897232100590833
:1008680008002100EB119731702F2000DB000E30BB
:10087800A9005B089631E6268131AC3E860002303D
:100888008700811F00342100B601B60A3808B70076
:100898000E302000A9005B089631E6268131A43E7F
:1008A800983115289231362221006B0CD800D80CCB
:1008B800580C013908002000DA0021006E082000D9
:1008C800D40021006D082000D300D501D601D7013E
:1008D8005A08D80001309931DB292100E5002200AF
:1008E800D80121006E082000D40021006D082000E6
:1008F800D300A430D5000230D600D701D70A210092
:1009080065082000D80000309931DB21813197310A
:10091800892781312C082100E00020002B082100C4
:10092800DF0020002A082100DE002000290821001D
:10093800DD0022005808031DD12C97318927813109
:100948002C082100E40020002B082100E3002000EF
:100958002A082100E200200029082100E10056248D
:1009680081315D086102D9005E08623BDA005F08E8
:10097800633BDB006008643BDC005C08031DCD2C96
:100988005B08031DCD2C25305902F4305A3B031C5B
:100998009D2C2200580303199D2C580808008A3101
:1009A80011228131AC30B500A930B600C5308A318A
:1009B8008E2281312830B500A930B600570886004C
:1009C800580887000108B700B8015708860058087A
:1009D800870041310108B900BA0157088600580854
:1009E800870042310108BB00D530BC018A318E2214
:1009F80081318A312022B030B5000430B600893107
:100A080057292000FF30C001C100C2010E30A900E3
:100A180042089631E6268531AC3E860002308700D2
:100A2800811F312D22002F082000AD0022002E0842
:100A38002000AC000E30A90042089631E626853128
:100A4800A43EAE009731B9278531003A0319352DF8
:100A58004208C100C001C00A3A2D410F352D420895
:100A6800C1000530C20A4202031C0A2D410F3D2D68
:100A7800F13421006F080319442D200040080800B4
:100A8800200041082200CF0020000E30C201A9003A
:100A980041089631E6268531A43E4207BB00860010
:100AA800023087004208BC00BD0122002E078400E6
:100AB80020003D0822002F3D85000008810020000D
:100AC8000830C20A42020E30A9004108031C4D2D0D
:100AD8009631E6268531AC3E8600023087008117C4
:100AE80022003008860031088700013042310105B4
:100AF8002000BB000E30A90041089631E62685315A
:100B0800AC3E86000230870001083B06FE393B06F2
:100B18008100C2010E30A90041089631E6268531D0
:100B2800AD3E4207BB008600023087004208BC0089
:100B3800BD01220030072000BE003D082200313DE3
:100B48002000BF003E0884003F08850003310008EC
:100B58008100C20A03198E2D41082200CD00210010
:100B68006B12CA25E2006230B4000030B5002200E2
:100B780064082000B700220063082000B600B8010E
:100B8800B80AB90197310A27400808002000AC01CB
:100B9800AD010E30A9002D089631E6268531A43E18
:100BA8008600023087000108031DF32D0E30A900CE
:100BB8002D089631E6268531A53E8600023087004D
:100BC8000108031DF32D0E30A9002D089631E626E5
:100BD8008531A63E8600023087000108031DAC0A55
:0E0BE8000530AD0A2D02031CCD2D2C0808008F
:100C00008E31422E8B31C42B8B31C42B8B31C42BB4
:100C10008B31C42B8B31C42B8B31C42B8B31C42B28
:100C20008B31C42B8B31C42B8B31C42B8B31C42B18
:100C30008B31C42B8B31C42B8B31C42B8B31C42B08
:100C40008B31C42B8B31C42B8B31C42B8B31C42BF8
:100C50008B31C42B8B31C42B8B31C42B8B31C42BE8
:100C60008B31C42B8B31C42B8B31C42B8B31C42BD8
:100C70008B31C42B8B31C42B8B31C42B8B31C42BC8
:100C80008B31C42B8B31C42B8B31C42B8B31C42BB8
:100C90008B31C42B8B31C42B8B31C42B8B31C42BA8
:100CA0008B31C42B8B31C42B8B31C42B8B31C42B98
:100CB0008B31C42B8B31C42B8B31C42B8B31C42B88
:100CC0008B31C42B8B31C42B8B31C42B8B31C42B78
:100CD0008B31C42B8B31C42B8B31C42B8B31C42B68
:100CE0008B31C42B8B31C42B8B31C42B8B31C42B58
:100CF0008B31C42B8B31C42B8B31C42B8B31C42B48
:100D00008B31C42B8B31C42B8B31C42B8B31C42B37
:100D10008B31C42B8B31C42B8B31C42B8B31C42B27
:100D20008B31C42B8B31C42B8B31C42B8B31C42B17
:100D30008B31C42B8B31C42B8B31C42B8B31C42B07
:100D40008B31C42B8B31C42B8B31C42B8B31C42BF7
:100D50008B31C42B8B31C42B8B31C42B8B31C42BE7
:100D60008B315A2B8B31C42B8B31C42B8B31C42B41
:100D70008B31C42B8B31C42B8B31C42B8B31C42BC7
:100D80008B31C42B8B31C42B8B31C42B8B31BD2BBE
:100D90008B31E22B8B31C42B8B31C42B8B31C42B89
:100DA0008B31C42B8B31E22B8B31C42B8B31C42B79
:100DB0008B31C42B8B31C42B8B31C42B8B31582BF3
:100DC0008B31C42B8B31C42B8B31C42B8B31C42B77
:100DD0008B31C42B8B31CA2B8B31C42B8B31C42B61
:100DE0008B315B2B6400013080010131FE02003049
:0C0DF000FF3B7F087E0403190034F32E43
:100E00009631212E9631C52E9631C52E9631722EF1
:100E10009631C52E9631C52E9631C52E9631C52EEA
:100E20009631C52E9631C52E9331752B9431B52C44
:100E30009631C52E9631C52E9631C52E9631C52ECA
:100E40009431642C9631C52E9631C52E9631C52E1F
:100E50009631C52E9631C52E9631C52E9631C52EAA
:100E60009631C52E9631C52E9531A72D9531B92DC8
:100E70009631C52E9631C52E9631C52E9631C52E8A
:100E80009531B42D9631C52E9631C52E9631C52E8D
:100E90009631C52E9631C52E9631C52E9631C52E6A
:100EA0009631C52E9631C52E9631C52E9631C52E5A
:100EB0009631C52E9631C52E9631C52E9631C52E4A
:100EC0009631C52E9631C52E9631C52E9631C52E3A
:100ED0009631C52E9631C52E9631C52E9631C52E2A
:100EE0009631C52E9631C52E9631C52E9631C52E1A
:100EF0009631C52E9631C52E9631C52E9631C52E0A
:100F00009631C52E9631C52E9631C52E9631C52EF9
:100F10009631C52E9631C52E9631C52E9631C52EE9
:100F20009631C52E9631C52E9631C52E9631C52ED9
:100F30009631C52E9631C52E9631C52E9631C52EC9
:100F40009631C52E9631C52E9631C52E9631C52EB9
:100F50009631C52E9631392E9631C52E9631C52E35
:100F60009631C52E9631C52E9631C52E9631C52E99
:100F70009631C52E9631C52E9631C52E9631C52E89
:100F80009631C52E9631C52E9631C52E9631192E25
:100F90002000DA010E30A9005A089631E626873182
:100FA000AC3E860002308700811FEF2F5A08353E85
:100FB0008600013087000108031DE92F5A08B43E5E
:100FC0008600010A0319E92F5A08913161218731FE
:100FD000EF2F5A08353E860001308700810120003E
:0E0FE0000530DA0A5A0203180800CA2F08006A
:10100200FF30E60021000330EF0022000130EF0044
:101012002300FF30E6001130E7002230E8003330D1
:10102200E9004430EA005530EB006630EC00113044
:10103200ED0066308400233085008A30FE00FF0117
:101042008631F2268831FC01FD012000DE01DF013C
:10105200E001E101E201E301E401E50121002030C8
:10106200EB01EC01ED01EE018400013085004D3011
:10107200FE000030FF008631F2268831A030840065
:10108200013085004630FE000030FF008631F22636
:10109200883120308400023085002830FE00003084
:1010A200FF008631F2268831A030840002308500AC
:1010B2004630FE000030FF008631F22688317E1075
:1010C20020006328A131472188317D208831742096
:1010D200A131D82188312100EA006A0888208831AC
:1010E200DD2788317128DB302000D700A830D800F6
:1010F200D901DA01DA0AF7283830980011102100F4
:10110200111420001814FD012200DA010800220047
:10111200ED006D08031995280130903101208831C6
:10112200200065088331972B8F130F130030903105
:101132000120883119307A278831003A031DA4280A
:1011420019309B26883100309C2688311930DC0109
:10115200E12088312100FF30D901BE2688312200EA
:10116200EE006E0A0319BD2820001930DC01DC0AEA
:10117200E1208831E501C9280A302000B30000309F
:10118200B401B501B601B70197272000E501E50AD0
:101192006530B4000030B50022006A082000B700B4
:1011A200220069082000B600B801B80AB9019731D7
:1011B2000A27883122008F17200065088331972B78
:1011C200DD005C08031DEE289C30D700A830D80053
:1011D2005D08D900DA01DA0AF728BC30D700A83056
:1011E200D8005D08D900DA01DA0AF728112288311D
:1011F2000530B500B601572188315808B6005708A6
:10120200B5005908B700C530B8018E2288312022B6
:1012120088315A0803190800DB01FA30B500B6011B
:10122200572188310830DB0A5B02031808000E29B7
:1012320021000C1122000C150A302000B500B60165
:101242005721883126000C1327000C130A30200086
:10125200B500B6015721883127000C17FA278831CB
:10126200DF27A031CD2088310030B32188310A3008
:10127200B500B601572188313C309A2188310A30B5
:10128200B500B601572188310C309A2188310A30D5
:10129200B500B6015721883101309A2188310A30D0
:1012A200B500B601572188310C309A293508A900BA
:1012B2003608AA000930AB01AC01B001AF01AE00A3
:1012C200C430AD00D02188312C08BA002B08B900F7
:1012D2002A08B8002908B7005630B707FF30B83DD2
:1012E200B93DBA3DBA1B08003A08031D82293908E4
:1012F200031D82293808031D8229C4303702031CCA
:101302000800BA1B08003A08031D91293908031D79
:1013120091293808031D912901303702031C080066
:101322000000D9302000B707FF30B83DB93DBA3DC3
:1013320082292000AC000030B32188312C08F5212D
:1013420088310000000000004030B32188310000E5
:10135200000000000000000000000000000000008B
:101362000030B3292000AA0000308B190130AB00F5
:101372008B1122000C1140309731ED278831123049
:101382009731ED2788312A089731ED2722000C1575
:1013920020002B0C031C8B1103188B150800B101C4
:1013A200B201B301B401291CDE292D08B1072E08B0
:1013B200B23D2F08B33D3008B43DAD35AE0DAF0D93
:1013C200B00DAC36AB0CAA0CA90C2C082B042A04C9
:1013D2002904031DD4293408AC003308AB003208B9
:1013E200AA003108A9000800AA0000308B190130B8
:1013F200AB008B1122000C1140309731ED27883160
:1014020013309731ED2788312A089731ED272200D2
:101412000C1520002B0C031C8B1103188B150800D4
:1014220001309A2188310230B500B60157212030AF
:10143200A900AA01AB00C530AC01A031BA288030A6
:1014420073228831BC013C08C53E8600013087000A
:101452000108031D2E2A2030342A3C08C53E86008E
:10146200013087000108582288311030BC0A3C0242
:10147200031C242AC030732288311030BC003C087F
:10148200C53E8600013087000108031D4A2A20302C
:10149200502A3C08C53E86000130870001085822C8
:1014A20088312030BC0A3C0203180800402ABB00E5
:1014B200B501B50AB601572188318030B321883190
:1014C2003B08F52188310000000000000000C03018
:1014D200B32188310000000000000000000000007D
:1014E2000030B329BB000030B3218831B501B50A01
:1014F200B601572188313B08F521883100000000F0
:10150200000000004030B3218831000000000000DC
:101512000000000000000030B329D4003730CD00B5
:1015220020003608C0003508BF00B50A0319B60A04
:101532008400400885000008D30053080319422E96
:10154200253053060319AD2A54088600013087005E
:1015520053088100D40A912AD101D201D501D601C2
:10156200BC2AD515B92A5514B92AD615B92A551542
:10157200B50A0319B60A3508840036088500000842
:10158200203A0319B42A033A0319B62A0E3A031968
:10159200B22A1D3A0319B82ACE2AD51DD12A5511CD
:1015A200350884003608850000086D268831031C42
:1015B200062BD101D2010A30AE00AF015208B100B0
:1015C2005108B0009F31EB2788312F08D2002E0836
:1015D200D10035088400360885000008D03EBF00DF
:1015E200FF3003180030C0003F08D1074008D23D49
:1015F200B50A0319B60A35088400360885000008C2
:101602006D268831031C1A2BDC2A35088400360823
:10161200850012002A3A031D1A2B4D088600870105
:10162200403FD100413FD200CD0ACD0AB50A03198D
:10163200B60A350884003608850012002E3A031DCA
:10164200562B5617B50A0319B60A35088400360810
:10165200850012002A3A031D392B4D0886008701A6
:101662000108D000CD0ACD0AB50A0319B60ACD2B5E
:10167200D001350884003608850000086D268831BF
:10168200031CCD2B35088400360885000008BF00F6
:101692000A30A90050089631E62688313F07D03E2D
:1016A200D000B50A0319B60A3A2BD001CD2B551733
:1016B200E22BD516D517E22B50080319722B5008CE
:1016C200BF00C001BF1BC0034C084002031D6B2BAF
:1016D2004B083F020318722B5008CB00CC01CB1BE6
:1016E200CC0352084C02031D782B51084B020318FD
:1016F2007F2B4B08D1024C08D23B812BD101D20166
:10170200D51D8B2BA02B540886000130870020307A
:101712008100D40AFF30D107031CD203510F842B5E
:10172200520A0319A02B842B54088600013087002B
:1017320049088400850100088100C90AD40A0130E1
:10174200CB020030CC3B4B0F952B4C0A031D952B43
:10175200D519B32B912A5408860001308700203016
:101762008100D40AFF30D107031CD203510FAC2BE6
:10177200520A0319912AAC2B4D08860087010108F1
:10178200D300CD0ACD0A5330C900CB01CB0ACC011C
:101792005D2BC030D504E22B3608C0003508BF00EF
:1017A200B50A0319B60A8400400885000008D30070
:1017B2008400793004020318C42B86310435003EBC
:1017C20082005508C039031DF92B4D088600870198
:1017D200403FCE00413FCF00CD0ACD0ACF1F022CA1
:1017E2000330D504CE09CF09CE0A0319CF0A022C41
:1017F2004D0886008701403FCE00413FCF00CD0A11
:10180200CD0A5008031D622C4E084F04031D622CA2
:10181200D00A622CD3010530D30A53060319702C67
:101822005308BF008A30C001BF35C00D3F07840096
:10183200A830403D8500003FC100013FC2004F0279
:10184200031D252C41084E02031C702C0C2CD301C5
:101852000430D30A53060319702C5308BF00943086
:10186200C001BF35C00D3F078400A830403D850050
:10187200003FC100013FC2004F02031D422C41083C
:101882004E02031C702C292CD3010630D30A5306B6
:101892000319702C5308BF007E30C001BF35C00D44
:1018A2003F078400A830403D8500003FC100013F52
:1018B200C2004F02031D5F2C41084E02031C702C14
:1018C200462C5508C03903190B2C403A0319452CF4
:1018D200C03A0319282C403A03190B2C702C5308D8
:1018E200803ABF005008803ABF02500803187B2C90
:1018F200D300842C803ABF005308803ABF020318F9
:10190200842C5308D000510852040319902C550816
:1019120003390319902CFF30D107031CD203561F41
:10192200B02C5008BF00C001BF1BC0034008803A62
:10193200C1005208803A4102031DA12C51083F0206
:101942000318AD2C20005008BF00C001BF1BC0030C
:10195200D1024008D23BB02C2000D101D201C430C8
:101962005505BF0008305605C00040303F0608301C
:1019720003194006031DC32C510852040319E42C19
:10198200FF30DD2CC0305505BF0008305605C000C1
:1019920080303F06083003194006031DE42C52082C
:1019A200803ABF0080303F02031DD92C0330510220
:1019B200031CE12CFE302000D107031CD203E42CCF
:1019C2002000D101D2015308BF00C001BF1BC003D8
:1019D2004008803AC1005208803A4102031DF32CAC
:1019E20051083F020318FF2C20005308BF00C0011A
:1019F200BF1BC003D1024008D23B022D2000D101FF
:101A0200D201551D482D5508033903190E2D5408CE
:101A12008600013087002D30362D551C162D5408B6
:101A22008600013087002030362DC0305505BF00BA
:101A320008305605C00080303F06083003194006C2
:101A4200031D382D54088600013087003030810094
:101A5200D40AD51A2E2D78302F2D5830C300C40148
:101A6200540886000130870043088100D40A5108D7
:101A720052040319212E54088600013087003030A9
:101A82008100FF30D40AD107031CD203382D51083C
:101A92005204031DD5195C2D5408860001308700BD
:101AA20020308100FF30D40AD107031CD203510831
:101AB2005204031D4D2D550803390319662D540890
:101AC2008600013087002D306D2D551C6F2D540876
:101AD20086000130870020308100D40AC0305505CD
:101AE200BF0008305605C00040303F0608300319D9
:101AF2004006031D822D54088600013087003030D5
:101B02001F2EC0305505BF0008305605C00080307A
:101B12003F06083003194006031D212E5408860093
:101B22000130870030308100D40AD51A9A2D7830DE
:101B32009B2D5830C500C60154088600013087002D
:101B420045081F2E0A30B000B1015008BF008A308C
:101B5200C001BF35C00D3F078400A830403D85005D
:101B6200003FA900013FAA004F08AC004E08AB009D
:101B7200482688312A08B3002908B2007B2688311A
:101B82003008092E4F08AC004E08AB005008BF00C9
:101B92009430C001BF35C00D3F078400A830403DDE
:101BA2008500003FA900013FAA0048268831290884
:101BB200CA000F30CA05D51AE22D8A30C700A930F3
:101BC200E52D7930C700A930C800C0004708BF0022
:101BD2004A083F07840040080318400A85000008AD
:101BE2000A2E5008BF007E30C001BF35C00D3F072E
:101BF2008400A830403D8500003FA900013FAA00B3
:101C02004F08AC004E08AB00482688312908073936
:101C1200303ED3001A2E5508C0390319A32D403A7D
:101C22000319F22DC03A0319C32D403A0319A32D0B
:101C32001A2E540886000130870053088100D40A06
:101C4200D003500F0C2ED51D912A5208803ABF00A6
:101C520080303F02031D2F2E01305102031C912AB6
:101C62002000540886000130870020308100FF30B8
:101C7200D40AD107031CD203510852040319912A32
:101C8200312E540886000130870081010800AE0120
:101C9200AF0129082A040319682EAD01AD0AAA1B57
:101CA200552EA935AA0D4F2EAE35AF0D2A082C029E
:101CB200031D5D2E29082B02031C642E2908AB028A
:101CC2002A08AC3B2E14AA36A90CAD0B552E2F08B0
:101CD200AA002E08A9000800AA003A30A9012A0287
:101CE2000318792E30302A02031C792EA901A90A81
:101CF200290C0800300831040319962EB401B40AE5
:101D0200B11B862EB035B10D802E31083302031D72
:101D12008C2E30083202031C922E3008B202310897
:101D2200B33BB136B00CB40B862E3308B100320887
:101D3200B00008000800BC0004303C020318080090
:101D42003C082100EF002000BB003B0EF039BB0035
:101D52007C080F393B04FC00EF30B4000030B500C2
:101D6200220060082000B70022005F082000B600B1
:101D7200B801B80AB90197310A2F6F08DE000330A3
:101D8200DF00E4019731892788312C082200C10045
:101D920020002B082200C00020002A082200BF00D9
:101DA200200029082200BE002100590BD92EFF3441
:101DB2009731892788312C082100E30020002B0865
:101DC2002100E20020002A082100E1002000290869
:101DD2002100E000B430E002C430E13B0430E23BD9
:101DE2000030E33BEF016B1621006B1E752F97311C
:101DF200892788312C082100E80020002B082100C7
:101E0200E70020002A082100E6002000290821001E
:101E1200E50060086502DA006108663BDB006208E3
:101E2200673BDC006308683BDD005D08031D212F72
:101E3200B5305A02C4305B3B04305C3B031C6B2F51
:101E42006808E3006708E2006608E1006508E00050
:101E5200E403640FF52EE401E40ADF035F0F332F7E
:101E62006B12FF34EC016C08203E860002308700C2
:101E720081308100EC0A6C08203E86002000630855
:101E820081002100EC0A6C08203E86007C0881005B
:101E9200EC0AE9016C08203E8600023087006908DE
:101EA2006F3E84000130850000088100EC0AE90AD7
:101EB20003194B2F6E082000D40021006D0820006A
:101EC200D3000130D501D601D701D70AD801993103
:101ED200DB218831843156248831003A0319F52EEA
:101EE200843135248831F52E5E08EF0022004D083A
:101EF20008002000BB00B001A731DF278831003A7B
:101F0200031900343B08E3006330B4000030B5002D
:101F1200220062082000B700220061082000B600FB
:101F2200B801B80AB90197310A270134B800D12F94
:101F320034302100ED001230EE00FF302000B900F5
:101F4200BA003930AD000030AE00ED30AF000030E5
:101F5200B000A131092188319731892788312C08B5
:101F62002200C10020002B082200C00020002A0805
:101F72002200BF00200029082200BE0097318927D5
:101F82002C082200C50020002B082200C4002000DB
:101F92002A082200C300200029082200C2000800EB
:101FA2003808003A0319992F013A0319DC2F033A32
:101FB2000319DC2FDC2F08008131132900308B1923
:101FC2000130AA008B1122000C1140309731ED270D
:101FD200883100309731ED27883100309731ED2775
:101FE20022000C1520002A0C031C8B1103188B15E0
:0E1FF200080021008E128E11200091110800AF
:102002002000CE00D1015108FA3EAA00ED30AB010A
:10201200AB0ACB0051084B02D2279031200003308B
:10202200D10A5102031C0428FF302300EA00FE30CB
:10203200E9002000D1015108FD3EAA00E830AB01C1
:10204200AB0ACB0051084B02D2279031200003305B
:10205200D10A5102031C1C28A231EE229031210028
:10206200EB0120004E08031D6E28D1010E30A9009D
:102072005108E6269031AC3E8600023087000E30D1
:102082008101A9005108E6269031A43E8600023063
:1020920087000E308101A9005108E6269031A53E45
:1020A2008600023087000E308101A9005108E62621
:1020B2009031A63E86000230870081015108353EEC
:1020C20086000130870081015108B43E8600053048
:1020D2008101D10A5102031C372888317D209031B9
:1020E2002100EC0120004E080319EF286330A900FB
:1020F2000030AA00220062082000AC002200610821
:102102002000AB00AD01AD0AAE014827903120306E
:10211200630203180800ED30A9000030AA00220073
:1021220066082000AC00220065082000AB000230E7
:10213200AD00AE0148279031EF30A9000030AA006F
:10214200220060082000AC0022005F082000AB00E3
:10215200AD01AD0AAE0148279031A030A90002308E
:10216200AA006108AC006008AB004630AD00AE01C9
:10217200482790316530A9000030AA0022006A0881
:102182002000AC00220069082000AB00AD01AD0ABE
:10219200AE01482790316430A9000030AA00220025
:1021A2006C082000AC0022006B082000AB00AD01DF
:1021B200AD0AAE01482790316230A9000030AA0072
:1021C200220064082000AC00220063082000AB005B
:1021D200AD01AD0AAE0148279031342934302100D7
:1021E200ED001230EE00ED302000B4000030B500FA
:1021F200220066082000B700220065082000B60011
:102202000230B800B9010A2790316330B4000030BF
:10221200B500220062082000B700220061082000F9
:10222200B600B801B80AB9010A279031EF30B400FC
:102232000030B500220060082000B70022005F08CD
:102242002000B600B801B80AB9010A279031A030BF
:10225200B4000230B5006108B7006008B60046302D
:10226200B800B9010A27E630D000CF144F088739E9
:102272004038CF004E0801394F11031D4F154F1042
:102282005008C7004F08C600983169209031FF30CE
:10229200CC00CD004C30AD000030AE00ED30AF00D0
:1022A2000030B000A1310921903163088F317A27C3
:1022B200FC017C1421006F0EF039FC048B15080020
:1022C2002100BA003A0FD229BB010E302000A9002A
:1022D20021003B08E6269031AC3E860002308700A2
:1022E200811F9E292100EC016C08203E860082306D
:1022F2008100EC0A6E082000D40021006D08200045
:10230200D3000E30A90021003B08E626A43ED500EA
:102312000230D6000030D701D70AD8019931DB212B
:102322009031B601B701B60A0319B70A0F30370266
:10233200FF3003193602031C94290E302000A90035
:1023420021003B08E626AC3E860002308700810170
:1023520021003B082000AE000E30AF01B000B101F9
:102362009F31EB2790312F08B7002E08B600600886
:10237200B6076108B73D0E30A90021003B08E626EA
:102382009031A03EB4000230B5000E30B800B90161
:102392000A27903121000530BB0A3B0203180800CE
:1023A20066290E302000A90021003A08E626903165
:1023B200AC3E860002308700811F08002100EC013C
:1023C2006C08203E860082308100EC0A6E082000F4
:1023D200D40021006D082000D3000E30A900210096
:1023E2003A08E626A43ED5000230D6000030D701D6
:1023F200D70AD8019931DB219031B801B901B80A65
:102402000319B90A0F303902FF3003193802031CCD
:10241200002A0E302000A90021003A08E626AC3E30
:10242200860002308700810121003A082000AE00B8
:102432000E30AF01B000B1019F31EB2790312F0870
:10244200B7002E08B6006008B6076108B73D0E3027
:10245200A90021003A08E6269031A03EB4000230DD
:10246200B5000E30B800B9010A2F892790312C0827
:102472002100CE0020002B082100CD0020002A08D8
:102482002100CC00200029082100CB0089279031AF
:102492002C082100D30020002B082100D2002000AC
:1024A2002A082100D100200029082100D0002000A4
:1024B200650803198E2A2200420821005002C0003A
:1024C200220043082100513BC100220044082100A0
:1024D200523BC200220045082100533BC300E130B9
:1024E20040020530413B2D30423B0B30433B031C45
:1024F200C02A8731C8279031210053082200C50025
:10250200210052082200C400210051082200C30009
:10251200210050082200C200C02A22003E082100E9
:102522005002C00022003F082100513BC10022009E
:1025320040082100523BC200220041082100533BC7
:10254200C3004308031DAD2A8D3040028630413B53
:102552004730423B031CC02A98314620903121006B
:1025620053082200C100210052082200C0002100AD
:1025720051082200BF00210050082200BE002200A4
:102582003E0821004B02C00022003F0821004C3BC4
:10259200C1002200400821004D3BC2002200410838
:1025A20021004E3BC3004308031DDF2A8D30400249
:1025B2008630413B4730423B031CF52A2000650828
:1025C2000319F52A9831942090314E082200C10057
:1025D20021004D082200C00021004C082200BF004B
:1025E20021004B082200BE002100EB1C372B89275B
:1025F20090312C082100C70020002B082100C600C2
:1026020020002A082100C500200029082100C4005A
:1026120022003A0821004402C00022003B082100A7
:10262200453BC10022003C082100463BC20022007B
:102632003D082100473BC3004308031D282BB5304A
:102642004002C430413B0430423B031C372BEB10A9
:10265200A0302000B4000230B5006108B700600865
:10266200B6004630B800B9010A2790312100EB19B3
:1026720008009A31B7229031003A0319080021006C
:10268200C80122000030AB0120190130D9002B060D
:10269200FC395906AB00AB11A019AB15220020087A
:1026A2000339013A031D582B2200AB165A2B220084
:1026B200AB122B13A01B2B172200A01F642B220886
:1026C200AF002108AE002A08AD002908AC00250899
:1026D200B2002408B1002308B0002708B40026087D
:1026E200B300AB1AC62ED82E200065080319862B1C
:1026F2002100D601220030088600310887004131CE
:102702000108200063060319892B70279031DA2E05
:10271200033021006F060319862B22002C0F942B05
:102722002D0A0319A62B21006E0822002D06031D77
:102732009E2B21006D0822002C060319A62B0330C4
:102742003202031CA62BF230A92B853105259031CC
:102752002100D60022003008860031088700AA3006
:1027620043310106031DDB2B2100D4010530540245
:102772000318DB2B22002F082000AD0022002E08B8
:102782002000AC000E30A90021005408E62690314A
:10279200A43EAE00B9279031003A0319D82B21008C
:1027A2005408B43E860001308700FF3081002100CA
:1027B200D40AB72B21006F0BE72B56030319E72B23
:1027C200023056060319E72BF330D600EC016C08F1
:1027D200203E86000230870091308100EC0A6C08AE
:1027E200203E860056088100EC0A6C08203E8600D6
:1027F20022004F0881002100EC0A56080319032C1D
:10280200560B1E2C6C08203E8600023087007C0886
:102812008100EC0AD7015708031D1E2C6C08203ECC
:1028220086000230870057086F3E84000130850021
:1028320000088100EC0AD70A0C2C702722002D0810
:102842002000D40022002C082000D30022002F08F0
:102852002000D60022002E082000D5000030D7012B
:10286200D70A2200AB1901302000D800003099317C
:10287200DB2190319831942090315608031DDA2ED5
:1028820022004D082000AE000E30AF01B000B101B1
:102892009F31EB2790312F08B7002E08B600600851
:1028A200B6076108B73D0E30A90022004D08E626A2
:1028B2009031A03EB4000230B5000E30B800B9012C
:1028C2000A279031DA2E033021006F020318862B7B
:1028D20022003008860031088700413101082000BB
:1028E2006306031D862B2100EC016C08203E860046
:1028F2000230870097308100EC0A6C08203E860087
:102902007C088100EC0AD7015708031D972C6C083C
:10291200203E86000230870057086F3E8400013057
:10292200850000088100EC0AD70A852C7027220056
:102932002D082000D40022002C082000D300220001
:102942002F082000D60022002E082000D5000030DB
:10295200D701D70A2200AB1901302000D80000307D
:102962009931DB219031DA2E2100EC016C08203EF6
:1029720086000230870092308100EC0AD701C32C16
:102982002100D70A0530570203181D2D0E302000F2
:10299200A90021005708E6269031AC3E860002309D
:1029A2008700811FC12C22002F082000AD002200C9
:1029B2002E082000AC000E30A90021005708E626A0
:1029C2009031A43EAE00B9279031003A0319C12CD0
:1029D2000E30A90021005708E626AC3E86000230E0
:1029E20087008101210057082000AE000E30AF01A0
:1029F200B000B1019F31EB2790312F08B7002E08AC
:102A0200B6006008B6076108B73D0E30A900210084
:102A12005708E6269031A03EB4000230B5000E30D1
:102A2200B800B9010A27903121006C08203E8600C7
:102A3200023087008101EC0A7027903105302100B5
:102A42005706031D2C2D6C08203E8600023087009D
:102A5200F0308100EC0A22002D082000D400220070
:102A62002C082000D30022002F082000D6002200CC
:102A72002E082000D5000030D701D70A2200AB195A
:102A820001302000D80000309931DB219031DA2E5C
:102A920021006D0F762D6E0A031D762D22002D0862
:102AA2002100EE0022002C082100ED00FF30C900B9
:102AB200CA00C9302000AD000030AE00ED30AF00DA
:102AC2000030B000A13109219031ED30B400003066
:102AD200B500220066082000B70022006508200029
:102AE200B6000230B800B9010A27853105259031B8
:102AF2002200300886003108870042310108200098
:102B0200E4006430B4000030B50022006C082000FC
:102B1200B70022006B082000B600B801B80AB9015C
:102B22000A2790312100EB14892790312C082200CA
:102B3200BD0020002B082200BC0020002A08220031
:102B4200BB00200029082200BA00862B300886002C
:102B52003108870041310108003A0319492D013A31
:102B62000319492D862B2100EB1E862BEB12862B97
:102B7200300886003108870041310108031D862B89
:102B82002100D701053057020318862B0E30200092
:102B9200A90021005708E6269031AC3E860002309B
:102BA2008700811F162E22002F082000AD00220070
:102BB2002E082000AC000E30A90021005708E6269E
:102BC2009031A43EAE00B9279031003A0319162E77
:102BD2000E30A90021005708E626AC3E86000230DE
:102BE20087008101210057082000AE000E30AF019E
:102BF200B000B1019F31EB2790312F08B7002E08AA
:102C0200B6006008B6076108B73D0E30A900210082
:102C12005708E6269031A03EB4000230B5000E30CF
:102C2200B800B9010A279031862B2100D70AC32D9B
:102C320020006508031D862B2200D801D80A862BA6
:102C420020006508031D862B22003008860031080B
:102C5200870041310108FF3ED60031082000AE0056
:102C6200220030082000AD00A3316F239031862B63
:102C7200200065080319862B220031082000AD00D0
:102C8200220030082000AC00A131852190312100C2
:102C9200CF004F0A0319632E220031082100BA0027
:102CA200220030082100B9004F08BB0022002F0883
:102CB2002100BD0022002E082100BC00A2312C22DE
:102CC2009031C80048080319862B22002F082100E2
:102CD200B70022002E082100B60098312920903139
:102CE200862B200065080319862B2100D5010530AB
:102CF20055020318862B22002E0886002F08870013
:102D02000E302000A90021005508E6269031A43E8D
:102D120084000230850000080106031DC22E220035
:102D22002E0886002F0887000E3041312000A900AE
:102D320021005508E6269031A53E84000230850028
:102D420000080106031DC22E22002E0886002F084D
:102D520087000E3042312000A90021005508E626E6
:102D62009031A63E84000230850000080106031D52
:102D7200C22E21005508353E860001308700810AA7
:102D8200862B2100D50A782ED82E300886003108ED
:102D920087000108893E031CD82E84006430040297
:102DA2000318D82E87310435003E8200DA2E210026
:102DB200EB15220032080319E32E21006B1AE32ED1
:102DC200EB1E08002100EB11702F2000AB00AA01BE
:102DD20029082B18AA07A9352908AB18AA07A9356B
:102DE20029082B19AA07A9352908AB19AA07A93559
:102DF20029082B1AAA07A9352908AB1AAA07A93547
:102E020029082B1BAA07A9352908AB1BAA072A08E0
:102E12000800380839040319080037082300920013
:102E2200200037082300920020003608230091007A
:102E3200200034088600350887000108230093002B
:102E42002000B40A0319B50A2300951315131515AA
:102E520000308B1B01302000BA008B135530230049
:102E62009600AA309600951420003A0C031C8B138E
:102E720003188B17230095183B2F151101302000E2
:102E8200B8020030B93BB60A0319B70A0A2F2D0857
:102E92002E04031908002C082300920020002C089D
:102EA2002300920020002B08230091009513151394
:102EB2001514FE2790312000290886002A08870071
:102EC2002300130881002000A90A0319AA0A01306D
:102ED200AD020030AE3BAB0A0319AC0A482F0230F8
:102EE20020006602031808006608AE004530AF01F4
:102EF200B000B1019F31EB276630B4002330B5003A
:102F02002E08340786002F08353D8700810108000E
:102F12002000B101B201210011100030200011186F
:102F22000130AE001608AF001708B00000301118CB
:102F32000130AD002E06031D8E2F2E080319A62F79
:102F42001110FD0FA62F2200DA0A7D082000B1071A
:102F520022005A082000B207210011142000320872
:102F6200AC003108AB003008AA002F08A900080005
:102F7200B20132082E07AF00860002308700320805
:102F8200B000B1012C07840031082D3D85000008F6
:102F92000106031D00340830B20A3202031801345C
:102FA200BA2FAC0022000E110330ED2790312A080F
:102FB200ED2790312B080319EA2F2C0886000130E7
:102FC2008700A731D927903181002000AC0AAB03DA
:102FD200DB2F22000E1508002000A9009111240009
:102FE200110895132000290824009100951BF22F47
:102FF2002000911DF92F9111080000000800F40132
:10300200F501701C08287208F4077308F53DF235C3
:10301200F30DF136F00C70087104031D02287508D7
:10302200F1007408F0000800DA0021006E082000A8
:10303200D40021006D082000D3005A08D5000230C8
:10304200D600D701210037082000D8000030DB2944
:10305200EC016C08203E860002308700DA308100E5
:10306200EC0A6E082000D40021006D082000D30075
:10307200210037082000D600210036082000D500A4
:103082000030D701D70AD801DB29EC016C08203EB9
:103092008600023087007A308100EC0A6E08200038
:1030A200D40021006D082000D300A430D5000230E6
:1030B200D6000030D701D70AD801DB219831200091
:1030C200DA005A08031D08002200D701D70A0800B7
:1030D20047082200C700200046082200C600200040
:1030E20016082200CC000B30CE00A4311A249831ED
:1030F200DE01CA014A08AE004530AF01B000B1019D
:10310200EB2798316630C8002330C9002E084807E3
:1031120086002F08493D870002308101CA0A4A020F
:10312200031808007B28200062082100B600B701BE
:10313200B635B70DB635B70D3608043EB8000030C7
:10314200373DB900803ABA0080303A02031DAB28FD
:10315200283038020318B1282100BC01BC0AEC282F
:1031620020006208AB000430AC01AB35AC0DAB35CE
:10317200AC0DAB070318AC0A2830A900AA013E2205
:10318200983129082100BC00200062082100B60005
:10319200B701B635B70DB635B70D3608043EB800DF
:1031A2000030373DB900380839040319EC282000F3
:1031B2006208AB000430AC01AB35AC0DAB35AC0DE5
:1031C200AB070318AC0A2830A900AA017E22983165
:1031D20029082100BC07BE013C083E020318080072
:1031E200EC016C08203E86000230870077308100B7
:1031F200EC0A6C08203E8600200062088100210053
:10320200EC0A6C08203E860009302000A90021004B
:103212003E089631E626983181002100EC0A6C08BE
:10322200203E86000230870009302000A9002100DC
:103232003E08013E9631E626983181002100043095
:10324200EC0ABB0009302000A90021003E0896319B
:10325200E62698312100BF003E082000AE00AF01F3
:10326200AE0A0319AF0A0930B000B101EB27983159
:103272002F08803A803C031D41292E0821003F027D
:103282000318B6292000620821003F020318B4295E
:103292000E302000A90021003F089631E626983121
:1032A200AC3E860002308700811F952921006C0800
:1032B200203E86000E302000A90021003F089631F2
:1032C200E6269831A43E8400023085000008810081
:1032D2002100EC0A6C08203E8600023087000E3086
:1032E2002000A90021003F089631E6269831A53E2C
:1032F200840002308500000881002100EC0A6C087D
:10330200203E8600023087000E302000A9002100F6
:103312003F089631E6269831A63E840002308500A9
:10332200000881002100A92921006C08203E8600A6
:1033320002308700FF308100EC0A6C08203E8600D4
:10334200FF308100EC0A6C08203E8600FF308100CD
:10335200EC0A6C08203E8600023087003F0881009C
:103362000430EC0ABB07BF0A2D2921003B08BD002F
:1033720028303D020318CA296C08203E860002301C
:103382008700113081002830EC0ABD0A3D02031C7F
:10339200BD296E082000D40021006D082000D30052
:1033A2000130D501D601D701D70AD801DB219831E6
:1033B200BE0AED282100AE00AF0120005708031914
:1033C200E4290130E5290030D90021002F0820002E
:1033D2005906FC3959062100AF002E08031DF429B5
:1033E2002100AF16F6292100AF122E0801392F1144
:1033F200031D2F152000580801392100AF11031DAC
:10340200AF15B3012E080319082A0130092A00302A
:10341200B2002E08031D102A21002F17122A2100A4
:103422002F13AF17200056082100B10020005508C5
:103432002100B000200054082100B50020005308EC
:103442002100B400AF30860000308700463084008F
:103452000030850007302000D90016001A00D90B71
:103462002E2A2030CD0021006C082000CE00A5318C
:103472003A252100AD00EC010800AE01AA1F482A3E
:10348200A909AA09A90A0319AA0AAE01AE0AAC1F20
:10349200512AAB09AC09AB0A0319AC0A0130AE06DA
:1034A200AF01B00129082A040319712AAD01AD0A3E
:1034B200AA1B5E2AA935AA0D582AAF35B00D2A08D3
:1034C2002C02031D662A29082B02031C6D2A2908D7
:1034D200AB022A08AC3B2F14AA36A90CAD0B5E2A0C
:1034E2002E080319792AAF09B009AF0A0319B00AE5
:1034F2003008AA002F08A9000800AE01AC1F882AD4
:10350200AB09AC09AB0A0319AC0AAE01AE0AAA1F99
:103512008F2AA909AA09A90A0319AA0A29082A04A9
:103522000319AA2AAD01AD0AAA1B9A2AA935AA0D26
:10353200942A2A082C02031DA02A29082B02031C04
:10354200A62A2908AB022A08AC3BAA36A90CAD0B65
:103552009A2A2E080319B22AAB09AC09AB0A03193D
:10356200AC0A2C08AA002B08A900080020008D181C
:10357200BC2A2700961420005E1CCF2A00302200AD
:103582004902403003194802031CCC2AC801C90170
:1035920020005E10CF2AC80A0319C90AFF30200092
:1035A200E600BF013F08AE004530AF01B000B101F7
:1035B200EB2798316630B6002330B7002E08360765
:1035C20086002F08373D870001080319EB2A3F08C0
:1035D200E600F02A0230BF0A3F02031CD32A02305F
:1035E200660203180034C001C00A6608AE00453006
:1035F200AF01B000B101EB2798316730B60023303C
:10360200B7002E08360786002F08373D8700011FB6
:10361200C00122004530A001A8012000B000B10184
:103622006608AE00AF01EB2798316830B600233050
:10363200B7002E08360786002F08373D870001089D
:10364200BE00CC30BE052B2F6608AE004530AF0160
:10365200B000B101EB2798316C30B6002330B700CF
:103662002E08360786002F08373D8700010F4F2BA3
:103672006608AE004530AF01B000B101EB279831CA
:103682006D30B6002330B7002E08360786002F08AB
:10369200373D8700010F4F2B220020152200A01773
:1036A200200040080319BC2B6608AE004530AF016C
:1036B200B000B101EB2798316A30B6002330B70071
:1036C2002E08360786002F08373D870001082200A2
:1036D200A90020006608AE004530AF01B000B1017C
:1036E200EB2798316B30B6002330B7002E0836072F
:1036F20086002F08373D870001082200AA0020001B
:103702006608AE004530AF01B000B101EB27983139
:103712006E30B6002330B7002E083607B8002F08E7
:10372200373DB90038082200A100200039082200E4
:10373200A20020006608AE004530AF01B000B10122
:10374200EB2798316630B6002330B7002E083607D3
:1037520086002F08373D87000108ED3E2200A500B4
:1037620020006608AE004530AF01B000B101EB2782
:1037720098317630172F6608AE004530AF01B000A1
:10378200B101EB2798316E30B6002330B7002E0816
:10379200360786002F08373D870001082200A9005E
:1037A20020006608AE004530AF01B000B101EB2742
:1037B20098316F30B6002330B7002E0836078600E6
:1037C2002F08373D870001082200AA002000660862
:1037D200AE004530AF01B000B101EB279831703037
:1037E200B6002330B7002E083607B8002F08373D41
:1037F200B90038082200A100200039082200A200E6
:1038020020006608AE004530AF01B000B101EB27E1
:1038120098316630B6002330B7002E08360786008E
:103822002F08373D87000108EB3E2200A50020004B
:103832006608AE004530AF01B000B101EB27983108
:103842007830172F2200A017200040080319902C6F
:103852006608AE004530AF01B000B101EB279831E8
:103862006A30B6002330B7002E08360786002F08CC
:10387200373D870001082200A90020006608AE003B
:103882004530AF01B000B101EB2798316B30B60083
:103892002330B7002E08360786002F08373D8700F1
:1038A20001082200AA0020006608AE004530AF01E0
:1038B200B000B101EB2798317430B6002330B70065
:1038C2002E083607B8002F08373DB9003808220005
:1038D200A100200039082200A20020006608AE00E4
:1038E2004530AF01B000B101EB2798316630B60028
:1038F2002330B7002E08360786002F08373D870091
:103902000108E73E2200A50020006608AE0045300F
:10391200AF01B000B101EB2798317C30172F660858
:10392200AE004530AF01B000B101EB2798317430E1
:10393200B6002330B7002E08360786002F08373D21
:10394200870001082200A90020006608AE00453069
:10395200AF01B000B101EB2798317530B6002330CA
:10396200B7002E08360786002F08373D870001086A
:103972002200AA0020006608AE004530AF01B00068
:10398200B101EB2798317630B6002330B7002E080C
:103992003607B8002F08373DB90038082200A100C9
:1039A200200039082200A20020006608AE0045303F
:1039B200AF01B000B101EB2798316630B600233079
:1039C200B7002E08360786002F08373D870001080A
:1039D200E53E2200A50020006608AE004530AF019A
:1039E200B000B101EB2798317E30172F220020154D
:1039F200A017A801A80A20006608AE004530AF0152
:103A0200B000B101EB2798316A30B6002330B7001D
:103A12002E08360786002F08373D8700010822004E
:103A2200A90020006608AE004530AF01B000B10128
:103A3200EB2798316B30B6002330B7002E083607DB
:103A420086002F08373D870001082200AA002000C7
:103A52006608AE004530AF01B000B101EB279831E6
:103A62006C30B6002330B7002E083607B8002F0896
:103A7200373DB90038082200A10020003908220091
:103A8200A20020006608AE004530AF01B000B101CF
:103A9200EB2798316630B6002330B7002E08360780
:103AA20086002F08373D87000108F53E0B2F660878
:103AB200AE004530AF01B000B101EB2798316C3058
:103AC200B6002330B7002E08360786002F08373D90
:103AD2008700010F822D6608AE004530AF01B000AD
:103AE200B101EB2798316D30B6002330B7002E08B4
:103AF200360786002F08373D8700010F822D2200EE
:103B020020152200A017A801A80A20004008031DC2
:103B1200F12D6608AE004530AF01B000B101EB27D0
:103B220098316E30B6002330B7002E083607860073
:103B32002F08373D870001082200A90020006608EF
:103B4200AE004530AF01B000B101EB2798316F30C4
:103B5200B6002330B7002E08360786002F08373DFF
:103B6200870001082200AA0020006608AE00453046
:103B7200AF01B000B101EB2798317030B6002330AD
:103B8200B7002E083607B8002F08373DB9003808AD
:103B92002200A100200039082200A20020006608AD
:103BA200AE004530AF01B000B101EB27983166306D
:103BB200B6002330B7002E08360786002F08373D9F
:103BC20087000108F13E2200A50020006608AE0031
:103BD2004530AF01B000B101EB2798317230172F99
:103BE2006608AE004530AF01B000B101EB27983155
:103BF2006A30B6002330B7002E08360786002F0839
:103C0200373D870001082200A90020006608AE00A7
:103C12004530AF01B000B101EB2798316B30B600EF
:103C22002330B7002E08360786002F08373D87005D
:103C320001082200AA0020006608AE004530AF014C
:103C4200B000B101EB2798316E30B6002330B700D7
:103C52002E083607B8002F08373DB9003808220071
:103C6200A100200039082200A20020006608AE0050
:103C72004530AF01B000B101EB2798316630B60094
:103C82002330B7002E08360786002F08373D8700FD
:103C92000108F33E2200A50020006608AE00453070
:103CA200AF01B000B101EB2798317030172F22001D
:103CB200A017A801A80A200040080319962E66083A
:103CC200AE004530AF01B000B101EB2798316A3048
:103CD200B6002330B7002E08360786002F08373D7E
:103CE200870001082200A90020006608AE004530C6
:103CF200AF01B000B101EB2798316B30B600233031
:103D0200B7002E08360786002F08373D87000108C6
:103D12002200AA0020006608AE004530AF01B000C4
:103D2200B101EB27983173308A2B6608AE0045301B
:103D3200AF01B000B101EB2798317330B6002330E8
:103D4200B7002E08360786002F08373D8700010886
:103D52002200A90020006608AE004530AF01B00085
:103D6200B101EB2798317430B6002330B7002E082A
:103D7200360786002F08373D870001082200AA0077
:103D820020006608AE004530AF01B000B101EB275C
:103D920098317530F12B6608AE004530AF01B000A6
:103DA200B101EB2798316C30B6002330B7002E08F2
:103DB200360786002F08373D8700010FF62E66086A
:103DC200AE004530AF01B000B101EB2798316D3044
:103DD200B6002330B7002E08360786002F08373D7D
:103DE2008700010FF62E2200201520006608AE0083
:103DF2004530AF01B000B101EB2798316630B60013
:103E02002330B7002E08360786002F08373D87007B
:103E12000108F63E2200A50020006608AE004530EB
:103E2200AF01B000B101EB2798316E30B6002330FC
:103E3200B7002E083607B8002F08373DB9003808FA
:103E42002200A300200039082200A4003F2F97314E
:103E5200702700343E08083A0319CC2E883A031919
:103E6200F72C083A0319582D043A0319582E443AEC
:103E72000319252B043A0319232C282F2000660846
:103E8200AE004530AF01B000B101EB279831673089
:103E9200B6002330B7002E08360786002F08373DBC
:103EA20087008119282F632FFC302200A005892F5B
:103EB20022002008FC390138A000892F033022009B
:103EC200A004892F6608AE004530AF01B000B101F1
:103ED200EB2798316730B6002330B7002E0836073B
:103EE20086002F08373D870001080739B800B9015D
:103EF2003908003A03197E2F282F3808003A03198F
:103F02005F2F013A0319552F023A0319592F282F0F
:103F120020006608AE004530AF01B000B101EB27CA
:103F220098316630B6002330B7002E083607860077
:103F32002F08373D87000108B800B9016608AE00B6
:103F42004530AF01B000B101EB2798316530BA00BE
:103F52002330BB002E083A07BC002F083B3DBD00B2
:103F620038083C07860039083D3D870001082200D9
:103F7200A70020006608AE004530AF01B000B101D5
:103F8200EB2798316630B6002330B7002E0836078B
:103F920086002F08373D87000108B800B90166087E
:103FA200AE004530AF01B000B101EB276630BA0078
:103FB2002330BB002E083A07BC002F083B3DBD0052
:103FC20038083C07860039083D3D87000108220079
:103FD200A6000134B201B3012E1CF32F3008B20740
:103FE2003108B33DB035B10DAF36AE0C2E082F04FB
:0E3FF200031DED2F3308AF003208AE000800AB
:10417400AD00AE000130AB020030AC3B2B0FC528C4
:104184002C0A031908002E0886000130870029082C
:104194008100AE0ABC2800308B190130AA008B11B3
:1041A40022000C1140309731ED27A03101309731B6
:1041B400ED27A03100309731ED2722000C152000A7
:1041C4002A0C031C8B1103188B150800D8008A31A4
:1041D4001122A0310530B500B60189315721A03133
:1041E400CE30B500A930B6005808B700C530B801C4
:1041F4008A318E22A031BD30B500A930B6005708EF
:10420400B700D530B8018A318E228A31202A2D0890
:1042140086002E08870001082200DD0020002D08FA
:1042240086002E088700413101082200DE002000AC
:104234002F0886003008870001082200DB002000D8
:104244002F08860030088700413101082200DC0075
:104254005D082000AA000730A5312125A1312200E4
:104264005E082000AA000930A5312125A1312200D1
:104274005B082000AA000330A531212522005C0838
:104284002000AA000530A531212D703021009900AD
:1042940023008C01FF3021008C008D008E008F01E3
:1042A40022008C018D018E018F0121000D148C16CA
:1042B4008F130F138D1122008D1521008D122200F2
:1042C4008D1621008D140E168E128E112700950165
:1042D4009401C030240094002130950021000D1277
:1042E40022000D162700951421008C1122008C1534
:1042F40021000E1122000E158B170B1727009610A4
:104304008B1589311929AE0162082E020318D329AD
:104314000E30A9002E089631E626A131AC3E860067
:1043240002308700811FD1290E30A9002E08963152
:10433400E626A131A43E8600023087002C088400C2
:104344002D088500013100080106031DD1290E3016
:10435400A9002E089631E626A131A53E860002303A
:1043640087002C0884002D0885000231000801060E
:10437400031DD1290E30A9002E089631E626A1315D
:10438400A63E8600023087002C0884002D08850094
:10439400033100080106031DD1292E080800AE0AC6
:1043A40086292E0862060319FF30080097318927F1
:1043B400A1312C082100A70020002B082100A60011
:1043C40020002A082100A500200029082100A400BB
:1043D40097318927A1312C082100AB0020002B083C
:1043E4002100AA0020002A082100A9002000290891
:1043F4002100A80024082802A0002508293BA100C8
:1044040026082A3BA20027082B3BA3002308031DF0
:104414000800D13020021230213B1330223B031814
:10442400080083319823A1312100AC00023A031D16
:1044340000343E302000D700A930D800D901DA0179
:104444008831F720A131E830B5000330B600893156
:1044540057210134EC016C08203E860002308700AD
:104464003C0884003D08850000088100EC0A6C08C3
:10447400203E86003C0884003D0885000131000888
:104484008100EC0A6C08203E8600023087003C085C
:1044940084003D0885000231000881000330EC0AE5
:1044A400BF006C08203E8600023087003F082000D1
:1044B400DC00DD0121003907840020005D082100B3
:1044C4003A3D8500000881002830EC0ABF0A3F020B
:1044D400031C532AB8013B0884313924A23121003A
:1044E400BE003E08031D772A7A2221003E080800F8
:1044F400DF302000D700A930D800D901DA01DA0A68
:104504008831F728F10000308B190130F3008B114A
:1045140022008D117108DA22A231E922F200220070
:104524008D15730C031C8B1103188B15720808006E
:10453400F20000308B190130F3008B1122008D1131
:104544007208DA22A2317108DA2222008D15730C66
:10455400031C8B1103188B15080000308B190130D4
:10456400F6008B1122008D117208F4007108F3001B
:10457400F436F30CF436F30CF436F30C73087F3989
:104584008038DA22A2317108F3000530F335890B43
:10459400C82A7308E039DA22A231E922F5002200A0
:1045A4008D15760C031C8B1103188B1575080800E8
:1045B400F000200091112400110895137008910057
:1045C400951BDF2A2000911DE42A91110800003078
:1045D400DA22240011080800AF01AF0A22000230D9
:1045E400CA01CB012000A9006530AA01AB0001304B
:1045F400AC004C23A2312000AF056130A901A90A07
:10460400AA01AB000130AC004C23A2312000AF055D
:104614005F30A901A90AAA01AB000130AC004C2308
:10462400A2312000AF054630A9006030AA01AB00DA
:104634000030AC004C23A2312000AF050430A900A7
:104644006730AA01AB000130AC004C23A23120003A
:10465400AF056330A901A90AAA01AB000130AC007F
:104664004C23A2312000AF056930A901A90AAA018F
:10467400AB000130AC004C23A2312000AF056B30FD
:10468400A901A90AAA01AB000130AC004C23200007
:10469400AF050800290822004A072000AD002A08B7
:1046A40022004B3D2000AE0004302E0201300319DD
:1046B4002D02031800342B0886002C0887002200E2
:1046C4004A08C03F4B08C13F200029082200CA07FE
:1046D40020002A082200CB3D01340430B400340801
:1046E4000339031DD72B3408033EAF0000300318F1
:1046F4000130B000803AB10080303102031D842BB8
:1047040028302F020318D72B20003408AF00B00143
:104714002D07B10030082E3DB20031088600320862
:10472400870043310108B30009070907A33E860047
:104734000130870033088100330809070907A03EC8
:1047440086003408AF00B0012D07840030082E3DE8
:10475400850000088100330809070907A13E860087
:104764003408AF00B0012D07B10030082E3DB2006F
:1047740031088400320885000131000881003308C3
:1047840009070907A23E8600013087003408AF00FC
:10479400B0012D07B10030082E3DB200310884006D
:1047A4003208850002310008810020002830B40A54
:1047B4003402031C712BDE2BAB016508031D0800BA
:1047C400AC0122005608013E2000A9000030031865
:1047D4000130AA00803A803C031DF22B29082C02E8
:1047E4000318122C20002C0809070907A03E860094
:1047F40001308700010823006606031D0F2C2000EA
:104804002C0809070907A13E860023006708010652
:10481400031D0F2C2000AB01AB0A2000AC0AE32BD4
:1048240020002B08031D08002200D701D70A080026
:1048340022008D1203302000BB00BC01BD01BE016B
:104844003E083D043C043B040319462C0630B601E3
:10485400B501B4008230B3000130B3020030B43B80
:10486400B53BB63B330F2E2C340A031D2E2C350AD0
:10487400031D2E2C360A0130031D2F2CBB020030E1
:10488400BC3BBD3BBE3B222C22008D160A302000CF
:10489400BF00C001C101C2014208410440043F04F9
:1048A4000319722C0630BA01B901B8008230B7007E
:1048B4000130B7020030B83BB93BBA3B370F5A2C32
:1048C400380A031D5A2C390A031D5A2C3A0A01309E
:1048D400031D5B2CBF020030C03BC13BC23B4E2CCE
:1048E4000730AA0055302125A4315430BE27A43105
:1048F400C5000739031D772CC301C401C30A03197A
:10490400C40A03304402E83003194302031C802C18
:104914001B30AA01AA0A2125A431FF30AA000730BE
:104924002125A431FF30AA0009302125A431FF300C
:10493400AA0003302125A431FF30AA000530212527
:10494400A431C5014508220047072000B2008600B3
:10495400013087000108AA0045350B3E2125A4310A
:104964000830C50A4502031CA42C0230AA00AB007F
:104974008030AC005D27A4310330AA000230AB00C4
:10498400AC015D27A4310630AA000230AB009030A0
:10499400AC005D27A4310730AA000230AB008030A0
:1049A400AC005D27A4310830AA000230AB001030FF
:1049B400AC005D27A4312030AA000230AB002130C6
:1049C400AC005D27A4318030AA0075302125A431C4
:1049D4004030AA007D302125A4316030AA007F3008
:1049E4002125A4319830AA0031302125A4319530F5
:1049F400AA005D302125A4310F30AA000230AB009B
:104A04008E27A431C500A039B200A03A031DFE2CA4
:104A1400E630AA0065302125A4310230AA01AB009A
:104A24000330AC005D27A4310130AA000230AB0092
:104A3400AC005D27A431B00122004E08DF2FAB008B
:104A440000308B190130AC008B1122008D11200035
:104A54002B089731ED27A4312A089731ED2722003E
:104A64008D1520002C0C031C8B1103188B150800CA
:104A74002100AC012000461D412DC901C90AC619F7
:104A8400CA0146080339013A031D4C2D03302100A5
:104A9400A900532D46080339031D532D2100A901F4
:104AA400A90A22005C0820004C06031D5D2D22008B
:104AB4005B0820004B06031D6C2D22005B0F652D47
:104AC4005C0A03196C2D05302100AA002917A801DE
:104AD400A80A702D07302100AA00A8012000490867
:104AE4000319782D2100AA0AAA0A7B2D0830210077
:104AF400AA0720004A080319832D2100AA0AAA0A3A
:104B0400862D08302100AA072000C61A46198C2DCC
:104B14002100A916200046080339033A031D9B2DE2
:104B240021000730A901AA00A8012000CA01CA0A6D
:104B3400C612AA01AB0121002A082000AC005D279F
:104B4400A4312100AC0A2C082000AA00AB012100EA
:104B54002A0820004E07AC005D27A4312100AC0ACE
:104B64002C082000AA00AB01210029082000AC0079
:104B74005D27A4312100AC0A200046080339033A1A
:104B8400031DDC2D21002C082000AA008030AB017D
:104B9400AC005D27A4312100AC0A2C082000AA0037
:104BA400AB0122004C082000AC005D27A431220098
:104BB400CC0A5F2E49080319E82D4A080319E82D89
:104BC40021002C082000AA008830042E490803196B
:104BD400F42D4A08031DF42D21002C082000AA00FE
:104BE400C830042E4908031DFF2D4A0BFF2D210058
:104BF4002C082000AA008C30042E21002C08200050
:104C0400AA00CC30AB01AC005D27A4312100AC0A72
:104C14002C082000AA00AB0122004C082000AC00A4
:104C24005D27A4312200CC0A2100AC0A2C08200004
:104C3400AA00AB014B08AC005D27A4312100AC0AEB
:104C44002C082000AA00AB014C08AC005D27A4315D
:104C54002100AC0A2000461D402E21002C08200013
:104C6400AA00FF30AB01AC005D27A4312100AC0ADF
:104C74002C082000AA00FF30AB015C2E4908031960
:104C8400622E21002C082000AA00AB0147088600F0
:104C9400480887000108AC005D27A4312100AC0A54
:104CA4002C082000AA00AB014708860048088700AA
:104CB40041310108AC005D27A4312100AC0A7D2EEE
:104CC4002100AB012C082000AA00AB0121002B0815
:104CD4002000CF00D001470786005008483D8700D8
:104CE4000108AC005D27A43121000830AC0AAB0AEE
:104CF4002B02031C642E2808031D982E2C08200068
:104D0400AA00AB0122005B082000AC005D27A4319F
:104D14002100AC0A2C082000AA00AB0122005C0888
:104D24002000AC005D27A4312100AC0A20004A0811
:104D34000319B62E21002C082000AA00AB01220082
:104D44005D082000AC005D27A4312100AC0A2C08CA
:104D54002000AA00AB0122005E082000AC005D2701
:104D6400A4312100AC0AD02E2100AB012C08200074
:104D7400AA00AB0121002B08220047072000CF0026
:104D84008600013087000108AC005D27A4312100B2
:104D94000830AC0AAB0A2B02031CB82EAB0120006E
:104DA4004E0821002B020318EB2E2C082000AA0029
:104DB400AB0121002B0820004D07CF0086000230F4
:104DC40087000108AC005D27A4312100AC0AAB0ABE
:104DD400D12E20005E14C61A4619F62E0530210085
:104DE400AB002000DE14FB2E2100AB01AB0A200037
:104DF400DE1021002B082000AA003730212597312E
:104E04008927A4312C082100A30020002B082100AD
:104E1400A20020002A082100A10020002908210066
:104E2400A00020008D18182F2700961420005E186B
:104E34001F2F5E1D01345E11003497318927A43180
:104E44002C082100A70020002B082100A600200028
:104E54002A082100A500200029082100A400200818
:104E640024022000CF0021002108253B2000D0008F
:104E740021002208263B2000D10021002308273BE3
:104E84002000D2005208031D502F5108031D502F3B
:104E9400D5304F023030503B031C132F1A245D30A1
:104EA400AD000130AE005B30AF000130B000A13185
:104EB40009215E10003400308B190130AF008B11D2
:104EC40022008D1120002B08AE002A08AD00AE365A
:104ED400AD0CAE36AD0CAE36AD0C2D087F39803836
:104EE4009731ED27A4312A08AD000430AD35FF3EDB
:104EF400031D782F2D35E03910389731ED27A43173
:104F04002C089731ED2722008D1520002F0C031C4F
:104F14008B1103188B15080000308B190130AF007A
:104F24008B1122008D1120002B08AD002A08AC0043
:104F3400AD36AC0CAD36AC0CAD36AC0C2C087F39B0
:104F440080389731ED27A4312A08AC000530AC3500
:104F5400890BA92F2C08E0399731ED27A431D927E3
:104F64002000AE0022008D1520002F0C031C8B1195
:104F740003188B152E0808002000AA0000308B1996
:104F84000130AC008B1122008D1120002A089731CA
:104F9400ED27A431D9272000AB0022008D15200075
:104FA4002C0C031C8B1103188B152B0808000030E4
:104FB4009731ED272400110808002000B1000B30C0
:104FC4003102031C00341B30310203180034310851
:104FD4002200CE0020000230AA01AB00310EF039CD
:104FE400503E0338AC005D27A4310430AA006D3074
:104FF4002125A4316D30AA01212501342034B23495
:10500400203420342034B23420342034B2342034D8
:10501400B23420342034203420342034B2342034C8
:10502400B2340D340A34B2342034B2342034B234BD
:105034002034B234203420342034B23420342034A8
:10504400B23420342034B234203420340D340A34C1
:10505400B23420342034B23420342034B2342034F6
:10506400B2342034B23420342034B23420342034E6
:10507400B2342034B2340D340A34B23420342034FF
:10508400B23420342034B2342034B23420342034C6
:10509400B2342034B2342034B23420342034B23424
:1050A4000D340A34B23420342034B2342034203461
:1050B400B2342034B234203420342034B234203496
:1050C400B234203420342034B2340D340A34203441
:1050D400203420342034203420342034203420342C
:1050E400203420342034203420342034203420341C
:1050F400203420340D340A340134003408340034AC
:105104004034003400340234003410340034803429
:10511400013400340A34003464340034E834033491
:105124001034273401340034103400340034013492
:105134000034103443346F346E346E346534633465
:10514400743469346E3467342034503465346534CF
:105154007234203420346F346E3420344334683451
:1051640061346E346E3465346C34203425346434E4
:1051740020340034203443346F346E346E34653458
:1051840063347434653464342034503465346534A1
:105194007234203420346F346E3420344334683411
:1051A40061346E346E3465346C34203425346434A4
:1051B4000034533469346D3470346C3465342034C1
:1051C4005334543441345234203420342034203481
:1051D40020344D3452344634323434344A34343442
:1051E400303420344E346F346434653400345234F3
:1051F400423430343A3425343034323464342D3447
:1052040025343034323478342534303432347834FC
:1052140025343034323478342D346D3465340034EC
:105224005234423430343A342534303432346434F1
:105234002D34253430343234783425343034323417
:1052440078342534303432347834003420344134E2
:105254006434643472346534733473343A342534C6
:10526400303432347834253430343234783425349C
:105274003034323478340034523465347334743412
:105284006F34723469346E34673420344E34653488
:10529400743477346F3472346B34203421342134D1
:1052A400003444346134743461345F3453346534C9
:1052B4006E34643469346E3467345F344634613434
:1052C40069346C3421342134003445344E3444344C
:1052D4005F344434453456344934433445345334C8
:1052E40020343A34253430343234643400343034A5
:1052F4003134323433343434353436343734383466
:10530400393441344234433444344534463400342B
:10531400303431343234333434343534363437344D
:105324003834393461346234633464346534663413
:1053340000345234423432343A34203443346834FE
:1053440061346E346734653420346E346F346434BD
:10535400653400344434613474346134203450345A
:10536400613463346B346534743420346634723499
:105374006F346D3400345234583420344D34653431
:105384007334733461346734653473343A34203499
:1053940025343334643400345434583420344D3494
:1053A40065347334733461346734653473343A3434
:1053B40020342534333464340034203455346E348A
:1053C400693463346134733474342034463461345E
:0A53D40069346C346534643400342D
:020000040001F9
:02000E00E2CB43
:00000001FF
