:0400000081310F2912
:100008007E1480318B1DFF282700961CFF28961030
:100018006230873137278031F800781C2928200082
:100028005E105E1F18285E132200B401B50120007F
:10003800DE1C29284830873137278031F700771CA4
:10004800272820005E152000DE10F81DF728FF3055
:10005800FA00FB017B08F0004530F101F200F301E2
:10006800A7317427803166302000A0002330A1001A
:100078007008200786007108213D87000108031DCC
:1000880048287B08FA004D280230FB0A7B02031C33
:100098002E2802307A020318F1280430F100733058
:1000A80087314D2780310330F101F2008731622713
:1000B8008031023E2000A0007A08F0004530F101AE
:1000C800F200F301A7317427803166302000A100C7
:1000D8002330A20070082107A3007108223DA40064
:1000E8002308860024088700200881007A08F00089
:1000F8004530F101F200F301A731742780316630F1
:100108002000A0002330A100700820078600710895
:10011800213D8700443001020318E828DE16FB0160
:10012800FB0A7A08F0004530F101F200F301A7312B
:100138007427803166302000A0002330A1007008A9
:10014800200786007108213D87000108023EA200B1
:10015800003003180130A300803AA4008030240244
:10016800031DB8287B082202031CE8287B08F1003D
:100178000330F201F2078731622780312000A000A6
:100188007B08A100A2017A08F0004530F101F200D5
:10019800F301A7317427803166302000A300233093
:1001A800A40070082307A5007108243DA6002108B3
:1001B8002507A7002208263DA8002708860028084A
:1001C80087002008810094281B30F101F10A87314B
:1001D8004D2780317330F101F4281B30F101F10A09
:1001E80087314D278031781EFF288030F100593043
:1001F80087314D2780312000111C0B292100111C4B
:100208000B2920001110FC0A7C080319FD0A87310C
:10021800FB277E10090098317728D4003730CD00AD
:1002280020003608C0003508BF00B50A0319B60A11
:100238008400400885000008D30053080319C52C22
:1002480025305306031930295408860002308700E8
:1002580053088100D40A1429D101D201D501D6014D
:100268003F29D5153C2955143C29D6153C29551547
:10027800B50A0319B60A350884003608850000084F
:10028800203A03193729033A031939290E3A031971
:1002980035291D3A03193B295129D51D54295511D2
:1002A80035088400360885000008F0248131031CD5
:1002B8008929D101D2010A30AE00AF015208B1003C
:1002C8005108B0008F315B2781312F08D2002E08EA
:1002D800D10035088400360885000008D03EBF00EC
:1002E800FF3003180030C0003F08D1074008D23D56
:1002F800B50A0319B60A35088400360885000008CF
:10030800F0248131031C9D295F29350884003608B3
:10031800850012002A3A031D9D294D088600870191
:10032800403FD100413FD200CD0ACD0AB50A03199A
:10033800B60A350884003608850012002E3A031DD7
:10034800D9295617B50A0319B60A3508840036089C
:10035800850012002A3A031DBC294D088600870132
:100368000108D000CD0ACD0AB50A0319B60A502AE9
:10037800D00135088400360885000008F024813152
:10038800031C502A35088400360885000008BF0081
:100398000A30A90050089731312781313F07D03EF4
:1003A800D000B50A0319B60ABD29D001502A55173D
:1003B800652AD516D517652A50080319F529500856
:1003C800BF00C001BF1BC0034C084002031DEE293B
:1003D8004B083F020318F5295008CB00CC01CB1B72
:1003E800CC0352084C02031DFB2951084B02031889
:1003F800022A4B08D1024C08D23B042AD101D2016F
:10040800D51D0E2A232A5408860002308700203082
:100418008100D40AFF30D107031CD203510F072AE9
:10042800520A0319232A072A540886000230870033
:1004380049088400850100088100C90AD40A0130EE
:10044800CB020030CC3B4B0F182A4C0A031D182A4C
:10045800D519362A1429540886000230870020301E
:100468008100D40AFF30D107031CD203510F2F2A71
:10047800520A031914292F2A4D08860087010108FA
:10048800D300CD0ACD0A5330C900CB01CB0ACC0129
:10049800E029C030D504652A3608C0003508BF00F9
:1004A800B50A0319B60A8400400885000008D3007D
:1004B8008400793004020318472A85310435003E48
:1004C80082005508C039031D7C2A4D088600870123
:1004D800403FCE00413FCF00CD0ACD0ACF1F852A2D
:1004E8000330D504CE09CF09CE0A0319CF0A852ACD
:1004F8004D0886008701403FCE00413FCF00CD0A1E
:10050800CD0A5008031DE52A4E084F04031DE52AAD
:10051800D00AE52AD3010530D30A53060319F32A72
:100528005308BF00CC30C001BF35C00D3F07840061
:10053800A030403D8500003FC100013FC2004F028E
:10054800031DA82A41084E02031CF32A8F2AD3014F
:100558000430D30A53060319F32A5308BF00D630D0
:10056800C001BF35C00D3F078400A030403D850065
:10057800003FC100013FC2004F02031DC52A4108C8
:100588004E02031CF32AAC2AD3010630D30A5306C1
:100598000319F32A5308BF00C030C001BF35C00D8E
:1005A8003F078400A030403D8500003FC100013F67
:1005B800C2004F02031DE22A41084E02031CF32A1F
:1005C800C92A5508C03903198E2A403A0319C82A7E
:1005D800C03A0319AB2A403A03198E2AF32A530862
:1005E800803ABF005008803ABF0250080318FE2A1C
:1005F800D300072B803ABF005308803ABF02031884
:10060800072B5308D000510852040319132B55081F
:1006180003390319132BFF30D107031CD203561FCC
:10062800332B5008BF00C001BF1BC0034008803AED
:10063800C1005208803A4102031D242B51083F0291
:100648000318302B20005008BF00C001BF1BC00397
:10065800D1024008D23B332B2000D101D201C43053
:100668005505BF0008305605C00040303F06083029
:1006780003194006031D462B510852040319672B22
:10068800FF30602BC0305505BF0008305605C0004C
:1006980080303F06083003194006031D672B5208B7
:1006A800803ABF0080303F02031D5C2B03305102AB
:1006B800031C642BFE302000D107031CD203672BD8
:1006C8002000D101D2015308BF00C001BF1BC003E5
:1006D8004008803AC1005208803A4102031D762B37
:1006E80051083F020318822B20005308BF00C001A5
:1006F800BF1BC003D1024008D23B852B2000D1018B
:10070800D201551DCB2B550803390319912B5408D9
:100718008600023087002D30B92B551C992B5408C0
:100728008600023087002030B92BC0305505BF0045
:1007380008305605C00080303F06083003194006CF
:10074800031DBB2B5408860002308700303081001F
:10075800D40AD51AB12B7830B22B5830C300C40153
:10076800540886000230870043088100D40A5108E3
:1007780052040319A42C5408860002308700303034
:100788008100FF30D40AD107031CD203BB2B5108C8
:100798005204031DD519DF2B540886000230870048
:1007A80020308100FF30D40AD107031CD20351083E
:1007B8005204031DD02B550803390319E92B54089B
:1007C8008600023087002D30F02B551CF22B540880
:1007D80086000230870020308100D40AC0305505D9
:1007E800BF0008305605C00040303F0608300319E6
:1007F8004006031D052C540886000230870030305F
:10080800A22CC0305505BF0008305605C000803006
:100818003F06083003194006031DA42C540886001F
:100828000230870030308100D40AD51A1D2C783068
:100838001E2C5830C500C6015408860002308700B7
:100848004508A22C0A30B000B1015008BF00CC30D6
:10085800C001BF35C00D3F078400A030403D850072
:10086800003FA900013FAA004F08AC004E08AB00AA
:10087800CB242A08B3002908B200A731BF27813149
:1008880030088C2C4F08AC004E08AB005008BF0055
:10089800D630C001BF35C00D3F078400A030403DB1
:1008A8008500003FA900013FAA00CB248131290817
:1008B800CA000F30CA05D51A652C3730C700A430D6
:1008C800682C2630C700A430C800C0004708BF0005
:1008D8004A083F07840040080318400A85000008BA
:1008E8008D2C5008BF00C030C001BF35C00D3F0778
:1008F8008400A030403D8500003FA900013FAA00C8
:100908004F08AC004E08AB00CB24813129080739C9
:10091800303ED3009D2C5508C0390319262C403A87
:100928000319752CC03A0319462C403A0319262C92
:100938009D2C540886000230870053088100D40A91
:10094800D003500F8F2CD51D14295208803ABF00B0
:1009580080303F02031DB22C01305102031C1429C0
:100968002000540886000230870020308100FF30C4
:10097800D40AD107031CD2035108520403191429BD
:10098800B42C540886000230870081010800AE01AB
:10099800AF0129082A040319EB2CAD01AD0AAA1BE3
:1009A800D82CA935AA0DD22CAE35AF0D2A082C02A9
:1009B800031DE02C29082B02031CE72C2908AB0295
:1009C8002A08AC3B2E14AA36A90CAD0BD82C2F083C
:1009D800AA002E08A9000800AA003A30A9012A0294
:1009E8000318FC2C30302A02031CFC2CA901A90A8C
:0409F800290C0800BE
:100A00008431C52C8231472A8231472A8231472AD4
:100A10008231472A8231472A8231472A8231472A46
:100A20008231472A8231472A8231472A8231472A36
:100A30008231472A8231472A8231472A8231472A26
:100A40008231472A8231472A8231472A8231472A16
:100A50008231472A8231472A8231472A8231472A06
:100A60008231472A8231472A8231472A8231472AF6
:100A70008231472A8231472A8231472A8231472AE6
:100A80008231472A8231472A8231472A8231472AD6
:100A90008231472A8231472A8231472A8231472AC6
:100AA0008231472A8231472A8231472A8231472AB6
:100AB0008231472A8231472A8231472A8231472AA6
:100AC0008231472A8231472A8231472A8231472A96
:100AD0008231472A8231472A8231472A8231472A86
:100AE0008231472A8231472A8231472A8231472A76
:100AF0008231472A8231472A8231472A8231472A66
:100B00008231472A8231472A8231472A8231472A55
:100B10008231472A8231472A8231472A8231472A45
:100B20008231472A8231472A8231472A8231472A35
:100B30008231472A8231472A8231472A8231472A25
:100B40008231472A8231472A8231472A8231472A15
:100B50008231472A8231472A8231472A8231472A05
:100B60008131DD298231472A8231472A8231472A61
:100B70008231472A8231472A8231472A8231472AE5
:100B80008231472A8231472A8231472A8231402ADC
:100B90008231652A8231472A8231472A8231472AA7
:100BA0008231472A8231652A8231472A8231472A97
:100BB0008231472A8231472A8231472A8131DB2913
:100BC0008231472A8231472A8231472A8231472A95
:100BD0008231472A82314D2A8231472A8231472A7F
:100BE0008131DE292000FF30C001C100C2010A307E
:100BF000A9004208973131278531A83E860001308F
:100C00008700811F1E2E220024082000AD00220034
:100C100023082000AC000A30A90042089731312790
:100C20008531A03EAE009731D4278531003A0319B3
:100C3000222E4208C100C001C00A272E410F222ED9
:100C40004208C1000530C20A4202031CF72D410FC1
:100C50002A2EF13421006B080319312E20004008A0
:100C60000800200041082100D50020000A30C20100
:100C7000A9004108973131278531A03E4207BB00CA
:100C80008600013087004208BC00BD012200230716
:100C9000840020003D082200243D850000088100DA
:100CA00020000830C20A42020A30A9004108031C91
:100CB0003A2E973131278531A83E860001308700D2
:100CC000811722002508860026088700013042315E
:100CD00001052000BB000A30A900410897313127E7
:100CE0008531A83E86000130870001083B06FE39A9
:100CF0003B068100C2010A30A90041089731312723
:100D00008531A93E4207BB008600013087004208BA
:100D1000BC00BD01220025072000BE003D082200C6
:100D2000263D2000BF003E0884003F0885000331B7
:100D300000088100C20A03197B2E41082100D3005C
:100D40005712B626E5006530B4000030B500220029
:100D500039082000B700220038082000B600B8018A
:100D6000B80AB90197315527400808002000AC01A6
:100D7000AD010A30A9002D08973131278531A83EF1
:100D8000860001308700811BAC0A0530AD0A2D02B8
:100D9000031CB92E2C080800AF01AF0A2200023054
:100DA000B601B7012000A900E630AA01AB0000306F
:100DB000AC00142786312000AF05E430A901A90A50
:100DC000AA01AB000030AC00142786312000AF052B
:100DD000E230A901A90AAA01AB000030AC00142737
:100DE00086312000AF053230A9006330AA01AB0084
:100DF0000030AC00142786312000AF050430A90074
:100E00003A30AA01AB000130AC0014278631200033
:100E1000AF053830A901A90AAA01AB000130AC0026
:100E200014272000AF0508002908220036072000FB
:100E3000AD002A082200373D2000AE0004302E020B
:100E4000013003192D02031800342B0886002C08EA
:100E5000870022003608C03F3708C13F200029081C
:100E60002200B60720002A082200B73D0134F10015
:100E700000308B190130F3008B1122008D117108A5
:100E80008D2787319C27F20022008D15730C031CDF
:100E90008B1103188B1572080800F20000308B19B3
:100EA0000130F3008B1122008D1172088D278731DC
:100EB00071088D2722008D15730C031C8B110318EC
:100EC0008B15080000308B190130F6008B112200C1
:100ED0008D117208F4007108F300F436F30CF43647
:100EE000F30CF436F30C73087F3980388D27873183
:100EF0007108F3000530F335890B7B2F7308E03957
:100F00008D2787319C27F50022008D15760C031C58
:100F10008B1103188B1575080800F0002000911143
:100F200024001108951370089100951B922F200042
:100F3000911D972F9111080000308D272400110872
:100F400008009431D12C9531CB2D9731112F973149
:100F5000112F9731112F9731112F95317E2D973108
:100F6000112F9731112F9731112F9731112F973161
:100F7000112F9731112F9731112F9731112F973151
:100F8000112F96319F2E9631B12E9731112F973117
:100F9000112F9731112F9731112F9631AC2E470811
:100FA0002200B300200046082200B20020001608EC
:100FB0002100D2000B30D4009B317B238731DE012E
:100FC000CA014A08AE004530AF01B000B1018F310F
:100FD0005B2787316630C8002330C9002E084807D8
:100FE00086002F08493D870002308101CA0A4A0263
:080FF00003180800E12F0800BE
:10100600DC278831003A031D08007027883122004A
:10101600DA0052292100DA01DE015A08203E860054
:101026000230870006302000A90021005C080E224D
:101036008831AE001530AF01B000B1015B278831B1
:1010460000302100BF00A030C00020002E08210083
:101056003F07C10020002F082100403DC2005E0866
:101066004107840042080318420A850000088100EF
:101076001530DA0ADE0A5E02031C10280030DC0A8C
:1010860098311A20883159082000D9002100DB0A3E
:101096005B08D527E830B5000330B60093319D23B1
:1010A6008831FB2F2100EA01EA0A2200DD01DB017B
:1010B600DB0A22005B03031D0800943105248831F6
:1010C6009431052488310A30A90022005D08973141
:1010D60031278831A03E86000130870001082200B2
:1010E600D4000A30D5012000A90022005D089731FE
:1010F60031278831A13E8600013087000108220091
:10110600D6000A30D7012000A90022005D089731D9
:1011160031278831A23E860001308700010822006F
:10112600D800D530D9012000B500A330B600220082
:101136005D082000B700B801220055082000BA005B
:10114600220054082000B900220057082000BC00E5
:10115600220056082000BB00220059082000BE00CD
:10116600220058082000BD00483081311121883105
:101176006A30B500A430B60058308131112188316B
:101186005B2188315B2188312100EA01EA0A2100CE
:101196006A0803195C28702788312200DC00DC27E6
:1011A600883122005C0B3029DB012100EA01DD0ACF
:1011B600DA01DE015A08203E86000230870006303A
:1011C6002000A90021005D080E228831AE000B30F8
:1011D600AF01B000B1015B2788317E302100BF002E
:1011E600A030C00020002E0821003F07C1002000CB
:1011F6002F082100403DC2005E08410784004208D6
:101206000318420A8500000881000B30DA0ADE0A5C
:101216005E02031CDD28DD0AB801B80A22005D085B
:1012260098312B208831003A031D1D29A7315127FB
:1012360088311F292100DB0A210059082000D90026
:1012460021005B08D527E830B5000330B60093319E
:101256009D238831FB2788315C2802305C06031DFC
:10126600CA2820006508FE3E2100BF00FF30031893
:101276000030C0004008803AC10080304102031DA2
:10128600482922005D0821003F0203184D2922004B
:10129600DD014F292200DD0A2100EA01CA285A0889
:1012A600013A03190D28033A031955285A2908004B
:1012B6008030DA218831BC013C08483E8600023085
:1012C60087000108031D692920306F293C08483E24
:1012D6008600023087000108932188311030BC0A4D
:1012E6003C02031C5F29C030DA2188311030BC0073
:1012F6003C08483E8600023087000108031D852908
:1013060020308B293C08483E8600023087000108C1
:10131600932188312030BC0A3C02031808007B293F
:10132600BB00B501B50AB60193319D2388318030E3
:10133600AF2188313B08F52188310000000000000C
:101346000000C030AF21883100000000000000001E
:10135600000000000030AF292000AA0000308B19E1
:101366000130AB008B1122000C114030C9218831AD
:101376001230C92188312A08C92122000C15200003
:101386002B0C031C8B1103188B1508002000A900D9
:1013960091112400110895132000290824009100BA
:1013A600951BCE292000911DD52991110800BB005F
:1013B6000030AF21B501B50AB60193319D238831BE
:1013C6003B08F52188310000000000000000403095
:1013D600AF2188310000000000000000000000007E
:1013E6000030AF29AA0000308B190130AB008B11F9
:1013F60022000C114030C92188311330C9218831AF
:101406002A08C92122000C1520002B0C031C8B1165
:1014160003188B1508002000AB000830AC00AD01A6
:101426002B08AA000730AA36890B162A2D352A045E
:10143600AD00AB3529082D02031C232A2908AD026D
:10144600AC0B132A2D08080020008D182C2A270023
:10145600961420005E1C3F2A0030220035024030E0
:1014660003193402031C3C2AB401B50120005E10A6
:101476003F2AB40A0319B50AFF302000E600BF016F
:101486003F08AE004530AF01B000B1015B2788319F
:101496006630B6002330B7002E08360786002F08C0
:1014A600373D8700010803195B2A3F08E600602ADA
:1014B6000230BF0A3F02031C432A023066020318A9
:1014C6000034C001C00A6608AE004530AF01B00066
:1014D600B1015B2788316730B6002330B7002E088C
:1014E600360786002F08373D8700011FC0012100FF
:1014F6004530C701CF012000B000B1016608AE003B
:10150600AF015B2788316830B6002330B7002E085C
:10151600360786002F08373D87000108BE00CC300D
:10152600BE059B2E6608AE004530AF01B000B10186
:101536005B2788316C30B6002330B7002E0836079B
:1015460086002F08373D8700010FBF2A6608AE00C8
:101556004530AF01B000B1015B2788316D30B60070
:101566002330B7002E08360786002F08373D870040
:10157600010FBF2A210047152100C7172000400888
:1015860003192C2B6608AE004530AF01B000B1013F
:101596005B2788316A30B6002330B7002E0836073D
:1015A60086002F08373D870001082100D000200063
:1015B6006608AE004530AF01B000B1015B27883147
:1015C6006B30B6002330B7002E08360786002F088A
:1015D600373D870001082100D10020006608AE00D3
:1015E6004530AF01B000B1015B2788316E30B600DF
:1015F6002330B7002E083607B8002F08373DB9004C
:1016060038082100C800200039082100C900200040
:101616006608AE004530AF01B000B1015B278831E6
:101626006630B6002330B7002E08360786002F082E
:10163600373D87000108ED3E2100CC0020006608FA
:10164600AE004530AF01B000B1015B27883176307E
:10165600872E6608AE004530AF01B000B1015B27AA
:1016660088316E30B6002330B7002E083607860064
:101676002F08373D870001082100D00020006608AA
:10168600AE004530AF01B000B1015B2788316F3045
:10169600B6002330B7002E08360786002F08373DE0
:1016A600870001082100D10020006608AE00453001
:1016B600AF01B000B1015B2788317030B60023302E
:1016C600B7002E083607B8002F08373DB90038088E
:1016D6002100C800200039082100C9002000660842
:1016E600AE004530AF01B000B1015B2788316630EE
:1016F600B6002330B7002E08360786002F08373D80
:1017060087000108EB3E2100CC0020006608AE00F1
:101716004530AF01B000B1015B2788317830872EA4
:101726002100C717200040080319002C6608AE00E8
:101736004530AF01B000B1015B2788316A30B60091
:101746002330B7002E08360786002F08373D87005E
:1017560001082100D00020006608AE004530AF0128
:10176600B000B1015B2788316B30B6002330B7007B
:101776002E08360786002F08373D8700010821000E
:10178600D10020006608AE004530AF01B000B101BF
:101796005B2788317430B6002330B7002E08360731
:1017A600B8002F08373DB90038082100C8002000CE
:1017B60039082100C90020006608AE004530AF0197
:1017C600B000B1015B2788316630B6002330B70020
:1017D6002E08360786002F08373D87000108E73EAA
:1017E6002100CC0020006608AE004530AF01B000F5
:1017F600B1015B2788317C30872E6608AE00453004
:10180600AF01B000B1015B2788317430B6002330D8
:10181600B7002E08360786002F08373D87000108D7
:101826002100D00020006608AE004530AF01B000B0
:10183600B1015B2788317530B6002330B7002E081A
:10184600360786002F08373D870001082100D100A2
:1018560020006608AE004530AF01B000B1015B273D
:1018660088317630B6002330B7002E083607B80028
:101876002F08373DB90038082100C8002000390874
:101886002100C90020006608AE004530AF01B00057
:10189600B1015B2788316630B6002330B7002E08C9
:1018A600360786002F08373D87000108E53E2100F0
:1018B600CC0020006608AE004530AF01B000B10193
:1018C6005B2788317E30872E21004715C717CF0149
:1018D600CF0A20006608AE004530AF01B000B10166
:1018E6005B2788316A30B6002330B7002E083607EA
:1018F60086002F08373D870001082100D000200010
:101906006608AE004530AF01B000B1015B278831F3
:101916006B30B6002330B7002E08360786002F0836
:10192600373D870001082100D10020006608AE007F
:101936004530AF01B000B1015B2788316C30B6008D
:101946002330B7002E083607B8002F08373DB900F8
:1019560038082100C800200039082100C9002000ED
:101966006608AE004530AF01B000B1015B27883193
:101976006630B6002330B7002E08360786002F08DB
:10198600373D87000108F53E7B2E6608AE004530E0
:10199600AF01B000B1015B2788316C30B60023304F
:1019A600B7002E08360786002F08373D8700010F3F
:1019B600F22C6608AE004530AF01B000B1015B27DE
:1019C60088316D30B6002330B7002E083607860002
:1019D6002F08373D8700010FF22C21004715210003
:1019E600C717CF01CF0A20004008031D612D6608E6
:1019F600AE004530AF01B000B1015B2788316E30D3
:101A0600B6002330B7002E08360786002F08373D6C
:101A1600870001082100D00020006608AE0045308E
:101A2600AF01B000B1015B2788316F30B6002330BB
:101A3600B7002E08360786002F08373D87000108B5
:101A46002100D10020006608AE004530AF01B0008D
:101A5600B1015B2788317030B6002330B7002E08FD
:101A66003607B8002F08373DB90038082100C800EE
:101A7600200039082100C90020006608AE00453064
:101A8600AF01B000B1015B2788316630B600233064
:101A9600B7002E08360786002F08373D8700010855
:101AA600F13E2100CC0020006608AE004530AF01B3
:101AB600B000B1015B2788317230872E6608AE0010
:101AC6004530AF01B000B1015B2788316A30B600FE
:101AD6002330B7002E08360786002F08373D8700CB
:101AE60001082100D00020006608AE004530AF0195
:101AF600B000B1015B2788316B30B6002330B700E8
:101B06002E08360786002F08373D8700010821007A
:101B1600D10020006608AE004530AF01B000B1012B
:101B26005B2788316E30B6002330B7002E083607A3
:101B3600B8002F08373DB90038082100C80020003A
:101B460039082100C90020006608AE004530AF0103
:101B5600B000B1015B2788316630B6002330B7008C
:101B66002E08360786002F08373D87000108F33E0A
:101B76002100CC0020006608AE004530AF01B00061
:101B8600B1015B2788317030872E2100C717CF013E
:101B9600CF0A200040080319062E6608AE0045301D
:101BA600AF01B000B1015B2788316A30B60023303F
:101BB600B7002E08360786002F08373D8700010834
:101BC6002100D00020006608AE004530AF01B0000D
:101BD600B1015B2788316B30B6002330B7002E0881
:101BE600360786002F08373D870001082100D100FF
:101BF60020006608AE004530AF01B000B1015B279A
:101C060088317330FA2A6608AE004530AF01B0005D
:101C1600B1015B2788317330B6002330B7002E0838
:101C2600360786002F08373D870001082100D000BF
:101C360020006608AE004530AF01B000B1015B2759
:101C460088317430B6002330B7002E083607860078
:101C56002F08373D870001082100D10020006608C3
:101C6600AE004530AF01B000B1015B278831753059
:101C7600612B6608AE004530AF01B000B1015B27AD
:101C860088316C30B6002330B7002E083607860040
:101C96002F08373D8700010F662E6608AE004530D7
:101CA600AF01B000B1015B2788316D30B60023303B
:101CB600B7002E08360786002F08373D8700010F2C
:101CC600662E2100471520006608AE004530AF019C
:101CD600B000B1015B2788316630B6002330B7000B
:101CE6002E08360786002F08373D87000108F63E86
:101CF6002100CC0020006608AE004530AF01B000E0
:101D0600B1015B2788316E30B6002330B7002E084C
:101D16003607B8002F08373DB90038082100CA0039
:101D2600200039082100CB00AF2E9731BB270034A5
:101D36003E08083A03193C2E883A0319672C083ADC
:101D46000319C82C043A0319C82D443A0319952AD5
:101D5600043A0319932B982E20006608AE004530EE
:101D6600AF01B000B1015B2788316730B600233080
:101D7600B7002E08360786002F08373D87008119E1
:101D8600982ED32EFC302100C705F92E21004708D6
:101D9600FC390138C700F92E03302100C704F92E9B
:101DA6006608AE004530AF01B000B1015B2788314F
:101DB6006730B6002330B7002E08360786002F0896
:101DC600373D870001080739B800B9013908003ADC
:101DD6000319EE2E982E3808003A0319CF2E013A31
:101DE6000319C52E023A0319C92E982E200066083B
:101DF600AE004530AF01B000B1015B2788316630D7
:101E0600B6002330B7002E08360786002F08373D68
:101E160087000108B800B9016608AE004530AF0179
:101E2600B000B1015B2788316530BA002330BB00B2
:101E36002E083A07BC002F083B3DBD0038083C077A
:101E4600860039083D3D870001082100CE002000AC
:101E56006608AE004530AF01B000B1015B2788319E
:101E66006630B6002330B7002E08360786002F08E6
:101E7600373D87000108B800B9016608AE00453055
:101E8600AF01B000B1015B276630BA002330BB005A
:101E96002E083A07BC002F083B3DBD0038083C071A
:101EA600860039083D3D870001082100CD00013438
:101EB600B201B3012E1C632F3008B2073108B33DBF
:101EC600B035B10DAF36AE0C2E082F04031D5D2FB5
:101ED6003308AF003208AE00080020000D188B2F23
:101EE60021005808031D0034D801D80A9A31A522CA
:101EF6002C082200AD0020002B082200AC00200098
:101F06002A082200AB00200029082200AA0001347A
:101F16008C1AA52F21005808031D0034D801D80AB1
:101F26009A31A5222C082200AD0020002B082200A1
:101F3600AC0020002A082200AB002000290822005D
:101F4600AA0002349A31A52288312C08B6002B0843
:101F5600B5002A08B4002908B3003608BA003508C7
:101F6600B9003408B8003308B70022002A08200058
:101F7600B70222002B082000B83B22002C082000C4
:101F8600B93B22002D082000BA3B3A08031DD22F88
:101F96003908031DD22F40303802031C00342100BB
:101FA600D80100342000DA005908D7005A08A731B2
:101FB600DF2F9B3133238831003A03190800913112
:101FC600D22188312100D90A59082000D9002100E0
:101FD6005B08D527403022008F06D0302000B500A0
:101FE6000730B60093319D238831FB278831FC2FBB
:0A1FF60008002100D7119731BB2F1E
:10200E002000CE00D1015108FA3EAA005330AB0198
:10201E00AB0ACB0051084B0298315B209031200067
:10202E000330D10A5102031C0A28FF302200D000CF
:10203E00FE30CF002000D1015108FD3EAA004E30E7
:10204E00AB01AB0ACB0051084B0298315B209031AB
:10205E0020000330D10A5102031C23288631CC26DE
:10206E0090312100D70120004E08031D6C28D101AC
:10207E000A30A900510831279031A83E8600013060
:10208E0087000A308101A900510831279031A03E06
:10209E008600013087000A308101A90051083127DE
:1020AE009031A13E8600013087000A308101A900DF
:1020BE00510831279031A23E86000130870005304D
:1020CE008101D10A5102031C3F28ED2790312100D6
:1020DE00DA0120004E080319E528E830A900003087
:1020EE00AA00210065082000AC0021006408200031
:1020FE00AB00AD01AD0AAE01932790312030210027
:10210E00680203180800E0302000A9000030AA0081
:10211E00210067082000AC00210066082000AB00FB
:10212E000230AD00AE0193279031EB30A9000030A4
:10213E00AA00210063082000AC00210062082000E4
:10214E00AB00AD01AD0AAE0193279031A030A900CE
:10215E000130AA006408AC006308AB003230AD0059
:10216E00AE01932790316530A9000030AA002200FD
:10217E0039082000AC00220038082000AB00AD0169
:10218E00AD0AAE0193279031C330AA00A430AB0044
:10219E0041239031210061085523903121006008C0
:1021AE0055239031B0302000AA00A430AB0041235B
:1021BE00903121006808552390312A2934302100AE
:1021CE00E0001230E100E0302000B4000030B50035
:1021DE00210067082000B700210066082000B60025
:1021EE000230B800B90155279031E830B400003004
:1021FE00B500210065082000B7002100640820000A
:10220E00B600B801B80AB90155279031EB30B400C9
:10221E000030B500210063082000B70021006208DD
:10222E002000B600B801B80AB90155279031A03088
:10223E00B4000130B5006408B7006308B600323050
:10224E00B800B90155274C302000D000CF144F08EC
:10225E0087394038CF004E0801394F11031D4F15F5
:10226E004F105008C7004F08C6008731CF27903156
:10227E00FF30CC00CD00E030AD004C309F314A270E
:10228E009031210068089B313C232100D601561461
:10229E006B0EF039D6048B15080021000C112200AC
:1022AE000C150A302000B500B6019D239031260092
:1022BE000C1327000C130A302000B500B6019D2325
:1022CE00903127000C17FA27A73189279031A731B3
:1022DE00A427903100308931AF2190310A30B500FA
:1022EE00B6019D2390313C30142490310A30B50054
:1022FE00B6019D2390310C30142490310A30B50074
:10230E00B6019D2390310130142490310A30B5006E
:10231E00B6019D2390310C30142CF830D700A2302A
:10232E00D800D901DA01DA0A7A2390311C30AA00DA
:10233E00A230AB0041239031D830AA00A230AB00BE
:10234E0041239031BE30AA00A330AB00412390311F
:10235E006230AA00A130AB0041239031A230AA0016
:10236E00A130AB00412390312030AA00A130AB0048
:10237E0041239031DE30AA00A030AB0041239031D2
:10238E00E030AA00A130AB0041239031D330AA0037
:10239E00A430AB00412B2200A01DDC29BA30200056
:1023AE00AA00A430AB00412390312200200803394B
:1023BE000319E62970302000AA00A330EA298C30D8
:1023CE002000AA00A330AB00412390312200280840
:1023DE00552390312200201F292ACC302000AA003C
:1023EE00A430AB00412390312200A01F0F2A2308F6
:1023FE0086002408870041310108552390312200C0
:10240E002308860024088700010855239031292AC5
:10241E002000B101220024082000B0003108220063
:10242E0023022000AF00031CB00386003008870093
:10243E00473101085523903120000830B10A31028E
:10244E00031C112AA1302000AA00A430AB004123A6
:10245E009031B10122002708200031020318080034
:10246E003108AF00B0012200250786002000300899
:10247E002200263D87000108702390312000B10A0A
:10248E00312AB40006303402031C7E2A1330AA000F
:10249E00A430AB0041239031B6015330B30036085F
:1024AE00B3023308860001308700010855239031AE
:1024BE0020000830B60A3602031C542AA430AA00A3
:1024CE00A430AB0041239031210061085523903197
:1024DE00210060085523903198302000AA00A430C6
:1024EE00AB004123210068089931692190310530F4
:1024FE00200034020318DE2A5A30AA00A230AB00A4
:10250E00412390310A30A900340831279031A83E7A
:10251E00860001308700811F080034085523903152
:10252E008A302000AA00A430AB0041239031B601BE
:10253E00083036020318B42A0A30A90034083127AD
:10254E009031A73EB3003608B3023308860001303F
:10255E008700010855239031BA2A9530AA00A4307D
:10256E00AB004123903120000830B60A3602031C1E
:10257E009F2A9330AA00A430AB0041239031B601BC
:10258E000A30A900340831279031A93E3607B3002E
:10259E008600013087000108552390312000B60ACD
:1025AE000319C72AD530AA00A430AB00412B5830EE
:1025BE00AA00A230AB0041239031B6010A30A90027
:1025CE00360831279031A83E860001308700811FE2
:1025DE003B2B3608552390318A302000AA00A430B8
:1025EE00AB0041239031B501083035020318102B92
:1025FE000A30A900360831279031A73EB3003508BE
:10260E00B30233088600013087000108552390314C
:10261E00162B9530AA00A430AB0041239031200038
:10262E000830B50A3502031CFB2A9330AA00A430E9
:10263E00AB0041239031B5010A30A900360831278D
:10264E009031A93E3507B30086000130870001089E
:10265E00552390312000B50A0319232BD530AA003B
:10266E00A430AB00412390310530B60A3602031870
:10267E000800E52A20002B08AD002A08AC00AA0AA3
:10268E000319AB0A84002D0885000008AE002E0841
:10269E00031908002E0870239031412B2000AB0047
:1026AE00AA000F30AB0EAB05AB052B083C3E8600E7
:1026BE000130870001087023903120002A08AB00FA
:1026CE000F30AB052B083C3E860001308700010819
:1026DE00702B2000A90023009E1C722B20002908BD
:1026EE0023009A000800052490310530B500B6018C
:1026FE009D235808B6005708B5005908B700483052
:10270E00B80181311121903189315B2190315A0804
:10271E0003190800DB01FA30B500B6019D23903194
:10272E000830DB0A5B0203180800922B3508A9005B
:10273E003608AA000930AB01AC01B001AF01AE0002
:10274E00C430AD00E02390312C08BA002B08B9003C
:10275E002A08B8002908B7005630B707FF30B83D31
:10276E00B93DBA3DBA1B08003A08031DC82B3908FB
:10277E00031DC82B3808031DC82BC4303702031C99
:10278E000800BA1B08003A08031DD72B3908031D91
:10279E00D72B3808031DD72B01303702031C080036
:1027AE000000D9302000B707FF30B83DB93DBA3D23
:1027BE00C82BB101B201B301B401291CEE2B2D08B7
:1027CE00B1072E08B23D2F08B33D3008B43DAD35EC
:1027DE00AE0DAF0DB00DAC36AB0CAA0CA90C2C087F
:1027EE002B042A042904031DE42B3408AC003308FF
:1027FE00AB003208AA003108A900080001301424E9
:10280E0090310230B500B6019D232030A900AA01F7
:10281E00AB004830AC01A731612F2000AC00003076
:10282E008931AF2190312C088931F521903100008A
:10283E000000000040308931AF21903100000000CF
:10284E00000000000000000000000000000000304A
:10285E008931AF292100D71C792C9A31A5229031CC
:10286E002C082100B90020002B082100B800200000
:10287E002A082100B700200029082100B6002200F6
:10288E002E08210036022000DA0022002F08210037
:10289E00373B2000DB00220030082100383B2000AF
:1028AE00DC00220031082100393B2000DD005D08EC
:1028BE00031D692CB5305A02C4305B3B04305C3BBF
:1028CE00031C792C2100D710A0302000B400013059
:1028DE00B5006408B7006308B6003230B800B9011D
:1028EE00552790312100D71908008A3127229031BF
:1028FE00003A0319080022000030A00121004719F8
:10290E000130DF002200200821005F06FC395F063F
:10291E002200A000A0112100C71D972C2200A01597
:10292E00210047080339013A031DA02C2200A016EE
:10293E00A22C2200A01220132100C71FA82C2200B7
:10294E0020172100C71FB22C49082200A400210025
:10295E0048082200A300210051082200A2002100F5
:10296E0050082200A10021004C082200A7002100DF
:10297E004B082200A60021004A082200A5002100D3
:10298E004E082200A90021004D082200A800A01A1E
:10299E00122F232F250886002608870041310108B3
:1029AE00210068060319DE2CBB279031252F03303A
:1029BE006B060319DB2C2200210FE82C220A0319C7
:1029CE00FA2C2100610822002206031DF22C2100A0
:1029DE006008220021060319FA2C03302702031C7B
:1029EE00FA2CF230FD2C8531F22590312100BC00FD
:1029FE006B0B0A2D3C0303190A2D02303C060319FA
:102A0E000A2DF330BC00DA015A08203E860002304F
:102A1E00870091308100DA0A5A08203E86003C0871
:102A2E008100DA0A5A08203E860055088100DA0A2B
:102A3E003C080319242D3C0B3C2D5A08203E8600E1
:102A4E000230870056088100DA0ABD015A08203E7E
:102A5E008600023087003D08E93E840085010008AB
:102A6E008100DA0ABD0A03192D2DBB272200220888
:102A7E002000D400220021082000D30022002408C8
:102A8E002000D600220023082000D5000030D701F8
:102A9E00D70A2200A01901302000D80000309A3148
:102AAE00D12290313C08031DDB2C53082000AE00D0
:102ABE000A30AF01B000B1018F315B2790312F0882
:102ACE00B7002E08B6006308B6076408B73D0A3093
:102ADE00A9002100530831279031A03EB4000130E7
:102AEE00B5000A30B800B90155279031252F0330B3
:102AFE0021006B020318DB2C220025088600260815
:102B0E0087004131010821006806031DDB2CDA0124
:102B1E005A08203E86000230870097308100DA0A7C
:102B2E005A08203E860056088100DA0ABD015A086E
:102B3E00203E8600023087003D08E93E8400850174
:102B4E0000088100DA0ABD0A03199E2DBB27220058
:102B5E0022082000D400220021082000D3002200E9
:102B6E0024082000D600220023082000D5000030C3
:102B7E00D701D70A2200A01901302000D80000305A
:102B8E009A31D1229031252F2100DA015A08203EA8
:102B9E0086000230870092308100DA0ABD010A30C9
:102BAE002000A90021003D0831279031A83E860063
:102BBE0001308700811F2D2E220024082000AD0039
:102BCE00220023082000AC000A30A90021003D0895
:102BDE0031279031A03EAE00D4279031003A031930
:102BEE002D2E0A30A90021003D083127A83E86006F
:102BFE0001308700810121003D082000AE000A301F
:102C0E00AF01B000B1018F315B2790312F08B700B3
:102C1E002E08B6006308B6076408B73D0A30A9004F
:102C2E0021003D0831279031A03EB4000130B5009F
:102C3E000A30B800B9015527903121005A08203EBC
:102C4E008600023087008101DA0A332E210005301A
:102C5E00BD0A3D02031CD62DBB2790310530210045
:102C6E003D06031D422E5A08203E86000230870084
:102C7E00F0308100DA0A220022082000D40022005F
:102C8E0021082000D300220024082000D6002200B4
:102C9E0023082000D5000030D701D70A2200A01942
:102CAE0001302000D80000309A31D1229031252FEA
:102CBE002100600F872E610A031D872E2200220835
:102CCE002100E100220021082100E000FF30BA00BF
:102CDE00BB00E0302000AD00BA309F314A27903162
:102CEE00E030B4000030B500210067082000B700C6
:102CFE00210066082000B6000230B800B901552741
:102D0E008531F22590312100D7149A31A5229031C8
:102D1E002C082200B10020002B082200B000200059
:102D2E002A082200AF00200029082200AE00DB2C6A
:102D3E00250886002608870041310108003A03194C
:102D4E005F2E013A03195F2EDB2C2100D71EDB2CE0
:102D5E00D712DB2C25088600260887004131010892
:102D6E00031DDB2C2100BD010A302000A90021002B
:102D7E003D0831279031A83E860001308700811F23
:102D8E000A2F220024082000AD0022002308200074
:102D9E00AC000A30A90021003D0831279031A03E39
:102DAE00AE00D4279031003A03190A2F0A30A90039
:102DBE0021003D083127A83E8600013087008101A1
:102DCE0021003D082000AE000A30AF01B000B10175
:102DDE008F315B2790312F08B7002E08B60063089D
:102DEE00B6076408B73D0A30A90021003D08312717
:102DFE009031A03EB4000130B5000A30B800B901E0
:102E0E0055279031DB2C21000530BD0A3D020318F9
:102E1E00DB2CBB2E232F25088600260887000108F1
:102E2E007F3E031C232F8400173004020318232F28
:102E3E0087310435A13E82002100D71522002708D4
:102E4E0003192E2F2100571A2E2FD71E08002100EE
:102E5E00D711BB2F2000AB00AA0129082B18AA07F7
:102E6E00A9352908AB18AA07A93529082B19AA07CD
:102E7E00A9352908AB19AA07A93529082B1AAA07BB
:102E8E00A9352908AB1AAA07A93529082B1BAA07A9
:102E9E00A9352908AB1BAA072A08080038083904E7
:102EAE00031908003708230092002000370823007A
:102EBE00920020003608230091002000340886007E
:102ECE00350887000108230093002000B40A031977
:102EDE00B50A230095131513151500308B1B013001
:102EEE002000BA008B13553023009600AA309600AE
:102EFE00951420003A0C031C8B1303188B17230018
:102F0E009518862F151101302000B8020030B93BFC
:102F1E00B60A0319B70A552F2D082E0403190800F7
:102F2E002C082300920020002C0823009200200081
:102F3E002B0823009100951315131514F8279031C3
:102F4E002000290886002A08870023001308810024
:102F5E002000A90A0319AA0A0130AD020030AE3BC7
:102F6E00AB0A0319AC0A932F023020006602031835
:102F7E0008006608AE004530AF01B000B1018F31D8
:102F8E005B276630B4002330B5002E083407860068
:102F9E002F08353D870081010800B20132082E0747
:102FAE00AF008600013087003208B000B1012C0757
:102FBE00840031082D3D850000080106031D0034F4
:102FCE000830B20A320203180134D52F38302000EF
:102FDE00980011102100111420001814FC01FD019D
:102FEE0008000000080021008E128E1120009111A1
:022FFE000800C9
:103004003034313432343334343435343634373480
:103014003834393441344234433444344534463406
:10302400FF34113422343334443455346634113487
:103034002000DA00210061082000D400210060088B
:103044002000D300D501D601D7015A08D800013099
:10305400D12A2000DB000A30A9005B089731312710
:103064009831A83E860001308700811F003421007A
:10307400B601B60A3808B7000A302000A9005B0878
:10308400973131279831A03E4728DA0021006108A2
:103094002000D400210060082000D3005A08D50085
:1030A4000130D600D701210037082000D8000030B5
:1030B400D12AAC0022000E1103308931C921983184
:1030C4002A088931C92198312B08031974282C083E
:1030D4008600013087002727983181002000AC0A40
:1030E400AB03662822000E150800FF30E60021001D
:1030F4000130E900EA000330EB000230840098302C
:1031040085003C308600013087001830FF01A7316C
:103114004527983166308400233085008A30FE00CC
:10312400FF01A73139279831FC01FD012000C73088
:10313400DE01DF01E001E101E201E301E401E50177
:103144008400003085002230FE000030FF00A731EB
:103154003927983120308400013085001C30FE006E
:103164000030FF00A73139279831A03084000130A6
:1031740085003230FE000030FF00A7313927983136
:1031840020308400023085004930FE000030FF000A
:10319400A731392798317E102000D0287027983124
:1031A400E3209731ED279831913194219831AE275E
:1031B40098312100C6004608EE2098316E279831D8
:1031C400E02821008E170E13243023009E00903037
:1031D4009D001F309B000800C40044080319F82810
:1031E40001309031072098318F31FB2F22008F134B
:1031F4000F13003090310720983119303C23983157
:10320400003A031D08291930B62198310030C7212E
:1032140098311930DC012F2198312100FF30BF0192
:10322400ED219831C500450A03191F2920001930E2
:10323400DC01DC0A2F21983128290A302000B30050
:103244000030B401B501B601B7012D27FF3092312A
:103254004822983122008F17F628DD005C08031DF0
:103264004E29B830D700A230D8005D08D900DA0161
:10327400DA0A93317A2398311730AA00A330AB00CD
:103284009331412398315D086921D5302000AA008B
:10329400A430AB009331412B3530D700A330D80094
:1032A4005D08D900DA01DA0A93317A239831533070
:1032B400AA00A330AB009331412398315D08692102
:1032C400D5302000AA00A430AB009331412B20005C
:1032D400B20064303202031C7B296430AE00320831
:1032E4009E213C3E86000130870001089331702303
:1032F40098310A30200032020A30031C9229AE00B1
:103304006430A90032088A310E2298319E213C3E55
:1033140086000130870001089331702398310A3008
:103324002000A90032088A310E223C3E860001307A
:10333400870001089331702BAF00B1012E080319E7
:10334400B429B001B00AAE1BA929AE35A429B13500
:103354002E082F02031CB1292E08AF023114AE36F9
:10336400B00BA92931080800B300A630AA00A33085
:10337400AB00933141239831330869218A3020000E
:10338400AA00A230AB009331412BBC0004303C02B4
:10339400031808003C082100EB002000BB003B0E92
:1033A400F039BB00210056080F3920003B042100EE
:1033B400D600EB302000B4000030B50021006308D3
:1033C4002000B700210062082000B600B801B80A46
:1033D400B9019731552F6B082200D4000330D50072
:1033E400DA01A522983121003F0BF929FF34A522E7
:1033F40098312C082200D90020002B082200D80084
:1034040020002A082200D700200029082200D60024
:10341400B430D602C430D73B0430D83B0030D93B5B
:103424002100EB0157162100571E9F2AA52298312F
:103434002C082200DE0020002B082200DD002000E2
:103444002A082200DC00200029082200DB0056089C
:103454005B022100C000220057085C3B2100C10030
:10346400220058085D3B2100C200220059085E3B3F
:103474002100C3004308031D472AB5304002C4306D
:10348400413B0430423B031C962A22005E08D900CB
:103494005D08D8005C08D7005B08D600DA035A0F31
:1034A400152ADA01DA0AD503550F5B2A21005712CF
:1034B400FF342100DA015A08203E860002308700DA
:1034C40081308100DA0A5A08203E860068088100AB
:1034D400DA0A5A08203E860056088100DA0A2200D9
:1034E400DF0121005A08203E8600023087002200B6
:1034F4005F08E93E84008501000881002100DA0AA2
:103504002200DF0A0319732A210061082000D40075
:10351400210060082000D3000130D501D601D70175
:10352400D70AD801D122983133239831003A0319AC
:10353400152A8F31FC279831152A220054082100BE
:10354400EB00530808002000B101B2012100111062
:103554000030200011180130AE001608AF00170823
:10356400B000003011180130AD002E06031DAA2A48
:103574002E080319C12A1110FC0A0319FD0A7C083C
:10358400B1077D08B2072100111420003208AC00F5
:103594003108AB003008AA002F08A9000800210058
:1035A400AE00AF01200057080319DA2A0130DB2AE4
:1035B4000030D90021002F0820005906FC39590693
:1035C4002100AF002E08031DEA2A2100AF16EC2AC1
:1035D4002100AF122E0801392F11031D2F152000D1
:1035E400580801392100AF11031DAF15B3012E088E
:1035F4000319FE2A0130FF2A0030B2002E08031DF1
:10360400062B21002F17082B21002F13AF172000A2
:1036140056082100B100200055082100B000200008
:1036240054082100B500200053082100B400AF3035
:103634008600003087004630840000308500073063
:103644002000D90016001A00D90B242B2030CD00FD
:1036540021005A082000CE009B242100AD00DA018D
:103664000800943131242100570CBE00BE0C3E0CDE
:10367400013908002000BB00B0015A239831003AF8
:10368400031900343B082100E800E8302000B400AE
:103694000030B500210065082000B700210064084F
:1036A4002000B600B801B80AB90197315527013492
:1036B4002000B1000B303102031C00341B303102F6
:1036C4000318003431082100D40020000230AA017C
:1036D400AB00310EF039503E0338AC00AB269831C4
:1036E4000430AA006D30822498316D30AA018224FE
:1036F400013422008D1203302000BB00BC01BD0147
:10370400BE013E083D043C043B040319A72B0630CC
:10371400B601B501B4008230B3000130B302003009
:10372400B43BB53BB63B330F8F2B340A031D8F2BB1
:10373400350A031D8F2B360A0130031D902BBB0263
:103744000030BC3BBD3BBE3B832B22008D160A30B0
:103754002000BF00C001C101C2014208410440046D
:103764003F040319D32B0630BA01B901B8008230E3
:10377400B7000130B7020030B83BB93BBA3B370F52
:10378400BB2B380A031DBB2B390A031DBB2B3A0A7A
:103794000130031DBC2BBF020030C03BC13BC23B08
:1037A400AF2B0730AA0055308224983154300C27AF
:1037B4009831C5000739031DD82BC301C401C30ABE
:1037C4000319C40A03304402E83003194302031CFA
:1037D400E12B1B30AA01AA0A82249831FF30AA00E7
:1037E400073082249831FF30AA00093082249831AE
:1037F400FF30AA00033082249831FF30AA0005303C
:1038040082249831C5014508220033072000B20004
:103814008600013087000108AA0045350B3E82244A
:1038240098310830C50A4502031C052C0230AA0051
:10383400AB008030AC00AB2698310330AA000230D4
:10384400AB00AC01AB2698310630AA000230AB00C5
:103854009030AC00AB2698310730AA000230AB00A0
:103864008030AC00AB2698310830AA000230AB009F
:103874001030AC00AB2698312030AA000230AB00E7
:103884002130AC00AB2698318030AA0075308224F8
:1038940098314030AA007D30822498316030AA00EB
:1038A4007F30822498319830AA00313082249831B4
:1038B4009530AA005D30822498310F30AA0002307E
:1038C400AB00DC269831C500A039B200A03A031D34
:1038D4005F2CE630AA006530822498310230AA01B8
:1038E400AB000330AC00AB2698310130AA000230A3
:1038F400AB00AC00AB269831B001210054085A2B20
:10390400AB0000308B190130AC008B1122008D11FB
:1039140020002B088931C92198312A088931C9210D
:1039240022008D1520002C0C031C8B1103188B1501
:1039340008002100AC012000461DA22CC901C90ABF
:10394400C619CA0146080339013A031DAD2C0330D8
:103954002100A900B42C46080339031DB42C21000E
:10396400A901A90A200060084C06031DBB2C5F08AE
:103974004B06031DC92C5F0FC22C600A0319C92C06
:1039840005302100AA002917A801A80ACD2C073068
:103994002100AA00A801200049080319D52C210000
:1039A400AA0AAA0AD82C08302100AA0720004A082B
:1039B4000319E02C2100AA0AAA0AE32C08302100EA
:1039C400AA072000C61A4619E92C2100A9162000CE
:1039D40046080339033A031DF82C21000730A901D6
:1039E400AA00A8012000CA01CA0AC612AA01AB0192
:1039F40021002A082000AC00AB2698312100AC0A33
:103A04002C082000AA00AB0121002A0820004E0740
:103A1400AC00AB2698312100AC0A2C082000AA0087
:103A2400AB01210029082000AC00AB26983121000D
:103A3400AC0A200046080339033A031D392D21003E
:103A44002C082000AA008030AB01AC00AB269831D2
:103A54002100AC0A2C082000AA00AB012100520866
:103A64002000AC00AB2698312100D20ABC2D4908B5
:103A74000319452D4A080319452D21002C0820005F
:103A8400AA008830612D49080319512D4A08031DE5
:103A9400512D21002C082000AA00C830612D4908AE
:103AA400031D5C2D4A0B5C2D21002C082000AA006C
:103AB4008C30612D21002C082000AA00CC30AB01F1
:103AC400AC00AB2698312100AC0A2C082000AA00D7
:103AD400AB01210052082000AC00AB269831210034
:103AE400D20AAC0A2C082000AA00AB014B08AC0097
:103AF400AB2698312100AC0A2C082000AA00AB01A7
:103B04004C08AC00AB2698312100AC0A2000461DBD
:103B14009C2D21002C082000AA00FF30AB01AC0032
:103B2400AB2698312100AC0A2C082000AA00FF30F3
:103B3400AB01B82D49080319BE2D21002C08200023
:103B4400AA00AB0147088600480887000108AC00BA
:103B5400AB2698312100AC0A2C082000AA00AB0146
:103B6400470886004808870041310108AC00AB26AD
:103B740098312100AC0AD92D2100AB012C0820007A
:103B8400AA00AB0121002B082000CF00D001470779
:103B940086005008483D87000108AC00AB269831E8
:103BA40021000830AC0AAB0A2B02031CC02D2808E4
:103BB400031DF02D2C082000AA00AB015F08AC0007
:103BC400AB2698312100AC0A2C082000AA00AB01D6
:103BD4006008AC00AB2698312100AC0A20004A08EA
:103BE40003190A2E21002C082000AA00AB01610849
:103BF400AC00AB2698312100AC0A2C082000AA00A6
:103C0400AB016208AC00AB2698312100AC0A242E2B
:103C14002100AB012C082000AA00AB0121002B08D5
:103C2400220033072000CF008600013087000108FE
:103C3400AC00AB26983121000830AC0AAB0A2B0249
:103C4400031C0C2EAB0120004E0821002B0203188C
:103C54003F2E2C082000AA00AB0121002B082000D5
:103C64004D07CF008600023087000108AC00AB2668
:103C740098312100AC0AAB0A252E20005E14C61A26
:103C840046194A2E05302100AB002000DE144F2EC9
:103C94002100AB01AB0A2000DE1021002B0820001C
:103CA400AA00373082249831A52298312C082100AB
:103CB400A30020002B082100A20020002A082100D4
:103CC400A100200029082100A00020008D186C2EDE
:103CD4002700961420005E18732E5E1D01345E11B9
:103CE4000034A52298312C082100A70020002B08BD
:103CF4002100A60020002A082100A5002000290890
:103D04002100A400200824022000CF002100210863
:103D1400253B2000D00021002208263B2000D100B2
:103D240021002308273B2000D2005208031DA32EA4
:103D34005108031DA32ED5304F023030503B031CD5
:103D4400672E7B2398315F30AD0061304A275E10C7
:103D5400003400308B190130AF008B1122008D111B
:103D640020002B08AE002A08AD00AE36AD0CAE36EE
:103D7400AD0CAE36AD0C2D087F3980388931C921A0
:103D840098312A08AD000430AD35FF3E031DC62E20
:103D94002D35E03910388931C92198312C08893101
:103DA400C92122008D1520002F0C031C8B11031830
:103DB4008B15080000308B190130AF008B112200E5
:103DC4008D1120002B08AD002A08AC00AD36AC0CD8
:103DD400AD36AC0CAD36AC0C2C087F39803889314B
:103DE400C92198312A08AC000530AC35890BF72E6F
:103DF4002C08E0398931C921983127272000AE00E9
:103E040022008D1520002F0C031C8B1103188B1519
:103E14002E0808002000AA0000308B190130AC00E5
:103E24008B1122008D1120002A088931C921983173
:103E340027272000AB0022008D1520002C0C031C2A
:103E44008B1103188B152B08080000308931C92108
:103E5400240011080800B800003A0319382F013A69
:103E64000319492F033A0319492F492F34302100EC
:103E7400E0001230E100FF302000B900BA00E03069
:103E8400AD0039304A279831A5229831A52A080077
:103E9400AE00860087010108E1002E088600413F3C
:103EA400E2002D0886000108DF002D088600413F4E
:103EB400E0006108AA000730822498316208AA0051
:103EC4000930822498315F08AA0003308224983193
:103ED4006008AA000530822C883103287030210044
:103EE400990023008C01FF3021008C008D008E008E
:103EF4008F0122008C018D018E018F0121000D1490
:103F04008C168F130F138D1122008D1521008D1225
:103F140022008D1621008D140E168E128E1127008C
:103F240095019401C03024009400213095002100B3
:103F34000D1222000D162700951421008C11220069
:103F44008C1521000E1122000E158B170B1727005C
:103F540096108B1591315429A52298312C082100F3
:103F6400A70020002B082100A60020002A08210019
:103F7400A500200029082100A400A52298312C08BE
:103F84002100AB0020002B082100AA0020002A08F1
:103F94002100A900200029082100A80024082802E3
:103FA400A0002508293BA10026082A3BA2002708D7
:103FB4002B3BA3002308031D0800D130200212303C
:103FC400213B1330223B031808008F3170279831AE
:103FD4002100AC00023A031D0034EB302000D7006E
:103FE400A330D800D901DA0193317A239831E8302B
:103FF400B5000330B60093319D2301342034B2342C
:10400400203420342034B23420342034B2342034E8
:10401400B23420342034203420342034B2342034D8
:10402400B2340D340A34B2342034B2342034B234CD
:104034002034B234203420342034B23420342034B8
:10404400B23420342034B234203420340D340A34D1
:10405400B23420342034B23420342034B234203406
:10406400B2342034B23420342034B23420342034F6
:10407400B2342034B2340D340A34B234203420340F
:10408400B23420342034B2342034B23420342034D6
:10409400B2342034B2342034B23420342034B23434
:1040A4000D340A34B23420342034B2342034203471
:1040B400B2342034B234203420342034B2342034A6
:1040C400B234203420342034B2340D340A34203451
:1040D400203420342034203420342034203420343C
:1040E400203420342034203420342034203420342C
:1040F400203420340D340A34B234B234B23420348F
:104104002034B234B234B234B2340D340A34B2345A
:1041140020342034B2342034B234203420342034D7
:104124000D340A34B23420342034B2342034B2345E
:10413400B234B234B2340D340A34B23420342034BC
:10414400B2342034B2342034203420340D340A34D0
:10415400B234B234B23420342034B234B234B2344F
:10416400B2340D340A342034203420342034203442
:1041740020342034203420340D340A340134003403
:104184000834003440340034003402340034103431
:1041940000348034013400340A340034643400348C
:1041A400E834033410342734013400341034003438
:1041B40000340134003410340D340A3420342034F3
:1041C400203420342034203420342034203420344B
:1041D400203420342034203420342034203420343B
:1041E4002034203420343234203474346F34203476
:1041F40075346E3469346334613473347434203404
:1042040065346E34633472347934703474346534A0
:10421400643420346D3465347334733461346734F6
:1042240065342E3420344C34453444342034323410
:104234002034773469346C346C3400340D340A34EB
:1042440020342034203420342034203420342034CA
:1042540020342034203420342034203420342034BA
:1042640020342034203420342034423475347434DF
:1042740074346F346E3420343134203474346F34F5
:104284002034623472346F3461346434633461349E
:104294007334743420346D3465347334733461345A
:1042A400673465342E3420345034753473346834B0
:1042B400203442347534743474346F346E340034BE
:1042C4000D340A3420342034203420342034203473
:1042D400203420342034203420342034203420343A
:1042E40020342034203420342034203420345034FA
:1042F4006F3477346534723420346F346E34203440
:10430400743468346534203462346F346134723404
:104314006434203475346E34743469346C34203429
:104324004C34453444342034313420346C346934CE
:10433400673468347434733420347534703400341E
:104344000D340A34203420342034203420342034F2
:1043540020342034203420342034203420342034B9
:104364002034203420342034203420342034743455
:104374006F34203469346E346434693463346134A2
:1043840074346534203463346F346E346E3465347D
:104394006334743469346E34673420347734693464
:1043A40074346834203470346534653472342E3493
:1043B4002034503475347334683400340D340A3482
:1043C4002034203420342034203420342034203449
:1043D4002034203420342034203420342034203439
:1043E40020342034203420342034623465342034A2
:1043F40074346F34673467346C3465346434203413
:10440400753470346F346E342034723465346334EC
:1044140065346934763469346E34673420346D34E9
:1044240065347334733461346734653473342E34CF
:10443400203400340D340A34533474346134723407
:10444400743469346E34673420344E346F346434D5
:1044540065342034313420346F346634203453349A
:1044640069346D3470346C346534203444346534C8
:104474006D346F34203466346F34723420344D34E8
:10448400693457346934283454344D34293420344D
:1044940050343234503420345334743461346334FB
:1044A4006B3420342E342E342E3400340D340A343C
:1044B4000D340A3443346F346E346E3465346334EB
:1044C400743469346F346E3420342034203420340E
:1044D400203450346534653472344C346F346E3463
:1044E40067344134643464347234653473347334FB
:1044F400203420342034203420345034653465345E
:10450400723449346E3466346F340D340A340034F2
:1045140020346934733420346E346F34743420346A
:1045240073347534703470346F3472347434653465
:104534006434203469346E34203463347534723412
:10454400723465346E347434203463346F346E34AE
:10455400663469346734753472346134743469345C
:104564006F346E342E340D340A34003443346F34D3
:104574006E346E3465346334743469346E34673441
:1045840020345034653465347234203420346F342C
:104594006E3420344334683461346E346E3465349C
:1045A4006C34203425346434203400340D340A341B
:1045B40020342034203420342034523446342034FF
:1045C4005434723461346E3473346334653469340E
:1045D4007634653472343A3420344D3452344634AB
:1045E400323434344A343434303400345334693457
:1045F4006D3470346C346534203450343234503477
:104604002034443465346D346F3420344D345234A2
:104614004634323434344A343434303420344E342E
:104624006F3464346534203400340D340A34433434
:104634006F346E346E3465346334743469346E3478
:1046440067342034503465346534723420346F3424
:104654006E3420344334683461346E346E346534DB
:104664006C342034003443346F346E346E34653427
:1046740063347434653464342034503465346534BC
:104684007234203420346F346E342034433468342C
:1046940061346E346E3465346C34203425346434BF
:1046A40000340D340A3443346F346E346E3465345C
:1046B400633474346534643420345034653465347C
:1046C400723420346F346E342034433468346134AB
:1046D4006E346E3465346C342034003442347234B5
:1046E4006F34613464346334613473347434203427
:1046F4005034613463346B34653474342034773427
:10470400693474346834203452345334533449345F
:104714002034003455346E34693463346134733472
:10472400743420345034613463346B3465347434F9
:104734002034773469347434683420345234533434
:1047440053344934203400340D340A34533465343A
:104754006C3465346334743469346F346E342034A7
:104764006F34663420346334683461346E346E34A8
:1047740065346C34203400340D340A34203420344D
:104784002034443465346D346F34203449346E3409
:1047940073347434723475346334743469346F34F8
:1047A4006E343A3400345234423430343A3425349A
:1047B4003034323464342D34253430343234783463
:1047C4002534303432347834253430343234783447
:1047D400003452346534733474346F34723469344D
:1047E4006E34673420344E346534743477346F3423
:1047F40072346B3420342134213400340D340A34BF
:1048040055346E346934633461347334743420340D
:104814004634613469346C34653464340D340A3498
:1048240000340D340A340D340A344D3479342034D0
:1048340041346434643472346534733473343A34D4
:104844002034303478340034303431343234333436
:1048540034343534363437343834393441344234EA
:1048640043344434453446340034303431343234FF
:1048740033343434353436343734383439346134B9
:1048840062346334643465346634003452345834E6
:1048940020344D346534733473346134673465348F
:1048A40073343A3420342534333464340034543487
:1048B400583420344D34653473347334613467347C
:1048C400653473343A342034253433346434003456
:1048D4005234423432343A342034433468346E34FB
:1048E4006734653420346E346F3464346534003492
:1048F400203455346E34693463346134733474341D
:1049040020344634613469346C346534643400349E
:1049140020342034203420342034203420342034F3
:104924002034203420342034203400342034203403
:104934004334683461346E346E3465346C343A34E0
:104944002034003420342034503441344E3449343B
:1049540044343A342034303478340034203443340A
:10496400683461346E346E3465346C343A340034F3
:1049740053346534633475347234653464342034A8
:1049840000340D340A34503441344E344934443400
:104994003A3400342034663472346F346D34203445
:0C49A40000340D340A340D340A340034A1
:104E72006400013080010131FE020030FF3B7F08F7
:104E82007E04031900343A2FFE0012001E00013086
:104E9200FE020030FF3B7F087E0403190034462FD8
:104EA20000302000AA00A430AB00933141237A30B5
:104EB200D700A430D800D901DA01DA0A93317A2B6B
:104EC200AD00AE000130AB020030AC3B2B0F6C2FBB
:104ED2002C0A031908002E088600023087002908D0
:104EE2008100AE0A632FF401F501701C7C2F720859
:104EF200F4077308F53DF235F30DF136F00C700846
:104F02007104031D762F7508F1007408F000080083
:104F120000308B190130AA008B1122000C11403095
:104F22008931C921A73100308931C921A731003027
:104F32008931C92122000C1520002A0C031C8B1177
:104F420003188B15080000308B190130AA008B1151
:104F520022000C1140308931C921A7310130893139
:104F6200C921A73100308931C92122000C15200046
:104F72002A0C031C8B1103188B150800300831040E
:104F82000319DA2FB401B40AB11BCA2FB035B10D1F
:104F9200C42F31083302031DD02F30083202031C04
:104FA200D62F3008B2023108B33BB136B00CB40B85
:104FB200CA2F3308B1003208B0000800D80094317B
:104FC2000524A7310530B500B60193319D23A731E1
:104FD2005930B500A430B6005808B7004830B801BF
:104FE20081311121A7314830B500A430B6005708ED
:0E4FF200B7005830B8018131112189315B2997
:020000040001F9
:02000E00E2CB43
:00000001FF
